:020000040000FA
:10000000040C040000000000E6760000E676000024
:10001000E6760000E6760000E6760000E676000070
:10002000E6760000E6760000E6760000E676000060
:10003000E6760000E6760000E6760000E676000050
:10004000E6760000E6760000E6760000E676000040
:10005000E6760000E6760000E6760000E676000030
:10006000E6760000E6760000E6760000E676000020
:10007000E6760000E6760000E6760000E676000010
:10008000E6760000E6760000E6760000E676000000
:10009000E6760000E6760000E6760000E6760000F0
:1000A000E6760000E6760000E6760000E6760000E0
:1000B000E6760000E6760000E6760000E6760000D0
:1000C000E6760000E6760000E6760000E6760000C0
:1000D000E6760000E6760000E6760000E6760000B0
:1000E000E6760000E6760000E6760000E6760000A0
:1000F000E6760000E6760000E6760000E676000090
:10010000E6760000E6760000E6760000E67600007F
:10011000E6760000E6760000E6760000E67600006F
:10012000E6760000E6760000E6760000E67600005F
:10013000E6760000E6760000E6760000E67600004F
:10014000E6760000E6760000E6760000E67600003F
:10015000E6760000E6760000E6760000E67600002F
:10016000E6760000E6760000E6760000E67600001F
:10017000E6760000E6760000E6760000E67600000F
:10018000E6760000E6760000E6760000E6760000FF
:10019000E6760000E6760000E6760000E6760000EF
:1001A000E6760000E6760000E6760000E6760000DF
:1001B000E6760000E6760000E6760000E6760000CF
:1001C000E6760000E6760000E6760000E6760000BF
:1001D000E6760000E6760000E6760000E6760000AF
:1001E000E6760000E6760000E6760000E67600009F
:1001F000E6760000E6760000E6760000E67600008F
:10020000FFFFFF00FFFFFF00E6760000E67600003C
:10021000E6760000E6760000E6760000E67600006E
:10022000E6760000E6760000E6760000E67600005E
:10023000E6760000E6760000E6760000E67600004E
:10024000E6760000E6760000E6760000E67600003E
:10180000040C000000000000CFC12100007F220076
:1018100000018800000000000A0007001100070016
:10182000000020000000E000020032000000020082
:1018300000000000C80F0200000000000040DA00B5
:101840000000FE004440A900C0D821000000E000D4
:101850000300320000002000A00188004440A800DE
:1018600000000600E03D27000100200015003700C1
:1018700062004000E0804800910188009001BA00B9
:1018800062004000E0804800910188009002BA00A8
:1018900062004000E08048000002EB006028E100A8
:1018A00004003A000059EB008301E900FDFF3E000F
:1018B000040037006128E100010032000082EB00E3
:1018C00005000700910188001001BA000200E00045
:1018D000E7FF3A00000005009101880080027800CF
:1018E00062004000E08048003559BA008301E900F9
:1018F000080032002559BA008301E90005003200D2
:101900000400E000F4FF320015D9BA008301E900B9
:10191000F1FF3A0000000600889FBE008A9FBE00CB
:10192000010578000100E0000400350008003C00DB
:101930000000E000200032000500370060001000C9
:10194000E080180002003B0001F02C001A00370074
:101950000004BE006011B8006B0920000982CF00AE
:10196000020039000882CF000441B00069425200F1
:101970000E00320008003B008281710061016400AA
:101980008904D1000884D3008B05E8000442E800F4
:10199000F9FF3A00050037000804440089844C0030
:1019A0008B05E9000442E900FBFF3A00250107002E
:1019B0000AF0A70001F0A0004F05BE004F04BE00D2
:1019C0000000060003F0A200889FBE008A9FBE00B0
:1019D0008C1F780041010700480133006450E1008A
:1019E0004F0032006420E1005200320003826C009C
:1019F00007003B000905D0000306D000820F540009
:101A00000C065D00020039000200320089017800F6
:101A1000030678008582550004003D000003FD00A8
:101A20008103FD008502EA008B854200840F72006D
:101A300002003B0060001000E08018006011B80058
:101A40000005EB007A28E1000A0039000600780062
:101A5000C75DDD00F707B200878075002D003700F5
:101A6000828171000A017800610560008180D100E7
:101A70000080D3008502E900F9FF3B000604400026
:101A80008784480002003B0060041400E0841C00CE
:101A90000988A300070032008A81710082817100E9
:101AA000610164008904D1000884D3008B05E8003B
:101AB000170037000978A30013003A000B00E0007C
:101AC000130034008B05E9000804440089844C00AD
:101AD0000A4474000978A3000D003A000B00E000EE
:101AE000070034008B05E9000804440089844C0099
:101AF00001003A000B0020000978A300F7FF320034
:101B00000001EB0002003700828171000A017800B9
:101B1000CC0007000CF0A70001F0A0000001370086
:101B20006420E10002003A00838F6C000001330062
:101B30000801BE000200BE00F9003700889FBE0009
:101B40008A9FBE008C1F7800E4000700EB00330082
:101B500003866C006450E1002E0032006420E10036
:101B6000330032006150E1002F0032006120E100BB
:101B70003100320085855500EB07B00009002000D8
:101B800008042000050037000804440089844C0044
:101B90000A0031000603430087834B000001530015
:101BA00081815B00F8FF33000203BE000800A00043
:101BB0000804440089844C00F6FF3900C639DD0072
:101BC0008301730001003200130020008904D1005A
:101BD0000884D3000998A300050032000800A7007C
:101BE0000300A0008904D1000884D3008B05E8001D
:101BF0008904D1000884D3000001EB000281D200E7
:101C00009000070001F0A1000CF0A70001F0A00077
:101C1000C30037006420E100C50032000801BE00A7
:101C20000200BE00F7FF37006120E100C000320073
:101C30006000B800F3FF37000000200001F8270023
:101C4000F0FF3700889FBE008A9FBE008C1F78007F
:101C5000A2000700A900330003866C006450E10075
:101C6000240032006420E100270032006150E100CE
:101C7000220032006120E100210032008B85420009
:101C8000EB07B1000134B800003AB8000804420084
:101C900089844A00013AB8000030B80088804000CA
:101CA00009014A0004003300000040008180480020
:101CB000020149008B05E900C909DD0083017000BC
:101CC0000100320013002000C814DE004814DD00BB
:101CD0004709DE001200B200C808DE000884700068
:101CE0005800070001F0A1000CF0A70001F0A000CF
:101CF0008B0037006120E1008D0032000801BE003A
:101D00000200BE00F7FF37006150E100FCFF3A001F
:101D1000870037000001BE00880007000470A7009C
:101D200003F0A10003F8A30013003A006509B10015
:101D300010003200090035006928E100020035007A
:101D400001002800000005000000400081804800DC
:101D50008502E900FCFF3A0000000600F88F42000F
:101D6000050035008100D1000080D3008502E80025
:101D7000FCFF3A00000006008000EB0000000500B8
:101D80006022B800060220000000D0008180D2004E
:101D90000482D2008582D2000000A000020252001C
:101DA00083825A00030031000202420083824A000B
:101DB0000000A1000603E900F3FF3A00000006005E
:101DC0000001BE005D0007000470A70003F0A10041
:101DD0006509B100160032000D0035006828E100E9
:101DE00006003500F0FF2F00F1FF27000300E000A0
:101DF00013003B0001002800000005000000400027
:101E0000818048008502E900FCFF3A0008003700A5
:101E1000F88F420002003C008000EB00000005004B
:101E20008100D1000080D3008502E800FCFF3A0069
:101E30000300E00002003B0060001000E08018009A
:101E40000000060081002000618055000B003D006D
:101E50000B00200061FE2F000100E1001D00340096
:101E600082817100610164008904D1000884D3007B
:101E70000000E800FAFF3A007100200061006400F1
:101E80000300700002006000090032006104440099
:101E9000E0844C000988A500050032008B05E800AD
:101EA0006808E10002003A008904D1000884D300E8
:101EB000F20F20000258E10005003D00C75DDD0083
:101EC000F907B2008980750008007800000006005C
:101ED0000BF827008B007800000005000004BE000E
:101EE000160007000003BE000405BE000200BE008D
:101EF00012000700844F7500000006000200BE00BB
:101F00006450E100050036006420E1000200360064
:101F10000968A30001003A000800BE000160A000AB
:101F20004F0678004F05BE004F04BE0000000600BB
:101F3000F0FF2F00F1FF2700F9FF3700C70ADE008E
:101F4000F107B200F50FB20008003200E1CF420005
:101F5000020032000170A00024000500810F700013
:101F6000010032000408050044000500810F7000E4
:101F700002003A00140005008502E900000040005C
:101F800081C04800FCFF3B000170A0002400050058
:101F90000400FA003300070000003700C280200070
:101FA00001FA2000C07A210094170700100798005A
:101FB0001E009000E10F500005003200F00F2000DD
:101FC0009E009000808F50001A0032001C003700E5
:101FD00060BD8000000F78009E0078000100E000E6
:101FE000040032001E007800E10F500004003200AF
:101FF0000700370090C1B300421A070007003700FE
:102000000CC8BF00B21307000004E00003003A0050
:1020100060BD8000C1802000961507000000EB0025
:1020200060BD880097130700E0C3B3001E1A0700C5
:10203000030037000000EB0060BD8800B0210700FE
:102040000BC8BF00624060000004E000D3FF320014
:102050000001EB008000EB0060C1B300301307000B
:10206000CEFF37000000FA004507A9000080EB0012
:10207000601988004227A900416A20009140780039
:1020800000CEB30000C060003040B300A4E6B7004B
:10209000216C20009140780000CEB30000C06000A9
:1020A0003040B300C2E6B70080C0B30000E8B7001C
:1020B0000000EB0010408800F70407002E05070021
:1020C0008000EB00F00F2000011A0700304088006C
:1020D00021002000F00F2000FD190700404088007B
:1020E00010C1B300F0190700D0C0B300EE1907000B
:1020F000A0C0B300EC190700181407006113070013
:10210000E0C3B300E81907000080FA0000000600F1
:102110000C00FA00004F7800110798002207980081
:102120001E80FB006101B900320798004307980048
:10213000C0012000010020003E019000CE0190006F
:10214000800F5100818F5900D4003E003E00900066
:10215000CE009000006001001C0037003E003700F8
:102160005E0037005D00370062003700B6003700C0
:10217000660037006C0037007200370078003700C7
:102180007C0037008000370084003700C300370030
:10219000C2003700C1003700C0003700BF00370061
:1021A000BE003700BD003700BC003700BB00370061
:1021B000BA003700B90037007D00370097003700BC
:1021C000B8003700B5003700B60037002E00900089
:1021D000E10F500007003A0010C0B300C919070012
:1021E000FD1E07000CFCB7000CDCBF00F404070068
:1021F0001400370020C0B300C21907002E00900061
:10220000EF04070030C0B300BE1907000000EB0068
:1022100050E0880007003700EF1E0700E8040700C1
:1022200000C2B300A019070050E080000000E800E1
:1022300050E0880051E080002E009000808F500018
:10224000F5FF3900D0C0B30097190700A0C0B30054
:10225000951907009300370040C0B300A919070083
:102260001E009000D60407002E009000E10F5000E1
:1022700003003A001E009000A61E0700120037005F
:10228000E0DC2E00281807002E009000CC04070088
:1022900050C0B3009B1907000000EB0050E088001D
:1022A000050037001E0090009A1E070050E08000D5
:1022B0000000E80050E0880051E080002E0090000F
:1022C000808F5000F7FF3900D0C0B30076190700A7
:1022D000A0C0B30074190700720037001E1E07006B
:1022E00020DD2E001018070080C0B30085190700FC
:1022F0006C0037002B1E0700A0DD2E000A18070017
:1023000090C0B3007F19070066003700D0C0B3004B
:102310007C190700E01E0700FC170700F0C0B3009F
:10232000781907005F003700E0C0B3007519070097
:10233000291F0700F5170700F0C0B3007119070047
:10234000580037002E0090009D04070000C1B30024
:102350006C1907002E009000F11E07005100370095
:1023600010C1B3006719070010C0B300081F0700B1
:102370004C00370020C1B300621907000040EB0099
:10238000031F07004700370030C1B3005D19070085
:1023900010C0B300F51E07004200370040C1B30073
:1023A000581907000040EB00F01E07003D00370001
:1023B0000B48A8000B88A80010C3B30051190700F0
:1023C00012002000210020001000200052160700FB
:1023D0000040E9000AE8B700E0C1B300491907006E
:1023E0001200200021002000100020004A160700E3
:1023F0000040EA0061406000614060004601DD008D
:10240000B180200091407800F0CBB30000C06000A4
:10241000024070000BE8B70022003700CB02A90091
:10242000CB22A900C922A800C902A900A1802000CE
:102430009140780020C0B300A41D07000040EB00CD
:1024400030190700170037009E00900051079800D0
:102450005E019000E10F51000A003200DE019000A1
:10246000E18F5100040039005E009000E20F50003F
:10247000050032000600370010DE2E00AA17070004
:1024800008003700090007001900070005003700A1
:1024900070C1B3001B1907000200370080C1B300F0
:1024A000181907000080FA00000006000000FA007A
:1024B00030E22E00B217070000E42E00B01707002C
:1024C0000040EB00BB1E070000C0EB0073040700D8
:1024D00010C0B300B71E070010C0B300901E070065
:1024E0000040EB00B31E07000080FA000000060069
:1024F0000A00FA00881F780020E62E008A170700DD
:102500000BC8BF000080FB004300DE00614060009C
:10251000204798000B68A8000000EB00000F78002F
:102520000D0037001E0478002B1E07008040780045
:1025300063004700017478009E0078006300470044
:10254000614078000080FB006818070000C2B300FB
:10255000D51807001E0FE800300020009E0F100065
:10256000F0FF3600D0C0B300CF180700A0C0B30002
:10257000CD1807002E40900061406000614060006F
:102580004301DD00B18020009140780070CFB3009E
:1025900000C06000024070000BE8B70010E82E0099
:1025A0006117070063004700104078000080FB00BF
:1025B0004400DE000080FB00400798004E009000C1
:1025C000E90F5000110032004E009000E90F50005A
:1025D00004003C004E009000E80F5000080032005C
:1025E000130037004E009000EA0F50000A0032003E
:1025F0004E009000EF0F50000A0032000C00370030
:10260000C0E82E005E1707000B00370030E92E00EF
:102610005B17070008003700A0E92E0058170700D5
:102620000500370010EA2E0055170700020037009A
:1026300050EA2E0052170700D0EA2E003A17070082
:1026400063004700104090000080FB004700DE0060
:102650000004E00003003A0090EB2E00481707004A
:102660000200370000EC2E004517070000ED2E0099
:102670002D17070063004700104090008080FB008A
:1026800080F72F00008060004380DE002047980024
:102690002E4090000004E00003003A00D0ED2E0030
:1026A000211707001B0037002E409000EF4F50000D
:1026B00003003A0010EA2E001B1707001500370030
:1026C00000042000000F7800E30047000040EB000A
:1026D00080487800080037001E00780000004000A5
:1026E000000F780063004700104078008040E80049
:1026F000630047000148780063004700904078007D
:102700002E40900080CF5000F3FF39001E0078006B
:1027100096170700D0C0B30063180700A0C0B3002D
:1027200061180700B0EE2E00FF1607006300470097
:102730009040900070C0B30000C060002047980037
:1027400010002000000F7800E30047000040EB007D
:1027500080487800080037001E0078000000400024
:10276000000F780063004700104078008040E800C8
:1027700063004700014878006300470090407800FC
:102780002E40900080CF5000F3FF39001E007800EB
:10279000A5170700D0C0B30043180700A0C0B300BE
:1027A000411807004F0478000080FA00000006007E
:1027B0000A00FA00004F78001107980022079800DD
:1027C0001E80FB006101B9003207980043079800A2
:1027D000C0012000010020003E019000CE019000C9
:1027E000800F5100818F5900D8003E003E009000BC
:1027F000CE009000006001001C0037003E00370052
:102800006A0037006900370073003700CC003700DA
:10281000770037007F003700870037008D003700D2
:10282000910037009500370099003700C700370046
:10283000C6003700C5003700C4003700C3003700AA
:10284000C2003700C1003700C0003700BF003700AA
:10285000BE003700BD00370092003700AB003700E4
:10286000BC003700B9003700BA0037002E009000D6
:10287000E10F500006003A0010C0B3002118070015
:1028800000C0EB00DA1C07004D03070015003700FD
:1028900020C0B3001B1807002E009000480307005B
:1028A00030C0B300171807000000EB0060DF88009D
:1028B0000800370000C0EB00CD1C070040030700F4
:1028C00000C2B300F817070060DF80000000E800D6
:1028D00060DF880061DF80002E009000808F500054
:1028E000F4FF3900D0C0B300EF170700A0C0B30059
:1028F000ED1707009700370040C0B300011807002C
:102900001E0090002E0307002E009000E10F5000E3
:102910000E003A001E009000B51C0700EEFBB70049
:10292000F0DBBF00614060000004E0001A003200EC
:1029300000C2B300DC17070010C0B300F117070096
:10294000EEDBBF001E03070013003700A03D2F0081
:10295000751607002E0090001903070050C0B30041
:10296000E81707000000EB0060DF88000600370072
:102970001E0090009E1C0700EEFBB70060DF800089
:102980000000E80060DF880061DF80002E0090001A
:10299000808F5000F6FF3900D0C0B300C217070087
:1029A000A0C0B300C01707006A00370031C0B300F1
:1029B0009ECF100002003A00F01BA8000100370073
:1029C000F01BA9000040EB007A1D0700A0C0B30077
:1029D000CC1707005F003700F01BA90010C0B30040
:1029E000741D0700B0C0B300C617070059003700B8
:1029F000D0C0B300C3170700271D07004316070008
:102A0000D0C0B300A8170700A0C0B300A6170700E6
:102A100050003700E0C0B300BA1707006E1D070072
:102A20003A160700D0C0B3009F170700A0C0B3003C
:102A30009D170700470037002E009000E0020700B6
:102A400000C1B300AF1707002E009000341D07002F
:102A50004000370010C1B300AA17070010C0B30030
:102A60004B1D07003B00370020C1B300A51707002E
:102A70000040EB00461D07003600370030C1B300B0
:102A8000A017070010C0B300381D07003100370041
:102A900040C1B3009B1707000040EB00331D070047
:102AA0002C00370010C3B300961707001200200057
:102AB0002100200010002000971407000040E900CA
:102AC0000AE8B700E0C1B3008E170700120020002B
:102AD00021002000100020008F1407000040EA00B1
:102AE00061406000614060004601DD00B18020006F
:102AF00091407800F0CBB30000C06000024070004D
:102B00000BE8B7000B48A80012003700F01BA90023
:102B1000A18020009140780030C0B300EB1B07007B
:102B2000C922A900C902A900C8E2A80010C0B300C8
:102B3000201D07000040EB0072170700050037005A
:102B400070C1B3006F1707000200370080C1B300E7
:102B50006C1707000080FA00000006000C00FA0065
:102B6000004F780011079800220798001E80FB0094
:102B70006101B9003207980043079800C0012000A6
:102B8000010020003E019000CE019000800F510016
:102B9000818F5900EA003E003E009000CE00900078
:102BA000006001002A0037004E0037001A0037008D
:102BB0001900370022003700C7003700E000370057
:102BC000DF003700DE003700DD003700DC003700B3
:102BD000DB003700DA003700D9003700D8003700B3
:102BE000D7003700D6003700D5003700D4003700B3
:102BF000D3003700D2003700D1003700D0003700B3
:102C0000CF00370064003700AC003700B000370059
:102C1000CB003700CC00370031C0B3009ECF10008E
:102C200002003A00F67BA80001003700F67BA900FD
:102C3000CAC2A900A0C0B30032170700C200370003
:102C4000CAC2A800B0C0B3002E170700BE003700EC
:102C50002E009000E10F500008003A0010C0B300B1
:102C60002817070000C0EB001D010700F4FBB700A8
:102C7000F4DBBF00520207001500370020C0B3008C
:102C8000201707002E0090004D02070030C0B3004F
:102C90001C1707000000EB0090DF880008003700D9
:102CA00000C0EB000E0107004502070000C2B300A0
:102CB000FD16070090DF80000000E80090DF88002C
:102CC00091DF80002E009000808F5000F4FF3900CB
:102CD000D0C0B300F4160700A0C0B300F21607007E
:102CE0009900370040C0B300061707001E0090008F
:102CF000330207002E009000E10F50000E003A0052
:102D00001E009000F6000700F4FBB700F6DBBF00E2
:102D1000684060000004E0001A00320000C2B30006
:102D2000E116070010C0B300F6160700F4DBBF0081
:102D3000230207001300370020C92E007A15070070
:102D40002E0090001E02070050C0B300ED160700D1
:102D50000000EB0090DF8800060037001E009000A6
:102D6000DF000700F4FBB70090DF80000000E80000
:102D700090DF880091DF80002E009000808F50004F
:102D8000F6FF3900D0C0B300C7160700A0C0B300DB
:102D9000C51607006C00370060C92E0078150700C3
:102DA000120020004100200010002000DA1307006C
:102DB0000040E9000AE8B700E0C2B300D1160700FE
:102DC000120020002100200010002000D213070074
:102DD0000040E900614060006141600061BF210086
:102DE00091407800E0CFB30000C060000240700066
:102DF000F6FBB700F0C2B300C216070022002000A5
:102E00002100200010002000C31307000040E9004B
:102E100061406000614060000041400061BF2100EE
:102E200091407800D0CFB30000C060000240700035
:102E3000F6FBB70000C3B300B21607001200200073
:102E40002100200010002000B31307000040E9001B
:102E500061406000614060004201DD0061BF21000F
:102E600091407800B0CFB30000C060000240700015
:102E7000F6FBB700E0C1B300A21607001200200065
:102E80002100200010002000A31307000040EA00EA
:102E900061406000614060004601DD00B1802000BB
:102EA00091407800F0CBB30000C060000240700099
:102EB0000BE8B7000B48A90023003700F67BA900F8
:102EC000230007000040EB008E1607001E003700AD
:102ED0006F0007001C0037001E0190005207980089
:102EE000DE0190000300E000040032005E0090006C
:102EF000E10F5000040032000E00370040CD2E00DC
:102F00001F15070010003700D0CF2E001C1507003A
:102F10001200200031002000100020007E13070066
:102F20000040E900F4FBB700F4DBBF007A000700C3
:102F30000500370070C1B3007216070002003700A9
:102F400080C1B3006F1607000080FA000000060081
:102F50000000FA0041E2A9000BC8BF000044B20023
:102F60000004E00003003200CEE2A800CF02A80077
:102F7000CEC2A800816A20009140780000CEB30044
:102F800000C060007040B300A8E6B700916C20005C
:102F90009140780000CEB30000C060007040B300E4
:102FA000C9E6B700816C20009140780000CEB300E4
:102FB00000C060000034A000C8E6B700CAC2A80084
:102FC000C8C2A900C902A900C8E2A800C922A90074
:102FD0000AC8BF008080FB00E0C0210000804000E4
:102FE000104078000080FB001012880042A2A80068
:102FF000F6DBBF0061406000614060004601DD001B
:103000002124200091407800F0CBB30000C0600084
:103010000240700042E2B700F6DBBF000080FB0018
:103020000000D10061406000614160003124200057
:1030300091407800E0CFB30000C060000240700013
:1030400043E2B700F6DBBF000080FB004200DE0079
:103050006140600061406000004140003124200078
:1030600091407800D0CFB30000C0600002407000F3
:1030700043E2B7000000EB00201288000000EB00E4
:103080000012880041E2A8000080FA00000006005B
:103090000000FA0041E2A900A8C6BF00F041B30059
:1030A000A8E6B700916C20009140780000CEB300F4
:1030B00000C06000C9E6B700816C20009140780034
:1030C00000CEB30000C06000C8E6B700CEE2A900A1
:1030D000CF02A900CEC2A9000080FA0000000600BD
:1030E0000200FA00004F78001E80FB0040128800AA
:1030F00085C0BF00644060000004E000FCFF3200B7
:1031000040128000004F78008540A9001E80FB001F
:103110000080FA00000006000400FA002047980032
:10312000A0D32E0096140700D9FF07004D0007001A
:103130002E409000E14F500008003E00CAC2BF0080
:103140000080FB004600DE006140600080407800A7
:103150002E40900080CF500008003A0041C2BF00CE
:1031600001C8B300014060000004E0000E003A0016
:1031700041E2A80061E2A8000B00370041C2BF0095
:1031800001C8B300014060000004E0000600320006
:1031900041E2A90061E2A900D0C0B300C215070056
:1031A000A0C0B300C015070040C2BF000042B2007B
:1031B0000004E00004003A0040128000004F780054
:1031C0001E407800FE00070060C2BF000042B2004F
:1031D0000004E00008003A0040138000004F78002F
:1031E00060D72E00501407001E407800F40007003E
:1031F00080D72E004C14070040C2BF000044B2002C
:103200000004E00004003A0060C2BF000044B200C5
:103210000004E00005003200B0D72E00581407006B
:1032200040C2A90060C2A9000A00370022C2BF0044
:10323000614060000004E000BDFF320030118000FA
:10324000004F7800D0C0B30097150700A0C0B300AE
:1032500095150700700007003DFF07000080FA0089
:10326000000006000000FA00C8C2A800C902A800B9
:10327000C8E2A800C922A800816A20009140780015
:1032800000CEB30000C060009040B300A8E6B700D5
:10329000916A20009140780000CEB30000C0600029
:1032A0000034A000A9E6B700C16A20009140780070
:1032B00000CEB30000C060007040B300ACE6B700C1
:1032C000D16A20009140780000CEB30000C06000B9
:1032D0000034A000ADE6B7000AC8BF008080FB0044
:1032E000E0C0210000804000104078000080FB001A
:1032F00010128800F6DBBF00614060006140600092
:103300004601DD002124200091407800F0CBB3007D
:1033100000C060000240700042E2B700F6DBBF0070
:103320000080FB000000D10061406000614160004E
:103330003124200091407800E0CFB30000C060004D
:103340000240700043E2B7000000EB00201288004A
:103350000000EB00001288000AC8BF008080FB005C
:10336000E0C0210000804000104078000080FB0099
:1033700010138800F6DBBF00614060006140600010
:103380004601DD002126200091407800F0CBB300FB
:1033900000C060000240700062E2B700F6DBBF00D0
:1033A0000080FB000000D1006140600061416000CE
:1033B0003126200091407800E0CFB30000C06000CB
:1033C0000240700063E2B7000000EB0020138800A9
:1033D0000000EB00001388000000EB0040128800A2
:1033E0000000EB00401388004322A9006322A900DB
:1033F0004362A80042A2A9006362A80062A2A900D9
:1034000040C2A90060C2A9004402A8006402A8004A
:103410000080FA00000006000000FA0041E2A90066
:103420004362A90061E2A9006362A900A8C6BF00C7
:10343000F041B300A8E6B700A9C6BF00F041B30051
:10344000A9E6B700ACC6BF00F041B300ACE6B700D8
:10345000ADC6BF00F041B300ADE6B7000080FA0092
:10346000000006000000FA000BC8A9000040EB00B5
:103470000AE8B7000B28A9000B08A9000B48A9000F
:103480000B68A9000B88A9000BA8A9000BE8A900EC
:103490000080FA00000006000000FA00C922A8001F
:1034A000C902A800C8E2A800C8C2A800C942A80072
:1034B000CA82A900C882A900C962A800C262A80085
:1034C000C062A9000000EB0020408800E5FF070073
:1034D000C082A900C282A900C8A2A900CAA2A900EC
:1034E0002D23A9002D43A9002D63A9002D83A90038
:1034F000013220009140780000CEB30000C070007F
:1035000020E3B7000000EB008019880020F02100C4
:10351000201988000000EB00101988000080FA00D4
:10352000000006000200FA00004F78001E80FB0039
:10353000401988002023A8002003A90020C3BF0051
:10354000614060000004E000FCFF320000188000D1
:103550000080FA00000006000000FA0021E3A80045
:10356000C0C0B300EFFF07009414070021E3A900D7
:103570000080FA00000006000000FA0000C8BF004A
:103580000080FB008000400000B721000080400068
:1035900010007800401188000000EB000011880046
:1035A0002062A8000000EB001011880021E2A800B2
:1035B0002342A8008560A9000080FA0000000600F0
:1035C0000400FA00004F78001040800010079800B7
:1035D0001E009000E10F50000D0032001E00900010
:1035E000E10F5000070039001E009000E20F50006C
:1035F0000A0032001E009000E30F50000A00320063
:103600000B0037001E80FB0038140700080037004D
:103610001E40780004140700050037001E407800A3
:1036200071130700020037001E4078009E14070047
:103630000080FA00000006000600FA0040479800EB
:103640000040EB00204798000E0037000000EB0020
:10365000000F780005003700A0CFB3000F0007006F
:103660001E0078000000E800000F78001E007800BF
:10367000E30F5000F8FF36002E4090000040E800B5
:1036800020479800AE4090004E40900080CF500000
:10369000EEFF39000080FA00000006000400FA0086
:1036A000204798000040EB00004F780013003700DF
:1036B000000000000000000000000000000000000A
:1036C00000000000000000000000000000000000FA
:1036D00000000000000000000000000000000000EA
:1036E00000000000000000000000000000000000DA
:1036F0001E4078000040E800004F78009E407800AF
:103700002E40900080CF5000E9FF39000080FA0081
:10371000000006000C00FA00004F78001107980026
:103720002207980094DBBF00E14F500030003A00C0
:1037300000C2B3005C14070030C0B3009E4F1000FD
:103740000600320021C0B3009ECF100003003200FB
:1037500042C0B3009E4F11000F003A0070C0B3008A
:1037600068140700D0C0B3004F140700A0C0B30016
:103770004D14070095DBBF000004E00003003A0091
:1037800010C0B300D51907001700370010C0B300F0
:103790008202070014003700C3C1B3009ECF11009E
:1037A00003003A0020942E00F5120700AD01370007
:1037B00060C0B30053140700D0C0B3003A14070030
:1037C000A0C0B3003814070095DBBF000004E00080
:1037D00003003A000040EB00C01907000200370068
:1037E0000040EB006D0207000040EB0094FBB700C7
:1037F0001E80FB006101B900320798004307980062
:10380000C0012000010020003E019000CE01900088
:10381000800F5100818F590090013E003E009000C2
:10382000CE009000006001001C00370059003700F6
:103830008A0037008900370091003700D500370033
:103840008601370085013700840137008301370086
:103850008201370081013700800137007F01370086
:103860007E0137007D0137007C0137007B01370086
:103870007A01370079013700780137007701370086
:10388000760137007501370086003700AA0037003F
:10389000B900370071013700720137002E00900027
:1038A000E10F50000D003A0010C0B30015140700DE
:1038B00095DBBF000004E00003003A004619070052
:1038C00097FBB700020037005102070097FBB700D3
:1038D00097DBBF003AFF07002B00370020C0B30082
:1038E000081407002E00900035FF070030C0B30019
:1038F000041407000000EB00C0DC88001E00370045
:10390000C0DC80000000E0000E00320000C2B30006
:10391000E513070060C0B300FA13070000C2B3004C
:10392000E113070095DBBF000004E00003003A004C
:103930000040EB0069190700020037000040EB006F
:103940001602070095DBBF000004E00003003A0008
:103950002119070097FBB700020037002C0207006F
:1039600097FBB70097DBBF0015FF0700C0DC8000A6
:103970000000E800C0DC8800C1DC80002E00900060
:10398000808F5000DEFF390010C0B30094FBB700F9
:103990003401370040C0B300DA1307001E00900066
:1039A00007FF07002E009000E10F500006003600D0
:1039B00040952E005C1207002E00900000FF0700CB
:1039C00050C0B300CF1307000000EB00C0DC88003C
:1039D0000F00370095DBBF000004E00005003A004F
:1039E0001E009000CB1807002B19070097FBB700AB
:1039F000040037001E009000FB010700E0010700F3
:103A000097FBB700C0DC80000000E800C0DC880045
:103A1000C1DC80002E009000808F5000EDFF390047
:103A200000C2B300A013070097DBBF000004E00052
:103A300003003A0060C0B300B21307000200370071
:103A400070C0B300AF130700D0C0B30096130700D7
:103A5000A0C0B300941307000201370095DBBF003C
:103A60000004E00002003A003B18070001003700A4
:103A7000B301070080C0B300A2130700F9003700AC
:103A800095DBBF000004E00002003A004518070083
:103A900001003700B201070090C0B300991307007E
:103AA000F00037000BC8A8000B88A80080952E00F6
:103AB0003312070012002000210020001000200017
:103AC000951007000040E90095FBB70095DBBF00AB
:103AD0000004E00009003A0010C3B3008913070096
:103AE0001200200021002000100020008A10070092
:103AF0000040E9000AE8B700DA00370041408000E2
:103B000030002300808F500002003E00E0972E001E
:103B10001B120700109C2E00191207001200200033
:103B200031002000100020007B1007000040E90059
:103B30000AE8B700CB00370095DBBF000004E000C7
:103B400009003A00C922A800C902A800CB02A900B6
:103B5000CB22A900A18020009140780020C0B300B2
:103B6000DA17070001003700B40107000040EB003E
:103B700064130700BB0037000040EB0094FBB70064
:103B800095DBBF00E14F5000B6003A0007E2A90004
:103B9000B40037009E009000510798005E0190002D
:103BA000E10F51000D003200DE019000E18F510065
:103BB000070039005E009000E20F50004E00320016
:103BC000DE009000E38F50008F003200A00037002D
:103BD000509F2E00EA110700A2003700B0A22E006D
:103BE000E71107000000EB00C0DC88003900370057
:103BF00095DBBF000004E00006003A00D61707007E
:103C0000C0DC800043180700A318070097FBB7002B
:103C1000050037004A010700C0DC80007201070080
:103C20005701070097FBB70097DBBF000004E000D7
:103C30001F003A00C0DC800061FE070080C2B300B4
:103C400019130700C0DC80000000D1005CFE0700F3
:103C5000C0DC80000000A200610060000004E00001
:103C600003003200C0A72E00AF1107000C00370080
:103C700095DBBF000004E00004003A00561807007E
:103C800010C0B3009518070003003700600107005B
:103C900010C0B30041010700F0A72E00A2110700D9
:103CA00020A82E00A011070000C2B300FE120700DA
:103CB00095DBBF000004E00002003A00B9170700DE
:103CC0000100370026010700C0DC80000000E8008A
:103CD000C0DC8800C1DC8000F00F2000808F500025
:103CE000C3FF3600D0C0B300EF120700A0C0B3007E
:103CF000ED1207005B00370040A82E008A11070074
:103D000002052000F1072000A0002000021007009B
:103D100097FBB70097DBBF000040400097FBB70060
:103D200050A92E0080110700F20F2000F10F200093
:103D3000A0002000F80F070096FBB700B0A92E00E6
:103D4000791107008417070097DBBF00F117070000
:103D5000511807000040EB00EE1707004E1807004F
:103D60000040EB00EB1707004B1807007A1707001D
:103D700097DBBF000040E80097FBB70097DBBF0070
:103D8000E41707004418070096DBBF000040E90075
:103D900096FBB7000000EB00C0DC88000C00370089
:103DA0000D18070006FE07000040EB004B18070047
:103DB00010408000E20F500002003E0000C2B3003D
:103DC000B9120700C0DC80000000E800C0DC8800F9
:103DD00096DBBF008080FB00C0DC8000808F50003D
:103DE000EFFF3E00FC170700F5FD070010C0B30011
:103DF0003A180700D0C0B300AB120700A0C0B30050
:103E0000A91207001700370095DBBF000004E0008F
:103E10000F003A0000AB2E005911070013000700F5
:103E20003500070022C2BF00614060000004E000CE
:103E3000FBFF320030118000C0DC8800D0C0B3002E
:103E400099120700A0C0B3009712070005003700C1
:103E500070C1B300AB1207000200370080C1B3008D
:103E6000A81207000080FA00000006000000FA0017
:103E7000C922A800C902A800CB02A900CB22A90030
:103E800062A0A80062C0A8008660A9000000EB0044
:103E9000D0DC88000040EB009FFBB700CBC2BF0026
:103EA0000080FB000000D1006140600061416000C3
:103EB000E1B9210091407800E0CFB30000C060007C
:103EC000024070009EFBB700CBC2BF0061406000A3
:103ED000614060004201DD00E1B9210091407800BD
:103EE000B0CFB30000C06000024070009EFBB7007E
:103EF0000080FA00000006000400FA0086C0BF003F
:103F0000684060000004E0008B003200CBC2BF00BC
:103F10000080FB000000D100614060006140600053
:103F200000414000E1B9210091407800D0CFB300BA
:103F300000C06000024070009EFBB700CBC2BF0013
:103F400061406000614060004301DD00E1B9210093
:103F50009140780070CFB30000C060000240700054
:103F60009EFBB7008660A9009EDBBF006440600036
:103F70000004E000220032009EDBBF0068406000C9
:103F80000004E0001E0032009EDBBF0061406000C4
:103F90000004E0000B0032009EDBBF0062406000C6
:103FA0000004E00007003A0020002000D0DC880078
:103FB0000040EB009FFBB700B0C5B3003A1207000A
:103FC000460037009EDBBF00614060000004E00057
:103FD00042003A009EDBBF00624060000004E00047
:103FE0003E0032000000EB00D0DC88000040EB0017
:103FF0009FFBB700D0C5B3002B1207003700370076
:104000009EDBBF00644060000004E00033003A0023
:104010009EDBBF00684060000004E0002F0032001B
:10402000D0DC8000100798001E009000E20F5000C6
:10403000040032001E009000E30F50001700320011
:10404000260037009CDBBF00004040009CFBB7000F
:104050009EDBBF000080FB000000D10061406000DB
:10406000804078009CDBBF0000C040009CFBB70094
:104070009FDBBF000040E8009FFBB7009FDBBF0055
:10408000E84F500015003A000040EB009FFBB700DE
:1040900030002000D0DC880010003700CBC2BF0009
:1040A0000080FB000000D10061406000004F7800FC
:1040B0009CDBBF0042FD07001E04E000030032004D
:1040C000D0C2B300F811070002003700B0C2B3003D
:1040D000F511070020002000D0DC88009EDBBF0027
:1040E0000080FB000000D100614060006141600081
:1040F000E1B9210091407800E0CFB30000C060003A
:10410000024070009EFBB7009EDBBF000080FB00FA
:104110004300DE0061406000614060004201DD005C
:10412000E1B9210091407800B0CFB30000C0600039
:10413000024070009EFBB7000080FA0000000600FD
:104140000000FA000602A80006C2BF00614060003D
:104150000004E000FCFF3A000080FA0000000600C6
:104160000000FA000642A80006C2BF0064406000DA
:104170000004E000FCFF3A000080FA0000000600A6
:104180000000FA0009C2BF000080FB004700DE000B
:104190000080FB000080FA00000006000200FA0028
:1041A000004F78009E40780061C060006140600070
:1041B0004501DD006120200091407800F0CDB30082
:1041C00000C060000240700006E2B7000682A8004E
:1041D00006C2BF00704060000004E000FCFF3A002F
:1041E0000080FA00000006000200FA00004F78008C
:1041F0001E40780002E2B70009C2BF000044B200CE
:104200000004E000FCFF3A000080FA000000060015
:104210000200FA000662A80006C2BF006840600003
:104220000004E000FCFF3A0000C2BF00004F78002D
:104230001E80FB000080FA00000006000000FA006B
:104240000742A9000782A9000000EB005010880077
:104250000000EB00601088000702A9000AC8BF0038
:104260008080FB0020C121000080400010407800C9
:104270000080FB002010880007E2A8000080FA0000
:10428000000006000C00FA00004F780011079800AB
:10429000220798001E80FB006101B90032079800D8
:1042A00043079800C0012000010020003E0190005B
:1042B000CE019000800F5100818F590031013E00E6
:1042C0003E009000CE009000006001004D003700DD
:1042D0006F0037003B0037004000370045003700D3
:1042E000BB0037008D00370097003700A100370072
:1042F000A7003700AA003700AD003700B000370034
:10430000200137001F0137001E0137001D01370053
:104310001C0137001B0137001A0137001901370053
:104320001801370017013700160137000400370065
:104330002000370015013700120137001301370044
:10434000E0C1B3006F11070012002000210020001F
:1043500010002000700E07000040E900614060007E
:104360006141600041BB210091407800E0CFB30083
:1043700000C0600002407000B4FBB700B4DBBF00B7
:104380006140600000C0EA00614060006140600080
:104390004601DD00B180200091407800F0CBB300F1
:1043A00000C06000024070000BE8B7000B48A80096
:1043B000F6003700860107000040EB0051110700AE
:1043C000F2003700F300070020C0B30043010700EC
:1043D000404D2E00EA0F0700EC003700ED0007000B
:1043E00030C0B3003D010700E04F2E00E40F07008E
:1043F000E6003700E700070060522E00E00F0700DC
:10440000E20037002E009000E10F500007003A0054
:10441000E0010700B2FBB70010C0B300391107007C
:10442000B2DBBF0066FC07001400370020C0B300F9
:10443000341107002E00900061FC070030C0B3006B
:10444000301107000000EB0080DD88000700370016
:10445000D00107005AFC070000C2B3001211070088
:1044600080DD80000000E80080DD880081DD8000C4
:104470002E009000808F5000F5FF3900D0C0B300AF
:1044800009110700A0C0B30007110700BF003700E3
:1044900040C0B3001B1107001E00900048FC07003D
:1044A0002E009000E10F500004003A001E00900022
:1044B00052010700B2FBB7001300370030532E0043
:1044C000990F07002E0090003DFC070050C0B3007C
:1044D0000C1107000000EB0080DD880006003700AB
:1044E0001E00900045010700B2FBB70080DD800090
:1044F0000000E80080DD880081DD80002E00900053
:10450000808F5000F6FF3900D0C0B300E6100700DE
:10451000A0C0B300E41007009C003700E1010700D1
:10452000B2FBB700D0C0B300F6100700B2DBBF008B
:10453000760F0700D0C0B300DB100700A0C0B300A7
:10454000D910070091003700E0C0B300ED1007005C
:10455000DE010700B2FBB700B2DBBF006B0F070044
:10456000D0C0B300D0100700A0C0B300CE10070029
:10457000860037002E00900011FC070000C1B30038
:10458000E01007002E009000F90107007F003700BF
:1045900010C1B300DB100700020207007B003700E8
:1045A00020C1B300D71007001702070077003700BB
:1045B00030C1B300D3100700CB01070073003700F0
:1045C00040C1B300CF100700E20107006F003700C1
:1045D0009E009000510798005E019000E10F51008D
:1045E0000D003200DE019000E18F5100070039001C
:1045F0005E009000E20F50000C003200DE009000E0
:10460000E38F5000550032005B00370070532E00DE
:10461000450F07005D003700A700070040582E0037
:10462000570F07005B0007005800370020592E0085
:10463000530F0700A000070040582E00500F07003E
:10464000A90107005300070020C0B300A300070022
:1046500000C0EB00C601070000C0EB00C40107006A
:104660004C00070030C0B3009C0007000000EB00C6
:1046700080DD88000700370080DD80000000E80052
:1046800080DD880081DD8000900F2000808F500049
:1046900003003E00830107000004E000F6FF320043
:1046A0003C0007008400070040582E00340F07002C
:1046B0003800070030C0B3008800070080DD8000AC
:1046C000BFFB0700205A2E002D0F07000040EB0013
:1046D000B2FBB7001A003700B2DBBF000040E800B1
:1046E000B7FB0700B05B2E000F0F07002901070082
:1046F000B3FB070000C2B3006B10070025010700E1
:10470000AFFB070000C2B3006710070021010700DC
:10471000ABFB070000C2B300631007001D010700D8
:10472000A7FB0700D0C0B3005F100700A0C0B30014
:104730005D100700B2DBBF000040E800B2FBB7002D
:10474000B2DBBF008080FB0080DD8000808F5000E6
:10475000E1FF39000F0007000C003700F05B2E006E
:10476000070F070020602E00050F070070632E0062
:10477000030F07000500370070C1B3006110070088
:104780000200370080C1B3005E1007000080FA000D
:10479000000006000200FA0020662E00E20E07006C
:1047A000ACDBBF000080FB00000F78001E0078002B
:1047B000E10F50000E0032001E007800E10F5000A3
:1047C00004003C001E0078000000E0000B003200F6
:1047D000350037001E007800E20F50000F00320055
:1047E0001E007800E30F5000240032002E00370036
:1047F000B0662E00E20E07002D003700A40107006E
:1048000010C0B3005A01070010C0B300ACFBB700E2
:1048100080672E00DA0E070025003700ADDBBF00F1
:10482000E14F50000A003A00AEDBBF00E14F5000FC
:1048300002003A002C010700010037004501070083
:104840000040EB00ADFBB70040682E00B60E07003D
:104850007401070020C0B300450107008C01070068
:1048600010C0B3004201070010C0B300ACFBB7009A
:1048700090692E00C20E07000D0037006901070085
:1048800020C0B3003A0107008101070010C0B30047
:104890003701070010C0B300ACFBB700206A2E0040
:1048A000B70E070002003700B06A2E00B40E0700F2
:1048B0000080FA00000006000000FA00590107001D
:1048C000A0C0B3002A010700710107000040EB00FF
:1048D000ACFBB7000080FA00000006000400FA00FC
:1048E000004F7800ACDBBF00E14F50000200320007
:1048F000906B2E00A20E070020662E008A0E070085
:104900001E80FB00100798001E009000E10F500071
:104910000E0032001E009000E10F500004003C0029
:104920001E0090000000E0000B0032002400370061
:104930001E009000E20F5000160032001E00900092
:10494000E30F5000080032001D003700B0662E0053
:104950008B0E07001C003700D7FF0700506D2E009C
:10496000870E0700180037002E01070010C0B300A3
:10497000FF0007004601070020C0B300FC0007004D
:1049800030C0B300ACFBB700B06D2E007C0E07004A
:104990000D0037002301070020C0B300F40007001A
:1049A0003B01070020C0B300F100070020C0B300A6
:1049B000ACFBB700F06E2E00710E0700020037004E
:1049C00040722E006E0E07000080FA000000060004
:1049D0000000FA00C8E2A800C902A900C922A90083
:1049E000C8C2A900CAE2A900CB02A900CB22A90033
:1049F000CAC2A9000080FA00000006000800FA0000
:104A00004047980000010700ADDBBF00E14F5000B8
:104A100006003A00AEDBBF00910007000040EB004B
:104A2000ADFBB700E0732E00550E07000BC8BF00AA
:104A3000684060000004E0000300320010C0B300D2
:104A4000004F78000200370000C8B300004F780024
:104A50000040EB0030479800450037004E40900082
:104A60001E4060000004E00002003A00B9000700A8
:104A7000010037009C000700CA000700CAC2BF003F
:104A80000080FB004700DE00204798000BC8BF00F5
:104A9000684060000004E000100032004E409000CA
:104AA0000080FB000000D100404798001E409000AD
:104AB0000080FB000000D100104798002E409000BD
:104AC000E14F500011003A001E40900001C8B300B1
:104AD00001404000104798000C0037004E40900005
:104AE00000404000404798001E40900000404000B9
:104AF000104798002E409000E14F500003003A000C
:104B00001E4090000040E80010479800BE000700DB
:104B1000ACDBBF00E24F500012003A003E40900074
:104B2000E64F50000F003A0010C0B300ADFBB700D5
:104B30004E4090001E4060000004E00003003A0078
:104B40000040EB00AEFBB7000200370010C0B3001E
:104B5000AEFBB7001E4090000080FB0030079800BD
:104B6000090037003E4090000040E80030479800C0
:104B70003E409000E74F5000B8FF36001E409000C6
:104B80000080FB00300798003E0090000080FA0093
:104B9000000006000400FA009B000700ADDBBF0028
:104BA000E14F500006003A00AEDBBF002C000700CA
:104BB0000040EB00ADFBB700E0732E00F00D0700E6
:104BC0000040EB00204798001F00370075000700E9
:104BD000CAC2BF000080FB004700DE0010479800FB
:104BE0000BC8BF00684060000004E00008003A0005
:104BF0001E40780000404000004F78001E409000AA
:104C00000004E0000C0032001E4FE8000A003700EC
:104C10001E80FB000000D100004F78001E40900075
:104C20000004E000040032001E40780001C8B30018
:104C300001404000004F7800730007002E409000B4
:104C40000040E800204798002E409000E74F5000B9
:104C5000DEFF36001E80FB000080FA000000060028
:104C60000400FA00204798002E4090000004E00065
:104C700002003A0037000700010037001A00070061
:104C800048000700CAC2BF000080FB004700DE00EA
:104C9000004F78005C0007001E80FB000080FA00D7
:104CA000000006000200FA003E000700CAC2BF0072
:104CB0000080FB004700DE00004F78005200070034
:104CC0001E80FB000080FA00000006000000FA00D1
:104CD000CAC2BF000080FB004700DE000080FB006E
:104CE0000080FA00000006000000FA00B4DBBF00FC
:104CF0006140600000C0EA00614060006140600007
:104D000000414000912C200091407800D0CFB300AA
:104D100000C0600002407000C9E2B700B4DBBF0011
:104D2000614060006140600000414000B12C200003
:104D300091407800D0CFB30000C060000240700006
:104D4000CBE2B70040C1B30054FA07000080FA007C
:104D5000000006000000FA00CB22A900C922A90029
:104D600040C1B3004DFA07000080FA0000000600C1
:104D70000400FA00204798000040EB00004F780044
:104D800003003700070007001F0007001E4FE80060
:104D90002E4090009E4F1000FAFF39000080FA006C
:104DA000000006000000FA00B4DBBF0061406000B4
:104DB00000C0EA006140600061416000912C200069
:104DC00091407800E0CFB30000C060000240700066
:104DD000C9E2B700B4DBBF00614060006141600020
:104DE000B12C200091407800E0CFB30000C06000FB
:104DF00002407000CBE2B70040C6B30027FA0700BC
:104E00000080FA00000006000000FA00CB02A900B2
:104E1000C902A90040C6B30020FA07000080FA00CA
:104E2000000006000000FA00B4DBBF006140600033
:104E300000C0EA0061406000614060004601DD00A2
:104E4000812C200091407800F0CBB30000C06000BE
:104E500002407000C8E2B700B4DBBF0061406000F0
:104E6000614060004601DD00A12C200091407800E7
:104E7000F0CBB30000C0600002407000CAE2B7008F
:104E800040C1B30005FA07000080FA0000000600E8
:104E90000000FA00CAC2A900C8C2A90040C1B300FC
:104EA000FEF907000080FA00000006000200FA0088
:104EB000F0C2B300104798000040EB00004F7800AC
:104EC000C922A800CB22A900C922A90005003700E9
:104ED000A0C0B300F1F907001E4090000040E900B7
:104EE000104798001E4090000004E000F8FF3C00CE
:104EF000C922A800C0C3B300E8F90700CBC2BF00B5
:104F00000080FB000000D1006140600016FCB7008B
:104F100090C2B3001047980005003700A0C0B3004E
:104F2000DEF907001E4090000040E900104798009D
:104F30001E4090000004E000F8FF3C00CBC2BF0020
:104F40000080FB000000D1006140600017FCB7004A
:104F500017DCBF000004E00002003A0010C0B300FC
:104F6000004F780016DCBF00E14F500003003A000C
:104F70001E40780000C0E800004F7800A0C0B300D9
:104F8000C6F907001E80FB000080FA000000060042
:104F90000400FA002047980080C0B300004F78005A
:104FA0001D0037002E4090006140600018FCB700E3
:104FB000CB22A900C922A90050C0B300B7F907004D
:104FC00018DCBF00614060006140600000414000AB
:104FD000912C200091407800D0CFB30000C0600039
:104FE00002407000C9E2B70020C3B300ABF907006C
:104FF00050C0B300A9F90700C922A800A0C0B3009F
:10500000A6F907002E4090000080FB000000D100B0
:10501000204798001E4FE9001E04E000E1FF3C001D
:10502000A0C0B3009DF907000080FA000000060050
:105030000200FA00004F7800CB22A900C922A90083
:1050400050C0B30095F907009E40780061C0600031
:105050006140600000414000912C200091407800A8
:10506000D0CFB30000C0600002407000C9E2B700BA
:1050700020C3B30089F9070050C0B30087F90700C7
:10508000C922A800A0C0B30084F907000080FA007C
:10509000000006000200FA0080C0B300104798002C
:1050A0000040EB00004F78001D003700CB22A90024
:1050B000C922A90030C0B30078F90700C922A800AE
:1050C00050C0B30075F90700CBC2BF000080FB00E1
:1050D0000000D1006140600018FCB70040C3B3007D
:1050E0006EF907001E80FB000000D100004F780021
:1050F00018DCBF00E14F500004003A001E40780069
:1051000001C8B30001404000004F7800A0C0B300C8
:1051100062F907001E4090000040E9001047980027
:105120001E4090000004E000E0FF3C00A0C0B3007F
:105130005AF907001E80FB000080FA0000000600FC
:105140000000FA00CB22A900C922A90030C0B30098
:1051500052F90700C922A80050C0B3004FF9070058
:10516000CBC2BF000080FB000000D10061406000A6
:1051700018FCB70040C3B30048F90700A0C0B30053
:1051800046F9070018DCBF000080FB000080FA0031
:10519000000006000800FA00200798003107980078
:1051A0000040EB00004F78000000EB001007980073
:1051B0000C0037001E009000800078002E00900048
:1051C00000804000104078001E4068008080FB0096
:1051D00020022F00614F78001E0090000000E800C0
:1051E000100798009E0090003E009000808F5000B5
:1051F000F0FF35001E80FB000080FA000000060072
:105200000C00FA00881F7800004F78001107980002
:10521000220798001E80FB006101B9003207980048
:1052200043079800C0012000010020003E019000CB
:10523000CE019000800F5100818F5900C3013E00C4
:105240003E009000CE009000006001001C0037007E
:1052500040003700600037005F003700BB013700B7
:105260009F0037005E003700B80137006500370047
:10527000B6013700B50137007700370076003700F8
:10528000B2013700B1013700B0013700AF0137007C
:10529000AE013700AD013700AC013700AB0137007C
:1052A000AA013700A9013700A80137007D003700A7
:1052B00080003700A7013700A4013700A50137009F
:1052C0002E009000E10F500007003A0010C0B3001C
:1052D0008C0D07006FFF0700FBFAB700FBDABF0079
:1052E000B7F807001600370020C0B300850D07008F
:1052F0002E009000B2F8070030C0B300810D070007
:105300000000EB00C0D788000900370061FF0700EC
:10531000FBFAB700FBDABF00A9F8070000C2B30030
:10532000610D0700C0D780000000E800C0D78800EA
:10533000C1D780002E009000808F5000F3FF39000D
:10534000D0C0B300580D0700A0C0B300560D070031
:105350008001370040C0B3006A0D07001E009000B6
:1053600097F807002E009000E10F500003003A006C
:105370001E00900006FF07001200370060122E008A
:10538000E90B07002E0090008DF8070050C0B30015
:105390005C0D07000000EB00C0D788000500370057
:1053A0001E009000FAFE0700C0D780000000E80051
:1053B000C0D78800C1D780002E009000808F500099
:1053C000F7FF3900D0C0B300370D0700A0C0B3000D
:1053D000350D07005F013700610107005D013700EF
:1053E00057FF0700FBFAB700D0C0B300450D070018
:1053F000FBDABF00C50B0700F0C0B300410D07008A
:10540000540137002E0090006DF80700A0122E0006
:10541000C50B07000000EB00C0D78800050037006F
:10542000EEDABF0002FF0700C0D780000000E800EE
:10543000C0D78800C1D780002E009000808F500018
:10544000F7FF3900EEDABF00B00B0700D0132E00D3
:10545000CB0B07003F013700F0132E00B20B070003
:10546000C1C0B3009ECF100005003A000040EB0021
:10547000EEFAB7000040EB00A40B07000400370071
:1054800010C0B300EEFAB70010C0B3009F0B0700C6
:10549000E0142E00BA0B0700EEDABF00E4FE0700AE
:1054A0002C0137000B48A9000B88A8000BC8A800E6
:1054B000280137000040EB00FCFAB700C922A80021
:1054C000CB22A90050182E00AD0B0700601B2E0048
:1054D000AB0B07000040EB000A0D07001D01370071
:1054E0001E0090000000E000360032009E00900098
:1054F00020032000808F500032003E001E009000EC
:105500000000E90010079800FCDABF008080FB0073
:105510001E009000808F500003003E00001E2E00F1
:10552000970B07000B01370080222E007E0B07002F
:105530001E0090000040E8003B0C070080232E0076
:10554000790B07000040EB00FAFAB70017003700AC
:105550001E019000FADABF008080FB004310DD00DE
:1055600081004000D0AF2100008040001040780052
:1055700013F8070000C2B300CB0C07001E01900017
:10558000FADABF008080FB004310DD00810040009C
:10559000D0AF210000804000104078007CFE070062
:1055A000FADABF000040E800FAFAB700FADABF0002
:1055B000E74F5000E6FF3600B0232E00700B0700C7
:1055C000E40037001E0190005207980050052000AB
:1055D000DE019000808F5100CD0032005005200088
:1055E000DE009000808F500008003E005E019000B9
:1055F0000200E0001200320030032000DE019000C3
:10560000808F5100A0003200CD003700C00E200076
:10561000DE009000808F500046003200000F200016
:105620005E019000800F510042003200C00C20004B
:10563000DE019000808F5100BB003200C0003700B7
:10564000D0232E004E0B0700F0242E004C0B070039
:10565000FCDABF000004E00003003A00001E2E0048
:10566000470B0700300037000040EB00FBFAB700A3
:105670002800370000C2B3008B0C0700FBDABF0024
:105680000040E800E80B070090262E00260B0700DC
:105690000040EB00FAFAB7000F003700FBDABF005A
:1056A0000081FB00FADABF008080FB004310DD00C0
:1056B00081004000D0AF2100008040001040780001
:1056C000BFF7070000C2B300770C0700FADABF008B
:1056D0000040E800FAFAB700FADABF00E74F5000DE
:1056E000EEFF3600B0262E000F0B0700FBDABF00DE
:1056F0000080FB00C300DD00D0AF2100008040002F
:1057000010407800B7000700FBDABF000040E80057
:10571000FBFAB700C1AF210091407800FBDABF006F
:1057200080CF5000D3FF3E0020272E00140B07002F
:10573000880037001E0090003CF9B7009E009000E2
:10574000C00E2000808F500003003A00D0352E009C
:105750000B0B07000200370010372E00080B070064
:10576000F0242E00060B07000040EB00FAFAB70009
:10577000CB000700FBFAB7000040EB00FCFAB700D3
:105780003B00370000C2B300470C0700FADABF0045
:105790000040E800A40B070090262E00E20A070054
:1057A0000000EB00C0D788000A003700C1D7800096
:1057B000D0B42100008040001040780080F707003E
:1057C00000C2B300380C0700C0D780000000E8001A
:1057D000C0D78800C0D78000E70F5000F3FF360025
:1057E000B0262E00D00A07004DDBBF007D00070069
:1057F000FADABF00E94F500018003E000000EB004D
:10580000C0D788000F003700FCDABF008081FB00A2
:10581000C4D78000C1D78000D0B4210000804000F0
:10582000104178004318DD0084004000D0AF210013
:105830000080400002487800C0D780000000E800E7
:10584000C0D78800C0D78000E70F5000EEFF3600B9
:10585000FCDABF000040E800FCFAB700FADABF004B
:105860000040E800FAFAB70098000700FBFAB7001A
:10587000FBDABF000004E000C2FF3A00F0372E0060
:10588000BF0A07003300370035000700B03B2E0089
:10589000A50A070030C3B300BDFD07000000EB0000
:1058A000C0D7880010003700C8D78000F9FD070076
:1058B00080407800F0AE21000000440001487800EC
:1058C000C1D78000F0AE2100008040001040780079
:1058D0003BF7070000C2B300F30B0700C0D78000FE
:1058E0000000E800C0D78800C0D78000E70F500054
:1058F000EDFF3600D0C0B300EB0B0700A0C0B30033
:10590000E90B0700EFDABF0036000700110037008F
:1059100013000700D03C2E00990A070050C5B300C1
:105920009BFD07000B0037000D000700E03D2E0037
:10593000930A0700C0CCB30095FD070005003700AF
:1059400070C1B300EF0B07000200370080C1B30045
:10595000EC0B07004F0478000080FA0000000600FE
:105960000200FA0051FD0700004F7800E03E2E00D3
:105970006D0A07001E04E00003003A00903F2E006D
:105980007F0A070015003700C03F2E00660A070097
:105990001E80FB00610060000004E0000200320095
:1059A00040402E00600A07001E80FB000000D1006E
:1059B000610060000004E00002003200C0422E00DE
:1059C000590A0700C0442E00570A07001E407800FD
:1059D000FBF60700D0132E00690A07000080FA00CA
:1059E000000006000400FA00004F78001E80FB0053
:1059F00010079800200220009E009000808F500029
:105A00001A003200200220009E009000808F50007B
:105A100007003C001E009000E40F5000160032000A
:105A20009E009000F08F50000A00320018003700EE
:105A3000800220009E009000808F500008003200FD
:105A4000D00220009E009000808F50000D00320098
:105A50000F003700E0442E00490A07000E0037000F
:105A6000A0462E00460A07000B00370050482E00C3
:105A7000430A070008003700B0492E00400A07001B
:105A800005003700404B2E003D0A0700020037009A
:105A9000504C2E003A0A07000080FA000000060071
:105AA0000000FA000040EB0055FBB7000040EB009F
:105AB00057FBB7000040EB0056FBB700080007009B
:105AC0000080FB000080FA00000006000000FA00E1
:105AD000030007000080FB000080FA0000000600C1
:105AE0000A00FA0010C0B300704798000040EB00B5
:105AF000604798000040EB005047980010C0B3008A
:105B0000104798000040EB00404798000040EB0031
:105B100058FBB70057DBBF000004E0008B003A00E1
:105B2000E2FC07000004E000090032000040EB0046
:105B300055FBB7000040EB0057FBB7000040EB00FF
:105B400056FBB7000000EB004007980090003700BC
:105B50003CD9BF000EFD070079FD070030479800D3
:105B600077FD0700204798003E409000E14F50002D
:105B700003003A002E409000E14F500063003200D5
:105B8000BE4090002E40900080CF500003003200B5
:105B90003E409000004F78002400370051B52100AE
:105BA000914078007E409000814F50000E003100FF
:105BB0005E4090008080FB00D0B421000080400057
:105BC000904078001E40900080C060000040EB00D4
:105BD000004F78000104E0000B00320010C0B30059
:105BE000004F78000800370055DBBF008040EB0015
:105BF000014F7800FE40900080CF500002003A0034
:105C000010C0B300004F78001E04E00007003A0007
:105C10007E409000604798006E409000E84F500032
:105C200002003E006E40900056FBB70010C0B3006B
:105C30009E4F10000D003A005E4090000081FB0076
:105C40005E4090008080FB00D0B4210000804000C6
:105C5000904078001E40900080C07000D0B42100B9
:105C600000004100014878000F0037005E409000BE
:105C70000081FB005E4090008080FB00D0B42100DA
:105C80000080400010407800804078001E40900066
:105C900000C0EA0000C0600080407800D0B421005D
:105CA00000004100014878001E407800E0FC070039
:105CB0007E4090000040E800704798001E40900031
:105CC00000404000104798001E4090000004E00093
:105CD0000B003A005E4090008080FB00D0B42100B1
:105CE0000080400010407800840007005E40900073
:105CF0000040E8005047980010C0B30010479800DB
:105D00005E409000E74F500093FF3600FE40900049
:105D100000C4B30080CF50000C00360058DBBF0039
:105D20000004E00009003A006E40900055FBB70007
:105D300055DBBF000004E00002003A0010C0B300D1
:105D400057FBB70010C0B300404798004E4090008A
:105D50000004E000030032004DDBBF000004E0005F
:105D600008003A000040EB0055FBB7000040EB0094
:105D700057FBB7000040EB0056FBB7000040EB00BC
:105D8000404798004E4090000080FB00400798007C
:105D90004E0090000080FA00000006000E00FA009D
:105DA0000040EB00404798000C0037004E40900048
:105DB0000081FB004E4090008080FB00D0B42100A9
:105DC0000080400090407800650047000171780035
:105DD0004E4090000040E800404798004E40900040
:105DE000E74F5000F1FF360055DBBF002047980019
:105DF00057DBBF001047980056DBBF00004F78000C
:105E000000C4B30055FBB7000040EB0057FBB700E0
:105E100033FF07000004E0001A00320010C0B30096
:105E2000304798000040EB004047980011003700D1
:105E30004E4090008080FB00650047006141780083
:105E40004E4090008080FB00D0B4210000804000D4
:105E500010407800804F5100030032000040EB00FA
:105E600030479800090037004E4090000040E8009D
:105E7000404798004E409000E74F5000ECFF36003E
:105E8000020037000040EB00304798000040EB0074
:105E9000404798000C0037004E4090000081FB0006
:105EA0004E4090008080FB0065004700E140780094
:105EB000D0B4210000004100014878004E4090001D
:105EC0000040E800404798004E409000E74F5000E7
:105ED000F1FF36002E40900055FBB7001E409000A9
:105EE00057FBB7001E40780056FBB7003E409000BD
:105EF0000080FB000080FA00000006000200FA00AB
:105F0000004F780058DBBF001E4068008080FB0017
:105F1000D0932100008040001040780058FBB7006B
:105F200058DBBF000080FB000080FA000000060084
:105F30000A00FA00004F7800110798002207980025
:105F40001E80FB00300798003E009000F80F5000C4
:105F5000170032003E009000F80F50000A003C008D
:105F60003E009000E10F5000380032003E009000EB
:105F7000E50F50004F0032003E0090000000E000AE
:105F8000110032006E0037003E009000FA0F500002
:105F90006D0032003E009000FA0F50000600350000
:105FA0003E009000FC0F5000670032006400370094
:105FB0000BC8A800640037009D0007000040EB00FC
:105FC000500A0700600037002E009000E10F5000DB
:105FD00005003A0010C0B3004A0A07002E0107006E
:105FE0005B0007001400370020C0B300450A07001B
:105FF0002E00900072F5070030C0B300410A070080
:106000000000EB00A0DE8800070037002201070037
:106010004F00070000C2B300230A0700A0DE800083
:106020000000E800A0DE8800A1DE80002E009000C5
:10603000808F5000F5FF3900D0C0B3001A0A070066
:10604000A0C0B300180A07003F00370040C0B300EB
:106050002C0A07001E00900059F507001E00900052
:106060004B010700D6FBB700D6DBBF000004E00001
:1060700003003A0060C0B300220A0700080037009E
:10608000D6DBBF00E14F500003003A0070C0B30000
:106090001C0A070002003700C0202F00A2080700DA
:1060A000D0C0B300000A0700A0C0B300FE0907007B
:1060B000250037001E009000400798004E00900019
:1060C0000000E000040032004E009000E10F50009C
:1060D000040032001700370090212F00A8080700A5
:1060E0001900370070242F00A5080700EA000700F8
:1060F0000004E00004003A00D9DBBF0030F50700DF
:1061000000C2B300E809070022C2BF00614060007E
:106110000004E000F5FF320030118000D6FBB7002C
:10612000D0C0B300E0090700A0C0B300DE0907003B
:106130000500370070C1B300F20907000200370004
:1061400080C1B300EF0907000080FA0000000600DC
:106150000400FA00004F78001E80FB001007980032
:106160009E009000E28F50001D0032001E00900043
:10617000E20F500007003C009E0090000100E0008C
:106180000F0032001E009000E10F5000110032009D
:10619000230037009E009000E48F50001A00320068
:1061A0001E009000E40F500012003500F00F200098
:1061B0009E009000808F50001600320018003700BB
:1061C000D9DBBF00FEF4070000C2B300B609070028
:1061D0001500370030282F00530807001200370041
:1061E000D9DBBF00F6F40700D0292F004E080700C6
:1061F0000D003700D9DBBF00F1F40700802B2F0022
:106200004908070008003700C0202F004608070093
:1062100005003700202D2F0043080700020037003B
:10622000B02D2F00400807000080FA000000060093
:106230000000FA00C922A800C902A900CB02A900E7
:10624000CB22A9000080FA00000006000400FA003A
:106250000040EB002E0107000004E00003003200C4
:1062600020002000100798000E003700CBC2BF00AE
:106270000080FB000000D10061406000004F78000A
:1062800010C0B300220107000004E0000300320048
:106290002000200010079800020037001E80FB003D
:1062A000100798001E0090000080FA000000060011
:1062B0000600FA000040EB00204798000040EB0089
:1062C00010479800CBC2BF000080FB000000D10047
:1062D000614060006141600081BD21009140780013
:1062E000E0CFB30000C0600002407000D8FBB700F0
:1062F000D8DBBF00614060000004E0000300320012
:1063000010002000200798006000370010C0B30084
:10631000FF0007000004E0000300320041002000FD
:1063200021079800590037000040EB0030479800E3
:10633000190037001E4090000080FB000000D100D3
:1063400010479800C1FF0700004F780020C0B3003D
:106350009E4F100003003A004100200021079800E2
:106360004A00370010C0B3009E4F100007003A00EB
:106370009E40900000C8B30000C040001047980045
:106380002E4090000004A200204798003E4090005C
:106390000040E800304798003E409000E74F500032
:1063A000E4FF36001E409000D9FBB700A7FF0700AE
:1063B000004F780021C0B3009ECF100003003A00C8
:1063C0004000200020079800300037009E407800F1
:1063D00061C0600061416000A1BD21009140780072
:1063E000E0CFB30000C0600002407000DAFBB700ED
:1063F000DADBBF0061406000804078002E409000F2
:1064000080CF500004003A00DA5BA8002000200092
:10641000200798001D003700DA5BA9008BFF0700FA
:10642000004F780021C0B3009ECF100003003A0057
:106430004000200020079800140037009E4078009C
:1064400061C060006140600000414000A1BD2100CA
:1064500091407800D0CFB30000C0600002407000CF
:10646000DAFBB700C902A900DADBBF0062406000B6
:106470000004E00003003A003000200020079800EC
:10648000020037008000EB00210798002E009000EA
:106490000080FA00000006000200FA0000C0EB00D5
:1064A000004F7800C922A800C902A8000040EB00F4
:1064B0001047980010003700CBC2BF006140600059
:1064C0000004E00007003A0079FF0700004F780061
:1064D0001E04E0000B00320040C0B3009E4F1000CD
:1064E0000800320050C0B3006CF407001E4090005A
:1064F0000040E800104798001E409000E14F400027
:10650000EDFF3A00C902A9001E80FB000080FA00DE
:10651000000006000400FA00004F780010C0B3002D
:106520007B0007000004E000030032002000200090
:1065300010079800130037009E40780061C060008B
:106540006140600000414000912C200091407800A3
:10655000D0CFB30000C0600002407000C9E2B700B5
:106560000040EB006A0007000004E0000300320076
:106570002000200010079800020037008000EB0088
:10658000110798001E0090000080FA00000006002D
:106590000800FA00404798000040EB0020479800B0
:1065A000C902A900CB02A900C0C3B3003BF4070095
:1065B000CB22A900C922A900C902A80010C0B300BB
:1065C00036F407000040EB00510007000004E00033
:1065D00003003200400020003007980049003700D7
:1065E0000000EB00000F78001C0037004E409000C8
:1065F0000080FB00610060000004E0000B0032003E
:1066000010C0B300C3FF07000004E0000300320025
:1066100040002000300798003A0037002E409000DC
:106620000004A20020479800070037000040EB005C
:10663000B8FF07000004E000030032004000200023
:10664000300798002F0037004E4090000080FB007C
:106650000000D100404798001E0FE80070002000A5
:106660009E0F1000E1FF36002E4090000004A200B3
:10667000204798002E409000A6FF07000004E0008D
:106680000300320040002000300798001D00370052
:10669000C922A800CB22A90010C0B3001C0007002B
:1066A0000004E000030032004000200030079800A2
:1066B00014003700E5FE0700E24F500003003A00E7
:1066C00040002000300798000E003700DFFE070072
:1066D0000080FB00000F7800200020009E0F1000BB
:1066E00003003A0040002000300798000500370002
:1066F000C902A900CB02A9001E0078000080FB009F
:10670000300798003E0090000080FA00000006006C
:106710000600FA00204798000080EB00000F780088
:10672000CBC2BF0061406000804078002E409000E6
:1067300080CF500003003A000000EB0020079800D3
:10674000050037001E0FE9001E00E000F4FF3A00CC
:1067500010002000200798002E0090000080FA0012
:10676000000006001400FA00881F7800B0DD8000E9
:10677000E20F50000B003A0011E1A900A16C2000CB
:106780009140780000CEB30000C06000CAE6B700B8
:1067900060F02E00FA0607000000EB00B0DD880074
:1067A0009100370020F12E00F506070030F42E008E
:1067B000DD0607002203200001FA2000400020002F
:1067C000550507003007980060F52E00D606070033
:1067D0003E009000E30F500007003E0010F62E0030
:1067E000E7060700E00320002007980010A1A8009A
:1067F0001081A8001B0037003E009000FE0F5000E3
:1068000007003E0050F62E00DD060700A00F200016
:106810002007980010A1A8001081A90011003700DE
:10682000BE009000400F2000808F500007003E0007
:1068300080F62E00D2060700007D20002007980079
:1068400010A1A9001081A80006003700A0F62E00B4
:10685000CB06070000E823002007980010A1A9003C
:106860001081A9002E0090003E0190001100090047
:106870000280D8000000E90050079800C0F62E0002
:10688000A90607005E00900038070700D0C0B300DB
:1068900005080700A0C0B3000308070010F72E008A
:1068A000A10607002203200031062000200020005E
:1068B00019050700000478006140B90016EC0700D4
:1068C000000F9800110F98000800E00007003D003D
:1068D00002002000037824000E0890009E0890001B
:1068E00039EC0700000F9800110F98000E08900077
:1068F0009E089000008FBE0002002000832C240020
:106900001E00BE008DEC0700008FBE005E009000F0
:10691000CF80DE0000EC0700600798007107980048
:106920005E0090000000E00007003D000200200033
:10693000037824006E009000FE00900022EC070017
:1069400060079800710798001E01BE006E0090005D
:10695000FE009000BBEC0700EEEC0700400798003B
:10696000A16C20009140780000CEB30000C0600010
:106970006041B300CAE6B7001061A9001E61A9001A
:106980001021A900C11920009140780080CFB300E8
:1069900000C060009CE1B700CE009000D10C8800E0
:1069A0004E009000C00C88009DA1A9009C81A90008
:1069B0009C61A900C11920009140780080CFB300EC
:1069C00000C060006040B3009CE1B700DE009000B2
:1069D0006108880011E1A80080F82E006806070011
:1069E00020002000B0DD88004F0478000080FA000D
:1069F000000006000000FA00B0DD8000E20F500049
:106A000003003A0030F92E005D0607007A003700D7
:106A1000C0FB2E00440607001FE1A90011E1A900F8
:106A2000C942A800616820009140780000CEB30000
:106A300000C06000A040B30086E6B7001061A80067
:106A400010A1A8001081A8001021A8000080EB0070
:106A5000700888000080EB00600888000000EB00F0
:106A6000400888000000EB00300888000000EB00C0
:106A7000B00888000000EB00A00888001E61A80094
:106A80001E81A9001EA1A9001E21A9001EC1A900E6
:106A9000400F2000E008880000402200D008880055
:106AA0008780A9001FE1A80011E1A80087C0BF00EE
:106AB000704060000004E000FCFF320011E1A9001A
:106AC0001FE1A90030088000F0DD88004008800048
:106AD000E0DD8800E0DD800001002000C0DD8800EE
:106AE000D1DD8800C0DD8000D1DD8000C000DD0088
:106AF00000002000C0DD8800D1DD8800F0DD8000CE
:106B00006101B800C0DD8000D1DD800002004000DE
:106B100083804800C0DD8800D1DD8800C0DD8000B2
:106B2000D1DD8000C808DD000080FD0080407800D5
:106B30000040EB00C0DD8800D1DD8800C0DD8000B2
:106B4000D1DD80004506070070FD2E00F605070028
:106B5000C2DD8000D3DD8000703E200001002000F7
:106B6000800F5100818F59001C003600C2DD80006B
:106B7000D3DD8000F0232400F1002000800F5100BD
:106B8000818F59000B003E00A0FD2E00E605070096
:106B9000C0DD8000D1DD8000823E200003002000A7
:106BA00077EC07002D060700D0FD2E00DE0507005C
:106BB0000A003700A0FD2E00DB050700C0DD8000C5
:106BC000D1DD800002242400F30020006CEC0700DB
:106BD0002206070020FE2E00D3050700D0C0B30018
:106BE00031070700A0C0B3002F07070086C6BF000B
:106BF000F041B30086E6B7000080FA00000006000E
:106C00000000FA000BC8BF00614060000004E00013
:106C100002003A00C942A80001003700C8C2A8001B
:106C200070FE2E00D60507000080FA000000060066
:106C30000000FA000BC8BF00614060000004E000E3
:106C400003003A00C942A900CB42A8000200370065
:106C5000C8C2A900CAC2A80050FF2E00C80507007C
:106C60000080FA00000006000000FA000BC8BF0018
:106C7000614060000004E00003003A00C942A9003E
:106C8000CB42A90002003700C8C2A900CAC2A900AD
:106C9000E0FF2E00BA0507000080FA0000000600A1
:106CA0000200FA000BC8BF00614060000004E00071
:106CB00009003A00C942A8000000000000000000DE
:106CC000CBC2BF000080FB004200DE0061406000DC
:106CD000004F780008003700C8C2A800000000007C
:106CE00000000000CAC2BF000080FB004600DE00BA
:106CF00061406000004F780070002F008A05070097
:106D00001E40780081050700D0C0B300E6060700EA
:106D1000A0C0B300E40607000080FA0000000600EF
:106D20000A00FA00004F7800110798002207980027
:106D3000204080006101B8000080EB008080EB0003
:106D40000201400083814800320798004307980001
:106D500090002000010020003E019000CE01900034
:106D6000800F5100818F59003F003E003E0090008F
:106D7000CE00900000600100090037000D003700D0
:106D80001100370015003700190037001D003700CB
:106D90002100370025003700290037002D0037007B
:106DA0002E0190009E0090001E40780014F907000C
:106DB0002E0037002E0190009E0090001E407800AB
:106DC0005D070700290037002E0190009E0090000B
:106DD0001E4078004FF20700240037002E0190007B
:106DE0009E0090001E4078005CEF07001F003700F7
:106DF0002E0190009E0090001E40780021F50700B3
:106E00001A0037002E0190009E0090001E4078006E
:106E1000BFEC0700150037002E0190009E00900087
:106E20001E40780062EE0700100037002E0190002F
:106E30009E0090001E4078003DFC07000B003700CC
:106E40002E0190009E0090001E4078005908070017
:106E5000060037002E0190009E0090001E40780032
:106E60000109070001003700CA82A9000080FA006A
:106E7000000006000000FA00B00020000080FA00C8
:106E8000000006000000FA00204080008000400062
:106E9000A0B5210000804000100078002205070006
:106EA0000080FA00000006000200FA00004F78009F
:106EB0001E80FB0080004000A0B521000080400043
:106EC00010007800180507000080FA000000060096
:106ED0000800FA00004F780000C6B3009E4F100073
:106EE00007003600A0C7B3009E4F100004003E000C
:106EF0001E40780001CEB30001404000004F7800F2
:106F00001E80FB006101B900D0FD2F00F1FF2F00B2
:106F1000020140008381480022079800330798004F
:106F200030032000010020002E019000BE019000DF
:106F3000800F5100818F590064003E002E009000A8
:106F4000BE00900000600100540037005F00370071
:106F50005E0037005D0037005C0037005B003700E3
:106F60005A003700590037005400370057003700E7
:106F700056003700550037005400370053003700E3
:106F80005200370051003700500037004F003700E3
:106F90004E0037004D0037004C0037004B003700E3
:106FA0004A003700490037004800370047003700E3
:106FB0004400370045003700220037004300370007
:106FC00042003700330037002A0037003F00370007
:106FD0003E0037001D0037001E0037003B00370021
:106FE0001E00370039003700380037001300370023
:106FF0000900370035003700090037000A00370064
:107000003200370031003700300037002F003700E2
:107010002E00370007003700C70007002E0037009A
:10702000F40007002C00370020122F00D4040700C2
:1070300029003700FC00070027003700180107006F
:1070400025003700390607002300370069FE0700D6
:1070500021003700C3FD07001F0037003F00070075
:10706000204080000000E0001B0032006E0007009E
:1070700019003700204080000000E00003003A00C3
:1070800080C1B3001F060700130037002701070067
