:020000040000FA
:10000000040C040000000000287A0000287A000098
:10001000287A0000287A0000287A0000287A000058
:10002000287A0000287A0000287A0000287A000048
:10003000287A0000287A0000287A0000287A000038
:10004000287A0000287A0000287A0000287A000028
:10005000287A0000287A0000287A0000287A000018
:10006000287A0000287A0000287A0000287A000008
:10007000287A0000287A0000287A0000287A0000F8
:10008000287A0000287A0000287A0000287A0000E8
:10009000287A0000287A0000287A0000287A0000D8
:1000A000287A0000287A0000287A0000287A0000C8
:1000B000287A0000287A0000287A0000287A0000B8
:1000C000287A0000287A0000287A0000287A0000A8
:1000D000287A0000287A0000287A0000287A000098
:1000E000287A0000287A0000287A0000287A000088
:1000F000287A0000287A0000287A0000287A000078
:10010000287A0000287A0000287A0000287A000067
:10011000287A0000287A0000287A0000287A000057
:10012000287A0000287A0000287A0000287A000047
:10013000287A0000287A0000287A0000287A000037
:10014000287A0000287A0000287A0000287A000027
:10015000287A0000287A0000287A0000287A000017
:10016000287A0000287A0000287A0000287A000007
:10017000287A0000287A0000287A0000287A0000F7
:10018000287A0000287A0000287A0000287A0000E7
:10019000287A0000287A0000287A0000287A0000D7
:1001A000287A0000287A0000287A0000287A0000C7
:1001B000287A0000287A0000287A0000287A0000B7
:1001C000287A0000287A0000287A0000287A0000A7
:1001D000287A0000287A0000287A0000287A000097
:1001E000287A0000287A0000287A0000287A000087
:1001F000287A0000287A0000287A0000287A000077
:10020000FFFFFF00FFFFFF00287A0000287A0000B0
:10021000287A0000287A0000287A0000287A000056
:10022000287A0000287A0000287A0000287A000046
:10023000287A0000287A0000287A0000287A000036
:10024000287A0000287A0000287A0000287A000026
:10180000040C0000000000008FC32100007F2200B4
:1018100000018800000000000A0007001100070016
:10182000000020000000E000020032000000020082
:1018300000000000C80F0200000000000040DA00B5
:101840000000FE004440A90020D621000000E00076
:101850000300320000002000A00188004440A800DE
:10186000000006000072270001002000150037006C
:1018700062004000E0804800910188009001BA00B9
:1018800062004000E0804800910188009002BA00A8
:1018900062004000E08048000002EB006028E100A8
:1018A00004003A000059EB008301E900FDFF3E000F
:1018B000040037006128E100010032000082EB00E3
:1018C00005000700910188001001BA000200E00045
:1018D000E7FF3A00000005009101880080027800CF
:1018E00062004000E08048003559BA008301E900F9
:1018F000080032002559BA008301E90005003200D2
:101900000400E000F4FF320015D9BA008301E900B9
:10191000F1FF3A0000000600889FBE008A9FBE00CB
:10192000010578000100E0000400350008003C00DB
:101930000000E000200032000500370060001000C9
:10194000E080180002003B0001F02C001A00370074
:101950000004BE006011B8006B0920000982CF00AE
:10196000020039000882CF000441B00069425200F1
:101970000E00320008003B008281710061016400AA
:101980008904D1000884D3008B05E8000442E800F4
:10199000F9FF3A00050037000804440089844C0030
:1019A0008B05E9000442E900FBFF3A00250107002E
:1019B0000AF0A70001F0A0004F05BE004F04BE00D2
:1019C0000000060003F0A200889FBE008A9FBE00B0
:1019D0008C1F780041010700480133006450E1008A
:1019E0004F0032006420E1005200320003826C009C
:1019F00007003B000905D0000306D000820F540009
:101A00000C065D00020039000200320089017800F6
:101A1000030678008582550004003D000003FD00A8
:101A20008103FD008502EA008B854200840F72006D
:101A300002003B0060001000E08018006011B80058
:101A40000005EB007A28E1000A0039000600780062
:101A5000C75DDD00F707B200878075002D003700F5
:101A6000828171000A017800610560008180D100E7
:101A70000080D3008502E900F9FF3B000604400026
:101A80008784480002003B0060041400E0841C00CE
:101A90000988A300070032008A81710082817100E9
:101AA000610164008904D1000884D3008B05E8003B
:101AB000170037000978A30013003A000B00E0007C
:101AC000130034008B05E9000804440089844C00AD
:101AD0000A4474000978A3000D003A000B00E000EE
:101AE000070034008B05E9000804440089844C0099
:101AF00001003A000B0020000978A300F7FF320034
:101B00000001EB0002003700828171000A017800B9
:101B1000CC0007000CF0A70001F0A0000001370086
:101B20006420E10002003A00838F6C000001330062
:101B30000801BE000200BE00F9003700889FBE0009
:101B40008A9FBE008C1F7800E4000700EB00330082
:101B500003866C006450E1002E0032006420E10036
:101B6000330032006150E1002F0032006120E100BB
:101B70003100320085855500EB07B00009002000D8
:101B800008042000050037000804440089844C0044
:101B90000A0031000603430087834B000001530015
:101BA00081815B00F8FF33000203BE000800A00043
:101BB0000804440089844C00F6FF3900C639DD0072
:101BC0008301730001003200130020008904D1005A
:101BD0000884D3000998A300050032000800A7007C
:101BE0000300A0008904D1000884D3008B05E8001D
:101BF0008904D1000884D3000001EB000281D200E7
:101C00009000070001F0A1000CF0A70001F0A00077
:101C1000C30037006420E100C50032000801BE00A7
:101C20000200BE00F7FF37006120E100C000320073
:101C30006000B800F3FF37000000200001F8270023
:101C4000F0FF3700889FBE008A9FBE008C1F78007F
:101C5000A2000700A900330003866C006450E10075
:101C6000240032006420E100270032006150E100CE
:101C7000220032006120E100210032008B85420009
:101C8000EB07B1000134B800003AB8000804420084
:101C900089844A00013AB8000030B80088804000CA
:101CA00009014A0004003300000040008180480020
:101CB000020149008B05E900C909DD0083017000BC
:101CC0000100320013002000C814DE004814DD00BB
:101CD0004709DE001200B200C808DE000884700068
:101CE0005800070001F0A1000CF0A70001F0A000CF
:101CF0008B0037006120E1008D0032000801BE003A
:101D00000200BE00F7FF37006150E100FCFF3A001F
:101D1000870037000001BE00880007000470A7009C
:101D200003F0A10003F8A30013003A006509B10015
:101D300010003200090035006928E100020035007A
:101D400001002800000005000000400081804800DC
:101D50008502E900FCFF3A0000000600F88F42000F
:101D6000050035008100D1000080D3008502E80025
:101D7000FCFF3A00000006008000EB0000000500B8
:101D80006022B800060220000000D0008180D2004E
:101D90000482D2008582D2000000A000020252001C
:101DA00083825A00030031000202420083824A000B
:101DB0000000A1000603E900F3FF3A00000006005E
:101DC0000001BE005D0007000470A70003F0A10041
:101DD0006509B100160032000D0035006828E100E9
:101DE00006003500F0FF2F00F1FF27000300E000A0
:101DF00013003B0001002800000005000000400027
:101E0000818048008502E900FCFF3A0008003700A5
:101E1000F88F420002003C008000EB00000005004B
:101E20008100D1000080D3008502E800FCFF3A0069
:101E30000300E00002003B0060001000E08018009A
:101E40000000060081002000618055000B003D006D
:101E50000B00200061FE2F000100E1001D00340096
:101E600082817100610164008904D1000884D3007B
:101E70000000E800FAFF3A007100200061006400F1
:101E80000300700002006000090032006104440099
:101E9000E0844C000988A500050032008B05E800AD
:101EA0006808E10002003A008904D1000884D300E8
:101EB000F20F20000258E10005003D00C75DDD0083
:101EC000F907B2008980750008007800000006005C
:101ED0000BF827008B007800000005000004BE000E
:101EE000160007000003BE000405BE000200BE008D
:101EF00012000700844F7500000006000200BE00BB
:101F00006450E100050036006420E1000200360064
:101F10000968A30001003A000800BE000160A000AB
:101F20004F0678004F05BE004F04BE0000000600BB
:101F3000F0FF2F00F1FF2700F9FF3700C70ADE008E
:101F4000F107B200F50FB20008003200E1CF420005
:101F5000020032000170A00024000500810F700013
:101F6000010032000408050044000500810F7000E4
:101F700002003A00140005008502E900000040005C
:101F800081C04800FCFF3B000170A0002400050058
:101F90000400FA00400007000000370022C2BF0022
:101FA000624060000004E000040032001011800074
:101FB000D1FF2F0001006000101188002281200055
:101FC00001FA2000207B2100351907001007980036
:101FD0001E009000E10F500005003200F00F2000BD
:101FE0009E009000808F50001C00320022003700BD
:101FF00090BD8000000F78009E0078000100E00096
:10200000040032001E007800E10F5000040032008E
:102010000700370090C1B300E81B07000700370036
:1020200012C8BF00581507000004E00003003A0082
:1020300090BD800021812000351707000000EB00D3
:1020400090BD88000040EB0035FCB7003B15070051
:10205000E0C3B300C21B07000700370035DCBF0038
:102060000040E80035FCB70035DCBF00F34F5000FE
:1020700001003600122307000BC8BF006240600059
:102080000004E000C5FF320060C1B3000CE8B700F7
:10209000EA140700C1FF37000000FA004507A90055
:1020A0000080EB00601988004227A900416A2000E7
:1020B0009140780000CEB30000C060003040B30013
:1020C000A4E6B700216C20009140780000CEB30058
:1020D00000C060003040B300C2E6B70080C0B3006B
:1020E00000E8B7000000EB0010408800C7050700BB
:1020F000FE0507008000EB00F00F2000A21B070088
:102100003040880021002000F00F20009E1B0700B7
:1021100040408800D0C0B300911B0700A0C0B300AE
:102120008F1B0700BB15070004150700E0C3B300B1
:102130008B1B07000080FA00000006000600FA0072
:102140000CC8BF000080FB006101B90012079800B5
:1021500023079800C0012000010020001E0190000C
:10216000AE019000800F5100818F5900D4003E00D5
:102170001E009000AE009000006001001C003700BF
:102180003E0037005E0037005D0037006200370018
:10219000B6003700660037006C0037007200370069
:1021A000780037007C00370080003700840037005B
:1021B000C3003700C2003700C1003700C00037003D
:1021C000BF003700BE003700BD003700BC0037003D
:1021D000BB003700BA003700B90037007D00370078
:1021E00097003700B8003700B5003700B600370059
:1021F00080408000E10F500007003A0010C0B3009B
:102200006E1B0700C32107002AFCB7002ADCBF00B1
:10221000C80507001400370020C0B300671B070083
:1022200080408000C305070030C0B300631B070077
:102230000000EB0040E1880007003700B5210700EF
:10224000BC05070000C2B300451B070040E1800049
:102250000000E80040E188008140800040E180000B
:10226000808F5000F5FF3E00D0C0B3003C1B07003C
:10227000A0C0B3003A1B07009300370040C0B30072
:102280004E1B070070408000AA05070080408000B8
:10229000E10F500003003A00704080006C210700FD
:1022A00012003700C0022F00CD19070080408000C7
:1022B000A005070050C0B300401B07000000EB0062
:1022C00040E1880005003700704080006021070071
:1022D00040E180000000E80040E18800814080008B
:1022E00040E18000808F5000F7FF3E00D0C0B30077
:1022F0001B1B0700A0C0B300191B070072003700AA
:10230000E420070000032F00B519070080C0B300C8
:102310002A1B07006C003700F120070080032F0004
:10232000AF19070090C0B300241B070066003700F8
:10233000D0C0B300211B0700A6210700A119070088
:10234000F0C0B3001D1B07005F003700E0C0B30002
:102350001A1B0700EF2107009A190700F0C0B3000D
:10236000161B0700580037008040800071050700E9
:1023700000C1B300111B070080408000B721070097
:102380005100370010C1B3000C1B070010C0B30090
:10239000CE2107004C00370020C1B300071B070007
:1023A0000040EB00C92107004700370030C1B300EF
:1023B000021B070010C0B300BB210700420037001A
:1023C00040C1B300FD1A07000040EB00B621070032
:1023D0003D0037000B48A8000B88A80010C3B300CD
:1023E000F61A070012002000210020001000200033
:1023F000F21707000040E9000AE8B700E0C1B300A7
:10240000EE1A07001200200021002000100020001A
:10241000EA1707000040EA00614060006140600088
:102420004601DD00B180200091407800F0CBB30080
:1024300000C06000024070000BE8B70022003700C7
:10244000CB02A900CB22A900C922A800C902A90079
:10245000A18020009140780020C0B3006A200700CE
:102460000040EB00D51A07001700370071408000CC
:10247000010F78001E017800E10F51000A003200C0
:102480009E017800E18F5100040039001E007800A1
:10249000E20F50000500320006003700F0032F0065
:1024A0004F1907000800370009000700190007004E
:1024B0000500370070C1B300C01A070002003700E2
:1024C00080C1B300BD1A07000080FA0000000600BA
:1024D0000000FA0010082F0057190700E0092F002C
:1024E000551907000040EB008121070000C0EB00F8
:1024F0004705070010C0B3007D21070010C0B300DE
:10250000562107000040EB00792107000080FA0007
:10251000000006000A00FA00881F7800000C2F0057
:102520002F1907000000EB00000F78000D003700A6
:102530001E047800F7200700804078006300470001
:10254000017478009E0078006300470061407800C5
:102550000080FB00131A070000C2B300801A0700B6
:102560001E0FE800300020009E0F1000F0FF360024
:10257000D0C0B3007A1A0700A0C0B300781A0700D1
:10258000E00E2F0016190700630047001040780086
:102590000080FB004400DE000080FB004007980044
:1025A0004E009000E90F5000110032004E009000E4
:1025B000E90F500004003C004E009000E80F50006E
:1025C00008003200130037004E009000EA0F500060
:1025D0000A0032004E009000EF0F50000A00320057
:1025E0000C003700900F2F00131907000B00370065
:1025F00000102F00101907000800370070102F007E
:102600000D19070005003700E0102F000A19070018
:102610000200370020112F0007190700A0112F001A
:10262000EF18070063004700104090000080FB0097
:102630004700DE000004E00003003A0060122F00B3
:10264000FD18070002003700D0122F00FA1807000B
:10265000D0132F00E21807006300470010409000DD
:102660008080FB0080F72F00008060004380DE0048
:10267000204798002E4090000004E00003003A003C
:10268000A0142F00D61807001B0037002E40900022
:10269000EF4F500003003A00E0102F00D018070061
:1026A0001500370000042000000F7800E300470009
:1026B0000040EB0080487800080037001E007800DA
:1026C00000004000000F78006300470010407800D1
:1026D0008040E8006300470001487800630047003D
:1026E000904078002E40900080CF5000F3FF3900DA
:1026F0001E0078004B190700D0C0B300181A07005D
:10270000A0C0B300161A070080152F00B4180700E8
:10271000630047009040900070C0B30000C06000AC
:102720002047980010002000000F7800E3004700C9
:102730000040EB0080487800080037001E00780059
:1027400000004000000F7800630047001040780050
:102750008040E800630047000148780063004700BC
:10276000904078002E40900080CF5000F3FF390059
:102770001E0078005A190700D0C0B300F8190700EE
:10278000A0C0B300F61907004F0478000080FA00DB
:10279000000006000400FA000CC8BF000080FB0027
:1027A0006101B900028FBE00C001200001002000BD
:1027B0001E01BE00800F5100818F5900D7003E00DE
:1027C0001E00BE00006001001C0037003E00370004
:1027D0006A0037006900370073003700CC0037000B
:1027E000770037007F003700870037008D00370003
:1027F000910037009500370099003700C700370077
:10280000C6003700C5003700C4003700C3003700DA
:10281000C2003700C1003700C0003700BF003700DA
:10282000BE003700BD00370092003700AB00370014
:10283000BC003700B9003700BA0037008040800084
:10284000E10F500006003A0010C0B300DB1907008A
:1028500000C0EB00B51F0700360407001500370065
:1028600020C0B300D5190700804080003104070064
:1028700030C0B300D11907000000EB00E0E0880091
:102880000800370000C0EB00A81F0700290407005C
:1028900000C2B300B2190700E0E080000000E800C9
:1028A000E0E0880081408000E0E08000808F500000
:1028B000F4FF3E00D0C0B300A9190700A0C0B300C8
:1028C000A71907009700370040C0B300BB190700E5
:1028D000704080001704070080408000E10F500026
:1028E0000E003A0070408000901F07001EFCB700E9
:1028F00020DCBF00614060000004E0001A003200EC
:1029000000C2B3009619070010C0B300AB1907004E
:102910001EDCBF000704070013003700C0712F0042
:102920002F180700804080000204070050C0B30049
:10293000A21907000000EB00E0E088000600370065
:1029400070408000791F07001EFCB700E0E08000A7
:102950000000E800E0E0880081408000E0E08000C6
:10296000808F5000F6FF3E00D0C0B3007C190700F6
:10297000A0C0B3007A1907006A0037000CC8BF0076
:10298000E34F500002003A00201CA800010037006D
:10299000201CA9000040EB0055200700A0C0B30098
:1029A000861907005F003700201CA90010C0B30083
:1029B0004F200700B0C0B30080190700590037004E
:1029C000D0C0B3007D19070002200700FD170700E3
:1029D000D0C0B30062190700A0C0B300601907009F
:1029E00050003700E0C0B300741907004920070009
:1029F000F4170700D0C0B30059190700A0C0B300F6
:102A0000571907004700370080408000C9030700BE
:102A100000C1B30069190700804080000F20070043
:102A20004000370010C1B3006419070010C0B300A4
:102A3000262007003B00370020C1B3005F190700C4
:102A40000040EB00212007003600370030C1B30002
:102A50005A19070010C0B3001320070031003700D7
:102A600040C1B300551907000040EB000E200700DD
:102A70002C00370010C3B3005019070012002000CB
:102A800021002000100020004C1607000040E90043
:102A90000AE8B700E0C1B30048190700120020009F
:102AA0002100200010002000441607000040EA002A
:102AB00061406000614060004601DD00B18020009F
:102AC00091407800F0CBB30000C06000024070007D
:102AD0000BE8B7000B48A80012003700201CA90023
:102AE000A18020009140780030C0B300C61E0700CE
:102AF000C922A900C902A900C8E2A80010C0B300F9
:102B0000FB1F07000040EB002C19070005003700F1
:102B100070C1B300291907000200370080C1B3005B
:102B2000261907000080FA00000006000600FA00DF
:102B30000CC8BF000080FB006101B90012079800BB
:102B400023079800C0012000010020001E01900012
:102B5000AE019000800F5100818F5900EF003E00C0
:102B60001E009000AE009000006001002A003700B7
:102B70004E0037001A0037001900370022003700D6
:102B8000CC003700E5003700E4003700E3003700F1
:102B9000E2003700E1003700E0003700DF003700D7
:102BA000DE003700DD003700DC003700DB003700D7
:102BB000DA003700D9003700D8003700D7003700D7
:102BC000D6003700D5003700D40037006400370046
:102BD000AC003700B5003700D0003700D100370017
:102BE0000CC8BF00E34F500002003A00EC7BA80085
:102BF00001003700EC7BA900CAC2A900A0C0B30045
:102C0000EE180700C7003700CAC2A800B0C0B30062
:102C1000EA180700C300370080408000E10F500031
:102C200008003A0010C0B300E418070000C0EB0031
:102C300022010700E6FBB700E6DBBF003D0307000B
:102C40001500370020C0B300DC180700804080006A
:102C50003803070030C0B300D81807000000EB00AD
:102C600020DF88000800370000C0EB0013010700D8
:102C70003003070000C2B300B918070020DF80004E
:102C80000000E80020DF88008140800020DF800015
:102C9000808F5000F4FF3E00D0C0B300B018070092
:102CA000A0C0B300AE1807009E00370040C0B300BC
:102CB000C2180700704080001E030700804080009B
:102CC000E10F50000E003A0070408000FB0007004A
:102CD000E6FBB700ECDBBF00684060000004E000EA
:102CE0001A00320000C2B3009D18070010C0B300E4
:102CF000B2180700E6DBBF000E0307001300370021
:102D000020172F00361707008040800009030700B6
:102D100050C0B300A91807000000EB0020DF8800B6
:102D20000600370070408000E4000700E6FBB700B3
:102D300020DF80000000E80020DF88008140800064
:102D400020DF8000808F5000F6FF3E00D0C0B3002F
:102D500083180700A0C0B300811807007100370076
:102D600060172F00341707001200200041002000D8
:102D700010002000911507000040E9000AE8B700A4
:102D8000E0C2B3008D1807001200200021002000CF
:102D900010002000891507000040E9006140600034
:102DA00061416000C1BE210091407800E0CFB300D6
:102DB00000C0600002407000ECFBB700F0C2B3003E
:102DC0007E180700220020002100200010002000B3
:102DD0007A1507000040E900614060006140600032
:102DE00000414000C1BE210091407800D0CFB30027
:102DF00000C0600002407000ECFBB70000C3B300ED
:102E00006E18070012002000210020001000200092
:102E10006A1507000040E900614060006140600001
:102E20004201DD00C1BE210091407800B0CFB30067
:102E300000C0600002407000ECFBB700E0C1B300CE
:102E40005E18070012002000210020001000200062
:102E50005A1507000040EA006140600061406000D0
:102E60004601DD00B180200091407800F0CBB30036
:102E700000C06000024070000BE8B7000B48A900DA
:102E800028003700EC7BA9000AC8BF008080FB0047
:102E900000BC2100008040001040780023000700A3
:102EA0000040EB00451807001E0037006F000700C8
:102EB0001C00370071408000010F78001E0178006F
:102EC0000200E000040032009E017800E18F510012
:102ED000040032000E003700401B2F00D6160700FA
:102EE00010003700D01D2F00D3160700120020005D
:102EF0003100200010002000301507000040E900DC
:102F0000E6FBB700E6DBBF007A00070005003700EC
:102F100070C1B300291807000200370080C1B30058
:102F2000261807000080FA00000006000200FA00E0
:102F3000004F780041E2A9000BC8BF000044B20076
:102F40000004E00004003200CEE2A800CF02A80096
:102F5000CEC2A80003003700CEE2A900CF02A9002C
:102F6000CEC2A900816A20009140780000CEB30053
:102F700000C060007040B300A8E6B700916C20006C
:102F80009140780000CEB30000C060007040B300F4
:102F9000C9E6B700816C20009140780000CEB300F4
:102FA00000C060000034A000C8E6B700CAC2A80094
:102FB000C8C2A900C902A900C8E2A800C922A90084
:102FC0001E80FB001012880042A2A800ECDBBF00AC
:102FD00061406000614060004601DD002124200066
:102FE00091407800F0CBB30000C060000240700058
:102FF00042E2B700ECDBBF000080FB000000D10024
:1030000061406000614160003124200091407800FF
:10301000E0CFB30000C060000240700043E2B700A0
:10302000ECDBBF000080FB004200DE00614060007E
:103030006140600000414000312420009140780050
:10304000D0CFB30000C060000240700043E2B70080
:103050000000EB00201288000000EB000012880046
:1030600041E2A8000080FA00000006000000FA001B
:1030700041E2A900A8C6BF00F041B300A8E6B7002E
:10308000916C20009140780000CEB30000C0600039
:10309000C9E6B700816C20009140780000CEB300F3
:1030A00000C06000C8E6B700CEE2A900CF02A900C8
:1030B000CEC2A9000080FA00000006000200FA005B
:1030C000004F78001E80FB004012880085C0BF00C2
:1030D000644060000004E000FCFF32004012800009
:1030E000004F78008540A9001E80FB000080FA0098
:1030F000000006000400FA0020479800A0212F00DD
:103100004D160700D9FF0700520007002E4090001F
:10311000E14F500008003E00CAC2BF000080FB0023
:103120004600DE0061406000804078002E40900044
:1031300080CF500008003A0041C2BF0001C8B30070
:10314000014060000004E0000E003A0041E2A800E7
:1031500061E2A8000B00370041C2BF0001C8B30004
:10316000014060000004E0000600320041E2A900D6
:1031700061E2A900D0C0B30079170700A0C0B30076
:103180007717070040C2BF000042B2000004E00011
:1031900004003A0040128000004F78001E40780082
:1031A000E401070060C2BF000042B2000004E0007A
:1031B00008003A0040138000004F780060252F007F
:1031C000071607001E407800DA01070080252F004F
:1031D0000316070040C2BF000044B2000004E00034
:1031E00004003A0060C2BF000044B2000004E000E6
:1031F00005003200B0252F000F16070040C2A900BD
:1032000060C2A9000A00370022C2BF00614060000E
:103210000004E000BDFF320030118000004F780054
:10322000D0C0B3004E170700A0C0B3004C17070072
:10323000750007000AC8BF008080FB0000BC2100A9
:10324000008040001040780038FF07000080FA003E
:10325000000006000000FA00C8C2A800C902A800C9
:10326000C8E2A800C922A800816A20009140780025
:1032700000CEB30000C060009040B300A8E6B700E5
:10328000916A20009140780000CEB30000C0600039
:103290000034A000A9E6B700C16A20009140780080
:1032A00000CEB30000C060007040B300ACE6B700D1
:1032B000D16A20009140780000CEB30000C06000C9
:1032C0000034A000ADE6B7000AC8BF008080FB0054
:1032D00000BC210000804000104078000080FB000E
:1032E00010128800ECDBBF006140600061406000AC
:1032F0004601DD002124200091407800F0CBB3008E
:1033000000C060000240700042E2B700ECDBBF008A
:103310000080FB000000D10061406000614160005E
:103320003124200091407800E0CFB30000C060005D
:103330000240700043E2B7000000EB00201288005A
:103340000000EB00001288000AC8BF008080FB006C
:1033500000BC210000804000104078000080FB008D
:1033600010138800ECDBBF0061406000614060002A
:103370004601DD002126200091407800F0CBB3000B
:1033800000C060000240700062E2B700ECDBBF00EA
:103390000080FB000000D1006140600061416000DE
:1033A0003126200091407800E0CFB30000C06000DB
:1033B0000240700063E2B7000000EB0020138800B9
:1033C0000000EB00001388000000EB0040128800B2
:1033D0000000EB00401388004322A9006322A900EB
:1033E0004362A80042A2A9006362A80062A2A900E9
:1033F00040C2A90060C2A9004402A8006402A8005B
:103400000080FA00000006000000FA0041E2A90076
:103410004362A90061E2A9006362A900A8C6BF00D7
:10342000F041B300A8E6B700A9C6BF00F041B30061
:10343000A9E6B700ACC6BF00F041B300ACE6B700E8
:10344000ADC6BF00F041B300ADE6B7000080FA00A2
:10345000000006000000FA00D02A2F0060150700C7
:103460000080FA00000006000400FA0010C0B3005B
:103470000AE8B700EC1BA900EC3BA800EC5BA90034
:103480000BC8A8000AC8BF008080FB0040BC210018
:103490000080400010407800A4FE0700EDFF070008
:1034A0000000370022C2BF00614060000004E0005D
:1034B000FCFF320030118000E9FBB700E9DBBF0000
:1034C0000080FB004400DE00E8FBB700E8DBBF0043
:1034D0000080FB00100798001E009000E30F5000D2
:1034E0006B0032001E009000E30F50000A003C0009
:1034F0001E009000E10F50003A0032001E009000C4
:10350000E10F500054003C001E0090000000E0005D
:103510000B003200AB0037001E009000E60F500099
:103520006F0032001E009000E80F50007C00320057
:103530001E009000E40F500064003200A10037002C
:10354000E9DBBF000080FB00000F78001E00780060
:10355000E10F5000100032001E007800E10F500013
:1035600004003C001E0078000000E000080032006B
:10357000190037001E007800E20F500008003200EA
:103580001E007800E30F50000C00320012003700DC
:10359000B6FE07008E003700AEFF0700C1FF370000
:1035A00060168000F1FB2F000100600060168800AB
:1035B00010C0B3006A160700BAFF3700601680001B
:1035C00001042000010070006016880010C0B300E4
:1035D00063160700B3FF37000040EB0060160700DA
:1035E000B0FF370091BE210091407800F0C0B300D9
:1035F00000C06000E9FBB700E9DBBF000040E80065
:10360000E9FBB70010C0B300551607000040EB00FF
:10361000E7FBB7000A00370022C2BF00614060002C
:103620000004E000FCFF320030118000A3FE070020
:103630004B160700E7DBBF000040E800E7FBB700E0
:1036400071BE210091407800E9DBBF0080CF5000BF
:10365000F1FF390093FF370091BE210091407800BF
:10366000F0C0B30000C06000E9FBB700A1BE2100BC
:1036700091407800E9DBBF0000C07000EAFBB700B2
:10368000EADBBF008DFE07003516070085FF370017
:10369000A1BE210091407800F0C0B30000C06000DE
:1036A000EAFBB700E9DBBF000080FB004400DD005F
:1036B00080407800EADBBF0000C07000EAFBB70082
:1036C00010C0B3002616070076FF3700E9DBBF0005
:1036D000011F070010C0B3002116070071FF37005B
:1036E00091BE21009140780070C0B30000C060001E
:1036F000E9FBB700E9DBBF000AE8B7000AC8BF0072
:103700008080FB0040BC2100008040001040780019
:1037100006FE070010C0B3001116070061FF370056
:10372000EC1BA900EC3BA900EC5BA9000BC8A900AD
:10373000E9DBBF000080FB004200DE0061006000AA
:103740000004E00001003200EC1BA800E9DBBF0030
:103750000080FB000000D100610060000004E00078
:1037600001003200EC3BA800E9DBBF000080FB0059
:10377000610060000004E00001003200EC5BA80082
:10378000E9DBBF000080FB004300DE000000A20078
:10379000610060000004E000010032000BC8A800D6
:1037A0000AC8BF008080FB0040BC210000804000B0
:1037B00010407800DDFD070010C0B300E8150700D9
:1037C00038FF37000040EB00E515070035FF3700F4
:1037D0000080FA00000006000000FA000BC8A900F3
:1037E0000040EB000AE8B7000B28A9000B08A9006D
:1037F0000B48A9000B68A9000B88A9000BA8A90019
:103800000BE8A9000080FA00000006000000FA00A2
:10381000C922A800C902A800C8E2A800C8C2A8001E
:10382000C942A800CA82A900C882A900C962A8002A
:10383000C262A800C062A9000000EB00204088001E
:10384000E5FF0700C082A900C282A900C8A2A900A2
:10385000CAA2A9002D23A9002D43A9002D63A90008
:103860002D83A900013220009140780000CEB300E2
:1038700000C0700020E3B7000000EB008019880052
:1038800020F02100201988000000EB0010198800AA
:103890000080FA00000006000200FA00004F7800E5
:1038A0001E80FB00401988002023A8002003A900E7
:1038B00020C3BF00614060000004E000FCFF320054
:1038C000001880000080FA00000006000000FA00E6
:1038D00021E3A800C0C0B300EFFF07006515070093
:1038E00021E3A9000080FA00000006000000FA00B1
:1038F00000C8BF000080FB008000400000BA21002B
:103900000080400010007800401188000000EB00AB
:10391000001188002062A8000000EB001011880050
:1039200021E2A8002342A8008560A9000080FA00D7
:10393000000006000400FA00004F780010408000EC
:10394000100798001E009000E10F50000D0032009B
:103950001E009000E10F5000070039001E0090008B
:10396000E20F50000A0032001E009000E30F5000EA
:103970000A0032000B0037001E80FB00091507000B
:10398000080037001E407800D514070005003700F6
:103990001E40780042140700020037001E407800E5
:1039A0006F1507000080FA00000006000600FA000C
:1039B000404798000040EB00204798000E00370079
:1039C0000000EB00000F780005003700A0CFB30027
:1039D0000F0007001E0078000000E800000F7800CC
:1039E0001E007800E30F5000F8FF36002E409000D4
:1039F0000040E80020479800AE4090004E40900004
:103A000080CF5000EEFF39000080FA000000060071
:103A10000400FA00204798000040EB00004F7800B7
:103A2000130037000000000000000000000000004C
:103A30000000000000000000000000000000000086
:103A40000000000000000000000000000000000076
:103A50000000000000000000000000000000000066
:103A6000000000001E4078000040E800004F780091
:103A70009E4078002E40900080CF5000E9FF390032
:103A80000080FA00000006000600FA00B2DBBF006A
:103A9000E14F500030003A0000C2B300301507007B
:103AA0000CC8BF00E34F5000060032000CC8BF0036
:103AB000E24F5000030032000CC8BF00E44F50003A
:103AC0000F003A0070C0B3003C150700D0C0B3002F
:103AD00023150700A0C0B30021150700B3DBBF000A
:103AE0000004E00003003A0010C0B300CA1B070046
:103AF0001700370010C0B3003C0207001400370065
:103B00000CC8BF00FC4F500003003A0080EA2E00B2
:103B1000C91307006701370060C0B300271507000D
:103B2000D0C0B3000E150700A0C0B3000C150700ED
:103B3000B3DBBF000004E00003003A000040EB00EC
:103B4000B51B0700020037000040EB00270207000A
:103B50000040EB00B2FBB7000CC8BF000080FB00C8
:103B60006101B9001207980023079800C0012000E6
:103B7000010020001E019000AE019000800F510056
:103B8000818F590049013E001E009000AE00900058
:103B9000006001001C003700590037008A00370020
:103BA0008900370091003700D50037003F0137000A
:103BB0003E0137003D0137003C0137003B01370033
:103BC0003A01370039013700380137003701370033
:103BD0003601370035013700340137003301370033
:103BE0003201370031013700300137002F01370033
:103BF0002E01370086003700AA003700B9003700D1
:103C00002A0137002B01370080408000E10F50006F
:103C10000D003A0010C0B300E8140700B3DBBF008A
:103C20000004E00003003A003A1B0700B4FBB700B1
:103C3000020037000A020700B4FBB700B4DBBF0084
:103C40003CFF07002B00370020C0B300DB14070047
:103C50008040800037FF070030C0B300D714070052
:103C60000000EB00B0DD88001E003700B0DD8000F2
:103C70000000E0000E00320000C2B300B8140700DC
:103C800060C0B300CD14070000C2B300B414070035
:103C9000B3DBBF000004E00003003A000040EB008B
:103CA0005D1B0700020037000040EB00CF0107005A
:103CB000B3DBBF000004E00003003A00151B07005F
:103CC000B4FBB70002003700E5010700B4FBB70002
:103CD000B4DBBF0017FF0700B0DD80000000E80084
:103CE000B0DD880081408000B0DD8000808F500012
:103CF000DEFF3E0010C0B300B2FBB700ED0037009E
:103D000040C0B300AD1407007040800009FF0700F9
:103D100080408000E10F500006003600A0EB2E002E
:103D20002F1307008040800002FF070050C0B3003F
:103D3000A21407000000EB00B0DD88000F00370080
:103D4000B3DBBF000004E00005003A0070408000D3
:103D5000BF1A07001F1B0700B4FBB70004003700A1
:103D600070408000B401070099010700B4FBB70060
:103D7000B0DD80000000E800B0DD880081408000F8
:103D8000B0DD8000808F5000EDFF3E0000C2B30028
:103D900073140700B4DBBF000004E00003003A0026
:103DA00060C0B300851407000200370070C0B30084
:103DB00082140700D0C0B30069140700A0C0B3008C
:103DC00067140700BB003700B3DBBF000004E0004E
:103DD00002003A002F1A0700010037006C010700AB
:103DE00080C0B30075140700B2003700B3DBBF001A
:103DF0000004E00002003A00391A07000100370011
:103E00006B01070090C0B3006C140700A9003700D5
:103E10000BC8A8000B88A800E0EB2E0006130700D3
:103E20001200200021002000100020006311070074
:103E30000040E900B3FBB700B3DBBF000004E000C3
:103E400009003A0010C3B3005C1407001200200000
:103E50002100200010002000581107000040E90058
:103E60000AE8B7009300370041408000300023008B
:103E7000808F500002003E0040EE2E00EE12070040
:103E800070F22E00EC12070012002000310020001A
:103E900010002000491107000040E9000AE8B700BF
:103EA00084003700B3DBBF000004E00009003A00E3
:103EB000C922A800C902A800CB02A900CB22A900F0
:103EC000A18020009140780020C0B300CE190700E7
:103ED000010037006D0107000040EB0037140700B8
:103EE000740037000040EB00B2FBB700B3DBBF004B
:103EF000E14F50006F003A0007E2A9006D00370063
:103F000071408000010F78001E017800E10F510020
:103F10000A0032009E017800E18F51000400390050
:103F20001E007800E20F50004B0032005C003700AA
:103F3000B0F52E00C01207005E00370010F92E0009
:103F4000BD1207000000EB00B0DD8800390037002B
:103F5000B3DBBF000004E00006003A00CD19070003
:103F6000B0DD80003A1A07009A1A0700B4FBB700C8
:103F70000500370006010700B0DD80002E010700B4
:103F800013010700B4FBB700B4DBBF000004E0007E
:103F90001F003A00B0DD800066FE070080C2B3005B
:103FA000EF130700B0DD80000000D10061FE0700C4
:103FB000B0DD80000000A200610060000004E000AD
:103FC0000300320020FE2E00851207000C0037008F
:103FD000B3DBBF000004E00004003A004D1A070004
:103FE00010C0B3008C1A0700030037001C01070043
:103FF00010C0B300FD00070050FE2E00781207002D
:1040000080FE2E007612070000C2B300D413070012
:10401000B3DBBF000004E00002003A00B019070063
:1040200001003700E2000700B0DD80000000E8007A
:10403000B0DD8800B1DD8000F00F2000808F5000DF
:10404000C3FF3600D0C0B300C5130700A0C0B30043
:10405000C313070017003700B3DBBF000004E00004
:104060000F003A00A0FE2E00731207001300070095
:104070003500070022C2BF00614060000004E0007C
:10408000FBFF320030118000B0DD8800D0C0B300EB
:10409000B3130700A0C0B300B11307000500370039
:1040A00070C1B300C51307000200370080C1B30020
:1040B000C21307000080FA00000006000000FA00AA
:1040C000C922A800C902A800CB02A900CB22A900DE
:1040D00062A0A80062C0A8008660A9000000EB00F2
:1040E000C0DD88000040EB00BFFBB700CBC2BF00C3
:1040F0000080FB000000D100614060006141600071
:10410000E1BB210091407800E0CFB30000C0600027
:1041100002407000BEFBB700CBC2BF006140600030
:10412000614060004201DD00E1BB21009140780068
:10413000B0CFB30000C0600002407000BEFBB7000B
:104140000080FA00000006000400FA0086C0BF00EC
:10415000684060000004E0008B003200CBC2BF006A
:104160000080FB000000D100614060006140600001
:1041700000414000E1BB210091407800D0CFB30066
:1041800000C0600002407000BEFBB700CBC2BF00A1
:1041900061406000614060004301DD00E1BB21003F
:1041A0009140780070CFB30000C060000240700002
:1041B000BEFBB7008660A900BEDBBF0064406000A4
:1041C0000004E00022003200BEDBBF006840600057
:1041D0000004E0001E003200BEDBBF006140600052
:1041E0000004E0000B003200BEDBBF006240600054
:1041F0000004E00007003A0020002000C0DD880035
:104200000040EB00BFFBB700B0C5B300541307007C
:1042100046003700BEDBBF00614060000004E000E4
:1042200042003A00BEDBBF00624060000004E000D4
:104230003E0032000000EB00C0DD88000040EB00D3
:10424000BFFBB700D0C5B3004513070037003700E8
:10425000BEDBBF00644060000004E00033003A00B1
:10426000BEDBBF00684060000004E0002F003200A9
:10427000C0DD8000100798001E009000E20F500083
:10428000040032001E009000E30F500017003200BF
:1042900026003700BADBBF0000404000BAFBB70081
:1042A000BEDBBF000080FB000000D1006140600069
:1042B00080407800BADBBF0000C04000BAFBB70006
:1042C000BFDBBF000040E800BFFBB700BFDBBF00A3
:1042D000E84F500015003A000040EB00BFFBB7006C
:1042E00030002000C0DD880010003700CBC2BF00C6
:1042F0000080FB000000D10061406000004F7800AA
:10430000BADBBF008BFD07001E04E0000300320093
:10431000D0C2B3001213070002003700B0C2B300CE
:104320000F13070020002000C0DD8800BEDBBF00A7
:104330000080FB000000D10061406000614160002E
:10434000E1BB210091407800E0CFB30000C06000E5
:1043500002407000BEFBB700BEDBBF000080FB0068
:104360004300DE0061406000614060004201DD000A
:10437000E1BB210091407800B0CFB30000C06000E5
:1043800002407000BEFBB7000080FA00000006008B
:104390000000FA000602A80006C2BF0061406000EB
:1043A0000004E000FCFF3A000080FA000000060074
:1043B0000000FA000642A80006C2BF006440600088
:1043C0000004E000FCFF3A000080FA000000060054
:1043D0000000FA0009C2BF000080FB004700DE00B9
:1043E0000080FB000080FA00000006000200FA00D6
:1043F000004F78009E40780061C06000614060001E
:104400004501DD006120200091407800F0CDB3002F
:1044100000C060000240700006E2B7000682A800FB
:1044200006C2BF00704060000004E000FCFF3A00DC
:104430000080FA00000006000200FA00004F780039
:104440001E40780002E2B70009C2BF000044B2007B
:104450000004E000FCFF3A000080FA0000000600C3
:104460000200FA000662A80006C2BF0068406000B1
:104470000004E000FCFF3A0000C2BF00004F7800DB
:104480001E80FB000080FA00000006000000FA0019
:104490000742A9000782A9000000EB005010880025
:1044A0000000EB00601088000702A9000AC8BF00E6
:1044B0008080FB00C0C221000080400010407800D6
:1044C0000080FB002010880007E2A8000080FA00AE
:1044D000000006000000FA0060022F0040110700F3
:1044E0000080FA00000006000400FA00C922A800BB
:1044F000C902A800CB02A900CB22A900C8C2A9000A
:104500000BC8A8000B68A90011C0B30020C0B300FD
:104510003D180700EFFF07000000370022C2BF0070
:10452000614060000004E000FCFF320030118000B8
:10453000BDFBB700BDDBBF000080FB004400DE0018
:10454000BCFBB700BCDBBF000080FB00100798007D
:104550001E009000E10F5000450032001E00900048
:10456000E10F500004003C001E0090000000E0003D
:10457000080032006D0037001E009000E40F50006C
:10458000650032001E009000E60F50005600320019
:1045900066003700BDDBBF000080FB00000F780025
:1045A0001E007800E30F50001D0032001E0078004E
:1045B000E30F50000A003C001E007800E10F50009D
:1045C000110032001E007800E10F500010003C0086
:1045D0001E0078000000E000570032002100370084
:1045E0001E007800E60F5000140032001E00780014
:1045F000E70F5000160032001E007800E40F500054
:104600000B00320017003700B2FF0700C3FF37006E
:104610002018070010C0B30051120700BFFF370079
:104620002F18070010C0B3004D120700BBFF370062
:10463000B81807004A120700B8FF37000040EB0027
:10464000F518070010C0B30045120700B3FF37008C
:1046500010C0B300F018070010C0B30040120700EC
:10466000AEFF37000040EB003D120700ABFF370004
:10467000D1BB210091407800F0C0B30000C06000C1
:10468000BDFBB700BDDBBF000040E800BDFBB700CD
:1046900010C0B300321207000040EB00BBFBB700B4
:1046A0000B00370022C2BF00614060000004E00040
:1046B000FCFF32003011800065180700C5180700A4
:1046C00027120700BBDBBF000040E800BBFBB700C0
:1046D000B1BB210091407800BDDBBF0080CF50000E
:1046E000F0FF39008DFF3700D1BB210091407800E9
:1046F00010C0B30000C06000BDFBB700D1BB2100FB
:104700009140780020C0B300BF17070010C0B3006D
:104710001312070081FF3700BDDBBF00EE1A070050
:1047200010C0B3000E1207007CFF37000040EB0002
:104730000B12070079FF37000080FA000000060026
:104740000600FA000CC8BF000080FB006101B90040
:104750001207980023079800C001200001002000E4
:104760001E019000AE019000800F5100818F590012
:1047700031013E001E009000AE009000006001007C
:104780004D0037006F0037003B0037004000370016
:1047900045003700BB0037008D0037009700370019
:1047A000A1003700A7003700AA003700AD0037008E
:1047B000B0003700200137001F0137001E0137000D
:1047C0001D0137001C0137001B0137001A0137009B
:1047D000190137001801370017013700160137009B
:1047E00004003700200037001501370012013700A0
:1047F00013013700E0C1B300F011070012002000E0
:104800002100200010002000EC0E07000040E9000D
:10481000614060006141600061BF2100914078000B
:10482000E0CFB30000C0600002407000F6FBB700AC
:10483000F6DBBF006140600000C0EA00614060003C
:10484000614060004601DD00B180200091407800A9
:10485000F0CBB30000C06000024070000BE8B7006E
:104860000B48A800F6003700860107000040EB0067
:10487000D2110700F2003700F300070020C0B30098
:104880004301070060842E006B100700EC00370026
:10489000ED00070030C0B3003D01070000872E0087
:1048A00065100700E6003700E700070080892E004A
:1048B00061100700E200370080408000E10F5000E7
:1048C00007003A00E0010700F4FBB70010C0B30096
:1048D000BA110700F4DBBF0016FC07001400370014
:1048E00020C0B300B51107008040800011FC070014
:1048F00030C0B300B11107000000EB0090DF88006A
:1049000007003700D00107000AFC070000C2B3000F
:104910009311070090DF80000000E80090DF88001E
:104920008140800090DF8000808F5000F5FF3E00C6
:10493000D0C0B3008A110700A0C0B30088110700DF
:10494000BF00370040C0B3009C11070070408000DA
:10495000F8FB070080408000E10F500004003A009F
:104960007040800052010700F4FBB70013003700CD
:10497000508A2E001A10070080408000EDFB0700CF
:1049800050C0B3008D1107000000EB0090DF8800DD
:10499000060037007040800045010700F4FBB700B7
:1049A00090DF80000000E80090DF880081408000F8
:1049B00090DF8000808F5000F6FF3E00D0C0B30033
:1049C00067110700A0C0B300651107009C00370005
:1049D000E1010700F4FBB700D0C0B3007711070076
:1049E000F4DBBF00F70F0700D0C0B3005C11070075
:1049F000A0C0B3005A11070091003700E0C0B30017
:104A00006E110700DE010700F4FBB700F4DBBF0006
:104A1000EC0F0700D0C0B30051110700A0C0B300D5
:104A20004F1107008600370080408000C1FB07005F
:104A300000C1B3006111070080408000F901070048
:104A40007F00370010C1B3005C11070002020700AD
:104A50007B00370020C1B300581107001702070080
:104A60007700370030C1B30054110700CB010700B5
:104A70007300370040C1B30050110700E201070086
:104A80006F00370071408000010F78001E01780030
:104A9000E10F51000D0032009E017800E18F5100BE
:104AA000070039001E007800E20F50000C003200B1
:104AB0009E007800E38F5000550032005B00370005
:104AC000908A2E00C60F07005D003700A700070080
:104AD000608F2E00D80F07005B00070058003700DA
:104AE00040902E00D40F0700A0000700608F2E001A
:104AF000D10F0700A90107005300070020C0B30031
:104B0000A300070000C0EB00C601070000C0EB00D7
:104B1000C40107004C00070030C0B3009C00070030
:104B20000000EB0090DF88000700370090DF800076
:104B30000000E80090DF880091DF8000900F2000E7
:104B4000808F500003003E00830107000004E00056
:104B5000F6FF32003C00070084000700608F2E0043
:104B6000B50F07003800070030C0B3008800070009
:104B700090DF80006FFB070040912E00AE0F070012
:104B80000040EB00F4FBB7001A003700F4DBBF0075
:104B90000040E80067FB0700D0922E00900F07004E
:104BA0002901070063FB070000C2B300EC100700F7
:104BB000250107005FFB070000C2B300E8100700F3
:104BC000210107005BFB070000C2B300E4100700EF
:104BD0001D01070057FB0700D0C0B300E01007001D
:104BE000A0C0B300DE100700F4DBBF000040E80007
:104BF000F4FBB700F4DBBF008080FB0090DF800097
:104C0000808F5000E1FF39000F0007000C003700D3
:104C100010932E00880F070040972E00860F070084
:104C2000909A2E00840F07000500370070C1B30072
:104C3000E21007000200370080C1B300DF10070058
:104C40000080FA00000006000200FA00409D2E00DD
:104C5000630F0700EEDBBF000080FB00000F780051
:104C60001E007800E10F50000E0032001E00780098
:104C7000E10F500004003C001E0078000000E0003E
:104C80000B003200350037001E007800E20F5000A4
:104C90000F0032001E007800E30F500024003200A5
:104CA0002E003700D09D2E00630F07002D00370027
:104CB000A401070010C0B3005A01070010C0B300E0
:104CC000EEFBB700A09E2E005B0F0700250037000B
:104CD000EFDBBF00E14F50000A003A00F0DBBF00FD
:104CE000E14F500002003A002C010700010037009C
:104CF000450107000040EB00EFFBB700609F2E006E
:104D0000370F07007401070020C0B30045010700FA
:104D10008C01070010C0B3004201070010C0B300AF
:104D2000EEFBB700B0A02E00430F07000D003700C8
:104D30006901070020C0B3003A01070081010700A4
:104D400010C0B3003701070010C0B300EEFBB7007E
:104D500040A12E00380F070002003700D0A12E001E
:104D6000350F07000080FA00000006000000FA007E
:104D700059010700A0C0B3002A0107007101070014
:104D80000040EB00EEFBB7000080FA0000000600D8
:104D90000400FA00004F7800EEDBBF00E14F500046
:104DA00002003200B0A22E00230F0700409D2E000B
:104DB0000B0F07001E80FB00100798001E009000DC
:104DC000E10F50000E0032001E009000E10F500075
:104DD00004003C001E0090000000E0000B003200C8
:104DE000240037001E009000E20F50001600320031
:104DF0001E009000E30F5000080032001D00370035
:104E0000D09D2E000C0F07001C003700D7FF0700B5
:104E100070A42E00080F0700180037002E010700AD
:104E200010C0B300FF0007004601070020C0B30018
:104E3000FC00070030C0B300EEFBB700D0A42E008A
:104E4000FD0E07000D0037002301070020C0B3004E
:104E5000F40007003B01070020C0B300F100070089
:104E600020C0B300EEFBB70010A62E00F20E070024
:104E70000200370060A92E00EF0E07000080FA0044
:104E8000000006000000FA00C8E2A800C902A9005C
:104E9000C922A900C8C2A900CAE2A900CB02A90080
:104EA000CB22A900CAC2A9000080FA0000000600B7
:104EB0000800FA004047980000010700EFDBBF0040
:104EC000E14F500006003A00F0DBBF009100070000
:104ED0000040EB00EFFBB70000AB2E00D60E070042
:104EE0000BC8BF00684060000004E000030032000F
:104EF00010C0B300004F78000200370000C8B300B4
:104F0000004F78000040EB00304798004500370024
:104F10004E4090001E4060000004E00002003A0095
:104F2000B9000700010037009C000700CA00070015
:104F3000CAC2BF000080FB004700DE002047980087
:104F40000BC8BF00684060000004E00010003200A1
:104F50004E4090000080FB000000D10040479800C8
:104F60001E4090000080FB000000D1001047980018
:104F70002E409000E14F500011003A001E4090007A
:104F800001C8B30001404000104798000C003700F2
:104F90004E40900000404000404798001E40900066
:104FA00000404000104798002E409000E14F500014
:104FB00003003A001E4090000040E80010479800AF
:104FC000BE000700EEDBBF00E24F500012003A00C7
:104FD0003E409000E64F50000F003A0010C0B30072
:104FE000EFFBB7004E4090001E4060000004E00060
:104FF00003003A000040EB00F0FBB700020037006E
:1050000010C0B300F0FBB7001E4090000080FB0012
:1050100030079800090037003E4090000040E8004B
:10502000304798003E409000E74F5000B8FF3600F0
:105030001E4090000080FB00300798003E0090006A
:105040000080FA00000006000400FA009B00070040
:10505000EFDBBF00E14F500006003A00F0DBBF007D
:105060002C0007000040EB00EFFBB70000AB2E0068
:10507000710E07000040EB00204798001F0037002A
:1050800075000700CAC2BF000080FB004700DE00B9
:10509000104798000BC8BF00684060000004E000A3
:1050A00008003A001E40780000404000004F7800A1
:1050B0001E4090000004E0000C0032001E4FE8008B
:1050C0000A0037001E80FB000000D100004F78006E
:1050D0001E4090000004E000040032001E407800F2
:1050E00001C8B30001404000004F78007300070082
:1050F0002E4090000040E800204798002E4090008D
:10510000E74F5000DEFF36001E80FB000080FA00F3
:10511000000006000400FA00204798002E4090008E
:105120000004E00002003A003700070001003700E9
:105130001A00070048000700CAC2BF000080FB0039
:105140004700DE00004F78005C0007001E80FB0077
:105150000080FA00000006000200FA003E0007008E
:10516000CAC2BF000080FB004700DE00004F78008D
:10517000520007001E80FB000080FA0000000600BD
:105180000000FA00CAC2BF000080FB004700DE003A
:105190000080FB000080FA00000006000000FA001A
:1051A000F6DBBF006140600000C0EA0061406000C3
:1051B0006140600000414000912C20009140780047
:1051C000D0CFB30000C0600002407000C9E2B70059
:1051D000F6DBBF00614060006140600000414000BC
:1051E000B12C200091407800D0CFB30000C0600007
:1051F00002407000CBE2B70040C1B30004FA0700E0
:105200000080FA00000006000000FA00CB22A9008E
:10521000C922A90040C1B300FDF907000080FA00CF
:10522000000006000400FA00204798000040EB0050
:10523000004F780003003700070007001F00070039
:105240001E4FE8002E4090009E4F1000FAFF3900DC
:105250000080FA00000006000000FA00F6DBBF0044
:105260006140600000C0EA00614060006141600090
:10527000912C200091407800E0CFB30000C0600086
:1052800002407000C9E2B700F6DBBF006140600079
:1052900061416000B12C200091407800E0CFB30064
:1052A00000C0600002407000CBE2B70040C6B3000F
:1052B000D7F907000080FA00000006000000FA009D
:1052C000CB02A900C902A90040C6B300D0F907006B
:1052D0000080FA00000006000000FA00F6DBBF00C4
:1052E0006140600000C0EA00614060006140600011
:1052F0004601DD00812C200091407800F0CBB30006
:1053000000C0600002407000C8E2B700F6DBBF00DA
:1053100061406000614060004601DD00A12C20007A
:1053200091407800F0CBB30000C0600002407000F4
:10533000CAE2B70040C1B300B5F907000080FA0027
:10534000000006000000FA00CAC2A900C8C2A900F5
:1053500040C1B300AEF907000080FA00000006006B
:105360000200FA00F0C2B300104798000040EB00C2
:10537000004F7800C922A800CB22A900C922A900A9
:1053800005003700A0C0B300A1F907001E4090003F
:105390000040E900104798001E4090000004E00023
:1053A000F8FF3C00C922A800C0C3B30098F9070069
:1053B000CBC2BF000080FB000000D1006140600054
:1053C00030FCB70090C2B3001047980005003700CA
:1053D000A0C0B3008EF907001E4090000040E90015
:1053E000104798001E4090000004E000F8FF3C00C9
:1053F000CBC2BF000080FB000000D1006140600014
:1054000031FCB70031DCBF000004E00002003A00CC
:1054100010C0B300004F780030DCBF00E14F5000F7
:1054200003003A001E40780000C0E800004F7800FA
:10543000A0C0B30076F907001E80FB000080FA00D0
:10544000000006000400FA002047980080C0B30066
:10545000004F78001D0037002E4090006140600032
:1054600032FCB700CB22A900C922A90050C0B3006A
:1054700067F9070032DCBF006140600061406000F6
:1054800000414000912C200091407800D0CFB30023
:1054900000C0600002407000C9E2B70020C3B30042
:1054A0005BF9070050C0B30059F90700C922A800F2
:1054B000A0C0B30056F907002E4090000080FB000A
:1054C0000000D100204798001E4FE9001E04E000B4
:1054D000E1FF3C00A0C0B3004DF907000080FA00D6
:1054E000000006000200FA00004F7800CB22A9005D
:1054F000C922A90050C0B30045F907009E407800BA
:1055000061C060006140600000414000912C2000BB
:1055100091407800D0CFB30000C06000024070001E
:10552000C9E2B70020C3B30039F9070050C0B30087
:1055300037F90700C922A800A0C0B30034F907005A
:105540000080FA00000006000200FA0080C0B300EC
:10555000104798000040EB00004F78001D00370016
:10556000CB22A900C922A90030C0B30028F9070046
:10557000C922A80050C0B30025F90700CBC2BF0064
:105580000080FB000000D1006140600032FCB700E9
:1055900040C3B3001EF907001E80FB000000D100CD
:1055A000004F780032DCBF00E14F500004003A00A9
:1055B0001E40780001C8B30001404000004F780051
:1055C000A0C0B30012F907001E4090000040E9009F
:1055D000104798001E4090000004E000E0FF3C00EF
:1055E000A0C0B3000AF907001E80FB000080FA008B
:1055F000000006000000FA00CB22A900C922A90081
:1056000030C0B30002F90700C922A80050C0B3009F
:10561000FFF80700CBC2BF000080FB000000D100F4
:105620006140600032FCB70040C3B300F8F80700E7
:10563000A0C0B300F6F8070032DCBF000080FB001A
:105640000080FA00000006000800FA002007980019
:10565000310798000040EB00004F78000000EB009D
:10566000100798000C0037001E00900080007800A2
:105670002E00900000804000104078001E4068001E
:105680008080FB00E03C2F00614F78001E009000FE
:105690000000E800100798009E0090003E00900077
:1056A000808F5000F0FF35001E80FB000080FA0064
:1056B000000006000600FA00881F78000CC8BF0032
:1056C0000080FB006101B9001207980023079800D1
:1056D000C0012000010020001E019000AE019000DA
:1056E000800F5100818F5900C3013E001E009000C1
:1056F000AE009000006001001C0037004000370041
:10570000600037005F003700BB0137009F003700A3
:105710005E003700B801370065003700B60137007A
:10572000B50137007700370076003700B201370047
:10573000B1013700B0013700AF013700AE013700CB
:10574000AD013700AC013700AB013700AA013700CB
:10575000A9013700A80137007D003700800037001D
:10576000A7013700A4013700A50137008040800061
:10577000E10F500007003A0010C0B3000F0E070001
:1057800071FF070001FBB70001DBBF0069F80700EC
:105790001600370020C0B300080E070080408000CC
:1057A00064F8070030C0B300040E07000000EB00EF
:1057B000F0D788000900370063FF070001FBB7003E
:1057C00001DBBF005BF8070000C2B300E40D070077
:1057D000F0D780000000E800F0D78800814080000A
:1057E000F0D78000808F5000F3FF3E00D0C0B300A0
:1057F000DB0D0700A0C0B300D90D07008001370002
:1058000040C0B300ED0D07007040800049F807006C
:1058100080408000E10F500003003A00704080009B
:1058200008FF07001200370020492E006C0C07000B
:10583000804080003FF8070050C0B300DF0D070034
:105840000000EB00F0D788000500370070408000B2
:10585000FCFE0700F0D780000000E800F0D78800C9
:1058600081408000F0D78000808F5000F7FF3E001D
:10587000D0C0B300BA0D0700A0C0B300B80D070038
:105880005F013700610107005D01370059FF070024
:1058900001FBB700D0C0B300C80D070001DBBF009B
:1058A000480C0700F0C0B300C40D070054013700D6
:1058B000804080001FF8070060492E00480C070058
:1058C0000000EB00F0D7880005003700F4DABF00D5
:1058D00004FF0700F0D780000000E800F0D7880040
:1058E00081408000F0D78000808F5000F7FF3E009D
:1058F000F4DABF00330C0700904A2E004E0C07006C
:105900003F013700B04A2E00350C07000CC8BF001D
:10591000EC4F500005003A000040EB00F4FAB700ED
:105920000040EB00270C07000400370010C0B30054
:10593000F4FAB70010C0B300220C0700A04B2E00F1
:105940003D0C0700F4DABF00E6FE07002C0137002B
:105950000B48A9000B88A8000BC8A8002801370035
:105960000040EB0006FBB700C922A800CB22A9002B
:10597000104F2E00300C070020522E002E0C070076
:105980000040EB008D0D07001D01370070408000C6
:105990000000E0003600320071408000200320004B
:1059A000808F500032003E00704080000000E9000F
:1059B000704088007140800006DBBF000080FB0063
:1059C000808F500003003900C0542E001A0C0700CD
:1059D0000B01370040592E00010C07007040800079
:1059E0000040E800BE0C0700405A2E00FC0B0700E8
:1059F0000040EB0000FBB70017003700724080004A
:105A000000DBBF008080FB004310DD008100400010
:105A100070B021000080400010407800C5F70700FA
:105A200000C2B3004E0D07007240800000DBBF00D3
:105A30008080FB004310DD008100400070B0210039
:105A400000804000104078007EFE070000DBBF00B1
:105A50000040E80000FBB70000DBBF00E74F50004C
:105A6000E6FF3600705A2E00F30B0700E400370003
:105A700071408000010F7800500520001E01780061
:105A8000800F5100CD003200500520009E017800AB
:105A9000808F510008003E001E0078000000E000EA
:105AA00012003200300320009E007800808F5000EA
:105AB000A0003200CD003700C00E20001E0178008B
:105AC000800F510046003200000F20009E01780038
:105AD000808F510042003200C00C20009E007800F0
:105AE000808F5000BB003200C0003700905A2E005B
:105AF000D10B0700B05B2E00CF0B070006DBBF0009
:105B00000004E00003003A00C0542E00CA0B070056
:105B1000300037000040EB0001FBB70028003700E1
:105B200000C2B3000E0D070001DBBF000040E8001B
:105B30006B0C0700505D2E00A90B07000040EB0026
:105B400000FBB7000F00370001DBBF000081FB0046
:105B500000DBBF008080FB004310DD0081004000BF
:105B600070B02100008040001040780071F70700FD
:105B700000C2B300FA0C070000DBBF000040E800E1
:105B800000FBB70000DBBF00E74F5000EEFF360020
:105B9000705D2E00920B070001DBBF000080FB0050
:105BA000C300DD0070B0210000804000104078008C
:105BB000B700070001DBBF000040E80001FBB700B1
:105BC00061B021009140780001DBBF0080CF500020
:105BD000D3FF3E00E05D2E00970B070088003700E2
:105BE0007040800042F9B70071408000C00E200074
:105BF000808F500003003A00906C2E008E0B07003F
:105C000002003700D06D2E008B0B0700B05B2E001A
:105C1000890B07000040EB0000FBB700CB0007003A
:105C200001FBB7000040EB0006FBB7003B0037006C
:105C300000C2B300CA0C070000DBBF000040E80050
:105C4000270C0700505D2E00650B07000000EB00DD
:105C5000F0D788000A003700F1D7800070B5210026
:105C6000008040001040780032F7070000C2B30007
:105C7000BB0C0700F0D780000000E800F0D78800D8
:105C8000F0D78000E70F5000F3FF3600705D2E0064
:105C9000530B070057DBBF007D00070000DBBF0090
:105CA000E94F500018003E000000EB00F0D78800DC
:105CB0000F00370006DBBF008081FB00F4D78000B7
:105CC000F1D7800070B521000080400010417800BD
:105CD0004318DD008400400070B0210000804000C7
:105CE00002487800F0D780000000E800F0D7880074
:105CF000F0D78000E70F5000EEFF360006DBBF0054
:105D00000040E80006FBB70000DBBF000040E800F1
:105D100000FBB7009800070001FBB70001DBBF00E4
:105D20000004E000C2FF3A00B06E2E00420B0700F4
:105D3000330037003500070070722E00280B070073
:105D400030C3B300BFFD07000000EB00F0D78800B0
:105D500010003700F8D78000FBFD07008040780076
:105D600050AF21000000440001487800F1D78000C6
:105D700050AF21000080400010407800EDF6070091
:105D800000C2B300760C0700F0D780000000E800E6
:105D9000F0D78800F0D78000E70F5000EDFF360005
:105DA000D0C0B3006E0C0700A0C0B3006C0C07009D
:105DB000F5DABF00360007001100370013000700B6
:105DC00090732E001C0B070050C5B3009DFD07000B
:105DD0000B0037000D000700A0742E00160B070003
:105DE000C0CCB30097FD07000500370070C1B300B9
:105DF000720C07000200370080C1B3006F0C07006F
:105E00004F0478000080FA00000006000200FA004B
:105E100053FD0700004F7800A0752E00F00A070020
:105E20001E04E00003003A0050762E00020B07002B
:105E30001500370080762E00E90A07001E80FB005F
:105E4000610060000004E0000200320000772E00D4
:105E5000E30A07001E80FB000000D1006100600023
:105E60000004E0000200320080792E00DC0A070006
:105E7000807B2E00DA0A07001E407800ADF607008E
:105E8000904A2E00EC0A07000080FA00000006008D
:105E90000400FA00004F78001E80FB0010079800F5
:105EA000200220009E009000808F50001A003200D7
:105EB000200220009E009000808F500007003C00D0
:105EC0001E009000E40F5000160032009E0090006B
:105ED000F08F50000A0032001800370080022000C6
:105EE0009E009000808F500008003200D0022000F9
:105EF0009E009000808F50000D0032000F00370090
:105F0000A07B2E00CC0A07000E003700607D2E001B
:105F1000C90A07000B003700107F2E00C60A0700D1
:105F20000800370070802E00C30A07000500370004
:105F300000822E00C00A07000200370010832E00E6
:105F4000BD0A07000080FA00000006000000FA0009
:105F50000040EB005FFBB7000040EB0061FBB700C7
:105F60000040EB0060FBB700080007000080FB006A
:105F70000080FA00000006000000FA00030007009D
:105F80000080FB000080FA00000006000A00FA0012
:105F900010C0B300704798000040EB0060479800C5
:105FA0000040EB005047980010C0B3001047980025
:105FB0000040EB00404798000040EB0062FBB70058
:105FC00061DBBF000004E0008B003A00E4FC070046
:105FD0000004E000090032000040EB005FFBB70066
:105FE0000040EB0061FBB7000040EB0060FBB70036
:105FF0000000EB00400798009000370042D9BF0036
:1060000010FD07007BFD07003047980079FD070071
:10601000204798003E409000E14F500003003A00B6
:106020002E409000E14F500063003200BE409000CF
:106030002E40900080CF5000030032003E40900080
:10604000004F780024003700F1B52100914078001E
:106050007E409000814F50000E0031005E40900065
:106060008080FB0070B521000080400090407800E7
:106070001E40900080C060000040EB00004F7800A0
:106080000104E0000B00320010C0B300004F7800A4
:10609000080037005FDBBF008040EB00014F780055
:1060A000FE40900080CF500002003A0010C0B300C4
:1060B000004F78001E04E00007003A007E40900088
:1060C000604798006E409000E84F500002003E008C
:1060D0006E40900060FBB70010C0B3009E4F1000F0
:1060E0000D003A005E4090000081FB005E40900091
:1060F0008080FB0070B52100008040009040780057
:106100001E40900080C0700070B52100000041006A
:10611000014878000F0037005E4090000081FB00CE
:106120005E4090008080FB0070B521000080400040
:1061300010407800804078001E40900000C0EA00C7
:1061400000C060008040780070B521000000410070
:10615000014878001E407800E2FC07007E40900075
:106160000040E800704798001E409000004040004A
:10617000104798001E4090000004E0000B003A0019
:106180005E4090008080FB0070B5210000804000E0
:1061900010407800840007005E4090000040E80056
:1061A0005047980010C0B300104798005E40900020
:1061B000E74F500093FF3600FE40900000C4B3004C
:1061C00080CF50000C00360062DBBF000004E0000E
:1061D00009003A006E4090005FFBB7005FDBBF0034
:1061E0000004E00002003A0010C0B30061FBB700F9
:1061F00010C0B300404798004E4090000004E000FB
:106200000300320057DBBF000004E00008003A0042
:106210000040EB005FFBB7000040EB0061FBB70004
:106220000040EB0060FBB7000040EB0040479800E7
:106230004E4090000080FB00400798004E00900008
:106240000080FA00000006000E00FA000040EB009B
:10625000404798000C0037004E4090000081FB0042
:106260004E4090008080FB0070B52100008040000F
:106270009040780065004700017178004E40900022
:106280000040E800404798004E409000E74F500023
:10629000F1FF36005FDBBF002047980061DBBF00E5
:1062A0001047980060DBBF00004F780000C4B300C7
:1062B0005FFBB7000040EB0061FBB70033FF070056
:1062C0000004E0001A00320010C0B300304798000C
:1062D0000040EB0040479800110037004E4090000E
:1062E0008080FB0065004700614178004E409000CF
:1062F0008080FB0070B521000080400010407800D5
:10630000804F5100030032000040EB0030479800FE
:10631000090037004E4090000040E80040479800D8
:106320004E409000E74F5000ECFF3600020037006F
:106330000040EB00304798000040EB0040479800D9
:106340000C0037004E4090000081FB004E40900052
:106350008080FB0065004700E140780070B52100B7
:1063600000004100014878004E4090000040E800E5
:10637000404798004E409000E74F5000F1FF360034
:106380002E4090005FFBB7001E40900061FBB700FD
:106390001E40780060FBB7003E4090000080FB008C
:1063A0000080FA00000006000200FA00004F7800AA
:1063B00062DBBF001E4068008080FB00309421003B
:1063C000008040001040780062FBB70062DBBF0035
:1063D0000080FB000080FA00000006000000FA00C8
:1063E00000842E007E0907000080FA0000000600ED
:1063F0000400FA00C922A800CB22A900C8C2A90043
:10640000F6FF07000000370022C2BF0061406000B5
:106410000004E000FCFF32003011800005FBB700F3
:1064200005DBBF000080FB004400DE0004FBB7007A
:1064300004DBBF000080FB00100798001E009000E6
:10644000E10F50005B0032009E009000E48F50008E
:10645000760032001E0090000000E00001003200D3
:106460007700370005DBBF000080FB00000F7800DD
:106470009E007800E28F5000170032001E00780066
:10648000E20F500007003C009E0078000100E00091
:106490006E0032001E007800E10F50000C00320048
:1064A000410037009E007800E48F50000E0032005B
:1064B0001E007800E40F50003B0035009E0078007D
:1064C00068805000E10F500037003E00090037009F
:1064D000C2FF0700CCFF37004CFE070010C0B3001E
:1064E0009F0A0700C8FF370017FC07009C0A070037
:1064F000C5FF370010C0B300990A070005DBBF00D5
:10650000E94F500003003A00C0CEB30042F9B70093
:106510000200370000CFB30042F9B7008BFE07003E
:1065200002FBB700110037000040EB0003FBB7008F
:106530000900370003DBBF008080FB0070B521003D
:106540000080400010407800850A070003DBBF0090
:106550000040E80003FBB70003DBBF00E74F50003B
:10656000F4FF360084FE070002FBB70002DBBF0029
:106570000004E000ECFF3A000040EB0003FBB70032
:106580000500370000C0EB00750A070003DBBF0001
:106590000040E80003FBB70003DBBF00E74F5000FB
:1065A000F8FF360098FF37000040EB006C0A070048
:1065B00095FF370051B0210091407800F0C0B30042
:1065C00000C0600005FBB70005DBBF000040E8002D
:1065D00005FBB70010C0B300610A07000040EB00E4
:1065E00003FBB7000B00370022C2BF006140600010
:1065F0000004E000FCFF32003011800091FB070036
:1066000010C0B300560A070003DBBF000040E800DB
:1066100003FBB70031B021009140780005DBBF00DB
:1066200080CF5000F0FF390077FF370005DBBF0057
:106630002913070010C0B300490A070072FF370092
:106640000040EB00460A07006FFF37000080FA00A9
:10665000000006000400FA000CC8BF000080FB0028
:10666000100798001E009000F80F5000170032002D
:106670001E009000F80F50000A003C001E00900021
:10668000E10F5000380032001E009000E50F50006E
:106690004F0032001E0090000000E00011003200A8
:1066A0006E0037001E009000FA0F50006D0032009F
:1066B0001E009000FA0F5000060035001E009000EA
:1066C000FC0F500067003200640037000BC8A800C0
:1066D000640037009D0007000040EB00370A070008
:1066E0006000370080408000E10F500005003A0054
:1066F00010C0B300310A07002E0107005B0007003D
:106700001400370020C0B3002C0A0700804080002E
:1067100088F4070030C0B300280A07000000EB002F
:1067200060E0880007003700220107004F000700E3
:1067300000C2B3000A0A070060E080000000E80021
:1067400060E088008140800060E08000808F500021
:10675000F5FF3E00D0C0B300010A0700A0C0B3009F
:10676000FF0907003F00370040C0B300130A0700CD
:10677000704080006FF40700704080004B010700FC
:106780000EFCB7000EDCBF000004E00003003A007E
:1067900060C0B300090A0700080037000EDCBF0024
:1067A000E14F500003003A0070C0B300030A070035
:1067B00002003700805B2F0089080700D0C0B300BB
:1067C000E7090700A0C0B300E5090700250037006E
:1067D00070408000000F78001E0078000000E0008C
:1067E000040032001E007800E10F50000400320067
:1067F00017003700505C2F008F0807001900370082
:10680000305F2F008C080700EA0007000004E0005A
:1068100004003A0011DCBF0046F4070000C2B300D8
:10682000CF09070022C2BF00614060000004E00001
:10683000F5FF3200301180000EFCB700D0C0B3006D
:10684000C7090700A0C0B300C5090700050037004D
:1068500070C1B300D90907000200370080C1B3003E
:10686000D60907000080FA00000006000400FA00C4
:10687000004F78001E80FB00100798009E009000DB
:10688000E28F50001D0032001E009000E20F500009
:1068900007003C009E0090000100E0000F00320065
:1068A0001E009000E10F500011003200230037005D
:1068B0009E009000E48F50001A0032001E009000ED
:1068C000E40F500012003500F00F20009E009000F1
:1068D000808F5000160032001800370011DCBF0016
:1068E00014F4070000C2B3009D090700150037002B
:1068F000F0622F003A0807001200370011DCBF00D9
:106900000CF4070090642F00350807000D003700D5
:1069100011DCBF0007F4070040662F0030080700B5
:1069200008003700805B2F002D08070005003700A6
:10693000E0672F002A0807000200370070682F0068
:10694000270807000080FA00000006000000FA0097
:10695000C922A800C902A900CB02A900CB22A90024
:106960000080FA00000006000400FA000040EB007E
:106970002E0107000004E000030032002000200088
:10698000100798000E003700CBC2BF000080FB004C
:106990000000D10061406000004F780010C0B300DB
:1069A000220107000004E000030032002000200064
:1069B00010079800020037001E80FB0010079800A7
:1069C0001E0090000080FA00000006000600FA0099
:1069D0000040EB00204798000040EB001047980073
:1069E000CBC2BF000080FB000000D100614060000E
:1069F0006141600001C1210091407800E0CFB30007
:106A000000C060000240700010FCB70010DCBF0046
:106A1000614060000004E00003003200100020002C
:106A2000200798006000370010C0B300FF00070087
:106A30000004E0000300320041002000210798001C
:106A4000590037000040EB0030479800190037002C
:106A50001E4090000080FB000000D100104798000D
:106A6000C1FF0700004F780020C0B3009E4F100008
:106A700003003A0041002000210798004A00370037
:106A800010C0B3009E4F100007003A009E409000D7
:106A900000C8B30000C04000104798002E4090008E
:106AA0000004A200204798003E4090000040E8000B
:106AB000304798003E409000E74F5000E4FF36001A
:106AC0001E40900011FCB700A7FF0700004F7800A0
:106AD00021C0B3009ECF100003003A004000200008
:106AE00020079800300037009E40780061C06000A9
:106AF0006141600021C1210091407800E0CFB300E6
:106B000000C060000240700012FCB70012DCBF0041
:106B100061406000804078002E40900080CF50009F
:106B200004003A00125CA800200020002007980012
:106B30001D003700125CA9008BFF0700004F780092
:106B400021C0B3009ECF100003003A004000200097
:106B500020079800140037009E40780061C0600054
:106B6000614060000041400021C121009140780057
:106B7000D0CFB30000C060000240700012FCB7002C
:106B8000C902A90012DCBF00624060000004E000FE
:106B900003003A0030002000200798000200370070
:106BA0008000EB00210798002E0090000080FA0082
:106BB000000006000200FA0000C0EB00004F780061
:106BC000C922A800C902A8000040EB0010479800A5
:106BD00010003700CBC2BF00614060000004E0003D
:106BE00007003A0079FF0700004F78001E04E0001C
:106BF0000B00320040C0B3009E4F1000080032006E
:106C000050C0B30082F307001E4090000040E8002F
:106C1000104798001E409000E14F4000EDFF3A0001
:106C2000C902A9001E80FB000080FA0000000600D7
:106C30000400FA00004F780010C0B3007B0007008A
:106C40000004E0000300320020002000100798003C
:106C5000130037009E40780061C060006140600012
:106C600000414000912C200091407800D0CFB3002B
:106C700000C0600002407000C9E2B7000040EB00B5
:106C80006A0007000004E00003003200200020003A
:106C900010079800020037008000EB0011079800F1
:106CA0001E0090000080FA00000006000800FA00B4
:106CB000404798000040EB0020479800C902A90017
:106CC000CB02A900C0C3B30051F30700CB22A90037
:106CD000C922A900C902A80010C0B3004CF30700E4
:106CE0000040EB00510007000004E0000300320008
:106CF0004000200030079800490037000000EB00FA
:106D0000000F78001C0037004E4090000080FB0010
:106D1000610060000004E0000B00320010C0B3000E
:106D2000C3FF07000004E000030032004000200021
:106D3000300798003A0037002E4090000004A2006F
:106D400020479800070037000040EB00B8FF07001D
:106D50000004E000030032004000200030079800EB
:106D60002F0037004E4090000080FB000000D10053
:106D7000404798001E0FE800700020009E0F100092
:106D8000E1FF36002E4090000004A200204798004A
:106D90002E409000A6FF07000004E0000300320030
:106DA00040002000300798001D003700C922A800CD
:106DB000CB22A90010C0B3001C0007000004E000B3
:106DC0000300320040002000300798001400370014
:106DD000E5FE0700E24F500003003A0040002000AB
:106DE000300798000E003700DFFE07000080FB0030
:106DF000000F7800200020009E0F100003003A00D2
:106E0000400020003007980005003700C902A900A3
:106E1000CB02A9001E0078000080FB00300798001C
:106E20003E0090000080FA00000006000600FA0014
:106E3000204798000080EB00000F7800CBC2BF0015
:106E400061406000804078002E40900080CF50006C
:106E500003003A000000EB0020079800050037000F
:106E60001E0FE9001E00E000F4FF3A0010002000B1
:106E7000200798002E0090000080FA000000060015
:106E80001400FA00881F7800C0DF8000E20F500075
:106E90000B003A0011E1A900A16C2000914078009C
:106EA00000CEB30000C06000CAE6B700202B2F0060
:106EB000E10607000000EB00C0DF8800910037000A
:106EC000E02B2F00DC060700F02E2F00C406070081
:106ED0002203200001FA20004000200037050700AF
:106EE0003007980020302F00BD0607003E009000BC
:106EF000E30F500007003E00D0302F00CE06070001
:106F0000E00320002007980010A1A8001081A8002D
:106F10001B0037003E009000FE0F500007003E00AF
:106F200010312F00C4060700A00F20002007980092
:106F300010A1A8001081A90011003700BE00900028
:106F4000400F2000808F500007003E0040312F008E
:106F5000B9060700007D20002007980010A1A900B5
:106F60001081A8000600370060312F00B20607002C
:106F700000E823002007980010A1A9001081A900B3
:106F80002E0090003E019000110009000280D80000
:106F90000000E9005007980080312F00900607009C
:106FA0005E0090001F070700D0C0B300EC07070089
:106FB000A0C0B300EA070700D0312F008806070001
:106FC000220320003106200020002000FB040700DF
:106FD000000478006140B9004FEA0700000F9800F4
:106FE000110F98000800E00007003D00020020009B
:106FF000037824000E0890009E08900072EA0700B3
:10700000000F9800110F98000E0890009E08900045
:10701000008FBE0002002000832C24001E00BE0052
:10702000C6EA0700008FBE005E009000CF80DE0041
:1070300039EA070060079800710798005E00900029
:107040000000E00007003D0002002000037824005B
:107050006E009000FE0090005BEA07006007980059
:10706000710798001E01BE006E009000FE009000A7
:10707000F4EA070027EB070040079800A16C200006
:107080009140780000CEB30000C060006041B300C2
