:020000040000FA
:100000000002040000000000B8780000B87800008A
:10001000B8780000B8780000B8780000B878000020
:10002000B8780000B8780000B8780000B878000010
:10003000B8780000B8780000B8780000B878000000
:10004000B8780000B8780000B8780000B8780000F0
:10005000B8780000B8780000B8780000B8780000E0
:10006000B8780000B8780000B8780000B8780000D0
:10007000B8780000B8780000B8780000B8780000C0
:10008000B8780000B8780000B8780000B8780000B0
:10009000B8780000B8780000B8780000B8780000A0
:1000A000B8780000B8780000B8780000B878000090
:1000B000B8780000B8780000B8780000B878000080
:1000C000B8780000B8780000B8780000B878000070
:1000D000B8780000B8780000B8780000B878000060
:1000E000B8780000B8780000B8780000B878000050
:1000F000B8780000B8780000B8780000B878000040
:10010000B8780000B8780000B8780000B87800002F
:10011000B8780000B8780000B8780000B87800001F
:10012000B8780000B8780000B8780000B87800000F
:10013000B8780000B8780000B8780000B8780000FF
:10014000B8780000B8780000B8780000B8780000EF
:10015000B8780000B8780000B8780000B8780000DF
:10016000B8780000B8780000B8780000B8780000CF
:10017000B8780000B8780000B8780000B8780000BF
:10018000B8780000B8780000B8780000B8780000AF
:10019000B8780000B8780000B8780000B87800009F
:1001A000B8780000B8780000B8780000B87800008F
:1001B000B8780000B8780000B8780000B87800007F
:1001C000B8780000B8780000B8780000B87800006F
:1001D000B8780000B8780000B8780000B87800005F
:1001E000B8780000B8780000B8780000B87800004F
:1001F000B8780000B8780000B8780000B87800003F
:10020000FFFFFF00FFFFFF00B8780000B878000094
:10021000B8780000B8780000B8780000B87800001E
:10022000B8780000B8780000B8780000B87800000E
:10023000B8780000B8780000B8780000B8780000FE
:10024000B8780000B8780000B8780000B8780000EE
:10025000B8780000B8780000B8780000B8780000DE
:10026000B8780000B8780000B8780000B8780000CE
:10027000B8780000B8780000B8780000B8780000BE
:10028000B8780000B8780000B8780000B8780000AE
:10029000B8780000B8780000B8780000B87800009E
:1002A000B8780000B8780000B8780000B87800008E
:1002B000B8780000B8780000B8780000B87800007E
:1002C000B8780000B8780000B8780000B87800006E
:1002D000B8780000B8780000B8780000B87800005E
:1002E000B8780000B8780000B8780000B87800004E
:1002F000B8780000B8780000B8780000B87800003E
:10030000B8780000B8780000B8780000B87800002D
:10031000B8780000B8780000B8780000B87800001D
:10032000B8780000B8780000B8780000B87800000D
:10033000B8780000B8780000B8780000B8780000FD
:10034000B8780000B8780000B8780000B8780000ED
:10035000B8780000B8780000B8780000B8780000DD
:10036000B8780000B8780000B8780000B8780000CD
:10037000B8780000B8780000B8780000B8780000BD
:10038000B8780000B8780000B8780000B8780000AD
:10039000B8780000B8780000B8780000B87800009D
:1003A000B8780000B8780000B8780000B87800008D
:1003B000B8780000B8780000B8780000B87800007D
:1003C000B8780000B8780000B8780000B87800006D
:1003D000B8780000B8780000B8780000B87800005D
:1003E000B8780000B8780000B8780000B87800004D
:1003F000B8780000B8780000B8780000B87800003D
:10040000CFCB2100007F2200000188000000000007
:100410000C000700C03B260001002000110007006F
:10042000000020000000E000020032000000020096
:10043000000000008C750200000000000040DA009F
:100440000000FE004440A900C0A021000000E00020
:100450000300320000002000A00188004440A800F2
:100460000000060091018800800078000000EB0089
:1004700015003700E280400032A0B4009101BA00BC
:10048000E280400032A0B4009102BA00E280400055
:1004900032A0B4000002EB00472BDE00F507B200EB
:1004A000602CE10004003A000059EB008301E900F0
:1004B000FDFF3E00040037006128E100010032002A
:1004C0000082EB00040007001101BA000200E00006
:1004D000E8FF3A00000006003159BA008301E90044
:1004E0000C0032002159BA008301E90008003200F3
:1004F0000400E00003003A00E280400032A0B400B3
:10050000F5FF370011D9BA008301E900FAFF3A007C
:100510008100E800E180400032A0B4000000060045
:10052000889FBE008A9FBE00010578000100E000A0
:100530000400350008003C000000E000200032000C
:100540000500370060001000E080180002003B004A
:1005500001F02C001A0037000004BE006011B80042
:100560006B0920000982CF00020039000882CF0009
:100570000441B000694252000E00320008003B0006
:1005800082817100610164008904D1000884D30074
:100590008B05E8000442E800F9FF3A000500370047
:1005A0000804440089844C008B05E9000442E900FA
:1005B000FBFF3A00250107000AF0A70001F0A000A8
:1005C0004F05BE004F04BE000000060003F0A2006D
:1005D000889FBE008A9FBE008C1F780041010700E3
:1005E000480133006450E1004F0032006420E10014
:1005F0005200320003826C0007003B000905D00066
:100600000306D000820F54000C065D000200390082
:1006100002003200890178000306780085825500C7
:1006200004003D000003FD008103FD008502EA0097
:100630008B854200840F720002003B0060001000B6
:10064000E08018006011B8000005EB007A28E10096
:100650000A00390006007800C75DDD00F707B20028
:10066000878075002D003700828171000A017800B3
:10067000610560008180D1000080D3008502E9001F
:10068000F9FF3B00060440008784480002003B005D
:1006900060041400E0841C000988A30007003200F5
:1006A0008A81710082817100610164008904D10036
:1006B0000884D3008B05E800170037000978A300F1
:1006C00013003A000B00E000130034008B05E90032
:1006D0000804440089844C000A4474000978A3008B
:1006E0000D003A000B00E000070034008B05E90024
:1006F0000804440089844C0001003A000B002000EB
:100700000978A300F7FF32000001EB000200370078
:10071000828171000A017800CC0007000CF0A7006C
:1007200001F0A000000137006420E10002003A005F
:10073000838F6C00000133000801BE000200BE0080
:10074000F9003700889FBE008A9FBE008C1F78008A
:10075000E4000700EB00330003866C006450E10006
:100760002E0032006420E100330032006150E100CD
:100770002F0032006120E1003100320085855500F4
:10078000EB07B00009002000080420000500370036
:100790000804440089844C000A0031000603430029
:1007A00087834B000001530081815B00F8FF330019
:1007B0000203BE000800A0000804440089844C0025
:1007C000F6FF3900C639DD008301730001003200F5
:1007D000130020008904D1000884D3000998A300E5
:1007E000050032000800A7000300A0008904D10022
:1007F0000884D3008B05E8008904D1000884D30065
:100800000001EB000281D2009000070001F0A1007E
:100810000CF0A70001F0A000C30037006420E10045
:10082000C50032000801BE000200BE00F7FF37001D
:100830006120E100C00032006000B800F3FF370023
:100840000000200001F82700F0FF3700889FBE005D
:100850008A9FBE008C1F7800A2000700A900330009
:1008600003866C006450E100240032006420E10043
:10087000270032006150E100220032006120E100D7
:10088000210032008B854200EB07B1000134B80033
:10089000003AB8000804420089844A00013AB800CE
:1008A0000030B8008880400009014A00040033008D
:1008B0000000400081804800020149008B05E900EA
:1008C000C909DD008301700001003200130020001F
:1008D000C814DE004814DD004709DE001200B20033
:1008E000C808DE00088470005800070001F0A1006D
:1008F0000CF0A70001F0A0008B0037006120E100A0
:100900008D0032000801BE000200BE00F7FF370074
:100910006150E100FCFF3A00870037000001BE0093
:10092000880007000470A70003F0A10003F8A300EB
:1009300013003A006509B1001000320009003500CB
:100940006928E100020035000100280000000500D0
:1009500000004000818048008502E900FCFF3A0069
:1009600000000600F88F4200050035008100D1002C
:100970000080D3008502E800FCFF3A00000006007A
:100980008000EB00000005006022B8000602200095
:100990000000D0008180D2000482D2008582D20083
:1009A0000000A0000202520083825A0003003100BE
:1009B0000202420083824A000000A1000603E9000F
:1009C000F3FF3A00000006000001BE005D000700D2
:1009D0000470A70003F0A1006509B1001600320001
:1009E0000D0035006828E10006003500F0FF2F00FB
:1009F000F1FF27000300E00013003B000100280086
:100A00000000050000004000818048008502E900E8
:100A1000FCFF3A0008003700F88F420002003C005B
:100A20008000EB00000005008100D1000080D300B1
:100A30008502E800FCFF3A000300E00002003B00F2
:100A400060001000E0801800000006008100200017
:100A5000618055000B003D000B00200061FE2F005F
:100A60000100E1001D003400828171006101640019
:100A70008904D1000884D3000000E800FAFF3A009E
:100A8000710020006100640003007000020060003B
:100A90000900320061044400E0844C000988A5008C
:100AA000050032008B05E8006808E10002003A000A
:100AB0008904D1000884D300F20F20000258E1001D
:100AC00005003D00C75DDD00F907B20089807500B3
:100AD00008007800000006000BF827008B00780063
:100AE000000005000004BE00160007000003BE0061
:100AF0000405BE000200BE0012000700844F75000E
:100B0000000006000200BE006450E100050036004F
:100B10006420E100020036000968A30001003A00E9
:100B20000800BE000160A0004F0678004F05BE001F
:100B30004F04BE0000000600F0FF2F00F1FF270069
:100B4000F9FF3700C70ADE00F107B200F50FB20067
:100B500008003200E1CF4200020032000170A00024
:100B600024000500810F7000010032000408050018
:100B700044000500810F700002003A0014000500D7
:100B80008502E9000000400081C04800FCFF3B00F6
:100B90000170A000240005005245000041440000FF
:100BA000590D00000A0000005245000041440000B9
:100BB0003A2000000052000045410000442000009F
:100BC000002000004259000054450000533A000044
:100BD0000D0A000000570000524900005445000073
:100BE0003A20000000200000544900004D4500005C
:100BF00053000000414300004B0000004E41000044
:100C0000434B000000490000324300002053000025
:100C1000544100005254000020420000495400009A
:100C20000D0A00000049000032430000205300007C
:100C3000544F00005020000042490000540D0000B5
:100C40000A00000043530000204500004E41000010
:100C5000424C0000454400000D0A00000043000023
:100C6000532000004449000053410000424C000062
:100C7000454400000D0A00000054000068690000AF
:100C8000732000006D6F000064650000207200009A
:100C90006571000075690000726500007320000036
:100CA000616E00002061000064610000707400004B
:100CB000657200000D0A000000520000454100006E
:100CC0004420000042490000543A00002000000087
:100CD0004441000054410000204900004E500000F3
:100CE000555400002C2000005354000041540000D3
:100CF000453A000020000000202A00007069000032
:100D00006E20000069730000206E00006F77000005
:100D100020480000695A00000D0A00000020000071
:100D2000434C00004F4300004B200000544900009A
:100D3000434B0000530D00000A000000434C00002C
:100D40004F4300004B2C0000203100000D0A000032
:100D5000004300004C4F0000434B00002C200000DB
:100D6000300D00000A000000444100005441000022
:100D7000204F00005554000050550000542C000036
:100D8000203100000D0A0000004400004154000022
:100D9000412000004F550000545000005554000001
:100DA0002C200000300D00000A000000504F000011
:100DB00057450000522000005355000050500000DD
:100DC0004C49000045530000204F00004E0D00002C
:100DD0000A000000504F000057450000522000005C
:100DE00053550000505000004C490000455300008E
:100DF000204F0000464600000D0A0000005500008C
:100E00006E6B00006E6F0000776E0000206D0000BA
:100E100061630000726F00002C20000074720000FB
:100E2000792000003F2000006F72000020280000A1
:100E300030290000206600006F720000206800006A
:100E4000656C0000700D00000A000000436F000098
:100E50006D6D0000616E0000642000006E6F000088
:100E600074200000757300006564000020690000B4
:100E70006E2000007468000069730000206D00009F
:100E80006F640000650D00000A0000002A200000C9
:100E9000537900006E740000617800002065000046
:100EA000727200006F7200002C2000007479000044
:100EB00070650000203F0000206600006F72000097
:100EC00020680000656C0000700D00000A00000042
:100ED0002A20000054450000524D0000494E0000F9
:100EE000414C0000204200005546000046450000ED
:100EF000522000004F56000045520000464C0000B2
:100F00004F5700002C2000005452000059200000D0
:100F1000534D0000414C00004C45000052200000A1
:100F200053450000474D0000454E0000545300005B
:100F30000D0A0000004E00006F2000006D6F0000E1
:100F40006465000020730000657400002C20000020
:100F50004D200000666F0000722000006D6F0000E1
:100F6000646500000D0A00000057000041520000B7
:100F70004E4900004E4700003A2000007069000012
:100F80006E730000206E00006F740000206F000080
:100F9000706500006E20000064720000616900004E
:100FA0006E20000028480000695A0000290D00004A
:100FB0000A00000045720000726F0000722C0000F1
:100FC0002074000072790000206100006761000059
:100FD000696E0000203E000000530000656C0000B8
:100FE00065630000742000006F75000074700000DD
:100FF000757400002074000079700000653A0000EC
:101000000D0A0000203100002E2000004F7000006B
:10101000656E00002064000072610000696E0000CF
:1010200020280000483D0000486900002D5A0000BB
:101030002C2000004C3D0000474E000044290000D9
:101040000D0A0000203200002E2000004E6F00002C
:10105000726D0000616C000020280000483D000017
:10106000332E0000335600002C2000004C3D0000C1
:10107000474E0000442900000D0A0000004D00000A
:101080006F64000065200000736500006C6500005F
:1010900063740000656400000D0A00000020000079
:1010A000312E000020480000455800000D0A0000C5
:1010B000203200002E20000044450000430D0000B7
:1010C0000A200000332E000020420000494E00009C
:1010D0000D0A0000203400002E20000052410000C4
:1010E000570D00000A000000446900007370000002
:1010F0006C61000079200000666F0000726D0000D6
:101100006174000020730000657400000D0A000087
:1011100000200000312E000020500000756C0000FF
:101120006C2D000075700000732000006F660000D9
:10113000660D00000A200000322E00002050000042
:10114000756C00006C2D00007570000073200000AD
:101150006F6E00000D0A000000500000756C00006A
:101160006C2D000075700000207200006573000097
:1011700069730000746F000072730000204F00005C
:10118000464600000D0A000000500000756C00008B
:101190006C2D000075700000207200006573000067
:1011A00069730000746F000072730000204F00002C
:1011B0004E0D00000A000000566F00006C74000025
:1011C00061670000652000006D6F00006E6900001F
:1011D000746F0000727300003A20000000200000CD
:1011E000312E0000204D0000534200002066000018
:1011F00069720000737400000D0A000020320000C4
:101200002E2000004C5300004220000066690000C0
:1012100072730000740D00000A0000004D530000BE
:101220004220000073650000743A0000204D000069
:101230004F53000054200000736900006720000035
:10124000626900007420000066690000727300008B
:10125000740D00000A0000004C5300004220000002
:1012600073650000743A0000204C00004541000006
:1012700053540000207300006967000020620000E2
:101280006974000020660000697200007374000039
:101290000D0A0000004100005558000020630000C6
:1012A0006F6D00006D6100006E640000732000002F
:1012B000636F00006E740000726F00006C0D000020
:1012C0000A200000312E0000204100005558000087
:1012D000202800006465000066610000756C000055
:1012E000742900000D0A0000203200002E200000AA
:1012F000435300002F5400004D5300000D0A00001E
:10130000006100002F4100002F400000206300001A
:101310006F6E0000747200006F6C0000732000009C
:101320004155000058200000706900006E0D00005B
:101330000A000000612F0000412F00004020000043
:10134000636F00006E740000726F00006C73000029
:1013500020430000532F0000544D00005320000094
:10136000706900006E0D00000A000000416400007A
:101370006A75000073740000207900006F7500002A
:101380007220000074650000726D0000696E00003C
:10139000616C0000206100006E640000207000009D
:1013A000726500007373000020730000706100001C
:1013B00063650000207400006F200000636F000070
:1013C0006E740000696E0000756500000D0A000073
:1013D0000053000065740000207300006572000077
:1013E000696100006C200000706F000072740000E2
:1013F0002073000070650000656400003A20000062
:101400002862000070730000290D00000A2000000F
:10141000312E000020330000303000000D0A0000A3
:10142000203200002E200000313200003030000059
:101430000D0A0000203300002E200000323400008E
:10144000303000000D0A0000203400002E20000083
:1014500034380000303000000D0A00002035000054
:101460002E20000039360000303000000D0A000048
:10147000203600002E2000003139000032300000FC
:10148000300D00000A200000372E0000203300003D
:1014900038340000303000000D0A00002038000011
:1014A0002E2000003537000036300000300D0000DF
:1014B0000A200000392E00002031000031350000E4
:1014C00032300000300D00000A000000436C0000C4
:1014D0006F6300006B200000706F00006C61000003
:1014E00072690000747900003A0D00000A200000C3
:1014F000312E000020490000646C000065200000CF
:101500006C6F0000772000002A6400006566000010
:10151000617500006C7400000D0A000020320000AC
:101520002E200000496400006C6500002068000067
:1015300069670000680D00000A0000004F75000098
:101540007470000075740000206300006C6F000070
:10155000636B00002065000064670000653A0000CE
:101560000D0A0000203100002E2000004964000018
:101570006C650000207400006F20000061630000B3
:1015800074690000766500000D0A0000203200003A
:101590002E200000416300007469000076650000A1
:1015A000207400006F200000696400006C6500007A
:1015B000202A00006465000066610000756C000070
:1015C000740D00000A000000496E000070750000F4
:1015D00074200000736100006D7000006C650000F5
:1015E0002070000068610000736500003A0D000083
:1015F0000A200000312E0000204D00006964000028
:10160000646C0000652000002A640000656600002C
:10161000617500006C7400000D0A000020320000AB
:101620002E200000456E0000640D00000A0000003E
:1016300053650000742000007370000065650000B1
:10164000643A00000D0A0000203100002E20000046
:101650007E350000304B0000487A00000D0A000083
:10166000203200002E2000007E31000030300000CB
:101670004B4800007A0D00000A200000332E0000C5
:10168000207E000034300000304B0000487A00001B
:101690000D0A0000004F0000706500006E20000081
:1016A00064720000616900006E2000006F75000028
:1016B000747000007574000073200000284800005A
:1016C0003D480000692D00005A2C0000204C00000D
:1016D0003D4700004E440000290D00000A000000B4
:1016E0004E6F0000726D0000616C0000206F000002
:1016F00075740000707500007473000020280000ED
:10170000483D0000562B00002C2000004C3D0000FE
:10171000474E0000442900000D0A00000050000060
:10172000756C00006C2D00007570000020720000C8
:101730006573000069730000746F0000727300002D
:10174000206E00006F740000206100006C6C0000CF
:101750006F770000656400000D0A00000042000081
:10176000697400006F720000646500007220000060
:10177000636F00006E66000069670000757200000C
:1017800061740000696F00006E2000006E6F000041
:1017900074200000616C00006C6F00007765000031
:1017A000640D00000A0000004D4500004E55000089
:1017B000530000003F200000486500006C700000EE
:1017C000004900002053000074610000747500009F
:1017D00073200000696E0000666F0000004D00007D
:1017E0002042000075730000206D00006F6400004F
:1017F000650000004220000054650000726D00008A
:10180000696E0000616C00002073000070650000CC
:1018100065640000004F0000204400006174000077
:101820006120000064690000737000006C610000BA
:1018300079200000666F0000726D00006174000086
:10184000005600002043000068650000636B000044
:101850002073000075700000706C0000792000009B
:10186000766F00006C740000616700006573000013
:1018700000460000204600007265000071750000FF
:10188000656E000063790000206300006F75000042
:101890006E740000206F00006E20000041550000B3
:1018A00058000000472000004672000065710000EB
:1018B000756500006E630000792000006765000018
:1018C0006E65000072610000746F0000722F0000EE
:1018D000505700004D2000006F6E000020410000B6
:1018E00055580000004300002041000055580000FA
:1018F00020700000696E000020610000737300001A
:10190000696700006E6D0000656E000074000000E5
:101910004C20000042690000742000006F7200003B
:101920006465000072000000502000005075000047
:101930006C6C000075700000207200006573000080
:1019400069730000746F000072730000003D0000B6
:1019500020480000455800002F4400004543000087
:101960002F420000494E0000206300006F6E00000F
:10197000766500007274000065720000007E000051
:1019800020530000656C00006620000074650000B4
:1019900073740000002300002052000065730000F3
:1019A0006574000000530000594E000054410000CF
:1019B00058000000412F0000612F0000402000006F
:1019C00041550000582000006F7500007470000041
:1019D00075740000207400006F670000676C0000E1
:1019E00065200000482F00004C2F000072650000A9
:1019F00061640000005700002F77000020500000B5
:101A00006F770000657200002073000075700000A1
:101A1000706C000079200000746F000067670000A0
:101A20006C650000206F00006E2F00006F660000E4
:101A300066000000442000004D6500006173000056
:101A40007572000065200000766F00006C74000065
:101A500061670000652000006F6E000020410000FB
:101A60004443000020700000726F000062650000B7
:101A7000005B0000202800007B29000020530000AC
:101A80007461000072740000202800007769000073
:101A90007468000020720000656100006429000085
:101AA000005D0000206F0000722000007D2000001B
:101AB000537400006F70000000520000206F00009F
:101AC0007220000072200000526500006164000076
:101AD00020620000797400006500000030620000A0
:101AE0002057000072690000746500002042000069
:101AF000494E00002062000079740000650000007B
:101B000030680000206F0000722000003078000074
:101B10002057000072690000746500002048000032
:101B20004558000020620000797400006500000044
:101B3000302D0000323500003520000057720000C3
:101B40006974000065200000444500004320000047
:101B50006279000074650000002C00002044000041
:101B6000656C0000696D000069740000657200001A
:101B700020280000616C0000736F000020730000DB
:101B8000706100006365000029000000262000004D
:101B90003175000053200000646500006C61000096
:101BA000790000003A2000005265000070650000D6
:101BB0006174000020280000723A0000322C0000FE
:101BC0002030000078300000613A0000342C000022
:101BD000202600003A320000302C0000205E000079
:101BE0003A3200002C20000065740000632E0000D3
:101BF0002900000028230000292000005275000061
:101C00006E2000006D610000637200006F2C000008
:101C10002028000030290000206600006F720000BC
:101C2000206D000061630000726F0000206C0000F6
:101C3000697300007400000052410000572000004A
:101C400042550000532000004F5000004552000054
:101C500041540000494F00004E530000002F000087
:101C60005C200000436C00006F6300006B200000EC
:101C7000482F00004C0000002D2F00005F200000C6
:101C80004461000074610000204800002F4C0000F7
:101C9000002E00002052000065610000642000005A
:101CA0006461000074610000206900006E70000033
:101CB0007574000020700000696E00002073000041
:101CC0007461000074650000005E000020430000A5
:101CD0006C6F0000636B00002074000069630000FB
:101CE0006B000000212000005265000061640000CC
:101CF000206200006974000000000000202C000039
:101D00002000000020570000524900005445000008
:101D10002042000049540000285300002920000000
:101D2000280000002900000057520000495400001C
:101D30004520000042490000543A00002000000005
:101D4000202A00006E650000787400002063000007
:101D50006C6F0000636B0000202800005E2900000B
:101D600020770000696C00006C200000616C0000AE
:101D7000736F00002068000061760000652000009D
:101D8000746800006973000020760000616C000038
:101D90007565000000310000574900005245000001
:101DA000207200006F750000746900006E6500000D
:101DB00073200000436F000070790000726900001A
:101DC00067680000742000002843000029200000FC
:101DD0003230000030300000204D00006963000008
:101DE00068610000656C0000205000006561000023
:101DF0007263000065000000526500006C65000021
:101E00006173000065640000207500006E640000CE
:101E100065720000204700004E550000204700007A
:101E2000656E000065720000616C000020500000CB
:101E3000756200006C690000632000004C690000BE
:101E4000636500006E730000650000004E6F0000C7
:101E5000206400006576000069630000652C0000C6
:101E6000207400007279000020280000414C00001E
:101E7000415200004D290000205300004541000060
:101E800052430000482000006D61000063720000B2
:101E90006F2000006669000072730000740000008B
:101EA000414400004452000045530000532000000C
:101EB0004D410000435200004F200000003A000056
:101EC0002000000020000000203000002E4D000007
:101ED00061630000726F0000206D0000656E0000FD
:101EE000750000004D610000637200006F2000006B
:101EF000202000002020000031570000495200003F
:101F000045200000616400006472000065730000F9
:101F1000730000002E0000000D0A000020200000C9
:101F2000202A0000003100005749000052450000FF
:101F3000205200004F4D0000204300004F4D000094
:101F40004D4100004E440000204D00004143000080
:101F5000524F0000733A00000D0A000020350000C7
:101F6000312E000052450000414400002052000084
:101F70004F4D00002028000030780000333300006F
:101F8000292000002A6600006F7200002073000004
:101F9000696E0000676C0000652000006465000049
:101FA0007669000063650000206200007573000020
:101FB0000D0A000020380000352E00004D410000C1
:101FC0005443000048200000524F00004D20000004
:101FD000283000007835000035290000202A000054
:101FE000666F00006C6C00006F7700006564000095
:101FF0002062000079200000363400006269000091
:1020000074200000616400006472000065730000C9
:10201000730D00000A20000032300000342E000052
:10202000534B000049500000205200004F4D00006B
:1020300020280000307800004343000029200000E1
:102040002A6600006F6C00006C6F0000776500006E
:102050006420000062790000206300006F6D0000C2
:102060006D6100006E6400000D0A00002032000067
:10207000333600002E4100004C410000524D00005C
:10208000205300004541000052430000482000005A
:102090002830000078450000432900000D0A0000A8
:1020A00020320000343000002E5300004541000073
:1020B0005243000048200000524F00004D20000015
:1020C0002830000078460000302900000041000060
:1020D0004C410000524D00002053000045410000DB
:1020E00052430000482000002830000078450000DE
:1020F0004329000000530000454100005243000006
:1021000048200000283000007846000030290000F8
:10211000004400006576000069630000652000004F
:102120004944000073200000617200006520000037
:1021300061760000616900006C610000626C000063
:102140006520000062790000204D0000414300003E
:10215000524F00002C200000736500006520000035
:1021600028300000292E00000052000045410000E8
:1021700044200000524F00004D2000002830000095
:1021800078330000332900003A200000004D0000A1
:102190004154000043480000205200004F4D000011
:1021A00020280000307800003535000029000000AC
:1021B000534B000049500000205200004F4D0000DA
:1021C0002028000030780000434300002900000070
:1021D00042550000532000005245000053450000C6
:1021E00054200000004F00004B000000455200004A
:1021F000524F0000523A0000200000002A53000015
:10220000686F000072740000206F000072200000F0
:102210006E6F000020700000756C00006C2D0000D7
:1022200075700000200000002A4E00006F200000A2
:1022300064650000766900006365000020640000AA
:102240006574000065630000746500006420000090
:102250000028000000440000533100003853000003
:10226000323000002048000069670000682000004C
:102270005072000065730000204400006967000090
:102280002054000068650000726D000000440000EA
:10229000533100003842000032300000205000006E
:1022A000726F00006720000052650000732000007C
:1022B0004469000067200000546800006572000057
:1022C0006D0000004453000031380000323200003D
:1022D00020450000636F00006E200000446900008C
:1022E0006720000054680000657200006D00000067
:1022F0004453000032340000303400002045000018
:10230000636F00006E720000616D000020740000B9
:10231000696D0000652000004368000069700000DE
:10232000004400005332000034330000312000002C
:10233000314B00002045000045500000524F000086
:102340004D000000556E00006B6E00006F770000BE
:102350006E2000006465000076690000636500007F
:102360000031000057300000310000004A540000E6
:1023700041470000534D00003A2000005244000045
:1023800059200000544F000020570000524900001F
:1023900054450000204900004E53000054520000F4
:1023A00055430000544900004F4E000020520000E9
:1023B000454700004953000054450000520000000A
:1023C0004A54000041470000534D00003A200000ED
:1023D0005244000059200000544F000020520000D9
:1023E00045410000442F00005752000049540000AE
:1023F00045200000444100005441000020520000EC
:1024000045470000495300005445000052000000B9
:102410004A54000041470000534D00003A2000009C
:10242000494400004C450000002000002C20000022
:1024300000200000302E00004D610000637200009B
:102440006F2000006D6500006E7500000D0A000031
:10245000203100002E5200006573000065740000FA
:102460002063000068610000696E00000D0A000032
:10247000203200002E500000726F000062650000E4
:102480002063000068610000696E00000D0A000012
:10249000203300002E580000534600005620000054
:1024A000706C000061790000657200002028000057
:1024B00064650000707200006563000061740000D4
:1024C00065640000290D00000A0000004A54000065
:1024D00041470000534D00003A20000052450000E3
:1024E00053450000540000004A54000041470000DA
:1024F000204900004E4900005420000043480000DD
:10250000414900004E0000002044000045560000F4
:1025100049430000452800005329000020490000DD
:102520004E2000004A5400004147000020430000B4
:1025300048410000494E0000002000003A20000001
:10254000005800005346000056200000706C000048
:10255000617900006572000020770000617300005F
:1025600020720000656D00006F7600006564000059
:10257000206900006E200000763200002E3100003D
:102580002C20000069660000207900006F750000B3
:10259000206E000065650000642000006974000082
:1025A000206400006F7700006E6700007261000019
:1025B00064650000207400006F2000007632000087
:1025C0002E3000002E000000497400002773000028
:1025D0002068000075670000652C00002075000071
:1025E000676C0000792C0000206100006E64000020
:1025F0002074000068650000205800005346000069
:1026000056200000666F0000726D000061740000CB
:1026100020690000732000007370000065630000F3
:10262000696100006C6900007A650000642E00009A
:1026300000570000652700006C6C0000206100005E
:1026400064640000206100002072000065610000E9
:102650006C2000005346000056200000706C000003
:102660006179000065720000206900006E200000A2
:102670007468000065200000667500007475000035
:10268000726500002E0000004A540000414700001F
:10269000534D00003A200000004100004C52000061
:1026A000454100004459000020490000444C00000E
:1026B000450000005245000053450000542D000025
:1026C0003E490000444C000045000000285700002F
:1026D000524F00005445000020440000454C0000CB
:1026E00041590000454400002042000049540000C8
:1026F0002920000000490000522D00003E49000042
:10270000444C000045000000445200002D3E0000F3
:10271000494400004C450000005500004E4B0000AD
:102720004E4F0000574E000020530000544100005F
:1027300054450000004A0000544100004753000087
:102740004D3A000020570000415200004E49000061
:102750004E470000204F000055540000204F00005D
:1027600046200000535900004E4300000052000074
:10277000455300004554000000490000444C00004F
:10278000452D00003E4400006174000061200000FF
:1027900052650000676900007374000065720000F4
:1027A00000490000444C0000452D00003E49000057
:1027B0006E7300007472000075630000746900009D
:1027C0006F6E000020520000656700006973000012
:1027D000746500007220000028440000454C000091
:1027E0004159000045440000204F00004E450000C4
:1027F0002042000049540000204600004F520000D3
:10280000205400004D53000029000000554E0000E8
:102810004B4E00002053000054410000544500007E
:102820002C200000545200005920000052450000A6
:10283000534500005420000028310000290000000A
:102840004E4F0000544500003A200000575200004F
:102850004F54000045200000444500004C4100005A
:102860005945000044200000424900005400000087
:102870002D700000200000002D66000020000000E8
:102880002A42000079740000657300002064000093
:10289000726F000070700000656400002A00000084
:1028A00046410000494C0000454400002C20000037
:1028B0004E4F000020440000415400004100000041
:1028C000202C000020000000554100005254000060
:1028D000204C0000495600004520000044490000FB
:1028E000535000004C410000592C0000207D000096
:1028F000205400004F200000535400004F500000AF
:10290000004C0000495600004520000044490000EA
:10291000535000004C410000592000005354000067
:102920004F500000504500004400000020310000DE
:10293000302E00002033000031320000353000001E
:10294000202800004D4900004449000029000000F3
:10295000446100007461000020620000697400009E
:1029600073200000616E00006420000070610000B0
:1029700072690000747900003A0D00000A2000001E
:10298000312E0000203800002C2000004E4F0000A7
:102990004E450000202A00006465000066610000CA
:1029A000756C0000742000000D0A00002032000049
:1029B0002E200000382C0000204500005645000065
:1029C0004E2000000D0A0000203300002E200000E1
:1029D000382C0000204F000044440000200D00006F
:1029E0000A200000342E0000203900002C200000B6
:1029F0004E4F00004E45000000530000746F000071
:102A00007020000062690000747300003A0D00003D
:102A10000A200000312E000020310000202A000092
:102A20006465000066610000756C0000740D0000B4
:102A30000A200000322E0000203200000052000068
:102A40006563000065690000766500002070000085
:102A50006F6C00006172000069740000793A000038
:102A60000D0A0000203100002E2000004964000003
:102A70006C65000020310000202A00006465000021
:102A800066610000756C0000740D00000A200000F3
:102A9000322E000020490000646C00006520000018
:102AA00030000000203000002E4D00006163000067
:102AB000726F0000206D0000656E0000750D000053
:102AC0000A200000312E000054720000616E0000E8
:102AD0007370000061720000656E000074200000D9
:102AE000554100005254000020620000726900004D
:102AF00064670000650D00000A200000322E00000F
:102B0000204C00006976000065200000554100005F
:102B100052540000206D00006F6E000069740000C8
:102B20006F7200000D0A0000203300002E550000D7
:102B300041520000542000006272000069640000ED
:102B400067650000207700006974000068200000BD
:102B5000666C00006F770000206300006F6E00005D
:102B6000747200006F6C00000055000041520000BC
:102B70005420000062720000696400006765000074
:102B80002E200000537000006163000065200000EB
:102B9000636F00006E740000696E000075650000D0
:102BA000732C0000206100006E7900007468000042
:102BB000696E000067200000656C0000736500000E
:102BC0002065000078690000747300002E0000008A
:102BD000526500007365000074200000746F0000EF
:102BE0002065000078690000742E0000005200008B
:102BF0006177000020550000415200005420000081
:102C0000696E000070750000742E000020530000F3
:102C10007061000063650000207400006F200000F8
:102C200065780000697400002E0000004152000029
:102C30005431000000000000434D0000442000001B
:102C4000004400004154000020000000202C00003F
:102C50002000000052530000204C00004F5700009D
:102C60002C200000434F00004D4D0000414E00005D
:102C7000442000004D4F0000444500000052000079
:102C80005320000048490000474800002C20000065
:102C90004441000054410000204D00004F4400001A
:102CA000450000004C4300004420000074790000FF
:102CB000706500003A0D00000A200000312E00006F
:102CC0002048000044340000343700003830000051
:102CD0002028000075730000696E00006720000066
:102CE0005043000046380000353700003420000013
:102CF000494F00002065000078700000616E000000
:102D0000646500007229000000200000302E0000E1
:102D10004D610000637200006F2000006D650000CF
:102D20006E7500000D0A0000203100002E4C0000DE
:102D300043440000205200006573000065740000E9
:102D40000D0A0000203200002E4900006E690000CC
:102D5000742000004C430000440D00000A200000D5
:102D6000332E0000436C00006561000072200000FB
:102D70004C430000440D00000A200000342E0000E7
:102D800043750000727300006F7200002070000035
:102D90006F73000069740000696F00006E2000000E
:102DA000657800003A280000343A0000302900001D
:102DB0000D0A0000203500002E2800006465000088
:102DC00070720000656300006174000065640000BB
:102DD000290D00000A200000362E00005772000066
:102DE00069740000652000003A6E0000756D0000F7
:102DF00062650000722000007465000073740000BA
:102E0000206E0000756D00006265000072730000A6
:102E100020650000783A0000283600003A380000AB
:102E2000302900000D0A0000203700002E57000056
:102E30007269000074650000203A00006E750000A1
:102E40006D62000065720000207400006573000070
:102E5000742000006368000061720000616300007C
:102E6000746500007273000020650000783A00006D
:102E7000283700003A380000302900000D0A000011
:102E8000203800002E4900006E73000065720000BB
:102E90007420000074650000787400002061000058
:102EA0007420000063750000727300006F720000F0
:102EB000005200004553000045540000004400004B
:102EC00069730000706C000061790000206C0000E4
:102ED000696E0000657300003A0D00000A200000D2
:102EE000312E000020310000200D00000A200000DB
:102EF000322E0000204D0000756C00007469000047
:102F0000706C000065000000494E0000495400004C
:102F1000004300004C4500004152000045440000C1
:102F20000043000055520000534F000052200000A3
:102F30005345000054000000496E00007365000016
:102F4000727400002074000065780000743A00007C
:102F5000004E00006F200000414300004B2C000099
:102F60002063000068650000636B000020610000C2
:102F700064610000707400006572000000000000D1
:102F8000202C000020000000285C00002D2F0000F5
:102F90005F5C000029000000285F00002F2D00006A
:102FA0005C29000000200000302E00004D61000070
:102FB000637200006F2000006D6500006E750000F8
:102FC0000D0A0000203100002E490000534F000080
:102FD00037380000313600002D330000204100005A
:102FE000545200000D0A0000203200002E4900005B
:102FF000534F000037380000313600002D330000F9
:10300000207000006172000073650000206F0000F6
:103010006E6C0000790D00000A00000049530000AA
:103020004F20000037380000313600002D330000FB
:1030300020410000545200002028000052450000AA
:1030400053450000542000006F6E00002043000034
:103050005329000000520000455300004554000071
:103060002048000049470000482C00002043000091
:103070004C4F0000434B0000205400004943000027
:103080004B2C000020520000455300004554000026
:10309000204C00004F57000000490000534F000033
:1030A0002037000038310000362D000033200000AA
:1030B00072650000706C0000792000002875000027
:1030C00073650000732000006375000072720000D9
:1030D000656E0000742000004C5300004220000088
:1030E0007365000074740000696E000067290000B9
:1030F0003A20000000500000726F0000746F000062
:10310000636F00006C3A000020000000736500004F
:1031100072690000616C000000330000207700003D
:10312000697200006500000032200000776900002D
:103130007265000000520000465500000075000056
:103140006E6B00006E6F0000776E00000052000092
:103150006561000064200000747900007065000063
:103160003A200000007400006F200000656E00002F
:103170006400000076610000726900006162000076
:103180006C650000206C0000656E00006774000034
:1031900068000000446100007461000020750000B8
:1031A0006E690000747300003A200000006E000099
:1031B0006F200000696E0000646900006361000018
:1031C000746900006F6E000000440000617400002C
:1031D00061200000756E000069740000206C000022
:1031E000656E00006774000068200000286200001F
:1031F00069740000732900003A20000000000000FC
:103200002A2800004E290000414300004B20000006
:10321000504500004E440000494E000047000000A9
:10322000202C00002000000057410000524E0000FA
:10323000494E0000473A000020480000415200007B
:103240004457000041520000452000004932000070
:10325000432000006973000020620000726F0000CC
:103260006B6500006E2000006F6E0000207400008F
:1032700068690000732000005049000043210000ED
:103280002028000052450000562000004133000075
:1032900029000000536500007420000073700000D6
:1032A00065650000643A00000D0A0000203100004E
:1032B0002E20000031300000304B0000487A000022
:1032C0000D0A0000203200002E20000034300000E3
:1032D000304B0000487A00000D0A00002033000047
:1032E0002E200000314D0000487A00000020000030
:1032F000302E00004D610000637200006F2000005E
:103300006D6500006E7500000D0A000020310000A0
:103310002E37000062690000742000006164000024
:103320006472000065730000732000007365000084
:1033300061720000636800000D0A00002032000086
:103340002E49000032430000207300006E69000027
:1033500066660000657200000053000065610000B1
:1033600072630000686900006E670000203700008B
:103370006269000074200000493200004320000010
:103380006164000064720000657300007320000037
:103390007370000061630000652E0000200D0000C6
:1033A0000A20000020200000466F0000756E00001B
:1033B0006420000064650000766900006365000019
:1033C00073200000617400003A00000020570000E4
:1033D00000200000520000002900000049320000D7
:1033E000432000006275000073200000736E00002F
:1033F0006966000066650000722C00002070000005
:103400007265000073730000206100006E79000097
:10341000206B000065790000207400006F20000020
:103420006578000069740000004900003243000024
:103430003100000044690000736300006F6E0000FB
:103440006E65000063740000206100006E7900006A
:103450002064000065760000696300006573000069
:10346000004300006F6E00006E6500006374000092
:10347000202800005670000075200000746F0000C6
:10348000202B00003556000029200000616E00004E
:103490006420000028410000444300002074000024
:1034A0006F2000002B3300002E330000562900004F
:1034B000005000007265000073730000206100007E
:1034C000206B000065790000207400006F20000070
:1034D0007374000061720000740000004374000007
:1034E000726C00000041000055580000004D0000C3
:1034F0004F440000452000004C45000044000000FF
:10350000505500004C4C0000555000002048000071
:1035100000500000554C00004C55000050200000A9
:103520004C000000565200004547000000410000DA
:1035300044430000206100006E640000207300001E
:1035400075700000706C00007900000035560000B6
:103550000056000050550000003300002E330000DC
:103560005600000041440000430000004275000086
:1035700073200000686900006768000000420000D6
:103580007573000020480000692D00005A200000DB
:103590003000000042750000732000004869000000
:1035A0002D5A000020310000004D00004F44000063
:1035B00045200000616E00006420000056520000AB
:1035C00045470000204C00004544000073200000E7
:1035D000736800006F7500006C64000020620000DA
:1035E000652000006F6E000021200000416E000089
:1035F000792000006B6500007920000065780000EC
:1036000069740000732E00000028000000290000EB
:10361000004D00004F53000049000000434C0000E3
:103620004B0000004D490000534F000000430000D4
:1036300053000000204F00004B0000002046000017
:10364000414900004C000000505700004D20000090
:103650006469000073610000626C00006564000032
:10366000003100004B4800007A2D0000342C00008F
:1036700030300000304B0000487A00002066000027
:103680007265000071750000656E000063790000CE
:1036900020670000656E0000657200006174000024
:1036A0006F7200002F500000574D000020280000CE
:1036B000626500007461000029000000467200008D
:1036C00065710000756500006E63000079200000E0
:1036D000696E0000204B0000487A000020000000C6
:1036E0005072000065730000636100006C650000AB
:1036F0003A00000032350000360000003634000089
:10370000003800000031000000500000523200007C
:103710003A00000044750000747900002063000046
:10372000796300006C650000206900006E200000D5
:103730002520000000500000574D000020610000CF
:1037400063740000697600006500000050570000B7
:103750004D20000061630000746900007665000080
:103760003A20000074720000792000004720000019
:10377000746F000020640000697300006162000043
:103780006C65000020500000574D0000004600000E
:103790007265000071750000656E000063790000BD
:1037A000206F00006E2000004155000058200000EE
:1037B000706900006E3A000020000000487A0000A6
:1037C00000200000280000006B4800007A2900005B
:1037D000004D0000487A000029000000415500001B
:1037E00058200000494E000050550000542F0000A2
:1037F000484900002D5A00000041000055580000C3
:1038000020480000494700004800000041550000E2
:10381000582000004C4F00005700000041550000A8
:1038200058200000494E000050550000542F000061
:10383000484900002D5A00002C200000524500008D
:10384000414400003A20000000000000005E00003B
:10385000BCE20000613F0000DD830000C29C00006C
:103860007E200000A3FD00001F4100009DC300005A
:10387000217F0000FCA20000401E00005F0100004C
:10388000E3BD00003E60000082DC0000237D0000FC
:103890009FC10000421C0000FEA00000E1BF00002C
:1038A0005D03000080DE00003C620000BEE000001E
:1038B000025C0000DF810000633D00007C2200000C
:1038C000C09E00001D430000A1FF0000461800003C
:1038D000FAA40000277900009BC5000084DA0000EC
:1038E00038660000E5BB000059070000DB850000DA
:1038F00067390000BAE400000658000019470000CC
:10390000A5FB000078260000C49A0000653B00007B
:10391000D9870000045A0000B8E60000A7F90000AB
:103920001B450000C69800007A240000F8A600009D
:10393000441A000099C70000257B00003A6400008B
:1039400086D800005B050000E7B900008CD20000BB
:10395000306E0000EDB30000510F00004E1000006B
:10396000F2AC00002F71000093CD0000114F000059
:10397000ADF30000702E0000CC920000D38D00004B
:103980006F310000B2EC00000E500000AFF10000FB
:10399000134D0000CE900000722C00006D3300002B
:1039A000D18F00000C520000B0EE0000326C00001D
:1039B0008ED00000530D0000EFB10000F0AE00000B
:1039C0004C12000091CF00002D730000CA9400003B
:1039D00076280000ABF500001749000008560000EB
:1039E000B4EA000069370000D58B000057090000D9
:1039F000EBB50000366800008AD4000095CB0000CB
:103A000029770000F4AA000048160000E9B700007A
:103A1000550B000088D60000346A00002B750000AA
:103A200097C900004A140000F6A80000742A00009C
:103A3000C8960000154B0000A9F70000B6E800008A
:103A40000A540000D78900006B3500005245000081
:103A50005345000054000000424F00004F54000046
:103A60004C4F00004144000045520000005300004C
:103A7000656C0000662D0000746500007374000022
:103A8000206900006E200000486900005A200000F4
:103A90006D6F000064650000206F00006E6C000018
:103AA000792E0000004300004F4E000056450000F4
:103AB00052540000200000004275000073200000F6
:103AC00050690000726100007465000020760000FB
:103AD0003300000046690000726D0000776100004D
:103AE0007265000020760000342E0000312D0000A9
:103AF0006E69000067680000746C000079000000C7
:103B00004445000056490000443A000000200000EF
:103B10005245000056490000443A000000200000D1
:103B20002800000041330000004200003400000083
:103B300042350000005500004E4B000000290000F7
:103B40000068000074740000703A00002F2F00001D
:103B5000646100006E670000657200006F75000010
:103B600073700000726F0000746F000074790000C1
:103B700070650000732E0000636F00006D00000090
:103B80002A2D00002D2D00002D2D00002D2D0000D0
:103B90002D2D00002D2A0000002E00002000000026
:103BA000355600003A200000002000007C20000074
:103BB000332E0000335600003A20000000200000A1
:103BC0007C20000056500000554C00004C55000071
:103BD000503A000020000000207C0000004300005C
:103BE00046470000313A0000002000004346000034
:103BF000473200003A000000202C000020000000A6
:103C000053650000742000007370000065650000BB
:103C1000643A00000D0A0000203100002E20000050
:103C2000333000004B4800007A0D00000A200000ED
:103C3000322E000020310000323500004B480000D9
:103C40007A0D00000A200000332E00002032000010
:103C5000353000004B4800007A0D00000A200000BB
:103C6000342E0000203100004D4800007A00000092
:103C7000203000002E4D000061630000726F0000D4
:103C8000206D0000656E0000750D00000A20000028
:103C9000312E0000535000004920000062750000E2
:103CA00073200000736E0000696600006665000006
:103CB00072000000536E000069660000662000007C
:103CC00077680000656E00003A0D00000A200000D1
:103CD000312E000020430000532000006C6F0000D4
:103CE000770D00000A200000322E00002043000063
:103CF0005320000068690000676800000D0A00009A
:103D0000203300002E200000416C00006C200000D9
:103D100074720000616600006669000063000000C4
:103D2000535000004920000062750000732000001D
:103D3000736E00006966000066650000722C00006A
:103D4000206100006E790000206B000065790000A2
:103D500020650000786900007374000073000000A3
:103D600053500000493100000000000020420000D4
:103D70004954000020540000494D0000454F000008
:103D80005554000000200000302E0000204D00009F
:103D900061630000726F0000206D0000656E00001E
:103DA000750D00000A200000312E0000204C00009C
:103DB0006976000065200000696E000070750000E3
:103DC000742000006D6F00006E690000746F0000C9
:103DD00072000000496E0000707500007420000041
:103DE0006D6F00006E690000746F0000722C00009F
:103DF000206100006E790000206B000065790000F2
:103E00002065000078690000747300000020000045
:103E10002A7300007461000072740000626900007F
:103E20007420000065720000726F000072000000D4
:103E3000202A00007061000072690000747900009F
:103E400020650000727200006F7200000020000008
:103E50002A730000746F0000706200006974000033
:103E600020650000727200006F72000000200000E8
:103E70004E4F00004E45000000200000554E00004F
:103E80004B4E00004F5700004E20000045520000EE
:103E9000524F000052000000486900005A00000024
:103EA000312D000057490000524500000055000028
:103EB000415200005400000049320000430000005D
:103EC00053500000490000004A54000041470000E0
:103ED00000520000415700003257000049520000D4
:103EE00045000000524100005733000057490000D0
:103EF0005245000000500000432000004B450000E8
:103F0000594200004F41000052440000004C0000A4
:103F10004344000000000000444500004C41000004
:103F2000592000000075000053000000564F0000AB
:103F30004C54000041470000452000005052000052
:103F40004F420000453A00002000000056000000EB
:103F50002920000000300000620000003031000025
:103F600032330000343500003637000038390000A5
:103F70004142000043440000454600003078000004
:103F80000000000042420000494F000031000000E4
:103F90005241000057310000000000003141000094
:103FA0004C53000000000000202C00002000000006
:103FB0000600FA00881F78000CD8BF000080FB00C4
:103FC0006101B9001207980023079800C001200082
:103FD000010020001E019000AE019000800F5100F2
:103FE000818F5900C3013E001E009000AE0090007A
:103FF000006001001C0037004000370060003700FF
:104000005F003700BB0137009F0037005E003700BC
:10401000B801370065003700B6013700B501370039
:104020007700370076003700B2013700B101370062
:10403000B0013700AF013700AE013700AD013700E6
:10404000AC013700AB013700AA013700A9013700E6
:10405000A80137007D00370080003700A701370036
:10406000A4013700A501370080C08000E10F500097
:1040700007003A0010C0B3001F2C0700A129070059
:1040800063FBB70063DBBF004E2A07001600370052
:1040900020C0B300182C070080C08000492A070008
:1040A00030C0B300142C07000000EB0000DB8800D8
:1040B000090037009329070063FBB70063DBBF00EB
:1040C000402A070000C2B300C306070000DB8000DF
:1040D0000000E80000DB880081C0800000DB800079
:1040E000808F5000F3FF3E00D0C0B300BA06070037
:1040F000A0C0B300B80607008001370040C0B3007D
:10410000FD2B070070C080002E2A070080C08000B1
:10411000E10F500003003A0070C08000382907000A
:1041200012003700E0E728002E05070080C080005D
:10413000242A070050C0B300EF2B07000000EB005B
:1041400000DB88000500370070C080002C290700C4
:1041500000DB80000000E80000DB880081C08000F8
:1041600000DB8000808F5000F7FF3E00D0C0B3001E
:1041700099060700A0C0B300970607005F0137004B
:10418000610107005D0137008929070063FBB70063
:10419000D0C0B300D82B070063DBBF000A050700BF
:1041A000F0C0B300D42B07005401370080C080005A
:1041B000042A070020E828000A0507000000EB0099
:1041C00000DB88000500370056DBBF0034290700FC
:1041D00000DB80000000E80000DB880081C0800078
:1041E00000DB8000808F5000F7FF3E0056DBBF00F1
:1041F000F504070020E92800100507003F013700FB
:1042000040E92800F70407000CD8BF00EC4F50002D
:1042100005003A000040EB0056FBB7000040EB0001
:10422000E90407000400370010C0B30056FBB700D4
:1042300010C0B300E404070000EA2800FF040700F0
:1042400056DBBF00162907002C0137000B58A900C8
:104250000B98A8000BD8A800280137000040EB00FD
:1042600068FBB700C922A800CB22A900B0EC280047
:10427000F2040700C0EF2800F00407000040EB0044
:104280009D2B07001D01370070C080000000E0007A
:104290003600320071C0800020032000808F500063
:1042A00032003E0070C080000000E90070C088004D
:1042B00071C0800068DBBF000080FB00808F500071
:1042C0000300390060F22800DC0407000B0137000E
:1042D00000F52800C304070070C080000040E8001B
:1042E00080050700F0F52800BE0407000040EB0041
:1042F00062FBB7001700370072C0800062DBBF00AE
:104300008080FB004310DD008100400090B621005A
:104310000080400010407800AA29070000C2B300C6
:104320002D06070072C0800062DBBF008080FB00AA
:104330004310DD008100400090B621000080400065
:1043400010407800AE28070062DBBF000040E800A4
:1043500062FBB70062DBBF00E74F5000E6FF3600AC
:1043600020F62800B5040700E400370071C0800083
:10437000010F7800500520001E017800800F5100C9
:10438000CD003200500520009E017800808F510042
:1043900008003E001E0078000000E000120032001D
:1043A000300320009E007800808F5000A000320073
:1043B000CD003700C00E20001E017800800F510094
:1043C00046003200000F20009E017800808F5100CF
:1043D00042003200C00C20009E007800808F500008
:1043E000BB003200C000370040F6280093040700ED
:1043F00020F728009104070068DBBF000004E000FC
:1044000003003A0060F228008C04070030003700F7
:104410000040EB0063FBB7002800370000C2B30088
:10442000ED05070063DBBF000040E8002D05070035
:10443000A0F828006B0407000040EB0062FBB70007
:104440000F00370063DBBF000081FB0062DBBF00B1
:104450008080FB004310DD008100400090B6210009
:1044600000804000104078005629070000C2B300C9
:10447000D905070062DBBF000040E80062FBB7001F
:1044800062DBBF00E74F5000EEFF3600C0F82800A7
:104490005404070063DBBF000080FB00C300DD00A5
:1044A00090B621000080400010407800B70007005F
:1044B00063DBBF000040E80063FBB70081B621006A
:1044C0009140780063DBBF0080CF5000D3FF3E00F7
:1044D00030F92800590407008800370070C08000B8
:1044E000A2F9B70071C08000C00E2000808F50007C
:1044F00003003A007006290050040700020037004C
:10450000B00729004D04070020F728004B040700DE
:104510000040EB0062FBB700CB00070063FBB70075
:104520000040EB0068FBB7003B00370000C2B3005F
:10453000A905070062DBBF000040E800E9040700AE
:10454000A0F82800270407000000EB0000DB88002B
:104550000A00370001DB800090BB21000080400092
:10456000104078001729070000C2B3009A05070021
:1045700000DB80000000E80000DB880000DB80003A
:10458000E70F5000F3FF3600C0F8280015040700BD
:10459000B9DBBF007D00070062DBBF00E94F5000C0
:1045A00018003E000000EB0000DB88000F00370021
:1045B00068DBBF008081FB0004DB800001DB800042
:1045C00090BB210000804000104178004318DD00BE
:1045D0008400400090B6210000804000024878002E
:1045E00000DB80000000E80000DB880000DB8000CA
:1045F000E70F5000EEFF360068DBBF000040E80028
:1046000068FBB70062DBBF000040E80062FBB70058
:104610009800070063FBB70063DBBF000004E00005
:10462000C2FF3A0090082900040407003300370055
:1046300035000700500B2900EA03070030C3B30020
:10464000EF2707000000EB0000DB880010003700B8
:1046500008DB80002B2807008040780070B521001F
:10466000000044000148780001DB800070B52100A3
:104670000080400010407800D228070000C2B3003C
:104680005505070000DB80000000E80000DB880023
:1046900000DB8000E70F5000EDFF3600D0C0B30014
:1046A0004D050700A0C0B3004B05070057DBBF0056
:1046B000360007001100370013000700700C2900B6
:1046C000DE03070050C5B300CD2707000B003700FD
:1046D0000D000700800D2900D8030700C0CCB300EF
:1046E000C72707000500370070C1B300822A070002
:1046F0000200370080C1B3007F2A07004F04780012
:104700000080FA00000006000200FA00832707007C
:10471000004F7800800E2900B20307001E04E0005D
:1047200003003A00300F2900C403070015003700CA
:10473000600F2900AB0307001E80FB0061006000D2
:104740000004E00002003200E00F2900A50307008A
:104750001E80FB000000D100610060000004E0004A
:1047600002003200401129009E0307009012290028
:104770009C0307001E4078009228070020E92800CB
:10478000AE0307000080FA00000006000400FA00F3
:10479000004F78001E80FB001007980020022000C8
:1047A0009E009000808F50001A00320020022000EE
:1047B0009E009000808F500007003C001E0090007B
:1047C000E40F5000160032009E009000F08F500061
:1047D0000A00320018003700800220009E0090007E
:1047E000808F500008003200D00220009E00900010
:1047F000808F50000D0032000F003700B0122900EA
:104800008E0307000E003700701429008B03070089
:104810000B00370020162900880307000800370026
:1048200080172900850307000500370010192900AB
:104830008203070002003700201A29007F030700C7
:104840000080FA00000006000000FA000040EB00C3
:10485000C1FBB7000040EB00C3FBB7000040EB001A
:10486000C2FBB700080007000080FB000080FA00D0
:10487000000006000000FA00030007000080FB00B3
:104880000080FA00000006000A00FA0010C0B30021
:10489000704798000040EB00604798000040EB0034
:1048A0005047980010C0B300104798000040EB003C
:1048B000404798000040EB00C4FBB700C3DBBF00DB
:1048C0000004E0008D003A00142707000004E00017
:1048D000090032000040EB00C1FBB7000040EB00D4
:1048E000C3FBB7000040EB00C2FBB7000000EB00C9
:1048F0004007980092003700A2D9BF004027070068
:10490000AB27070030479800A927070020479800E9
:104910003E409000E14F500003003A002E409000CE
:10492000E14F500065003200BE4090002E409000E4
:1049300080CF5000030032003E409000004F7800CE
:104940002400370011BC2100914078007E40900087
:10495000814F50000E0031005E4090008080FB00CF
:1049600090BB210000804000904078001E409000E5
:1049700080C060000040EB00004F78000104E000C0
:104980000B00320010C0B300004F78000800370061
:10499000C1DBBF008040EB00014F7800FE4090007B
:1049A00080CF500002003A0010C0B300004F7800E2
:1049B0001E04E00007003A007E4090006047980027
:1049C0006E409000E84F500002003E006E409000A4
:1049D000C2FBB70010C0B3009E4F10000D003A009C
:1049E0005E4090000081FB005E4090008080FB00F4
:1049F00090BB210000804000904078001E40900055
:104A000080C0700090BB2100000041000148780088
:104A1000110037005E4090000082FB005E40900075
:104A20008080FB0090BB2100008040001040780097
:104A3000804178001E419000024078000080EA002A
:104A40008180EA0000C061008040780090BB2100B6
:104A500000004200014878001E407800102707003F
:104A60007E4090000040E800704798001E40900093
:104A700000404000104798001E4090000004E000F5
:104A80000B003A005E4090008080FB0090BB21004C
:104A90000080400010407800840007005E409000D5
:104AA0000040E8005047980010C0B300104798003D
:104AB0005E409000E74F500091FF3600FE409000AE
:104AC00000C4B30080CF50000C003600C4DBBF0030
:104AD0000004E00009003A006E409000C1FBB700FE
:104AE000C1DBBF000004E00002003A0010C0B300C8
:104AF000C3FBB70010C0B300404798004E40900081
:104B00000004E00003003200B9DBBF000004E00055
:104B100008003A000040EB00C1FBB7000040EB008A
:104B2000C3FBB7000040EB00C2FBB7000040EB0046
:104B3000404798004E4090000080FB0040079800DE
:104B40004E0090000080FA00000006000E00FA00FF
:104B50000040EB00404798000C0037004E409000AA
:104B60000081FB004E4090008080FB0090BB210044
:104B70000080400090407800650047000171780097
:104B80004E4090000040E800404798004E409000A2
:104B9000E74F5000F1FF3600C1DBBF00204798000F
:104BA000C3DBBF0010479800C2DBBF00004F780096
:104BB00000C4B300C1FBB7000040EB00C3FBB7006B
:104BC00031FF07000004E0001A00320010C0B300FB
:104BD000304798000040EB00404798001100370034
:104BE0004E4090008080FB006500470061417800E6
:104BF0004E4090008080FB0090BB21000080400070
:104C000010407800804F5100030032000040EB005C
:104C100030479800090037004E4090000040E800FF
:104C2000404798004E409000E74F5000ECFF3600A0
:104C3000020037000040EB00304798000040EB00D6
:104C4000404798000C0037004E4090000081FB0068
:104C50004E4090008080FB0065004700E1407800F6
:104C600090BB210000004100014878004E409000B8
:104C70000040E800404798004E409000E74F500049
:104C8000F1FF36002E409000C1FBB7001E4090009F
:104C9000C3FBB7001E407800C2FBB7003E40900047
:104CA0000080FB000080FA00000006000200FA000D
:104CB000004F7800C4DBBF001E4068008080FB000E
:104CC000309A21000080400010407800C4FBB700FB
:104CD000C4DBBF000080FB000080FA00000006007B
:104CE0000000FA00101B29003E0207000080FA00B5
:104CF000000006000400FA00C922A800CB22A90087
:104D0000C8C2A9000BD8A8000B78A900F4FF0700BF
:104D10000000370022C2BF00614060000004E000D4
:104D2000FCFF32003011800067FBB70067DBBF007B
:104D30000080FB004400DE0066FBB70066DBBF00BE
:104D40000080FB00100798001E009000E10F50004B
:104D50005B0032009E009000E48F5000760032002D
:104D60001E0090000000E0000100320077003700D4
:104D700067DBBF000080FB00000F78009E0078001A
:104D8000E28F5000170032001E007800E20F500042
:104D900007003C009E0078000100E0006E00320039
:104DA0001E007800E10F50000C0032004100370077
:104DB0009E007800E48F50000E0032001E00780044
:104DC000E40F50003B0035009E00780068805000E2
:104DD000E10F500037003E0009003700C0FF070018
:104DE000CCFF370048FE070010C0B3007A0307006D
:104DF000C8FF37004326070077030700C5FF3700C9
:104E000010C0B3007403070067DBBF00E94F500018
:104E100003003A00C0CEB300A2F9B7000200370089
:104E200000CFB300A2F9B70087FE070064FBB7000C
:104E3000110037000040EB0065FBB70009003700A8
:104E400065DBBF008080FB0090BB2100008040003C
:104E5000104078006003070065DBBF000040E800F9
:104E600065FBB70065DBBF00E74F5000F4FF36007D
:104E700080FE070064FBB70064DBBF000004E000B5
:104E8000ECFF3A000040EB0065FBB700050037007F
:104E900000C0EB005003070065DBBF000040E800E6
:104EA00065FBB70065DBBF00E74F5000F8FF360039
:104EB00098FF37000040EB004703070095FF3700DD
:104EC00071B6210091407800F0C0B30000C06000CE
:104ED00067FBB70067DBBF000040E80067FBB70077
:104EE00010C0B3003C0307000040EB0065FBB700B7
:104EF0000B00370022C2BF00614060000004E000E8
:104F0000FCFF320030118000BD25070010C0B30047
:104F10003103070065DBBF000040E80065FBB70018
:104F200051B621009140780067DBBF0080CF500070
:104F3000F0FF390077FF370067DBBF002E2807003E
:104F400010C0B3002403070072FF37000040EB00DD
:104F5000210307006FFF37000080FA000000060001
:104F60000E00FA0030079800410798005207980099
:104F70000000EB00100798000000EB0020079800ED
:104F80005E0090000000E0000600320080C2B30026
:104F9000110307005E0090002302070080FA290039
:104FA00090010700E0C3B3000B0307000000EB0013
:104FB000100798000E80E800A2C22100BE009000F9
:104FC000200007000000E000FAFF32001E00900001
:104FD0000000E00006003A005E0090000000E000E3
:104FE000030032005E009000600798001200370056
:104FF0000000EB00200798001E009000E40047002E
:10500000A2C2210065000700000F78001E00E0002A
:10501000060032004E0090009E0F100003003E007C
:105020001E0078006007980003003700D0C1B3006D
:1050300031280700DDFF37006E0090000080FA0085
:10504000000006000C00FA001007980021079800E5
:105050003207980049003700D6020700004F780059
:105060001E80FB00500798005E009000E80F500083
:105070001E0032005E009000E80F500007003C0068
:105080005E0090000000E0000B0032005E00900027
:10509000E20F50000B003200200037005E0090004D
:1050A000EA0F50000A0032005E009000ED0F500041
:1050B0000700320019003700F00F20004007980069
:1050C00033003700E00F2000400798003000370021
:1050D000D0C0B300C0020700A0C0B300BE020700EA
:1050E0001000200040079800290037001E009000A3
:1050F000100078000000E000200032001E00900048
:10510000100078008000E9001E009000010878007F
:105110001E407800B0020700180037001E00900003
:10512000900078002E009000808F50001300310016
:10513000F0C1B3009E4F100010003600E0C7B3006E
:105140009E4F10000D003E001E00900010007800E1
:10515000800078003E009000008040001E487800EB
:105160001E4078009C0207001E009000100078008E
:105170008000E8001E009000010878008702070008
:105180000004E000B4FF3A000000EB004007980084
:105190004E0090000080FA00000006001400FA00A3
:1051A00070079800010F9800120F98000040EB0064
:1051B000004F78008E00E8000040EB00904098001F
:1051C0000E089000900078007E009000808F5000C4
:1051D00006003A000E089000100078008000E900F8
:1051E0000E089000010878006F0037000E0890004C
:1051F00010007800800078001E08900000804000B9
:1052000090407800F0C2B30080CF50000900360013
:105210000E08900010007800800078001E089000B2
:10522000008040009040780090C3B30080CF5000D1
:10523000480036000E0890001000780080007800CA
:105240001E089000008040009040780000C4B30029
:1052500080CF5000090036000E0890001000780042
:10526000800078001E089000008040009040780088
:1052700060C4B30080CF5000360036000E089000A6
:1052800010007800800078001E0890000080400028
:105290009040780000C6B30080CF5000090036006F
:1052A0000E08900010007800800078001E08900022
:1052B000008040009040780060C6B30080CF50006E
:1052C000240036000E08900010007800800078005E
:1052D0001E089000008040009040780080C7B30016
:1052E00080CF50001B0032000E08900010007800A4
:1052F000800078001E0890000080400090407800F8
:1053000080C6B30080CF5000120032000E0890001B
:1053100010007800800078001E0890000080400097
:105320009040780080C5B30080CF50000900320063
:105330000E08900010007800800078001E08900091
:10534000008040009040780080C4B30080CF5000BF
:1053500010003A001E81FB000E089000100078003B
:10536000800078001E089000008040009040780087
:105370000E00E800017178001E4FE8000E08900052
:10538000100078008000E8000E0890000108780006
:105390008BFF37000E089000100078008000E900B5
:1053A0000E089000010878008E00E8001E4078008A
:1053B000020007000080FA00000006000A00FA0060
:1053C00040479800310798000000EB001007980054
:1053D0003E0090000000E800104078000080FB00D4
:1053E0004007980080062000CE009000808F50007B
:1053F0000900320080072000CE009000808F50000E
:105400000500320020062000CE009000808F500062
:105410003F0032005400370020C0B300004F780036
:10542000370037001E0090004400DD001007980090
:105430001E80FB00800078003E009000008040004D
:1054400090407800F0C3B30080CF50000C003E00C5
:105450001E80FB00800078003E009000008040002D
:10546000104078008080FB001E009000808040008B
:1054700000FD2F0000804000100798001F0037003B
:105480001E80FB00800078003E00900000804000FD
:105490009040780060C4B30080CF50000C003E0004
:1054A0001E80FB00800078003E00900000804000DD
:1054B000104078008080FB001E009000808040003B
:1054C00090FC2F0000804000100798000B00370070
:1054D0001E80FB00800078003E00900000804000AD
:1054E000104078008080FB001E009000808040000B
:1054F00090FA2F0000804000100798001E4FE8002F
:105500004E4090009E4F1000C6FF39002B00370020
:1055100020C0B300004F78000F0037001E0090003D
:1055200000004000100798001E80FB0080007800FB
:105530003E009000008040009040780010C3B3000F
:1055400080CF500003003A001E0090000000A00031
:10555000100798001E4FE8004E4090009E4F10002C
:10556000EEFF3900150037000040EB00004F7800D7
:105570000F0037001E0090006A00B9001007980065
:105580001E80FB00800078003E00900000804000FC
:10559000104078008080FB001E009000808040005A
:1055A00000FD2F0000804000100798001E4FE8000B
:1055B0004E4090009E4F1000EEFF39001E009000FC
:1055C0000080FA00000006000200FA00004F780098
:1055D0001E4078000043B0007F0107000080FA0001
:1055E000000006000600FA001007980002003700CD
:1055F0001E407800780107001E009000104F7800D0
:105600001E407800404798004E4090000004E000A3
:105610000200320010C0B300404798004E40900096
:105620009E0090008100E800110798000004E0004F
:10563000EFFF3A000080FA00000006000600FA00C2
:1056400010079800020037001E4078006201070032
:105650001E009000104F78001E40780040479800D0
:105660004E4090000004E0000200320010C0B30081
:10567000404798004E4090009E0090008100E80056
:10568000110798000004E000EFFF3A00D0C0B3001B
:1056900051010700A0C0B3004F0107000080FA00CD
:1056A000000006000400FA002047980000C8B3007C
:1056B000004F7800B0FA2900CAFF07000040EB0055
:1056C000104798000F0037002E4090001E406000E9
:1056D0000004E0000300320010C3B3003E010700E5
:1056E0000200370000C3B3003B0107001E80FB002F
:1056F0000000D100004F78001E4090000040E800FC
:10570000104798001E409000E74F5000EEFF360013
:105710000080FA00000006000E00FA005007980012
:10572000610798000040EB00004F780000102E0049
:10573000515F200030079800410798000040EB00BF
:1057400010479800300037003E019000CE019000D5
:105750005E009000EE0090008BEC070010079800B0
:10576000210798001E04E00005003A001E0090008A
:10577000AE009000E00F5000E08F5800180032009B
:105780001E0090000043B000130107009E0090002F
:105790003E009000000AB8009E0090004E0090006D
:1057A0000088B9000501780000014100BE009000AA
:1057B0002E0090000088B9000001410082027800AC
:1057C0005E009000EE0090000400500085805800BC
:1057D000500798006107980010C0B300004F780090
:1057E0003E009000CE009000A200200003002000A8
:1057F00065EC070030079800410798001E409000B4
:105800000040E800104798001E409000E74F50000D
:10581000CDFF36005E0090000043B000EE000700B0
:105820000080FA00000006000800FA003007980027
:105830000040EB00004F7800007122002007980024
:105840000040EB00104798001E0037003E0090001B
:105850002E019000110009000280D8001007980066
:105860001E04E00003003A001E0090000000E0006B
:105870000C0032001E0090000043B000D60007006C
:105880009E0090002E0090000088B90080007800F3
:105890003E009000010050003007980010C0B30097
:1058A000004F78002E009000A20020001100090097
:1058B0000280D800200798001E4090000040E800B9
:1058C000104798001E409000E34F5000DFFF360065
:1058D0003E0090000043B000BF0007000080FA00C7
:1058E000000006000600FA00404798000040EB0068
:1058F000004F780040C6B300304798000040EB00EE
:1059000020479800200037004E4090008080FB0028
:105910003E4090000081FB00110009008280D80009
:10592000104798001E04E00003003A001E4090005B
:105930000004E0000B0032001E4090000043B00065
:10594000A50007004E4190009E4090003E40900010
:105950000088B900004051004047980010C0B300D3
:10596000004F78003E4090000080FB00A200200025
:10597000110009000280D800304798002E409000A6
:105980000040E800204798002E409000E14F500072
:10599000DDFF36004E4090000043B0008E0007004F
:1059A0000080FA00000006000400FA0010079800CA
:1059B000E0FB29000BFF07001E0090004400DE0002
:1059C0006F0F60009E007800E0FA29000080400020
:1059D00010407800800007001E0090006F0F6000EC
:1059E0009E007800E0FA2900008040001040780016
:1059F000790007000080FA00000006000400FA00A9
:105A00001007980000C3B3008400070080C7B300EC
:105A1000820007001E0090004400DE006F0F60004F
:105A20009E007800E0FA29000080400010407800D5
:105A30007A0007001E0090006F0F60009E00780043
:105A4000E0FA290000804000104078007300070051
:105A50000080FA00000006000400FA001007980019
:105A6000E0FB2900DFFE07001E0090004C00DE0076
:105A70006F0F60009E007800E0FA2900008040006F
:105A800010407800540007001E0090004800DE001F
:105A90006F0F60009E007800E0FA2900008040004F
:105AA000104078004C0007001E0090004400DE000B
:105AB0006F0F60009E007800E0FA2900008040002F
:105AC00010407800440007001E0090006F0F600037
:105AD0009E007800E0FA2900008040001040780025
