:020000040000FA
:10000000040C040000000000DE6F0000DE6F000042
:10001000DE6F0000DE6F0000DE6F0000DE6F0000AC
:10002000DE6F0000DE6F0000DE6F0000DE6F00009C
:10003000DE6F0000DE6F0000DE6F0000DE6F00008C
:10004000DE6F0000DE6F0000DE6F0000DE6F00007C
:10005000DE6F0000DE6F0000DE6F0000DE6F00006C
:10006000DE6F0000DE6F0000DE6F0000DE6F00005C
:10007000DE6F0000DE6F0000DE6F0000DE6F00004C
:10008000DE6F0000DE6F0000DE6F0000DE6F00003C
:10009000DE6F0000DE6F0000DE6F0000DE6F00002C
:1000A000DE6F0000DE6F0000DE6F0000DE6F00001C
:1000B000DE6F0000DE6F0000DE6F0000DE6F00000C
:1000C000DE6F0000DE6F0000DE6F0000DE6F0000FC
:1000D000DE6F0000DE6F0000DE6F0000DE6F0000EC
:1000E000DE6F0000DE6F0000DE6F0000DE6F0000DC
:1000F000DE6F0000DE6F0000DE6F0000DE6F0000CC
:10010000DE6F0000DE6F0000DE6F0000DE6F0000BB
:10011000DE6F0000DE6F0000DE6F0000DE6F0000AB
:10012000DE6F0000DE6F0000DE6F0000DE6F00009B
:10013000DE6F0000DE6F0000DE6F0000DE6F00008B
:10014000DE6F0000DE6F0000DE6F0000DE6F00007B
:10015000DE6F0000DE6F0000DE6F0000DE6F00006B
:10016000DE6F0000DE6F0000DE6F0000DE6F00005B
:10017000DE6F0000DE6F0000DE6F0000DE6F00004B
:10018000DE6F0000DE6F0000DE6F0000DE6F00003B
:10019000DE6F0000DE6F0000DE6F0000DE6F00002B
:1001A000DE6F0000DE6F0000DE6F0000DE6F00001B
:1001B000DE6F0000DE6F0000DE6F0000DE6F00000B
:1001C000DE6F0000DE6F0000DE6F0000DE6F0000FB
:1001D000DE6F0000DE6F0000DE6F0000DE6F0000EB
:1001E000DE6F0000DE6F0000DE6F0000DE6F0000DB
:1001F000DE6F0000DE6F0000DE6F0000DE6F0000CB
:10020000FFFFFF00FFFFFF00DE6F0000DE6F00005A
:10021000DE6F0000DE6F0000DE6F0000DE6F0000AA
:10022000DE6F0000DE6F0000DE6F0000DE6F00009A
:10023000DE6F0000DE6F0000DE6F0000DE6F00008A
:10024000DE6F0000DE6F0000DE6F0000DE6F00007A
:10180000040C000000000000EFC02100007F220057
:1018100000018800000000000A0007001100070016
:10182000000020000000E000020032000000020082
:1018300000000000C80F0200000000000040DA00B5
:101840000000FE004440A900009921000000E000D3
:101850000300320000002000A00188004440A800DE
:101860000000060000CE2600010020001500370011
:1018700062004000E0804800910188009001BA00B9
:1018800062004000E0804800910188009002BA00A8
:1018900062004000E08048000002EB006028E100A8
:1018A00004003A000059EB008301E900FDFF3E000F
:1018B000040037006128E100010032000082EB00E3
:1018C00005000700910188001001BA000200E00045
:1018D000E7FF3A00000005009101880080027800CF
:1018E00062004000E08048003559BA008301E900F9
:1018F000080032002559BA008301E90005003200D2
:101900000400E000F4FF320015D9BA008301E900B9
:10191000F1FF3A0000000600889FBE008A9FBE00CB
:10192000010578000100E0000400350008003C00DB
:101930000000E000200032000500370060001000C9
:10194000E080180002003B0001F02C001A00370074
:101950000004BE006011B8006B0920000982CF00AE
:10196000020039000882CF000441B00069425200F1
:101970000E00320008003B008281710061016400AA
:101980008904D1000884D3008B05E8000442E800F4
:10199000F9FF3A00050037000804440089844C0030
:1019A0008B05E9000442E900FBFF3A00250107002E
:1019B0000AF0A70001F0A0004F05BE004F04BE00D2
:1019C0000000060003F0A200889FBE008A9FBE00B0
:1019D0008C1F780041010700480133006450E1008A
:1019E0004F0032006420E1005200320003826C009C
:1019F00007003B000905D0000306D000820F540009
:101A00000C065D00020039000200320089017800F6
:101A1000030678008582550004003D000003FD00A8
:101A20008103FD008502EA008B854200840F72006D
:101A300002003B0060001000E08018006011B80058
:101A40000005EB007A28E1000A0039000600780062
:101A5000C75DDD00F707B200878075002D003700F5
:101A6000828171000A017800610560008180D100E7
:101A70000080D3008502E900F9FF3B000604400026
:101A80008784480002003B0060041400E0841C00CE
:101A90000988A300070032008A81710082817100E9
:101AA000610164008904D1000884D3008B05E8003B
:101AB000170037000978A30013003A000B00E0007C
:101AC000130034008B05E9000804440089844C00AD
:101AD0000A4474000978A3000D003A000B00E000EE
:101AE000070034008B05E9000804440089844C0099
:101AF00001003A000B0020000978A300F7FF320034
:101B00000001EB0002003700828171000A017800B9
:101B1000CC0007000CF0A70001F0A0000001370086
:101B20006420E10002003A00838F6C000001330062
:101B30000801BE000200BE00F9003700889FBE0009
:101B40008A9FBE008C1F7800E4000700EB00330082
:101B500003866C006450E1002E0032006420E10036
:101B6000330032006150E1002F0032006120E100BB
:101B70003100320085855500EB07B00009002000D8
:101B800008042000050037000804440089844C0044
:101B90000A0031000603430087834B000001530015
:101BA00081815B00F8FF33000203BE000800A00043
:101BB0000804440089844C00F6FF3900C639DD0072
:101BC0008301730001003200130020008904D1005A
:101BD0000884D3000998A300050032000800A7007C
:101BE0000300A0008904D1000884D3008B05E8001D
:101BF0008904D1000884D3000001EB000281D200E7
:101C00009000070001F0A1000CF0A70001F0A00077
:101C1000C30037006420E100C50032000801BE00A7
:101C20000200BE00F7FF37006120E100C000320073
:101C30006000B800F3FF37000000200001F8270023
:101C4000F0FF3700889FBE008A9FBE008C1F78007F
:101C5000A2000700A900330003866C006450E10075
:101C6000240032006420E100270032006150E100CE
:101C7000220032006120E100210032008B85420009
:101C8000EB07B1000134B800003AB8000804420084
:101C900089844A00013AB8000030B80088804000CA
:101CA00009014A0004003300000040008180480020
:101CB000020149008B05E900C909DD0083017000BC
:101CC0000100320013002000C814DE004814DD00BB
:101CD0004709DE001200B200C808DE000884700068
:101CE0005800070001F0A1000CF0A70001F0A000CF
:101CF0008B0037006120E1008D0032000801BE003A
:101D00000200BE00F7FF37006150E100FCFF3A001F
:101D1000870037000001BE00880007000470A7009C
:101D200003F0A10003F8A30013003A006509B10015
:101D300010003200090035006928E100020035007A
:101D400001002800000005000000400081804800DC
:101D50008502E900FCFF3A0000000600F88F42000F
:101D6000050035008100D1000080D3008502E80025
:101D7000FCFF3A00000006008000EB0000000500B8
:101D80006022B800060220000000D0008180D2004E
:101D90000482D2008582D2000000A000020252001C
:101DA00083825A00030031000202420083824A000B
:101DB0000000A1000603E900F3FF3A00000006005E
:101DC0000001BE005D0007000470A70003F0A10041
:101DD0006509B100160032000D0035006828E100E9
:101DE00006003500F0FF2F00F1FF27000300E000A0
:101DF00013003B0001002800000005000000400027
:101E0000818048008502E900FCFF3A0008003700A5
:101E1000F88F420002003C008000EB00000005004B
:101E20008100D1000080D3008502E800FCFF3A0069
:101E30000300E00002003B0060001000E08018009A
:101E40000000060081002000618055000B003D006D
:101E50000B00200061FE2F000100E1001D00340096
:101E600082817100610164008904D1000884D3007B
:101E70000000E800FAFF3A007100200061006400F1
:101E80000300700002006000090032006104440099
:101E9000E0844C000988A500050032008B05E800AD
:101EA0006808E10002003A008904D1000884D300E8
:101EB000F20F20000258E10005003D00C75DDD0083
:101EC000F907B2008980750008007800000006005C
:101ED0000BF827008B007800000005000004BE000E
:101EE000160007000003BE000405BE000200BE008D
:101EF00012000700844F7500000006000200BE00BB
:101F00006450E100050036006420E1000200360064
:101F10000968A30001003A000800BE000160A000AB
:101F20004F0678004F05BE004F04BE0000000600BB
:101F3000F0FF2F00F1FF2700F9FF3700C70ADE008E
:101F4000F107B200F50FB20008003200E1CF420005
:101F5000020032000170A00024000500810F700013
:101F6000010032000408050044000500810F7000E4
:101F700002003A00140005008502E900000040005C
:101F800081C04800FCFF3B000170A0002400050058
:101F90000200FA002800070000003700C28020007D
:101FA00001FA2000C07A210002180700E10F50005A
:101FB00018003A0060BD8000000F78001E00780015
:101FC0000000E000040032001E007800E10F500025
:101FD000040032000700370090C1B300B21A0700B6
:101FE000070037000CC8BF00CC1307000004E00056
:101FF00003003A0060BD8000C18020000F1607007A
:102000000000EB0060BD8800B1130700E0C3B3001F
:102010008E1A07000AC8BF00644060000004E00098
:10202000DEFF32000001EB008000EB0060C1B30076
:102030004E130700D9FF37000000FA004507A9003A
:102040000080EB00601988004227A900416A200047
:102050009140780000CEB30000C060005040B30053
:10206000A4E6B700416C20009140780000CEB30098
:1020700000C060003040B300C4E6B70080C0B300C9
:1020800000E8B7000000EB00104088000A050700D8
:102090003E0507008000EB00F00F2000751A0700D6
:1020A0003040880021002000F00F2000711A070046
:1020B0004040880010C1B300641A0700D0C0B300CC
:1020C000621A0700A0C0B300601A07006D14070071
:1020D0007F130700E0C3B3005C1A07000080FA001A
:1020E000000006000C00FA00004F7800110798006D
:1020F000220798001E80FB006101B900320798009A
:1021000043079800C0012000010020003E0190001C
:10211000CE019000800F5100818F5900D9003E0000
:102120003E009000CE009000006001001C003700CF
:102130003E0037005E0037005D0037006200370068
:10214000BB003700660037006C00370072003700B4
:10215000780037007C0037008000370084003700AB
:10216000C8003700C7003700C6003700C500370079
:10217000C4003700C3003700C2003700C100370079
:10218000C0003700BF003700BE0037007D003700B9
:102190009B003700BD003700BA003700BB00370096
:1021A0002E009000E10F500007003A0010C0B3006D
:1021B0003D1A070052200700FCFBB700FCDBBF0004
:1021C000040507001400370020C0B300361A0700CA
:1021D0002E009000FF04070030C0B300321A070041
:1021E0000000EB00D0DF8800070037004420070024
:1021F000F804070000C2B300141A0700D0DF800003
:102200000000E800D0DF8800D1DF80002E009000C1
:10221000808F5000F5FF3900D0C0B3000B1A0700C3
:10222000A0C0B300091A07009800370040C0B300EF
:102230001D1A07001E009000E60407002E00900003
:10224000E10F500003003A001E009000FB1F070042
:1022500012003700004B2E009C1807002E00900043
:10226000DC04070050C0B3000F1A07000000EB00A9
:10227000D0DF8800050037001E009000EF1F070028
:10228000D0DF80000000E800D0DF8800D1DF8000D0
:102290002E009000808F5000F7FF3900D0C0B300AF
:1022A000EA190700A0C0B300E8190700770037005B
:1022B000731F0700404B2E008418070080C0B30036
:1022C000F919070071003700801F0700C04B2E006E
:1022D0007E18070090C0B300F31907006B003700A9
:1022E000D0C0B300F01907003520070070180700B0
:1022F000F0C0B300EC19070064003700E0C0B30081
:10230000E91907007E20070069180700F0C0B30034
:10231000E51907005D0037002E009000AD040700AE
:1023200000C1B300E01907002E009000462007000E
:102330005600370010C1B300DB19070010C0B3000E
:102340005D2007005100370020C1B300D6190700F7
:102350000040EB00582007004C00370030C1B300AC
:10236000D119070010C0B3004A200700470037000A
:1023700040C1B300CC1907000040EB004520070026
:10238000420037000A68A8000AA8A80010C3B300DA
:10239000C5190700120020002100200010002000B5
:1023A000CB1607000040E900614060006141600019
:1023B000A180200091407800E0CFB30000C0600011
:1023C000024070000AE8B700E0C1B300B619070088
:1023D000120020002100200010002000BC16070081
:1023E0000040EA0061406000C700DD000AC8BF008D
:1023F0000074A100014070000AE8B7002300370014
:10240000CB02A900CB22A900C922A800C902A900B9
:102410000AC8BF00614060008040780020C0B3005F
:10242000F41E07000040EB009F190700170037005B
:102430009E009000510798005E019000E10F51004E
:102440000A003200DE019000E18F510004003900E3
:102450005E009000E20F50000500320006003700D9
:10246000304C2E001918070008003700090007003B
:10247000190007000500370070C1B3008A19070072
:102480000200370080C1B300871907000080FA00FE
:10249000000006000000FA00E04F2E00211807009F
:1024A000B0512E001F1807000040EB000B20070062
:1024B00000C0EB007E04070010C0B3000720070037
:1024C00010C0B300E01F07000040EB00032007002E
:1024D0000080FA00000006000A00FA00881F780059
:1024E000D0532E00F91707000AC8BF000080FB0078
:1024F0004400DE0061406000204798000A88A80080
:102500000000EB00000F78000D0037001E0478007B
:102510007B1F07008040780063004700017478004B
:102520009E00780063004700614078000080FB0057
:10253000D718070000C2B300441907001E0FE800B7
:10254000300020009E0F1000F0FF3600D0C0B30016
:102550003E190700A0C0B3003C1907002E409000B0
:1025600061406000614060004401DD00A180200006
:1025700091407800F0CEB30000C0600002407000CF
:102580000AE8B700C0552E00D017070063004700C7
:10259000104078000080FB004400DE000080FB005B
:1025A000400798004E009000E90F500011003200E3
:1025B0004E009000E90F500004003C004E009000D7
:1025C000E80F500008003200130037004E00900062
:1025D000EA0F50000A0032004E009000EF0F50004A
:1025E0000A0032000C00370070562E00CD1707008D
:1025F0000B003700E0562E00CA170700080037000E
:1026000050572E00C717070005003700C0572E008F
:10261000C41707000200370000582E00C11707003A
:1026200080582E00A9170700630047001040900053
:102630000080FB004700DE000004E00003003A00D9
:1026400040592E00B717070002003700B0592E007E
:10265000B4170700B05A2E009C170700630047000C
:10266000104090008080FB0080F72F000080600009
:102670004380DE00204798002E4090000004E000D8
:1026800003003A00805B2E00901707001B00370004
:102690002E409000EF4F500003003A00C0572E002C
:1026A0008A1707001500370000042000000F78008B
:1026B000E30047000040EB00804878000800370046
:1026C0001E00780000004000000F78006300470003
:1026D000104078008040E80063004700014878001F
:1026E00063004700904078002E40900080CF50005B
:1026F000F3FF39001E00780005180700D0C0B300B2
:10270000D2180700A0C0B300D0180700605C2E00EC
:102710006E170700630047009040900070C0B30040
:1027200000C060002047980010002000000F7800D3
:10273000E30047000040EB008048780008003700C5
:102740001E00780000004000000F78006300470082
:10275000104078008040E80063004700014878009E
:1027600063004700904078002E40900080CF5000DA
:10277000F3FF39001E00780014180700D0C0B30022
:10278000B2180700A0C0B300B01807004F047800CB
:102790000080FA00000006000A00FA00004F7800EE
:1027A00011079800220798001E80FB006101B90004
:1027B0003207980043079800C00120000100200064
:1027C0003E019000CE019000800F5100818F590092
:1027D000DE003E003E009000CE0090000060010050
:1027E0001C0037003E0037006A00370069003700E0
:1027F00073003700D2003700770037007F003700C2
:10280000870037008D0037009100370095003700B2
:1028100099003700CD003700CC003700CB003700DF
:10282000CA003700C9003700C8003700C7003700AA
:10283000C6003700C5003700C4003700C3003700AA
:1028400092003700B0003700C2003700BF003700E9
:10285000C00037002E009000E10F500006003A0043
:1028600010C0B3009018070000C0EB002A1E07003C
:10287000580307001500370020C0B3008A1807006E
:102880002E0090005303070030C0B30086180700E5
:102890000000EB00E0DE88000800370000C0EB001D
:1028A0001D1E07004B03070000C2B3006718070096
:1028B000E0DE80000000E800E0DE8800E1DE80006D
:1028C0002E009000808F5000F4FF3900D0C0B3007C
:1028D0005E180700A0C0B3005C1807009D00370019
:1028E00040C0B300701807001E00900039030700B5
:1028F0002E009000E10F50000E003A001E009000E4
:10290000051E0700DEFBB700E0DBBF006140600092
:102910000004E0001A00320000C2B3004B180700A8
:1029200010C0B30060180700DEDBBF0029030700FA
:1029300013003700C0CD2E00E41607002E009000D3
:102940002403070050C0B300571807000000EB0035
:10295000E0DE8800060037001E009000EE1D070034
:10296000DEFBB700E0DE80000000E800E0DE88006B
:10297000E1DE80002E009000808F5000F6FF3900CD
:10298000D0C0B30031180700A0C0B3002F18070053
:102990007000370031C0B3009ECF100002003A0033
:1029A000E01BA80001003700E01BA9000040EB007D
:1029B000CA1E0700A0C0B3003B180700650037001F
:1029C000E01BA90010C0B300C41E0700B0C0B300D4
:1029D000351807005F003700D0C0B3003218070079
:1029E000771E0700B2160700D0C0B3001718070003
:1029F000A0C0B3001518070056003700E0C0B300B0
:102A000029180700BE1E0700A9160700D0C0B30092
:102A10000E180700A0C0B3000C1807004D003700C7
:102A20002E009000EB02070000C1B3001E18070043
:102A30002E009000841E07004600370010C1B3002E
:102A40001918070010C0B3009B1E07004100370093
:102A500020C1B300141807000040EB00961E0700C9
:102A60003C00370030C1B3000F18070010C0B3009E
:102A7000881E07003700370040C1B3000A1807005E
:102A80000040EB00831E07003200370010C3B30084
:102A9000051807001200200021002000100020006F
:102AA0000B1507000040E9006140600061416000D3
:102AB000A180200091407800E0CFB30000C060000A
:102AC000024070000AE8B700E0C1B300F617070043
:102AD000120020002100200010002000FC1407003C
:102AE0000040EA0061406000C700DD000AC8BF0086
:102AF0000074A100014070000AE8B7000A68A8004D
:102B00000AA8A80013003700E01BA9000AC8BF00EC
:102B1000614060008040780030C0B300351D070080
:102B2000C922A900C902A900C8E2A80010C0B300C8
:102B30006A1E07000040EB00DB17070005003700A6
:102B400070C1B300D81707000200370080C1B3007E
:102B5000D51707000080FA00000006000C00FA00FC
:102B6000004F780011079800220798001E80FB0094
:102B70006101B9003207980043079800C0012000A6
:102B8000010020003E019000CE019000800F510016
:102B9000818F5900EF003E003E009000CE00900073
:102BA000006001002A0037004E0037001A0037008D
:102BB0001900370022003700CC003700E50037004D
:102BC000E4003700E3003700E2003700E10037009F
:102BD000E0003700DF003700DE003700DD0037009F
:102BE000DC003700DB003700DA003700D90037009F
:102BF000D8003700D7003700D6003700D50037009F
:102C0000D400370064003700B1003700B50037004A
:102C1000D0003700D100370031C0B3009ECF100084
:102C200002003A00E67BA80001003700E67BA9001D
:102C3000CAC2A900A0C0B3009B170700C700370095
:102C4000CAC2A800B0C0B30097170700C30037007E
:102C50002E009000E10F500008003A0010C0B300B1
:102C60009117070000C0EB0024010700E4FBB70048
:102C7000E4DBBF00570207001500370020C0B30097
:102C8000891707002E0090005202070030C0B300E1
:102C9000851707000000EB0010DF880008003700F0
:102CA00000C0EB00150107004A02070000C2B30094
:102CB0006617070010DF80000000E80010DF8800C2
:102CC00011DF80002E009000808F5000F4FF39004B
:102CD000D0C0B3005D170700A0C0B3005B170700AA
:102CE0009E00370040C0B3006F1707001E00900021
:102CF000380207002E009000E10F50000E003A004D
:102D00001E009000FD000700E4FBB700E6DBBF00FB
:102D1000684060000004E0001A00320000C2B30006
:102D20004A17070010C0B3005F170700E4DBBF00BD
:102D30002802070013003700A08D2E00E3150700BE
:102D40002E0090002302070050C0B3005617070062
:102D50000000EB0010DF8800060037001E00900026
:102D6000E6000700E4FBB70010DF80000000E80089
:102D700010DF880011DF80002E009000808F50004F
:102D8000F6FF3900D0C0B30030170700A0C0B30071
:102D90002E17070071003700E08D2E00E1150700A7
:102DA00012002000410020001000200048140700FD
:102DB0000040E9006140600061416000A1802000A6
:102DC00091407800E0CFB30000C060000240700086
:102DD0000AE8B700E0C2B300331707001200200072
:102DE0002100200010002000391407000040E900F5
:102DF000614060006141600061BE21009140780047
:102E0000E0CFB30000C0600002407000E6FBB700F6
:102E1000F0C2B30024170700220020002100200088
:102E2000100020002A1407000040E9006140600003
:102E3000614060000041400061BE21009140780087
:102E4000D0CFB30000C0600002407000E6FBB700C6
:102E500000C3B30014170700120020002100200057
:102E6000100020001A1407000040E90061406000D3
:102E7000614060004201DD0061BE210091407800A8
:102E8000B0CFB30000C0600002407000E6FBB700A6
:102E9000E0C1B30004170700120020002100200049
:102EA000100020000A1407000040EA0061406000A2
:102EB000C700DD000AC8BF000074A1000140700017
:102EC0000AE8B7000A68A9000AA8A800230037008A
:102ED000E67BA900230007000040EB00F216070084
:102EE0001E003700710007001C0037001E01900013
:102EF00052079800DE0190000300E0000400320059
:102F00005E009000E10F5000040032000E00370018
:102F100060912E00831507001000370080932E006B
:102F20008015070012002000310020001000200052
:102F3000E71307000040E900E4FBB700E4DBBF0053
:102F40007C0007000500370070C1B300D6160700EB
:102F50000200370080C1B300D31607000080FA00DA
:102F6000000006000000FA0041E2A9000AC8BF0004
:102F700001C8B300014060000004E000030032001B
:102F8000CEE2A800CF02A800CEC2A800816A20002D
:102F90009140780000CEB30000C060007040B300E4
:102FA000A8E6B700916C20009140780000CEB300F5
:102FB00000C060007040B300C9E6B700816C20001B
:102FC0009140780000CEB30000C060000034A00043
:102FD000C8E6B700CAC2A800C8C2A900C902A900B1
:102FE000C8E2A800C922A9000AC8BF006140600069
:102FF0008080FB00E0BF210000804000104078008E
:103000000080FB001012880042A2A800E6DBBF008F
:1030100061406000614060004601DD002124200025
:1030200091407800F0CBB30000C060000240700017
:1030300042E2B700E6DBBF000080FB000000D100E9
:1030400061406000614160003124200091407800BF
:10305000E0CFB30000C060000240700043E2B70060
:10306000E6DBBF000080FB004200DE006140600044
:103070006140600000414000312420009140780010
:10308000D0CFB30000C060000240700043E2B70040
:103090000000EB00201288000000EB000012880006
:1030A00041E2A8000080FA00000006000000FA00DB
:1030B00041E2A900A8C6BF00F041B300A8E6B700EE
:1030C000916C20009140780000CEB30000C06000F9
:1030D000C9E6B700816C20009140780000CEB300B3
:1030E00000C06000C8E6B700CEE2A900CF02A90088
:1030F000CEC2A9000080FA00000006000200FA001B
:10310000004F78001E80FB004012880085C0BF0081
:10311000644060000004E000FCFF320040128000C8
:10312000004F78008540A9001E80FB000080FA0057
:10313000000006000400FA0020479800E0962E00E8
:10314000F8140700D9FF07004D0007002E4090003B
:10315000E14F500008003E00CAC2BF000080FB00E3
:103160004600DE0061406000804078002E40900004
:1031700080CF500008003A0041C2BF0001C8B30030
:10318000014060000004E0000E003A0041E2A800A7
:1031900061E2A8000B00370041C2BF0001C8B300C4
:1031A000014060000004E0000600320041E2A90096
:1031B00061E2A900D0C0B30024160700A0C0B3008C
:1031C0002216070040C2BF000042B2000004E00027
:1031D00004003A0040128000004F78001E40780042
:1031E000FC00070060C2BF000042B2000004E00023
:1031F00008003A0040138000004F7800E0982E004D
:10320000B21407001E407800F200070000992E005B
:10321000AE14070040C2BF000044B2000004E0004A
:1032200004003A0060C2BF000044B2000004E000A5
:103230000500320030992E00BA14070040C2A900E0
:1032400060C2A9000A00370022C2BF0061406000CE
:103250000004E000BDFF320030118000004F780014
:10326000D0C0B300F9150700A0C0B300F7150700E0
:10327000720007003BFF07000080FA000000060014
:103280000000FA00C8C2A800C902A800C8E2A8004D
:10329000C922A800816A20009140780000CEB300C6
:1032A00000C060009040B300A8E6B700916A20001B
:1032B0009140780000CEB30000C060000034A00050
:1032C000A9E6B700C16A20009140780000CEB300A3
:1032D00000C060007040B300ACE6B700D16A2000C7
:1032E0009140780000CEB30000C060000034A00020
:1032F000ADE6B7000AC8BF00614060008080FB00F7
:10330000E0BF210000804000104078000080FB00FA
:1033100010128800E6DBBF00614060006140600081
:103320004601DD002124200091407800F0CBB3005D
:1033300000C060000240700042E2B700E6DBBF0060
:103340000080FB000000D10061406000614160002E
:103350003124200091407800E0CFB30000C060002D
:103360000240700043E2B7000000EB00201288002A
:103370000000EB00001288000AC8BF006140600036
:103380008080FB00E0BF21000080400010407800FA
:103390000080FB0010138800E6DBBF006140600086
:1033A000614060004601DD00212620009140780048
:1033B000F0CBB30000C060000240700062E2B700D2
:1033C000E6DBBF000080FB000000D1006140600030
:1033D000614160003126200091407800E0CFB300C9
:1033E00000C060000240700063E2B7000000EB0024
:1033F000201388000000EB00001388000000EB00A1
:10340000401288000000EB00401388004322A9000E
:103410006322A9004362A80042A2A9006362A80037
:1034200062A2A90040C2A90060C2A9004402A8008B
:103430006402A8000080FA00000006000000FA0004
:1034400041E2A9004362A90061E2A9006362A90008
:10345000A8C6BF00F041B300A8E6B700A9C6BF00E8
:10346000F041B300A9E6B700ACC6BF00F041B3001D
:10347000ACE6B700ADC6BF00F041B300ADE6B700A3
:103480000080FA00000006000000FA000AE8A90027
:103490000A08A9000A48A9000A28A9000A68A90080
:1034A0000A88A9000AA8A9000AC8A9000B08A9004F
:1034B0000080FA00000006000000FA00C922A800FF
:1034C000C902A800C8E2A800C8C2A800C942A80052
:1034D000C222A900C022A9000000EB002040880001
:1034E000E9FF0700CB62A900C962A900C002A900D8
:1034F000C202A9002D23A9002D43A9002D63A90014
:103500002D83A900013220009140780000CEB30045
:1035100000C0700020E3B7000000EB0080198800B5
:1035200020F02100201988000000EB00101988000D
:103530000080FA00000006000200FA00004F780048
:103540001E80FB00401988002023A8002003A9004A
:1035500020C3BF00614060000004E000FCFF3200B7
:10356000001880000080FA00000006000000FA0049
:1035700021E3A800C0C0B300EFFF0700F814070064
:1035800021E3A9000080FA00000006000000FA0014
:1035900000C8BF000080FB008000400020B7210071
:1035A0000080400010007800401188000000EB000F
:1035B000001188002062A8000000EB0010118800B4
:1035C00021E2A8002342A8008560A9000080FA003B
:1035D000000006000400FA00004F78001040800050
:1035E000100798001E009000E10F50000D003200FF
:1035F0001E009000E10F5000070039001E009000EF
:10360000E20F50000A0032001E009000E30F50004D
:103610000A0032000B0037001E80FB009C140700DC
:10362000080037001E4078006814070005003700C6
:103630001E407800D5130700020037001E407800B6
:10364000021507000080FA00000006000600FA00DC
:10365000404798000040EB00204798000E003700DC
:103660000000EB00000F780005003700A0CFB3008A
:103670000F0007001E0078000000E800000F78002F
:103680001E007800E30F5000F8FF36002E40900037
:103690000040E80020479800AE4090004E40900067
:1036A00080CF5000EEFF39000080FA0000000600D5
:1036B0000400FA00204798000040EB00004F78001B
:1036C00013003700000000000000000000000000B0
:1036D00000000000000000000000000000000000EA
:1036E00000000000000000000000000000000000DA
:1036F00000000000000000000000000000000000CA
:10370000000000001E4078000040E800004F7800F4
:103710009E4078002E40900080CF5000E9FF390095
:103720000080FA00000006000C00FA00004F78004C
:10373000110798002207980096DBBF00E14F500068
:1037400030003A0000C2B300C014070030C0B3001C
:103750009E4F10000600320021C0B3009ECF100023
:103760000300320042C0B3009E4F11000F003A0028
:1037700070C0B300CC140700D0C0B300B31407006E
:10378000A0C0B300B114070097DBBF000004E00045
:1037900003003A0010C0B3001A1B070017003700DF
:1037A00010C0B3009102070014003700C3C1B3007A
:1037B0009ECF110003003A0080352E0059130700F8
:1037C000BC01370060C0B300B7140700D0C0B3001D
:1037D0009E140700A0C0B3009C14070097DBBF0035
:1037E0000004E00003003A000040EB00051B070066
:1037F000020037000040EB007C0207000040EB00B5
:1038000096FBB7001E80FB006101B90032079800EB
:1038100043079800C0012000010020003E019000F5
:10382000CE019000800F5100818F59009F013E0012
:103830003E009000CE009000006001001C003700A8
:10384000590037008A00370089003700910037009F
:10385000E4003700950137009401370093013700E9
:103860009201370091013700900137008F01370036
:103870008E0137008D0137008C0137008B01370036
:103880008A01370089013700880137008701370036
:103890008601370085013700840137008600370034
:1038A000B8003700C80037008001370081013700B9
:1038B0002E009000E10F50000D003A0010C0B30040
:1038C0007914070097DBBF000004E00003003A0012
:1038D0008B1A070099FBB70002003700600207004F
:1038E00099FBB70099DBBF003AFF07002B003700B8
:1038F00020C0B3006C1407002E00900035FF0700B5
:1039000030C0B300681407000000EB00D0DC880072
:103910001E003700D0DC80000000E0000E00320006
:1039200000C2B3004914070060C0B3005E14070072
:1039300000C2B3004514070097DBBF000004E0009D
:1039400003003A000040EB00AE1A07000200370007
:103950000040EB002502070097DBBF000004E000F9
:1039600003003A00661A070099FBB700020037000F
:103970003B02070099FBB70099DBBF0015FF07006A
:10398000D0DC80000000E800D0DC8800D1DC8000C2
:103990002E009000808F5000DEFF390010C0B30071
:1039A00096FBB7004301370040C0B3003E14070048
:1039B0001E00900007FF07002E009000E10F50004E
:1039C0000600360080362E00C01207002E00900040
:1039D00000FF070050C0B300331407000000EB00E5
:1039E000D0DC88000F00370097DBBF000004E00048
:1039F00005003A001E009000101A0700701A070018
:103A000099FBB700040037001E0090000A0207006F
:103A1000EF01070099FBB700D0DC80000000E80050
:103A2000D0DC8800D1DC80002E009000808F500018
:103A3000EDFF390000C2B3000414070099DBBF009A
:103A40000004E00003003A0060C0B3001614070051
:103A50000200370070C0B30013140700D0C0B300D9
:103A6000FA130700A0C0B300F813070011013700D4
:103A700097DBBF000004E00002003A008019070055
:103A800001003700C201070080C0B3000614070020
:103A90000801370097DBBF000004E00002003A0095
:103AA0008A19070001003700C101070090C0B30068
:103AB000FD130700FF0037000AE8A8000AA8A800C5
:103AC000C0362E00971207001200200021002000AF
:103AD00010002000FE1007000040E90097FBB7002F
:103AE00097DBBF000004E00010003A0010C3B300F1
:103AF000ED1307001200200021002000100020001C
:103B0000F31007000040E90061406000614160007F
:103B1000A180200091407800E0CFB30000C0600099
:103B2000024070000AE8B700E20037004140800020
:103B300030002300808F500002003E0020392E000C
:103B400078120700803C2E00761207001200200039
:103B50003100200010002000DD1007000040E900C7
:103B60006140600061416000A180200091407800C8
:103B7000E0CFB30000C06000024070000AE8B70068
:103B8000CC00370097DBBF000004E0000A003A00D9
:103B9000C922A800C902A800CB02A900CB22A90013
:103BA0000AC8BF00614060008040780020C0B300B8
:103BB0001019070001003700B40107000040EB00B6
:103BC000B9130700BB0037000040EB0096FBB700BD
:103BD00097DBBF00E14F5000B6003A0007E2A900B2
:103BE000B40037009E009000510798005E019000DD
:103BF000E10F51000D003200DE019000E18F510015
:103C0000070039005E009000E20F50004E003200C5
:103C1000DE009000E38F50008F003200A0003700DC
:103C2000503F2E003F120700A2003700B0412E0087
:103C30003C1207000000EB00D0DC880039003700A0
:103C400097DBBF000004E00006003A000C190700F3
:103C5000D0DC800079190700D919070099FBB7005B
:103C6000050037004A010700D0DC80007201070020
:103C70005701070099FBB70099DBBF000004E00083
:103C80001F003A00D0DC800052FE070080C2B30063
:103C90006E130700D0DC80000000D1004DFE07004D
:103CA000D0DC80000000A200610060000004E000A1
:103CB0000300320040452E00041207000C003700BC
:103CC00097DBBF000004E00004003A008C190700F5
:103CD00010C0B300CB1907000300370060010700D4
:103CE00010C0B3004101070070452E00F711070016
:103CF000A0452E00F511070000C2B30053130700C2
:103D000097DBBF000004E00002003A00EF18070054
:103D10000100370026010700D0DC80000000E80029
:103D2000D0DC8800D1DC8000F00F2000808F5000B4
:103D3000C3FF3600D0C0B30044130700A0C0B300D7
:103D4000421307005B003700C0452E00DF1107005B
:103D500002052000F1072000A00020005C100700F1
:103D600099FBB70099DBBF000040400099FBB7000A
:103D7000D0462E00D5110700F20F2000F10F2000D1
:103D8000A00020005210070098FBB70030472E001B
:103D9000CE110700BA18070099DBBF0027190700EA
:103DA000871907000040EB00241907008419070059
:103DB0000040EB002119070081190700B018070027
:103DC00099DBBF000040E80099FBB70099DBBF001A
:103DD0001A1907007A19070098DBBF000040E900B4
:103DE00098FBB7000000EB00D0DC88000C00370027
:103DF00043190700F7FD07000040EB008119070099
:103E000010408000E20F500002003E0000C2B300EC
:103E10000E130700D0DC80000000E800D0DC880032
:103E200098DBBF008080FB00D0DC8000808F5000DA
:103E3000EFFF3E0032190700E6FD070010C0B30097
:103E400070190700D0C0B30000130700A0C0B30072
:103E5000FE1207001700370097DBBF000004E000E8
:103E60000F003A0080482E00AE1107001300070033
:103E70003500070022C2BF00614060000004E0007E
:103E8000FBFF320030118000D0DC8800D0C0B300CE
:103E9000EE120700A0C0B300EC12070005003700C7
:103EA00070C1B300001307000200370080C1B300E7
:103EB000FD1207000080FA00000006000000FA0072
:103EC000C922A800C902A800CB02A900CB22A900E0
:103ED00062A0A80062C0A8008660A9000000EB00F4
:103EE000E0DC88000040EB00A1FBB700CBC2BF00C4
:103EF0000080FB000000D100614060006141600073
:103F000001BA210091407800E0CFB30000C060000A
:103F100002407000A0FBB700CBC2BF006140600050
:103F2000614060004201DD0001BA2100914078004B
:103F3000B0CFB30000C0600002407000A0FBB7002B
:103F40000080FA00000006000400FA0086C0BF00EE
:103F5000684060000004E0008B003200CBC2BF006C
:103F60000080FB000000D100614060006140600003
:103F70000041400001BA210091407800D0CFB30049
:103F800000C0600002407000A0FBB700CBC2BF00C1
:103F900061406000614060004301DD0001BA210022
:103FA0009140780070CFB30000C060000240700004
:103FB000A0FBB7008660A900A0DBBF0064406000E2
:103FC0000004E00022003200A0DBBF006840600077
:103FD0000004E0001E003200A0DBBF006140600072
:103FE0000004E0000B003200A0DBBF006240600074
:103FF0000004E00007003A0020002000E0DC880018
:104000000040EB00A1FBB700B0C5B3008F12070062
:1040100046003700A0DBBF00614060000004E00004
:1040200042003A00A0DBBF00624060000004E000F4
:104030003E0032000000EB00E0DC88000040EB00B6
:10404000A1FBB700D0C5B3008012070037003700CE
:10405000A0DBBF00644060000004E00033003A00D1
:10406000A0DBBF00684060000004E0002F003200C9
:10407000E0DC8000100798001E009000E20F500066
:10408000040032001E009000E30F500017003200C1
:10409000260037009EDBBF00004040009EFBB700BB
:1040A000A0DBBF000080FB000000D1006140600089
:1040B000804078009EDBBF0000C040009EFBB70040
:1040C000A1DBBF000040E800A1FBB700A1DBBF00FF
:1040D000E84F500015003A000040EB00A1FBB7008C
:1040E00030002000E0DC880010003700CBC2BF00A9
:1040F0000080FB000000D10061406000004F7800AC
:104100009EDBBF0033FD07001E04E0000300320009
:10411000D0C2B3004D12070002003700B0C2B30096
:104120004A12070020002000E0DC8800A0DBBF006E
:104130000080FB000000D100614060006141600030
:1041400001BA210091407800E0CFB30000C06000C8
:1041500002407000A0FBB700A0DBBF000080FB00A6
:104160004300DE0061406000614060004201DD000C
:1041700001BA210091407800B0CFB30000C06000C8
:1041800002407000A0FBB7000080FA0000000600AB
:104190000000FA000602A80006C2BF0061406000ED
:1041A0000004E000FCFF3A000080FA000000060076
:1041B0000000FA000642A80006C2BF00644060008A
:1041C0000004E000FCFF3A000080FA000000060056
:1041D0000000FA0009C2BF000080FB004700DE00BB
:1041E0000080FB000080FA00000006000200FA00D8
:1041F000004F78009E40780061C060006140600020
:104200004501DD006120200091407800F0CDB30031
:1042100000C060000240700006E2B7000682A800FD
:1042200006C2BF00704060000004E000FCFF3A00DE
:104230000080FA00000006000200FA00004F78003B
:104240001E40780002E2B70009C2BF000044B2007D
:104250000004E000FCFF3A000080FA0000000600C5
:104260000200FA000662A80006C2BF0068406000B3
:104270000004E000FCFF3A0000C2BF00004F7800DD
:104280001E80FB000080FA00000006000000FA001B
:104290000742A9000782A9000000EB005010880027
:1042A0000000EB00601088000702A9000AC8BF00E8
:1042B000614060008080FB0020C021000080400041
:1042C000104078000080FB002010880007E2A80062
:1042D0000080FA00000006000C00FA00004F780091
:1042E00011079800220798001E80FB006101B900A9
:1042F0003207980043079800C00120000100200009
:104300003E019000CE019000800F5100818F590036
:104310002F013E003E009000CE00900000600100A2
:104320004B0037006D003700390037003E00370082
:1043300043003700B90037008B0037009500370085
:104340009F003700A5003700A8003700AB003700FA
:10435000AE0037001E0137001D0137001C01370079
:104360001B0137001A013700190137001801370007
:104370001701370016013700150137001401370007
:10438000040037001E00370013013700100137000A
:1043900011013700E0C1B300C31107001200200073
:1043A0002100200010002000C90E07000040E90095
:1043B000614060006141600061BB21009140780074
:1043C000E0CFB30000C0600002407000B6FBB70051
:1043D000B6DBBF006140600000C0EA0061406000E1
:1043E000C700DD000AC8BF000074A10001407000D2
:1043F0000AE8B7000A68A8000AA8A800F600370073
:10440000860107000040EB00A7110700F20037000B
:10441000F300070020C0B3004301070020F32D0084
:1044200040100700EC003700ED00070030C0B3007B
:104430003D010700C0F52D003A100700E6003700E7
:10444000E700070040F82D0036100700E2003700B3
:104450002E009000E10F500007003A00E001070035
:10446000B4FBB70010C0B3008F110700B4DBBF006E
:1044700058FC07001400370020C0B3008A11070061
:104480002E00900053FC070030C0B30086110700D7
:104490000000EB0090DD880007003700D001070026
:1044A0004CFC070000C2B3006811070090DD8000DB
:1044B0000000E80090DD880091DD80002E00900073
:1044C000808F5000F5FF3900D0C0B3005F110700A6
:1044D000A0C0B3005D110700BF00370040C0B300AB
:1044E000711107001E0090003AFC07002E0090009A
:1044F000E10F500004003A001E0090005201070036
:10450000B4FBB7001300370010F92D00EF0F0700C0
:104510002E0090002FFC070050C0B300621107006E
:104520000000EB0090DD8800060037001E009000C0
:1045300045010700B4FBB70090DD80000000E800F3
:1045400090DD880091DD80002E009000808F50006B
:10455000F6FF3900D0C0B3003C110700A0C0B30083
:104560003A1107009C003700E1010700B4FBB700D7
:10457000D0C0B3004C110700B4DBBF00CC0F070064
:10458000D0C0B30031110700A0C0B3002F11070045
:1045900091003700E0C0B30043110700DE010700BF
:1045A000B4FBB700B4DBBF00C10F0700D0C0B3003D
:1045B00026110700A0C0B3002411070086003700B1
:1045C0002E00900003FC070000C1B3003611070065
:1045D0002E009000F90107007F00370010C1B300E2
:1045E00031110700020207007B00370020C1B30031
:1045F0002D110700170207007700370030C1B30004
:1046000029110700CB0107007300370040C1B30038
:1046100025110700E20107006F0037009E0090009F
:10462000510798005E019000E10F51000D0032002B
:10463000DE019000E18F5100070039005E0090001C
:10464000E20F50000C003200DE009000E38F5000BB
:10465000550032005B00370050F92D009B0F07001A
:104660005D003700A700070020FE2D00AD0F0700FA
:104670005B0007005800370000FF2D00A90F07005E
:10468000A000070020FE2D00A60F0700A9010700CB
:104690005300070020C0B300A300070000C0EB00D8
:1046A000C601070000C0EB00C40107004C00070072
:1046B00030C0B3009C0007000000EB0090DD8800D4
:1046C0000700370090DD80000000E80090DD8800E2
:1046D00091DD8000900F2000808F500003003E008D
:1046E000830107000004E000F6FF32003C000700F1
:1046F0008400070020FE2D008A0F07003800070005
:1047000030C0B3008800070090DD8000B1FB0700D7
:1047100000002E00830F07000040EB00B4FBB70041
:104720001A003700B4DBBF000040E800A9FB070017
:1047300090012E00650F070029010700A5FB070067
:1047400000C2B300C110070025010700A1FB07004C
:1047500000C2B300BD100700210107009DFB070048
:1047600000C2B300B91007001D01070099FB070044
:10477000D0C0B300B5100700A0C0B300B31007004D
:10478000B4DBBF000040E800B4FBB700B4DBBF00FF
:104790008080FB0090DD8000808F5000E1FF3900B9
:1047A0000F0007000C003700D0012E005D0F07003E
:1047B00000062E005B0F070050092E00590F07005E
:1047C0000500370070C1B300B710070002003700C2
:1047D00080C1B300B41007000080FA00000006009A
:1047E0000200FA00000C2E00380F0700AEDBBF00FD
:1047F0000080FB00000F78001E007800E10F5000E1
:104800000E0032001E007800E10F500004003C0052
:104810001E0078000000E0000B0032003500370079
:104820001E007800E20F50000F0032001E007800DA
:10483000E30F5000240032002E003700900C2E00B1
:10484000380F07002D003700A401070010C0B30087
:104850005A01070010C0B300AEFBB700600D2E0078
:10486000300F070025003700AFDBBF00E14F5000DD
:104870000A003A00B0DBBF00E14F500002003A00EE
:104880002C01070001003700450107000040EB0044
:10489000AFFBB700200E2E000C0F070074010700BD
:1048A00020C0B300450107008C01070010C0B30011
:1048B0004201070010C0B300AEFBB700700F2E001E
:1048C000180F07000D0037006901070020C0B30072
:1048D0003A0107008101070010C0B300370107004B
:1048E00010C0B300AEFBB70000102E000D0F070084
:1048F0000200370090102E000A0F07000080FA0017
:10490000000006000000FA0059010700A0C0B30033
:104910002A010700710107000040EB00AEFBB70061
:104920000080FA00000006000400FA00004F780042
:10493000AEDBBF00E14F50000200320070112E00CC
:10494000F80E0700000C2E00E00E07001E80FB0092
:10495000100798001E009000E10F50000E0032007A
:104960001E009000E10F500004003C001E0090006B
:104970000000E0000B003200240037001E00900011
:10498000E20F5000160032001E009000E30F5000AE
:10499000080032001D003700900C2E00E10E0700C9
:1049A0001C003700D7FF070030132E00DD0E070074
:1049B000180037002E01070010C0B300FF000700E9
:1049C0004601070020C0B300FC00070030C0B30060
:1049D000AEFBB70090132E00D20E07000D0037007B
:1049E0002301070020C0B300F40007003B010700CB
:1049F00020C0B300F100070020C0B300AEFBB70039
:104A0000D0142E00C70E07000200370020182E0019
:104A1000C40E07000080FA00000006000000FA0043
:104A2000C8E2A800C902A900C922A900C8C2A900F9
:104A3000CAE2A900CB02A900CB22A900CAC2A900E0
:104A40000080FA00000006000800FA0040479800C5
:104A500000010700AFDBBF00E14F500006003A0045
:104A6000B0DBBF00910007000040EB00AFFBB700D8
:104A7000C0192E00AB0E07000AC8BF0070406000CE
:104A80000004E0000300320010C0B300004F7800C3
:104A90000200370000C8B300004F78000040EB0070
:104AA00030479800450037004E4090001E4060009F
:104AB0000004E00002003A00B900070001003700DE
:104AC0009C000700CA000700CAC2BF000080FB00AC
:104AD0004700DE00204798000AC8BF007040600011
:104AE0000004E000100032004E4090000080FB0007
:104AF0000000D100404798001E4090000080FB005D
:104B00000000D100104798002E409000E14F500067
:104B100011003A001E40900001C8B300014040005F
:104B2000104798000C0037004E40900000404000B5
:104B3000404798001E4090000040400010479800F9
:104B40002E409000E14F500003003A001E409000BC
:104B50000040E80010479800BE000700AEDBBF0031
:104B6000E24F500012003A003E409000E64F5000E5
:104B70000F003A0010C0B300AFFBB7004E409000EA
:104B80001E4060000004E00003003A000040EB001B
:104B9000B0FBB7000200370010C0B300B0FBB70095
:104BA0001E4090000080FB0030079800090037008D
:104BB0003E4090000040E800304798003E409000A2
:104BC000E74F5000B8FF36001E4090000080FB0009
:104BD000300798003E0090000080FA0000000600B8
:104BE0000400FA009B000700AFDBBF00E14F50005C
:104BF00006003A00B0DBBF002C0007000040EB00CD
:104C0000AFFBB700C0192E00460E07000040EB00B6
:104C1000204798001F00370075000700CAC2BF0078
:104C20000080FB004700DE00104798000AC8BF0064
:104C3000704060000004E00008003A001E40780068
:104C400000404000004F78001E4090000004E0004B
:104C50000C0032001E4FE8000A0037001E80FB00E7
:104C60000000D100004F78001E4090000004E000DA
:104C7000040032001E40780001C8B300014040002B
:104C8000004F7800730007002E4090000040E800BD
:104C9000204798002E409000E74F5000DEFF36007E
:104CA0001E80FB000080FA00000006000400FA00ED
:104CB000204798002E4090000004E00002003A00D7
:104CC00037000700010037001A00070048000700FE
:104CD000CAC2BF000080FB004700DE00004F780022
:104CE0005C0007001E80FB000080FA000000060048
:104CF0000200FA003E000700CAC2BF000080FB00AD
:104D00004700DE00004F7800520007001E80FB00C5
:104D10000080FA00000006000000FA00CAC2BF00CE
:104D20000080FB004700DE000080FB000080FA00EE
:104D3000000006000000FA00B6DBBF006140600022
:104D400000C0EA0061406000614060000041400036
:104D5000912C200091407800D0CFB30000C06000BB
:104D600002407000C9E2B700B6DBBF0061406000DE
:104D70006140600000414000B12C2000914078006B
:104D8000D0CFB30000C0600002407000CBE2B7009B
:104D900040C1B30046FA07000080FA000000060098
:104DA0000000FA00CB22A900C922A90040C1B3002B
:104DB0003FFA07000080FA00000006000400FA0035
:104DC000204798000040EB00004F780003003700B8
:104DD000070007001F0007001E4FE8002E4090004C
:104DE0009E4F1000FAFF39000080FA000000060014
:104DF0000000FA00B6DBBF006140600000C0EA00BE
:104E00006140600061416000912C20009140780079
:104E1000E0CFB30000C0600002407000C9E2B700FC
:104E2000B6DBBF006140600061416000B12C200032
:104E300091407800E0CFB30000C0600002407000F5
:104E4000CBE2B70040C6B30019FA07000080FA00B1
:104E5000000006000000FA00CB02A900C902A90068
:104E600040C6B30012FA07000080FA0000000600F6
:104E70000000FA00B6DBBF006140600000C0EA003D
:104E800061406000614060004601DD00812C20002F
:104E900091407800F0CBB30000C060000240700089
:104EA000C8E2B700B6DBBF0061406000614060004F
:104EB0004601DD00A12C200091407800F0CBB3002A
:104EC00000C0600002407000CAE2B70040C1B300F9
:104ED000F7F907000080FA00000006000000FA0061
:104EE000CAC2A900C8C2A90040C1B300F0F90700B6
:104EF0000080FA00000006000200FA00F0C2B300D1
:104F0000104798000040EB00004F7800C922A8002D
:104F1000CB22A900C922A90005003700A0C0B30018
:104F2000E3F907001E4090000040E9001047980098
:104F30001E4090000004E000F8FF3C00C922A800D9
:104F4000C0C3B300DAF90700CBC2BF000080FB008A
:104F50000000D1006140600006FCB70090C2B300C1
:104F60001047980005003700A0C0B300D0F9070033
:104F70001E4090000040E900104798001E4090003D
:104F80000004E000F8FF3C00CBC2BF000080FB0043
:104F90000000D1006140600007FCB70007DCBF00E3
:104FA0000004E00002003A0010C0B300004F780097
:104FB00006DCBF00E14F500003003A001E407800BD
:104FC00000C0E800004F7800A0C0B300B8F90700A7
:104FD0001E80FB000080FA00000006000400FA00BA
:104FE0002047980080C0B300004F78001D003700B4
:104FF0002E4090006140600008FCB700CB22A90061
:10500000C922A90050C0B300A9F9070008DCBF00FD
:10501000614060006140600000414000912C200030
:1050200091407800D0CFB30000C060000240700013
:10503000C9E2B70020C3B3009DF9070050C0B30018
:105040009BF90700C922A800A0C0B30098F9070087
:105050002E4090000080FB000000D1002047980007
:105060001E4FE9001E04E000E1FF3C00A0C0B300B9
:105070008FF907000080FA00000006000200FA0025
:10508000004F7800CB22A900C922A90050C0B3006C
:1050900087F907009E40780061C0600061406000B1
:1050A00000414000912C200091407800D0CFB30007
:1050B00000C0600002407000C9E2B70020C3B30026
:1050C0007BF9070050C0B30079F90700C922A80096
:1050D000A0C0B30076F907000080FA0000000600C7
:1050E0000200FA0080C0B300104798000040EB00B7
:1050F000004F78001D003700CB22A900C922A9006B
:1051000030C0B3006AF90700C922A80050C0B3003C
:1051100067F90700CBC2BF000080FB000000D10090
:105120006140600008FCB70040C3B30060F90700AD
:105130001E80FB000000D100004F780008DCBF009B
:10514000E14F500004003A001E40780001C8B3004F
:1051500001404000004F7800A0C0B30054F90700A0
:105160001E4090000040E900104798001E4090004B
:105170000004E000E0FF3C00A0C0B3004CF90700D1
:105180001E80FB000080FA00000006000000FA000C
:10519000CB22A900C922A90030C0B30044F90700FE
:1051A000C922A80050C0B30041F90700CBC2BF001C
:1051B0000080FB000000D1006140600008FCB700E7
:1051C00040C3B3003AF90700A0C0B30038F90700A4
:1051D00008DCBF000080FB000080FA000000060031
:1051E0000800FA0020079800310798000040EB0003
:1051F000004F78000000EB00100798000C0037000B
:105200001E009000800078002E009000008040007A
:10521000104078001E4068008080FB00206E2E0049
:10522000614F78001E0090000000E8001007980011
:105230009E0090003E009000808F5000F0FF3500EF
:105240001E80FB000080FA00000006000C00FA003F
:10525000881F7800004F78001107980022079800F7
:105260001E80FB006101B9003207980043079800D7
:10527000C0012000010020003E019000CE019000FE
:10528000800F5100818F5900C3013E003E00900005
:10529000CE009000006001001C0037004000370085
:1052A000600037005F003700BB0137009F00370008
:1052B0005E003700B801370065003700B6013700DF
:1052C000B50137007700370076003700B2013700AC
:1052D000B1013700B0013700AF013700AE01370030
:1052E000AD013700AC013700AB013700AA01370030
:1052F000A9013700A80137007D0037008000370082
:10530000A7013700A4013700A50137002E00900047
:10531000E10F500007003A0010C0B300E20D070093
:105320006FFF0700FDFAB700FDDABF00A9F807001C
:105330001600370020C0B300DB0D07002E009000E0
:10534000A4F8070030C0B300D70D07000000EB0041
:10535000D0D788000900370061FF0700FDFAB700C9
:10536000FDDABF009BF8070000C2B300B70D0700CD
:10537000D0D780000000E800D0D78800D1D78000C7
:105380002E009000808F5000F3FF3900D0C0B30092
:10539000AE0D0700A0C0B300AC0D070080013700C0
:1053A00040C0B300C00D07001E00900089F8070040
:1053B0002E009000E10F500003003A001E00900004
:1053C00006FF070012003700E0BF2D003F0C07006A
:1053D0002E0090007FF8070050C0B300B20D070008
:1053E0000000EB00D0D78800050037001E009000B9
:1053F000FAFE0700D0D780000000E800D0D7880070
:10540000D1D780002E009000808F5000F7FF390028
:10541000D0C0B3008D0D0700A0C0B3008B0D0700F6
:105420005F013700610107005D01370057FF07008A
:10543000FDFAB700D0C0B3009B0D0700FDDABF0036
:105440001B0C0700F0C0B300970D07005401370094
:105450002E0090005FF8070020C02D001B0C0700F5
:105460000000EB00D0D7880005003700F0DABF005D
:1054700002FF0700D0D780000000E800D0D78800E6
:10548000D1D780002E009000808F5000F7FF3900A8
:10549000F0DABF00060C070020C12D00210C070028
:1054A0003F01370040C12D00080C0700C1C0B30008
:1054B0009ECF100005003A000040EB00F0FAB70064
:1054C0000040EB00FA0B07000400370010C0B300E7
:1054D000F0FAB70010C0B300F50B070000C22D00B2
:1054E000100C0700F0DABF00E4FE07002C013700C3
:1054F0000A68A9000AA8A8000AE8A800280137003D
:105500000040EB00FEFAB700C922A800CB22A90098
:10551000B0C42D00030C0700C0C72D00010C07000C
:105520000040EB00600D07001D0137001E009000D9
:105530000000E000360032009E00900020032000B2
:10554000808F500032003E001E0090000000E900F5
:1055500010079800FEDABF008080FB001E0090005C
:10556000808F500003003E0060CA2D00ED0B070045
:105570000B01370000CD2D00D40B07001E0090005A
:105580000040E800910C0700F0CD2D00CF0B070084
:105590000040EB00FCFAB700170037001E01900036
:1055A000FCDABF008080FB004310DD00810040007A
:1055B000F0AF2100008040001040780005F807009F
:1055C00000C2B300210D07001E019000FCDABF00ED
:1055D0008080FB004310DD0081004000F0AF21001F
:1055E00000804000104078007CFE0700FCDABF001D
:1055F0000040E800FCFAB700FCDABF00E74F5000BB
:10560000E6FF360020CE2D00C60B0700E400370071
:105610001E0190005207980050052000DE01900006
:10562000808F5100CD00320050052000DE00900038
:10563000808F500008003E005E0190000200E000F4
:105640001200320030032000DE019000808F5100F4
:10565000A0003200CD003700C00E2000DE00900018
:10566000808F500046003200000F20005E01900045
:10567000800F510042003200C00C2000DE0190007B
:10568000808F5100BB003200C000370040CE2D009B
:10569000A40B070020CF2D00A20B0700FEDABF00ED
:1056A0000004E00003003A0060CA2D009D0B0700D3
:1056B000300037000040EB00FDFAB700280037004B
:1056C00000C2B300E10C0700FDDABF000040E800B3
:1056D0003E0C0700A0D02D007C0B07000040EB0023
:1056E000FCFAB7000F003700FDDABF000081FB00B5
:1056F000FCDABF008080FB004310DD008100400029
:10570000F0AF21000080400010407800B1F70700A2
:1057100000C2B300CD0C0700FCDABF000040E80077
:10572000FCFAB700FCDABF00E74F5000EEFF36008E
:10573000C0D02D00650B0700FDDABF000080FB0024
:10574000C300DD00F0AF2100008040001040780071
:10575000B7000700FDDABF000040E800FDFAB7001F
:10576000E1AF210091407800FDDABF0080CF50000A
:10577000D3FF3E0030D12D006A0B070088003700B0
:105780001E0090003CF9B7009E009000C00E200063
:10579000808F500003003A0070DE2D00610B07007F
:1057A00002003700B0DF2D005E0B070020CF2D0078
:1057B0005C0B07000040EB00FCFAB700CB000700D1
:1057C000FDFAB7000040EB00FEFAB7003B003700DF
:1057D00000C2B3009D0C0700FCDABF000040E800E7
:1057E000FA0B0700A0D02D00380B07000000EB00DB
:1057F000D0D788000A003700D1D78000F0B421004C
:10580000008040001040780072F7070000C2B3002B
:105810008E0C0700D0D780000000E800D0D78800A9
:10582000D0D78000E70F5000F3FF3600C0D02D0026
:10583000260B07004FDBBF007D000700FCDABF002E
:10584000E94F500018003E000000EB00D0D7880060
:105850000F003700FEDABF008081FB00D4D7800044
:10586000D1D78000F0B421000080400010417800C2
:105870004318DD0084004000F0AF210000804000AC
:1058800002487800D0D780000000E800D0D7880018
:10589000D0D78000E70F5000EEFF3600FEDABF00E1
:1058A0000040E800FEFAB700FCDABF000040E80064
:1058B000FCFAB70098000700FDFAB700FDDABF0058
:1058C0000004E000C2FF3A0090E02D00150B070035
:1058D000330037003500070050E32D00FB0A0700B6
:1058E00030C3B300BDFD07000000EB00D0D7880037
:1058F00010003700D8D78000F9FD070080407800FD
:1059000010AF21000000440001487800D1D780008A
:1059100010AF210000804000104078002DF70700F4
:1059200000C2B300490C0700D0D780000000E80097
:10593000D0D78800D0D78000E70F5000EDFF3600A9
:10594000D0C0B300410C0700A0C0B3003F0C07005B
:10595000F1DABF003600070011003700130007001E
:1059600070E42D00EF0A070050C5B3009BFD07004F
:105970000B0037000D00070080E52D00E90A070045
:10598000C0CCB30095FD07000500370070C1B3001F
:10599000450C07000200370080C1B300420C07002D
:1059A0004F0478000080FA00000006000200FA00B0
:1059B00051FD0700004F780080E62D00C30A070064
:1059C0001E04E00003003A0030E72D00D50A07006E
:1059D0001500370060E72D00BC0A07001E80FB00A1
:1059E000610060000004E00002003200E0E72D00EA
:1059F000B60A07001E80FB000000D10061006000B5
:105A00000004E0000200320040E92D00AF0A070068
:105A100090EA2D00AD0A07001E407800EDF6070061
:105A200020C12D00BF0A07000080FA000000060018
:105A30000400FA00004F78001E80FB001007980059
:105A4000200220009E009000808F50001A0032003B
:105A5000200220009E009000808F500007003C0034
:105A60001E009000E40F5000160032009E009000CF
:105A7000F08F50000A00320018003700800220002A
:105A80009E009000808F500008003200D00220005D
:105A90009E009000808F50000D0032000F003700F4
:105AA000B0EA2D009F0A07000E00370070EC2D00B1
:105AB0009C0A07000B00370020EE2D00990A070012
:105AC0000800370080EF2D00960A07000500370018
:105AD00010F12D00930A07000200370020F22D007C
:105AE000900A07000080FA00000006000000FA009B
:105AF0000040EB0057FBB7000040EB0059FBB7003C
:105B00000040EB0058FBB700080007000080FB00D6
:105B10000080FA00000006000000FA000300070001
:105B20000080FB000080FA00000006000A00FA0076
:105B300010C0B300704798000040EB006047980029
:105B40000040EB005047980010C0B3001047980089
:105B50000040EB00404798000040EB005AFBB700C4
:105B600059DBBF000004E0008B003A00E2FC0700B4
:105B70000004E000090032000040EB0057FBB700D2
:105B80000040EB0059FBB7000040EB0058FBB700AA
:105B90000000EB0040079800900037003CD9BF00A0
:105BA0000EFD070079FD07003047980077FD0700DC
:105BB000204798003E409000E14F500003003A001B
:105BC0002E409000E14F500063003200BE40900034
:105BD0002E40900080CF5000030032003E409000E5
:105BE000004F78002400370071B521009140780003
:105BF0007E409000814F50000E0031005E409000CA
:105C00008080FB00F0B421000080400090407800CC
:105C10001E40900080C060000040EB00004F780004
:105C20000104E0000B00320010C0B300004F780008
:105C30000800370057DBBF008040EB00014F7800C1
:105C4000FE40900080CF500002003A0010C0B30028
:105C5000004F78001E04E00007003A007E409000EC
:105C6000604798006E409000E84F500002003E00F0
:105C70006E40900058FBB70010C0B3009E4F10005C
:105C80000D003A005E4090000081FB005E409000F5
:105C90008080FB00F0B4210000804000904078003C
:105CA0001E40900080C07000F0B421000000410050
:105CB000014878000F0037005E4090000081FB0033
:105CC0005E4090008080FB00F0B421000080400026
:105CD00010407800804078001E40900000C0EA002C
:105CE00000C0600080407800F0B421000000410056
:105CF000014878001E407800E0FC07007E409000DC
:105D00000040E800704798001E40900000404000AE
:105D1000104798001E4090000004E0000B003A007D
:105D20005E4090008080FB00F0B4210000804000C5
:105D300010407800840007005E4090000040E800BA
:105D40005047980010C0B300104798005E40900084
:105D5000E74F500093FF3600FE40900000C4B300B0
:105D600080CF50000C0036005ADBBF000004E0007A
:105D700009003A006E40900057FBB70057DBBF00A8
:105D80000004E00002003A0010C0B30059FBB70065
:105D900010C0B300404798004E4090000004E0005F
:105DA000030032004FDBBF000004E00008003A00AF
:105DB0000040EB0057FBB7000040EB0059FBB70079
:105DC0000040EB0058FBB7000040EB004047980054
:105DD0004E4090000080FB00400798004E0090006D
:105DE0000080FA00000006000E00FA000040EB0000
:105DF000404798000C0037004E4090000081FB00A7
:105E00004E4090008080FB00F0B4210000804000F4
:105E10009040780065004700017178004E40900086
:105E20000040E800404798004E409000E74F500087
:105E3000F1FF360057DBBF002047980059DBBF0059
:105E40001047980058DBBF00004F780000C4B30033
:105E500057FBB7000040EB0059FBB70033FF0700CA
:105E60000004E0001A00320010C0B3003047980070
:105E70000040EB0040479800110037004E40900072
:105E80008080FB0065004700614178004E40900033
:105E90008080FB00F0B421000080400010407800BA
:105EA000804F5100030032000040EB003047980063
:105EB000090037004E4090000040E800404798003D
:105EC0004E409000E74F5000ECFF360002003700D4
:105ED0000040EB00304798000040EB00404798003E
:105EE0000C0037004E4090000081FB004E409000B7
:105EF0008080FB0065004700E1407800F0B421009D
:105F000000004100014878004E4090000040E80049
:105F1000404798004E409000E74F5000F1FF360098
:105F20002E40900057FBB7001E40900059FBB70071
:105F30001E40780058FBB7003E4090000080FB00F8
:105F40000080FA00000006000200FA00004F78000E
:105F50005ADBBF001E4068008080FB00D093210008
:105F600000804000104078005AFBB7005ADBBF00A9
:105F70000080FB000080FA00000006000A00FA0022
:105F8000004F780011079800220798001E80FB0040
:105F9000300798003E009000F80F500017003200C4
:105FA0003E009000F80F50000A003C003E009000B8
:105FB000E10F5000380032003E009000E50F500025
:105FC0004F0032003E0090000000E000110032005F
:105FD0006E0037003E009000FA0F50006D00320056
:105FE0003E009000FA0F5000060035003E00900081
:105FF000FC0F500067003200640037000AE8A80078
:10600000640037009D0007000040EB00A60A07006F
:10601000600037002E009000E10F500005003A00AC
:1060200010C0B300A00A07002E0107005B000700A4
:106030001400370020C0B3009B0A07002E00900018
:1060400064F5070030C0B300970A07000000EB00BA
:1060500060DE880007003700220107004F000700BC
:1060600000C2B300790A070060DE80000000E8008B
:1060700060DE880061DE80002E009000808F50007E
:10608000F5FF3900D0C0B300700A0700A0C0B3000C
:106090006E0A07003F00370040C0B300820A0700C5
:1060A0001E0090004BF507001E0090004B010700FA
:1060B000CEFBB700CEDBBF000004E00003003A00D7
:1060C00060C0B300780A070008003700CEDBBF00CD
:1060D000E14F500003003A0070C0B300720A07009D
:1060E0000200370060B82E00F8080700D0C0B300E7
:1060F000560A0700A0C0B300540A07002500370065
:106100001E009000400798004E0090000000E00044
:10611000040032004E009000E10F500004003200F5
:106120001700370030B92E00FE08070019003700AD
:10613000A0BB2E00FB080700EA0007000004E000F7
:1061400004003A00D1DBBF0022F5070000C2B30013
:106150003E0A070022C2BF00614060000004E00068
:10616000F5FF320030118000CEFBB700D0C0B30085
:10617000360A0700A0C0B300340A07000500370044
:1061800070C1B300480A07000200370080C1B300A5
:10619000450A07000080FA00000006000400FA002B
:1061A000004F78001E80FB00100798009E009000B2
:1061B000E28F50001D0032001E009000E20F5000E0
:1061C00007003C009E0090000100E0000F0032003C
:1061D0001E009000E10F5000110032002300370034
:1061E0009E009000E48F50001A0032001E009000C4
:1061F000E40F500012003500F00F20009E009000C8
:10620000808F50001600320018003700D1DBBF002D
:10621000F0F4070000C2B3000C0A070015003700B5
:1062200070BD2E00A908070012003700D1DBBF00A7
:10623000E8F4070080BE2E00A40807000D00370018
:10624000D1DBBF00E3F4070070BF2E009F080700FA
:106250000800370060B82E009C08070005003700D2
:1062600070C02E009908070002003700D0C02E0031
:10627000960807000080FA00000006000000FA00FF
:10628000C922A800C902A900CB02A900CB22A900FB
:106290000080FA00000006000400FA000040EB0055
:1062A0002E0107000004E00003003200200020005F
:1062B000100798000E003700CBC2BF000080FB0023
:1062C0000000D10061406000004F780010C0B300B2
:1062D000220107000004E00003003200200020003B
:1062E00010079800020037001E80FB00100798007E
:1062F0001E0090000080FA00000006000600FA0070
:106300000040EB00204798000040EB001047980049
:10631000CBC2BF000080FB000000D10061406000E4
:106320006141600001BD210091407800E0CFB300E1
:1063300000C0600002407000D0FBB700D0DBBF009F
:10634000614060000004E000030032001000200003
:10635000200798006000370010C0B300FF0007005E
:106360000004E000030032004100200021079800F3
:10637000590037000040EB00304798001900370003
:106380001E4090000080FB000000D10010479800E4
:10639000C1FF0700004F780020C0B3009E4F1000DF
:1063A00003003A0041002000210798004A0037000E
:1063B00010C0B3009E4F100007003A009E409000AE
:1063C00000C8B30000C04000104798002E40900065
:1063D0000004A200204798003E4090000040E800E2
:1063E000304798003E409000E74F5000E4FF3600F1
:1063F0001E409000D1FBB700A7FF0700004F7800B8
:1064000021C0B3009ECF100003003A0040002000DE
:1064100020079800300037009E40780061C060007F
:106420006141600021BD210091407800E0CFB300C0
:1064300000C0600002407000D2FBB700D2DBBF009A
:1064400061406000804078002E40900080CF500076
:1064500004003A00D25BA80020002000200798002A
:106460001D003700D25BA9008BFF0700004F7800AA
:1064700021C0B3009ECF100003003A00400020006E
:1064800020079800140037009E40780061C060002B
:10649000614060000041400021BD21009140780032
:1064A000D0CFB30000C0600002407000D2FBB70044
:1064B000C902A900D2DBBF00624060000004E00016
:1064C00003003A0030002000200798000200370047
:1064D0008000EB00210798002E0090000080FA0059
:1064E000000006000200FA0000C0EB00004F780038
:1064F000C922A800C902A8000040EB00104798007C
:1065000010003700CBC2BF00614060000004E00013
:1065100007003A0079FF0700004F78001E04E000F2
:106520000B00320040C0B3009E4F10000800320044
:1065300050C0B3005EF407001E4090000040E80029
:10654000104798001E409000E14F4000EDFF3A00D8
:10655000C902A9001E80FB000080FA0000000600AE
:106560000400FA00004F780010C0B3007B00070061
:106570000004E00003003200200020001007980013
:10658000130037009E40780061C0600061406000E9
:1065900000414000912C200091407800D0CFB30002
:1065A00000C0600002407000C9E2B7000040EB008C
:1065B0006A0007000004E000030032002000200011
:1065C00010079800020037008000EB0011079800C8
:1065D0001E0090000080FA00000006000800FA008B
:1065E000404798000040EB0020479800C902A900EE
:1065F000CB02A900C0C3B3002DF40700CB22A90031
:10660000C922A900C902A80010C0B30028F40700DD
:106610000040EB00510007000004E00003003200DE
:106620004000200030079800490037000000EB00D0
:10663000000F78001C0037004E4090000080FB00E7
:10664000610060000004E0000B00320010C0B300E5
:10665000C3FF07000004E0000300320040002000F8
:10666000300798003A0037002E4090000004A20046
:1066700020479800070037000040EB00B8FF0700F4
:106680000004E000030032004000200030079800C2
:106690002F0037004E4090000080FB000000D1002A
:1066A000404798001E0FE800700020009E0F100069
:1066B000E1FF36002E4090000004A2002047980021
:1066C0002E409000A6FF07000004E0000300320007
:1066D00040002000300798001D003700C922A800A4
:1066E000CB22A90010C0B3001C0007000004E0008A
:1066F00003003200400020003007980014003700EB
:10670000E5FE0700E24F500003003A004000200081
:10671000300798000E003700DFFE07000080FB0006
:10672000000F7800200020009E0F100003003A00A8
:10673000400020003007980005003700C902A9007A
:10674000CB02A9001E0078000080FB0030079800F3
:106750003E0090000080FA00000006000600FA00EB
:10676000204798000080EB00000F7800CBC2BF00EC
:1067700061406000804078002E40900080CF500043
:1067800003003A000000EB002007980005003700E6
:106790001E0FE9001E00E000F4FF3A001000200088
:1067A000200798002E0090000080FA0000000600EC
:1067B0001400FA00881F7800C0DD8000E20F50004E
:1067C0000B003A0011E1A900A16C20009140780073
:1067D00000CEB30000C06000CAE6B700005E2E0025
:1067E000500707000000EB00C0DD88009100370073
:1067F000D05E2E004B070700A0612E003307070074
:106800002203200001FA200040002000B00507000C
:1068100030079800C0622E002C0707003E00900051
:10682000E30F500007003E0060632E003D070700A5
:10683000E00320002007980010A1A8001081A80004
:106840001B0037003E009000FE0F500007003E0086
:10685000A0632E0033070700A00F20002007980038
:1068600010A1A8001081A90011003700BE009000FF
:10687000400F2000808F500007003E00D0632E00A4
:1068800028070700007D20002007980010A1A9001C
:106890001081A80006003700F0632E0021070700D2
:1068A00000E823002007980010A1A9001081A9008A
:1068B0002E0090003E019000110009000280D800D7
:1068C0000000E9005007980010642E00FF06070042
:1068D0005E0090008E070700D0C0B3005B08070081
:1068E000A0C0B3005908070060642E00F706070037
:1068F000220320003106200020002000740507003C
:10690000000478006140B90003EC0700000F980014
:10691000110F98000800E00007003D000200200071
:10692000037824000E0890009E08900026EC0700D3
:10693000000F9800110F98000E0890009E0890001C
:10694000008FBE0002002000832C24001E00BE0029
:106950007AEC0700008FBE005E009000CF80DE0062
:10696000EDEB070060079800710798005E0090004B
:106970000000E00007003D00020020000378240032
:106980006E009000FE0090000FEC0700600798007A
:10699000710798001E01BE006E009000FE0090007E
:1069A000A8EC0700DBEC070040079800A16C200072
:1069B0009140780000CEB30000C060006041B30099
:1069C000CAE6B7001061A9001E61A9001021A90044
:1069D000C11920009140780080CFB30000C0600052
:1069E0009CE1B700CE009000D10C88004E009000D2
:1069F000C00C88009DA1A9009C81A9009C61A900F0
:106A0000C11920009140780080CFB30000C0600021
:106A10006040B3009CE1B700DE0090006108880090
:106A200011E1A80070652E00BE06070020002000BE
:106A3000C0DD88004F0478000080FA0000000600E6
:106A40000000FA00C0DD8000E20F500003003A00B1
:106A500020662E00B30607007A00370030682E004B
:106A60009A0607001FE1A90011E1A900C942A80088
:106A7000616820009140780000CEB30000C0600043
:106A8000A040B30086E6B7001061A80010A1A800DE
:106A90001081A8001021A8000080EB007008880079
:106AA0000080EB00600888000000EB0040088800D0
:106AB0000000EB00300888000000EB00B008880000
:106AC0000000EB00A00888001E61A8001E81A9003C
:106AD0001EA1A9001E21A9001EC1A900400F20006F
:106AE000E008880000402200D00888008780A900C4
:106AF0001FE1A80011E1A80087C0BF00704060003E
:106B00000004E000FCFF320011E1A9001FE1A90030
:106B10003008800000DE880040088000F0DD88003A
:106B2000F0DD800001002000D0DD8800E1DD88007C
:106B3000D0DD8000E1DD8000C000DD00000020002D
:106B4000D0DD8800E1DD880000DE80006101B80052
:106B5000D0DD8000E1DD800002004000838048003D
:106B6000D0DD8800E1DD8800D0DD8000E1DD80003F
:106B7000C808DD000080FD00804078000040EB0088
:106B8000D0DD8800E1DD8800D0DD8000E1DD80001F
:106B90009B060700A0692E004C060700D2DD80008E
:106BA000E3DD8000703E200001002000800F5100D6
:106BB000818F59001C003600D2DD8000E3DD8000AB
:106BC000F0232400F1002000800F5100818F590034
:106BD0000B003E00D0692E003C060700D0DD80008F
:106BE000E1DD8000823E20000300200064EC07000D
:106BF00083060700006A2E00340607000A003700EB
:106C0000D0692E0031060700D0DD8000E1DD800074
:106C100002242400F300200059EC07007806070046
:106C2000506A2E0029060700D0C0B300870707006E
:106C3000A0C0B3008507070086C6BF00F041B300BF
:106C400086E6B7000080FA00000006000000FA00A7
:106C50000AC8BF00624060000004E00002003A0081
:106C6000C942A80001003700C8C2A800A06A2E00CF
:106C70002C0607000080FA00000006000000FA0061
:106C80000AC8BF00624060000004E00003003A0050
:106C9000C942A900CB42A80002003700C8C2A9001F
:106CA000CAC2A800906B2E001E0607000080FA00E2
:106CB000000006000000FA000AC8BF006240600041
:106CC0000004E00003003A00C942A900CB42A90039
:106CD00002003700C8C2A900CAC2A900206C2E0059
:106CE000100607000080FA00000006000200FA000B
:106CF0000AC8BF00624060000004E00009003A00DA
:106D0000C942A8000000000000000000CBC2BF0084
:106D10000080FB004200DE0061406000004F780010
:106D200008003700C8C2A8000000000000000000F2
:106D3000CAC2BF000080FB004600DE006140600068
:106D4000004F7800A06C2E00E00507001E40780080
:106D5000D7050700D0C0B3003C070700A0C0B300B0
:106D60003A0707000080FA00000006000A00FA0057
:106D7000004F7800110798002207980020408000FB
:106D80006101B8000080EB008080EB000201400050
:106D90008381480032079800430798009000200044
:106DA000010020003E019000CE019000800F5100B4
:106DB000818F59003F003E003E009000CE009000C1
:106DC00000600100090037000D0037001100370096
:106DD00015003700190037001D003700210037006B
:106DE00025003700290037002D0037002E019000C4
:106DF0009E0090001E40780014F907002E00370016
:106E00002E0190009E0090001E407800B3070700FE
:106E1000290037002E0190009E0090001E4078004F
:106E200041F20700240037002E0190009E009000E0
:106E30001E40780049EF07001F0037002E01900028
:106E40009E0090001E40780023F507001A003700CE
:106E50002E0190009E0090001E407800A1EC0700DB
:106E6000150037002E0190009E0090001E40780013
:106E700049EE0700100037002E0190009E009000A0
:106E80001E4078003DFC07000B0037002E019000EB
:106E90009E0090001E407800890807000600370019
:106EA0002E0190009E0090001E4078002E090700E1
:106EB00001003700C222A9000080FA00000006008D
:106EC0000000FA00B00020000080FA000000060078
:106ED0000000FA002040800080004000C0B5210082
:106EE0000080400010007800780507000080FA005C
:106EF000000006000200FA00004F78001E80FB0030
:106F000080004000C0B521000080400010007800E3
:106F10006E0507000080FA00000006000800FA0075
:106F2000004F780000C6B3009E4F100007003600E7
:106F3000A0C7B3009E4F100004003E001E40780022
:106F400001CEB30001404000004F78001E80FB00DE
:106F50006101B900D0FD2F00F1FF2F0002014000B8
:106F6000838148002207980033079800B00520006D
:106F7000010020002E019000BE019000800F510002
:106F8000818F59009B003E002E009000BE009000B3
:106F9000006001008200370096003700950037003E
:106FA00094003700930037009200370091003700BB
:106FB00090003700820037008E0037008D003700C8
:106FC0008C0037008B0037008A00370089003700BB
:106FD00088003700870037008600370085003700BB
:106FE00084003700830037008200370081003700BB
:106FF000800037007F0037007E00370072003700C6
:107000007C003700500037007A00370079003700E5
:1070100061003700580037007600370075003700F0
:107020004B0037004C003700720037004C0037002F
:10703000700037006F003700410037003100370023
:107040006C0037003100370032003700690037002C
:1070500068003700670037006600370065003700BA
:1070600035003700630037006200370061003700E9
:10707000600037005F0037005E0037005D003700BA
:107080005C0037005B0037005A00370059003700BA
