:020000040000FA
:10000000040C040000000000F4780000F478000004
:10001000F4780000F4780000F4780000F478000030
:10002000F4780000F4780000F4780000F478000020
:10003000F4780000F4780000F4780000F478000010
:10004000F4780000F4780000F4780000F478000000
:10005000F4780000F4780000F4780000F4780000F0
:10006000F4780000F4780000F4780000F4780000E0
:10007000F4780000F4780000F4780000F4780000D0
:10008000F4780000F4780000F4780000F4780000C0
:10009000F4780000F4780000F4780000F4780000B0
:1000A000F4780000F4780000F4780000F4780000A0
:1000B000F4780000F4780000F4780000F478000090
:1000C000F4780000F4780000F4780000F478000080
:1000D000F4780000F4780000F4780000F478000070
:1000E000F4780000F4780000F4780000F478000060
:1000F000F4780000F4780000F4780000F478000050
:10010000F4780000F4780000F4780000F47800003F
:10011000F4780000F4780000F4780000F47800002F
:10012000F4780000F4780000F4780000F47800001F
:10013000F4780000F4780000F4780000F47800000F
:10014000F4780000F4780000F4780000F4780000FF
:10015000F4780000F4780000F4780000F4780000EF
:10016000F4780000F4780000F4780000F4780000DF
:10017000F4780000F4780000F4780000F4780000CF
:10018000F4780000F4780000F4780000F4780000BF
:10019000F4780000F4780000F4780000F4780000AF
:1001A000F4780000F4780000F4780000F47800009F
:1001B000F4780000F4780000F4780000F47800008F
:1001C000F4780000F4780000F4780000F47800007F
:1001D000F4780000F4780000F4780000F47800006F
:1001E000F4780000F4780000F4780000F47800005F
:1001F000F4780000F4780000F4780000F47800004F
:10020000FFFFFF00FFFFFF00F4780000F47800001C
:10021000F4780000F4780000F4780000F47800002E
:10022000F4780000F4780000F4780000F47800001E
:10023000F4780000F4780000F4780000F47800000E
:10024000F4780000F4780000F4780000F4780000FE
:10180000040C000000000000AFC22100007F220095
:1018100000018800000000000A0007001100070016
:10182000000020000000E000020032000000020082
:1018300000000000C80F0200000000000040DA00B5
:101840000000FE004440A90060A321000000E00069
:101850000300320000002000A00188004440A800DE
:1018600000000600405E2700010020001500370040
:1018700062004000E0804800910188009001BA00B9
:1018800062004000E0804800910188009002BA00A8
:1018900062004000E08048000002EB006028E100A8
:1018A00004003A000059EB008301E900FDFF3E000F
:1018B000040037006128E100010032000082EB00E3
:1018C00005000700910188001001BA000200E00045
:1018D000E7FF3A00000005009101880080027800CF
:1018E00062004000E08048003559BA008301E900F9
:1018F000080032002559BA008301E90005003200D2
:101900000400E000F4FF320015D9BA008301E900B9
:10191000F1FF3A0000000600889FBE008A9FBE00CB
:10192000010578000100E0000400350008003C00DB
:101930000000E000200032000500370060001000C9
:10194000E080180002003B0001F02C001A00370074
:101950000004BE006011B8006B0920000982CF00AE
:10196000020039000882CF000441B00069425200F1
:101970000E00320008003B008281710061016400AA
:101980008904D1000884D3008B05E8000442E800F4
:10199000F9FF3A00050037000804440089844C0030
:1019A0008B05E9000442E900FBFF3A00250107002E
:1019B0000AF0A70001F0A0004F05BE004F04BE00D2
:1019C0000000060003F0A200889FBE008A9FBE00B0
:1019D0008C1F780041010700480133006450E1008A
:1019E0004F0032006420E1005200320003826C009C
:1019F00007003B000905D0000306D000820F540009
:101A00000C065D00020039000200320089017800F6
:101A1000030678008582550004003D000003FD00A8
:101A20008103FD008502EA008B854200840F72006D
:101A300002003B0060001000E08018006011B80058
:101A40000005EB007A28E1000A0039000600780062
:101A5000C75DDD00F707B200878075002D003700F5
:101A6000828171000A017800610560008180D100E7
:101A70000080D3008502E900F9FF3B000604400026
:101A80008784480002003B0060041400E0841C00CE
:101A90000988A300070032008A81710082817100E9
:101AA000610164008904D1000884D3008B05E8003B
:101AB000170037000978A30013003A000B00E0007C
:101AC000130034008B05E9000804440089844C00AD
:101AD0000A4474000978A3000D003A000B00E000EE
:101AE000070034008B05E9000804440089844C0099
:101AF00001003A000B0020000978A300F7FF320034
:101B00000001EB0002003700828171000A017800B9
:101B1000CC0007000CF0A70001F0A0000001370086
:101B20006420E10002003A00838F6C000001330062
:101B30000801BE000200BE00F9003700889FBE0009
:101B40008A9FBE008C1F7800E4000700EB00330082
:101B500003866C006450E1002E0032006420E10036
:101B6000330032006150E1002F0032006120E100BB
:101B70003100320085855500EB07B00009002000D8
:101B800008042000050037000804440089844C0044
:101B90000A0031000603430087834B000001530015
:101BA00081815B00F8FF33000203BE000800A00043
:101BB0000804440089844C00F6FF3900C639DD0072
:101BC0008301730001003200130020008904D1005A
:101BD0000884D3000998A300050032000800A7007C
:101BE0000300A0008904D1000884D3008B05E8001D
:101BF0008904D1000884D3000001EB000281D200E7
:101C00009000070001F0A1000CF0A70001F0A00077
:101C1000C30037006420E100C50032000801BE00A7
:101C20000200BE00F7FF37006120E100C000320073
:101C30006000B800F3FF37000000200001F8270023
:101C4000F0FF3700889FBE008A9FBE008C1F78007F
:101C5000A2000700A900330003866C006450E10075
:101C6000240032006420E100270032006150E100CE
:101C7000220032006120E100210032008B85420009
:101C8000EB07B1000134B800003AB8000804420084
:101C900089844A00013AB8000030B80088804000CA
:101CA00009014A0004003300000040008180480020
:101CB000020149008B05E900C909DD0083017000BC
:101CC0000100320013002000C814DE004814DD00BB
:101CD0004709DE001200B200C808DE000884700068
:101CE0005800070001F0A1000CF0A70001F0A000CF
:101CF0008B0037006120E1008D0032000801BE003A
:101D00000200BE00F7FF37006150E100FCFF3A001F
:101D1000870037000001BE00880007000470A7009C
:101D200003F0A10003F8A30013003A006509B10015
:101D300010003200090035006928E100020035007A
:101D400001002800000005000000400081804800DC
:101D50008502E900FCFF3A0000000600F88F42000F
:101D6000050035008100D1000080D3008502E80025
:101D7000FCFF3A00000006008000EB0000000500B8
:101D80006022B800060220000000D0008180D2004E
:101D90000482D2008582D2000000A000020252001C
:101DA00083825A00030031000202420083824A000B
:101DB0000000A1000603E900F3FF3A00000006005E
:101DC0000001BE005D0007000470A70003F0A10041
:101DD0006509B100160032000D0035006828E100E9
:101DE00006003500F0FF2F00F1FF27000300E000A0
:101DF00013003B0001002800000005000000400027
:101E0000818048008502E900FCFF3A0008003700A5
:101E1000F88F420002003C008000EB00000005004B
:101E20008100D1000080D3008502E800FCFF3A0069
:101E30000300E00002003B0060001000E08018009A
:101E40000000060081002000618055000B003D006D
:101E50000B00200061FE2F000100E1001D00340096
:101E600082817100610164008904D1000884D3007B
:101E70000000E800FAFF3A007100200061006400F1
:101E80000300700002006000090032006104440099
:101E9000E0844C000988A500050032008B05E800AD
:101EA0006808E10002003A008904D1000884D300E8
:101EB000F20F20000258E10005003D00C75DDD0083
:101EC000F907B2008980750008007800000006005C
:101ED0000BF827008B007800000005000004BE000E
:101EE000160007000003BE000405BE000200BE008D
:101EF00012000700844F7500000006000200BE00BB
:101F00006450E100050036006420E1000200360064
:101F10000968A30001003A000800BE000160A000AB
:101F20004F0678004F05BE004F04BE0000000600BB
:101F3000F0FF2F00F1FF2700F9FF3700C70ADE008E
:101F4000F107B200F50FB20008003200E1CF420005
:101F5000020032000170A00024000500810F700013
:101F6000010032000408050044000500810F7000E4
:101F700002003A00140005008502E900000040005C
:101F800081C04800FCFF3B000170A0002400050058
:101F90000400FA003800070000003700228120000A
:101FA00001FA2000207B2100AD17070010079800E0
:101FB0001E009000E10F500005003200F00F2000DD
:101FC0009E009000808F50001C00320022003700DD
:101FD00090BD8000000F78009E0078000100E000B6
:101FE000040032001E007800E10F500004003200AF
:101FF0000700370090C1B300601A070007003700E0
:1020000012C8BF00721307000004E00003003A008A
:1020100090BD800021812000B11507000000EB0079
:1020200090BD88000040EB0029FCB7005513070065
:10203000E0C3B3003A1A07000700370029DCBF00ED
:102040000040E80029FCB70029DCBF00F34F500036
:10205000010036000E2407000BC8BF00624060007C
:102060000004E000CDFF320060C1B3000CE8B7000F
:102070000F130700C9FF37000000FA004507A90049
:102080000080EB00601988004227A900416A200007
:102090009140780000CEB30000C060005040B30013
:1020A000A4E6B700416C20009140780000CEB30058
:1020B00000C060003040B300C4E6B70080C0B30089
:1020C00000E8B7000000EB0010408800E0040700C3
:1020D000140507008000EB00F00F20001A1A07001B
:1020E0003040880021002000F00F2000161A070061
:1020F0004040880010C1B300091A0700D0C0B300E7
:10210000071A0700A0C0B300051A07000B14070048
:102110001C130700E0C3B300011A07000080FA0097
:10212000000006000600FA000CC8BF000080FB009B
:102130006101B9001207980023079800C001200030
:10214000010020001E019000AE019000800F5100A0
:10215000818F5900D4003E001E009000AE00900018
:10216000006001001C0037003E0037005E003700B1
:102170005D00370062003700B600370066003700A8
:102180006C00370072003700780037007C003700A1
:102190008000370084003700C3003700C2003700DA
:1021A000C1003700C0003700BF003700BE00370055
:1021B000BD003700BC003700BB003700BA00370055
:1021C000B90037007D00370097003700B8003700AE
:1021D000B5003700B600370080408000E10F5000A6
:1021E00007003A0010C0B300E41907008F20070071
:1021F00016FCB70016DCBF00DC0407001400370033
:1022000020C0B300DD19070080408000D70407001C
:1022100030C0B300D91907000000EB00A0E088002F
:102220000700370081200700D004070000C2B30078
:10223000BB190700A0E080000000E800A0E08800D3
:1022400081408000A0E08000808F5000F5FF3E00BC
:10225000D0C0B300B2190700A0C0B300B019070086
:102260009300370040C0B300C419070070408000DD
:10227000BE04070080408000E10F500003003A00D8
:1022800070408000382007001200370020EA2E003E
:102290004318070080408000B404070050C0B3001A
:1022A000B61907000000EB00A0E088000500370029
:1022B000704080002C200700A0E080000000E800B3
:1022C000A0E0880081408000A0E08000808F500066
:1022D000F7FF3E00D0C0B30091190700A0C0B300C3
:1022E0008F19070072003700B01F070060EA2E0048
:1022F0002B18070080C0B300A01907006C0037003E
:10230000BD1F0700E0EA2E002518070090C0B300AB
:102310009A19070066003700D0C0B300971907006C
:102320007220070017180700F0C0B30093190700C8
:102330005F003700E0C0B30090190700BB20070022
:1023400010180700F0C0B3008C19070058003700C0
:10235000804080008504070000C1B3008719070092
:1023600080408000832007005100370010C1B30077
:102370008219070010C0B3009A2007004C003700F4
:1023800020C1B3007D1907000040EB009520070035
:102390004700370030C1B3007819070010C0B30000
:1023A000872007004200370040C1B30073190700BF
:1023B0000040EB00822007003D0037000B48A800DA
:1023C0000B88A80010C3B3006C190700120020008E
:1023D0002100200010002000681607000040E900DE
:1023E0000AE8B700E0C1B30064190700120020003A
:1023F0002100200010002000601607000040EA00C5
:1024000061406000614060004601DD00B180200055
:1024100091407800F0CBB30000C060000240700033
:102420000BE8B70022003700CB02A900CB22A9009D
:10243000C922A800C902A900A1802000914078000B
:1024400020C0B300361F07000040EB004B19070007
:102450001700370071408000010F78001E017800DE
:10246000E10F51000A0032009E017800E18F510017
:10247000040039001E007800E20F50000500320011
:102480000600370050EB2E00C51707000800370084
:1024900009000700190007000500370070C1B300EC
:1024A000361907000200370080C1B3003319070056
:1024B0000080FA00000006000000FA0000EF2E0085
:1024C000CD170700D0F02E00CB1707000040EB001F
:1024D0004D20070000C0EB005B04070010C0B300F4
:1024E0004920070010C0B300222007000040EB0085
:1024F000452007000080FA00000006000A00FA00EC
:10250000881F7800F0F22E00A51707000000EB00EE
:10251000000F78000D0037001E047800C31F07006D
:102520008040780063004700017478009E007800C6
:1025300063004700614078000080FB0089180700B5
:1025400000C2B300F61807001E0FE800300020009C
:102550009E0F1000F0FF3600D0C0B300F018070047
:10256000A0C0B300EE180700D0F52E008C170700AE
:1025700063004700104078000080FB004400DE004C
:102580000080FB00400798004E009000E90F5000CB
:10259000110032004E009000E90F500004003C0092
:1025A0004E009000E80F5000080032001300370082
:1025B0004E009000EA0F50000A0032004E009000DA
:1025C000EF0F50000A0032000C00370080F62E009A
:1025D000891707000B003700F0F62E00861707005A
:1025E0000800370060F72E0083170700050037004A
:1025F000D0F72E00801707000200370010F82E00D9
:102600007D17070090F82E0065170700630047004C
:10261000104090000080FB004700DE000004E00056
:1026200003003A0050F92E0073170700020037002C
:10263000C0F92E0070170700C0FA2E0058170700C7
:1026400063004700104090008080FB0080F72F005F
:10265000008060004380DE00204798002E409000FC
:102660000004E00003003A0090FB2E004C17070026
:102670001B0037002E409000EF4F500003003A003F
:10268000D0F72E0046170700150037000004200081
:10269000000F7800E30047000040EB00804878001E
:1026A000080037001E00780000004000000F78008E
:1026B00063004700104078008040E8006300470056
:1026C0000148780063004700904078002E40900059
:1026D00080CF5000F3FF39001E007800C1170700BB
:1026E000D0C0B3008E180700A0C0B3008C1807003C
:1026F00070FC2E002A1707006300470090409000EE
:1027000070C0B30000C06000204798001000200097
:10271000000F7800E30047000040EB00804878009D
:10272000080037001E00780000004000000F78000D
:1027300063004700104078008040E80063004700D5
:102740000148780063004700904078002E409000D8
:1027500080CF5000F3FF39001E007800D01707002B
:10276000D0C0B3006E180700A0C0B3006C180700FB
:102770004F0478000080FA00000006000400FA0010
:102780000CC8BF000080FB006101B900028FBE00D1
:10279000C0012000010020001E01BE00800F51007A
:1027A000818F5900D8003E001E00BE00006001006D
:1027B0001C0037003E0037006A0037006900370010
:1027C00073003700CD003700770037007F003700F7
:1027D000870037008D0037009100370095003700E3
:1027E00099003700C8003700C7003700C60037001F
:1027F000C5003700C4003700C3003700C2003700EF
:10280000C1003700C0003700BF003700BE003700EE
:1028100092003700AC003700BD003700BA00370027
:10282000BB00370080408000E10F500006003A00F6
:1028300010C0B3005118070000C0EB00811E070054
:102840004A0307001500370020C0B3004B180700EB
:10285000804080004503070030C0B30047180700E0
:102860000000EB00B0DF88000800370000C0EB007C
:10287000741E07003D03070000C2B30028180700BC
:10288000B0DF80000000E800B0DF880081408000F9
:10289000B0DF8000808F5000F4FF3E00D0C0B30056
:1028A0001F180700A0C0B3001D18070098003700CC
:1028B00040C0B30031180700704080002B030700B0
:1028C00080408000E10F50000E003A007040800010
:1028D0005C1E0700F8FBB700FADBBF006140600038
:1028E0000004E0001A00320000C2B3000C18070018
:1028F00010C0B30021180700F8DBBF001B0307005E
:1029000013003700005E2F00A516070080408000EE
:102910001603070050C0B300181807000000EB00B2
:10292000B0DF88000600370070408000451E0700B9
:10293000F8FBB700B0DF80000000E800B0DF8800DF
:1029400081408000B0DF8000808F5000F6FF3E00A5
:10295000D0C0B300F2170700A0C0B300F017070003
:102960006B0037000CC8BF00E34F500002003A0074
:10297000FA1BA80001003700FA1BA9000040EB0079
:10298000211F0700A0C0B300FC170700600037003C
:10299000FA1BA90010C0B3001B1F0700B0C0B30092
:1029A000F61707005A003700D0C0B300F31707002E
:1029B000CE1E070073160700D0C0B300D81707005B
:1029C000A0C0B300D617070051003700E0C0B30025
:1029D000EA170700151F07006A160700D0C0B300EA
:1029E000CF170700A0C0B300CD170700480037007D
:1029F00080408000DD02070000C1B300DF17070040
:102A000080408000DB1E07004100370010C1B3008A
:102A1000DA17070010C0B300F21E07003C003700B1
:102A200020C1B300D51707000040EB00ED1E0700E2
:102A30003700370030C1B300D017070010C0B30013
:102A4000DF1E07003200370040C1B300CB1707007C
:102A50000040EB00DA1E07002D00370010C3B30062
:102A6000C6170700120020002100200010002000DF
:102A7000C21407000040E9000AE8B700E0C1B30053
:102A8000BE170700120020002100200010002000C7
:102A9000BA1407000040EA00614060006140600035
:102AA0004601DD00B180200091407800F0CBB300FA
:102AB00000C06000024070000BE8B7000B48A8009F
:102AC0000B88A80012003700FA1BA900A180200083
:102AD0009140780030C0B300911D0700C922A900C1
:102AE000C902A900C8E2A80010C0B300C61E0700B2
:102AF0000040EB00A11707000500370070C1B300CC
:102B00009E1707000200370080C1B3009B17070023
:102B10000080FA00000006000600FA000CC8BF00A2
:102B20000080FB006101B90012079800230798009C
:102B3000C0012000010020001E019000AE019000A5
:102B4000800F5100818F5900EB003E001E00900065
:102B5000AE009000006001002A0037004E003700F0
:102B60001A0037001900370022003700C80037006C
:102B7000E1003700E0003700DF003700DE003700FB
:102B8000DD003700DC003700DB003700DA003700FB
:102B9000D9003700D8003700D7003700D6003700FB
:102BA000D5003700D4003700D3003700D2003700FB
:102BB000D1003700D000370064003700AD00370087
:102BC000B1003700CC003700CD0037000CC8BF0083
:102BD000E34F500002003A00007CA80001003700DB
:102BE000007CA900CAC2A900A0C0B30063170700F7
:102BF000C3003700CAC2A800B0C0B3005F17070007
:102C0000BF00370080408000E10F500008003A000C
:102C100010C0B3005917070000C0EB001E010700E9
:102C2000FEFBB700FEDBBF005002070015003700B7
:102C300020C0B30051170700804080004B020700FE
:102C400030C0B3004D1707000000EB00E0DF880044
:102C50000800370000C0EB000F0107004302070027
:102C600000C2B3002E170700E0DF80000000E8007C
:102C7000E0DF880081408000E0DF8000808F50002E
:102C8000F4FF3E00D0C0B30025170700A0C0B3007A
:102C9000231707009A00370040C0B300371707001A
:102CA000704080003102070080408000E10F50003A
:102CB0000E003A0070408000F7000700FEFBB700EE
:102CC00000DCBF00684060000004E0001A00320031
:102CD00000C2B3001217070010C0B3002717070087
:102CE000FEDBBF002102070013003700401E2F004B
:102CF000AB150700804080001C02070050C0B300E5
:102D00001E1707000000EB00E0DF88000600370018
:102D100070408000E0000700FEFBB700E0DF8000AD
:102D20000000E800E0DF880081408000E0DF8000F4
:102D3000808F5000F6FF3E00D0C0B300F8160700A9
:102D4000A0C0B300F61607006D003700801E2F00EC
:102D5000A9150700120020004100200010002000EB
:102D6000061407000040E9000AE8B700E0C2B3001B
:102D70000217070012002000210020001000200090
:102D8000FE1307000040E9006140600061416000FF
:102D900001C0210091407800E0CFB30000C0600086
:102DA0000240700000FCB700F0C2B300F316070049
:102DB000220020002100200010002000EF13070057
:102DC0000040E90061406000614060000041400057
:102DD00001C0210091407800D0CFB30000C0600056
:102DE0000240700000FCB70000C3B300E316070008
:102DF000120020002100200010002000DF13070037
:102E00000040E90061406000614060004201DD0077
:102E100001C0210091407800B0CFB30000C0600035
:102E20000240700000FCB700E0C1B300D3160700F9
:102E3000120020002100200010002000CF13070006
:102E40000040EA0061406000614060004601DD0032
:102E5000B180200091407800F0CBB30000C060004A
:102E6000024070000BE8B7000B48A9000B88A800CF
:102E700023003700007CA900230007000040EB007E
:102E8000BE1607001E0037006F0007001C00370049
:102E900071408000010F78001E0178000200E00000
:102EA000040032009E017800E18F510004003200DE
:102EB0000E00370000222F004F15070010003700CA
:102EC00020242F004C1507001200200031002000A4
:102ED00010002000A91307000040E900FEFBB70026
:102EE000FEDBBF007A0007000500370070C1B300A9
:102EF000A21607000200370080C1B3009F1607002A
:102F00000080FA00000006000000FA0041E2A9007B
:102F10000BC8BF000044B2000004E0000300320010
:102F2000CEE2A800CF02A800CEC2A800816A20008D
:102F30009140780000CEB30000C060007040B30044
:102F4000A8E6B700916C20009140780000CEB30055
:102F500000C060007040B300C9E6B700816C20007B
:102F60009140780000CEB30000C060000034A000A3
:102F7000C8E6B700CAC2A800C8C2A900C902A90011
:102F8000C8E2A800C922A9000AC8BF008080FB00CF
:102F900080C1210000804000104078000080FB00CC
:102FA0001012880042A2A80000DCBF00614060004F
:102FB000614060004601DD0021242000914078003E
:102FC000F0CBB30000C060000240700042E2B700E6
:102FD00000DCBF000080FB000000D1006140600009
:102FE000614160003124200091407800E0CFB300BF
:102FF00000C060000240700043E2B70000DCBF0088
:103000000080FB004200DE00614060006140600023
:10301000004140003124200091407800D0CFB3001F
:1030200000C060000240700043E2B7000000EB0007
:10303000201288000000EB000012880041E2A80086
:103040000080FA00000006000000FA0041E2A9003A
:10305000A8C6BF00F041B300A8E6B700916C2000FD
:103060009140780000CEB30000C06000C9E6B70010
:10307000816C20009140780000CEB30000C0600059
:10308000C8E6B700CEE2A900CF02A900CEC2A900CF
:103090000080FA00000006000200FA00004F7800ED
:1030A0001E80FB004012880085C0BF0064406000A5
:1030B0000004E000FCFF320040128000004F780066
:1030C0008540A9001E80FB000080FA000000060079
:1030D0000400FA002047980080272F00C61407003C
:1030E000D9FF07004D0007002E409000E14F50002F
:1030F00008003E00CAC2BF000080FB004600DE00A0
:1031000061406000804078002E40900080CF5000E9
:1031100008003A0041C2BF0001C8B300014060008E
:103120000004E0000E003A0041E2A80061E2A800BD
:103130000B00370041C2BF0001C8B300014060006E
:103140000004E0000600320041E2A90061E2A900AB
:10315000D0C0B300F2150700A0C0B300F0150700FF
:1031600040C2BF000042B2000004E00004003A0088
:1031700040128000004F78001E407800FB000700DE
:1031800060C2BF000042B2000004E00008003A0044
:1031900040138000004F780080292F008014070022
:1031A0001E407800F1000700A0292F007C140700C2
:1031B00040C2BF000044B2000004E00004003A0036
:1031C00060C2BF000044B2000004E000050032000D
:1031D000D0292F008814070040C2A90060C2A900AE
:1031E0000A00370022C2BF00614060000004E00016
:1031F000BDFF320030118000004F7800D0C0B30016
:10320000C7150700A0C0B300C51507007000070070
:103210003DFF07000080FA00000006000000FA00F1
:10322000C8C2A800C902A800C8E2A800C922A80014
:10323000816A20009140780000CEB30000C0600099
:103240009040B300A8E6B700916A20009140780052
:1032500000CEB30000C060000034A000A9E6B700B3
:10326000C16A20009140780000CEB30000C0600029
:103270007040B300ACE6B700D16A200091407800FE
:1032800000CEB30000C060000034A000ADE6B7007F
:103290000AC8BF008080FB0080C121000080400080
:1032A000104078000080FB001012880000DCBF0096
:1032B00061406000614060004601DD002124200083
:1032C00091407800F0CBB30000C060000240700075
:1032D00042E2B70000DCBF000080FB000000D1002C
:1032E000614060006141600031242000914078001D
:1032F000E0CFB30000C060000240700043E2B700BE
:103300000000EB00201288000000EB000012880093
:103310000AC8BF008080FB0080C1210000804000FF
:10332000104078000080FB001013880000DCBF0014
:1033300061406000614060004601DD002126200000
:1033400091407800F0CBB30000C0600002407000F4
:1033500062E2B70000DCBF000080FB000000D1008B
:10336000614060006141600031262000914078009A
:10337000E0CFB30000C060000240700063E2B7001D
:103380000000EB00201388000000EB000013880011
:103390000000EB00401288000000EB0040138800A2
:1033A0004322A9006322A9004362A80042A2A90007
:1033B0006362A80062A2A90040C2A90060C2A9007D
:1033C0004402A8006402A8000080FA000000060081
:1033D0000000FA0041E2A9004362A90061E2A900ED
:1033E0006362A900A8C6BF00F041B300A8E6B70019
:1033F000A9C6BF00F041B300A9E6B700ACC6BF0044
:10340000F041B300ACE6B700ADC6BF00F041B30079
:10341000ADE6B7000080FA00000006000000FA00E8
:103420000BC8A9000040EB000AE8B7000B28A90070
:103430000B08A9000B48A9000B68A9000B88A9007C
:103440000BA8A9000BE8A9000080FA000000060004
:103450000000FA00C922A800C902A800C8E2A8001A
:10346000C8C2A800C942A800C222A900C022A9005F
:103470000000EB0020408800E8FF0700CB62A900B5
:10348000C962A900C002A900C202A9002D23A90097
:103490002D43A9002D63A9002D83A900013220002E
:1034A0009140780000CEB30000C0700020E3B70068
:1034B0000000EB008019880020F02100201988000E
:1034C0000000EB00101988000080FA0000000600E0
:1034D0000200FA00004F78001E80FB0040198800AF
:1034E0002023A8002003A90020C3BF006140600082
:1034F0000004E000FCFF3200001880000080FA00A9
:10350000000006000000FA0021E3A800C0C0B300DC
:10351000EFFF0700C714070021E3A9000080FA00AD
:10352000000006000000FA0000C8BF000080FB0099
:103530008000400080B7210000804000100078002B
:10354000401188000000EB00001188002062A800F4
:103550000000EB001011880021E2A8002342A8001F
:103560008560A9000080FA00000006000400FA004F
:10357000004F780010408000100798001E00900057
:10358000E10F50000D0032001E009000E10F5000CE
:10359000070039001E009000E20F50000A003200C0
:1035A0001E009000E30F50000A0032000B003700AD
:1035B0001E80FB006B140700080037001E407800D7
:1035C00037140700050037001E407800A4130700D9
:1035D000020037001E407800D11407000080FA0076
:1035E000000006000600FA00404798000040EB008B
:1035F000204798000E0037000000EB00000F780015
:1036000005003700A0CFB3000F0007001E007800B0
:103610000000E800000F78001E007800E30F500063
:10362000F8FF36002E4090000040E8002047980048
:10363000AE4090004E40900080CF5000EEFF390029
:103640000080FA00000006000400FA0020479800FD
:103650000040EB00004F780013003700000000002E
:10366000000000000000000000000000000000005A
:10367000000000000000000000000000000000004A
:10368000000000000000000000000000000000003A
:103690000000000000000000000000001E40780054
:1036A0000040E800004F78009E4078002E409000D7
:1036B00080CF5000E9FF39000080FA0000000600CA
:1036C0000600FA009CDBBF00E14F500030003A00DA
:1036D00000C2B300921407000CC8BF00E34F5000B3
:1036E000060032000CC8BF00E24F50000300320059
:1036F0000CC8BF00E44F50000F003A0070C0B30088
:103700009E140700D0C0B30085140700A0C0B3000A
:10371000831407009DDBBF000004E00003003A00B3
:1037200010C0B300821B07001700370010C0B300A1
:1037300083020700140037000CC8BF00FC4F500084
:1037400003003A00A0D42E002B130700AE0137006F
:1037500060C0B30089140700D0C0B3007014070024
:10376000A0C0B3006E1407009DDBBF000004E000A2
:1037700003003A000040EB006D1B07000200370019
:103780000040EB006E0207000040EB009CFBB7001E
:103790000CC8BF000080FB006101B900120798004F
:1037A00023079800C0012000010020001E019000A6
:1037B000AE019000800F5100818F590090013E00B2
:1037C0001E009000AE009000006001001C00370059
:1037D000590037008A003700890037009100370010
:1037E000D500370086013700850137008401370096
:1037F00083013700820137008101370080013700E3
:103800007F0137007E0137007D0137007C013700E2
:103810007B0137007A0137007901370078013700E2
:1038200077013700760137007501370086003700D1
:10383000AA003700B9003700710137007201370064
:1038400080408000E10F50000D003A0010C0B3002E
:103850004A1407009DDBBF000004E00003003A00AB
:10386000F21A07009FFBB700020037005102070061
:103870009FFBB7009FDBBF003CFF07002B0037001A
:1038800020C0B3003D1407008040800037FF0700D0
:1038900030C0B300391407000000EB0000DD8800E1
:1038A0001E00370000DD80000000E0000E00320046
:1038B00000C2B3001A14070060C0B3002F14070041
:1038C00000C2B300161407009DDBBF000004E00037
:1038D00003003A000040EB00151B07000200370010
:1038E0000040EB00160207009DDBBF000004E00073
:1038F00003003A00CD1A07009FFBB7000200370013
:103900002C0207009FFBB7009FDBBF0017FF0700DB
:1039100000DD80000000E80000DD880081408000BC
:1039200000DD8000808F5000DEFF3E0010C0B3003D
:103930009CFBB7003401370040C0B3000F140700F0
:103940007040800009FF070080408000E10F5000B8
:1039500006003600A0D52E0091120700804080009E
:1039600002FF070050C0B300041407000000EB0082
:1039700000DD88000F0037009DDBBF000004E00081
:1039800005003A0070408000771A0700D71A070038
:103990009FFBB7000400370070408000FB01070068
:1039A000E00107009FFBB70000DD80000000E80099
:1039B00000DD88008140800000DD8000808F5000A5
:1039C000EDFF3E0000C2B300D51307009FDBBF0030
:1039D0000004E00003003A0060C0B300E7130700F2
:1039E0000200370070C0B300E4130700D0C0B3007A
:1039F000CB130700A0C0B300C913070002013700B2
:103A00009DDBBF000004E00002003A00E719070058
:103A100001003700B301070080C0B300D7130700CF
:103A2000F90037009DDBBF000004E00002003A000F
:103A3000F119070001003700B201070090C0B30080
:103A4000CE130700F00037000BC8A8000B88A800B1
:103A5000E0D52E006812070012002000210020008F
:103A600010002000C51007000040E9009DFBB700D2
:103A70009DDBBF000004E00009003A0010C3B30062
:103A8000BE130700120020002100200010002000BB
:103A9000BA1007000040E9000AE8B700DA00370072
:103AA0004140800030002300808F500002003E0023
:103AB00040D82E0050120700A0DB2E004E12070047
:103AC000120020003100200010002000AB10070081
:103AD0000040E9000AE8B700CB0037009DDBBF00DB
:103AE0000004E00009003A00C922A800C902A800A9
:103AF000CB02A900CB22A900A18020009140780030
:103B000020C0B3008619070001003700B401070088
:103B10000040EB0099130700BB0037000040EB00AA
:103B20009CFBB7009DDBBF00E14F5000B6003A00A0
:103B300007E2A900B400370071408000010F78004F
:103B40001E017800E10F51000D0032009E01780047
:103B5000E18F5100070039001E007800E20F50008D
:103B60004E0032009E007800E38F50008F0032003C
:103B7000A000370070DE2E001F120700A2003700E1
:103B8000D0E02E001C1207000000EB0000DD8800D2
:103B9000390037009DDBBF000004E00006003A005A
:103BA0008219070000DD8000EF1907004F1A070097
:103BB0009FFBB700050037004A01070000DD8000C9
:103BC00072010700570107009FFBB7009FDBBF0092
:103BD0000004E0001F003A0000DD800063FE0700E3
:103BE00080C2B3004E13070000DD80000000D1004A
:103BF0005EFE070000DD80000000A20061006000A2
:103C00000004E0000300320060E42E00E41107002D
:103C10000C0037009DDBBF000004E00004003A0008
:103C2000021A070010C0B300411A07000300370052
:103C30006001070010C0B3004101070090E42E00AE
:103C4000D7110700C0E42E00D511070000C2B30051
:103C5000331307009DDBBF000004E00002003A00C0
:103C600065190700010037002601070000DD80000C
:103C70000000E80000DD880001DD8000F00F20007A
:103C8000808F5000C3FF3600D0C0B300241307005C
:103C9000A0C0B300221307005B003700E0E42E0051
:103CA000BF11070002052000F1072000A00020003E
:103CB000321007009FFBB7009FDBBF0000404000B1
:103CC0009FFBB700F0E52E00B5110700F20F2000B2
:103CD000F10F2000A0002000281007009EFBB70075
:103CE00050E62E00AE110700301907009FDBBF0021
:103CF0009D190700FD1907000040EB009A19070005
:103D0000FA1907000040EB0097190700F7190700A0
:103D1000261907009FDBBF000040E8009FFBB700AB
:103D20009FDBBF0090190700F01907009EDBBF0062
:103D30000040E9009EFBB7000000EB0000DD8800BA
:103D40000C003700B919070008FE07000040EB001F
:103D5000F719070010408000E20F500002003E00FB
:103D600000C2B300EE12070000DD80000000E80092
:103D700000DD88009EDBBF008080FB0000DD80004E
:103D8000808F5000EFFF3E00A8190700F7FD0700E5
:103D900010C0B300E6190700D0C0B300E01207005E
:103DA000A0C0B300DE120700170037009DDBBF0084
:103DB0000004E0000F003A00A0E72E008E1107007B
:103DC000130007003500070022C2BF0061406000F9
:103DD0000004E000FBFF32003011800000DD8800AD
:103DE000D0C0B300CE120700A0C0B300CC120700B1
:103DF0000500370070C1B300E01207000200370071
:103E000080C1B300DD1207000080FA000000060048
:103E10000000FA00C922A800C902A800CB02A9002C
:103E2000CB22A90062A0A80062C0A8008660A900F9
:103E30000000EB0010DD88000040EB00A7FBB7009E
:103E4000CBC2BF000080FB000000D10061406000D9
:103E50006141600061BA210091407800E0CFB30079
:103E600000C0600002407000A6FBB700CBC2BF00DC
:103E700061406000614060004201DD0061BA2100E4
:103E800091407800B0CFB30000C0600002407000E5
:103E9000A6FBB7000080FA00000006000400FA004C
:103EA00086C0BF00684060000004E0008B00320064
:103EB000CBC2BF000080FB000000D1006140600069
:103EC000614060000041400061BA210091407800EB
:103ED000D0CFB30000C0600002407000A6FBB70066
:103EE000CBC2BF0061406000614060004301DD0063
:103EF00061BA21009140780070CFB30000C060002B
:103F000002407000A6FBB7008660A900A6DBBF00D8
:103F1000644060000004E00022003200A6DBBF0025
:103F2000684060000004E0001E003200A6DBBF0015
:103F3000614060000004E0000B003200A6DBBF001F
:103F4000624060000004E00007003A00200020000A
:103F500010DD88000040EB00A7FBB700B0C5B30040
:103F60006F12070046003700A6DBBF00614060000B
:103F70000004E00042003A00A6DBBF00624060009F
:103F80000004E0003E0032000000EB0010DD88007D
:103F90000040EB00A7FBB700D0C5B30060120700DC
:103FA00037003700A6DBBF00644060000004E0007B
:103FB00033003A00A6DBBF00684060000004E00068
:103FC0002F00320010DD8000100798001E009000C6
:103FD000E20F5000040032001E009000E30F50007A
:103FE0001700320026003700A4DBBF00004040006D
:103FF000A4FBB700A6DBBF000080FB000000D100DF
:104000006140600080407800A4DBBF0000C0400039
:10401000A4FBB700A7DBBF000040E800A7FBB70088
:10402000A7DBBF00E84F500015003A000040EB004E
:10403000A7FBB7003000200010DD8800100037001B
:10404000CBC2BF000080FB000000D10061406000D7
:10405000004F7800A4DBBF0044FD07001E04E00011
:1040600003003200D0C2B3002D1207000200370057
:10407000B0C2B3002A1207002000200010DD880023
:10408000A6DBBF000080FB000000D10061406000A3
:104090006141600061BA210091407800E0CFB30037
:1040A00000C0600002407000A6FBB700A6DBBF00A6
:1040B0000080FB004300DE00614060006140600062
:1040C0004201DD0061BA210091407800B0CFB30019
:1040D00000C0600002407000A6FBB7000080FA003C
:1040E000000006000000FA000602A80006C2BF0099
:1040F000614060000004E000FCFF3A000080FA002C
:10410000000006000000FA000642A80006C2BF0038
:10411000644060000004E000FCFF3A000080FA0008
:10412000000006000000FA0009C2BF000080FB008A
:104130004700DE000080FB000080FA00000006005F
:104140000200FA00004F78009E40780061C06000D5
:10415000614060004501DD00612020009140780051
:10416000F0CDB30000C060000240700006E2B7006E
:104170000682A80006C2BF00704060000004E00094
:10418000FCFF3A000080FA00000006000200FA007E
:10419000004F78001E40780002E2B70009C2BF005D
:1041A0000044B2000004E000FCFF3A000080FA0086
:1041B000000006000200FA000662A80006C2BF0066
:1041C000684060000004E000FCFF3A0000C2BF004D
:1041D000004F78001E80FB000080FA0000000600FF
:1041E0000000FA000742A9000782A9000000EB00C6
:1041F000501088000000EB00601088000702A90042
:104200000AC8BF008080FB00C0C1210000804000C0
:10421000104078000080FB002010880007E2A80012
:104220000080FA00000006000600FA000CC8BF007B
:104230000080FB006101B900120798002307980075
:10424000C0012000010020001E019000AE0190007E
:10425000800F5100818F590032013E001E009000F6
:10426000AE009000006001004E0037007000370083
:104270003C0037004100370046003700BC003700E3
:104280008E00370098003700A2003700A8003700E2
:10429000AB003700AE003700B10037002101370016
:1042A000200137001F0137001E0137001D013700B4
:1042B0001C0137001B0137001A01370019013700B4
:1042C00018013700170137000400370021003700BC
:1042D000160137001301370014013700E0C1B300A5
:1042E000A61107001200200021002000100020006D
:1042F000A20E07000040E9006140600061416000DB
:1043000081BC210091407800E0CFB30000C0600084
:1043100002407000C8FBB700C8DBBF00614060000E
:1043200000C0EA0061406000614060004601DD00BD
:10433000B180200091407800F0CBB30000C0600055
:10434000024070000BE8B7000B48A8000B88A800DB
:10435000F6003700860107000040EB0087110700D8
:10436000F2003700F300070020C0B300430107004C
:1043700000792E0020100700EC003700ED00070048
:1043800030C0B3003D010700A07B2E001A100700CB
:10439000E6003700E7000700207E2E001610070019
:1043A000E200370080408000E10F500007003A0033
:1043B000E0010700C6FBB70010C0B3006F11070093
:1043C000C6DBBF0069FC07001400370020C0B30043
:1043D0006A1107008040800064FC070030C0B30011
:1043E000661107000000EB0020DE880007003700A0
:1043F000D00107005DFC070000C2B30048110700B0
:1044000020DE80000000E80020DE8800814080007F
:1044100020DE8000808F5000F5FF3E00D0C0B3004A
:104420003F110700A0C0B3003D110700BF003700D7
:1044300040C0B30051110700704080004BFC0700E2
:1044400080408000E10F500004003A00704080007E
:1044500052010700C6FBB70013003700F07E2E00A4
:10446000CF0F07008040800040FC070050C0B30021
:10447000421107000000EB0020DE88000600370034
:104480007040800045010700C6FBB70020DE8000B9
:104490000000E80020DE88008140800020DE8000EF
:1044A000808F5000F6FF3E00D0C0B3001C11070003
:1044B000A0C0B3001A1107009C003700E1010700FB
:1044C000C6FBB700D0C0B3002C110700C6DBBF008D
:1044D000AC0F0700D0C0B30011110700A0C0B3009B
:1044E0000F11070091003700E0C0B300231107004F
:1044F000DE010700C6FBB700C6DBBF00A10F070047
:10450000D0C0B30006110700A0C0B300041107001B
:10451000860037008040800014FC070000C1B30013
:104520001611070080408000F90107007F00370066
:1045300010C1B30011110700020207007B00370011
:1045400020C1B3000D1107001702070077003700E4
:1045500030C1B30009110700CB0107007300370019
:1045600040C1B30005110700E20107006F003700EA
:1045700071408000010F78001E017800E10F5100AA
:104580000D0032009E017800E18F510007003900D4
:104590001E007800E20F50000C0032009E007800F0
:1045A000E38F5000550032005B003700307F2E0053
:1045B0007B0F07005D003700A700070000842E0076
:1045C0008D0F07005B00070058003700E0842E00C5
:1045D000890F0700A000070000842E00860F070047
:1045E000A90107005300070020C0B300A300070083
:1045F00000C0EB00C601070000C0EB00C4010700CB
:104600004C00070030C0B3009C0007000000EB0026
:1046100020DE88000700370020DE80000000E80070
:1046200020DE880021DE8000900F2000808F500067
:1046300003003E00830107000004E000F6FF3200A3
:104640003C0007008400070000842E006A0F07006A
:104650003800070030C0B3008800070020DE80006B
:10466000C2FB0700E0852E00630F07000040EB004F
:10467000C6FBB7001A003700C6DBBF000040E800E9
:10468000BAFB070070872E00450F070029010700BD
:10469000B6FB070000C2B300A11007002501070008
:1046A000B2FB070000C2B3009D1007002101070004
:1046B000AEFB070000C2B300991007001D01070000
:1046C000AAFB0700D0C0B30095100700A0C0B3003C
:1046D00093100700C6DBBF000040E800C6FBB70030
:1046E000C6DBBF008080FB0020DE8000808F500092
:1046F000E1FF39000F0007000C003700B0872E00E3
:104700003D0F0700E08B2E003B0F0700308F2E007F
:10471000390F07000500370070C1B300971007007C
:104720000200370080C1B300941007000080FA0037
:10473000000006000200FA00E0912E00180F0700AA
:10474000C0DBBF000080FB00000F78001E00780077
:10475000E10F50000E0032001E007800E10F500003
:1047600004003C001E0078000000E0000B00320056
:10477000350037001E007800E20F50000F003200B5
:104780001E007800E30F5000240032002E00370096
:1047900070922E00180F07002D003700A4010700AB
:1047A00010C0B3005A01070010C0B300C0FBB7002F
:1047B00040932E00100F070025003700C1DBBF001B
:1047C000E14F50000A003A00C2DBBF00E14F500049
:1047D00002003A002C0107000100370045010700E4
:1047E0000040EB00C1FBB70000942E00EC0E070068
:1047F0007401070020C0B300450107008C010700C9
:1048000010C0B3004201070010C0B300C0FBB700E6
:1048100050952E00F80E07000D00370069010700C3
:1048200020C0B3003A0107008101070010C0B300A7
:104830003701070010C0B300C0FBB700E0952E00A1
:10484000ED0E07000200370070962E00EA0E0700FA
:104850000080FA00000006000000FA00590107007D
:10486000A0C0B3002A010700710107000040EB005F
:10487000C0FBB7000080FA00000006000400FA0048
:10488000004F7800C0DBBF00E14F50000200320053
:1048900050972E00D80E0700E0912E00C00E0700A2
:1048A0001E80FB00100798001E009000E10F5000D2
:1048B0000E0032001E009000E10F500004003C008A
:1048C0001E0090000000E0000B00320024003700C2
:1048D0001E009000E20F5000160032001E009000F3
:1048E000E30F5000080032001D00370070922E00C8
:1048F000C10E07001C003700D7FF070010992E00DB
:10490000BD0E0700180037002E01070010C0B300CD
:10491000FF0007004601070020C0B300FC000700AD
:1049200030C0B300C0FBB70070992E00B20E070074
:104930000D0037002301070020C0B300F40007007A
:104940003B01070020C0B300F100070020C0B30006
:10495000C0FBB700B09A2E00A70E07000200370078
:10496000009E2E00A40E07000080FA000000060042
:104970000000FA00C8E2A800C902A900C922A900E3
:10498000C8C2A900CAE2A900CB02A900CB22A90093
:10499000CAC2A9000080FA00000006000800FA0060
:1049A0004047980000010700C1DBBF00E14F500005
:1049B00006003A00C2DBBF00910007000040EB0098
:1049C000C1FBB700A09F2E008B0E07000BC8BF00D5
:1049D000684060000004E0000300320010C0B30033
:1049E000004F78000200370000C8B300004F780085
:1049F0000040EB0030479800450037004E409000E3
:104A00001E4060000004E00002003A00B900070008
:104A1000010037009C000700CA000700CAC2BF009F
:104A20000080FB004700DE00204798000BC8BF0055
:104A3000684060000004E000100032004E4090002A
:104A40000080FB000000D100404798001E4090000D
:104A50000080FB000000D100104798002E4090001D
:104A6000E14F500011003A001E40900001C8B30011
:104A700001404000104798000C0037004E40900065
:104A800000404000404798001E4090000040400019
:104A9000104798002E409000E14F500003003A006C
:104AA0001E4090000040E80010479800BE0007003C
:104AB000C0DBBF00E24F500012003A003E409000C1
:104AC000E64F50000F003A0010C0B300C1FBB70022
:104AD0004E4090001E4060000004E00003003A00D9
:104AE0000040EB00C2FBB7000200370010C0B3006B
:104AF000C2FBB7001E4090000080FB00300798000A
:104B0000090037003E4090000040E8003047980020
:104B10003E409000E74F5000B8FF36001E40900026
:104B20000080FB00300798003E0090000080FA00F3
:104B3000000006000400FA009B000700C1DBBF0074
:104B4000E14F500006003A00C2DBBF002C00070016
:104B50000040EB00C1FBB700A09F2E00260E07000F
:104B60000040EB00204798001F0037007500070049
:104B7000CAC2BF000080FB004700DE00104798005B
:104B80000BC8BF00684060000004E00008003A0065
:104B90001E40780000404000004F78001E4090000A
:104BA0000004E0000C0032001E4FE8000A0037004D
:104BB0001E80FB000000D100004F78001E409000D6
:104BC0000004E000040032001E40780001C8B30079
:104BD00001404000004F7800730007002E40900015
:104BE0000040E800204798002E409000E74F50001A
:104BF000DEFF36001E80FB000080FA000000060089
:104C00000400FA00204798002E4090000004E000C5
:104C100002003A0037000700010037001A000700C1
:104C200048000700CAC2BF000080FB004700DE004A
:104C3000004F78005C0007001E80FB000080FA0037
:104C4000000006000200FA003E000700CAC2BF00D2
:104C50000080FB004700DE00004F78005200070094
:104C60001E80FB000080FA00000006000000FA0031
:104C7000CAC2BF000080FB004700DE000080FB00CE
:104C80000080FA00000006000000FA00C8DBBF0048
:104C90006140600000C0EA00614060006140600067
:104CA00000414000912C200091407800D0CFB3000B
:104CB00000C0600002407000C9E2B700C8DBBF005E
:104CC000614060006140600000414000B12C200064
:104CD00091407800D0CFB30000C060000240700067
:104CE000CBE2B70040C1B30057FA07000080FA00DA
:104CF000000006000000FA00CB22A900C922A9008A
:104D000040C1B30050FA07000080FA00000006001E
:104D10000400FA00204798000040EB00004F7800A4
:104D200003003700070007001F0007001E4FE800C0
:104D30002E4090009E4F1000FAFF39000080FA00CC
:104D4000000006000000FA00C8DBBF006140600000
:104D500000C0EA006140600061416000912C2000C9
:104D600091407800E0CFB30000C0600002407000C6
:104D7000C9E2B700C8DBBF0061406000614160006C
:104D8000B12C200091407800E0CFB30000C060005B
:104D900002407000CBE2B70040C6B3002AFA070019
:104DA0000080FA00000006000000FA00CB02A90013
:104DB000C902A90040C6B30023FA07000080FA0028
:104DC000000006000000FA00C8DBBF006140600080
:104DD00000C0EA0061406000614060004601DD0003
:104DE000812C200091407800F0CBB30000C060001F
:104DF00002407000C8E2B700C8DBBF00614060003D
:104E0000614060004601DD00A12C20009140780047
:104E1000F0CBB30000C0600002407000CAE2B700EF
:104E200040C1B30008FA07000080FA000000060045
:104E30000000FA00CAC2A900C8C2A90040C1B3005C
:104E400001FA07000080FA00000006000200FA00E4
:104E5000F0C2B300104798000040EB00004F78000C
:104E6000C922A800CB22A900C922A9000500370049
:104E7000A0C0B300F4F907001E4090000040E90014
:104E8000104798001E4090000004E000F8FF3C002E
:104E9000C922A800C0C3B300EBF90700CBC2BF0012
:104EA0000080FB000000D1006140600020FCB700E2
:104EB00090C2B3001047980005003700A0C0B300AF
:104EC000E1F907001E4090000040E90010479800FB
:104ED0001E4090000004E000F8FF3C00CBC2BF0081
:104EE0000080FB000000D1006140600021FCB700A1
:104EF00021DCBF000004E00002003A0010C0B30053
:104F0000004F780020DCBF00E14F500003003A0062
:104F10001E40780000C0E800004F7800A0C0B30039
:104F2000C9F907001E80FB000080FA00000006009F
:104F30000400FA002047980080C0B300004F7800BA
:104F40001D0037002E4090006140600022FCB70039
:104F5000CB22A900C922A90050C0B300BAF90700AA
:104F600022DCBF0061406000614060000041400001
:104F7000912C200091407800D0CFB30000C0600099
:104F800002407000C9E2B70020C3B300AEF90700C9
:104F900050C0B300ACF90700C922A800A0C0B300FC
:104FA000A9F907002E4090000080FB000000D1000E
:104FB000204798001E4FE9001E04E000E1FF3C007E
:104FC000A0C0B300A0F907000080FA0000000600AE
:104FD0000200FA00004F7800CB22A900C922A900E4
:104FE00050C0B30098F907009E40780061C060008F
:104FF0006140600000414000912C20009140780009
:10500000D0CFB30000C0600002407000C9E2B7001A
:1050100020C3B3008CF9070050C0B3008AF9070021
:10502000C922A800A0C0B30087F907000080FA00D9
:10503000000006000200FA0080C0B300104798008C
:105040000040EB00004F78001D003700CB22A90084
:10505000C922A90030C0B3007BF90700C922A8000B
:1050600050C0B30078F90700CBC2BF000080FB003E
:105070000000D1006140600022FCB70040C3B300D3
:1050800071F907001E80FB000000D100004F78007E
:1050900022DCBF00E14F500004003A001E407800BF
:1050A00001C8B30001404000004F7800A0C0B30029
:1050B00065F907001E4090000040E9001047980085
:1050C0001E4090000004E000E0FF3C00A0C0B300E0
:1050D0005DF907001E80FB000080FA00000006005A
:1050E0000000FA00CB22A900C922A90030C0B300F9
:1050F00055F90700C922A80050C0B30052F90700B3
:10510000CBC2BF000080FB000000D1006140600006
:1051100022FCB70040C3B3004BF90700A0C0B300A6
:1051200049F9070022DCBF000080FB000080FA0084
:10513000000006000800FA002007980031079800D8
:105140000040EB00004F78000000EB0010079800D3
:105150000C0037001E009000800078002E009000A8
:1051600000804000104078001E4068008080FB00F6
:10517000400E2F00614F78001E0090000000E800F4
:10518000100798009E0090003E009000808F500015
:10519000F0FF35001E80FB000080FA0000000600D2
:1051A0000600FA00881F78000CC8BF000080FB00D2
:1051B0006101B9001207980023079800C001200080
:1051C000010020001E019000AE019000800F5100F0
:1051D000818F5900C3013E001E009000AE00900078
:1051E000006001001C0037004000370060003700FD
:1051F0005F003700BB0137009F0037005E003700BB
:10520000B801370065003700B6013700B501370037
:105210007700370076003700B2013700B101370060
:10522000B0013700AF013700AE013700AD013700E4
:10523000AC013700AB013700AA013700A9013700E4
:10524000A80137007D00370080003700A701370034
:10525000A4013700A501370080408000E10F500015
:1052600007003A0010C0B300C40D070071FF07002B
:1052700003FBB70003DBBF00BCF8070016003700D4
:1052800020C0B300BD0D070080408000B7F80700C4
:1052900030C0B300B90D07000000EB0000D8880053
:1052A0000900370063FF070003FBB70003DBBF0003
:1052B000AEF8070000C2B300990D070000D88000C7
:1052C0000000E80000D888008140800000D88000FD
:1052D000808F5000F3FF3E00D0C0B300900D070058
:1052E000A0C0B3008E0D07008001370040C0B3009E
:1052F000A20D0700704080009CF8070080408000ED
:10530000E10F500003003A007040800008FF0700E2
:1053100012003700C0452E00210C0700804080009D
:1053200092F8070050C0B300940D07000000EB0096
:1053300000D888000500370070408000FCFE0700A0
:1053400000D880000000E80000D88800814080007C
:1053500000D88000808F5000F7FF3E00D0C0B3001F
:105360006F0D0700A0C0B3006D0D07005F0137008F
:10537000610107005D01370059FF070003FBB7001B
:10538000D0C0B3007D0D070003DBBF00FD0B07009D
:10539000F0C0B300790D0700540137008040800051
:1053A00072F8070000462E00FD0B07000000EB001E
:1053B00000D8880005003700F6DABF0004FF0700B8
:1053C00000D880000000E80000D8880081408000FC
:1053D00000D88000808F5000F7FF3E00F6DABF0053
:1053E000E80B070000472E00030C07003F013700C1
:1053F00020472E00EA0B07000CC8BF00EC4F5000FE
:1054000005003A000040EB00F6FAB7000040EB0060
:10541000DC0B07000400370010C0B300F6FAB70039
:1054200010C0B300D70B0700E0472E00F20B0700B7
:10543000F6DABF00E6FE07002C0137000B48A90092
:105440000B88A8000BC8A800280137000040EB001B
:1054500004FBB700C922A800CB22A900904A2E0065
:10546000E50B0700A04D2E00E30B07000040EB000A
:10547000420D07001D013700704080000000E00071
:10548000360032007140800020032000808F5000E1
:1054900032003E00704080000000E900704088004B
:1054A0007140800004DBBF000080FB00808F500053
:1054B0000300390040502E00CF0B07000B013700CE
:1054C000E0522E00B60B0700704080000040E8005C
:1054D000730C0700D0532E00B10B07000040EB0007
:1054E00002FBB700170037007240800002DBBF00EC
:1054F0008080FB004310DD008100400050B021009F
:10550000008040001040780018F8070000C2B30087
:10551000030D07007240800002DBBF008080FB00AB
:105520004310DD008100400050B0210000804000A9
:10553000104078007EFE070002DBBF000040E8005C
:1055400002FBB70002DBBF00E74F5000E6FF36006A
:1055500000542E00A80B0700E400370071408000C3
:10556000010F7800500520001E017800800F5100C7
:10557000CD003200500520009E017800808F510040
:1055800008003E001E0078000000E000120032001B
:10559000300320009E007800808F5000A000320071
:1055A000CD003700C00E20001E017800800F510092
:1055B00046003200000F20009E017800808F5100CD
:1055C00042003200C00C20009E007800808F500006
:1055D000BB003200C000370020542E00860B0700AD
:1055E00000552E00840B070004DBBF000004E00020
:1055F00003003A0040502E007F0B070030003700B8
:105600000040EB0003FBB7002800370000C2B300E6
:10561000C30C070003DBBF000040E800200C0700BC
:1056200080562E005E0B07000040EB0002FBB70027
:105630000F00370003DBBF000081FB0002DBBF006F
:105640008080FB004310DD008100400050B021004D
:105650000080400010407800C4F7070000C2B3008B
:10566000AF0C070002DBBF000040E80002FBB70000
:1056700002DBBF00E74F5000EEFF3600A0562E00C1
:10568000470B070003DBBF000080FB00C300DD0009
:1056900050B021000080400010407800B7000700A3
:1056A00003DBBF000040E80003FBB70041B021006E
:1056B0009140780003DBBF0080CF5000D3FF3E0055
:1056C00010572E004C0B07008800370070408000F8
:1056D00042F9B70071408000C00E2000808F50005A
:1056E00003003A0050642E00430B0700020037000D
:1056F00090652E00400B070000552E003E0B070062
:105700000040EB0002FBB700CB00070003FBB70033
:105710000040EB0004FBB7003B00370000C2B300C1
:105720007F0C070002DBBF000040E800DC0B070035
:1057300080562E001A0B07000000EB0000D88800EE
:105740000A00370001D8800050B5210000804000D9
:105750001040780085F7070000C2B300700C070006
:1057600000D880000000E80000D8880000D8800041
:10577000E70F5000F3FF3600A0562E00080B07007D
:1057800055DBBF007D00070002DBBF00E94F500082
:1057900018003E000000EB0000D888000F00370022
:1057A00004DBBF008081FB0004D8800001D88000AA
:1057B00050B5210000804000104178004318DD0002
:1057C0008400400050B02100008040000248780072
:1057D00000D880000000E80000D8880000D88000D1
:1057E000E70F5000EEFF360004DBBF000040E8008A
:1057F00004FBB70002DBBF000040E80002FBB7007B
:105800009800070003FBB70003DBBF000004E000C3
:10581000C2FF3A0070662E00F70A07003300370017
:105820003500070030692E00DD0A070030C3B300E1
:10583000BFFD07000000EB0000D888001000370013
:1058400008D88000FBFD07008040780070AF210081
:10585000000044000148780001D8800070AF2100AA
:10586000008040001040780040F7070000C2B300FD
:105870002B0C070000D880000000E80000D888004A
:1058800000D88000E70F5000EDFF3600D0C0B30015
:10589000230C0700A0C0B300210C0700F7DABF00FB
:1058A000360007001100370013000700506A2E0071
:1058B000D10A070050C5B3009DFD07000B0037005B
:1058C0000D000700606B2E00CB0A0700C0CCB300B0
:1058D00097FD07000500370070C1B300270C0700D3
:1058E0000200370080C1B300240C07004F04780089
:1058F0000080FA00000006000200FA0053FD0700D5
:10590000004F7800606C2E00A50A07001E04E0001E
:1059100003003A00106D2E00B70A0700150037008B
:10592000406D2E009E0A07001E80FB006100600093
:105930000004E00002003200C06D2E00980A07004B
:105940001E80FB000000D100610060000004E00048
:1059500002003200206F2E00910A070070702E00A6
:105960008F0A07001E40780000F7070000472E004E
:10597000A10A07000080FA00000006000400FA00F7
:10598000004F78001E80FB001007980020022000C6
:105990009E009000808F50001A00320020022000EC
:1059A0009E009000808F500007003C001E00900079
:1059B000E40F5000160032009E009000F08F50005F
:1059C0000A00320018003700800220009E0090007C
:1059D000808F500008003200D00220009E0090000E
:1059E000808F50000D0032000F00370090702E00A5
:1059F000810A07000E00370050722E007E0A070051
:105A00000B00370000742E007B0A070008003700E7
:105A100060752E00780A070005003700F0762E002A
:105A2000750A07000200370000782E00720A07008E
:105A30000080FA00000006000000FA000040EB00C1
:105A40005DFBB7000040EB005FFBB7000040EB00E0
:105A50005EFBB700080007000080FB000080FA0032
:105A6000000006000000FA00030007000080FB00B1
:105A70000080FA00000006000A00FA0010C0B3001F
:105A8000704798000040EB00604798000040EB0032
:105A90005047980010C0B300104798000040EB003A
:105AA000404798000040EB0060FBB7005FDBBF00A1
:105AB0000004E0008B003A00E4FC07000004E00072
:105AC000090032000040EB005DFBB7000040EB0036
:105AD0005FFBB7000040EB005EFBB7000000EB008F
:105AE000400798009000370042D9BF0010FD070022
:105AF0007BFD07003047980079FD0700204798009C
:105B00003E409000E14F500003003A002E409000CC
:105B1000E14F500063003200BE4090002E409000E4
:105B200080CF5000030032003E409000004F7800CC
:105B300024003700D1B52100914078007E409000CC
:105B4000814F50000E0031005E4090008080FB00CD
:105B500050B5210000804000904078001E40900029
:105B600080C060000040EB00004F78000104E000BE
:105B70000B00320010C0B300004F7800080037005F
:105B80005DDBBF008040EB00014F7800FE409000DD
:105B900080CF500002003A0010C0B300004F7800E0
:105BA0001E04E00007003A007E4090006047980025
:105BB0006E409000E84F500002003E006E409000A2
:105BC0005EFBB70010C0B3009E4F10000D003A00FE
:105BD0005E4090000081FB005E4090008080FB00F2
:105BE00050B5210000804000904078001E40900099
:105BF00080C0700050B521000000410001487800CD
:105C00000F0037005E4090000081FB005E40900076
:105C10008080FB0050B521000080400010407800DB
:105C2000804078001E40900000C0EA0000C0600084
:105C30008040780050B52100000041000148780004
:105C40001E407800E2FC07007E4090000040E80023
:105C5000704798001E409000004040001047980098
:105C60001E4090000004E0000B003A005E409000EF
:105C70008080FB0050B5210000804000104078007B
:105C8000840007005E4090000040E8005047980004
:105C900010C0B300104798005E409000E74F5000DE
:105CA00093FF3600FE40900000C4B30080CF500048
:105CB0000C00360060DBBF000004E00009003A0081
:105CC0006E4090005DFBB7005DDBBF000004E000AC
:105CD00002003A0010C0B3005FFBB70010C0B30071
:105CE000404798004E4090000004E000030032005E
:105CF00055DBBF000004E00008003A000040EB0064
:105D00005DFBB7000040EB005FFBB7000040EB001D
:105D10005EFBB7000040EB00404798004E4090000B
:105D20000080FB00400798004E0090000080FA00C1
:105D3000000006000E00FA000040EB00404798000B
:105D40000C0037004E4090000081FB004E40900058
:105D50008080FB0050B5210000804000904078001A
:105D600065004700017178004E4090000040E80057
:105D7000404798004E409000E74F5000F1FF36003A
:105D80005DDBBF00204798005FDBBF001047980035
:105D90005EDBBF00004F780000C4B3005DFBB700BE
:105DA0000040EB005FFBB70033FF07000004E0009A
:105DB0001A00320010C0B300304798000040EB00DA
:105DC00040479800110037004E4090008080FB0053
:105DD00065004700614178004E4090008080FB00E4
:105DE00050B521000080400010407800804F5100E5
:105DF000030032000040EB003047980009003700F4
:105E00004E4090000040E800404798004E4090000F
:105E1000E74F5000ECFF3600020037000040EB0077
:105E2000304798000040EB00404798000C003700D6
:105E30004E4090000081FB004E4090008080FB00AF
:105E400065004700E140780050B5210000004100A6
:105E5000014878004E4090000040E800404798001C
:105E60004E409000E74F5000F1FF36002E4090006A
:105E70005DFBB7001E4090005FFBB7001E4078003E
:105E80005EFBB7003E4090000080FB000080FA00FF
:105E9000000006000200FA00004F780060DBBF003F
:105EA0001E4068008080FB0030942100008040008C
:105EB0001040780060FBB70060DBBF000080FB0093
:105EC0000080FA00000006000400FA000CC8BF00C1
:105ED0000080FB00100798001E009000F80F500093
:105EE000170032001E009000F80F50000A003C001E
:105EF0001E009000E10F5000380032001E0090009C
:105F0000E50F50004F0032001E0090000000E0003E
:105F1000110032006E0037001E009000FA0F500092
:105F20006D0032001E009000FA0F50000600350090
:105F30001E009000FC0F5000670032006400370024
:105F40000BC8A800640037009D0007000040EB006C
:105F50008A0A07006000370080408000E10F50008F
:105F600005003A0010C0B300840A07002E010700A4
:105F70005B0007001400370020C0B3007F0A070051
:105F80008040800079F5070030C0B3007B0A07002D
:105F90000000EB00F0DE8800070037002201070058
:105FA0004F00070000C2B3005D0A0700F0DE80006A
:105FB0000000E800F0DE880081408000F0DE800014
:105FC000808F5000F5FF3E00D0C0B300540A070098
:105FD000A0C0B300520A07003F00370040C0B30022
:105FE000660A07007040800060F50700704080007E
:105FF0004B010700E0FBB700E0DBBF000004E0005E
:1060000003003A0060C0B3005C0A070008003700D4
:10601000E0DBBF00E14F500003003A0070C0B30066
:10602000560A070002003700A0472F00DC080700CF
:10603000D0C0B3003A0A0700A0C0B300380A070076
:106040002500370070408000000F78001E007800A7
:106050000000E000040032001E007800E10F500054
:10606000040032001700370070482F00E2080700D4
:1060700019003700E04A2F00DF080700EA00070098
:106080000004E00004003A00E3DBBF0037F507003E
:1060900000C2B300220A070022C2BF0061406000B4
:1060A0000004E000F5FF320030118000E0FBB70093
:1060B000D0C0B3001A0A0700A0C0B300180A070036
:1060C0000500370070C1B3002C0A0700020037003A
:1060D00080C1B300290A07000080FA000000060012
:1060E0000400FA00004F78001E80FB0010079800A3
:1060F0009E009000E28F50001D0032001E009000B4
:10610000E20F500007003C009E0090000100E000FC
:106110000F0032001E009000E10F5000110032000D
:10612000230037009E009000E48F50001A003200D8
:106130001E009000E40F500012003500F00F200008
:106140009E009000808F500016003200180037002B
:10615000E3DBBF0005F5070000C2B300F00907004C
:1061600015003700B04C2F008D08070012003700D3
:10617000E3DBBF00FDF40700C04D2F0088080700D7
:106180000D003700E3DBBF00F8F40700B04E2F002E
:106190008308070008003700A0472F008008070089
:1061A00005003700B04F2F007D08070002003700C0
:1061B00010502F007A0807000080FA000000060047
:1061C0000000FA00C922A800C902A900CB02A90058
:1061D000CB22A9000080FA00000006000400FA00AB
:1061E0000040EB002E0107000004E0000300320035
:1061F00020002000100798000E003700CBC2BF001F
:106200000080FB000000D10061406000004F78007A
:1062100010C0B300220107000004E00003003200B8
:106220002000200010079800020037001E80FB00AD
:10623000100798001E0090000080FA000000060081
:106240000600FA000040EB00204798000040EB00F9
:1062500010479800CBC2BF000080FB000000D100B7
:10626000614060006141600021BE210091407800E2
:10627000E0CFB30000C0600002407000E2FBB70056
:10628000E2DBBF00614060000004E0000300320078
:1062900010002000200798006000370010C0B300F5
:1062A000FF0007000004E00003003200410020006E
:1062B00021079800590037000040EB003047980054
:1062C000190037001E4090000080FB000000D10044
:1062D00010479800C1FF0700004F780020C0B300AE
:1062E0009E4F100003003A00410020002107980053
:1062F0004A00370010C0B3009E4F100007003A005C
:106300009E40900000C8B30000C0400010479800B5
:106310002E4090000004A200204798003E409000CC
:106320000040E800304798003E409000E74F5000A2
:10633000E4FF36001E409000E3FBB700A7FF070014
:10634000004F780021C0B3009ECF100003003A0038
:106350004000200020079800300037009E40780061
:1063600061C060006141600041BE21009140780041
:10637000E0CFB30000C0600002407000E4FBB70053
:10638000E4DBBF0061406000804078002E40900058
:1063900080CF500004003A00E45BA80020002000F9
:1063A000200798001D003700E45BA9008BFF070061
:1063B000004F780021C0B3009ECF100003003A00C8
:1063C0004000200020079800140037009E4078000D
:1063D00061C06000614060000041400041BE21009A
:1063E00091407800D0CFB30000C060000240700040
:1063F000E4FBB700C902A900E4DBBF006240600013
:106400000004E00003003A0030002000200798005C
:10641000020037008000EB00210798002E0090005A
:106420000080FA00000006000200FA0000C0EB0045
:10643000004F7800C922A800C902A8000040EB0064
:106440001047980010003700CBC2BF0061406000C9
:106450000004E00007003A0079FF0700004F7800D1
:106460001E04E0000B00320040C0B3009E4F10003D
:106470000800320050C0B30073F407001E409000C3
:106480000040E800104798001E409000E14F400097
:10649000EDFF3A00C902A9001E80FB000080FA004F
:1064A000000006000400FA00004F780010C0B3009E
:1064B0007B0007000004E000030032002000200001
:1064C00010079800130037009E40780061C06000FC
:1064D0006140600000414000912C20009140780014
:1064E000D0CFB30000C0600002407000C9E2B70026
:1064F0000040EB006A0007000004E00003003200E7
:106500002000200010079800020037008000EB00F8
:10651000110798001E0090000080FA00000006009D
:106520000800FA00404798000040EB002047980020
:10653000C902A900CB02A900C0C3B30042F40700FE
:10654000CB22A900C922A900C902A80010C0B3002B
:106550003DF407000040EB00510007000004E0009C
:106560000300320040002000300798004900370047
:106570000000EB00000F78001C0037004E40900038
:106580000080FB00610060000004E0000B003200AE
:1065900010C0B300C3FF07000004E0000300320096
:1065A00040002000300798003A0037002E4090004D
:1065B0000004A20020479800070037000040EB00CD
:1065C000B8FF07000004E000030032004000200094
:1065D000300798002F0037004E4090000080FB00ED
:1065E0000000D100404798001E0FE8007000200016
:1065F0009E0F1000E1FF36002E4090000004A20024
:10660000204798002E409000A6FF07000004E000FD
:106610000300320040002000300798001D003700C2
:10662000C922A800CB22A90010C0B3001C0007009B
:106630000004E00003003200400020003007980012
:1066400014003700E5FE0700E24F500003003A0057
:1066500040002000300798000E003700DFFE0700E2
:106660000080FB00000F7800200020009E0F10002B
:1066700003003A0040002000300798000500370072
:10668000C902A900CB02A9001E0078000080FB000F
:10669000300798003E0090000080FA0000000600DD
:1066A0000600FA00204798000080EB00000F7800F9
:1066B000CBC2BF0061406000804078002E40900057
:1066C00080CF500003003A000000EB002007980044
:1066D000050037001E0FE9001E00E000F4FF3A003D
:1066E00010002000200798002E0090000080FA0083
:1066F000000006001400FA00881F780050DE8000B9
:10670000E20F50000B003A0011E1A900A16C20003B
:106710009140780000CEB30000C06000CAE6B70028
:1067200020FE2E00340707000000EB0050DE88003A
:1067300091003700F0FE2E002F070700C0012F0048
:10674000170707002203200001FA20004000200064
:106750008A05070030079800E0022F0010070700A5
:106760003E009000E30F500007003E0080032F0022
:1067700021070700E00320002007980010A1A800CF
:106780001081A8001B0037003E009000FE0F500053
:1067900007003E00C0032F0017070700A00F2000CE
:1067A0002007980010A1A8001081A900110037004F
:1067B000BE009000400F2000808F500007003E0078
:1067C000F0032F000C070700007D20002007980031
:1067D00010A1A9001081A8000600370010042F00A6
:1067E0000507070000E823002007980010A1A90072
:1067F0001081A9002E0090003E01900011000900B8
:106800000280D8000000E9005007980030042F00F3
:10681000E30607005E00900072070700D0C0B300D7
:106820003F080700A0C0B3003D08070080042F0008
:10683000DB06070022032000310620002000200094
:106840004E050700000478006140B90032EC0700F3
:10685000000F9800110F98000800E00007003D00AD
:1068600002002000037824000E0890009E0890008B
:1068700055EC0700000F9800110F98000E089000CB
:106880009E089000008FBE0002002000832C240090
:106890001E00BE00A9EC0700008FBE005E00900045
:1068A000CF80DE001CEC070060079800710798009D
:1068B0005E0090000000E00007003D0002002000A4
:1068C000037824006E009000FE0090003EEC07006C
:1068D00060079800710798001E01BE006E009000CE
:1068E000FE009000D7EC07000AED07004007980073
:1068F000A16C20009140780000CEB30000C0600081
:106900006041B300CAE6B7001061A9001E61A9008A
:106910001021A900C11920009140780080CFB30058
:1069200000C060009CE1B700CE009000D10C880050
:106930004E009000C00C88009DA1A9009C81A90078
:106940009C61A900C11920009140780080CFB3005C
:1069500000C060006040B3009CE1B700DE00900022
:106960006108880011E1A80090052F00A206070029
:106970002000200050DE88004F0478000080FA00DC
:10698000000006000000FA0050DE8000E20F500018
:1069900003003A0040062F00970607007A003700F0
:1069A00050082F007E0607001FE1A90011E1A90091
:1069B000C942A800616820009140780000CEB30071
:1069C00000C06000A040B30086E6B7001061A800D8
:1069D00010A1A8001081A8001021A8000080EB00E1
:1069E000700888000080EB00600888000000EB0061
:1069F000400888000000EB00300888000000EB0031
:106A0000B00888000000EB00A00888001E61A80004
:106A10001E81A9001EA1A9001E21A9001EC1A90056
:106A2000400F2000E008880000402200D0088800C5
:106A30008780A9001FE1A80011E1A80087C0BF005E
:106A4000704060000004E000FCFF320011E1A9008A
:106A50001FE1A9003008800090DE88004008800017
:106A600080DE880080DE80000100200060DE88007B
:106A700071DE880060DE800071DE8000C000DD0015
:106A80000000200060DE880071DE880090DE80005B
:106A90006101B80060DE800071DE8000020040000D
:106AA0008380480060DE880071DE880060DE800040
:106AB00071DE8000C808DD000080FD0080407800A5
:106AC0000040EB0060DE880071DE880060DE800040
:106AD00071DE80007F060700C0092F003006070026
:106AE00062DE800073DE8000703E20000100200026
:106AF000800F5100818F59001C00360062DE80003B
:106B000073DE8000F0232400F1002000800F51008C
:106B1000818F59000B003E00F0092F00200607006E
:106B200060DE800071DE8000823E200003002000D5
:106B300093EC070067060700200A2F0018060700DD
:106B40000A003700F0092F001506070060DE8000FC
:106B500071DE800002242400F300200088EC07008E
:106B60005C060700700A2F000D060700D0C0B300B6
:106B70006B070700A0C0B3006907070086C6BF0007
:106B8000F041B30086E6B7000080FA00000006007E
:106B90000000FA000BC8BF00614060000004E00084
:106BA00002003A00C942A80001003700C8C2A8008C
:106BB000C00A2F00100607000080FA00000006003F
:106BC0000000FA000BC8BF00614060000004E00054
:106BD00003003A00C942A900CB42A80002003700D6
:106BE000C8C2A900CAC2A800B00B2F000206070045
:106BF0000080FA00000006000000FA000BC8BF0089
:106C0000614060000004E00003003A00C942A900AE
:106C1000CB42A90002003700C8C2A900CAC2A9001D
:106C2000400C2F00F40507000080FA000000060069
:106C30000200FA000BC8BF00614060000004E000E1
:106C400009003A00C942A80000000000000000004E
:106C5000CBC2BF000080FB004200DE00614060004C
:106C6000004F780008003700C8C2A80000000000EC
:106C700000000000CAC2BF000080FB004600DE002A
:106C800061406000004F7800C00C2F00C405070071
:106C90001E407800BB050700D0C0B30020070700E6
:106CA000A0C0B3001E0707000080FA000000060025
:106CB0000400FA00204080006101B8000080EB0071
:106CC0008080EB000201400083814800028FBE00FB
:106CD00090002000010020001E01BE00800F510026
:106CE000818F590020003E001E00BE0000600100A0
:106CF000090037000A0037000B0037000C0037008E
:106D00000D0037000E0037000F003700100037006D
:106D1000110037001200370021F907001300370077
:106D2000A30707001100370065F207000F003700C6
:106D300079EF07000D0037003BF507000B00370027
:106D4000F8EC0700090037008CEE07000700370059
:106D50005DFC07000500370000090700030037004D
:106D6000A709070001003700C222A9000080FA002D
:106D7000000006000000FA00B00020000080FA00C9
:106D8000000006000000FA00204080008000400063
:106D900020B6210000804000100078008005070028
:106DA0000080FA00000006000200FA00004F7800A0
:106DB0001E80FB008000400020B6210000804000C3
:106DC00010007800760507000080FA000000060039
:106DD0000800FA00004F780000C6B3009E4F100074
:106DE00007003600A0C7B3009E4F100004003E000D
:106DF0001E40780001CEB30001404000004F7800F3
:106E00001E80FB006101B900D0FD2F00F1FF2F00B3
:106E10000201400083814800220798003307980050
:106E2000B0052000010020002E019000BE0190005E
:106E3000800F5100818F59009C003E002E00900071
:106E4000BE0090000060010082003700970037000C
:106E50009600370095003700940037009300370004
:106E60009200370091003700820037008F00370012
:106E70008E0037008D0037008C0037008B00370004
:106E80008A00370089003700880037008700370004
:106E90008600370085003700840037008300370004
:106EA0008200370081003700800037007F00370004
:106EB000720037007D003700500037007B0037003C
:106EC0007A0037006100370058003700770037003C
:106ED000760037004B0037004C0037007300370056
:106EE0004C00370071003700700037004100370058
:106EF000310037006D0037003100370032003700B5
:106F00006A00370069003700680037006700370003
:106F10006600370035003700640037006300370033
:106F20006200370061003700600037005F00370003
:106F30005E0037005D0037005C0037005B00370003
:106F40005A00370059003700580037005700370003
:106F50005600370055003700540037005300370003
:106F60005200370051003700500037004F00370003
:106F70004E0037004D0037004C0037004B00370003
:106F80004A00370049003700480037004700370003
:106F90004600370045003700440037004300370003
:106FA0004200370041003700400037003F00370003
:106FB0003E00370033003700D70007003E0037009F
:106FC000010107003C0037000BC8BF0070406000A3
:106FD0000004E00003003A0080C1B3006706070028
:106FE000350037000501070033003700290107008D
:106FF00031003700450107002F0037006906070000
:107000002D0037005FFE07002B003700B9FD070099
:107010002900370049000700204080000000E00000
:107020002500320078000700230037002040800050
:107030000000E00003003A0080C1B3004F060700E3
:107040001D003700540107001B0037006D010700C9
:1070500019003700E03A2F00E704070023C2BF0001
:10706000614060000004E000FCFF32000000FE0010
:1070700011003700810107000F00370013000700DF
:107080000D003700204080000000E00004003A00BE
