:020000040000FA
:10000000040C040000000000D8800000D88000002C
:10001000D8800000D8800000D8800000D880000080
:10002000D8800000D8800000D8800000D880000070
:10003000D8800000D8800000D8800000D880000060
:10004000D8800000D8800000D8800000D880000050
:10005000D8800000D8800000D8800000D880000040
:10006000D8800000D8800000D8800000D880000030
:10007000D8800000D8800000D8800000D880000020
:10008000D8800000D8800000D8800000D880000010
:10009000D8800000D8800000D8800000D880000000
:1000A000D8800000D8800000D8800000D8800000F0
:1000B000D8800000D8800000D8800000D8800000E0
:1000C000D8800000D8800000D8800000D8800000D0
:1000D000D8800000D8800000D8800000D8800000C0
:1000E000D8800000D8800000D8800000D8800000B0
:1000F000D8800000D8800000D8800000D8800000A0
:10010000D8800000D8800000D8800000D88000008F
:10011000D8800000D8800000D8800000D88000007F
:10012000D8800000D8800000D8800000D88000006F
:10013000D8800000D8800000D8800000D88000005F
:10014000D8800000D8800000D8800000D88000004F
:10015000D8800000D8800000D8800000D88000003F
:10016000D8800000D8800000D8800000D88000002F
:10017000D8800000D8800000D8800000D88000001F
:10018000D8800000D8800000D8800000D88000000F
:10019000D8800000D8800000D8800000D8800000FF
:1001A000D8800000D8800000D8800000D8800000EF
:1001B000D8800000D8800000D8800000D8800000DF
:1001C000D8800000D8800000D8800000D8800000CF
:1001D000D8800000D8800000D8800000D8800000BF
:1001E000D8800000D8800000D8800000D8800000AF
:1001F000D8800000D8800000D8800000D88000009F
:10020000FFFFFF00FFFFFF00D8800000D880000044
:10021000D8800000D8800000D8800000D88000007E
:10022000D8800000D8800000D8800000D88000006E
:10023000D8800000D8800000D8800000D88000005E
:10024000D8800000D8800000D8800000D88000004E
:10180000040C0000000000002F4F2100007F220088
:1018100000018800000000000A0007001100070016
:10182000000020000000E000020032000000020082
:1018300000000000C80F0200000000000040DA00B5
:101840000000FE004440A900C09F21000000E0000D
:101850000300320000002000A00188004440A800DE
:101860000000060000D92700010020001500370005
:1018700062004000E0804800910188009001BA00B9
:1018800062004000E0804800910188009002BA00A8
:1018900062004000E08048000002EB006028E100A8
:1018A00004003A000059EB008301E900FDFF3E000F
:1018B000040037006128E100010032000082EB00E3
:1018C00005000700910188001001BA000200E00045
:1018D000E7FF3A00000005009101880080027800CF
:1018E00062004000E08048003559BA008301E900F9
:1018F000080032002559BA008301E90005003200D2
:101900000400E000F4FF320015D9BA008301E900B9
:10191000F1FF3A0000000600889FBE008A9FBE00CB
:10192000010578000100E0000400350008003C00DB
:101930000000E000200032000500370060001000C9
:10194000E080180002003B0001F02C001A00370074
:101950000004BE006011B8006B0920000982CF00AE
:10196000020039000882CF000441B00069425200F1
:101970000E00320008003B008281710061016400AA
:101980008904D1000884D3008B05E8000442E800F4
:10199000F9FF3A00050037000804440089844C0030
:1019A0008B05E9000442E900FBFF3A00250107002E
:1019B0000AF0A70001F0A0004F05BE004F04BE00D2
:1019C0000000060003F0A200889FBE008A9FBE00B0
:1019D0008C1F780041010700480133006450E1008A
:1019E0004F0032006420E1005200320003826C009C
:1019F00007003B000905D0000306D000820F540009
:101A00000C065D00020039000200320089017800F6
:101A1000030678008582550004003D000003FD00A8
:101A20008103FD008502EA008B854200840F72006D
:101A300002003B0060001000E08018006011B80058
:101A40000005EB007A28E1000A0039000600780062
:101A5000C75DDD00F707B200878075002D003700F5
:101A6000828171000A017800610560008180D100E7
:101A70000080D3008502E900F9FF3B000604400026
:101A80008784480002003B0060041400E0841C00CE
:101A90000988A300070032008A81710082817100E9
:101AA000610164008904D1000884D3008B05E8003B
:101AB000170037000978A30013003A000B00E0007C
:101AC000130034008B05E9000804440089844C00AD
:101AD0000A4474000978A3000D003A000B00E000EE
:101AE000070034008B05E9000804440089844C0099
:101AF00001003A000B0020000978A300F7FF320034
:101B00000001EB0002003700828171000A017800B9
:101B1000CC0007000CF0A70001F0A0000001370086
:101B20006420E10002003A00838F6C000001330062
:101B30000801BE000200BE00F9003700889FBE0009
:101B40008A9FBE008C1F7800E4000700EB00330082
:101B500003866C006450E1002E0032006420E10036
:101B6000330032006150E1002F0032006120E100BB
:101B70003100320085855500EB07B00009002000D8
:101B800008042000050037000804440089844C0044
:101B90000A0031000603430087834B000001530015
:101BA00081815B00F8FF33000203BE000800A00043
:101BB0000804440089844C00F6FF3900C639DD0072
:101BC0008301730001003200130020008904D1005A
:101BD0000884D3000998A300050032000800A7007C
:101BE0000300A0008904D1000884D3008B05E8001D
:101BF0008904D1000884D3000001EB000281D200E7
:101C00009000070001F0A1000CF0A70001F0A00077
:101C1000C30037006420E100C50032000801BE00A7
:101C20000200BE00F7FF37006120E100C000320073
:101C30006000B800F3FF37000000200001F8270023
:101C4000F0FF3700889FBE008A9FBE008C1F78007F
:101C5000A2000700A900330003866C006450E10075
:101C6000240032006420E100270032006150E100CE
:101C7000220032006120E100210032008B85420009
:101C8000EB07B1000134B800003AB8000804420084
:101C900089844A00013AB8000030B80088804000CA
:101CA00009014A0004003300000040008180480020
:101CB000020149008B05E900C909DD0083017000BC
:101CC0000100320013002000C814DE004814DD00BB
:101CD0004709DE001200B200C808DE000884700068
:101CE0005800070001F0A1000CF0A70001F0A000CF
:101CF0008B0037006120E1008D0032000801BE003A
:101D00000200BE00F7FF37006150E100FCFF3A001F
:101D1000870037000001BE00880007000470A7009C
:101D200003F0A10003F8A30013003A006509B10015
:101D300010003200090035006928E100020035007A
:101D400001002800000005000000400081804800DC
:101D50008502E900FCFF3A0000000600F88F42000F
:101D6000050035008100D1000080D3008502E80025
:101D7000FCFF3A00000006008000EB0000000500B8
:101D80006022B800060220000000D0008180D2004E
:101D90000482D2008582D2000000A000020252001C
:101DA00083825A00030031000202420083824A000B
:101DB0000000A1000603E900F3FF3A00000006005E
:101DC0000001BE005D0007000470A70003F0A10041
:101DD0006509B100160032000D0035006828E100E9
:101DE00006003500F0FF2F00F1FF27000300E000A0
:101DF00013003B0001002800000005000000400027
:101E0000818048008502E900FCFF3A0008003700A5
:101E1000F88F420002003C008000EB00000005004B
:101E20008100D1000080D3008502E800FCFF3A0069
:101E30000300E00002003B0060001000E08018009A
:101E40000000060081002000618055000B003D006D
:101E50000B00200061FE2F000100E1001D00340096
:101E600082817100610164008904D1000884D3007B
:101E70000000E800FAFF3A007100200061006400F1
:101E80000300700002006000090032006104440099
:101E9000E0844C000988A500050032008B05E800AD
:101EA0006808E10002003A008904D1000884D300E8
:101EB000F20F20000258E10005003D00C75DDD0083
:101EC000F907B2008980750008007800000006005C
:101ED0000BF827008B007800000005000004BE000E
:101EE000160007000003BE000405BE000200BE008D
:101EF00012000700844F7500000006000200BE00BB
:101F00006450E100050036006420E1000200360064
:101F10000968A30001003A000800BE000160A000AB
:101F20004F0678004F05BE004F04BE0000000600BB
:101F3000F0FF2F00F1FF2700F9FF3700C70ADE008E
:101F4000F107B200F50FB20008003200E1CF420005
:101F5000020032000170A00024000500810F700013
:101F6000010032000408050044000500810F7000E4
:101F700002003A00140005008502E900000040005C
:101F800081C04800FCFF3B000170A0002400050058
:101F90000400FA004B0007000000370022C2BF0017
:101FA000624060000004E000040032001011800074
:101FB000D1FF2F000100600010118800A2C2200094
:101FC00001402000A002210093190700100798008B
:101FD000E00F20009E009000808F50002B00320008
:101FE000F00F20009E009000808F50001F003200F4
:101FF0001E009000E10F5000010032002900370060
:1020000051818000010F78001E0078000000E00080
:10201000040032009E007800E18F5000040032007E
:102020000700370090C1B300481C070007003700C5
:102030002ACCBF00581507000004E00003003A0056
:1020400050818000A1C22000931707000000EB0020
:10205000508188000040EB00EFF4B7003B1507000B
:10206000E0C3B300221C07000E003700EFD4BF000E
:102070000040E800EFF4B700EFD4BF00F34F50008A
:10208000080036007E24070006003700EFD4BF00AA
:10209000E54F500001003A00F22707000040EB0036
:1020A000EFF4B70023CCBF00624060000004E00002
:1020B000BAFF320060C1B30024ECB700E31407009C
:1020C000B6FF37000000FA004507A9000080EB00CA
:1020D000601988004227A900416A200091407800D9
:1020E00000CEB30000C060005040B300A4E6B700CB
:1020F000416C20009140780000CEB30000C0600029
:102100003040B300C4E6B70080C0B30018ECB7009D
:102110000000EB00D0608800C9050700FD0507003E
:102120008000EB00F00F2000FB1B0700F060880030
:1021300021002000F00F2000F71B0700006188003D
:10214000D0C0B300EA1B0700A0C0B300E81B070023
:10215000EC150700FD140700E0C3B300E41B070003
:102160000080FA00000006000600FA0024CCBF0040
:102170000080FB006101B900120798002307980056
:10218000C0012000010020001E019000AE0190005F
:10219000800F5100818F5900D4003E001E00900036
:1021A000AE009000006001001C0037003E003700C8
:1021B0005E0037005D00370062003700B600370070
:1021C000660037006C003700720037007800370077
:1021D0007C0037008000370084003700C3003700E0
:1021E000C2003700C1003700C0003700BF00370011
:1021F000BE003700BD003700BC003700BB00370011
:10220000BA003700B90037007D003700970037006B
:10221000B8003700B5003700B600370040618000D5
:10222000E10F500007003A0010C0B300C71B0700C1
:1022300028230700DCF4B700DCD4BF00C705070083
:102240001400370020C0B300C01B070040618000AD
:10225000C205070030C0B300BC1B07000000EB0044
:10226000D0A68800070037001A230700BB05070027
:1022700000C2B3009E1B0700D0A680000000E8004B
:10228000D0A6880041618000D0A68000808F5000D9
:10229000F5FF3E00D0C0B300951B0700A0C0B300FF
:1022A000931B07009300370040C0B300A71B070033
:1022B00030618000A905070040618000E10F5000F7
:1022C00003003A0030618000D1220700120037007D
:1022D00020562F00261A0700406180009F05070046
:1022E00050C0B300991B07000000EB00D0A6880087
:1022F0000500370030618000C5220700D0A68000AD
:102300000000E800D0A6880041618000D0A68000CF
:10231000808F5000F7FF3E00D0C0B300741B070051
:10232000A0C0B300721B07007200370049220700EB
:1023300060562F000E1A070080C0B300831B0700F1
:102340006C00370056220700E0562F00081A0700DD
:1023500090C0B3007D1B070066003700D0C0B300FB
:102360007A1B07000B230700FA190700F0C0B3001F
:10237000761B07005F003700E0C0B300731B070047
:1023800054230700F3190700F0C0B3006F1B0700C8
:1023900058003700406180007005070000C1B3009D
:1023A0006A1B0700406180001C23070051003700B2
:1023B00010C1B300651B070010C0B3003323070032
:1023C0004C00370020C1B300601B07000040EB0049
:1023D0002E2307004700370030C1B3005B1B070006
:1023E00010C0B300202307004200370040C1B300F3
:1023F000561B07000040EB001B2307003D00370081
:10240000234CA800238CA80010C3B3004F1B070067
:1024100012002000210020001000200045180700B5
:102420000040E90022ECB700E0C1B300471B070001
:102430001200200021002000100020003D1807009D
:102440000040EA0061406000614060004601DD003C
:1024500031C2200091407800F0CBB30000C0600092
:102460000240700023ECB70022003700CB02A90025
:10247000CB22A900C922A800C902A90021C22000BC
:102480009140780020C0B300CF2107000040EB004E
:102490002E1B07001700370031618000010F780004
:1024A0001E017800E10F51000A0032009E01780001
:1024B000E18F5100040039001E007800E20F500047
:1024C000050032000600370050572F00A8190700FA
:1024D0000800370009000700190007000500370051
:1024E00070C1B300191B07000200370080C1B300A0
:1024F000161B07000080FA00000006000000FA002A
:10250000005B2F00B0190700D05C2F00AE19070048
:102510000040EB00E622070000C0EB004605070084
:1025200010C0B300E222070010C0B300BB220700B6
:102530000040EB00DE2207000080FA0000000600E9
:102540000A00FA00881F7800F05E2F008819070043
:102550000000EB00000F78000D0037001E0478002B
:102560005C22070080407800630047000174780017
:102570009E00780063004700614078000080FB0007
:102580006C1A070000C2B300D91A07001E0FE8003A
:10259000300020009E0F1000F0FF3600D0C0B300C6
:1025A000D31A0700A0C0B300D11A0700D0612F00D2
:1025B0006F19070063004700104078000080FB009F
:1025C0004400DE000080FB00400798004E009000B1
:1025D000E90F5000110032004E009000E90F50004A
:1025E00004003C004E009000E80F5000080032004C
:1025F000130037004E009000EA0F50000A0032002E
:102600004E009000EF0F50000A0032000C0037001F
:1026100080622F006C1907000B003700F0622F005A
:10262000691907000800370060632F00661907006A
:1026300005003700D0632F00631907000200370040
:1026400010642F006019070090642F0048190700DC
:1026500063004700104090000080FB004700DE0050
:102660000004E00003003A0050652F0056190700EF
:1026700002003700C0652F0053190700C0662F0005
:102680003B19070063004700104090008080FB006A
:1026900080F72F00008060004380DE002047980014
:1026A0002E4090000004E00003003A0090672F00E5
:1026B0002F1907001B0037002E409000EF4F5000ED
:1026C00003003A00D0632F002919070015003700D6
:1026D00000042000000F7800E30047000040EB00FA
:1026E00080487800080037001E0078000000400095
:1026F000000F780063004700104078008040E80039
:10270000630047000148780063004700904078006C
:102710002E40900080CF5000F3FF39001E0078005B
:10272000A4190700D0C0B300711A0700A0C0B300FD
:102730006F1A070070682F000D190700630047002B
:102740009040900070C0B30000C060002047980027
:1027500010002000000F7800E30047000040EB006D
:1027600080487800080037001E0078000000400014
:10277000000F780063004700104078008040E800B8
:1027800063004700014878006300470090407800EC
:102790002E40900080CF5000F3FF39001E007800DB
:1027A000B3190700D0C0B300511A0700A0C0B3008E
:1027B0004F1A07004F0478000080FA00000006005E
:1027C0000400FA0024CCBF000080FB006101B900C6
:1027D000028FBE00C0012000010020001E01BE00CB
:1027E000800F5100818F5900D8003E001E00BE00AE
:1027F000006001001C0037003E0037006A0037000F
:102800006900370073003700CD00370077003700CC
:102810007F003700870037008D00370091003700B8
:102820009500370099003700C8003700C70037000F
:10283000C6003700C5003700C4003700C3003700AA
:10284000C2003700C1003700C0003700BF003700AA
:10285000BE00370092003700AC003700BD003700E3
:10286000BA003700BB00370040618000E10F500024
:1028700006003A0010C0B300341A070000C0EB0095
:102880001A210700350407001500370020C0B300E7
:102890002E1A0700406180003004070030C0B300EA
:1028A0002A1A07000000EB0070A688000800370015
:1028B00000C0EB000D2107002804070000C2B30090
:1028C0000B1A070070A680000000E80070A68800C0
:1028D0004161800070A68000808F5000F4FF3E00B0
:1028E000D0C0B300021A0700A0C0B300001A07004E
:1028F0009800370040C0B300141A07003061800010
:102900001604070040618000E10F50000E003A00FD
:1029100030618000F5200700D0F4B700D2D4BF00AA
:10292000614060000004E0001A00320000C2B30001
:10293000EF19070010C0B300041A0700D0D4BF007D
:102940000604070013003700C0D82F0088180700BE
:10295000406180000104070050C0B300FB1907006C
:102960000000EB0070A68800060037003061800090
:10297000DE200700D0F4B70070A680000000E80059
:1029800070A688004161800070A68000808F500092
:10299000F6FF3E00D0C0B300D5190700A0C0B300B9
:1029A000D31907006B00370024CCBF00E34F500061
:1029B00002003A00D214A80001003700D214A90086
:1029C0000040EB00BA210700A0C0B300DF190700E8
:1029D00060003700D214A90010C0B300B421070072
:1029E000B0C0B300D91907005A003700D0C0B300F7
:1029F000D61907006721070056180700D0C0B3009A
:102A0000BB190700A0C0B300B91907005100370077
:102A1000E0C0B300CD190700AE2107004D18070034
:102A2000D0C0B300B2190700A0C0B300B0190700AE
:102A30004800370040618000C803070000C1B300B0
:102A4000C21907004061800074210700410037006F
:102A500010C1B300BD19070010C0B3008B210700DF
:102A60003C00370020C1B300B81907000040EB005C
:102A7000862107003700370030C1B300B3190700C3
:102A800010C0B300782107003200370040C1B30006
:102A9000AE1907000040EB00732107002D0037003E
:102AA00010C3B300A9190700120020002100200064
:102AB000100020009F1607000040E90022ECB7003C
:102AC000E0C1B300A119070012002000210020007E
:102AD00010002000971607000040EA0061406000E7
:102AE000614060004601DD0031C220009140780065
:102AF000F0CBB30000C060000240700023ECB700D0
:102B0000234CA800238CA80012003700D214A9007F
:102B100021C220009140780030C0B3002A20070075
:102B2000C922A900C902A900C8E2A80010C0B300C8
:102B30005F2107000040EB00841907000500370003
:102B400070C1B300811907000200370080C1B300D3
:102B50007E1907000080FA00000006000600FA0057
:102B600024CCBF000080FB006101B900120798006F
:102B700023079800C0012000010020001E019000E2
:102B8000AE019000800F5100818F5900F0003E008F
:102B90001E009000AE009000006001002A00370087
:102BA0004E0037001A0037001900370022003700A6
:102BB000CD003700E6003700E5003700E4003700BD
:102BC000E3003700E2003700E1003700E0003700A3
:102BD000DF003700DE003700DD003700DC003700A3
:102BE000DB003700DA003700D9003700D8003700A3
:102BF000D7003700D6003700D50037006400370013
:102C0000AD003700B6003700D1003700D2003700E2
:102C100024CCBF00E34F500002003A009E74A8008D
:102C2000010037009E74A900CAC2A900A0C0B30069
:102C300046190700C8003700CAC2A800B0C0B300D8
:102C400042190700C400370040618000E10F5000C6
:102C500008003A0010C0B3003C19070000C0EB00A8
:102C60002301070098F4B70098D4BF003B03070086
:102C70001500370020C0B300341907004061800000
:102C80003603070030C0B300301907000000EB0026
:102C9000B0A488000800370000C0EB001401070052
:102CA0002E03070000C2B30011190700B0A4800072
:102CB0000000E800B0A4880041618000B0A480005A
:102CC000808F5000F4FF3E00D0C0B3000819070009
:102CD000A0C0B300061907009F00370040C0B30032
:102CE0001A190700306180001C0307004061800052
:102CF000E10F50000E003A0030618000FC00070038
:102D000098F4B7009ED4BF00684060000004E00063
:102D10001A00320000C2B300F518070010C0B3005B
:102D20000A19070098D4BF000C03070013003700EE
:102D3000409D2F008E1707004061800007030700A9
:102D400050C0B300011907000000EB00B0A48800D8
:102D50000600370030618000E500070098F4B700F6
:102D6000B0A480000000E800B0A4880041618000A9
:102D7000B0A48000808F5000F6FF3E00D0C0B300AA
:102D8000DB180700A0C0B300D91807007200370095
:102D9000809D2F008C1707001200200041002000AA
:102DA00010002000E31507000040E90022ECB70006
:102DB000E0C2B300E5180700120020002100200047
:102DC00010002000DB1507000040E90061406000B2
:102DD00061416000E149210091407800E0CFB300FB
:102DE00000C06000024070009EF4B700F0C2B30063
:102DF000D61807002200200021002000100020002B
:102E0000CC1507000040E9006140600061406000AF
:102E100000414000E149210091407800D0CFB3004B
:102E200000C06000024070009EF4B70000C3B30011
:102E3000C61807001200200021002000100020000A
:102E4000BC1507000040E90061406000614060007F
:102E50004201DD00E149210091407800B0CFB3008C
:102E600000C06000024070009EF4B700E0C1B300F3
:102E7000B6180700120020002100200010002000DA
:102E8000AC1507000040EA0061406000614060004E
:102E90004601DD0031C2200091407800F0CBB30044
:102EA00000C060000240700023ECB700234CA90072
:102EB000238CA800280037009E74A90022CCBF00F4
:102EC0008080FB00204721000080400010407800F7
:102ED000230007000040EB009C1807001E0037008D
:102EE0006F0007001C00370031618000010F78007F
:102EF0001E0178000200E000040032009E0178000C
:102F0000E18F5100040032000E00370000A12F00B5
:102F10002D1707001000370020A32F002A170700E5
:102F20001200200031002000100020008115070051
:102F30000040E90098F4B70098D4BF007A00070079
:102F40000500370070C1B300801807000200370089
:102F500080C1B3007D1807000080FA000000060061
:102F60000200FA00004F780041E2A90023CCBF0024
:102F70000044B2000004E00004003200CEE2A800E9
:102F8000CF02A800CEC2A80003003700CEE2A900FD
:102F9000CF02A900CEC2A900816A2000914078002A
:102FA00000CEB30000C060007040B300A8E6B700D8
:102FB000916C20009140780000CEB30000C060000A
:102FC0007040B300C9E6B700816C200091407800E2
:102FD00000CEB30000C060000034A000C8E6B70017
:102FE000CAC2A800C8C2A900C902A900C8E2A800B4
:102FF000C922A9001E80FB001012880042A2A8006E
:103000009ED4BF0061406000614060004601DD0069
:103010002124200091407800F0CBB30000C0600074
:103020000240700042E2B7009ED4BF000080FB0067
:103030000000D10061406000614160003124200047
:1030400091407800E0CFB30000C060000240700003
:1030500043E2B7009ED4BF000080FB004200DE00C8
:103060006140600061406000004140003124200068
:1030700091407800D0CFB30000C0600002407000E3
:1030800043E2B7000000EB00201288000000EB00D4
:103090000012880041E2A8000080FA00000006004B
:1030A0000000FA0041E2A900A8C6BF00F041B30049
:1030B000A8E6B700916C20009140780000CEB300E4
:1030C00000C06000C9E6B700816C20009140780024
:1030D00000CEB30000C06000C8E6B700CEE2A90091
:1030E000CF02A900CEC2A9000080FA0000000600AD
:1030F0000200FA00004F78001E80FB00401288009A
:1031000085C0BF00644060000004E000FCFF3200A6
:1031100040128000004F78008540A9001E80FB000F
:103120000080FA00000006000400FA002047980022
:1031300080A62F00A4160700D9FF07005200070041
:103140002E409000E14F500008003E00CAC2BF0070
:103150000080FB004600DE00614060008040780097
:103160002E40900080CF500008003A0041C2BF00BE
:1031700001C8B300014060000004E0000E003A0006
:1031800041E2A80061E2A8000B00370041C2BF0085
:1031900001C8B300014060000004E00006003200F6
:1031A00041E2A90061E2A900D0C0B300D017070036
:1031B000A0C0B300CE17070040C2BF000042B2005B
:1031C0000004E00004003A0040128000004F780044
:1031D0001E407800E101070060C2BF000042B2005B
:1031E0000004E00008003A0040138000004F78001F
:1031F00080A82F005E1607001E407800D701070048
:10320000A0A82F005A16070040C2BF000044B20019
:103210000004E00004003A0060C2BF000044B200B5
:103220000004E00005003200D0A82F006616070059
:1032300040C2A90060C2A9000A00370022C2BF0034
:10324000614060000004E000BDFF320030118000EA
:10325000004F7800D0C0B300A5170700A0C0B3008E
:10326000A31707007500070022CCBF008080FB0079
:1032700020472100008040001040780038FF070000
:103280000080FA00000006000000FA00C8C2A80092
:10329000C902A800C8E2A800C922A800816A2000CB
:1032A0009140780000CEB30000C060009040B300B1
:1032B000A8E6B700916A20009140780000CEB300E4
:1032C00000C060000034A000A9E6B700C16A200079
:1032D0009140780000CEB30000C060007040B300A1
:1032E000ACE6B700D16A20009140780000CEB30070
:1032F00000C060000034A000ADE6B70022CCBF00E3
:103300008080FB00204721000080400010407800B2
:103310000080FB00101288009ED4BF006140600056
:10332000614060004601DD002124200091407800CA
:10333000F0CBB30000C060000240700042E2B70072
:103340009ED4BF000080FB000000D10061406000FF
:10335000614160003124200091407800E0CFB3004B
:1033600000C060000240700043E2B7000000EB00C4
:10337000201288000000EB000012880022CCBF0061
:103380008080FB0020472100008040001040780032
:103390000080FB00101388009ED4BF0061406000D5
:1033A000614060004601DD00212620009140780048
:1033B000F0CBB30000C060000240700062E2B700D2
:1033C0009ED4BF000080FB000000D100614060007F
:1033D000614160003126200091407800E0CFB300C9
:1033E00000C060000240700063E2B7000000EB0024
:1033F000201388000000EB00001388000000EB00A1
:10340000401288000000EB00401388004322A9000E
:103410006322A9004362A80042A2A9006362A80037
:1034200062A2A90040C2A90060C2A9004402A8008B
:103430006402A8000080FA00000006000000FA0004
:1034400041E2A9004362A90061E2A9006362A90008
:10345000A8C6BF00F041B300A8E6B700A9C6BF00E8
:10346000F041B300A9E6B700ACC6BF00F041B3001D
:10347000ACE6B700ADC6BF00F041B300ADE6B700A3
:103480000080FA00000006000000FA0030AC2F00B7
:10349000B71507000080FA00000006000400FA00DB
:1034A00010C0B30022ECB7009E14A9009E34A800FF
:1034B0009E54A90023CCA80022CCBF008080FB0032
:1034C000604721000080400010407800A4FE070003
:1034D000EDFF07000000370022C2BF00614060001E
:1034E0000004E000FCFF3200301180009BF4B700C4
:1034F0009BD4BF000080FB004400DE009AF4B700BC
:103500009AD4BF000080FB00100798001E009000B6
:10351000E30F50006B0032001E009000E30F5000DC
:103520000A003C001E009000E10F50003A003200FB
:103530001E009000E10F500054003C001E0090005F
:103540000000E0000B003200AB0037001E009000CE
:10355000E60F50006F0032001E009000E80F500090
:103560007C0032001E009000E40F50006400320026
:10357000A10037009BD4BF000080FB00000F780043
:103580001E007800E10F5000100032001E0078008D
:10359000E10F500004003C001E0078000000E00035
:1035A00008003200190037001E007800E20F5000BA
:1035B000080032001E007800E30F50000C003200BB
:1035C00012003700B6FE07008E003700AEFF07007E
:1035D000C1FF370060168000F1FB2F000100600082
:1035E0006016880010C0B300C1160700BAFF37008C
:1035F0006016800001042000010070006016880041
:1036000010C0B300BA160700B3FF37000040EB004C
:10361000B7160700B0FF3700B1492100914078008C
:10362000F0C0B30000C060009BF4B7009BD4BF00A3
:103630000040E8009BF4B70010C0B300AC160700D0
:103640000040EB0099F4B7000A00370022C2BF0027
:10365000614060000004E000FCFF32003011800097
:10366000A3FE0700A216070099D4BF000040E8009F
:1036700099F4B70091492100914078009BD4BF0094
:1036800080CF5000F1FF390093FF3700B14921008E
:1036900091407800F0C0B30000C060009BF4B70018
:1036A000C1492100914078009BD4BF0000C0700048
:1036B0009CF4B7009CD4BF008DFE07008C16070059
:1036C00085FF3700C149210091407800F0C0B30068
:1036D00000C060009CF4B7009BD4BF000080FB00DA
:1036E0004400DD00804078009CD4BF0000C0700022
:1036F0009CF4B70010C0B3007D16070076FF3700BA
:103700009BD4BF001021070010C0B300781607003B
:1037100071FF3700B14921009140780070C0B300BB
:1037200000C060009BF4B7009BD4BF0022ECB70040
:1037300022CCBF008080FB00604721000080400059
:103740001040780006FE070010C0B300681607009E
:1037500061FF37009E14A9009E34A9009E54A90061
:1037600023CCA9009BD4BF000080FB004200DE00F8
:10377000610060000004E000010032009E14A80017
:103780009BD4BF000080FB000000D10061006000FE
:103790000004E000010032009E34A8009BD4BF006A
:1037A0000080FB00610060000004E00001003200C6
:1037B0009E54A8009BD4BF000080FB004300DE00A5
:1037C0000000A200610060000004E000010032007F
:1037D00023CCA80022CCBF008080FB0060472100E2
:1037E0000080400010407800DDFD070010C0B300ED
:1037F0003F16070038FF37000040EB003C1607007B
:1038000035FF37000080FA00000006000000FA00D3
:1038100023CCA9000040EB0022ECB700232CA90028
:10382000230CA900234CA900236CA900238CA90018
:1038300023ACA90023ECA9000080FA0000000600D8
:103840000000FA00C922A800C902A800C8E2A80026
:10385000C8C2A800C942A800C222A900C022A9006B
:103860000000EB00E0608800E8FF0700CB62A900E1
:10387000C962A900C002A900C202A9002D23A900A3
:103880002D43A9002D63A9002D83A900013220003A
:103890009140780000CEB30000C0700020E3B70074
:1038A0000000EB008019880020F02100201988001A
:1038B0000000EB00101988000080FA0000000600EC
:1038C0000200FA00004F78001E80FB0040198800BB
:1038D0002023A8002003A90020C3BF00614060008E
:1038E0000004E000FCFF3200001880000080FA00B5
:1038F000000006000000FA0021E3A800C0C0B300E9
:10390000EFFF0700BF15070021E3A9000080FA00C0
:10391000000006000000FA0018CCBF000080FB0089
:103920008000400020452100008040001000780009
:10393000401188000000EB00001188002062A80000
:103940000000EB001011880021E2A8002342A8002B
:103950008560A9000080FA00000006000400FA005B
:10396000004F7800D0608000100798001E00900083
:10397000E10F50000D0032001E009000E10F5000DA
:10398000070039001E009000E20F50000A003200CC
:103990001E009000E30F50000A0032000B003700B9
:1039A0001E80FB0063150700080037001E407800EA
:1039B0002F150700050037001E4078009C140700F3
:1039C000020037001E407800C91507000080FA0089
:1039D000000006000600FA00404798000040EB0097
:1039E000204798000E0037000000EB00000F780021
:1039F00005003700A0CFB3000F0007001E007800BD
:103A00000000E800000F78001E007800E30F50006F
:103A1000F8FF36002E4090000040E8002047980054
:103A2000AE4090004E40900080CF5000EEFF390035
:103A30000080FA00000006000400FA002047980009
:103A40000040EB00004F780013003700000000003A
:103A50000000000000000000000000000000000066
:103A60000000000000000000000000000000000056
:103A70000000000000000000000000000000000046
:103A80000000000000000000000000001E40780060
:103A90000040E800004F78009E4078002E409000E3
:103AA00080CF5000E9FF39000080FA0000000600D6
:103AB0000600FA0064D4BF00E14F500030003A0025
:103AC00000C2B3008A15070024CCBF00E34F5000AA
:103AD0000600320024CCBF00E24F50000300320049
:103AE00024CCBF00E44F50000F003A0070C0B30078
:103AF00096150700D0C0B3007D150700A0C0B30025
:103B00007B15070065D4BF000004E00003003A0005
:103B100010C0B300301D07001700370010C0B300FD
:103B20003C0207001400370024CCBF00FC4F5000BB
:103B300003003A00206A2F002314070067013700B2
:103B400060C0B30081150700D0C0B300681507003E
:103B5000A0C0B3006615070065D4BF000004E000F4
:103B600003003A000040EB001B1D07000200370075
:103B70000040EB00270207000040EB0064F4B700B0
:103B800024CCBF000080FB006101B900120798003F
:103B900023079800C0012000010020001E019000B2
:103BA000AE019000800F5100818F590049013E0005
:103BB0001E009000AE009000006001001C00370065
:103BC000590037008A00370089003700910037001C
:103BD000D50037003F0137003E0137003D01370077
:103BE0003C0137003B0137003A013700390137000B
:103BF000380137003701370036013700350137000B
:103C0000340137003301370032013700310137000A
:103C1000300137002F0137002E01370086003700B2
:103C2000AA003700B90037002A0137002B013700FE
:103C300040618000E10F50000D003A0010C0B30059
:103C40004215070065D4BF000004E00003003A00FD
:103C5000A01C070066F4B700020037000A02070044
:103C600066F4B70066D4BF003CFF07002B003700A6
:103C700020C0B300351507004061800037FF070002
:103C800030C0B300311507000000EB0040A38800EE
:103C90001E00370040A380000000E0000E0032004C
:103CA00000C2B3001215070060C0B300271507005B
:103CB00000C2B3000E15070065D4BF000004E00089
:103CC00003003A000040EB00C31C0700020037006D
:103CD0000040EB00CF01070065D4BF000004E00006
:103CE00003003A007B1C070066F4B70002003700AF
:103CF000E501070066F4B70066D4BF0017FF0700B0
:103D000040A380000000E80040A3880041618000DB
:103D100040A38000808F5000DEFF3E0010C0B30043
:103D200064F4B700ED00370040C0B300071507008A
:103D30003061800009FF070040618000E10F500002
:103D400006003600206B2F008913070040618000B9
:103D500002FF070050C0B300FC1407000000EB0096
:103D600040A388000F00370065D4BF000004E000C6
:103D700005003A0030618000251C0700851C070003
:103D800066F4B7000400370030618000B40107001A
:103D90009901070066F4B70040A380000000E80026
:103DA00040A388004161800040A38000808F5000C4
:103DB000EDFF3E0000C2B300CD14070066D4BF0083
:103DC0000004E00003003A0060C0B300DF14070005
:103DD0000200370070C0B300DC140700D0C0B3008D
:103DE000C3140700A0C0B300C1140700BB00370014
:103DF00065D4BF000004E00002003A00951B0700F4
:103E0000010037006C01070080C0B300CF14070029
:103E1000B200370065D4BF000004E00002003A00A1
:103E20009F1B0700010037006B01070090C0B30023
:103E3000C6140700A900370023CCA800238CA800D3
:103E4000606B2F006013070012002000210020008B
:103E500010002000B71107000040E90065F4B7002A
:103E600065D4BF000004E00009003A0010C3B300AD
:103E7000B6140700120020002100200010002000CE
:103E8000AC1107000040E90022ECB70093003700B6
:103E90000161800030002300808F500002003E004E
:103EA000C06D2F004813070020712F004613070034
:103EB0001200200031002000100020009D1107009A
:103EC0000040E90022ECB7008400370065D4BF0051
:103ED0000004E00009003A00C922A800C902A800B5
:103EE000CB02A900CB22A90021C22000914078007A
:103EF00020C0B300341B0700010037006D0107002C
:103F00000040EB0091140700740037000040EB0004
:103F100064F4B70065D4BF00E14F50006F003A0071
:103F200007E2A9006D00370031618000010F7800C1
:103F30001E017800E10F51000A0032009E01780056
:103F4000E18F5100040039001E007800E20F50009C
:103F50004B0032005C003700F0732F001A1307008B
:103F60005E00370050762F00171307000000EB00AB
:103F700040A388003900370065D4BF000004E0008A
:103F800006003A00331B070040A38000A01B070077
:103F9000001C070066F4B7000500370006010700A3
:103FA00040A380002E0107001301070066F4B7004C
:103FB00066D4BF000004E0001F003A0040A3800068
:103FC00066FE070080C2B3004914070040A38000CA
:103FD0000000D10061FE070040A380000000A200A5
:103FE000610060000004E00003003200E0792F006F
:103FF000DF1207000C00370065D4BF000004E000AA
:1040000004003A00B31B070010C0B300F21B070006
:10401000030037001C01070010C0B300FD000700BB
:10402000107A2F00D2120700407A2F00D01207001A
:1040300000C2B3002E14070065D4BF000004E000E6
:1040400002003A00161B070001003700E2000700DB
:1040500040A380000000E80040A3880041A3800046
:10406000F00F2000808F5000C3FF3600D0C0B30097
:104070001F140700A0C0B3001D140700170037006D
:1040800065D4BF000004E0000F003A00607A2F0002
:10409000CD120700130007003500070022C2BF0041
:1040A000614060000004E000FBFF3200301180003E
:1040B00040A38800D0C0B3000D140700A0C0B30017
:1040C0000B1407000500370070C1B3001F14070070
:1040D0000200370080C1B3001C1407000080FA0002
:1040E000000006000000FA00C922A800C902A800CA
:1040F000CB02A900CB22A90062A0A80062C0A80040
:104100008660A9000000EB0050A388000040EB008F
:1041100071F4B700CBC2BF000080FB000000D100EB
:1041200061406000614160000147210091407800DA
:10413000E0CFB30000C060000240700070F4B70030
:10414000CBC2BF0061406000614060004201DD0001
:104150000147210091407800B0CFB30000C060005B
:104160000240700070F4B7000080FA000000060002
:104170000400FA0086C0BF00684060000004E00050
:104180008B003200CBC2BF000080FB000000D100DA
:104190006140600061406000004140000147210033
:1041A00091407800D0CFB30000C0600002407000A2
:1041B00070F4B700CBC2BF00614060006140600096
:1041C0004301DD00014721009140780070CFB3002A
:1041D00000C060000240700070F4B7008660A90063
:1041E00070D4BF00644060000004E0002200320090
:1041F00070D4BF00684060000004E0001E00320080
:1042000070D4BF00614060000004E0000B00320089
:1042100070D4BF00624060000004E00007003A0074
:104220002000200050A388000040EB0071F4B7008C
:10423000B0C5B300AE1307004600370070D4BF000E
:10424000614060000004E00042003A0070D4BF000A
:10425000624060000004E0003E0032000000EB001D
:1042600050A388000040EB0071F4B700D0C5B30044
:104270009F1307003700370070D4BF006440600010
:104280000004E00033003A0070D4BF0068406000D2
:104290000004E0002F00320050A3800010079800B7
:1042A0001E009000E20F5000040032001E0090003B
:1042B000E30F500017003200260037006CD4BF0017
:1042C000004040006CF4B70070D4BF000080FB00D9
:1042D0000000D10061406000804078006CD4BF00D5
:1042E00000C040006CF4B70071D4BF000040E8008B
:1042F00071F4B70071D4BF00E84F500015003A00C8
:104300000040EB0071F4B7003000200050A388009B
:1043100010003700CBC2BF000080FB000000D100BE
:1043200061406000004F78006CD4BF008BFD070037
:104330001E04E00003003200D0C2B3006C1307007B
:1043400002003700B0C2B30069130700200020004C
:1043500050A3880070D4BF000080FB000000D10093
:104360006140600061416000014721009140780098
:10437000E0CFB30000C060000240700070F4B700EE
:1043800070D4BF000080FB004300DE00614060008D
:10439000614060004201DD0001472100914078004A
:1043A000B0CFB30000C060000240700070F4B700EE
:1043B0000080FA00000006000000FA000602A800D3
:1043C00006C2BF00614060000004E000FCFF3A004C
:1043D0000080FA00000006000000FA000642A80073
:1043E00006C2BF00644060000004E000FCFF3A0029
:1043F0000080FA00000006000000FA0009C2BF00B9
:104400000080FB004700DE000080FB000080FA0017
:10441000000006000200FA00004F78009E4078007D
:1044200061C06000614060004501DD006120200046
:1044300091407800F0CDB30000C0600002407000F1
:1044400006E2B7000682A80006C2BF007040600006
:104450000004E000FCFF3A000080FA0000000600C3
:104460000200FA00004F78001E40780002E2B70018
:1044700009C2BF000044B2000004E000FCFF3A00A3
:104480000080FA00000006000200FA000662A800A0
:1044900006C2BF00684060000004E000FCFF3A0074
:1044A00000C2BF00004F78001E80FB000080FA00B1
:1044B000000006000000FA000742A9000782A900D8
:1044C0000000EB00501088000000EB006010880036
:1044D0000702A90022CCBF008080FB00E04D210034
:1044E00000804000104078000080FB002010880011
:1044F00007E2A8000080FA00000006000000FA00B1
:10450000D07C2F009A1107000080FA0000000600FE
:104510000400FA00C922A800C902A800CB02A90021
:10452000CB22A900C8C2A90023CCA800236CA900F3
:1045300011C0B30020C0B300A3190700EFFF0700AC
:104540000000370022C2BF00614060000004E000AC
:10455000FCFF3200301180006FF4B7006FD4BF0051
:104560000080FB004400DE006EF4B7006ED4BF0094
:104570000080FB00100798001E009000E10F500023
:10458000450032001E009000E10F500004003C0086
:104590001E0090000000E000080032006D003700AF
:1045A0001E009000E40F5000650032001E009000D5
:1045B000E60F500056003200660037006FD4BF008F
:1045C0000080FB00000F78001E007800E30F500011
:1045D0001D0032001E007800E30F50000A003C006E
:1045E0001E007800E10F5000110032001E0078001C
:1045F000E10F500010003C001E0078000000E000B9
:1046000057003200210037001E007800E60F5000EE
:10461000140032001E007800E70F50001600320030
:104620001E007800E40F50000B0032001700370026
:10463000B2FF0700C3FF37008619070010C0B300A0
:10464000AB120700BFFF37009519070010C0B30079
:10465000A7120700BBFF37001E1A0700A4120700AD
:10466000B8FF37000040EB005B1A070010C0B30032
:104670009F120700B3FF370010C0B300561A07009F
:1046800010C0B3009A120700AEFF37000040EB00E5
:1046900097120700ABFF3700F146210091407800E8
:1046A000F0C0B30000C060006FF4B7006FD4BF006B
:1046B0000040E8006FF4B70010C0B3008C12070090
:1046C0000040EB006DF4B7000B00370022C2BF00C2
:1046D000614060000004E000FCFF32003011800007
:1046E000CB1907002B1A0700811207006DD4BF00F9
:1046F0000040E8006DF4B700D146210091407800F9
:104700006FD4BF0080CF5000F0FF39008DFF37001D
:10471000F14621009140780010C0B30000C0600055
:104720006FF4B700F14621009140780020C0B3003B
:104730002519070010C0B3006D12070081FF370074
:104740006FD4BF00001D070010C0B300681207003F
:104750007CFF37000040EB006512070079FF37004F
:104760000080FA00000006000600FA0024CCBF001A
:104770000080FB006101B900120798002307980030
:10478000C0012000010020001E019000AE01900039
:10479000800F5100818F590032013E001E009000B1
:1047A000AE009000006001004E003700700037003E
:1047B0003C0037004100370046003700BC0037009E
:1047C0008E00370098003700A2003700A80037009D
:1047D000AB003700AE003700B100370021013700D1
:1047E000200137001F0137001E0137001D0137006F
:1047F0001C0137001B0137001A013700190137006F
:104800001801370017013700040037002100370076
:10481000160137001301370014013700E0C1B3005F
:104820004A12070012002000210020001000200082
:10483000400F07000040E9006140600061416000F6
:10484000814A210091407800E0CFB30000C06000B1
:1048500002407000A8F4B700A8D4BF006140600017
:1048600000C0EA0061406000614060004601DD0078
:1048700031C2200091407800F0CBB30000C060004E
:104880000240700023ECB700234CA800238CA80042
:10489000F6003700860107000040EB002B120700EE
:1048A000F2003700F300070020C0B3004301070007
:1048B000A0F72E00C4100700EC003700ED00070041
:1048C00030C0B3003D01070040FA2E00BE100700C3
:1048D000E6003700E7000700C0FC2E00BA10070012
:1048E000E200370040618000E10F500007003A000D
:1048F000E0010700A6F4B70010C0B30013120700D0
:10490000A6D4BF0015FC07001400370020C0B30078
:104910000E1207004061800010FC070030C0B30099
:104920000A1207000000EB0020A5880007003700EE
:10493000D001070009FC070000C2B300EC1107001A
:1049400020A580000000E80020A5880041618000CB
:1049500020A58000808F5000F5FF3E00D0C0B3003E
:10496000E3110700A0C0B300E1110700BF0037004A
:1049700040C0B300F511070030618000F7FB07006D
:1049800040618000E10F500004003A003061800077
:1049900052010700A6F4B7001300370090FD2E0067
:1049A0007310070040618000ECFB070050C0B300AB
:1049B000E61107000000EB0020A588000600370084
:1049C0003061800045010700A6F4B70020A58000F3
:1049D0000000E80020A588004161800020A580003B
:1049E000808F5000F6FF3E00D0C0B300C01107001A
:1049F000A0C0B300BE1107009C003700E101070012
:104A0000A6F4B700D0C0B300D0110700A6D4BF00F1
:104A100050100700D0C0B300B5110700A0C0B3000C
:104A2000B311070091003700E0C0B300C7110700C1
:104A3000DE010700A6F4B700A6D4BF0045100700AA
:104A4000D0C0B300AA110700A0C0B300A81107008E
:104A50008600370040618000C0FB070000C1B30042
:104A6000BA11070040618000F90107007F0037009C
:104A700010C1B300B5110700020207007B00370028
:104A800020C1B300B11107001702070077003700FB
:104A900030C1B300AD110700CB0107007300370030
:104AA00040C1B300A9110700E20107006F00370001
:104AB00031618000010F78001E017800E10F510084
:104AC0000D0032009E017800E18F5100070039008F
:104AD0001E007800E20F50000C0032009E007800AB
:104AE000E38F5000550032005B003700D0FD2E00F0
:104AF0001F1007005D003700A7000700A0022F006D
:104B0000311007005B0007005800370080032F00BA
:104B10002D100700A0000700A0022F002A10070098
:104B2000A90107005300070020C0B300A30007003D
:104B300000C0EB00C601070000C0EB00C401070085
:104B40004C00070030C0B3009C0007000000EB00E1
:104B500020A588000700370020A580000000E8009D
:104B600020A5880021A58000900F2000808F500094
:104B700003003E00830107000004E000F6FF32005E
:104B80003C00070084000700A0022F000E10070061
:104B90003800070030C0B3008800070020A580005F
:104BA0006EFB070080042F00071007000040EB0099
:104BB000A6F4B7001A003700A6D4BF000040E800F2
:104BC00066FB070010062F00E90F07002901070008
:104BD00062FB070000C2B300451107002501070072
:104BE0005EFB070000C2B30041110700210107006E
:104BF0005AFB070000C2B3003D1107001D0107006A
:104C000056FB0700D0C0B30039110700A0C0B300A5
:104C100037110700A6D4BF000040E800A6F4B70093
:104C2000A6D4BF008080FB0020A58000808F5000AC
:104C3000E1FF39000F0007000C00370050062F007D
:104C4000E10F0700800A2F00DF0F0700D00D2F00B3
:104C5000DD0F07000500370070C1B3003B110700EE
:104C60000200370080C1B300381107000080FA004D
:104C7000000006000200FA0080102F00BC0F0700A1
:104C8000A0D4BF000080FB00000F78001E00780059
:104C9000E10F50000E0032001E007800E10F5000BE
:104CA00004003C001E0078000000E0000B00320011
:104CB000350037001E007800E20F50000F00320070
:104CC0001E007800E30F5000240032002E00370051
:104CD00010112F00BC0F07002D003700A4010700A2
:104CE00010C0B3005A01070010C0B300A0F4B70011
:104CF000E0112F00B40F070025003700A1D4BF003A
:104D0000E14F50000A003A00A2D4BF00E14F50002A
:104D100002003A002C01070001003700450107009E
:104D20000040EB00A1F4B700A0122F00900F070085
:104D30007401070020C0B300450107008C01070083
:104D400010C0B3004201070010C0B300A0F4B700C8
:104D5000F0132F009C0F07000D00370069010700BA
:104D600020C0B3003A0107008101070010C0B30062
:104D70003701070010C0B300A0F4B70080142F0063
:104D8000910F07000200370010152F008E0F07004B
:104D90000080FA00000006000000FA005901070038
:104DA000A0C0B3002A010700710107000040EB001A
:104DB000A0F4B7000080FA00000006000400FA002A
:104DC000004F7800A0D4BF00E14F50000200320035
:104DD000F0152F007C0F070080102F00640F0700D4
:104DE0001E80FB00100798001E009000E10F50008D
:104DF0000E0032001E009000E10F500004003C0045
:104E00001E0090000000E0000B003200240037007C
:104E10001E009000E20F5000160032001E009000AD
:104E2000E30F5000080032001D00370010112F0062
:104E3000650F07001C003700D7FF0700B0172F00D1
:104E4000610F0700180037002E01070010C0B300E3
:104E5000FF0007004601070020C0B300FC00070068
:104E600030C0B300A0F4B70010182F00560F070091
:104E70000D0037002301070020C0B300F400070035
:104E80003B01070020C0B300F100070020C0B300C1
:104E9000A0F4B70050192F004B0F07000200370095
:104EA000A01C2F00480F07000080FA000000060039
:104EB0000000FA00C8E2A800C902A900C922A9009E
:104EC000C8C2A900CAE2A900CB02A900CB22A9004E
:104ED000CAC2A9000080FA00000006000800FA001B
:104EE0004047980000010700A1D4BF00E14F5000E7
:104EF00006003A00A2D4BF00910007000040EB007A
:104F0000A1F4B700401E2F002F0F070023CCBF00D5
:104F1000684060000004E0000300320010C0B300ED
:104F2000004F78000200370000C8B300004F78003F
:104F30000040EB0030479800450037004E4090009D
:104F40001E4060000004E00002003A00B9000700C3
:104F5000010037009C000700CA000700CAC2BF005A
:104F60000080FB004700DE002047980023CCBF00F4
:104F7000684060000004E000100032004E409000E5
:104F80000080FB000000D100404798001E409000C8
:104F90000080FB000000D100104798002E409000D8
:104FA000E14F500011003A001E40900001C8B300CC
:104FB00001404000104798000C0037004E40900020
:104FC00000404000404798001E40900000404000D4
:104FD000104798002E409000E14F500003003A0027
:104FE0001E4090000040E80010479800BE000700F7
:104FF000A0D4BF00E24F500012003A003E409000A3
:10500000E64F50000F003A0010C0B300A1F4B70003
:105010004E4090001E4060000004E00003003A0093
:105020000040EB00A2F4B7000200370010C0B3004C
:10503000A2F4B7001E4090000080FB0030079800EB
:10504000090037003E4090000040E80030479800DB
:105050003E409000E74F5000B8FF36001E409000E1
:105060000080FB00300798003E0090000080FA00AE
:10507000000006000400FA009B000700A1D4BF0056
:10508000E14F500006003A00A2D4BF002C000700F8
:105090000040EB00A1F4B700401E2F00CA0E07002D
:1050A0000040EB00204798001F0037007500070004
:1050B000CAC2BF000080FB004700DE001047980016
:1050C00023CCBF00684060000004E00008003A0004
:1050D0001E40780000404000004F78001E409000C5
:1050E0000004E0000C0032001E4FE8000A00370008
:1050F0001E80FB000000D100004F78001E40900091
:105100000004E000040032001E40780001C8B30033
:1051100001404000004F7800730007002E409000CF
:105120000040E800204798002E409000E74F5000D4
:10513000DEFF36001E80FB000080FA000000060043
:105140000400FA00204798002E4090000004E00080
:1051500002003A0037000700010037001A0007007C
:1051600048000700CAC2BF000080FB004700DE0005
:10517000004F78005C0007001E80FB000080FA00F2
:10518000000006000200FA003E000700CAC2BF008D
:105190000080FB004700DE00004F7800520007004F
:1051A0001E80FB000080FA00000006000000FA00EC
:1051B000CAC2BF000080FB004700DE000080FB0089
:1051C0000080FA00000006000000FA00A8D4BF002A
:1051D0006140600000C0EA00614060006140600022
:1051E00000414000912C200091407800D0CFB300C6
:1051F00000C0600002407000C9E2B700A8D4BF0040
:10520000614060006140600000414000B12C20001E
:1052100091407800D0CFB30000C060000240700021
:10522000CBE2B70040C1B30003FA07000080FA00E8
:10523000000006000000FA00CB22A900C922A90044
:1052400040C1B300FCF907000080FA00000006002E
:105250000400FA00204798000040EB00004F78005F
:1052600003003700070007001F0007001E4FE8007B
:105270002E4090009E4F1000FAFF39000080FA0087
:10528000000006000000FA00A8D4BF0061406000E2
:1052900000C0EA006140600061416000912C200084
:1052A00091407800E0CFB30000C060000240700081
:1052B000C9E2B700A8D4BF0061406000614160004E
:1052C000B12C200091407800E0CFB30000C0600016
:1052D00002407000CBE2B70040C6B300D6F9070029
:1052E0000080FA00000006000000FA00CB02A900CE
:1052F000C902A90040C6B300CFF907000080FA0038
:10530000000006000000FA00A8D4BF006140600061
:1053100000C0EA0061406000614060004601DD00BD
:10532000812C200091407800F0CBB30000C06000D9
:1053300002407000C8E2B700A8D4BF00614060001E
:10534000614060004601DD00A12C20009140780002
:10535000F0CBB30000C0600002407000CAE2B700AA
:1053600040C1B300B4F907000080FA000000060055
:105370000000FA00CAC2A900C8C2A90040C1B30017
:10538000ADF907000080FA00000006000200FA00F4
:10539000F0C2B300104798000040EB00004F7800C7
:1053A000C922A800CB22A900C922A9000500370004
:1053B000A0C0B300A0F907001E4090000040E90023
:1053C000104798001E4090000004E000F8FF3C00E9
:1053D000C922A800C0C3B30097F90700CBC2BF0021
:1053E0000080FB000000D10061406000E2F4B700E3
:1053F00090C2B3001047980005003700A0C0B3006A
:105400008DF907001E4090000040E9001047980009
:105410001E4090000004E000F8FF3C00CBC2BF003B
:105420000080FB000000D10061406000E3F4B700A1
:10543000E3D4BF000004E00002003A0010C0B30053
:10544000004F7800E2D4BF00E14F500003003A0063
:105450001E40780000C0E800004F7800A0C0B300F4
:1054600075F907001E80FB000080FA0000000600AE
:105470000400FA002047980080C0B300004F780075
:105480001D0037002E40900061406000E4F4B7003A
:10549000CB22A900C922A90050C0B30066F90700B9
:1054A000E4D4BF0061406000614060000041400002
:1054B000912C200091407800D0CFB30000C0600054
:1054C00002407000C9E2B70020C3B3005AF90700D8
:1054D00050C0B30058F90700C922A800A0C0B3000B
:1054E00055F907002E4090000080FB000000D1001D
:1054F000204798001E4FE9001E04E000E1FF3C0039
:10550000A0C0B3004CF907000080FA0000000600BC
:105510000200FA00004F7800CB22A900C922A9009E
:1055200050C0B30044F907009E40780061C060009D
:105530006140600000414000912C200091407800C3
:10554000D0CFB30000C0600002407000C9E2B700D5
:1055500020C3B30038F9070050C0B30036F9070084
:10556000C922A800A0C0B30033F907000080FA00E8
:10557000000006000200FA0080C0B3001047980047
:105580000040EB00004F78001D003700CB22A9003F
:10559000C922A90030C0B30027F90700C922A8001A
:1055A00050C0B30024F90700CBC2BF000080FB004D
:1055B0000000D10061406000E4F4B70040C3B300D4
:1055C0001DF907001E80FB000000D100004F78008D
:1055D000E4D4BF00E14F500004003A001E407800C0
:1055E00001C8B30001404000004F7800A0C0B300E4
:1055F00011F907001E4090000040E9001047980094
:105600001E4090000004E000E0FF3C00A0C0B3009A
:1056100009F907001E80FB000080FA000000060068
:105620000000FA00CB22A900C922A90030C0B300B3
:1056300001F90700C922A80050C0B300FEF8070016
:10564000CBC2BF000080FB000000D10061406000C1
:10565000E4F4B70040C3B300F7F80700A0C0B300FC
:10566000F5F80700E4D4BF000080FB000080FA00DA
:10567000000006000800FA00200798003107980093
:105680000040EB00004F78000000EB00100798008E
:105690000C0037001E009000800078002E00900063
:1056A00000804000104078001E4068008080FB00B1
:1056B000408D2F00614F78001E0090000000E80030
:1056C000100798009E0090003E009000808F5000D0
:1056D000F0FF35001E80FB000080FA00000006008D
:1056E0000600FA00881F780024CCBF000080FB0071
:1056F0006101B9001207980023079800C00120003B
:10570000010020001E019000AE019000800F5100AA
:10571000818F5900C3013E001E009000AE00900032
:10572000006001001C0037004000370060003700B7
:105730005F003700BB0137009F0037005E00370075
:10574000B801370065003700B6013700B5013700F2
:105750007700370076003700B2013700B10137001B
:10576000B0013700AF013700AE013700AD0137009F
:10577000AC013700AB013700AA013700A90137009F
:10578000A80137007D00370080003700A7013700EF
:10579000A4013700A501370040618000E10F5000EF
:1057A00007003A0010C0B300680E070071FF070041
:1057B0007BF3B7007BD3BF0068F807001600370003
:1057C00020C0B300610E07004061800063F807004D
:1057D00030C0B3005D0E07000000EB00C09B8800E6
:1057E0000900370063FF07007BF3B7007BD3BF00DE
:1057F0005AF8070000C2B3003D0E0700C09B8000AE
:105800000000E800C09B880041618000C09B8000D0
:10581000808F5000F3FF3E00D0C0B300340E07006D
:10582000A0C0B300320E07008001370040C0B300B3
:10583000460E07003061800048F807004061800094
:10584000E10F500003003A003061800008FF0700BC
:105850001200370020C42E00C50C070040618000F4
:105860003EF8070050C0B300380E07000000EB0000
:10587000C09B88000500370030618000FCFE0700F7
:10588000C09B80000000E800C09B88004161800050
:10589000C09B8000808F5000F7FF3E00D0C0B30057
:1058A000130E0700A0C0B300110E07005F01370000
:1058B000610107005D01370059FF07007BF3B70066
:1058C000D0C0B300210E07007BD3BF00A10C07009E
:1058D000F0C0B3001D0E0700540137004061800086
:1058E0001EF8070060C42E00A10C07000000EB00AA
:1058F000C09B8800050037006ED3BF0004FF07007F
:10590000C09B80000000E800C09B880041618000CF
:10591000C09B8000808F5000F7FF3E006ED3BF0019
:105920008C0C070060C52E00A70C07003F01370054
:1059300080C52E008E0C070024CCBF00EC4F500019
:1059400005003A000040EB006EF3B7000040EB00AA
:10595000800C07000400370010C0B3006EF3B700DE
:1059600010C0B3007B0C070040C62E00960C070049
:105970006ED3BF00E6FE07002C013700234CA900C0
:10598000238CA80023CCA800280137000040EB009E
:1059900080F3B700C922A800CB22A900F0C82E00CE
:1059A000890C070000CC2E00870C07000040EB009C
:1059B000E60D07001D013700306180000000E000A7
:1059C000360032003161800020032000808F5000BB
:1059D00032003E00306180000000E9003061880044
:1059E0003161800080D3BF000080FB00808F5000B9
:1059F00003003900A0CE2E00730C07000B01370006
:105A000040D12E005A0C0700306180000040E800B1
:105A1000170D070030D22E00550C07000040EB0098
:105A20007AF3B70017003700326180007AD3BF00E5
:105A30008080FB004310DD00810040001038210011
:105A40000080400010407800C4F7070000C2B30097
:105A5000A70D0700326180007AD3BF008080FB0071
:105A60004310DD008100400010382100008040001C
:105A7000104078007EFE07007AD3BF000040E800A7
:105A80007AF3B7007AD3BF00E74F5000E6FF360045
:105A900060D22E004C0C0700E4003700316180001A
:105AA000010F7800500520001E017800800F510082
:105AB000CD003200500520009E017800808F5100FB
:105AC00008003E001E0078000000E00012003200D6
:105AD000300320009E007800808F5000A00032002C
:105AE000CD003700C00E20001E017800800F51004D
:105AF00046003200000F20009E017800808F510088
:105B000042003200C00C20009E007800808F5000C0
:105B1000BB003200C000370080D22E002A0C0700E4
:105B200060D32E00280C070080D3BF000004E000E3
:105B300003003A00A0CE2E00230C070030003700EF
:105B40000040EB007BF3B7002800370000C2B30031
:105B5000670D07007BD3BF000040E800C40C0700BE
:105B6000E0D42E00020C07000040EB007AF3B700EF
:105B70000F0037007BD3BF000081FB007AD3BF004A
:105B80008080FB004310DD008100400010382100C0
:105B9000008040001040780070F7070000C2B3009A
:105BA000530D07007AD3BF000040E8007AF3B70036
:105BB0007AD3BF00E74F5000EEFF360000D52E002D
:105BC000EB0B07007BD3BF000080FB00C300DD00B0
:105BD000103821000080400010407800B700070016
:105BE0007BD3BF000040E8007BF3B7000138210001
:105BF000914078007BD3BF0080CF5000D3FF3E00A0
:105C000070D52E00F00B070088003700306180004F
:105C1000BAF1B70031618000C00E2000808F5000C3
:105C200003003A00B0E22E00E70B07000200370045
:105C3000F0E32E00E40B070060D32E00E20B070018
:105C40000040EB007AF3B700CB0007007BF3B7000E
:105C50000040EB0080F3B7003B00370000C2B30008
:105C6000230D07007AD3BF000040E800800C070036
:105C7000E0D42E00BE0B07000000EB00C09B8800A4
:105C80000A003700C19B8000103D210000804000C9
:105C90001040780031F7070000C2B300140D070070
:105CA000C09B80000000E800C09B8800C09B800073
:105CB000E70F5000F3FF360000D52E00AC0B0700B5
:105CC000D1D3BF007D0007007AD3BF00E94F500059
:105CD00018003E000000EB00C09B88000F0037005A
:105CE00080D3BF008081FB00C49B8000C19B8000EB
:105CF000103D210000804000104178004318DD0075
:105D000084004000103821000080400002487800E4
:105D1000C09B80000000E800C09B8800C09B800002
:105D2000E70F5000EEFF360080D3BF000040E800D0
:105D300080F3B7007AD3BF000040E8007AF3B700E1
:105D4000980007007BF3B7007BD3BF000004E0009E
:105D5000C2FF3A00D0E42E009B0B0700330037004F
:105D60003500070090E72E00810B070030C3B30019
:105D7000BFFD07000000EB00C09B8800100037004B
:105D8000C89B8000FBFD070080407800F0362100B2
:105D90000000440001487800C19B8000F0362100DB
:105DA0000080400010407800ECF6070000C2B3000D
:105DB000CF0C0700C09B80000000E800C09B88005B
:105DC000C09B8000E70F5000EDFF3600D0C0B3004D
:105DD000C70C0700A0C0B300C50C07006FD3BF00FD
:105DE000360007001100370013000700B0E82E004E
:105DF000750B070050C5B3009DFD07000B00370071
:105E00000D000700C0E92E006F0B0700C0CCB300E7
:105E100097FD07000500370070C1B300CB0C0700E9
:105E20000200370080C1B300C80C07004F0478009F
:105E30000080FA00000006000200FA0053FD07008F
:105E4000004F7800C0EA2E00490B07001E04E00056
:105E500003003A0070EB2E005B0B070015003700C3
:105E6000A0EB2E00420B07001E80FB0061006000CB
:105E70000004E0000200320020EC2E003C0B070082
:105E80001E80FB000000D100610060000004E00003
:105E90000200320080ED2E00350B0700D0EE2E0000
:105EA000330B07001E407800ACF6070060C52E00DB
:105EB000450B07000080FA00000006000400FA000D
:105EC000004F78001E80FB00100798002002200081
:105ED0009E009000808F50001A00320020022000A7
:105EE0009E009000808F500007003C001E00900034
:105EF000E40F5000160032009E009000F08F50001A
:105F00000A00320018003700800220009E00900036
:105F1000808F500008003200D00220009E009000C8
:105F2000808F50000D0032000F003700F0EE2E0081
:105F3000250B07000E003700B0F02E00220B0700E3
:105F40000B00370060F22E001F0B0700080037001F
:105F5000C0F32E001C0B07000500370050F52E0083
:105F6000190B07000200370060F62E00160B070021
:105F70000080FA00000006000000FA000040EB007C
:105F8000D9F3B7000040EB00DBF3B7000040EB00B3
:105F9000DAF3B700080007000080FB000080FA0079
:105FA000000006000000FA00030007000080FB006C
:105FB0000080FA00000006000A00FA0010C0B300DA
:105FC000704798000040EB00604798000040EB00ED
:105FD0005047980010C0B300104798000040EB00F5
:105FE000404798000040EB00DCF3B700DBD3BF0074
:105FF0000004E0008B003A00E4FC07000004E0002D
:10600000090032000040EB00D9F3B7000040EB007C
:10601000DBF3B7000040EB00DAF3B7000000EB0061
:106020004007980090003700BAD1BF0010FD07006C
:106030007BFD07003047980079FD07002047980056
:106040003E409000E14F500003003A002E40900087
:10605000E14F500063003200BE4090002E4090009F
:1060600080CF5000030032003E409000004F780087
:1060700024003700913D2100914078007E4090003F
:10608000814F50000E0031005E4090008080FB0088
:10609000103D210000804000904078001E4090009C
:1060A00080C060000040EB00004F78000104E00079
:1060B0000B00320010C0B300004F7800080037001A
:1060C000D9D3BF008040EB00014F7800FE40900024
:1060D00080CF500002003A0010C0B300004F78009B
:1060E0001E04E00007003A007E40900060479800E0
:1060F0006E409000E84F500002003E006E4090005D
:10610000DAF3B70010C0B3009E4F10000D003A0044
:106110005E4090000081FB005E4090008080FB00AC
:10612000103D210000804000904078001E4090000B
:1061300080C07000103D210000004100014878003F
:106140000F0037005E4090000081FB005E40900031
:106150008080FB00103D210000804000104078004E
:10616000804078001E40900000C0EA0000C060003F
:1061700080407800103D2100000041000148780077
:106180001E407800E2FC07007E4090000040E800DE
:10619000704798001E409000004040001047980053
:1061A0001E4090000004E0000B003A005E409000AA
:1061B0008080FB00103D21000080400010407800EE
:1061C000840007005E4090000040E80050479800BF
:1061D00010C0B300104798005E409000E74F500099
:1061E00093FF3600FE40900000C4B30080CF500003
:1061F0000C003600DCD3BF000004E00009003A00C8
:106200006E409000D9F3B700D9D3BF000004E0007E
:1062100002003A0010C0B300DBF3B70010C0B300B7
:10622000404798004E4090000004E0000300320018
:10623000D1D3BF000004E00008003A000040EB00AA
:10624000D9F3B7000040EB00DBF3B7000040EB00F0
:10625000DAF3B7000040EB00404798004E40900052
:106260000080FB00400798004E0090000080FA007C
:10627000000006000E00FA000040EB0040479800C6
:106280000C0037004E4090000081FB004E40900013
:106290008080FB00103D210000804000904078008D
:1062A00065004700017178004E4090000040E80012
:1062B000404798004E409000E74F5000F1FF3600F5
:1062C000D9D3BF0020479800DBD3BF001047980008
:1062D000DAD3BF00004F780000C4B300D9F3B70091
:1062E0000040EB00DBF3B70033FF07000004E000E1
:1062F0001A00320010C0B300304798000040EB0095
:1063000040479800110037004E4090008080FB000D
:1063100065004700614178004E4090008080FB009E
:10632000103D21000080400010407800804F510057
:10633000030032000040EB003047980009003700AE
:106340004E4090000040E800404798004E409000CA
:10635000E74F5000ECFF3600020037000040EB0032
:10636000304798000040EB00404798000C00370091
:106370004E4090000081FB004E4090008080FB006A
:1063800065004700E1407800103D21000000410019
:10639000014878004E4090000040E80040479800D7
:1063A0004E409000E74F5000F1FF36002E40900025
:1063B000D9F3B7001E409000DBF3B7001E40780011
:1063C000DAF3B7003E4090000080FB000080FA0046
:1063D000000006000200FA00004F7800DCD3BF0086
:1063E0001E4068008080FB00B01B21000080400040
:1063F00010407800DCF3B700DCD3BF000080FB0066
:106400000080FA00000006000000FA0050F72E009D
:10641000D70907000080FA00000006000400FA0017
:10642000C922A800CB22A900C8C2A90023CCA80079
:10643000236CA900F4FF07000000370022C2BF0050
:10644000614060000004E000FCFF32003011800079
:106450007FF3B7007FD3BF000080FB004400DE0065
:106460007EF3B7007ED3BF000080FB0010079800CA
:106470001E009000E10F50005B0032009E00900073
:10648000E48F5000760032001E0090000000E00013
:1064900001003200770037007FD3BF000080FB008F
:1064A000000F78009E007800E28F50001700320045
:1064B0001E007800E20F500007003C009E007800AC
:1064C0000100E0006E0032001E007800E10F500075
:1064D0000C003200410037009E007800E48F50002D
:1064E0000E0032001E007800E40F50003B00350023
:1064F0009E00780068805000E10F500037003E0099
:1065000009003700C0FF0700CCFF37004AFE070034
:1065100010C0B300F60A0700C8FF370015FC0700DB
:10652000F30A0700C5FF370010C0B300F00A0700E8
:106530007FD3BF00E94F500003003A00C0CEB30044
:10654000BAF1B7000200370000CFB300BAF1B700CC
:1065500089FE07007CF3B700110037000040EB0014
:106560007DF3B700090037007DD3BF008080FB00BA
:10657000103D21000080400010407800DC0A070038
:106580007DD3BF000040E8007DF3B7007DD3BF009E
:10659000E74F5000F4FF360082FE07007CF3B7009F
:1065A0007CD3BF000004E000ECFF3A000040EB00A9
:1065B0007DF3B7000500370000C0EB00CC0A0700F0
:1065C0007DD3BF000040E8007DF3B7007DD3BF005E
:1065D000E74F5000F8FF360098FF37000040EB000F
:1065E000C30A070095FF3700F1372100914078007A
:1065F000F0C0B30000C060007FF3B7007FD3BF00DE
:106600000040E8007FF3B70010C0B300B80A0700ED
:106610000040EB007DF3B7000B00370022C2BF0043
:10662000614060000004E000FCFF32003011800097
:106630008FFB070010C0B300AD0A07007DD3BF0079
:106640000040E8007DF3B700D13721009140780089
:106650007FD3BF0080CF5000F0FF390077FF3700B5
:106660007FD3BF003815070010C0B300A00A070091
:1066700072FF37000040EB009D0A07006FFF3700F4
:106680000080FA00000006000400FA0024CCBF00DD
:106690000080FB00100798001E009000F80F5000CB
:1066A000170032001E009000F80F50000A003C0056
:1066B0001E009000E10F5000380032001E009000D4
:1066C000E50F50004F0032001E0090000000E00077
:1066D000110032006E0037001E009000FA0F5000CB
:1066E0006D0032001E009000FA0F500006003500C9
:1066F0001E009000FC0F500067003200640037005D
:1067000023CCA800640037009D0007000040EB0088
:106710008E0A07006000370040618000E10F5000E2
:1067200005003A0010C0B300880A07002E010700D8
:106730005B0007001400370020C0B300830A070085
:106740004061800085F4070030C0B3007F0A070075
:106750000000EB00F0A588000700370022010700C9
:106760004F00070000C2B300610A0700F0A58000D7
:106770000000E800F0A5880041618000F0A58000DD
:10678000808F5000F5FF3E00D0C0B300580A0700CC
:10679000A0C0B300560A07003F00370040C0B30056
:1067A0006A0A0700306180006CF4070030618000E5
:1067B0004B010700C0F4B700C0D4BF000004E000E4
:1067C00003003A0060C0B300600A07000800370009
:1067D000C0D4BF00E14F500003003A0070C0B300C6
:1067E0005A0A070002003700E0C62F00E008070041
:1067F000D0C0B3003E0A0700A0C0B3003C0A0700A7
:106800002500370030618000000F78001E007800FE
:106810000000E000040032001E007800E10F50008C
:106820000400320017003700B0C72F00E608070049
:106830001900370020CA2F00E3080700EA0007000C
:106840000004E00004003A00C3D4BF0043F4070092
:1068500000C2B300260A070022C2BF0061406000E8
:106860000004E000F5FF320030118000C0F4B700F2
:10687000D0C0B3001E0A0700A0C0B3001C0A070066
:106880000500370070C1B300300A0700020037006E
:1068900080C1B3002D0A07000080FA000000060046
:1068A0000400FA00004F78001E80FB0010079800DB
:1068B0009E009000E28F50001D0032001E009000EC
:1068C000E20F500007003C009E0090000100E00035
:1068D0000F0032001E009000E10F50001100320046
:1068E000230037009E009000E48F50001A00320011
:1068F0001E009000E40F500012003500F00F200041
:106900009E009000808F5000160032001800370063
:10691000C3D4BF0011F4070000C2B300F40907009C
:1069200015003700F0CB2F00910807001200370048
:10693000C3D4BF0009F4070000CD2F008C08070066
:106940000D003700C3D4BF0004F40700F0CD2F00C2
:106950008708070008003700E0C62F0084080700FA
:1069600005003700F0CE2F00810807000200370035
:1069700050CF2F007E0807000080FA0000000600BC
:106980000000FA00C922A800C902A900CB02A90090
:10699000CB22A9000080FA00000006000400FA00E3
:1069A0000040EB002E0107000004E000030032006D
:1069B00020002000100798000E003700CBC2BF0057
:1069C0000080FB000000D10061406000004F7800B3
:1069D00010C0B300220107000004E00003003200F1
:1069E0002000200010079800020037001E80FB00E6
:1069F000100798001E0090000080FA0000000600BA
:106A00000600FA000040EB00204798000040EB0031
:106A100010479800CBC2BF000080FB000000D100EF
:106A20006140600061416000214C2100914078008C
:106A3000E0CFB30000C0600002407000C2F4B700B5
:106A4000C2D4BF00614060000004E00003003200D7
:106A500010002000200798006000370010C0B3002D
:106A6000FF0007000004E0000300320041002000A6
:106A700021079800590037000040EB00304798008C
:106A8000190037001E4090000080FB000000D1007C
:106A900010479800C1FF0700004F780020C0B300E6
:106AA0009E4F100003003A0041002000210798008B
:106AB0004A00370010C0B3009E4F100007003A0094
:106AC0009E40900000C8B30000C0400010479800EE
:106AD0002E4090000004A200204798003E40900005
:106AE0000040E800304798003E409000E74F5000DB
:106AF000E4FF36001E409000C3F4B700A7FF070074
:106B0000004F780021C0B3009ECF100003003A0070
:106B10004000200020079800300037009E40780099
:106B200061C0600061416000414C210091407800EB
:106B3000E0CFB30000C0600002407000C4F4B700B2
:106B4000C4D4BF0061406000804078002E409000B7
:106B500080CF500004003A00C454A8002000200058
:106B6000200798001D003700C454A9008BFF0700C0
:106B7000004F780021C0B3009ECF100003003A0000
:106B80004000200020079800140037009E40780045
:106B900061C060006140600000414000414C210044
:106BA00091407800D0CFB30000C060000240700078
:106BB000C4F4B700C902A900C4D4BF006240600099
:106BC0000004E00003003A00300020002007980095
:106BD000020037008000EB00210798002E00900093
:106BE0000080FA00000006000200FA0000C0EB007E
:106BF000004F7800C922A800C902A8000040EB009D
:106C00001047980010003700CBC2BF006140600001
:106C10000004E00007003A0079FF0700004F780009
:106C20001E04E0000B00320040C0B3009E4F100075
:106C30000800320050C0B3007FF307001E409000F0
:106C40000040E800104798001E409000E14F4000CF
:106C5000EDFF3A00C902A9001E80FB000080FA0087
:106C6000000006000400FA00004F780010C0B300D6
:106C70007B0007000004E000030032002000200039
:106C800010079800130037009E40780061C0600034
:106C90006140600000414000912C2000914078004C
:106CA000D0CFB30000C0600002407000C9E2B7005E
:106CB0000040EB006A0007000004E000030032001F
:106CC0002000200010079800020037008000EB0031
:106CD000110798001E0090000080FA0000000600D6
:106CE0000800FA00404798000040EB002047980059
:106CF000C902A900CB02A900C0C3B3004EF307002C
:106D0000CB22A900C922A900C902A80010C0B30063
:106D100049F307000040EB00510007000004E000C9
:106D2000030032004000200030079800490037007F
:106D30000000EB00000F78001C0037004E40900070
:106D40000080FB00610060000004E0000B003200E6
:106D500010C0B300C3FF07000004E00003003200CE
:106D600040002000300798003A0037002E40900085
:106D70000004A20020479800070037000040EB0005
:106D8000B8FF07000004E0000300320040002000CC
:106D9000300798002F0037004E4090000080FB0025
:106DA0000000D100404798001E0FE800700020004E
:106DB0009E0F1000E1FF36002E4090000004A2005C
:106DC000204798002E409000A6FF07000004E00036
:106DD0000300320040002000300798001D003700FB
:106DE000C922A800CB22A90010C0B3001C000700D4
:106DF0000004E0000300320040002000300798004B
:106E000014003700E5FE0700E24F500003003A008F
:106E100040002000300798000E003700DFFE07001A
:106E20000080FB00000F7800200020009E0F100063
:106E300003003A00400020003007980005003700AA
:106E4000C902A900CB02A9001E0078000080FB0047
:106E5000300798003E0090000080FA000000060015
:106E60000600FA00204798000080EB00000F780031
:106E7000CBC2BF0061406000804078002E4090008F
:106E800080CF500003003A000000EB00200798007C
:106E9000050037001E0FE9001E00E000F4FF3A0075
:106EA00010002000200798002E0090000080FA00BB
:106EB000000006001400FA00881F78000000EB00B4
:106EC000800888000000EB00F00888000000EB005C
:106ED000E00C880050A58000E20F50000A003A0044
:106EE000A16C20009140780000CEB30000C060008B
:106EF000CAE6B700207D2F00330707000000EB0033
:106F000050A5880082003700F07D2F002E07070073
:106F1000C0802F00160707002203200001FA20007E
:106F2000400020008305070030079800E0812F0013
:106F30000F0707003E009000E30F500007003E00DF
:106F400080822F0020070700E00320002007980020
:106F500010A1A8001081A8001B0037003E0090007F
:106F6000FE0F500007003E00C0822F0016070700EA
:106F7000A00F20002007980010A1A8001081A900F0
:106F800011003700BE009000400F2000808F50009D
:106F900007003E00F0822F000B070700007D200055
:106FA0002007980010A1A9001081A8000600370052
:106FB00010832F000407070000E823002007980033
:106FC00010A1A9001081A9002E0090003E019000A0
:106FD000110009000280D8000000E9005007980065
:106FE00030832F00E20607005E0090007107070063
:106FF000D0C0B3003E080700A0C0B3003C080700A3
:1070000080832F00DA0607002203200031062000CB
:107010002000200047050700000478006140B90007
:107020003DEA0700000F9800110F98000800E000EB
:1070300007003D0002002000037824000E089000A5
:107040009E08900060EA0700000F9800110F98005A
:107050000E0890009E089000008FBE0002002000E5
:10706000832C24001E00BE00B4EA0700008FBE007F
:107070005E009000CF80DE0027EA070060079800DE
:10708000710798005E0090000000E00007003D00DE
