:020000040000FA
:10000000040C0400000000008C6700008C670000F6
:100010008C6700008C6700008C6700008C67000014
:100020008C6700008C6700008C6700008C67000004
:100030008C6700008C6700008C6700008C670000F4
:100040008C6700008C6700008C6700008C670000E4
:100050008C6700008C6700008C6700008C670000D4
:100060008C6700008C6700008C6700008C670000C4
:100070008C6700008C6700008C6700008C670000B4
:100080008C6700008C6700008C6700008C670000A4
:100090008C6700008C6700008C6700008C67000094
:1000A0008C6700008C6700008C6700008C67000084
:1000B0008C6700008C6700008C6700008C67000074
:1000C0008C6700008C6700008C6700008C67000064
:1000D0008C6700008C6700008C6700008C67000054
:1000E0008C6700008C6700008C6700008C67000044
:1000F0008C6700008C6700008C6700008C67000034
:100100008C6700008C6700008C6700008C67000023
:100110008C6700008C6700008C6700008C67000013
:100120008C6700008C6700008C6700008C67000003
:100130008C6700008C6700008C6700008C670000F3
:100140008C6700008C6700008C6700008C670000E3
:100150008C6700008C6700008C6700008C670000D3
:100160008C6700008C6700008C6700008C670000C3
:100170008C6700008C6700008C6700008C670000B3
:100180008C6700008C6700008C6700008C670000A3
:100190008C6700008C6700008C6700008C67000093
:1001A0008C6700008C6700008C6700008C67000083
:1001B0008C6700008C6700008C6700008C67000073
:1001C0008C6700008C6700008C6700008C67000063
:1001D0008C6700008C6700008C6700008C67000053
:1001E0008C6700008C6700008C6700008C67000043
:1001F0008C6700008C6700008C6700008C67000033
:10020000FFFFFF00FFFFFF008C6700008C6700000E
:100210008C6700008C6700008C6700008C67000012
:100220008C6700008C6700008C6700008C67000002
:100230008C6700008C6700008C6700008C670000F2
:100240008C6700008C6700008C6700008C670000E2
:10180000040C000000000000CFCB2100007F22006C
:1018100000018800000000000A0007001100070016
:10182000000020000000E000020032000000020082
:1018300000000000C80F0200000000000040DA00B5
:101840000000FE004440A90020E621000000E00066
:101850000300320010002000A00188004440A800CE
:101860000000060000472600010020001500370098
:1018700062004000E0804800910188009001BA00B9
:1018800062004000E0804800910188009002BA00A8
:1018900062004000E08048000002EB006028E100A8
:1018A00004003A000059EB008301E900FDFF3E000F
:1018B000040037006128E100010032000082EB00E3
:1018C00005000700910188001001BA000200E00045
:1018D000E7FF3A00000005009101880080027800CF
:1018E00062004000E08048003559BA008301E900F9
:1018F000080032002559BA008301E90005003200D2
:101900000400E000F4FF320015D9BA008301E900B9
:10191000F1FF3A0000000600889FBE008A9FBE00CB
:10192000010578000100E0000400350008003C00DB
:101930000000E000200032000500370060001000C9
:10194000E080180002003B0001F02C001A00370074
:101950000004BE006011B8006B0920000982CF00AE
:10196000020039000882CF000441B00069425200F1
:101970000E00320008003B008281710061016400AA
:101980008904D1000884D3008B05E8000442E800F4
:10199000F9FF3A00050037000804440089844C0030
:1019A0008B05E9000442E900FBFF3A00250107002E
:1019B0000AF0A70001F0A0004F05BE004F04BE00D2
:1019C0000000060003F0A200889FBE008A9FBE00B0
:1019D0008C1F780041010700480133006450E1008A
:1019E0004F0032006420E1005200320003826C009C
:1019F00007003B000905D0000306D000820F540009
:101A00000C065D00020039000200320089017800F6
:101A1000030678008582550004003D000003FD00A8
:101A20008103FD008502EA008B854200840F72006D
:101A300002003B0060001000E08018006011B80058
:101A40000005EB007A28E1000A0039000600780062
:101A5000C75DDD00F707B200878075002D003700F5
:101A6000828171000A017800610560008180D100E7
:101A70000080D3008502E900F9FF3B000604400026
:101A80008784480002003B0060041400E0841C00CE
:101A90000988A300070032008A81710082817100E9
:101AA000610164008904D1000884D3008B05E8003B
:101AB000170037000978A30013003A000B00E0007C
:101AC000130034008B05E9000804440089844C00AD
:101AD0000A4474000978A3000D003A000B00E000EE
:101AE000070034008B05E9000804440089844C0099
:101AF00001003A000B0020000978A300F7FF320034
:101B00000001EB0002003700828171000A017800B9
:101B1000CC0007000CF0A70001F0A0000001370086
:101B20006420E10002003A00838F6C000001330062
:101B30000801BE000200BE00F9003700889FBE0009
:101B40008A9FBE008C1F7800E4000700EB00330082
:101B500003866C006450E1002E0032006420E10036
:101B6000330032006150E1002F0032006120E100BB
:101B70003100320085855500EB07B00009002000D8
:101B800008042000050037000804440089844C0044
:101B90000A0031000603430087834B000001530015
:101BA00081815B00F8FF33000203BE000800A00043
:101BB0000804440089844C00F6FF3900C639DD0072
:101BC0008301730001003200130020008904D1005A
:101BD0000884D3000998A300050032000800A7007C
:101BE0000300A0008904D1000884D3008B05E8001D
:101BF0008904D1000884D3000001EB000281D200E7
:101C00009000070001F0A1000CF0A70001F0A00077
:101C1000C30037006420E100C50032000801BE00A7
:101C20000200BE00F7FF37006120E100C000320073
:101C30006000B800F3FF37000000200001F8270023
:101C4000F0FF3700889FBE008A9FBE008C1F78007F
:101C5000A2000700A900330003866C006450E10075
:101C6000240032006420E100270032006150E100CE
:101C7000220032006120E100210032008B85420009
:101C8000EB07B1000134B800003AB8000804420084
:101C900089844A00013AB8000030B80088804000CA
:101CA00009014A0004003300000040008180480020
:101CB000020149008B05E900C909DD0083017000BC
:101CC0000100320013002000C814DE004814DD00BB
:101CD0004709DE001200B200C808DE000884700068
:101CE0005800070001F0A1000CF0A70001F0A000CF
:101CF0008B0037006120E1008D0032000801BE003A
:101D00000200BE00F7FF37006150E100FCFF3A001F
:101D1000870037000001BE00880007000470A7009C
:101D200003F0A10003F8A30013003A006509B10015
:101D300010003200090035006928E100020035007A
:101D400001002800000005000000400081804800DC
:101D50008502E900FCFF3A0000000600F88F42000F
:101D6000050035008100D1000080D3008502E80025
:101D7000FCFF3A00000006008000EB0000000500B8
:101D80006022B800060220000000D0008180D2004E
:101D90000482D2008582D2000000A000020252001C
:101DA00083825A00030031000202420083824A000B
:101DB0000000A1000603E900F3FF3A00000006005E
:101DC0000001BE005D0007000470A70003F0A10041
:101DD0006509B100160032000D0035006828E100E9
:101DE00006003500F0FF2F00F1FF27000300E000A0
:101DF00013003B0001002800000005000000400027
:101E0000818048008502E900FCFF3A0008003700A5
:101E1000F88F420002003C008000EB00000005004B
:101E20008100D1000080D3008502E800FCFF3A0069
:101E30000300E00002003B0060001000E08018009A
:101E40000000060081002000618055000B003D006D
:101E50000B00200061FE2F000100E1001D00340096
:101E600082817100610164008904D1000884D3007B
:101E70000000E800FAFF3A007100200061006400F1
:101E80000300700002006000090032006104440099
:101E9000E0844C000988A500050032008B05E800AD
:101EA0006808E10002003A008904D1000884D300E8
:101EB000F20F20000258E10005003D00C75DDD0083
:101EC000F907B2008980750008007800000006005C
:101ED0000BF827008B007800000005000004BE000E
:101EE000160007000003BE000405BE000200BE008D
:101EF00012000700844F7500000006000200BE00BB
:101F00006450E100050036006420E1000200360064
:101F10000968A30001003A000800BE000160A000AB
:101F20004F0678004F05BE004F04BE0000000600BB
:101F3000F0FF2F00F1FF2700F9FF3700C70ADE008E
:101F4000F107B200F50FB20008003200E1CF420005
:101F5000020032000170A00024000500810F700013
:101F6000010032000408050044000500810F7000E4
:101F700002003A00140005008502E900000040005C
:101F800081C04800FCFF3B000170A0002400050058
:101F90000400FA004B0007000000370022C2BF0017
:101FA000624060000004E000040032001011800074
:101FB000D1FF2F0001006000101188000280200076
:101FC0000100210020812100F3190700100798006B
:101FD000E00F20009E009000808F50002B00320008
:101FE000F00F20009E009000808F50001F003200F4
:101FF0001E009000E10F5000010032002900370060
:1020000091C08000010F78001E0078000000E00001
:10201000040032009E007800E18F5000040032007E
:102020000700370090C1B300F51C07000700370018
:1020300000C8BF00B81507000004E00003003A0024
:1020400090C0800001802000F31707000000EB0023
:1020500090C088000040EB00B9FCB7009B1507005A
:10206000E0C3B300971C07000E003700B9DCBF00C7
:102070000040E800B9FCB700B9DCBF00F34F5000E6
:10208000080036002B25070006003700B9DCBF002A
:10209000E44F5000010036009F2807000040EB008D
:1020A000B9FCB7000BD8BF00624060000004E0003C
:1020B000BAFF320060C1B3000CF8B7004315070047
:1020C000B6FF37000000FA004507A9000080EB00CA
:1020D000601988004227A900416A200091407800D9
:1020E00000CEB30000C060005040B300A4E6B700CB
:1020F000416C20009140780000CEB30000C0600029
:102100003040B300C4E6B70080C0B30000F8B700A9
:102110000000EB0010C08800F50507002906070045
:102120008000EB00F00F2000A81C070030C08800E2
:1021300021002000F00F2000A41C070040C08800F0
:10214000D0C0B3005F1C0700A0C0B3005D1C070037
:102150004C1607005D150700E0C3B300591C0700CB
:102160000080FA00000006000600FA000CD8BF004C
:102170000080FB006101B900120798002307980056
:10218000C0012000010020001E019000AE0190005F
:10219000800F5100818F5900D4003E001E00900036
:1021A000AE009000006001001C0037003E003700C8
:1021B0005E0037005D00370062003700B600370070
:1021C000660037006C003700720037007800370077
:1021D0007C0037008000370084003700C3003700E0
:1021E000C2003700C1003700C0003700BF00370011
:1021F000BE003700BD003700BC003700BB00370011
:10220000BA003700B90037007D003700970037006B
:10221000B8003700B5003700B600370080C0800036
:10222000E10F500007003A0010C0B300741C070013
:10223000D5230700A6FCB700A6DCBF00F305070006
:102240001400370020C0B3006D1C070080C0800060
:10225000EE05070030C0B300691C07000000EB006A
:1022600020E5880007003700C7230700E7050700BF
:1022700000C2B300131C070020E580000000E80046
:1022800020E5880081C0800020E58000808F50001C
:10229000F5FF3E00D0C0B3000A1C0700A0C0B30089
:1022A000081C07009300370040C0B300541C07000F
:1022B00070C08000D505070080C08000E10F50008D
:1022C00003003A0070C080007E2307001200370030
:1022D00000482A00861A070080C08000CB0507004E
:1022E00050C0B300461C07000000EB0020E588004A
:1022F0000500370070C080007223070020E58000D1
:102300000000E80020E5880081C0800020E5800012
:10231000808F5000F7FF3E00D0C0B300E91B0700DC
:10232000A0C0B300E71B070072003700F6220700C9
:1023300040482A006E1A070080C0B300301C070016
:102340006C00370003230700C0482A00681A070002
:1023500090C0B3002A1C070066003700D0C0B3004D
:10236000271C0700B82307005A1A0700F0C0B30063
:10237000231C07005F003700E0C0B300201C0700EB
:1023800001240700531A0700F0C0B3001C1C07000B
:102390005800370080C080009C05070000C1B300D2
:1023A000171C070080C08000C923070051003700B8
:1023B00010C1B300121C070010C0B300E0230700D7
:1023C0004C00370020C1B3000D1C07000040EB009B
:1023D000DB2307004700370030C1B300081C0700AB
:1023E00010C0B300CD2307004200370040C1B30046
:1023F000031C07000040EB00C82307003D00370026
:102400000B58A8000B98A80010C3B300FC1B0700D2
:10241000120020002100200010002000A518070055
:102420000040E9000AF8B700E0C1B300F41B070060
:102430001200200021002000100020009D1807003D
:102440000040EA0061406000614060004601DD003C
:10245000B180210091407800F0CBB30000C0600053
:10246000024070000BF8B70022003700CB02A90031
:10247000CB22A900C922A800C902A900A18021007D
:102480009140780020C0B3007C2207000040EB00A0
:10249000DB1B07001700370071C08000010F7800B8
:1024A0001E017800E10F51000A0032009E01780001
:1024B000E18F5100040039001E007800E20F500047
:1024C000050032000600370030492A00081A0700CC
:1024D0000800370009000700190007000500370051
:1024E00070C1B300C61B07000200370080C1B300F3
:1024F000C31B07000080FA00000006000000FA007D
:10250000404D2A00101A0700104F2A000E1A07002B
:102510000040EB009323070000C0EB0072050700AA
:1025200010C0B3008F23070010C0B300682307005A
:102530000040EB008B2307000080FA00000006003B
:102540000A00FA00881F780030512A00E8190700B5
:102550000000EB00000F78000D0037001E0478002B
:102560000923070080407800630047000174780069
:102570009E00780063004700614078000080FB0007
:10258000CC1A070000C2B3004E1B07001E0FE80064
:10259000300020009E0F1000F0FF3600D0C0B300C6
:1025A000481B0700A0C0B300461B070010542A00B8
:1025B000CF19070063004700104078000080FB003F
:1025C0004400DE000080FB00400798004E009000B1
:1025D000E90F5000110032004E009000E90F50004A
:1025E00004003C004E009000E80F5000080032004C
:1025F000130037004E009000EA0F50000A0032002E
:102600004E009000EF0F50000A0032000C0037001F
:10261000C0542A00CC1907000B00370030552A009F
:10262000C919070008003700A0552A00C61907007D
:102630000500370010562A00C319070002003700B2
:1026400050562A00C0190700D0562A00A8190700C2
:1026500063004700104090000080FB004700DE0050
:102660000004E00003003A0090572A00B619070062
:102670000200370000582A00B319070000592A0049
:102680009B19070063004700104090008080FB000A
:1026900080F72F00008060004380DE002047980014
:1026A0002E4090000004E00003003A00D0592A00B8
:1026B0008F1907001B0037002E409000EF4F50008D
:1026C00003003A0010562A00891907001500370048
:1026D00000042000000F7800E30047000040EB00FA
:1026E00080487800080037001E0078000000400095
:1026F000000F780063004700104078008040E80039
:10270000630047000148780063004700904078006C
:102710002E40900080CF5000F3FF39001E0078005B
:10272000041A0700D0C0B300E61A0700A0C0B30027
:10273000E41A0700B05A2A006D1907006300470029
:102740009040900070C0B30000C060002047980027
:1027500010002000000F7800E30047000040EB006D
:1027600080487800080037001E0078000000400014
:10277000000F780063004700104078008040E800B8
:1027800063004700014878006300470090407800EC
:102790002E40900080CF5000F3FF39001E007800DB
:1027A000131A0700D0C0B300C61A0700A0C0B300B8
:1027B000C41A07004F0478000080FA0000000600E9
:1027C0000400FA000CD8BF000080FB006101B900D2
:1027D000028FBE00C0012000010020001E01BE00CB
:1027E000800F5100818F5900D8003E001E00BE00AE
:1027F000006001001C0037003E0037006A0037000F
:102800006900370073003700CD00370077003700CC
:102810007F003700870037008D00370091003700B8
:102820009500370099003700C8003700C70037000F
:10283000C6003700C5003700C4003700C3003700AA
:10284000C2003700C1003700C0003700BF003700AA
:10285000BE00370092003700AC003700BD003700E3
:10286000BA003700BB00370080C08000E10F500085
:1028700006003A0010C0B300E11A070000C0EB00E8
:10288000C7210700610407001500370020C0B3000E
:10289000DB1A070080C080005C04070030C0B30072
:1028A000D71A07000000EB00C0E4880008003700DA
:1028B00000C0EB00BA2107005404070000C2B300B7
:1028C000801A0700C0E480000000E800C0E488002F
:1028D00081C08000C0E48000808F5000F4FF3E0083
:1028E000D0C0B300771A0700A0C0B300751A070064
:1028F0009800370040C0B300C11A070070C08000C4
:102900004204070080C08000E10F50000E003A0032
:1029100070C08000A22107009AFCB7009CDCBF00B9
:10292000614060000004E0001A00320000C2B30001
:10293000641A070010C0B300B11A07009ADCBF0088
:10294000320407001300370080BF2A00E818070090
:1029500080C080002D04070050C0B300A81A0700F3
:102960000000EB00C0E488000600370070C0800063
:102970008B2107009AFCB700C0E480000000E8004B
:10298000C0E4880081C08000C0E48000808F5000D7
:10299000F6FF3E00D0C0B3004A1A0700A0C0B30043
:1029A000481A07006B0037000CD8BF00E34F5000F7
:1029B00002003A009C1CA800010037009C1CA900E2
:1029C0000040EB0067220700A0C0B3008C1A07008C
:1029D000600037009C1CA90010C0B30061220700F2
:1029E000B0C0B300861A07005A003700D0C0B30049
:1029F000831A070014220700B6180700D0C0B300DE
:102A0000301A0700A0C0B3002E1A0700510037008B
:102A1000E0C0B3007A1A07005B220700AD18070078
:102A2000D0C0B300271A0700A0C0B300251A0700C2
:102A30004800370080C08000F403070000C1B300E5
:102A40006F1A070080C08000212207004100370074
:102A500010C1B3006A1A070010C0B3003822070083
:102A60003C00370020C1B300651A07000040EB00AE
:102A7000332207003700370030C1B300601A070067
:102A800010C0B300252207003200370040C1B30058
:102A90005B1A07000040EB00202207002D003700E2
:102AA00010C3B300561A07001200200021002000B6
:102AB00010002000FF1607000040E9000AF8B700E8
:102AC000E0C1B3004E1A07001200200021002000D0
:102AD00010002000F71607000040EA006140600087
:102AE000614060004601DD00B18021009140780026
:102AF000F0CBB30000C06000024070000BF8B700DC
:102B00000B58A8000B98A800120037009C1CA900C5
:102B1000A18021009140780030C0B300D720070089
:102B2000C922A900C902A900C8E2A80010C0B300C8
:102B30000C2207000040EB00311A070005003700A7
:102B400070C1B3002E1A07000200370080C1B30025
:102B50002B1A07000080FA00000006000600FA00A9
:102B60000CD8BF000080FB006101B900120798007B
:102B700023079800C0012000010020001E019000E2
:102B8000AE019000800F5100818F5900F3003E008C
:102B90001E009000AE009000006001002A00370087
:102BA0004E0037001A0037001900370022003700A6
:102BB000CD003700E9003700E8003700E7003700B4
:102BC000E6003700E5003700E4003700E300370097
:102BD000E2003700E1003700E0003700DF00370097
:102BE000DE003700DD003700DC003700DB00370097
:102BF000DA003700D9003700D8003700640037000A
:102C0000AD003700B6003700D4003700D5003700DC
:102C10000CD8BF00E34F500002003A00687CA800C7
:102C200001003700687CA900CAC2A900A0C0B30097
:102C3000F3190700CB003700CAC2A800B0C0B30028
:102C4000EF190700C700370080C08000E10F500077
:102C500008003A0010C0B300E919070000C0EB00FB
:102C60002601070062FCB70062DCBF0067030700B3
:102C70001500370020C0B300E119070080C08000B4
:102C80006203070030C0B300DD1907000000EB004D
:102C900000E388000800370000C0EB0017010700C0
:102CA0005A03070000C2B3008619070000E3800042
:102CB0000000E80000E3880081C0800000E380009D
:102CC000808F5000F4FF3E00D0C0B3007D19070094
:102CD000A0C0B3007B190700A200370040C0B300BA
:102CE000C719070070C080004803070080C080003B
:102CF000E10F50000E003A0070C08000FF00070096
:102D000062FCB70068DCBF00684060000004E000BF
:102D10001A00320000C2B3006A19070010C0B300E5
:102D2000B719070062DCBF00380307001300370043
:102D3000607E2A00EE17070080C080003303070082
:102D400050C0B300AE1907000000EB0000E388009C
:102D50000600370070C08000E800070062FCB70082
:102D600000E380000000E80000E3880081C08000EC
:102D700000E38000808F5000F6FF3E00D0C0B3001B
:102D800050190700A0C0B3004E19070075003700A6
:102D9000A07E2A00EC17070012002000410020004E
:102DA00010002000431607000040E9000AF8B700B1
:102DB000E0C2B30092190700120020002100200099
:102DC000100020003B1607000040E9006140600051
:102DD0006141600081C6210091407800E0CFB300DE
:102DE00000C060000240700068FCB700F0C2B30091
:102DF000831907002200200021002000100020007D
:102E00002C1607000040E90061406000614060004E
:102E10000041400081C6210091407800D0CFB3002E
:102E200000C060000240700068FCB70000C3B3003F
:102E3000731907001200200021002000100020005C
:102E40001C1607000040E90061406000614060001E
:102E50004201DD0081C6210091407800B0CFB3006F
:102E600000C060000240700068FCB700E0C1B30021
:102E7000631907001200200021002000100020002C
:102E80000C1607000040EA006140600061406000ED
:102E90004601DD00B180210091407800F0CBB30005
:102EA00000C06000024070000BF8B7000B58A9008A
:102EB0000B98A8002B003700687CA9000AD8BF0037
:102EC0008080FB0080C4210000804000104078001A
:102ED000260007000040EB004919070021003700D9
:102EE000720007001F00370071C08000010F7800DA
:102EF0001E0178000200E000040032009E0178000C
:102F0000E18F51000400320011003700D0822A0006
:102F10008D1707001300370050852A008A17070015
:102F2000120020003100200010002000E1150700F1
:102F30000040E90062FCB70060892A0082170700A0
:102F400062DCBF0011C0B3007A0007000500370043
:102F500070C1B3002A1907000200370080C1B30016
:102F6000271907000080FA00000006000200FA009E
:102F7000004F780041E2A9000BD8BF000044B20026
:102F80000004E00004003200CEE2A800CF02A80056
:102F9000CEC2A80003003700CEE2A900CF02A900EC
:102FA000CEC2A900816A20009140780000CEB30013
:102FB00000C060007040B300A8E6B700916C20002C
:102FC0009140780000CEB30000C060007040B300B4
:102FD000C9E6B700816C20009140780000CEB300B4
:102FE00000C060000034A000C8E6B700CAC2A80054
:102FF000C8C2A900C902A900C8E2A800C922A90044
:103000001E80FB001012880042A2A80068DCBF00EE
:1030100061406000614060004601DD002124200025
:1030200091407800F0CBB30000C060000240700017
:1030300042E2B70068DCBF000080FB000000D10066
:1030400061406000614160003124200091407800BF
:10305000E0CFB30000C060000240700043E2B70060
:1030600068DCBF000080FB004200DE0061406000C1
:103070006140600000414000312420009140780010
:10308000D0CFB30000C060000240700043E2B70040
:103090000000EB00201288000000EB000012880006
:1030A00041E2A8000080FA00000006000000FA00DB
:1030B00041E2A900A8C6BF00F041B300A8E6B700EE
:1030C000916C20009140780000CEB30000C06000F9
:1030D000C9E6B700816C20009140780000CEB300B3
:1030E00000C06000C8E6B700CEE2A900CF02A90088
:1030F000CEC2A9000080FA00000006000200FA001B
:10310000004F78001E80FB004012880085C0BF0081
:10311000644060000004E000FCFF320040128000C8
:10312000004F78008540A9001E80FB000080FA0057
:10313000000006000400FA0020479800314798007C
:103140006A180700D9FF0700600007002E409000B2
:10315000E14F500008003E00CAC2BF000080FB00E3
:103160004600DE0061406000804078002E40900004
:1031700080CF50000A003A0041C2BF0001C8B3002E
:10318000014060000004E0000E003A0041E2A800A7
:1031900061E2A800B0C5B3005B1807000900370062
:1031A00041C2BF0001C8B300014060000004E0005C
:1031B0000400320041E2A90061E2A900D0C5B300D9
:1031C0005118070040C2BF000042B2000004E000F6
:1031D00020003A0060C2BF000042B2000004E000DC
:1031E0001C003A0040128000004F78003E409000E2
:1031F0000004E000030032001E80FB00C01707003F
:1032000004003700C0C5B3003F1807001E40780017
:103210003D18070040138000004F780080C2B300C3
:10322000391807003E4090000004E000030032001F
:103230001E80FB00B217070004003700C0C5B300B2
:10324000311807001E4078002F18070090C2B30005
:103250002D18070040C2BF000044B2000004E00087
:1032600004003A0060C2BF000044B2000004E00065
:103270000200320040C2A90060C2A9003A1807004B
:1032800022C2BF00614060000004E000AFFF3200D6
:1032900030118000004F7800D0C0B300091807003B
:1032A000A0C0B30007180700750007000AD8BF00C8
:1032B0008080FB0080C42100008040001040780026
:1032C0002AFF07000080FA00000006000000FA0054
:1032D000C8C2A800C902A800C8E2A800C922A80064
:1032E000816A20009140780000CEB30000C06000E9
:1032F0009040B300A8E6B700916A200091407800A2
:1033000000CEB30000C060000034A000A9E6B70002
:10331000C16A20009140780000CEB30000C0600078
:103320007040B300ACE6B700D16A2000914078004D
:1033300000CEB30000C060000034A000ADE6B700CE
:103340000AD8BF008080FB0080C4210000804000BC
:10335000104078000080FB001012880068DCBF007D
:1033600061406000614060004601DD0021242000D2
:1033700091407800F0CBB30000C0600002407000C4
:1033800042E2B70068DCBF000080FB000000D10013
:10339000614060006141600031242000914078006C
:1033A000E0CFB30000C060000240700043E2B7000D
:1033B0000000EB00201288000000EB0000128800E3
:1033C0000AD8BF008080FB0080C42100008040003C
:1033D000104078000080FB001013880068DCBF00FC
:1033E00061406000614060004601DD002126200050
:1033F00091407800F0CBB30000C060000240700044
:1034000062E2B70068DCBF000080FB000000D10072
:1034100061406000614160003126200091407800E9
:10342000E0CFB30000C060000240700063E2B7006C
:103430000000EB00201388000000EB000013880060
:103440000000EB00401288000000EB0040138800F1
:103450004322A9006322A9004362A80042A2A90056
:103460006362A80062A2A90040C2A90060C2A900CC
:103470004402A8006402A8000080FA0000000600D0
:103480000000FA0041E2A9004362A90061E2A9003C
:103490006362A900A8C6BF00F041B300A8E6B70068
:1034A000A9C6BF00F041B300A9E6B700ACC6BF0093
:1034B000F041B300ACE6B700ADC6BF00F041B300C9
:1034C000ADE6B7000080FA00000006000000FA0038
:1034D000008D2A00061607000080FA000000060092
:1034E0000400FA0010C0B3000AF8B700681CA90075
:1034F000683CA800685CA9000BD8A8000AD8BF00E7
:103500008080FB00C0C42100008040001040780093
:1035100096FE0700EDFF07000000370022C2BF0043
:10352000614060000004E000FCFF320030118000C8
:1035300065FCB70065DCBF000080FB004400DE00D6
:1035400064FCB70064DCBF000080FB00100798003B
:103550001E009000E30F5000860032001E00900015
:10356000E30F50000A003C001E009000E10F5000E5
:10357000550032001E009000E10F50006F003C002B
:103580001E0090000000E0000B003200C600370073
:103590001E009000E60F50008A0032001E009000CE
:1035A000E80F5000970032001E009000E40F50001A
:1035B0007F003200BC00370065DCBF000080FB00EC
:1035C000000F78001E007800E30F50002200320048
:1035D0001E007800E30F50000A003C001E00780037
:1035E000E10F5000130032001E007800E10F500080
:1035F00012003C001E0078000000E0000B003200CA
:103600002E0037001E007800EE0F50001F00320021
:103610001E007800EF0F5000220032001E007800DC
:10362000ED0F500013003200240037009FFE07000A
:10363000A0003700A5FF0700B8FF37006016800024
:10364000F1FB2F00010060006016880010C0B3007D
:103650001C170700B1FF370060168000010420002E
:10366000010070006016880010C0B3001517070035
:10367000AAFF37008040EB0020C0B300ADFE07007A
:1036800010C0B3000F170700A4FF37008040EB0005
:103690000040EB00A7FE070010C0B30009170700A9
:1036A0009EFF37008040EB0010C0B300A1FE070072
:1036B00010C0B3000317070098FF37000040EB006D
:1036C0000017070095FF370051C621009140780090
:1036D000F0C0B30000C0600065FCB70065DCBF004F
:1036E0000040E80065FCB70010C0B300F516070005
:1036F0000040EB0063FCB7000A00370022C2BF00A5
:10370000614060000004E000FCFF320030118000E6
:103710007AFE0700EB16070063DCBF000040E800FC
:1037200063FCB70031C621009140780065DCBF0022
:1037300080CF5000F1FF390078FF370051C62100DB
:1037400091407800F0C0B30000C0600065FCB70095
:1037500061C621009140780065DCBF0000C07000A8
:1037600066FCB70066DCBF0064FE0700D5160700E4
:103770006AFF370061C6210091407800F0C0B300B5
:1037800000C0600066FCB70065DCBF000080FB0085
:103790004400DD008040780066DCBF0000C070009F
:1037A00066FCB70010C0B300C61607005BFF370009
:1037B00065DCBF009121070010C0B300C1160700EF
:1037C00056FF370051C621009140780070C0B30009
:1037D00000C0600065FCB70065DCBF000AF8B700F8
:1037E0000AD8BF008080FB00C0C4210000804000D8
:1037F00010407800DDFD070010C0B300B1160700CF
:1038000046FF3700681CA900683CA900685CA90055
:103810000BD8A90065DCBF000080FB004200DE0081
:10382000610060000004E00001003200681CA80094
:1038300065DCBF000080FB000000D100610060007B
:103840000004E00001003200683CA80065DCBF0015
:103850000080FB00610060000004E0000100320015
:10386000685CA80065DCBF000080FB004300DE0050
:103870000000A200610060000004E00001003200CE
:103880000BD8A8000AD8BF008080FB00C0C421006C
:103890000080400010407800B4FD070010C0B30065
:1038A000881607001DFF37000040EB008516070053
:1038B0001AFF37000080FA00000006000000FA003E
:1038C0000BD8A9000040EB000AF8B7000B38A9009C
:1038D0000B18A9000B58A9000B78A9000B98A90098
:1038E0000BB8A9000BF8A9000080FA000000060040
:1038F0000000FA00C922A800C902A800C8E2A80076
:10390000C8C2A800C942A800C222A900C022A900BA
:103910000000EB0020C08800E8FF0700CB62A90090
:10392000C962A900C002A900C202A9002D23A900F2
:103930002D43A9002D63A9002D83A9000132200089
:103940009140780000CEB30000C0700020E3B700C3
:103950000000EB008019880020F021002019880069
:103960000000EB00101988000080FA00000006003B
:103970000200FA00004F78001E80FB00401988000A
:103980002023A8002003A90020C3BF0061406000DD
:103990000004E000FCFF3200001880000080FA0004
:1039A000000006000000FA0021E3A800C0C0B30038
:1039B000EFFF07000816070021E3A9000080FA00C6
:1039C000000006000000FA0000D8BF000080FB00E5
:1039D0008000400080C1210000804000100078007D
:1039E000401188000000EB00001188002062A80050
:1039F0000000EB001011880021E2A8002342A8007B
:103A00008560A9000080FA00000006000400FA00AA
:103A1000004F780010C08000100798001E00900032
:103A2000E10F50000D0032001E009000E10F500029
:103A3000070039001E009000E20F50000A0032001B
:103A40001E009000E30F50000A0032000B00370008
:103A50001E80FB0097150700080037001E40780005
:103A600063150700050037001E407800D0140700DA
:103A7000020037001E407800121607000080FA008E
:103A8000000006000600FA00404798000040EB00E6
:103A9000204798000E0037000000EB00000F780070
:103AA00005003700A0CFB3000F0007001E0078000C
:103AB0000000E800000F78001E007800E30F5000BF
:103AC000F8FF36002E4090000040E80020479800A4
:103AD000AE4090004E40900080CF5000EEFF390085
:103AE0000080FA00000006000400FA002047980059
:103AF0000040EB00004F780013003700000000008A
:103B000000000000000000000000000000000000B5
:103B100000000000000000000000000000000000A5
:103B20000000000000000000000000000000000095
:103B30000000000000000000000000001E407800AF
:103B40000040E800004F78009E4078002E40900032
:103B500080CF5000E9FF39000080FA000000060025
:103B60000600FA003ADCBF00E14F500030003A0096
:103B700000C2B300D31507000CD8BF00E34F5000BC
:103B8000060032000CD8BF00E24F500003003200A4
:103B90000CD8BF00E44F50000F003A0070C0B300D3
:103BA00017160700D0C0B300C6150700A0C0B300A9
:103BB000C41507003BDCBF000004E00003003A002E
:103BC00010C0B300B11D07001700370010C0B300CC
:103BD00082010700140037000CD8BF00FC4F5000D2
:103BE00003003A00402E2A005714070062013700F4
:103BF00060C0B30002160700D0C0B300B1150700C3
:103C0000A0C0B300AF1507003BDCBF000004E0001C
:103C100003003A000040EB009C1D07000200370043
:103C20000040EB006D0107000040EB003AFCB700DC
:103C30000CD8BF000080FB006101B900120798009A
:103C400023079800C0012000010020001E01900001
:103C5000AE019000800F5100818F590044013E0059
:103C60001E009000AE009000006001001C003700B4
:103C7000590037008A00370089003700910037006B
:103C8000D50037003A0137003901370038013700D5
:103C9000370137003601370035013700340137006E
:103CA000330137003201370031013700300137006E
:103CB0002F0137002E0137002D0137002C0137006E
:103CC0002B0137002A013700290137008600370011
:103CD000AA003700B9003700250137002601370058
:103CE00080C08000E10F50000D003A0010C0B3000A
:103CF000C31507003BDCBF000004E00003003A00EE
:103D0000211D07003CFCB7000200370050010700EE
:103D10003CFCB7003CDCBF003CFF07002B00370039
:103D200020C0B300B615070080C0800037FF070031
:103D300030C0B300B21507000000EB00F0E18800CE
:103D40001E003700F0E180000000E0000E003200AD
:103D500000C2B3005B15070060C0B300A8150700E0
:103D600000C2B300571507003BDCBF000004E000B1
:103D700003003A000040EB00441D0700020037003A
:103D80000040EB00150107003BDCBF000004E00031
:103D900003003A00FC1C07003CFCB700020037009F
:103DA0002B0107003CFCB7003CDCBF0017FF0700FD
:103DB000F0E180000000E800F0E1880081C08000B0
:103DC000F0E18000808F5000DEFF3E0010C0B300A5
:103DD0003AFCB700E800370040C0B3008815070080
:103DE00070C0800009FF070080C08000E10F500014
:103DF00006003600602F2A00BD13070080C0800037
:103E000002FF070050C0B3007D1507000000EB0063
:103E1000F0E188000F0037003BDCBF000004E00049
:103E200005003A0070C08000A61C0700061D0700B0
:103E30003CFCB7000400370070C08000FA000700A7
:103E4000DF0007003CFCB700F0E180000000E80064
:103E5000F0E1880081C08000F0E18000808F500098
:103E6000EDFF3E0000C2B300161507003CDCBF00AA
:103E70000004E00003003A0060C0B30060150700D2
:103E80000200370070C0B3005D150700D0C0B3005A
:103E90000C150700A0C0B3000A150700B6003700D4
:103EA0003BDCBF000004E00002003A00161C0700E3
:103EB00001003700B200070080C0B30050150700B2
:103EC000AD0037003BDCBF000004E00002003A0018
:103ED000201C070001003700B100070090C0B300AC
:103EE00047150700A40037000BD8A8000B98A800BE
:103EF000A02F2A00941307001200200021002000A8
:103F000010002000EB1107000040E9003BFCB70067
:103F10003BDCBF000004E00009003A0010C3B3001E
:103F2000371507001200200021002000100020009B
:103F3000E01107000040E9000AF8B7008E003700E2
:103F400041C0800030002300808F500002003E00FE
:103F500040322A007C13070070372A007A130700CA
:103F6000120020003100200010002000D1110700B5
:103F70000040E9000AF8B7007F0037003BDCBF00D3
:103F80000004E00009003A00C922A800C902A80004
:103F9000CB02A900CB22A900A1802100914078008A
:103FA00020C0B300B51B070001003700B3000700B5
:103FB0000040EB00121507006F0037000040EB00D7
:103FC0003AFCB7003BDCBF00E14F50006A003A000A
:103FD00007E2A9006800370071C08000010F780077
:103FE0001E017800E10F51000A0032009E017800A6
:103FF000E18F5100040039001E007800E20F5000EC
:104000004B00320057003700F03A2A004E130700E9
:1040100059003700303E2A004B1307000000EB0028
:10402000F0E18800390037003BDCBF000004E0000D
:1040300006003A00B41B0700F0E18000211C0700D5
:10404000811C07003CFCB700050037004C0007004E
:10405000F0E1800074000700590007003CFCB70045
:104060003CDCBF000004E0001F003A00F0E18000EB
:1040700066FE070080C2B30092140700F0E18000E2
:104080000000D10061FE0700F0E180000000A20006
:10409000610060000004E0000300320050432A0089
:1040A000131307000C0037003BDCBF000004E000E6
:1040B00004003A00341C070010C0B300731C070052
:1040C000030037006200070010C0B3004300070080
:1040D00080432A0006130700B0432A000413070098
:1040E00000C2B300771407003BDCBF000004E0000F
:1040F00002003A00971B0700010037002800070064
:10410000F0E180000000E800F0E18800F1E18000CB
:10411000F00F2000808F5000C3FF3600D0C0B300E6
:1041200068140700A0C0B30066140700120037002F
:104130003BDCBF00E14F500001003A0007E2A9005C
:10414000D0432A000013070010C0B3008E00070000
:104150003BDCBF00E14F500007003A00470007007A
:104160000500370070C1B300A51407000200370036
:1041700080C1B300A21407000080FA00000006000E
:104180000000FA000602A80006C2BF0061406000FD
:104190000004E000FCFF3A000080FA000000060086
:1041A0000000FA000642A80006C2BF00644060009A
:1041B0000004E000FCFF3A000080FA000000060066
:1041C0000000FA0009C2BF000080FB004700DE00CB
:1041D0000080FB000080FA00000006000200FA00E8
:1041E000004F78009E40780061C060006140600030
:1041F0004501DD006120200091407800F0CDB30042
:1042000000C060000240700006E2B7000682A8000D
:1042100006C2BF00704060000004E000FCFF3A00EE
:104220000080FA00000006000200FA00004F78004B
:104230001E40780002E2B70009C2BF000044B2008D
:104240000004E000FCFF3A000080FA0000000600D5
:104250000200FA000662A80006C2BF0068406000C3
:104260000004E000FCFF3A0000C2BF00004F7800ED
:104270001E80FB000080FA00000006000000FA002B
:104280000742A9000782A9000000EB005010880037
:104290000000EB00601088000702A9000AD8BF00E8
:1042A0008080FB0080CA2100008040001040780020
:1042B0000080FB002010880007E2A8000080FA00C0
:1042C000000006000000FA00C922A800C902A800E8
:1042D000CB02A900CB22A90062A0A80062C0A8005E
:1042E0008660A900463CA9000040EB0044FCB700F2
:1042F00046DCBF000080FB004200DE00634060003F
:1043000080407800CBC2BF000080FB000000D100DD
:104310006140600000C07000634060006340600066
:104320004201DD0061C421009140780030CFB3002C
:1043300000C060000240700046FCB70046DCBF00D1
:104340000080FB004400DE00634060008040780095
:10435000CBC2BF006140600000C0700063406000DD
:10436000634060004401DD0061C421009140780099
:10437000F0CCB30000C060000240700046FCB70003
:104380000080FA00000006000400FA0020479800B0
:10439000D6130700CBFF070000003700F213070019
:1043A00022C2BF00614060000004E000070032004C
:1043B00030118000004F7800D0C0B300C113070057
:1043C000A0C0B300BF1307009E00370086C0BF0027
:1043D000684060000004E000F0FF32008660A90041
:1043E00046DCBF000080FB004200DE00634060004E
:1043F00080407800CBC2BF000080FB000000D100ED
:104400006140600000C07000634060006340600075
:104410004201DD0061C421009140780030CFB3003B
:1044200000C060000240700046FCB70046DCBF00E0
:104430000080FB004400DE006340600080407800A4
:10444000CBC2BF006140600000C0700063406000EC
:10445000634060004401DD0061C4210091407800A8
:10446000F0CCB30000C060000240700046FCB70012
:1044700046DCBF00624060000004E0003B00320008
:1044800046DCBF000043B200F04F500037003A0056
:1044900044DCBF00E74F500012003E0045DCBF0087
:1044A0000040400045FCB70052C421001241780092
:1044B00046DCBF000080FB004200DE00634060007D
:1044C00080407800D0CFB30000C060000040710091
:1044D00045FCB70044DCBF000040E80044FCB700E6
:1044E0003B003700CBC2BF000080FB000000D100C2
:1044F000614060006141600061C42100914078002A
:10450000E0CFB30000C060000240700046FCB7007E
:104510002E4090000004E0000400320045DCBF00A3
:104520000080FB00F612070004003700C0C5B3008E
:104530007513070045DCBF007313070046DCBF009E
:10454000614060000004E00003003200D0C2B3000C
:104550006D13070002003700B0C2B3006A130700F2
:104560000040EB0044FCB7001900370046DCBF00F8
:1045700002C3B3008240600000C3B30080CF50008C
:1045800013003A0046DCBF006C406000E84F50006A
:1045900006003A00463CA8000040EB0044FCB7008F
:1045A000B0C5B300581307000900370046DCBF0050
:1045B0006C406000E44F500005003A00463CA90002
:1045C0000040EB0044FCB700D0C5B3004E13070019
:1045D00046DCBF000080FB004200DE00634060005C
:1045E0000040400063406000634060004201DD0025
:1045F00061C421009140780030CFB30000C060005A
:104600000240700046FCB70046DCBF000080FB00A3
:104610004400DE00634060000040400063406000F2
:10462000634060004401DD0061C4210091407800D6
:10463000F0CCB30000C060000240700046FCB70040
:1046400056FF37000080FA00000006000000FA0064
:10465000A0472A00A61107000080FA00000006000B
:104660000400FA00C922A800C902A800CB02A900D0
:10467000CB22A900C8C2A9000BD8A8000B78A900BA
:1046800011C0B30020C0B300FC190700EFFF070002
:104690000000370022C2BF00614060000004E0005B
:1046A000FCFF32003011800042FCB70042DCBF004A
:1046B0000080FB004400DE0041FCB70041DCBF008D
:1046C0000080FB00100798001E009000E10F5000D2
:1046D000510032001E009000E10F500004003C0029
:1046E0001E0090000000E000080032007900370052
:1046F0001E009000E40F5000710032001E00900078
:10470000E60F5000620032007200370042DCBF004A
:104710000080FB00000F78001E007800E30F5000BF
:10472000240032001E007800E30F50000A003C0015
:104730001E007800E10F5000180032001E007800C3
:10474000E10F500017003C001E0078000000E00060
:10475000630032002D0037001E007800E60F500085
:104760001B0032001E007800E60F500004003C00E1
:104770001E007800E40F50001200320023003700C2
:104780001E007800E70F5000160032001E0078006F
:10479000EF0F5000180032001C003700ABFF07007D
:1047A000BCFF3700D819070010C0B300C5120700BE
:1047B000B8FF3700E719070010C0B300C1120700A7
:1047C000B4FF3700701A0700BE120700B1FF3700B0
:1047D0000040EB00AD1A070010C0B300B91207008B
:1047E000ACFF370010C0B300A81A070010C0B30018
:1047F000B4120700A7FF37000040EB00E2FE0700FD
:1048000010C0B300AF120700A2FF37000040EB005A
:10481000AC1207009FFF370021C4210091407800AF
:10482000F0C0B30000C0600042FCB70042DCBF0033
:104830000040E80042FCB70010C0B300A11207001E
:104840000040EB0040FCB7000B00370022C2BF0065
:10485000614060000004E000FCFF32003011800085
:10486000181A0700781A07009612070040DCBF00EC
:104870000040E80040FCB70001C4210091407800EE
:1048800042DCBF0080CF5000F0FF390081FF3700CD
:1048900021C421009140780010C0B30000C0600026
:1048A00042FCB70021C421009140780020C0B30031
:1048B0007219070010C0B3008212070075FF37009D
:1048C00042DCBF004D1D070010C0B3007D12070081
:1048D00070FF37000040EB007A1207006DFF3700D1
:1048E0000080FA00000006000600FA000CD8BF00A5
:1048F0000080FB006101B9001207980023079800AF
:10490000C0012000010020001E019000AE019000B7
:10491000800F5100818F590032013E001E0090002F
:10492000AE009000006001004E00370070003700BC
:104930003C0037004100370046003700BC0037001C
:104940008E00370098003700A2003700A80037001B
:10495000AB003700AE003700B1003700210137004F
:10496000200137001F0137001E0137001D013700ED
:104970001C0137001B0137001A01370019013700ED
:1049800018013700170137000400370021003700F5
:10499000160137001301370014013700E0C1B300DE
:1049A00097120700120020002100200010002000B4
:1049B000400F07000040E900614060006141600075
:1049C00021C7210091407800E0CFB30000C0600013
:1049D0000240700072FCB70072DCBF0061406000F2
:1049E00000C0EA0061406000614060004601DD00F7
:1049F000B180210091407800F0CBB30000C060008E
:104A0000024070000BF8B7000B58A8000B98A800E4
:104A1000F6003700860107000040EB00781207001F
:104A2000F2003700F300070020C0B3004301070085
:104A3000C0C32900C4100700EC003700ED000700D8
:104A400030C0B3003D01070060C62900BE1007005A
:104A5000E6003700E7000700E0C82900BA100700A9
:104A6000E200370080C08000E10F500007003A00EC
:104A7000E001070070FCB70010C0B300601207002F
:104A800070DCBF00E1FB07001400370020C0B3005A
:104A90005B12070080C08000DCFB070030C0B30061
:104AA000571207000000EB0070E388000700370092
:104AB000D0010700D5FB070000C2B30001120700B8
:104AC00070E380000000E80070E3880081C080008F
:104AD00070E38000808F5000F5FF3E00D0C0B3002F
:104AE000F8110700A0C0B300F6110700BF0037009F
:104AF00040C0B3004212070070C08000C3FB070033
:104B000080C08000E10F500004003A0070C08000B7
:104B10005201070070FCB70013003700B0C929002C
:104B20007310070080C08000B8FB070050C0B300BE
:104B3000331207000000EB0070E388000600370026
:104B400070C080004501070070FCB70070E3800072
:104B50000000E80070E3880081C0800070E38000FE
:104B6000808F5000F6FF3E00D0C0B300D511070083
:104B7000A0C0B300D31107009C003700E10107007B
:104B800070FCB700D0C0B3001D12070070DCBF007E
:104B900050100700D0C0B300CA110700A0C0B30076
:104BA000C811070091003700E0C0B30014120700DD
:104BB000DE01070070FCB70070DCBF004510070085
:104BC000D0C0B300BF110700A0C0B300BD110700E3
:104BD0008600370080C080008CFB070000C1B30056
:104BE0000712070080C08000F90107007F0037002E
:104BF00010C1B30002120700020207007B00370059
:104C000020C1B300FE11070017020700770037002C
:104C100030C1B300FA110700CB0107007300370061
:104C200040C1B300F6110700E20107006F00370032
:104C300071C08000010F78001E017800E10F510063
:104C40000D0032009E017800E18F5100070039000D
:104C50001E007800E20F50000C0032009E00780029
:104C6000E38F5000550032005B003700F0C9290087
:104C70001F1007005D003700A7000700C0CE290005
:104C8000311007005B00070058003700A0CF290053
:104C90002D100700A0000700C0CE29002A10070031
:104CA000A90107005300070020C0B300A3000700BC
:104CB00000C0EB00C601070000C0EB00C401070004
:104CC0004C00070030C0B3009C0007000000EB0060
:104CD00070E388000700370070E380000000E80000
:104CE00070E3880071E38000900F2000808F5000F7
:104CF00003003E00830107000004E000F6FF3200DD
:104D00003C00070084000700C0CE29000E100700F9
:104D10003800070030C0B3008800070070E380004F
:104D20003AFB0700A0D02900071007000040EB0065
:104D300070FCB7001A00370070DCBF000040E800CC
:104D400032FB070030D22900E90F070029010700D4
:104D50002EFB070000C2B3005A110700250107000F
:104D60002AFB070000C2B30056110700210107000B
:104D700026FB070000C2B300521107001D01070007
:104D800022FB0700D0C0B3004E110700A0C0B30043
:104D90004C11070070DCBF000040E80070FCB70059
:104DA00070DCBF008080FB0070E38000808F5000CB
:104DB000E1FF39000F0007000C00370070D2290016
:104DC000E10F0700A0D62900DF0F0700F0D9290066
:104DD000DD0F07000500370070C1B3008811070020
:104DE0000200370080C1B300851107000080FA007F
:104DF000000006000200FA00A0DC2900BC0F07003A
:104E00006ADCBF000080FB00000F78001E00780005
:104E1000E10F50000E0032001E007800E10F50003C
:104E200004003C001E0078000000E0000B0032008F
:104E3000350037001E007800E20F50000F003200EE
:104E40001E007800E30F5000240032002E003700CF
:104E500030DD2900BC0F07002D003700A40107003A
:104E600010C0B3005A01070010C0B3006AFCB700BD
:104E700000DE2900B40F0700250037006BDCBF00FF
:104E8000E14F50000A003A006CDCBF00E14F5000D7
:104E900002003A002C01070001003700450107001D
:104EA0000040EB006BFCB700C0DE2900900F07004C
:104EB0007401070020C0B300450107008C01070002
:104EC00010C0B3004201070010C0B3006AFCB70075
:104ED00010E029009C0F07000D0037006901070052
:104EE00020C0B3003A0107008101070010C0B300E1
:104EF0003701070010C0B3006AFCB700A0E029002A
:104F0000910F07000200370030E129008E0F0700E3
:104F10000080FA00000006000000FA0059010700B6
:104F2000A0C0B3002A010700710107000040EB0098
:104F30006AFCB7000080FA00000006000400FA00D6
:104F4000004F78006ADCBF00E14F500002003200E1
:104F500010E229007C0F0700A0DC2900640F070085
:104F60001E80FB00100798001E009000E10F50000B
:104F70000E0032001E009000E10F500004003C00C3
:104F80001E0090000000E0000B00320024003700FB
:104F90001E009000E20F5000160032001E0090002C
:104FA000E30F5000080032001D00370030DD2900FB
:104FB000650F07001C003700D7FF0700D0E329006A
:104FC000610F0700180037002E01070010C0B30062
:104FD000FF0007004601070020C0B300FC000700E7
:104FE00030C0B3006AFCB70030E42900560F070058
:104FF0000D0037002301070020C0B300F4000700B4
:105000003B01070020C0B300F100070020C0B3003F
:105010006AFCB70070E529004B0F0700020037005B
:10502000C0E82900480F07000080FA0000000600D1
:105030000000FA00C8E2A800C902A900C922A9001C
:10504000C8C2A900CAE2A900CB02A900CB22A900CC
:10505000CAC2A9000080FA00000006000800FA0099
:1050600040479800000107006BDCBF00E14F500093
:1050700006003A006CDCBF00910007000040EB0026
:105080006BFCB70060EA29002F0F07000BD8BF00A8
:10509000684060000004E0000300320010C0B3006C
:1050A000004F78000200370000C8B300004F7800BE
:1050B0000040EB0030479800450037004E4090001C
:1050C0001E4060000004E00002003A00B900070042
:1050D000010037009C000700CA000700CAC2BF00D9
:1050E0000080FB004700DE00204798000BD8BF007F
:1050F000684060000004E000100032004E40900064
:105100000080FB000000D100404798001E40900046
:105110000080FB000000D100104798002E40900056
:10512000E14F500011003A001E40900001C8B3004A
:1051300001404000104798000C0037004E4090009E
:1051400000404000404798001E4090000040400052
:10515000104798002E409000E14F500003003A00A5
:105160001E4090000040E80010479800BE00070075
:105170006ADCBF00E24F500012003A003E4090004F
:10518000E64F50000F003A0010C0B3006BFCB700B0
:105190004E4090001E4060000004E00003003A0012
:1051A0000040EB006CFCB7000200370010C0B300F9
:1051B0006CFCB7001E4090000080FB003007980098
:1051C000090037003E4090000040E800304798005A
:1051D0003E409000E74F5000B8FF36001E40900060
:1051E0000080FB00300798003E0090000080FA002D
:1051F000000006000400FA009B0007006BDCBF0003
:10520000E14F500006003A006CDCBF002C000700A4
:105210000040EB006BFCB70060EA2900CA0E0700F3
:105220000040EB00204798001F0037007500070082
:10523000CAC2BF000080FB004700DE001047980094
:105240000BD8BF00684060000004E00008003A008E
:105250001E40780000404000004F78001E40900043
:105260000004E0000C0032001E4FE8000A00370086
:105270001E80FB000000D100004F78001E4090000F
:105280000004E000040032001E40780001C8B300B2
:1052900001404000004F7800730007002E4090004E
:1052A0000040E800204798002E409000E74F500053
:1052B000DEFF36001E80FB000080FA0000000600C2
:1052C0000400FA00204798002E4090000004E000FF
:1052D00002003A0037000700010037001A000700FB
:1052E00048000700CAC2BF000080FB004700DE0084
:1052F000004F78005C0007001E80FB000080FA0071
:10530000000006000200FA003E000700CAC2BF000B
:105310000080FB004700DE00004F780052000700CD
:105320001E80FB000080FA00000006000000FA006A
:10533000CAC2BF000080FB004700DE000080FB0007
:105340000080FA00000006000000FA0072DCBF00D6
:105350006140600000C0EA006140600061406000A0
:1053600000414000912C200091407800D0CFB30044
:1053700000C0600002407000C9E2B70072DCBF00EC
:10538000614060006140600000414000B12C20009D
:1053900091407800D0CFB30000C0600002407000A0
:1053A000CBE2B70040C1B300CFF907000080FA009C
:1053B000000006000000FA00CB22A900C922A900C3
:1053C00040C1B300C8F907000080FA0000000600E1
:1053D0000400FA00204798000040EB00004F7800DE
:1053E00003003700070007001F0007001E4FE800FA
:1053F0002E4090009E4F1000FAFF39000080FA0006
:10540000000006000000FA0072DCBF00614060008E
:1054100000C0EA006140600061416000912C200002
:1054200091407800E0CFB30000C0600002407000FF
:10543000C9E2B70072DCBF006140600061416000FA
:10544000B12C200091407800E0CFB30000C0600094
:1054500002407000CBE2B70040C6B300A2F90700DB
:105460000080FA00000006000000FA00CB02A9004C
:10547000C902A90040C6B3009BF907000080FA00EA
:10548000000006000000FA0072DCBF00614060000E
:1054900000C0EA0061406000614060004601DD003C
:1054A000812C200091407800F0CBB30000C0600058
:1054B00002407000C8E2B70072DCBF0061406000CB
:1054C000614060004601DD00A12C20009140780081
:1054D000F0CBB30000C0600002407000CAE2B70029
:1054E00040C1B30080F907000080FA000000060008
:1054F0000000FA00CAC2A900C8C2A90040C1B30096
:1055000079F907000080FA00000006000200FA00A6
:10551000F0C2B300104798000040EB00004F780045
:10552000C922A800CB22A900C922A9000500370082
:10553000A0C0B3006CF907001E4090000040E900D5
:10554000104798001E4090000004E000F8FF3C0067
:10555000C922A800C0C3B30063F90700CBC2BF00D3
:105560000080FB000000D10061406000ACFCB7008F
:1055700090C2B3001047980005003700A0C0B300E8
:1055800059F907001E4090000040E90010479800BC
:105590001E4090000004E000F8FF3C00CBC2BF00BA
:1055A0000080FB000000D10061406000ADFCB7004E
:1055B000ADDCBF000004E00002003A0010C0B30000
:1055C000004F7800ACDCBF00E14F500003003A0010
:1055D0001E40780000C0E800004F7800A0C0B30073
:1055E00041F907001E80FB000080FA000000060061
:1055F0000400FA002047980080C0B300004F7800F4
:105600001D0037002E40900061406000AEFCB700E6
:10561000CB22A900C922A90050C0B30032F907006B
:10562000AEDCBF00614060006140600000414000AE
:10563000912C200091407800D0CFB30000C06000D2
:1056400002407000C9E2B70020C3B30026F907008A
:1056500050C0B30024F90700C922A800A0C0B300BD
:1056600021F907002E4090000080FB000000D100CF
:10567000204798001E4FE9001E04E000E1FF3C00B7
:10568000A0C0B30018F907000080FA00000006006F
:105690000200FA00004F7800CB22A900C922A9001D
:1056A00050C0B30010F907009E40780061C0600050
:1056B0006140600000414000912C20009140780042
:1056C000D0CFB30000C0600002407000C9E2B70054
:1056D00020C3B30004F9070050C0B30002F907006B
:1056E000C922A800A0C0B300FFF807000080FA009C
:1056F000000006000200FA0080C0B30010479800C6
:105700000040EB00004F78001D003700CB22A900BD
:10571000C922A90030C0B300F3F80700C922A800CD
:1057200050C0B300F0F80700CBC2BF000080FB0000
:105730000000D10061406000AEFCB70040C3B30080
:10574000E9F807001E80FB000000D100004F780040
:10575000AEDCBF00E14F500004003A001E4078006C
:1057600001C8B30001404000004F7800A0C0B30062
:10577000DDF807001E4090000040E9001047980047
:105780001E4090000004E000E0FF3C00A0C0B30019
:10579000D5F807001E80FB000080FA00000006001C
:1057A0000000FA00CB22A900C922A90030C0B30032
:1057B000CDF80700C922A80050C0B300CAF80700FE
:1057C000CBC2BF000080FB000000D1006140600040
:1057D000AEFCB70040C3B300C3F80700A0C0B300DD
:1057E000C1F80700AEDCBF000080FB000080FA00BB
:1057F000000006000800FA00200798003107980012
:105800000040EB00004F78000000EB00100798000C
:105810000C0037001E009000800078002E009000E1
:1058200000804000104078001E4068008080FB002F
:10583000606E2A00614F78001E0090000000E800B2
:10584000100798009E0090003E009000808F50004E
:10585000F0FF35001E80FB000080FA00000006000B
:105860000600FA00881F78000CD8BF000080FB00FB
:105870006101B9001207980023079800C0012000B9
:10588000010020001E019000AE019000800F510029
:10589000818F5900C3013E001E009000AE009000B1
:1058A000006001001C003700400037006000370036
:1058B0005F003700BB0137009F0037005E003700F4
:1058C000B801370065003700B6013700B501370071
:1058D0007700370076003700B2013700B10137009A
:1058E000B0013700AF013700AE013700AD0137001E
:1058F000AC013700AB013700AA013700A90137001E
:10590000A80137007D00370080003700A70137006D
:10591000A4013700A501370080C08000E10F5000CE
:1059200007003A0010C0B300B50E070071FF070072
:1059300063FBB70063DBBF0034F8070016003700D5
:1059400020C0B300AE0E070080C080002FF8070013
:1059500030C0B300AA0E07000000EB0000DB880097
:105960000900370063FF070063FBB70063DBBF007C
:1059700026F8070000C2B300520E070000DB8000CB
:105980000000E80000DB880081C0800000DB8000B0
:10599000808F5000F3FF3E00D0C0B300490E0700D7
:1059A000A0C0B300470E07008001370040C0B3001D
:1059B000930E070070C0800014F8070080C08000BC
:1059C000E10F500003003A0070C0800008FF07009C
:1059D00012003700A08A2900C50C070080C0800093
:1059E0000AF8070050C0B300850E07000000EB0066
:1059F00000DB88000500370070C08000FCFE070057
:105A000000DB80000000E80000DB880081C080002F
:105A100000DB8000808F5000F7FF3E00D0C0B30055
:105A2000280E0700A0C0B300260E07005F01370054
:105A3000610107005D01370059FF070063FBB700F4
:105A4000D0C0B3006E0E070063DBBF00A10C0700DF
:105A5000F0C0B3006A0E07005401370080C0800018
:105A6000EAF70700E08A2900A10C07000000EB001C
:105A700000DB88000500370056DBBF0004FF07008D
:105A800000DB80000000E80000DB880081C08000AF
:105A900000DB8000808F5000F7FF3E0056DBBF0028
:105AA0008C0C0700F08B2900A70C07003F01370082
:105AB000108C29008E0C07000CD8BF00EC4F500052
:105AC00005003A000040EB0056FBB7000040EB0039
:105AD000800C07000400370010C0B30056FBB7006D
:105AE00010C0B3007B0C0700E08C2900960C070067
:105AF00056DBBF00E6FE07002C0137000B58A9005B
:105B00000B98A8000BD8A800280137000040EB0034
:105B100068FBB700C922A800CB22A900908F2900FA
:105B2000890C0700A0922900870C07000040EB00B9
:105B3000330E07001D01370070C080000000E00038
:105B40003600320071C0800020032000808F50009A
:105B500032003E0070C080000000E90070C0880084
:105B600071C0800068DBBF000080FB00808F5000A8
:105B70000300390040952900730C07000B01370022
:105B8000709929005A0C070070C080000040E8009E
:105B9000170D0700709A2900550C07000040EB0014
:105BA00062FBB7001700370072C0800062DBBF00E5
:105BB0008080FB004310DD008100400090B6210092
:105BC000008040001040780090F7070000C2B3004A
:105BD000BC0D070072C0800062DBBF008080FB004C
:105BE0004310DD008100400090B62100008040009D
:105BF000104078007EFE070062DBBF000040E80036
:105C000062FBB70062DBBF00E74F5000E6FF3600E3
:105C1000A09A29004C0C0700E400370071C08000F6
:105C2000010F7800500520001E017800800F510000
:105C3000CD003200500520009E017800808F510079
:105C400008003E001E0078000000E0001200320054
:105C5000300320009E007800808F5000A0003200AA
:105C6000CD003700C00E20001E017800800F5100CB
:105C700046003200000F20009E017800808F510006
:105C800042003200C00C20009E007800808F50003F
:105C9000BB003200C0003700C09A29002A0C070060
:105CA000009C2900280C070068DBBF000004E0000E
:105CB00003003A0040952900230C0700300037000C
:105CC0000040EB0063FBB7002800370000C2B300C0
:105CD0007C0D070063DBBF000040E800C40C070038
:105CE000A09D2900020C07000040EB0062FBB700FA
:105CF0000F00370063DBBF000081FB0062DBBF00E9
:105D00008080FB004310DD008100400090B6210040
:105D100000804000104078003CF7070000C2B3004C
:105D2000680D070062DBBF000040E80062FBB700BF
:105D300062DBBF00E74F5000EEFF3600C09D290038
:105D4000EB0B070063DBBF000080FB00C300DD003E
:105D500090B621000080400010407800B700070096
:105D600063DBBF000040E80063FBB70081B62100A1
:105D70009140780063DBBF0080CF5000D3FF3E002E
:105D8000309E2900F00B07008800370070C08000AB
:105D9000A2F9B70071C08000C00E2000808F5000B3
:105DA00003003A0080AD2900E70B0700020037002E
:105DB000C0AE2900E40B0700009C2900E20B07009D
:105DC0000040EB0062FBB700CB00070063FBB700AD
:105DD0000040EB0068FBB7003B00370000C2B30097
:105DE000380D070062DBBF000040E800800C0700B0
:105DF000A09D2900BE0B07000000EB0000DB88001F
:105E00000A00370001DB800090BB210000804000C9
:105E100010407800FDF6070000C2B300290D07000E
:105E200000DB80000000E80000DB880000DB800071
:105E3000E70F5000F3FF3600C09D2900AC0B0700B0
:105E4000B9DBBF007D00070062DBBF00E94F5000F7
:105E500018003E000000EB0000DB88000F00370058
:105E600068DBBF008081FB0004DB800001DB800079
:105E700090BB210000804000104178004318DD00F5
:105E80008400400090B62100008040000248780065
:105E900000DB80000000E80000DB880000DB800001
:105EA000E70F5000EEFF360068DBBF000040E8005F
:105EB00068FBB70062DBBF000040E80062FBB70090
:105EC0009800070063FBB70063DBBF000004E0003D
:105ED000C2FF3A00A0AF29009B0B07003300370038
:105EE0003500070020B22900810B070030C3B30042
:105EF000BFFD07000000EB0000DB8800100037004A
:105F000008DB8000FBFD07008040780070B52100B1
:105F1000000044000148780001DB800070B52100DA
:105F20000080400010407800B8F6070000C2B300BF
:105F3000E40C070000DB80000000E80000DB8800C4
:105F400000DB8000E70F5000EDFF3600D0C0B3004B
:105F5000DC0C0700A0C0B300DA0C070057DBBF0061
:105F600036000700110037001300070040B3290076
:105F7000750B070050C5B3009DFD07000B003700EF
:105F80000D00070050B429006F0B0700C0CCB30010
:105F900097FD07000500370070C1B300180D07001A
:105FA0000200370080C1B300150D07004F047800D0
:105FB0000080FA00000006000200FA0053FD07000E
:105FC000004F780050B52900490B07001E04E0007F
:105FD00003003A0000B629005B0B070015003700EC
:105FE00030B62900420B07001E80FB0061006000F4
:105FF0000004E00002003200C0B629003C0B07009C
:106000001E80FB000000D100610060000004E00081
:106010000200320020B92900350B0700F0BA290030
:10602000330B07001E40780078F60700F08B29003C
:10603000450B07000080FA00000006000400FA008B
:10604000004F78001E80FB001007980020022000FF
:106050009E009000808F50001A0032002002200025
:106060009E009000808F500007003C001E009000B2
:10607000E40F5000160032009E009000F08F500098
:106080000A00320018003700800220009E009000B5
:10609000808F500008003200D00220009E00900047
:1060A000808F50000D0032000F00370010BB290018
:1060B000250B07000E003700D0BC2900220B07007B
:1060C0000B00370080BE29001F0B070008003700B7
:1060D000E0BF29001C0B07000500370070C1290034
:1060E000190B07000200370080C22900160B0700B9
:1060F0000080FA00000006000000FA000040EB00FB
:10610000C1FBB7000040EB00C3FBB7000040EB0051
:10611000C2FBB700080007000080FB000080FA0007
:10612000000006000000FA00030007000080FB00EA
:106130000080FA00000006000A00FA0010C0B30058
:10614000704798000040EB00604798000040EB006B
:106150005047980010C0B300104798000040EB0073
:10616000404798000040EB00C4FBB700C3DBBF0012
:106170000004E0008B003A00E4FC07000004E000AB
:10618000090032000040EB00C1FBB7000040EB000B
:10619000C3FBB7000040EB00C2FBB7000000EB0000
:1061A0004007980090003700A2D9BF0010FD0700FB
:1061B0007BFD07003047980079FD070020479800D5
:1061C0003E409000E14F500003003A002E40900006
:1061D000E14F500063003200BE4090002E4090001E
:1061E00080CF5000030032003E409000004F780006
:1061F0002400370011BC2100914078007E409000BF
:10620000814F50000E0031005E4090008080FB0006
:1062100090BB210000804000904078001E4090001C
:1062200080C060000040EB00004F78000104E000F7
:106230000B00320010C0B300004F78000800370098
:10624000C1DBBF008040EB00014F7800FE409000B2
:1062500080CF500002003A0010C0B300004F780019
:106260001E04E00007003A007E409000604798005E
:106270006E409000E84F500002003E006E409000DB
:10628000C2FBB70010C0B3009E4F10000D003A00D3
:106290005E4090000081FB005E4090008080FB002B
:1062A00090BB210000804000904078001E4090008C
:1062B00080C0700090BB21000000410001487800C0
:1062C0000F0037005E4090000081FB005E409000B0
:1062D0008080FB0090BB21000080400010407800CF
:1062E000804078001E40900000C0EA0000C06000BE
:1062F0008040780090BB21000000410001487800F8
:106300001E407800E2FC07007E4090000040E8005C
:10631000704798001E4090000040400010479800D1
:106320001E4090000004E0000B003A005E40900028
:106330008080FB0090BB210000804000104078006E
:10634000840007005E4090000040E800504798003D
:1063500010C0B300104798005E409000E74F500017
:1063600093FF3600FE40900000C4B30080CF500081
:106370000C003600C4DBBF000004E00009003A0056
:106380006E409000C1FBB700C1DBBF000004E0001D
:1063900002003A0010C0B300C3FBB70010C0B30046
:1063A000404798004E4090000004E0000300320097
:1063B000B9DBBF000004E00008003A000040EB0039
:1063C000C1FBB7000040EB00C3FBB7000040EB008F
:1063D000C2FBB7000040EB00404798004E409000E1
:1063E0000080FB00400798004E0090000080FA00FB
:1063F000000006000E00FA000040EB004047980045
:106400000C0037004E4090000081FB004E40900091
:106410008080FB0090BB210000804000904078000D
:1064200065004700017178004E4090000040E80090
:10643000404798004E409000E74F5000F1FF360073
:10644000C1DBBF0020479800C3DBBF0010479800A6
:10645000C2DBBF00004F780000C4B300C1FBB7002F
:106460000040EB00C3FBB70033FF07000004E0006F
:106470001A00320010C0B300304798000040EB0013
:1064800040479800110037004E4090008080FB008C
:1064900065004700614178004E4090008080FB001D
:1064A00090BB21000080400010407800804F5100D8
:1064B000030032000040EB0030479800090037002D
:1064C0004E4090000040E800404798004E40900049
:1064D000E74F5000ECFF3600020037000040EB00B1
:1064E000304798000040EB00404798000C00370010
:1064F0004E4090000081FB004E4090008080FB00E9
:1065000065004700E140780090BB21000000410099
:10651000014878004E4090000040E8004047980055
:106520004E409000E74F5000F1FF36002E409000A3
:10653000C1FBB7001E409000C3FBB7001E407800AF
:10654000C2FBB7003E4090000080FB000080FA00D4
:10655000000006000200FA00004F7800C4DBBF0014
:106560001E4068008080FB00309A210000804000BF
:1065700010407800C4FBB700C4DBBF000080FB0004
:106580000080FA00000006000000FA0070C3290035
:10659000D70907000080FA00000006000400FA0096
:1065A000C922A800CB22A900C8C2A9000BD8A80004
:1065B0000B78A900F4FF07000000370022C2BF00DB
:1065C000614060000004E000FCFF320030118000F8
:1065D00067FBB70067DBBF000080FB004400DE0004
:1065E00066FBB70066DBBF000080FB001007980069
:1065F0001E009000E10F50005B0032009E009000F2
:10660000E48F5000760032001E0090000000E00091
:10661000010032007700370067DBBF000080FB001D
:10662000000F78009E007800E28F500017003200C3
:106630001E007800E20F500007003C009E0078002A
:106640000100E0006E0032001E007800E10F5000F3
:106650000C003200410037009E007800E48F5000AB
:106660000E0032001E007800E40F50003B003500A1
:106670009E00780068805000E10F500037003E0017
:1066800009003700C0FF0700CCFF37004AFE0700B3
:1066900010C0B3000B0B0700C8FF370015FC070044
:1066A000080B0700C5FF370010C0B300050B07003B
:1066B00067DBBF00E94F500003003A00C0CEB300D3
:1066C000A2F9B7000200370000CFB300A2F9B7006B
:1066D00089FE070064FBB700110037000040EB00A3
:1066E00065FBB7000900370065DBBF008080FB0059
:1066F00090BB21000080400010407800F10A0700A4
:1067000065DBBF000040E80065FBB70065DBBF004C
:10671000E74F5000F4FF360082FE070064FBB7002D
:1067200064DBBF000004E000ECFF3A000040EB0037
:1067300065FBB7000500370000C0EB00E10A070069
:1067400065DBBF000040E80065FBB70065DBBF000C
:10675000E74F5000F8FF360098FF37000040EB008D
:10676000D80A070095FF370071B6210091407800E4
:10677000F0C0B30000C0600067FBB70067DBBF007C
:106780000040E80067FBB70010C0B300CD0A070067
:106790000040EB0065FBB7000B00370022C2BF00D2
:1067A000614060000004E000FCFF32003011800016
:1067B0008FFB070010C0B300C20A070065DBBF00F3
:1067C0000040E80065FBB70051B621009140780019
:1067D00067DBBF0080CF5000F0FF390077FF370044
:1067E00067DBBF008515070010C0B300B50A0700BE
:1067F00072FF37000040EB00B20A07006FFF37005E
:106800000080FA00000006000400FA000CD8BF0067
:106810000080FB00100798001E009000F80F500049
:10682000170032001E009000F80F50000A003C00D4
:106830001E009000E10F5000380032001E00900052
:10684000E50F50004F0032001E0090000000E000F5
:10685000110032006E0037001E009000FA0F500049
:106860006D0032001E009000FA0F50000600350047
:106870001E009000FC0F50006700320064003700DB
:106880000BD8A800640037009D0007000040EB0013
:10689000DB0A07006000370080C08000E10F500075
:1068A00005003A0010C0B300D50A07002E0107000A
:1068B0005B0007001400370020C0B300D00A0700B7
:1068C00080C0800051F4070030C0B300CC0A07003C
:1068D0000000EB0040E488000700370022010700B9
:1068E0004F00070000C2B300760A070040E48000B2
:1068F0000000E80040E4880081C0800040E480009F
:10690000808F5000F5FF3E00D0C0B3006D0A070035
:10691000A0C0B3006B0A07003F00370040C0B300BF
:10692000B70A070070C0800038F4070070C080000C
:106930004B0107008AFCB7008ADCBF000004E000BE
:1069400003003A0060C0B300AD0A0700080037003A
:106950008ADCBF00E14F500003003A0070C0B30072
:10696000A70A070002003700608D2A00E008070030
:10697000D0C0B300530A0700A0C0B300510A0700FB
:106980002500370070C08000000F78001E007800DE
:106990000000E000040032001E007800E10F50000B
:1069A0000400320017003700308E2A00E608070086
:1069B0001900370040912A00E3080700EA000700A9
:1069C0000004E00004003A008DDCBF000FF4070073
:1069D00000C2B3003B0A070022C2BF006140600052
:1069E0000004E000F5FF3200301180008AFCB7009F
:1069F000D0C0B300330A0700A0C0B300310A0700BB
:106A00000500370070C1B3007D0A0700020037009F
:106A100080C1B3007A0A07000080FA000000060077
:106A20000400FA00004F78001E80FB001007980059
:106A30009E009000E28F50001D0032001E0090006A
:106A4000E20F500007003C009E0090000100E000B3
:106A50000F0032001E009000E10F500011003200C4
:106A6000230037009E009000E48F50001A0032008F
:106A70001E009000E40F500012003500F00F2000BF
:106A80009E009000808F50001600320018003700E2
:106A90008DDCBF00DDF3070000C2B300090A070068
:106AA00015003700F0942A00910807001200370003
:106AB0008DDCBF00D5F3070080962A008C08070004
:106AC0000D0037008DDCBF00D0F3070020982A00AE
:106AD0008708070008003700608D2A008408070037
:106AE00005003700A0992A0081080700020037003E
:106AF000909A2A007E0807000080FA000000060035
:106B00000000FA00C922A800C902A900CB02A9000E
:106B1000CB22A9000080FA00000006000400FA0061
:106B20000040EB002E0107000004E00003003200EB
:106B300020002000100798000E003700CBC2BF00D5
:106B40000080FB000000D10061406000004F780031
:106B500010C0B300220107000004E000030032006F
:106B60002000200010079800020037001E80FB0064
:106B7000100798001E0090000080FA000000060038
:106B80000600FA000040EB00204798000040EB00B0
:106B900010479800CBC2BF000080FB000000D1006E
:106BA0006140600061416000C1C8210091407800EF
:106BB000E0CFB30000C06000024070008CFCB70062
:106BC0008CDCBF00614060000004E0000300320084
:106BD00010002000200798006000370010C0B300AC
:106BE000FF0007000004E000030032004100200025
:106BF00021079800590037000040EB00304798000B
:106C0000190037001E4090000080FB000000D100FA
:106C100010479800C1FF0700004F780020C0B30064
:106C20009E4F100003003A00410020002107980009
:106C30004A00370010C0B3009E4F100007003A0012
:106C40009E40900000C8B30000C04000104798006C
:106C50002E4090000004A200204798003E40900083
:106C60000040E800304798003E409000E74F500059
:106C7000E4FF36001E4090008DFCB700A7FF070020
:106C8000004F780021C0B3009ECF100003003A00EF
:106C90004000200020079800300037009E40780018
:106CA00061C0600061416000E1C82100914078004E
:106CB000E0CFB30000C06000024070008EFCB7005F
:106CC0008EDCBF0061406000804078002E40900064
:106CD00080CF500004003A008E5CA8002000200005
:106CE000200798001D0037008E5CA9008BFF07006D
:106CF000004F780021C0B3009ECF100003003A007F
:106D00004000200020079800140037009E407800C3
:106D100061C060006140600000414000E1C82100A6
:106D200091407800D0CFB30000C0600002407000F6
:106D30008EFCB700C902A9008EDCBF006240600073
:106D40000004E00003003A00300020002007980013
:106D5000020037008000EB00210798002E00900011
:106D60000080FA00000006000200FA0000C0EB00FC
:106D7000004F7800C922A800C902A8000040EB001B
:106D80001047980010003700CBC2BF006140600080
:106D90000004E00007003A0079FF0700004F780088
:106DA0001E04E0000B00320040C0B3009E4F1000F4
:106DB0000800320050C0B3004BF307001E409000A3
:106DC0000040E800104798001E409000E14F40004E
:106DD000EDFF3A00C902A9001E80FB000080FA0006
:106DE000000006000400FA00004F780010C0B30055
:106DF0007B0007000004E0000300320020002000B8
:106E000010079800130037009E40780061C06000B2
:106E10006140600000414000912C200091407800CA
:106E2000D0CFB30000C0600002407000C9E2B700DC
:106E30000040EB006A0007000004E000030032009D
:106E40002000200010079800020037008000EB00AF
:106E5000110798001E0090000080FA000000060054
:106E60000800FA00404798000040EB0020479800D7
:106E7000C902A900CB02A900C0C3B3001AF30700DE
:106E8000CB22A900C922A900C902A80010C0B300E2
:106E900015F307000040EB00510007000004E0007C
:106EA00003003200400020003007980049003700FE
:106EB0000000EB00000F78001C0037004E409000EF
:106EC0000080FB00610060000004E0000B00320065
:106ED00010C0B300C3FF07000004E000030032004D
:106EE00040002000300798003A0037002E40900004
:106EF0000004A20020479800070037000040EB0084
:106F0000B8FF07000004E00003003200400020004A
:106F1000300798002F0037004E4090000080FB00A3
:106F20000000D100404798001E0FE80070002000CC
:106F30009E0F1000E1FF36002E4090000004A200DA
:106F4000204798002E409000A6FF07000004E000B4
:106F50000300320040002000300798001D00370079
:106F6000C922A800CB22A90010C0B3001C00070052
:106F70000004E000030032004000200030079800C9
:106F800014003700E5FE0700E24F500003003A000E
:106F900040002000300798000E003700DFFE070099
:106FA0000080FB00000F7800200020009E0F1000E2
:106FB00003003A0040002000300798000500370029
:106FC000C902A900CB02A9001E0078000080FB00C6
:106FD000300798003E0090000080FA000000060094
:106FE0000600FA00204798000080EB00000F7800B0
:106FF000CBC2BF0061406000804078002E4090000E
:1070000080CF500003003A000000EB0020079800FA
:10701000050037001E0FE9001E00E000F4FF3A00F3
:1070200010002000200798002E0090000080FA0039
:10703000000006001400FA00881F78000000EB0032
:10704000800888000000EB00F00888000000EB00DA
:10705000E00C8800A0E38000E20F50000A003A0034
:10706000A16C20009140780000CEB30000C0600009
:10707000CAE6B700605C2A00330707000000EB0097
:10708000A0E3880082003700705D2A002E07070009
