:020000040000FA
:10000000040C0400000000001068000010680000EC
:100010001068000010680000106800001068000000
:1000200010680000106800001068000010680000F0
:1000300010680000106800001068000010680000E0
:1000400010680000106800001068000010680000D0
:1000500010680000106800001068000010680000C0
:1000600010680000106800001068000010680000B0
:1000700010680000106800001068000010680000A0
:100080001068000010680000106800001068000090
:100090001068000010680000106800001068000080
:1000A0001068000010680000106800001068000070
:1000B0001068000010680000106800001068000060
:1000C0001068000010680000106800001068000050
:1000D0001068000010680000106800001068000040
:1000E0001068000010680000106800001068000030
:1000F0001068000010680000106800001068000020
:10010000106800001068000010680000106800000F
:1001100010680000106800001068000010680000FF
:1001200010680000106800001068000010680000EF
:1001300010680000106800001068000010680000DF
:1001400010680000106800001068000010680000CF
:1001500010680000106800001068000010680000BF
:1001600010680000106800001068000010680000AF
:10017000106800001068000010680000106800009F
:10018000106800001068000010680000106800008F
:10019000106800001068000010680000106800007F
:1001A000106800001068000010680000106800006F
:1001B000106800001068000010680000106800005F
:1001C000106800001068000010680000106800004F
:1001D000106800001068000010680000106800003F
:1001E000106800001068000010680000106800002F
:1001F000106800001068000010680000106800001F
:10020000FFFFFF00FFFFFF00106800001068000004
:1002100010680000106800001068000010680000FE
:1002200010680000106800001068000010680000EE
:1002300010680000106800001068000010680000DE
:1002400010680000106800001068000010680000CE
:10180000040C000000000000CFCB2100007F22006C
:1018100000018800000000000C000700404F260077
:101820000100200011000700000020000000E0007F
:10183000020032000000020000000000D00F020091
:10184000000000000040DA000000FE004440A90053
:1018500000E121000000E000030032001000200041
:10186000A00188004440A800000006009101880003
:10187000800078000000EB0015003700E280400097
:1018800032A0B4009101BA00E280400032A0B4005E
:101890009102BA00E280400032A0B4000002EB00E6
:1018A000472BDE00F507B200602CE10004003A008F
:1018B0000059EB008301E900FDFF3E000400370002
:1018C0006128E100010032000082EB000400070003
:1018D0001101BA000200E000E8FF3A000000060033
:1018E0003159BA008301E9000C0032002159BA00D5
:1018F0008301E900080032000400E00003003A0020
:10190000E280400032A0B400F5FF370011D9BA00E0
:101910008301E900FAFF3A008100E800E18040001D
:1019200032A0B40000000600889FBE008A9FBE005F
:10193000010578000100E0000400350008003C00CB
:101940000000E000200032000500370060001000B9
:10195000E080180002003B0001F02C001A00370064
:101960000004BE006011B8006B0920000982CF009E
:10197000020039000882CF000441B00069425200E1
:101980000E00320008003B0082817100610164009A
:101990008904D1000884D3008B05E8000442E800E4
:1019A000F9FF3A00050037000804440089844C0020
:1019B0008B05E9000442E900FBFF3A00250107001E
:1019C0000AF0A70001F0A0004F05BE004F04BE00C2
:1019D0000000060003F0A200889FBE008A9FBE00A0
:1019E0008C1F780041010700480133006450E1007A
:1019F0004F0032006420E1005200320003826C008C
:101A000007003B000905D0000306D000820F5400F8
:101A10000C065D00020039000200320089017800E6
:101A2000030678008582550004003D000003FD0098
:101A30008103FD008502EA008B854200840F72005D
:101A400002003B0060001000E08018006011B80048
:101A50000005EB007A28E1000A0039000600780052
:101A6000C75DDD00F707B200878075002D003700E5
:101A7000828171000A017800610560008180D100D7
:101A80000080D3008502E900F9FF3B000604400016
:101A90008784480002003B0060041400E0841C00BE
:101AA0000988A300070032008A81710082817100D9
:101AB000610164008904D1000884D3008B05E8002B
:101AC000170037000978A30013003A000B00E0006C
:101AD000130034008B05E9000804440089844C009D
:101AE0000A4474000978A3000D003A000B00E000DE
:101AF000070034008B05E9000804440089844C0089
:101B000001003A000B0020000978A300F7FF320023
:101B10000001EB0002003700828171000A017800A9
:101B2000CC0007000CF0A70001F0A0000001370076
:101B30006420E10002003A00838F6C000001330052
:101B40000801BE000200BE00F9003700889FBE00F9
:101B50008A9FBE008C1F7800E4000700EB00330072
:101B600003866C006450E1002E0032006420E10026
:101B7000330032006150E1002F0032006120E100AB
:101B80003100320085855500EB07B00009002000C8
:101B900008042000050037000804440089844C0034
:101BA0000A0031000603430087834B000001530005
:101BB00081815B00F8FF33000203BE000800A00033
:101BC0000804440089844C00F6FF3900C639DD0062
:101BD0008301730001003200130020008904D1004A
:101BE0000884D3000998A300050032000800A7006C
:101BF0000300A0008904D1000884D3008B05E8000D
:101C00008904D1000884D3000001EB000281D200D6
:101C10009000070001F0A1000CF0A70001F0A00067
:101C2000C30037006420E100C50032000801BE0097
:101C30000200BE00F7FF37006120E100C000320063
:101C40006000B800F3FF37000000200001F8270013
:101C5000F0FF3700889FBE008A9FBE008C1F78006F
:101C6000A2000700A900330003866C006450E10065
:101C7000240032006420E100270032006150E100BE
:101C8000220032006120E100210032008B854200F9
:101C9000EB07B1000134B800003AB8000804420074
:101CA00089844A00013AB8000030B80088804000BA
:101CB00009014A0004003300000040008180480010
:101CC000020149008B05E900C909DD0083017000AC
:101CD0000100320013002000C814DE004814DD00AB
:101CE0004709DE001200B200C808DE000884700058
:101CF0005800070001F0A1000CF0A70001F0A000BF
:101D00008B0037006120E1008D0032000801BE0029
:101D10000200BE00F7FF37006150E100FCFF3A000F
:101D2000870037000001BE00880007000470A7008C
:101D300003F0A10003F8A30013003A006509B10005
:101D400010003200090035006928E100020035006A
:101D500001002800000005000000400081804800CC
:101D60008502E900FCFF3A0000000600F88F4200FF
:101D7000050035008100D1000080D3008502E80015
:101D8000FCFF3A00000006008000EB0000000500A8
:101D90006022B800060220000000D0008180D2003E
:101DA0000482D2008582D2000000A000020252000C
:101DB00083825A00030031000202420083824A00FB
:101DC0000000A1000603E900F3FF3A00000006004E
:101DD0000001BE005D0007000470A70003F0A10031
:101DE0006509B100160032000D0035006828E100D9
:101DF00006003500F0FF2F00F1FF27000300E00090
:101E000013003B0001002800000005000000400016
:101E1000818048008502E900FCFF3A000800370095
:101E2000F88F420002003C008000EB00000005003B
:101E30008100D1000080D3008502E800FCFF3A0059
:101E40000300E00002003B0060001000E08018008A
:101E50000000060081002000618055000B003D005D
:101E60000B00200061FE2F000100E1001D00340086
:101E700082817100610164008904D1000884D3006B
:101E80000000E800FAFF3A007100200061006400E1
:101E90000300700002006000090032006104440089
:101EA000E0844C000988A500050032008B05E8009D
:101EB0006808E10002003A008904D1000884D300D8
:101EC000F20F20000258E10005003D00C75DDD0073
:101ED000F907B2008980750008007800000006004C
:101EE0000BF827008B007800000005000004BE00FE
:101EF000160007000003BE000405BE000200BE007D
:101F000012000700844F7500000006000200BE00AA
:101F10006450E100050036006420E1000200360054
:101F20000968A30001003A000800BE000160A0009B
:101F30004F0678004F05BE004F04BE0000000600AB
:101F4000F0FF2F00F1FF2700F9FF3700C70ADE007E
:101F5000F107B200F50FB20008003200E1CF4200F5
:101F6000020032000170A00024000500810F700003
:101F7000010032000408050044000500810F7000D4
:101F800002003A00140005008502E900000040004C
:101F900081C04800FCFF3B000170A0002400050048
:101FA0000400FA004B0007000000370022C2BF0007
:101FB000624060000004E000040032001011800064
:101FC000D1FF2F0001006000101188000280200066
:101FD0000100210020812100051A07001007980048
:101FE000E00F20009E009000808F50002B003200F8
:101FF000F00F20009E009000808F50001F003200E4
:102000001E009000E10F500001003200290037004F
:1020100091C08000010F78001E0078000000E000F1
:10202000040032009E007800E18F5000040032006E
:102030000700370090C1B300211D070007003700DB
:1020400000C8BF00CA1507000004E00003003A0002
:1020500090C0800001802000051807000000EB0000
:1020600090C088000040EB00B9FCB700AD15070038
:10207000E0C3B300C31C07000E003700B9DCBF008B
:102080000040E800B9FCB700B9DCBF00F34F5000D6
:10209000080036006925070006003700B9DCBF00DC
:1020A000E44F500001003600DD2807000040EB003F
:1020B000B9FCB7000BD8BF00624060000004E0002C
:1020C000BAFF320060C1B3000CF8B7005515070025
:1020D000B6FF37000000FA004507A9000080EB00BA
:1020E000601988004227A900416A200091407800C9
:1020F00000CEB30000C060005040B300A4E6B700BB
:10210000416C20009140780000CEB30000C0600018
:102110003040B300C4E6B70080C0B30000F8B70099
:102120000000EB0010C08800F60507002A06070033
:102130008000EB00F00F2000D41C070030C08800A6
:1021400021002000F00F2000D01C070040C08800B4
:10215000D0C0B3008B1C0700A0C0B300891C0700CF
:102160005E1607006F150700E0C3B300851C07006B
:102170000080FA00000006000600FA000CD8BF003C
:102180000080FB006101B900120798002307980046
:10219000C0012000010020001E019000AE0190004F
:1021A000800F5100818F5900D4003E001E00900026
:1021B000AE009000006001001C0037003E003700B8
:1021C0005E0037005D00370062003700B600370060
:1021D000660037006C003700720037007800370067
:1021E0007C0037008000370084003700C3003700D0
:1021F000C2003700C1003700C0003700BF00370001
:10220000BE003700BD003700BC003700BB00370000
:10221000BA003700B90037007D003700970037005B
:10222000B8003700B5003700B600370080C0800026
:10223000E10F500007003A0010C0B300A01C0700D7
:1022400004240700A6FCB700A6DCBF00F4050700C5
:102250001400370020C0B300991C070080C0800024
:10226000EF05070030C0B300951C07000000EB002D
:1022700020E5880007003700F6230700E80507007F
:1022800000C2B3003F1C070020E580000000E8000A
:1022900020E5880081C0800020E58000808F50000C
:1022A000F5FF3E00D0C0B300361C0700A0C0B3004D
:1022B000341C07009300370040C0B300801C0700A7
:1022C00070C08000D605070080C08000E10F50007C
:1022D00003003A0070C08000AD23070012003700F1
:1022E000C0492A00AA1A070080C08000CC05070058
:1022F00050C0B300721C07000000EB0020E588000E
:102300000500370070C08000A123070020E5800091
:102310000000E80020E5880081C0800020E5800002
:10232000808F5000F7FF3E00D0C0B300151C07009F
:10233000A0C0B300131C070072003700252307005C
:10234000004A2A00921A070080C0B3005C1C0700F4
:102350006C00370032230700804A2A008C1A0700DD
:1023600090C0B300561C070066003700D0C0B30011
:10237000531C0700E72307007E1A0700F0C0B300D4
:102380004F1C07005F003700E0C0B3004C1C070083
:1023900030240700771A0700F0C0B300481C07007C
:1023A0005800370080C080009D05070000C1B300C1
:1023B000431C070080C08000F8230700510037004D
:1023C00010C1B3003E1C070010C0B3000F2407006B
:1023D0004C00370020C1B300391C07000040EB005F
:1023E0000A2407004700370030C1B300341C07003F
:1023F00010C0B300FC2307004200370040C1B30007
:102400002F1C07000040EB00F72307003D003700BA
:102410000B58A8000B98A80010C3B300281C070095
:10242000120020002100200010002000B718070033
:102430000040E9000AF8B700E0C1B300201C070023
:10244000120020002100200010002000AF1807001B
:102450000040EA0061406000614060004601DD002C
:10246000B180210091407800F0CBB30000C0600043
:10247000024070000BF8B70022003700CB02A90021
:10248000CB22A900C922A800C902A900A18021006D
:102490009140780020C0B300AB2207000040EB0061
:1024A000071C07001700370071C08000010F78007B
:1024B0001E017800E10F51000A0032009E017800F1
:1024C000E18F5100040039001E007800E20F500037
:1024D0000500320006003700F04A2A002C1A0700D7
:1024E0000800370009000700190007000500370041
:1024F00070C1B300F21B07000200370080C1B300B7
:10250000EF1B07000080FA00000006000000FA0040
:10251000104F2A00341A0700E0502A00321A070030
:102520000040EB00C223070000C0EB00730507006A
:1025300010C0B300BE23070010C0B30097230700EC
:102540000040EB00BA2307000080FA0000000600FC
:102550000A00FA00881F780000532A000C1A0700AE
:102560000000EB00000F78000D0037001E0478001B
:10257000382307008040780063004700017478002A
:102580009E00780063004700614078000080FB00F7
:10259000F01A070000C2B3007A1B07001E0FE80004
:1025A000300020009E0F1000F0FF3600D0C0B300B6
:1025B000741B0700A0C0B300721B0700E0552A007F
:1025C000F319070063004700104078000080FB000B
:1025D0004400DE000080FB00400798004E009000A1
:1025E000E90F5000110032004E009000E90F50003A
:1025F00004003C004E009000E80F5000080032003C
:10260000130037004E009000EA0F50000A0032001D
:102610004E009000EF0F50000A0032000C0037000F
:1026200090562A00F01907000B00370000572A00C7
:10263000ED1907000800370070572A00EA19070053
:1026400005003700E0572A00E719070002003700AD
:1026500020582A00E4190700A0582A00CC190700C6
:1026600063004700104090000080FB004700DE0040
:102670000004E00003003A0060592A00DA1907005C
:1026800002003700D0592A00D7190700D05A2A0073
:10269000BF19070063004700104090008080FB00D6
:1026A00080F72F00008060004380DE002047980004
:1026B0002E4090000004E00003003A00A05B2A00D6
:1026C000B31907001B0037002E409000EF4F500059
:1026D00003003A00E0572A00AD1907001500370043
:1026E00000042000000F7800E30047000040EB00EA
:1026F00080487800080037001E0078000000400085
:10270000000F780063004700104078008040E80028
:10271000630047000148780063004700904078005C
:102720002E40900080CF5000F3FF39001E0078004B
:10273000281A0700D0C0B300121B0700A0C0B300C6
:10274000101B0700805C2A009119070063004700F6
:102750009040900070C0B30000C060002047980017
:1027600010002000000F7800E30047000040EB005D
:1027700080487800080037001E0078000000400004
:10278000000F780063004700104078008040E800A8
:1027900063004700014878006300470090407800DC
:1027A0002E40900080CF5000F3FF39001E007800CB
:1027B000371A0700D0C0B300F21A0700A0C0B30058
:1027C000F01A07004F0478000080FA0000000600AD
:1027D0000400FA000CD8BF000080FB006101B900C2
:1027E000028FBE00C0012000010020001E01BE00BB
:1027F000800F5100818F5900D8003E001E00BE009E
:10280000006001001C0037003E0037006A003700FE
:102810006900370073003700CD00370077003700BC
:102820007F003700870037008D00370091003700A8
:102830009500370099003700C8003700C7003700FF
:10284000C6003700C5003700C4003700C30037009A
:10285000C2003700C1003700C0003700BF0037009A
:10286000BE00370092003700AC003700BD003700D3
:10287000BA003700BB00370080C08000E10F500075
:1028800006003A0010C0B3000D1B070000C0EB00AB
:10289000F6210700620407001500370020C0B300CE
:1028A000071B070080C080005D04070030C0B30034
:1028B000031B07000000EB00C0E48800080037009D
:1028C00000C0EB00E92107005504070000C2B30077
:1028D000AC1A0700C0E480000000E800C0E48800F3
:1028E00081C08000C0E48000808F5000F4FF3E0073
:1028F000D0C0B300A31A0700A0C0B300A11A0700FC
:102900009800370040C0B300ED1A070070C0800087
:102910004304070080C08000E10F50000E003A0021
:1029200070C08000D12107009AFCB7009CDCBF007A
:10293000614060000004E0001A00320000C2B300F1
:10294000901A070010C0B300DD1A07009ADCBF0020
:10295000330407001300370080BF2A000C1907005A
:1029600080C080002E04070050C0B300D41A0700B6
:102970000000EB00C0E488000600370070C0800053
:10298000BA2107009AFCB700C0E480000000E8000C
:10299000C0E4880081C08000C0E48000808F5000C7
:1029A000F6FF3E00D0C0B300761A0700A0C0B30007
:1029B000741A07006B0037000CD8BF00E34F5000BB
:1029C00002003A009C1CA800010037009C1CA900D2
:1029D0000040EB0096220700A0C0B300B81A070021
:1029E000600037009C1CA90010C0B30090220700B3
:1029F000B0C0B300B21A07005A003700D0C0B3000D
:102A0000AF1A070043220700DA180700D0C0B3004E
:102A10005C1A0700A0C0B3005A1A07005100370023
:102A2000E0C0B300A61A07008A220700D1180700E9
:102A3000D0C0B300531A0700A0C0B300511A07005A
:102A40004800370080C08000F503070000C1B300D4
:102A50009B1A070080C08000502207004100370009
:102A600010C1B300961A070010C0B3006722070018
:102A70003C00370020C1B300911A07000040EB0072
:102A8000622207003700370030C1B3008C1A0700FC
:102A900010C0B300542207003200370040C1B30019
:102AA000871A07000040EB004F2207002D00370077
:102AB00010C3B300821A070012002000210020007A
:102AC00010002000111707000040E9000AF8B700C5
:102AD000E0C1B3007A1A0700120020002100200094
:102AE00010002000091707000040EA006140600064
:102AF000614060004601DD00B18021009140780016
:102B0000F0CBB30000C06000024070000BF8B700CB
:102B10000B58A8000B98A800120037009C1CA900B5
:102B2000A18021009140780030C0B3000621070049
:102B3000C922A900C902A900C8E2A80010C0B300B8
:102B40003B2207000040EB005D1A0700050037003C
:102B500070C1B3005A1A07000200370080C1B300E9
:102B6000571A07000080FA00000006000600FA006D
:102B70000CD8BF000080FB006101B900120798006B
:102B800023079800C0012000010020001E019000D2
:102B9000AE019000800F5100818F5900F3003E007C
:102BA0001E009000AE009000006001002A00370077
:102BB0004E0037001A003700190037002200370096
:102BC000CD003700E9003700E8003700E7003700A4
:102BD000E6003700E5003700E4003700E300370087
:102BE000E2003700E1003700E0003700DF00370087
:102BF000DE003700DD003700DC003700DB00370087
:102C0000DA003700D9003700D800370064003700F9
:102C1000AD003700B6003700D4003700D5003700CC
:102C20000CD8BF00E34F500002003A00687CA800B7
:102C300001003700687CA900CAC2A900A0C0B30087
:102C40001F1A0700CB003700CAC2A800B0C0B300EB
:102C50001B1A0700C700370080C08000E10F50003A
:102C600008003A0010C0B300151A070000C0EB00BE
:102C70002601070062FCB70062DCBF0068030700A2
:102C80001500370020C0B3000D1A070080C0800077
:102C90006303070030C0B300091A07000000EB000F
:102CA00000E388000800370000C0EB0017010700B0
:102CB0005B03070000C2B300B219070000E3800005
:102CC0000000E80000E3880081C0800000E380008D
:102CD000808F5000F4FF3E00D0C0B300A919070058
:102CE000A0C0B300A7190700A200370040C0B3007E
:102CF000F319070070C080004903070080C08000FE
:102D0000E10F50000E003A0070C08000FF00070085
:102D100062FCB70068DCBF00684060000004E000AF
:102D20001A00320000C2B3009619070010C0B300A9
:102D3000E319070062DCBF00390307001300370006
:102D4000E07F2A001218070080C0800034030700CB
:102D500050C0B300DA1907000000EB0000E3880060
:102D60000600370070C08000E800070062FCB70072
:102D700000E380000000E80000E3880081C08000DC
:102D800000E38000808F5000F6FF3E00D0C0B3000B
:102D90007C190700A0C0B3007A190700750037003E
:102DA00020802A0010180700120020004100200097
:102DB00010002000551607000040E9000AF8B7008F
:102DC000E0C2B300BE19070012002000210020005D
:102DD000100020004D1607000040E900614060002F
:102DE0006141600081C6210091407800E0CFB300CE
:102DF00000C060000240700068FCB700F0C2B30081
:102E0000AF19070022002000210020001000200040
:102E10003E1607000040E90061406000614060002C
:102E20000041400081C6210091407800D0CFB3001E
:102E300000C060000240700068FCB70000C3B3002F
:102E40009F19070012002000210020001000200020
:102E50002E1607000040E9006140600061406000FC
:102E60004201DD0081C6210091407800B0CFB3005F
:102E700000C060000240700068FCB700E0C1B30011
:102E80008F190700120020002100200010002000F0
:102E90001E1607000040EA006140600061406000CB
:102EA0004601DD00B180210091407800F0CBB300F5
:102EB00000C06000024070000BF8B7000B58A9007A
:102EC0000B98A8002B003700687CA9000AD8BF0027
:102ED0008080FB0080C4210000804000104078000A
:102EE000260007000040EB0075190700210037009D
:102EF000720007001F00370071C08000010F7800CA
:102F00001E0178000200E000040032009E017800FB
:102F1000E18F5100040032001100370000842A00C4
:102F2000B11707001300370090862A00AE1707007C
:102F3000120020003100200010002000F3150700CF
:102F40000040E90062FCB700608A2A00A61707006B
:102F500062DCBF0011C0B3007A0007000500370033
:102F600070C1B300561907000200370080C1B300DA
:102F7000531907000080FA00000006000200FA0062
:102F8000004F780041E2A9000BD8BF000044B20016
:102F90000004E00004003200CEE2A800CF02A80046
:102FA000CEC2A80003003700CEE2A900CF02A900DC
:102FB000CEC2A900816A20009140780000CEB30003
:102FC00000C060007040B300A8E6B700916C20001C
:102FD0009140780000CEB30000C060007040B300A4
:102FE000C9E6B700816C20009140780000CEB300A4
:102FF00000C060000034A000C8E6B700CAC2A80044
:10300000C8C2A900C902A900C8E2A800C922A90033
:103010001E80FB001012880042A2A80068DCBF00DE
:1030200061406000614060004601DD002124200015
:1030300091407800F0CBB30000C060000240700007
:1030400042E2B70068DCBF000080FB000000D10056
:1030500061406000614160003124200091407800AF
:10306000E0CFB30000C060000240700043E2B70050
:1030700068DCBF000080FB004200DE0061406000B1
:103080006140600000414000312420009140780000
:10309000D0CFB30000C060000240700043E2B70030
:1030A0000000EB00201288000000EB0000128800F6
:1030B00041E2A8000080FA00000006000000FA00CB
:1030C00041E2A900A8C6BF00F041B300A8E6B700DE
:1030D000916C20009140780000CEB30000C06000E9
:1030E000C9E6B700816C20009140780000CEB300A3
:1030F00000C06000C8E6B700CEE2A900CF02A90078
:10310000CEC2A9000080FA00000006000200FA000A
:10311000004F78001E80FB004012880085C0BF0071
:10312000644060000004E000FCFF320040128000B8
:10313000004F78008540A9001E80FB000080FA0047
:10314000000006000400FA0020479800314798006C
:1031500096180700D9FF0700610007002E40900075
:10316000E14F500009003E00CAC2BF000080FB00D2
:103170004600DE00614060008080FB002E40900031
:103180000080FB00808F50000A003A0041C2BF005F
:1031900001C8B300014060000004E0000E003A00E6
:1031A00041E2A80061E2A800B0C5B300861807009C
:1031B0000900370041C2BF0001C8B30001406000F0
:1031C0000004E0000400320041E2A90061E2A9002D
:1031D000D0C5B3007C18070040C2BF000042B20057
:1031E0000004E00020003A0060C2BF000042B200CC
:1031F0000004E0001C003A0040128000004F7800FC
:103200003E4090000004E000030032001E80FB00FE
:10321000E517070004003700C0C5B3006A180700AF
:103220001E4078006818070040138000004F7800A7
:1032300080C2B300641807003E4090000004E00024
:10324000030032001E80FB00D71707000400370080
:10325000C0C5B3005C1807001E4078005A1807006C
:1032600090C2B3005818070040C2BF000044B2002B
:103270000004E00004003A0060C2BF000044B20055
:103280000004E0000200320040C2A90060C2A900B0
:103290006518070022C2BF00614060000004E00022
:1032A000AEFF320030118000004F7800D0C0B30074
:1032B00034180700A0C0B3003218070075000700DB
:1032C0000AD8BF008080FB0080C42100008040003D
:1032D0001040780029FF07000080FA000000060077
:1032E0000000FA00C8C2A800C902A800C8E2A800ED
:1032F000C922A800816A20009140780000CEB30066
:1033000000C060009040B300A8E6B700916A2000BA
:103310009140780000CEB30000C060000034A000EF
:10332000A9E6B700C16A20009140780000CEB30042
:1033300000C060007040B300ACE6B700D16A200066
:103340009140780000CEB30000C060000034A000BF
:10335000ADE6B7000AD8BF008080FB0080C4210022
:1033600000804000104078000080FB0010128800B0
:1033700068DCBF0061406000614060004601DD0024
:103380002124200091407800F0CBB30000C0600001
:103390000240700042E2B70068DCBF000080FB0022
:1033A0000000D100614060006141600031242000D4
:1033B00091407800E0CFB30000C060000240700090
:1033C00043E2B7000000EB00201288000000EB0091
:1033D000001288000AD8BF008080FB0080C4210052
:1033E00000804000104078000080FB00101388002F
:1033F00068DCBF0061406000614060004601DD00A4
:103400002126200091407800F0CBB30000C060007E
:103410000240700062E2B70068DCBF000080FB0081
:103420000000D10061406000614160003126200051
:1034300091407800E0CFB30000C06000024070000F
:1034400063E2B7000000EB00201388000000EB00EF
:10345000001388000000EB00401288000000EB0021
:10346000401388004322A9006322A9004362A800F8
:1034700042A2A9006362A80062A2A90040C2A900FA
:1034800060C2A9004402A8006402A8000080FA00FB
:10349000000006000000FA0041E2A9004362A90012
:1034A00061E2A9006362A900A8C6BF00F041B300B1
:1034B000A8E6B700A9C6BF00F041B300A9E6B7006F
:1034C000ACC6BF00F041B300ACE6B700ADC6BF006C
:1034D000F041B300ADE6B7000080FA00000006003E
:1034E0000000FA00208E2A00291607000080FA004A
:1034F000000006000400FA0010C0B3000AF8B7008C
:10350000681CA900683CA800685CA9000BD8A8004A
:103510000AD8BF008080FB00C0C4210000804000AA
:103520001040780095FE0700EDFF0700000037000F
:1035300022C2BF00614060000004E000FCFF3200D6
:103540003011800065FCB70065DCBF000080FB0027
:103550004400DE0064FCB70064DCBF000080FB00B8
:10356000100798001E009000E30F50008600320004
:103570001E009000E30F50000A003C001E00900067
:10358000E10F5000550032001E009000E10F500086
:103590006F003C001E0090000000E0000B003200B5
:1035A000C60037001E009000E60F50008A0032006F
:1035B0001E009000E80F5000970032001E0090009F
:1035C000E40F50007F003200BC00370065DCBF0014
:1035D0000080FB00000F78001E007800E30F500011
:1035E000220032001E007800E30F50000A003C0069
:1035F0001E007800E10F5000130032001E0078001A
:10360000E10F500012003C001E0078000000E000B6
:103610000B0032002E0037001E007800EE0F500025
:103620001F0032001E007800EF0F50002200320011
:103630001E007800ED0F5000130032002400370008
:103640009EFE0700A0003700A5FF0700B8FF370067
:1036500060168000F1FB2F000100600060168800FA
:1036600010C0B30047170700B1FF37006016800095
:1036700001042000010070006016880010C0B30033
:1036800040170700AAFF37008040EB0020C0B300BE
:10369000ACFE070010C0B3003A170700A4FF3700C4
:1036A0008040EB000040EB00A6FE070010C0B30016
:1036B000341707009EFF37008040EB0010C0B300B6
:1036C000A0FE070010C0B3002E17070098FF3700B8
:1036D0000040EB002B17070095FF370051C6210073
:1036E00091407800F0C0B30000C0600065FCB700F6
:1036F00065DCBF000040E80065FCB70010C0B30007
:10370000201707000040EB0063FCB7000A003700F9
:1037100022C2BF00614060000004E000FCFF3200F4
:103720003011800079FE07001617070063DCBF0028
:103730000040E80063FCB70031C6210091407800EA
:1037400065DCBF0080CF5000F1FF390078FF370003
:1037500051C6210091407800F0C0B30000C0600065
:1037600065FCB70061C621009140780065DCBF00B0
:1037700000C0700066FCB70066DCBF0063FE070097
:10378000001707006AFF370061C6210091407800EA
:10379000F0C0B30000C0600066FCB70065DCBF008D
:1037A0000080FB004400DD008040780066DCBF0044
:1037B00000C0700066FCB70010C0B300F11607002F
:1037C0005BFF370065DCBF00CE21070010C0B300EF
:1037D000EC16070056FF370051C6210091407800D3
:1037E00070C0B30000C0600065FCB70065DCBF00BE
:1037F0000AF8B7000AD8BF008080FB00C0C42100CF
:103800000080400010407800DCFD070010C0B300CD
:10381000DC16070046FF3700681CA900683CA900B9
:10382000685CA9000BD8A90065DCBF000080FB0024
:103830004200DE00610060000004E0000100320090
:10384000681CA80065DCBF000080FB000000D10000
:10385000610060000004E00001003200683CA80044
:1038600065DCBF000080FB00610060000004E00038
:1038700001003200685CA80065DCBF000080FB002E
:103880004300DE000000A200610060000004E000D0
:10389000010032000BD8A8000AD8BF008080FB00CE
:1038A000C0C421000080400010407800B3FD070034
:1038B00010C0B300B31607001DFF37000040EB0037
:1038C000B01607001AFF37000080FA00000006005B
:1038D0000000FA000BD8A9000040EB000AF8B7007E
:1038E0000B38A9000B18A9000B58A9000B78A900E8
:1038F0000B98A9000BB8A9000BF8A9000080FA00EA
:10390000000006000000FA00C922A800C902A800B1
:10391000C8E2A800C8C2A800C942A800C222A900E3
:10392000C022A9000000EB0020C08800E8FF0700CB
:10393000CB62A900C962A900C002A900C202A90005
:103940002D23A9002D43A9002D63A9002D83A900D3
:10395000013220009140780000CEB30000C070001A
:1039600020E3B7000000EB008019880020F0210060
:10397000201988000000EB00101988000080FA0070
:10398000000006000200FA00004F78001E80FB00D5
:10399000401988002023A8002003A90020C3BF00ED
:1039A000614060000004E000FCFF3200001880006D
:1039B0000080FA00000006000000FA0021E3A800E1
:1039C000C0C0B300EFFF07003316070021E3A900D2
:1039D0000080FA00000006000000FA0000D8BF00D6
:1039E0000080FB008000400080C12100008040007A
:1039F00010007800401188000000EB0000118800E2
:103A00002062A8000000EB001011880021E2A8004D
:103A10002342A8008560A9000080FA00000006008B
:103A20000400FA00004F780010C0800010079800D2
:103A30001E009000E10F50000D0032001E009000AB
:103A4000E10F5000070039001E009000E20F500007
:103A50000A0032001E009000E30F50000A003200FE
:103A60000B0037001E80FB00BA1507000800370066
:103A70001E40780086150700050037001E407800BC
:103A8000F3140700020037001E4078003D160700BF
:103A90000080FA00000006000600FA004047980087
:103AA0000040EB00204798000E0037000000EB00BC
:103AB000000F780005003700A0CFB3000F0007000B
:103AC0001E0078000000E800000F78001E0078005B
:103AD000E30F5000F8FF36002E4090000040E80051
:103AE00020479800AE4090004E40900080CF50009C
:103AF000EEFF39000080FA00000006000400FA0022
:103B0000204798000040EB00004F7800130037007A
:103B100000000000000000000000000000000000A5
:103B20000000000000000000000000000000000095
:103B30000000000000000000000000000000000085
:103B40000000000000000000000000000000000075
:103B50001E4078000040E800004F78009E4078004A
:103B60002E40900080CF5000E9FF39000080FA001D
:103B7000000006000600FA003ADCBF00E14F5000EA
:103B800030003A0000C2B300FE1507000CD8BF0099
:103B9000E34F5000060032000CD8BF00E24F500047
:103BA000030032000CD8BF00E44F50000F003A0071
:103BB00070C0B30042160700D0C0B300F115070073
:103BC000A0C0B300EF1507003BDCBF000004E0001D
:103BD00003003A0010C0B300DF1D070017003700D4
:103BE00010C0B30082010700140037000CD8BF00DA
:103BF000FC4F500003003A0080302A007A1407007E
:103C00006201370060C0B3002D160700D0C0B300BA
:103C1000DC150700A0C0B300DA1507003BDCBF00CD
:103C20000004E00003003A000040EB00CA1D07005A
:103C3000020037000040EB006D0107000040EB0080
:103C40003AFCB7000CD8BF000080FB006101B9004E
:103C50001207980023079800C001200001002000EF
:103C60001E019000AE019000800F5100818F59001D
:103C700044013E001E009000AE0090000060010074
:103C80001C003700590037008A00370089003700D0
:103C900091003700D50037003A013700390137006D
:103CA000380137003701370036013700350137005A
:103CB000340137003301370032013700310137005A
:103CC000300137002F0137002E0137002D0137005A
:103CD0002C0137002B0137002A013700290137005A
:103CE00086003700AA003700B900370025013700E9
:103CF0002601370080C08000E10F50000D003A001F
:103D000010C0B300EE1507003BDCBF000004E0006C
:103D100003003A004F1D07003CFCB70002003700CB
:103D2000500107003CFCB7003CDCBF003CFF070033
:103D30002B00370020C0B300E115070080C08000D1
:103D400037FF070030C0B300DD1507000000EB00AF
:103D5000F0E188001E003700F0E180000000E00084
:103D60000E00320000C2B3008615070060C0B30029
:103D7000D315070000C2B300821507003BDCBF006B
:103D80000004E00003003A000040EB00721D070051
:103D9000020037000040EB00150107003BDCBF00CC
:103DA0000004E00003003A002A1D07003CFCB700B5
:103DB000020037002B0107003CFCB7003CDCBF00D1
:103DC00017FF0700F0E180000000E800F0E1880044
:103DD00081C08000F0E18000808F5000DEFF3E0057
:103DE00010C0B3003AFCB700E800370040C0B30091
:103DF000B315070070C0800009FF070080C0800075
:103E0000E10F500006003600A0312A00E013070041
:103E100080C0800002FF070050C0B300A815070053
:103E20000000EB00F0E188000F0037003BDCBF0032
:103E30000004E00005003A0070C08000D41C0700B8
:103E4000341D07003CFCB7000400370070C0800040
:103E5000FA000700DF0007003CFCB700F0E180003B
:103E60000000E800F0E1880081C08000F0E18000FF
:103E7000808F5000EDFF3E0000C2B30041150700E7
:103E80003CDCBF000004E00003003A0060C0B30067
:103E90008B1507000200370070C0B30088150700BB
:103EA000D0C0B30037150700A0C0B3003515070018
:103EB000B60037003BDCBF000004E00002003A001F
:103EC000441C070001003700B200070080C0B300A7
:103ED0007B150700AD0037003BDCBF000004E000AD
:103EE00002003A004E1C070001003700B100070035
:103EF00090C0B30072150700A40037000BD8A800CB
:103F00000B98A800E0312A00B71307001200200028
:103F10002100200010002000FC1107000040E900F3
:103F20003BFCB7003BDCBF000004E00009003A00A6
:103F300010C3B3006215070012002000210020000A
:103F400010002000F11107000040E9000AF8B70056
:103F50008E00370041C0800030002300808F500069
:103F600002003E0040342A009F13070070382A00E8
:103F70009D130700120020003100200010002000D7
:103F8000E21107000040E9000AF8B7007F0037009F
:103F90003BDCBF000004E00009003A00C922A80091
:103FA000C902A800CB02A900CB22A900A180210050
:103FB0009140780020C0B300E31B070001003700E8
:103FC000B30007000040EB003D1507006F0037000D
:103FD0000040EB003AFCB7003BDCBF00E14F500073
:103FE0006A003A0007E2A9006800370071C080004B
:103FF000010F78001E017800E10F51000A00320025
:104000009E017800E18F5100040039001E00780005
:10401000E20F50004B00320057003700B03B2A003F
:10402000711307005900370010402A006E13070073
:104030000000EB00F0E18800390037003BDCBF00F6
:104040000004E00006003A00E21B0700F0E18000F7
:104050004F1C0700AF1C07003CFCB70005003700F1
:104060004C000700F0E180007400070059000700D1
:104070003CFCB7003CDCBF000004E0001F003A003D
:10408000F0E1800066FE070080C2B300BD140700A7
:10409000F0E180000000D10061FE0700F0E1800047
:1040A0000000A200610060000004E0000300320094
:1040B00020452A00361307000C0037003BDCBF0008
:1040C0000004E00004003A00621C070010C0B300C6
:1040D000A11C0700030037006200070010C0B300F6
:1040E0004300070050452A002913070080452A0095
:1040F0002713070000C2B300A21407003BDCBF0077
:104100000004E00002003A00C51B07000100370070
:1041100028000700F0E180000000E800F0E18800DE
:10412000F1E18000F00F2000808F5000C3FF3600C7
:10413000D0C0B30093140700A0C0B30091140700CF
:10414000120037003BDCBF00E14F500001003A0095
:1041500007E2A900A0452A002313070010C0B300FE
:104160008E0007003BDCBF00E14F500007003A0023
:10417000470007000500370070C1B300D0140700E6
:104180000200370080C1B300CD1407000080FA00A0
:10419000000006000000FA000602A80006C2BF00E8
:1041A000614060000004E000FCFF3A000080FA007B
:1041B000000006000000FA000642A80006C2BF0088
:1041C000644060000004E000FCFF3A000080FA0058
:1041D000000006000000FA0009C2BF000080FB00DA
:1041E0004700DE000080FB000080FA0000000600AF
:1041F0000200FA00004F78009E40780061C0600025
:10420000614060004501DD006120200091407800A0
:10421000F0CDB30000C060000240700006E2B700BD
:104220000682A80006C2BF00704060000004E000E3
:10423000FCFF3A000080FA00000006000200FA00CD
:10424000004F78001E40780002E2B70009C2BF00AC
:104250000044B2000004E000FCFF3A000080FA00D5
:10426000000006000200FA000662A80006C2BF00B5
:10427000684060000004E000FCFF3A0000C2BF009C
:10428000004F78001E80FB000080FA00000006004E
:104290000000FA000742A9000782A9000000EB0015
:1042A000501088000000EB00601088000702A90091
:1042B0000AD8BF008080FB0080CA21000080400037
:1042C000104078000080FB002010880007E2A80062
:1042D0000080FA00000006000000FA00C922A800D1
:1042E000C902A800CB02A900CB22A90062A0A800A5
:1042F00062C0A8008660A900463CA9000040EB000F
:1043000044FCB70046DCBF000080FB004200DE003A
:104310006340600080407800CBC2BF000080FB009B
:104320000000D1006140600000C070006340600088
:10433000634060004201DD0061C4210091407800CB
:1043400030CFB30000C060000240700046FCB700F0
:1043500046DCBF000080FB004400DE0063406000DC
:1043600080407800CBC2BF006140600000C0700098
:1043700063406000634060004401DD0061C42100CF
:1043800091407800F0CCB30000C0600002407000A3
:1043900046FCB7000080FA00000006000400FA00A6
:1043A0002047980001140700CBFF070000003700EA
:1043B0001D14070022C2BF00614060000004E0003D
:1043C0000700320030118000004F7800D0C0B300E9
:1043D000EC130700A0C0B300EA1307009E003700EB
:1043E00086C0BF00684060000004E000F0FF3200BB
:1043F0008660A90046DCBF000080FB004200DE00B2
:104400006340600080407800CBC2BF000080FB00AA
:104410000000D1006140600000C070006340600097
:10442000634060004201DD0061C4210091407800DA
:1044300030CFB30000C060000240700046FCB700FF
:1044400046DCBF000080FB004400DE0063406000EB
:1044500080407800CBC2BF006140600000C07000A7
:1044600063406000634060004401DD0061C42100DE
:1044700091407800F0CCB30000C0600002407000B2
:1044800046FCB70046DCBF00624060000004E0006C
:104490003B00320046DCBF000043B200F04F50004A
:1044A00037003A0044DCBF00E74F500012003E00E6
:1044B00045DCBF000040400045FCB70045DCBF00C4
:1044C0000041780046DCBF000080FB004200DE00B7
:1044D0006340600080407800D0CFB30000C060002F
:1044E0000040710045FCB70044DCBF000040E8001C
:1044F00044FCB7003B003700CBC2BF000080FB008C
:104500000000D100614060006141600061C4210091
:1045100091407800E0CFB30000C06000024070001E
:1045200046FCB7002E4090000004E000040032007A
:1045300045DCBF000080FB001B13070004003700B0
:10454000C0C5B300A013070045DCBF009E130700E1
:1045500046DCBF00614060000004E0000300320060
:10456000D0C2B3009813070002003700B0C2B300F6
:10457000951307000040EB0044FCB700190037001A
:1045800046DCBF0002C3B3008240600000C3B3003A
:1045900080CF500013003A0046DCBF006C40600042
:1045A000E84F500006003A00463CA8000040EB00EF
:1045B00044FCB700B0C5B3008313070009003700FF
:1045C00046DCBF006C406000E44F500005003A003C
:1045D000463CA9000040EB0044FCB700D0C5B30046
:1045E0007913070046DCBF000080FB004200DE00BC
:1045F0006340600000404000634060006340600032
:104600004201DD0061C421009140780030CFB30049
:1046100000C060000240700046FCB70046DCBF00EE
:104620000080FB004400DE0063406000004040006A
:1046300063406000634060004401DD0061C421000C
:1046400091407800F0CCB30000C0600002407000E0
:1046500046FCB70056FF37000080FA000000060055
:104660000000FA0060492A00C91107000080FA0022
:10467000000006000400FA00C922A800C902A80030
:10468000CB02A900CB22A900C8C2A9000BD8A80060
:104690000B78A90011C0B30020C0B3002A1A07008C
:1046A000EFFF07000000370022C2BF00614060003A
:1046B0000004E000FCFF32003011800042FCB70033
:1046C00042DCBF000080FB004400DE0041FCB7007C
:1046D00041DCBF000080FB00100798001E00900026
:1046E000E10F5000510032001E009000E10F500019
:1046F00004003C001E0090000000E00008003200B2
:10470000790037001E009000E40F50007100320065
:104710001E009000E60F5000620032007200370069
:1047200042DCBF000080FB00000F78001E00780014
:10473000E30F5000240032001E007800E30F500009
:104740000A003C001E007800E10F50001800320003
:104750001E007800E10F500017003C001E0078009A
:104760000000E000630032002D0037001E007800DA
:10477000E60F50001B0032001E007800E60F5000CC
:1047800004003C001E007800E40F500012003200CC
:10479000230037001E007800E70F5000160032009B
:1047A0001E007800EF0F5000180032001C00370088
:1047B000ABFF0700BCFF3700061A070010C0B300AC
:1047C000F0120700B8FF3700151A070010C0B30039
:1047D000EC120700B4FF37009E1A0700E912070029
:1047E000B1FF37000040EB00DB1A070010C0B30038
:1047F000E4120700ACFF370010C0B300D61A070060
:1048000010C0B300DF120700A7FF37000040EB0025
:10481000E2FE070010C0B300DA120700A2FF370063
:104820000040EB00D71207009FFF370021C4210092
:1048300091407800F0C0B30000C0600042FCB700B7
:1048400042DCBF000040E80042FCB70010C0B300EB
:10485000CC1207000040EB0040FCB7000B00370013
:1048600022C2BF00614060000004E000FCFF320093
:1048700030118000461A0700A61A0700C11207006F
:1048800040DCBF000040E80040FCB70001C421004C
:104890009140780042DCBF0080CF5000F0FF39002B
:1048A00081FF370021C421009140780010C0B3007F
:1048B00000C0600042FCB70021C421009140780094
:1048C00020C0B300A019070010C0B300AD1207004C
:1048D00075FF370042DCBF008A1D070010C0B3001F
:1048E000A812070070FF37000040EB00A512070078
:1048F0006DFF37000080FA00000006000600FA0095
:104900000CD8BF000080FB006101B90012079800BD
:1049100023079800C0012000010020001E01900024
:10492000AE019000800F5100818F590035013E008B
:104930001E009000AE0090000060010051003700A2
:10494000730037003F00370044003700490037004C
:10495000BF003700910037009B003700A5003700EB
:10496000AB003700AE003700B1003700B4003700AD
:1049700024013700230137002201370021013700CD
:10498000200137001F0137001E0137001D013700CD
:104990001C0137001B0137001A01370004003700E3
:1049A00024003700190137001601370017013700BE
:1049B000E0C1B300C2120700120020002100200055
:1049C00010002000510F07000040E9006140600026
:1049D0006141600021C7210091407800E0CFB30021
:1049E00000C060000240700072FCB70072DCBF00C3
:1049F0006140600000417800024078000080EA00D9
:104A00008180EA0061406000614060004601DD0095
:104A1000B180210091407800F0CBB30000C060006D
:104A2000024070000BF8B7000B58A8000B98A800C4
:104A3000F6003700860107000040EB00A0120700D7
:104A4000F2003700F300070020C0B3004301070065
:104A500080C82900E4100700EC003700ED000700D3
:104A600030C0B3003D01070020CB2900DE10070055
:104A7000E6003700E7000700A0CD2900DA100700A4
:104A8000E200370080C08000E10F500007003A00CC
:104A9000E001070070FCB70010C0B30088120700E7
:104AA00070DCBF00DEFB07001400370020C0B3003D
:104AB0008312070080C08000D9FB070030C0B3001C
:104AC0007F1207000000EB0070E38800070037004A
:104AD000D0010700D2FB070000C2B3002912070073
:104AE00070E380000000E80070E3880081C080006F
:104AF00070E38000808F5000F5FF3E00D0C0B3000F
:104B000020120700A0C0B3001E120700BF0037002C
:104B100040C0B3006A12070070C08000C0FB0700ED
:104B200080C08000E10F500004003A0070C0800097
:104B30005201070070FCB7001300370070CE290047
:104B40009310070080C08000B5FB070050C0B30081
:104B50005B1207000000EB0070E3880006003700DE
:104B600070C080004501070070FCB70070E3800052
:104B70000000E80070E3880081C0800070E38000DE
:104B8000808F5000F6FF3E00D0C0B300FD1107003B
:104B9000A0C0B300FB1107009C003700E101070033
:104BA00070FCB700D0C0B3004512070070DCBF0036
:104BB00070100700D0C0B300F2110700A0C0B3000E
:104BC000F011070091003700E0C0B3003C1207006D
:104BD000DE01070070FCB70070DCBF006510070045
:104BE000D0C0B300E7110700A0C0B300E511070073
:104BF0008600370080C0800089FB070000C1B30039
:104C00002F12070080C08000FC0107007F003700E2
:104C100010C1B3002A120700050207007B0037000D
:104C200020C1B300261207001D02070077003700DD
:104C300030C1B30022120700CB0107007300370018
:104C400040C1B3001E120700E50107006F003700E6
:104C500071C08000010F78001E017800E10F510043
:104C60000D0032009E017800E18F510007003900ED
:104C70001E007800E20F50000C0032009E00780009
:104C8000E38F5000550032005B003700B0CE2900A2
:104C90003F1007005D003700A700070080D3290000
:104CA000511007005B0007005800370060D429004E
:104CB0004D100700A000070080D329004A1007000C
:104CC000A90107005300070020C0B300A30007009C
:104CD00000C0EB00C901070000C0EB00C7010700DE
:104CE0004C00070030C0B3009C0007000000EB0040
:104CF00070E388000700370070E380000000E800E0
:104D000070E3880071E38000900F2000808F5000D6
:104D100003003E00830107000004E000F6FF3200BC
:104D20003C0007008400070080D329002E100700F4
:104D30003800070030C0B3008800070070E380002F
:104D400037FB070060D52900271007000040EB0063
:104D500070FCB7001A00370070DCBF000040E800AC
:104D60002FFB0700F0D629000910070029010700D2
:104D70002BFB070000C2B3008211070025010700CA
:104D800027FB070000C2B3007E11070021010700C6
:104D900023FB070000C2B3007A1107001D010700C2
:104DA0001FFB0700D0C0B30076110700A0C0B300FE
:104DB0007411070070DCBF000040E80070FCB70011
:104DC00070DCBF008080FB0070E38000808F5000AB
:104DD000E1FF39000F0007000C00370030D7290031
:104DE0000110070060DB2900FF0F0700B0DE29007B
:104DF000FD0F07000500370070C1B300B0110700B8
:104E00000200370080C1B300AD1107000080FA0036
:104E1000000006000200FA0060E12900DC0F070034
:104E20006ADCBF000080FB00000F78001E007800E5
:104E3000E10F50000E0032001E007800E10F50001C
:104E400004003C001E0078000000E0000B0032006F
:104E5000350037001E007800E20F50000F003200CE
:104E60001E007800E30F5000240032002E003700AF
:104E7000F0E12900DC0F07002D003700AD0107002D
:104E800010C0B3005D01070010C0B3006AFCB7009A
:104E9000C0E22900D40F0700250037006BDCBF00FB
:104EA000E14F50000A003A006CDCBF00E14F5000B7
:104EB00002003A002C0107000100370048010700FA
:104EC0000040EB006BFCB70080E32900B00F070047
:104ED0007A01070020C0B3004801070095010700D0
:104EE00010C0B3004501070010C0B3006AFCB70052
:104EF000D0E42900BC0F07000D0037006F01070048
:104F000020C0B3003D0107008A01070010C0B300B4
:104F10003A01070010C0B3006AFCB70060E5290041
:104F2000B10F070002003700F0E52900AE0F0700BF
:104F30000080FA00000006000000FA005F01070090
:104F4000A0C0B3002D0107007A0107000040EB006C
:104F50006AFCB7000080FA00000006000400FA00B6
:104F6000004F78006ADCBF00E14F500002003200C1
:104F7000D0E629009C0F070060E12900840F07009C
:104F80001E80FB00100798001E009000E10F5000EB
:104F90000E0032001E009000E10F500004003C00A3
:104FA0001E0090000000E0000B00320024003700DB
:104FB0001E009000E20F5000160032001E0090000C
:104FC000E30F5000080032001D003700F0E1290017
:104FD000850F07001C003700D7FF070090E8290065
:104FE000810F0700180037003401070010C0B3001C
:104FF000020107004F01070020C0B300FF000700B7
:1050000030C0B3006AFCB700F0E82900760F070053
:105010000D0037002901070020C0B300F70007008A
:105020004401070020C0B300F400070020C0B30013
:105030006AFCB70030EA29006B0F07000200370056
:1050400080ED2900680F07000080FA0000000600CC
:105050000000FA00C8E2A800C902A900C922A900FC
:10506000C8C2A900CAE2A900CB02A900CB22A900AC
:10507000CAC2A9000080FA00000006000800FA0079
:1050800040479800060107006BDCBF00E14F50006D
:1050900006003A006CDCBF00910007000040EB0006
:1050A0006BFCB70020EF29004F0F07000BD8BF00A3
:1050B000684060000004E0000300320010C0B3004C
:1050C000004F78000200370000C8B300004F78009E
:1050D0000040EB0030479800450037004E409000FC
:1050E0001E4060000004E00002003A00BC0007001F
:1050F000010037009C000700CD000700CAC2BF00B6
:105100000080FB004700DE00204798000BD8BF005E
:10511000684060000004E000100032004E40900043
:105120000080FB000000D100404798001E40900026
:105130000080FB000000D100104798002E40900036
:10514000E14F500011003A001E40900001C8B3002A
:1051500001404000104798000C0037004E4090007E
:1051600000404000404798001E4090000040400032
:10517000104798002E409000E14F500003003A0085
:105180001E4090000040E80010479800C40007004F
:105190006ADCBF00E24F500012003A003E4090002F
:1051A000E64F50000F003A0010C0B3006BFCB70090
:1051B0004E4090001E4060000004E00003003A00F2
:1051C0000040EB006CFCB7000200370010C0B300D9
:1051D0006CFCB7001E4090000080FB003007980078
:1051E000090037003E4090000040E800304798003A
:1051F0003E409000E74F5000B8FF36001E40900040
:105200000080FB00300798003E0090000080FA000C
:10521000000006000400FA00A10007006BDCBF00DC
:10522000E14F500006003A006CDCBF002C00070084
:105230000040EB006BFCB70020EF2900EA0E0700EE
:105240000040EB00204798001F003700780007005F
:10525000CAC2BF000080FB004700DE001047980074
:105260000BD8BF00684060000004E00008003A006E
:105270001E40780000404000004F78001E40900023
:105280000004E0000C0032001E4FE8000A00370066
:105290001E80FB000000D100004F78001E409000EF
:1052A0000004E000040032001E40780001C8B30092
:1052B00001404000004F7800790007002E40900028
:1052C0000040E800204798002E409000E74F500033
:1052D000DEFF36001E80FB000080FA0000000600A2
:1052E0000400FA00204798002E4090000004E000DF
:1052F00002003A003A000700010037001A000700D8
:105300004B000700CAC2BF000080FB004700DE0060
:10531000004F7800620007001E80FB000080FA004A
:10532000000006000200FA0041000700CAC2BF00E8
:105330000080FB004700DE00004F780058000700A7
:105340001E80FB000080FA00000006000000FA004A
:10535000CAC2BF000080FB004700DE000080FB00E7
:105360000080FA00000006000000FA0072DCBF00B6
:105370006140600000417800024078000080EA004F
:105380008180EA00614060006140600000414000AF
:10539000912C200091407800D0CFB30000C0600075
:1053A00002407000C9E2B70072DCBF0061406000DB
:1053B0006140600000414000B12C20009140780025
:1053C000D0CFB30000C0600002407000CBE2B70055
:1053D00040C1B300C9F907000080FA0000000600D0
:1053E0000000FA00CB22A900C922A90040C1B300E5
:1053F000C2F907000080FA00000006000400FA006D
:10540000204798000040EB00004F78000300370071
:1054100007000700220007001E4FE8002E40900002
:105420009E4F1000FAFF39000080FA0000000600CD
:105430000000FA0072DCBF006140600000417800AB
:10544000024078000080EA008180EA00614060004C
:1054500061416000912C200091407800E0CFB300C2
:1054600000C0600002407000C9E2B70072DCBF00FB
:105470006140600061416000B12C200091407800E3
:10548000E0CFB30000C0600002407000CBE2B70084
:1054900040C6B30099F907000080FA00000006003A
:1054A0000000FA00CB02A900C902A90040C6B3005F
:1054B00092F907000080FA00000006000000FA00E0
:1054C00072DCBF006140600000417800024078005B
:1054D0000080EA008180EA00614060006140600075
:1054E0004601DD00812C200091407800F0CBB30014
:1054F00000C0600002407000C8E2B70072DCBF006C
:1055000061406000614060004601DD00A12C200088
:1055100091407800F0CBB30000C060000240700002
:10552000CAE2B70040C1B30074F907000080FA0076
:10553000000006000000FA00CAC2A900C8C2A90003
:1055400040C1B3006DF907000080FA0000000600BA
:105550000200FA00F0C2B300104798000040EB00D0
:10556000004F7800C922A800CB22A900C922A900B7
:1055700005003700A0C0B30060F907001E4090008E
:105580000040E900104798001E4090000004E00031
:10559000F8FF3C00C922A800C0C3B30057F90700B8
:1055A000CBC2BF000080FB000000D1006140600062
:1055B000ACFCB70090C2B30010479800050037005C
:1055C000A0C0B3004DF907001E4090000040E90064
:1055D000104798001E4090000004E000F8FF3C00D7
:1055E000CBC2BF000080FB000000D1006140600022
:1055F000ADFCB700ADDCBF000004E00002003A00E3
:1056000010C0B300004F7800ACDCBF00E14F500089
:1056100003003A001E40780000C0E800004F780008
:10562000A0C0B30035F907001E80FB000080FA001F
:10563000000006000400FA002047980080C0B30074
:10564000004F78001D0037002E4090006140600040
:10565000AEFCB700CB22A900C922A90050C0B300FC
:1056600026F90700AEDCBF006140600061406000C9
:1056700000414000912C200091407800D0CFB30031
:1056800000C0600002407000C9E2B70020C3B30050
:105690001AF9070050C0B30018F90700C922A80082
:1056A000A0C0B30015F907002E4090000080FB0059
:1056B0000000D100204798001E4FE9001E04E000C2
:1056C000E1FF3C00A0C0B3000CF907000080FA0025
:1056D000000006000200FA00004F7800CB22A9006B
:1056E000C922A90050C0B30004F907009E40780009
:1056F00061C060006140600000414000912C2000CA
:1057000091407800D0CFB30000C06000024070002C
:10571000C9E2B70020C3B300F8F8070050C0B300D7
:10572000F6F80700C922A800A0C0B300F3F80700EC
:105730000080FA00000006000200FA0080C0B300FA
:10574000104798000040EB00004F78001D00370024
:10575000CB22A900C922A90030C0B300E7F8070096
:10576000C922A80050C0B300E4F80700CBC2BF00B4
:105770000080FB000000D10061406000AEFCB7007B
:1057800040C3B300DDF807001E80FB000000D1001D
:10579000004F7800AEDCBF00E14F500004003A003B
:1057A0001E40780001C8B30001404000004F78005F
:1057B000A0C0B300D1F807001E4090000040E900EF
:1057C000104798001E4090000004E000E0FF3C00FD
:1057D000A0C0B300C9F807001E80FB000080FA00DB
:1057E000000006000000FA00CB22A900C922A9008F
:1057F00030C0B300C1F80700C922A80050C0B300F0
:10580000BEF80700CBC2BF000080FB000000D10043
:1058100061406000AEFCB70040C3B300B7F80700BA
:10582000A0C0B300B5F80700AEDCBF000080FB00ED
:105830000080FA00000006000800FA002007980027
:10584000310798000040EB00004F78000000EB00AB
:10585000100798000D0037001E00900080007800AF
:105860002E00900000804000104078001E4068002C
:105870008080FB00E06F2A0000804000104F78001D
:105880001E0090000000E800100798009E009000A5
:105890003E009000808F5000EFFF35001E80FB001F
:1058A0000080FA00000006000600FA00881F780059
:1058B0000CD8BF000080FB006101B90012079800FE
:1058C00023079800C0012000010020001E01900065
:1058D000AE019000800F5100818F5900C3013E003E
:1058E0001E009000AE009000006001001C00370018
:1058F00040003700600037005F003700BB01370011
:105900009F0037005E003700B801370065003700A0
:10591000B6013700B5013700770037007600370051
:10592000B2013700B1013700B0013700AF013700D5
:10593000AE013700AD013700AC013700AB013700D5
:10594000AA013700A9013700A80137007D00370000
:1059500080003700A7013700A4013700A5013700F8
:1059600080C08000E10F500007003A0010C0B30073
:10597000D30E070070FF070063FBB70063DBBF00B7
:1059800027F807001600370020C0B300CC0E070030
:1059900080C0800022F8070030C0B300C80E0700A6
:1059A0000000EB0000DB88000900370062FF070001
:1059B00063FBB70063DBBF0019F8070000C2B30048
:1059C000700E070000DB80000000E80000DB8800AC
:1059D00081C0800000DB8000808F5000F3FF3E001C
:1059E000D0C0B300670E0700A0C0B300650E07006B
:1059F0008001370040C0B300B10E070070C08000C6
:105A000007F8070080C08000E10F500003003A0053
:105A100070C0800007FF070012003700408D29008A
:105A2000DB0C070080C08000FDF7070050C0B3000A
:105A3000A30E07000000EB0000DB88000500370024
:105A400070C08000FBFE070000DB80000000E80063
:105A500000DB880081C0800000DB8000808F500068
:105A6000F7FF3E00D0C0B300460E0700A0C0B30051
:105A7000440E07005F013700610107005D01370038
:105A800058FF070063FBB700D0C0B3008C0E0700BF
:105A900063DBBF00B70C0700F0C0B300880E07003F
:105AA0005401370080C08000DDF70700808D290099
:105AB000B70C07000000EB0000DB88000500370092
:105AC00056DBBF0003FF070000DB80000000E8009A
:105AD00000DB880081C0800000DB8000808F5000E8
:105AE000F7FF3E0056DBBF00A20C0700B08E290076
:105AF000BD0C07003F013700D08E2900A40C070021
:105B00000CD8BF00EC4F500005003A000040EB00FD
:105B100056FBB7000040EB00960C0700040037006E
:105B200010C0B30056FBB70010C0B300910C0700C3
:105B3000C08F2900AC0C070056DBBF00E5FE070054
:105B40002C0137000B58A9000B98A8000BD8A8000F
:105B5000280137000040EB0068FBB700C922A8000D
:105B6000CB22A900309329009F0C07004096290002
:105B70009D0C07000040EB00510E07001D0137008F
:105B800070C080000000E0003600320071C080006C
:105B900020032000808F500032003E0070C0800043
:105BA0000000E90070C0880071C0800068DBBF00A1
:105BB0000080FB00808F500003003900E09829002E
:105BC000890C07000B013700609D2900700C07004D
:105BD00070C080000040E8002D0D0700609E290085
:105BE0006B0C07000040EB0062FBB70017003700AA
:105BF00072C0800062DBBF008080FB004310DD00CC
:105C00008100400090B621000080400010407800E4
:105C100083F7070000C2B300DA0D070072C08000EE
:105C200062DBBF008080FB004310DD00810040008C
:105C300090B6210000804000104078007DFE0700F3
:105C400062DBBF000040E80062FBB70062DBBF0020
:105C5000E74F5000E6FF3600909E2900620C0700D7
:105C6000E400370071C08000010F7800500520006B
:105C70001E017800800F5100CD0032005005200039
:105C80009E017800808F510008003E001E007800C1
:105C90000000E00012003200300320009E00780077
:105CA000808F5000A0003200CD003700C00E2000D1
:105CB0001E017800800F510046003200000F2000C6
:105CC0009E017800808F510042003200C00C2000FD
:105CD0009E007800808F5000BB003200C00037006B
:105CE000B09E2900400C0700D09F29003E0C070001
:105CF00068DBBF000004E00003003A00E0982900E0
:105D0000390C0700300037000040EB0063FBB700A0
:105D10002800370000C2B3009A0D070063DBBF0004
:105D20000040E800DA0C070070A12900180C0700F9
:105D30000040EB0062FBB7000F00370063DBBF00E1
:105D40000081FB0062DBBF008080FB004310DD00B0
:105D50008100400090B62100008040001040780093
:105D60002FF7070000C2B300860D070062DBBF00FB
:105D70000040E80062FBB70062DBBF00E74F500065
:105D8000EEFF360090A12900010C070063DBBF0085
:105D90000080FB00C300DD0090B6210000804000C1
:105DA00010407800B700070063DBBF000040E80048
:105DB00063FBB70081B621009140780063DBBF0030
:105DC00080CF5000D3FF3E0000A22900060C070040
:105DD0008800370070C08000A2F9B70071C0800051
:105DE000C00E2000808F500003003A00B0B02900A0
:105DF000FD0B070002003700F0B12900FA0B070085
:105E0000D09F2900F80B07000040EB0062FBB700B1
:105E1000CB00070063FBB7000040EB0068FBB70056
:105E20003B00370000C2B300560D070062DBBF0025
:105E30000040E800960C070070A12900D40B070071
:105E40000000EB0000DB88000A00370001DB800067
:105E500090BB21000080400010407800F0F6070061
:105E600000C2B300470D070000DB80000000E8001F
:105E700000DB880000DB8000E70F5000F3FF3600F6
:105E800090A12900C20B0700B9DBBF007D0007000D
:105E900062DBBF00E94F500018003E000000EB003D
:105EA00000DB88000F00370068DBBF008081FB004B
:105EB00004DB800001DB800090BB210000804000FB
:105EC000104178004318DD008400400090B62100A6
:105ED000008040000248780000DB80000000E800FD
:105EE00000DB880000DB8000E70F5000EEFF36008B
:105EF00068DBBF000040E80068FBB70062DBBF0062
:105F00000040E80062FBB7009800070063FBB700A1
:105F100063DBBF000004E000C2FF3A00D0B22900FA
:105F2000B10B0700330037003500070090B6290099
:105F3000970B070030C3B300BEFD07000000EB0065
:105F400000DB88001000370008DB8000FAFD070046
:105F50008040780070B521000000440001487800BE
:105F600001DB800070B52100008040001040780007
:105F7000ABF6070000C2B300020D070000DB800093
:105F80000000E80000DB880000DB8000E70F500025
:105F9000EDFF3600D0C0B300FA0C0700A0C0B3007C
:105FA000F80C070057DBBF00360007001100370070
:105FB00013000700B0B729008B0B070050C5B300D2
:105FC0009CFD07000B0037000D000700C0B829003A
:105FD000850B0700C0CCB30096FD07000500370015
:105FE00070C1B300360D07000200370080C1B30056
:105FF000330D07004F0478000080FA00000006000F
:106000000200FA0052FD0700004F7800C0B92900D5
:106010005F0B07001E04E00003003A0070BA29007D
:10602000710B070015003700A0BA2900580B0700B4
:106030001E80FB00610060000004E00002003200EE
:1060400020BB2900520B07001E80FB000000D1007E
:10605000610060000004E00002003200A0BD2900E1
:106060004B0B0700A0BF2900490B07001E4078001A
:106070006BF60700B08E29005B0B07000080FA006A
:10608000000006000400FA00004F78001E80FB00AC
:1060900010079800200220009E009000808F500082
:1060A0001A003200200220009E009000808F5000D5
:1060B00007003C001E009000E40F50001600320064
:1060C0009E009000F08F50000A0032001800370048
:1060D000800220009E009000808F50000800320057
:1060E000D00220009E009000808F50000D003200F2
:1060F0000F003700C0BF29003B0B07000E00370020
:1061000080C12900380B07000B00370030C329007D
:10611000350B07000800370090C42900320B070038
:106120000500370020C629002F0B070002003700AA
:1061300030C729002C0B07000080FA000000060081
:106140000000FA000040EB00C1FBB7000040EB008C
:10615000C3FBB7000040EB00C2FBB700080007001C
:106160000080FB000080FA00000006000000FA003A
:10617000030007000080FB000080FA00000006001A
:106180000A00FA0010C0B300704798000040EB000E
:10619000604798000040EB005047980010C0B300E3
:1061A000104798000040EB00404798000040EB008B
:1061B000C4FBB700C3DBBF000004E0008D003A0061
:1061C000E3FC07000004E000090032000040EB009F
:1061D000C1FBB7000040EB00C3FBB7000040EB0081
:1061E000C2FBB7000000EB004007980092003700A8
:1061F000A2D9BF000FFD07007AFD070030479800C5
:1062000078FD0700204798003E409000E14F500085
:1062100003003A002E409000E14F5000650032002C
:10622000BE4090002E40900080CF5000030032000E
:106230003E409000004F78002400370011BC210040
:10624000914078007E409000814F50000E00310058
:106250005E4090008080FB0090BB210000804000E9
:10626000904078001E40900080C060000040EB002D
:10627000004F78000104E0000B00320010C0B300B2
:10628000004F780008003700C1DBBF008040EB0002
:10629000014F7800FE40900080CF500002003A008D
:1062A00010C0B300004F78001E04E00007003A0061
:1062B0007E409000604798006E409000E84F50008C
:1062C00002003E006E409000C2FBB70010C0B30059
:1062D0009E4F10000D003A005E4090000081FB00D0
:1062E0005E4090008080FB0090BB21000080400059
:1062F000904078001E40900080C0700090BB21004C
:106300000000410001487800110037005E40900015
:106310000082FB005E4090008080FB0090BB21006B
:106320000080400010407800804178001E419000BD
:10633000024078000080EA008180EA0000C061002D
:106340008040780090BB21000000420001487800A6
:106350001E407800DFFC07007E4090000040E8000F
:10636000704798001E409000004040001047980081
:106370001E4090000004E0000B003A005E409000D8
:106380008080FB0090BB210000804000104078001E
:10639000840007005E4090000040E80050479800ED
:1063A00010C0B300104798005E409000E74F5000C7
:1063B00091FF3600FE40900000C4B30080CF500033
:1063C0000C003600C4DBBF000004E00009003A0006
:1063D0006E409000C1FBB700C1DBBF000004E000CD
:1063E00002003A0010C0B300C3FBB70010C0B300F6
:1063F000404798004E4090000004E0000300320047
:10640000B9DBBF000004E00008003A000040EB00E8
:10641000C1FBB7000040EB00C3FBB7000040EB003E
:10642000C2FBB7000040EB00404798004E40900090
:106430000080FB00400798004E0090000080FA00AA
:10644000000006000E00FA000040EB0040479800F4
:106450000C0037004E4090000081FB004E40900041
:106460008080FB0090BB21000080400090407800BD
:1064700065004700017178004E4090000040E80040
:10648000404798004E409000E74F5000F1FF360023
:10649000C1DBBF0020479800C3DBBF001047980056
:1064A000C2DBBF00004F780000C4B300C1FBB700DF
:1064B0000040EB00C3FBB70031FF07000004E00021
:1064C0001A00320010C0B300304798000040EB00C3
:1064D00040479800110037004E4090008080FB003C
:1064E00065004700614178004E4090008080FB00CD
:1064F00090BB21000080400010407800804F510088
:10650000030032000040EB003047980009003700DC
:106510004E4090000040E800404798004E409000F8
:10652000E74F5000ECFF3600020037000040EB0060
:10653000304798000040EB00404798000C003700BF
:106540004E4090000081FB004E4090008080FB0098
:1065500065004700E140780090BB21000000410049
:10656000014878004E4090000040E8004047980005
:106570004E409000E74F5000F1FF36002E40900053
:10658000C1FBB7001E409000C3FBB7001E4078005F
:10659000C2FBB7003E4090000080FB000080FA0084
:1065A000000006000200FA00004F7800C4DBBF00C4
:1065B0001E4068008080FB00309A2100008040006F
:1065C00010407800C4FBB700C4DBBF000080FB00B4
:1065D0000080FA00000006000000FA0020C8290030
:1065E000EB0907000080FA00000006000400FA0032
:1065F000C922A800CB22A900C8C2A9000BD8A800B4
:106600000B78A900F4FF07000000370022C2BF008A
:10661000614060000004E000FCFF320030118000A7
:1066200067FBB70067DBBF000080FB004400DE00B3
:1066300066FBB70066DBBF000080FB001007980018
:106640001E009000E10F50005B0032009E009000A1
:10665000E48F5000760032001E0090000000E00041
:10666000010032007700370067DBBF000080FB00CD
:10667000000F78009E007800E28F50001700320073
:106680001E007800E20F500007003C009E007800DA
:106690000100E0006E0032001E007800E10F5000A3
:1066A0000C003200410037009E007800E48F50005B
:1066B0000E0032001E007800E40F50003B00350051
:1066C0009E00780068805000E10F500037003E00C7
:1066D00009003700C0FF0700CCFF370048FE070065
:1066E00010C0B300270B0700C8FF370012FC0700DB
:1066F000240B0700C5FF370010C0B300210B0700B3
:1067000067DBBF00E94F500003003A00C0CEB30082
:10671000A2F9B7000200370000CFB300A2F9B7001A
:1067200087FE070064FBB700110037000040EB0054
:1067300065FBB7000900370065DBBF008080FB0008
:1067400090BB210000804000104078000D0B070036
:1067500065DBBF000040E80065FBB70065DBBF00FC
:10676000E74F5000F4FF360080FE070064FBB700DF
:1067700064DBBF000004E000ECFF3A000040EB00E7
:1067800065FBB7000500370000C0EB00FD0A0700FD
:1067900065DBBF000040E80065FBB70065DBBF00BC
:1067A000E74F5000F8FF360098FF37000040EB003D
:1067B000F40A070095FF370071B621009140780078
:1067C000F0C0B30000C0600067FBB70067DBBF002C
:1067D0000040E80067FBB70010C0B300E90A0700FB
:1067E0000040EB0065FBB7000B00370022C2BF0082
:1067F000614060000004E000FCFF320030118000C6
:106800008CFB070010C0B300DE0A070065DBBF0089
:106810000040E80065FBB70051B6210091407800C8
:1068200067DBBF0080CF5000F0FF390077FF3700F3
:1068300067DBBF00B315070010C0B300D10A070023
:1068400072FF37000040EB00CE0A07006FFF3700F1
:106850000080FA00000006000400FA000CD8BF0017
:106860000080FB00100798001E009000F80F5000F9
:10687000170032001E009000F80F50000A003C0084
:106880001E009000E10F5000380032001E00900002
:10689000E50F50004F0032001E0090000000E000A5
:1068A000110032006E0037001E009000FA0F5000F9
:1068B0006D0032001E009000FA0F500006003500F7
:1068C0001E009000FC0F500067003200640037008B
:1068D0000BD8A800640037009D0007000040EB00C3
:1068E000F70A07006000370080C08000E10F500009
:1068F00005003A0010C0B300F10A07002F0107009D
:106900005B0007001400370020C0B300EC0A07004A
:1069100080C0800042F4070030C0B300E80A0700DE
:106920000000EB0040E48800070037002301070067
:106930004F00070000C2B300920A070040E4800045
:106940000000E80040E4880081C0800040E480004E
:10695000808F5000F5FF3E00D0C0B300890A0700C9
:10696000A0C0B300870A07003F00370040C0B30053
:10697000D30A070070C0800029F4070070C08000AF
:106980004C0107008AFCB7008ADCBF000004E0006D
:1069900003003A0060C0B300C90A070008003700CE
:1069A0008ADCBF00E14F500003003A0070C0B30022
:1069B000C30A070002003700808E2A00F40807008F
:1069C000D0C0B3006F0A0700A0C0B3006D0A070073
:1069D0002500370070C08000000F78001E0078008E
:1069E0000000E000040032001E007800E10F5000BB
:1069F0000400320017003700508F2A00FA08070001
:106A00001900370030922A00F7080700EB00070052
:106A10000004E00004003A008DDCBF0000F4070031
:106A200000C2B300570A070022C2BF0061406000E5
:106A30000004E000F5FF3200301180008AFCB7004E
:106A4000D0C0B3004F0A0700A0C0B3004D0A070032
:106A50000500370070C1B300990A07000200370033
:106A600080C1B300960A07000080FA00000006000B
:106A70000400FA00004F78001E80FB001007980009
:106A80009E009000E28F50001D0032001E0090001A
:106A9000E20F500007003C009E0090000100E00063
:106AA0000F0032001E009000E10F50001100320074
:106AB000230037009E009000E48F50001A0032003F
:106AC0001E009000E40F500012003500F00F20006F
:106AD0009E009000808F5000160032001800370092
:106AE0008DDCBF00CEF3070000C2B300250A07000B
:106AF00015003700F0952A00A5080700120037009E
:106B00008DDCBF00C6F3070090972A00A00807009D
:106B10000D0037008DDCBF00C1F3070040992A004B
:106B20009B08070008003700808E2A00980807009D
:106B300005003700E09A2A00950807000200370098
:106B4000709B2A00920807000080FA0000000600EF
:106B50000000FA00C922A800C902A900CB02A900BE
:106B6000CB22A9000080FA00000006000400FA0011
:106B70000040EB002F0107000004E000030032009A
:106B800020002000100798000E003700CBC2BF0085
:106B90000080FB000000D10061406000004F7800E1
:106BA00010C0B300230107000004E000030032001E
:106BB0002000200010079800020037001E80FB0014
:106BC000100798001E0090000080FA0000000600E8
:106BD0000600FA000040EB00204798000040EB0060
:106BE00010479800CBC2BF000080FB000000D1001E
:106BF0006140600061416000C1C82100914078009F
:106C0000E0CFB30000C06000024070008CFCB70011
:106C10008CDCBF00614060000004E0000300320033
:106C200010002000200798006100370010C0B3005A
:106C3000000107000004E0000300320041002000D2
:106C4000210798005A0037000040EB0030479800B9
:106C5000190037001E4090000080FB000000D100AA
:106C600010479800C1FF0700004F780020C0B30014
:106C70009E4F100003003A004100200021079800B9
:106C80004B00370010C0B3009E4F100007003A00C1
:106C90009E40900000C8B30000C04000104798001C
:106CA0002E4090000004A200204798003E40900033
:106CB0000040E800304798003E409000E74F500009
:106CC000E4FF36001E4090008DFCB700A7FF0700D0
:106CD000004F780021C0B3009ECF100003003A009F
:106CE0004000200020079800310037009E407800C7
:106CF00061C0600061416000E1C8210091407800FE
:106D0000E0CFB30000C06000024070008EFCB7000E
:106D10008EDCBF00614060008080FB002E40900050
:106D20000080FB00808F500004003A008E5CA800B9
:106D300020002000200798001D0037008E5CA9006D
:106D40008AFF0700004F780021C0B3009ECF1000DB
:106D500003003A004000200020079800140037008C
:106D60009E40780061C060006140600000414000CA
:106D7000E1C8210091407800D0CFB30000C060008E
:106D8000024070008EFCB700C902A9008EDCBF0073
:106D9000624060000004E00003003A003000200080
:106DA00020079800020037008000EB0021079800C0
:106DB0002E0090000080FA00000006000200FA0099
:106DC00000C0EB00004F7800C922A800C902A8004B
:106DD0000040EB001047980010003700CBC2BF0006
:106DE000614060000004E00007003A0078FF0700FF
:106DF000004F78001E04E0000B00320040C0B300DA
:106E00009E4F10000800320050C0B3003BF3070053
:106E10001E4090000040E800104798001E4090007F
:106E2000E14F4000EDFF3A00C902A9001E80FB00BF
:106E30000080FA00000006000400FA00004F78000D
:106E400010C0B3007B0007000004E0000300320024
:106E50002000200010079800130037009E407800A3
:106E600061C060006140600000414000912C200042
:106E700091407800D0CFB30000C0600002407000A5
:106E8000C9E2B7000040EB006A0007000004E00020
:106E90000300320020002000100798000200370095
:106EA0008000EB00110798001E0090000080FA009F
:106EB000000006000800FA00404798000040EB0080
:106EC00020479800C902A900CB02A900C0C3B300A3
:106ED0000AF30700CB22A900C922A900C902A80011
:106EE00010C0B30005F307000040EB00510007009D
:106EF0000004E0000300320040002000300798004A
:106F0000490037000000EB00000F78001C0037003C
:106F10004E4090000080FB00610060000004E00033
:106F20000B00320010C0B300C3FF07000004E000F4
:106F30000300320040002000300798003A0037007C
:106F40002E4090000004A200204798000700370060
:106F50000040EB00B8FF07000004E000030032002F
:106F600040002000300798002F0037004E4090006E
:106F70000080FB000000D100404798001E0FE80091
:106F8000700020009E0F1000E1FF36002E409000A0
:106F90000004A200204798002E409000A6FF0700A2
:106FA0000004E00003003200400020003007980099
:106FB0001D003700C922A800CB22A90010C0B300D1
:106FC0001C0007000004E000030032004000200025
:106FD0003007980014003700E4FE0700E24F50002D
:106FE00003003A0040002000300798000E003700F0
:106FF000DEFE07000080FB00000F7800200020006C
:107000009E0F100003003A00400020003007980057
:1070100005003700C902A900CB02A9001E007800B4
:107020000080FB00300798003E0090000080FA00CE
:10703000000006000600FA00204798000080EB00E0
:10704000000F7800CBC2BF00614060008080FB0071
:107050002E4090000080FB00808F500003003A001B
:107060000000EB0020079800050037001E0FE90024
:107070001E00E000F3FF3A001000200020079800F7
:107080002E0090000080FA00000006001400FA00B4
