:020000040000FA
:1000000000020400000000000CA300000CA300008C
:100010000CA300000CA300000CA300000CA3000024
:100020000CA300000CA300000CA300000CA3000014
:100030000CA300000CA300000CA300000CA3000004
:100040000CA300000CA300000CA300000CA30000F4
:100050000CA30000BA720000E07200000CA30000C4
:100060000CA300000CA300000CA300000CA30000D4
:100070000CA300000CA300000CA300000CA30000C4
:100080000CA300000CA300000CA300000CA30000B4
:100090000CA300000CA300000CA300000CA30000A4
:1000A0000CA300000CA300000CA300000CA3000094
:1000B0000CA300000CA300000CA300000CA3000084
:1000C0000CA300000CA300000CA300000CA3000074
:1000D0000CA300000CA300000CA300000CA3000064
:1000E0000CA300000CA300000CA300000CA3000054
:1000F0000CA300000CA300000CA300000CA3000044
:100100000CA300000CA300000CA300000CA3000033
:100110000CA300000CA300000CA300000CA3000023
:100120000CA300000CA300000CA300000CA3000013
:100130000CA300000CA300000CA300000CA3000003
:100140000CA300000CA300000CA300000CA30000F3
:100150000CA300000CA300000CA300000CA30000E3
:100160000CA300000CA300000CA300000CA30000D3
:100170000CA300000CA300000CA300000CA30000C3
:100180000CA300000CA300000CA300000CA30000B3
:100190000CA300000CA300000CA300000CA30000A3
:1001A0000CA300000CA300000CA300000CA3000093
:1001B0000CA300000CA300000CA300000CA3000083
:1001C0000CA300000CA300000CA300000CA3000073
:1001D0000CA300000CA300000CA300000CA3000063
:1001E0000CA300000CA300000CA300000CA3000053
:1001F0000CA300000CA300000CA300000CA3000043
:10020000FFFFFF00FFFFFF000CA300000CA3000096
:100210000CA300000CA300000CA300000CA3000022
:100220000CA300000CA300000CA300000CA3000012
:100230000CA300000CA300000CA300000CA3000002
:100240000CA300000CA300000CA300000CA30000F2
:100250000CA30000BA720000E07200000CA30000C2
:100260000CA300000CA300000CA300000CA30000D2
:100270000CA300000CA300000CA300000CA30000C2
:100280000CA300000CA300000CA300000CA30000B2
:100290000CA300000CA300000CA300000CA30000A2
:1002A0000CA300000CA300000CA300000CA3000092
:1002B0000CA300000CA300000CA300000CA3000082
:1002C0000CA300000CA300000CA300000CA3000072
:1002D0000CA300000CA300000CA300000CA3000062
:1002E0000CA300000CA300000CA300000CA3000052
:1002F0000CA300000CA300000CA300000CA3000042
:100300000CA300000CA300000CA300000CA3000031
:100310000CA300000CA300000CA300000CA3000021
:100320000CA300000CA300000CA300000CA3000011
:100330000CA300000CA300000CA300000CA3000001
:100340000CA300000CA300000CA300000CA30000F1
:100350000CA300000CA300000CA300000CA30000E1
:100360000CA300000CA300000CA300000CA30000D1
:100370000CA300000CA300000CA300000CA30000C1
:100380000CA300000CA300000CA300000CA30000B1
:100390000CA300000CA300000CA300000CA30000A1
:1003A0000CA300000CA300000CA300000CA3000091
:1003B0000CA300000CA300000CA300000CA3000081
:1003C0000CA300000CA300000CA300000CA3000071
:1003D0000CA300000CA300000CA300000CA3000061
:1003E0000CA300000CA300000CA300000CA3000051
:1003F0000CA300000CA300000CA300000CA3000041
:10040000CF272200007F22000001880000000000AA
:100410000C000700C01C290001002000110007008B
:10042000000020000000E000020032000000020096
:100430000000000078A10200000000000040DA0087
:100440000000FE004440A900203120000000E00030
:100450000300320000002000A00188004440A800F2
:100460000000060091018800800078000000EB0089
:1004700015003700E280400032A0B4009101BA00BC
:10048000E280400032A0B4009102BA00E280400055
:1004900032A0B4000002EB00472BDE00F507B200EB
:1004A000602CE10004003A000059EB008301E900F0
:1004B000FDFF3E00040037006128E100010032002A
:1004C0000082EB00040007001101BA000200E00006
:1004D000E8FF3A00000006003159BA008301E90044
:1004E0000C0032002159BA008301E90008003200F3
:1004F0000400E00003003A00E280400032A0B400B3
:10050000F5FF370011D9BA008301E900FAFF3A007C
:100510008100E800E180400032A0B4000000060045
:1005200000000000000000000000000000000000CB
:1005300000000000000000000000000000000000BB
:1005400000000000000000000000000000000000AB
:10055000000000000000000000000000000000009B
:1007E0000000000000000000889FBE008A9FBE003D
:1007F000010578000100E0000400350008003C001D
:100800000000E0002000320005003700600010000A
:10081000E080180002003B0001F02C001A003700B5
:100820000004BE006011B8006B0920000982CF00EF
:10083000020039000882CF000441B0006942520032
:100840000E00320008003B008281710061016400EB
:100850008904D1000884D3008B05E8000442E80035
:10086000F9FF3A00050037000804440089844C0071
:100870008B05E9000442E900FBFF3A002C01070068
:100880000AF0A70001F0A0004F05BE004F04BE0013
:1008900000000600F4FF2F004B0137001400200079
:1008A00049013700889FBE008A9FBE008C1F7800D8
:1008B000600107006701330003866C006450E100AB
:1008C0002E0032006420E100330032006150E1006C
:1008D0002F0032006120E100310032008585550093
:1008E000EB07B000090020000804200005003700D5
:1008F0000804440089844C000A00310006034300C8
:1009000087834B000001530081815B00F8FF3300B7
:100910000203BE000800A0000804440089844C00C3
:10092000F6FF3900C639DD00830173000100320093
:10093000130020008904D1000884D3000998A30083
:10094000050032000800A7000300A0008904D100C0
:100950000884D3008B05E8008904D1000884D30003
:100960000001EB000281D200F100070001F0A100BC
:100970000CF0A70001F0A0003F0137006420E10067
:10098000410132000801BE000200BE00F7FF37003F
:100990006120E1003C0132006000B800F3FF370045
:1009A0000000200001F82700F0FF370003F0A2004C
:1009B000889FBE008A9FBE008C1F78001D01070023
:1009C000240133006450E1004F0032006420E10054
:1009D0005200320003826C0007003B000905D00082
:1009E0000306D000820F54000C065D00020039009F
:1009F00002003200890178000306780085825500E4
:100A000004003D000003FD008103FD008502EA00B3
:100A10008B854200840F720002003B0060001000D2
:100A2000E08018006011B8000005EB007A28E100B2
:100A30000A00390006007800C75DDD00F707B20044
:100A4000878075002D003700828171000A017800CF
:100A5000610560008180D1000080D3008502E9003B
:100A6000F9FF3B00060440008784480002003B0079
:100A700060041400E0841C000988A3000700320011
:100A80008A81710082817100610164008904D10052
:100A90000884D3008B05E800170037000978A3000D
:100AA00013003A000B00E000130034008B05E9004E
:100AB0000804440089844C000A4474000978A300A7
:100AC0000D003A000B00E000070034008B05E90040
:100AD0000804440089844C0001003A000B00200007
:100AE0000978A300F7FF32000001EB000200370095
:100AF000828171000A0178008D0007000CF0A700C8
:100B000001F0A000DC0037006420E10002003A00A0
:100B1000838F6C00DC0033000801BE000200BE00C1
:100B2000D5003700889FBE008A9FBE008C1F7800CA
:100B3000C0000700C700330003866C006450E1006A
:100B4000240032006420E100270032006150E100FF
:100B5000220032006120E100210032008B8542003A
:100B6000EB07B1000134B800003AB80008044200B5
:100B700089844A00013AB8000030B80088804000FB
:100B800009014A0004003300000040008180480051
:100B9000020149008B05E900C909DD0083017000ED
:100BA0000100320013002000C814DE004814DD00EC
:100BB0004709DE001200B200C808DE000884700099
:100BC0005B00070001F0A1000CF0A70001F0A000FD
:100BD000A90037006120E100AB0032000801BE002F
:100BE0000200BE00F7FF37006150E100FCFF3A0051
:100BF000A50037000001BE00A60007000470A70092
:100C000003F0A10003F8A30013003A006509B10046
:100C100010003200090035006928E10002003500AB
:100C2000010028000000050000004000818048000D
:100C30008502E900FCFF3A0000000600F88F420040
:100C4000050035008100D1000080D3008502E80056
:100C5000FCFF3A00000006008000EB0000000500E9
:100C60006022B800060220000000D0008180D2007F
:100C70000482D2008582D2000000A000020252004D
:100C800083825A00030031000202420083824A003C
:100C90000000A1000603E900F3FF3A00000006008F
:100CA000EFFF07000400BE00000006000001BE00C8
:100CB000780007000470A70003F0A1006509B100E7
:100CC000160032000D0035006828E10006003500EE
:100CD000F0FF2F00F1FF27000300E00013003B00AE
:100CE000010028000000050000004000818048004D
:100CF0008502E900FCFF3A0008003700F88F420047
:100D000002003C008000EB00000005008100D100E3
:100D10000080D3008502E800FCFF3A000300E000F9
:100D200002003B0060001000E08018000000060098
:100D300081002000618055000B003D000B00200069
:100D400061FE2F000100E1001D003400828171006E
:100D5000610164008904D1000884D3000000E80028
:100D6000FAFF3A0071002000610064000300700087
:100D7000020060000900320061044400E0844C007D
:100D80000988A500050032008B05E8006808E1002D
:100D900002003A008904D1000884D300F20F200039
:100DA0000258E10005003D00C75DDD00F907B20013
:100DB0008980750008007800000006000BF8270005
:100DC0008B00780000000500889FBE008A9FBE004F
:100DD000841F7800170007004F00780011003300CF
:100DE000F0FF2F00838F6C0006003B0004056500B8
:100DF0000A00A7000800370009F0A6001000200034
:100E000008003700820F5400838F5C000300390014
:100E10001000200001003E000000200009F0A700A3
:100E20000000EA004F05BE004F04BE000000E000D5
:100E3000000006000004BE00160007000003BE000C
:100E40000405BE000200BE0012000700844F7500BA
:100E5000000006000200BE006450E10005003600FC
:100E60006420E100020036000968A30001003A0096
:100E70000800BE000160A0004F0678004F05BE00CC
:100E80004F04BE0000000600F0FF2F00F1FF270016
:100E9000F9FF3700C70ADE00F107B200F50FB20014
:100EA00008003200E1CF4200020032000170A000D1
:100EB00024000500810F70000100320004080500C5
:100EC00044000500810F700002003A001400050084
:100ED0008502E9000000400081C04800FCFF3B00A3
:100EE0000170A00024000500005E0000BCE20000CC
:100EF000613F0000DD830000C29C00007E200000F6
:100F0000A3FD00001F4100009DC30000217F0000E1
:100F1000FCA20000401E00005F010000E3BD0000D5
:100F20003E60000082DC0000237D00009FC10000C5
:100F3000421C0000FEA00000E1BF00005D030000B5
:100F400080DE00003C620000BEE00000025C0000A9
:100F5000DF810000633D00007C220000C09E000095
:100F60001D430000A1FF000046180000FAA4000085
:100F7000277900009BC5000084DA00003866000075
:100F8000E5BB000059070000DB8500006739000061
:100F9000BAE400000658000019470000A5FB000055
:100FA00078260000C49A0000653B0000D987000045
:100FB000045A0000B8E60000A7F900001B45000035
:100FC000C69800007A240000F8A60000441A000029
:100FD00099C70000257B00003A64000086D8000015
:100FE0005B050000E7B900008CD20000306E000005
:100FF000EDB30000510F00004E100000F2AC0000F5
:101000002F71000093CD0000114F0000ADF30000E0
:10101000702E0000CC920000D38D00006F310000D4
:10102000B2EC00000E500000AFF10000134D0000C4
:10103000CE900000722C00006D330000D18F0000B4
:101040000C520000B0EE0000326C00008ED00000A8
:10105000530D0000EFB10000F0AE00004C12000094
:1010600091CF00002D730000CA9400007628000084
:10107000ABF500001749000008560000B4EA000074
:1010800069370000D58B000057090000EBB5000060
:10109000366800008AD4000095CB00002977000054
:1010A000F4AA000048160000E9B70000550B000044
:1010B00088D60000346A00002B75000097C9000034
:1010C0004A140000F6A80000742A0000C896000028
:1010D000154B0000A9F70000B6E800000A54000014
:1010E000D78900006B3500004C450000540000001B
:1010F0004946000000540000484500004E00000032
:10110000454C000053450000004700004F540000CC
:101110004F000000474F0000535500004200000000
:101120005245000054550000524E0000005200008D
:10113000454D000000500000524900004E54000090
:10114000004900004E5000005554000000460000C9
:101150004F520000005400004F0000004E450000B8
:1011600058540000005200004541000044000000B7
:10117000444100005441000000530000544100006D
:10118000525400000053000054410000525400002B
:1011900052000000535400004F5000000053000064
:1011A000544F00005052000000530000454E000014
:1011B000440000005245000043450000495600002D
:1011C00045000000434C00004B000000444100007B
:1011D0005400000042490000545200004541000004
:1011E000440000004144000043000000415500005D
:1011F00058000000505300005500000050550000FA
:101200004C4C0000555000000041000055580000B3
:10121000504900004E0000004652000045510000B9
:1012200000440000555400005900000044450000EF
:101230004C410000590000004D41000043520000A5
:101240004F000000454E0000440000000052000026
:10125000554E0000004C00004953000054000000AF
:101260004558000049540000004400004542000079
:1012700055470000004E00004557000000000000E8
:101280003E200000000800002008000000000000D0
:1012900057610000726E0000696E0000673A00003E
:1012A000206E00006F200000766F00006C7400005C
:1012B00061670000652000006F6E0000205600008E
:1012C000707500006C6C00007570000020700000EC
:1012D000696E0000002000003D2000000056000064
:1012E0005245000047200000746F00006F2000008E
:1012F0006C6F0000772C0000206900007320000054
:101300007468000065720000652000006120000024
:10131000736800006F720000743F0000002E000030
:10132000203C0000003E0000002E000020000000D5
:101330000D0A000028000000293E000020000000E7
:1013400042750000732000005069000072610000C7
:10135000746500002076000033000000466900003C
:10136000726D000077610000726500002076000059
:10137000352E0000362000002872000034370000AF
:101380003329000020000000202800000041000058
:10139000330000004234000000420000350000002D
:1013A00042380000005500004E4B000000290000AC
:1013B00000490000090000004F090000004800003B
:1013C000090000004C090000004500006E74000098
:1013D0006572000020720000617700002076000036
:1013E000616C000075650000206600006F720000EF
:1013F0002042000052470000000000003062000060
:1014000000300000303000002C00000030300000C0
:101410000030000031320000333400003536000067
:1014200037380000394100004243000044450000C5
:101430004630000078000000436F0000756C00002B
:10144000646E000027740000206B000065650000DA
:101450007020000075700000000000005350000074
:1014600049310000000000000029000000200000B9
:1014700057000000205200000049000032430000E5
:10148000310000003A200000000000002E000000A3
:101490003157000030310000000000000808000053
:1014A00008080000080000000000000020480000BC
:1014B0007A000000000000000041000052540000CB
:1014C0003100000042420000494F0000310000009E
:1014D000524100005731000000000000314100007F
:1014E0004C530000000000004F4300004431000056
:1014F00000000000000000000000000029000000C3
:101500000000000000000000000000001A00FA00C7
:101510000000EB00100F98000000EB0050698800FD
:101520000000EB00406988000000EB00A04088004C
:101530000000EB00606988000000EB0010079800D5
:101540000000EB0040079800140037000000EB009B
:10155000200798000B0037004E009000AE0090006E
:101560004500DD0081004000E0D220008080400086
:101570000040EB00804878002E0090000000E8005A
:10158000200798002E009000FF0F5000F2FF34005B
:101590004E0090000000E800400798004E009000C8
:1015A000E40F5000E9FF34000000EB00706E88008B
:1015B000A1408000E00220000088B9006102200004
:1015C00080804000E093200000804000066E020012
:1015D00000000000D140800000202000008060005A
:1015E0000000E0000400320071002000C05920001B
:1015F000969E02000000000000942800066E020083
:1016000000000000ED003700706E80000000E00078
:1016100063003200706E80000000E900706E880088
:101620000000EB00200798001E0037004269800090
:10163000706E8000AE0090004500DD00810040002B
:10164000E0D22000008040009040780080C220005E
:101650000000410001487800706E8000AE009000EC
:101660004500DD0081004000E0D220000080400005
:1016700010407800627202000000000040698000A3
:101680000000E800406988002E0090000000E8009B
:101690002007980041698000F00F20000080600062
:1016A00040698800706E8000AE0090004500DD004B
:1016B00081004000E0D2200000804000104078000F
:1016C0000004E000D9FF3A000000EB00706E8800D3
:1016D0003300370080B8200010407800624060007E
:1016E0000004E0002E003200A1408000E002200053
:1016F0000088B900FA004000E0932000008040001C
:1017000010007800000001000000E000240032001A
:10171000A1408000E00220000088B90061022000A2
:1017200080804000E093200000804000066E0200B0
:101730000000000000942800066E02000000000077
:101740005169800040698000808F50001400320091
:1017500050698000200798000D003700AE0090000F
:1017600080C22000008040001040780062720200B9
:1017700000000000AE009000F00F2000008060002C
:10178000200798002E0090000000E8002007980035
:10179000AE00900040698000808F5000EFFF3A005B
:1017A00044720200000000000004E000C9FF3200A3
:1017B0005072020000000000604798006E409000E8
:1017C0000080FB00200F98002E089000E80F5000CA
:1017D00011003200AE089000E88F500007003C0076
:1017E0002E0990000200E0003C003200AE0990009B
:1017F000E28F5100440032004B0037002E08900069
:10180000EA0F500013003200AE089000ED8F500038
:1018100010003200440037004169800050698000A8
:10182000808F500065003200406980000000E900B0
:101830004069880041698000F00F2000008060004E
:101840004069880030942800066E02000000000005
:101850005A00370010002000100F980040698000E7
:101860008000E800F00F2000808060005069800058
:10187000808F50000D0032004169800080C220003E
:10188000808040000040EB00804878004069800084
:101890000000E8004069880041698000F00F2000E6
:1018A00000806000406988000800370070C0B30005
:1018B00062720200000000004169800080C22000C6
:1018C000808040000040EB00804878007094280041
:1018D000326E020000000000380037001E00900049
:1018E0000000E800100798001E009000F40F500060
:1018F00032003A00A0730200000000000000EB007C
:10190000100798002D0037001E009000E40F5000D3
:101910002A003400B08B0200000000000000EB0041
:101920001007980025003700406980008000E8001B
:10193000F00F20008080600050698000808F500090
:10194000160032006E409000FF4F50001B00360022
:101950006E4090000004E000180035006E409000DA
:101960006272020000000000416980006E41900038
:1019700080C220000080400002487800406980005A
:101980000000E8004069880041698000F00F2000F5
:1019900000806000406988000800370070C0B30014
:1019A00062720200000000004169800080C22000D5
:1019B000808040000040EB00804878001E089000C6
:1019C0000000E00010FF32004069800070079800BE
:1019D00050698000600798000000EB00100F98002D
:1019E0000000EB00000F98000000EB006069880029
:1019F000D140800000202000008060000000E00056
:101A0000F20432004E3102000000000051002000BC
:101A1000305A2000209F020000000000100020002B
:101A2000000F9800E90437005169800080C220004F
:101A30000080400010407800604798006E409000A1
:101A40000080FB006101B900320F9800430F98003D
:101A5000E0072000010020003E099000CE09900020
:101A6000800F5100818F5900AA043E003E0890006B
:101A7000CE08900000600100A8043700A5043700DC
:101A8000A4043700A3043700A2043700A1043700E0
:101A9000A00437009F0437009E0437009D043700E0
:101AA0009E0437009B0437009A0437009B043700DC
:101AB00098043700970437009604370095043700E0
:101AC00094043700930437009204370091043700E0
:101AD000900437008F0437008E0437008D043700E0
:101AE0008C0437008B0437008A04370089043700E0
:101AF00088043700870437008804370065043700FE
:101B0000DC0237003501370042013700EB013700B6
:101B1000D90137007F043700B30237007D04370056
:101B20007C0437007D0437007C0437001104370043
:101B30002A043700F50337005603370055033700F2
:101B40005403370053033700520337005103370063
:101B5000500337004F0337004E0337004D03370063
:101B60006C0437006B043700F4013700CF003700F6
:101B7000680437004700370054013700460137003A
:101B8000640437006C003700B80137006104370087
:101B9000600437005F0437005E0437005D043700DF
:101BA0005C0437005B0437006D00370059043700D0
:101BB00058043700570437009500370055043700A4
:101BC00054043700D2013700520437005104370063
:101BD00050043700530137004E0437004D043700DE
:101BE0004C04370007033700D503370017033700CD
:101BF00009043700EC0337004604370019013700A9
:101C00002F003700420037008A01370041043700B7
:101C1000310037003300370016003700200037004E
:101C20003C0437003B0437005A00370022003700DD
:101C300038043700240037006300370035043700CC
:101C400074033700AE013700320437003104370027
:101C50001F003700650137002E0437002D043700C0
:101C60002C043700F0023700AD00370000033700C6
:101C7000CD003700E40607000000E00027043A002A
:101C800050698000600798004069800070079800E4
:101C900022043700369F0200000000001F043700B6
:101CA00039080700A04080000000E0001B0432005B
:101CB0009E080700190437004B0607001704370079
:101CC000D709070015043700AF09070013043700D0
:101CD0002309070011043700B67A02000000000053
:101CE0000E043700A04080000000E00005003A002C
:101CF000D1012000305D2000209F02000000000084
:101D0000060437001A7902000000000003043700BF
:101D100080B82000104078000000A10081B82000A9
:101D20008048780061012000805A2000209F020036
:101D300000000000F903370080B820001040780050
:101D40000000A00081B820008048780051012000E8
:101D5000E05B2000209F020000000000EF0337003E
:101D600080B82000104078000020A00081B820003A
:101D700080487800C1012000B07E2000969E0200BD
:101D80000000000070942800326E02000000000085
:101D9000E203370080B82000104078000020A10046
:101DA00081B8200080487800B1012000007D20002B
:101DB000969E02000000000070942800326E02001F
:101DC00000000000D5033700A04080000000E000C4
:101DD00005003A00D1012000305D2000209F020064
:101DE00000000000CD033700CB62A900C962A90042
:101DF00051012000005F2000969E020000000000BC
:101E000070942800326E020000000000C303370007
:101E1000A04080000000E00005003A00D101200051
:101E2000305D2000209F020000000000BB0337004F
:101E300080B8200010407800684060000004E00096
:101E400004003A002102200050E82000209F0200F8
:101E500000000000C962A800CB62A9004101200077
:101E600050602000969E0200000000007094280040
:101E7000326E02000000000021E3A800B0C0B300F1
:101E8000B69A02000000000080007800F0042000F4
:101E9000808F500003003E0080942800326E0200C4
:101EA0000000000021E3A9009C0337005069800076
:101EB0000000E8005069880051698000F00F2000A0
:101EC0000080600050698800B5050700C90307005D
:101ED000200798002E009000007102000000000012
:101EE000B0962800066E0200000000002E00900050
:101EF0009E70020000000000B0962800066E0200EE
:101F0000000000002E009000666E0200000000003D
:101F100070942800326E0200000000007F0337003A
:101F2000506980000000E800506988005169800015
:101F3000F00F2000008060005069880098050700BD
:101F4000AC030700200798002E009000569C02006A
:101F5000000000000080FB00200798002E00900089
:101F60000071020000000000B0962800066E02001A
:101F7000000000002E0090009E7002000000000093
:101F8000B0962800066E0200000000002E009000AF
:101F9000666E02000000000070942800326E02009D
:101FA000000000005D033700A04080000000E0005A
:101FB00005003A0011C0B30010C0B30096970200AC
:101FC0000000000055033700A101200090612000AF
:101FD000209F02000000000050033700C69F02004F
:101FE000000000000000E0004C033200510020001F
:101FF00030632000209F02000000000023C2BF00C9
:10200000614060000004E000FCFF32000000FE00C0
:1020100042033700C69F0200000000000000E000FD
:102020003E033200A100200080632000209F0200B8
:102030000000000040062000F49B020000000000A9
:102040006C9A02000000000023C2BF0061406000E3
:102050000004E000FCFF320081BF2A0001400100C3
:102060002E033700080507000000E800400798002D
:1020700002003700F47B0200000000004E009000D8
:102080000000E900400798004E0090000000E000CA
:10209000F8FF3A0021033700FB0407000000E800C6
:1020A0004007980002003700D27B020000000000C9
:1020B0004E0090000000E900400798004E0090009C
:1020C0000000E000F8FF3A0014033700EE040700B8
:1020D0000000E800400798000B0037006101200075
:1020E00020642000969E020000000000167C020082
:1020F00000000000F06D0200000000007094280055
:10210000326E0200000000004E0090000000E90066
:10211000400798004E0090000000E000EFFF3A00FA
:10212000FE023700A04080000000E00005003A00F9
:10213000D1012000305D2000209F0200000000003F
:10214000F6023700C002A900C202A80021E3A800DD
:1021500020002000F49B020000000000A0C0B3009B
:10216000B69A02000000000080007800001B2000EA
:10217000808F50000F00360090C0B300B69A020066
:102180000000000080007800702B2000808F50003D
:10219000080036001101200080652000969E020094
:1021A0000000000070942800326E02000000000061
:1021B0000C003700C002A900C202A900F096280056
:1021C000326E020000000000210120009066200015
:1021D000969E02000000000070942800326E0200FB
:1021E0000000000021E3A900CC023700A0408000DD
:1021F0000000E00005003A00D1012000305D200021
:10220000209F020000000000C4023700C002A900A5
:10221000C202A9002101200090662000969E0200C3
:102220000000000070942800326E020000000000E0
:10223000BA023700F1002000A0392000969E02006B
:1022400000000000D09A02000000000011002000F1
:10225000903A2000969E0200000000007094280032
:10226000326E020000000000AC023700E29A020069
:1022700000000000A902370083040700400798000F
:102280006100200070682000969E0200000000009F
:102290004E0090004070020000000000210020006D
:1022A000D0682000209F0200000000004E00900037
:1022B000209C020000000000980237007204070012
:1022C000400798006100200070682000969E020080
:1022D000000000004E00900040700200000000006E
:1022E0002100200090EC2000209F02000000000050
:1022F0004E009000F49B02000000000087023700AF
:10230000D04080000090A000D040880083023700B9
:10231000A04080000000E00005003A00D10120004C
:10232000305D2000209F0200000000007B0237008B
:102330004A7C0200000000007802370010002000F4
:102340006069880010002000200798001000370006
:10235000516980002E00900080804000F00F200026
:102360008080600080C220000080400090407800A3
:10237000E0C3B30080CF500002003A000000EB0041
:10238000606988002E0090000000E8002007980097
:10239000516980002E00900080804000F00F2000E6
:1023A0008080600080C220000080400010407800E3
:1023B0000004E000E6FF3A00AE009000200220009A
:1023C000808F5000020034001000200060698800F7
:1023D000606980000000E00050023A00506980000F
:1023E0000000E8005069880051698000F00F20006B
:1023F00000806000506988007E0207002007980076
:1024000051698000F00F20008080600080C22000B1
:102410000080400090407800D0C3B30080CF5000CF
:1024200044003A002E0090000000E0003E0034001E
:102430002E009000E50F50003B003C0050698000EA
:102440000000E8005069880051698000F00F20000A
:1024500000806000506988002E0090000000E900B4
:10246000200798000000EB00400798000B003700A1
:102470002E009000CE0090004500DD00810040005D
:10248000E0D22000808040000040EB0080487800CF
:102490004E0090000000E800400798004E009000B9
:1024A000FF0F5000F2FF34000000EB0040079800DF
:1024B00015003700AE0190004E0290005169800077
:1024C00080C2200000804000104178004518DD00E7
:1024D00084004000E0D220000080400002487800E4
:1024E0004E0090000000E80040079800506980000E
:1024F0000000E8005069880051698000F00F20005A
:1025000000806000506988005169800080C220000E
:102510000080400090407800E0C3B30080CF5000BE
:10252000E4FF3A00FD0137001000200060698800D8
:10253000FA0137002E0090000000E0001B003A0076
:102540000000EB0040079800140037004E00900098
:102550000040E8009E70020000000000F098280093
:10256000066E0200000000004E0090004500DD00F5
:1025700080007800E0D2200000804000066E02005B
:102580000000000030992800326E020000000000B8
:102590004E0090000000E800400798004E009000B8
:1025A000E40F5000E9FF3400DC0137002E009000FA
:1025B0000000E000090034002E009000E50F5000FC
:1025C00006003C0070942800326E020000000000FB
:1025D000AE009000716E8800D0013700100020001E
:1025E00060698800CD013700506980000000E80074
:1025F0005069880051698000F00F20000080600061
:1026000050698800FB01070050079800E4030700A9
:1026100051698000F00F20008080600080C220009F
:10262000008040009040780090C2B30080CF5000FE
:102630000D003A00A1408000E00220000088B900AF
:10264000FC004000E09320000080400090007800F3
:102650005E0090000100010070942800326E0200BC
:1026600000000000AD013700100020006069880004
:10267000AA013700100020006069880010002000C7
:102680002007980010003700516980002E0090004C
:1026900080804000F00F20008080600080C2200019
:1026A000008040009040780020C2B30080CF5000EE
:1026B00002003A000000EB00606988002E009000E4
:1026C0000000E80020079800516980002E0090006B
:1026D00080804000F00F20008080600080C22000D9
:1026E00000804000104078000004E000E6FF3A005F
:1026F000606980000000E00088013A00710020005D
:10270000F0682000969E02000000000020C2B30086
:10271000627202000000000023003700516980004F
:10272000F00F20000080600050698800516980002F
:1027300080C22000008040001040780062720200D9
:10274000000000005169800080C22000008040002D
:10275000104078000000FB005007980080B820006F
:1027600010407800644060000004E0000500320082
:102770005E009000569C0200000000000080FB00FC
:1027800050079800A1408000E00220000088B900B6
:10279000E8004000E09320000080400090007800B6
:1027A0005E00900001000100506980000000E80018
:1027B0005069880051698000F00F2000808060001F
:1027C00080C22000008040009040780020C2B3000A
:1027D00080CF5000D1FF3A0050698000F10F2000F7
:1027E000010060005069880020C2B30062720200DC
:1027F0000000000070942800326E0200000000000B
:1028000046013700A1408000E00220000088B900A6
:1028100080007800E09320000080400010007800E5
:10282000000001003D013700A1408000E0022000CF
:102830000088B9008080E800E0932000008040001C
:10284000100078000000010034013700A140800032
:10285000E00220000088B900E4004000E09320007E
:102860000080400010007800000001002B013700BC
:10287000A1408000E00220000088B900E60040008E
:10288000E09320000080400010007800000001006C
:102890002201370071002000F0682000969E02009F
:1028A00000000000530107005007980050698000A5
:1028B0000000E9005069880051698000F00F200095
:1028C0000080600050698800EF0207000000E80007
:1028D000400798000F030700000F78001E00E0007B
:1028E000420032001E0078008040780070B720005F
:1028F000014878003D0037005E0090006E9B0200AA
:102900000000000070B7200010407800E84F500031
:1029100007003200B0C3B300627202000000000082
:1029200070B72000104078009E7002000000000088
:1029300080B8200010407800644060000004E0008F
:10294000050032005E009000569C0200000000006E
:102950000080FB0050079800A1408000E0022000AA
:102960000088B900E8004000E093200000804000AB
:10297000900078005E0090000100010020079800A0
:1029800000C2B3006272020000000000AE009000BE
:10299000F00F2000808F500014003C0061002000E8
:1029A00060692000969E02000000000080B82000B0
:1029B00010407800644060000004E0000500320030
:1029C0002E009000569C0200000000000080FB00DA
:1029D000200798002E0090006E9B0200000000006F
:1029E00000C2B30062720200000000004E009000BE
:1029F0000000E900400798004E0090000000E00051
:102A0000BDFF3A0070942800326E02000000000002
:102A1000C20037006100200060692000969E02001D
:102A200000000000980207000000E800400798003E
:102A3000B8020700000F78001E00E00029003200F5
:102A40001E0078008040780070B7200001487800B0
:102A500024003700A1408000E00220000088B90077
:102A6000EA004000E0932000008040001000780061
:102A7000000001006047980080B8200010407800F6
:102A8000644060000004E000040032006E409000EA
:102A9000569C020000000000604798006E409000C5
:102AA0000080FB006E9B02000000000070B7200059
:102AB00010407800E84F500007003200B0C3B30068
:102AC000627202000000000070B720001040780021
:102AD0009E7002000000000000C2B300627202009B
:102AE000000000004E0090000000E9004007980040
:102AF0004E0090000000E000D6FF3A0070942800DD
:102B0000326E0200000000008400370081002000C7
:102B1000C0692000209F020000000000A14080004A
:102B2000E00220000088B900EC004000E0932000A3
:102B3000008040001000780000000100770037009E
:102B400081002000406A2000209F02000000000059
:102B5000A1408000E00220000088B900EE004000A3
:102B6000E093200000804000100078000000010089
:102B70006A003700E1002000C06A2000209F0200A8
:102B800000000000A1408000E00220000088B900A1
:102B9000F0004000E093200000804000100078002A
:102BA000000001005D003700E1002000A06B200064
:102BB000209F020000000000A1408000E0022000F1
:102BC0000088B900F2004000E0932000008040003F
:102BD000100078000000010050003700C100200004
:102BE000B0672000969E020000000000A140800017
:102BF000E00220000088B900F4004000E0932000CB
:102C0000008040001000780000000100F06D02001C
:102C100000000000410037001B0207004007980039
:102C2000D1002000806D2000969E02000000000070
:102C30004E0090006E9B0200000000004E009000CD
:102C40000000E8004007980008003700A14080001D
:102C5000E00220000088B900F6004000E093200068
:102C60000080400010007800000001004E0090003D
:102C70000000E900400798004E0090000000E000CE
:102C8000F2FF3A0070942800326E0200000000004B
:102C900022003700FC0107000000E8004007980010
:102CA000A1002000506E2000969E0200000000004F
:102CB0000D003700A1408000E00220000088B9002C
:102CC000F8004000E09320000080400010007800F1
:102CD00000000100F06D02000000000000C2B3001F
:102CE00062720200000000004E0090000000E90047
:102CF000400798004E0090000000E000EDFF3A0011
:102D000001012000806C2000209F020000000000D4
:102D100002003700100020006069880050698000C0
:102D20000000E8005069880051698000F00F200021
:102D30000080600050698800606980000000E00049
:102D40001C00320051012000F06E2000969E02000F
:102D500000000000EE00900050698000808F50005D
:102D60000700310050698000804078006E009000BC
:102D700000C050009E7002000000000006003700F6
:102D800050698000804078006E00900000C05000C4
:102D90009E700200000000000000EB0060698800E7
:102DA00010002000000F980070942800326E02007E
:102DB000000000005169800040698000808F500051
:102DC00002003A0010002000000F98000E0890004A
:102DD0000000E00014FB32007E0090005069880083
:102DE0007E009000406988000000EB00100F980002
:102DF000EFF937000600FA000000EB00100798001A
:102E00000000EB00000F7800516980001E00900068
:102E100080804000F00F20008080600080C2200091
:102E2000008040009040780000C3B30080CF500085
:102E300043003400516980001E00900080804000F3
:102E4000F00F20008080600080C2200000804000E1
:102E50009040780090C3B30080CF500038003C0011
:102E6000516980001E00900080804000F00F20001B
:102E70008080600080C22000008040001040780008
:102E80008000FB0000FD2F00008F40001E0090001E
:102E90000000E80010079800120037001E007800BC
:102EA0006A00B900000F7800516980001E00900090
:102EB00080804000F00F20008080600080C22000F1
:102EC00000804000104078000000FB009E004000A1
:102ED00000FD2F00008F40001E0090000000E80061
:102EE00010079800516980001E009000808040000B
:102EF000F00F20008080600080C220000080400031
:102F000090407800F0C2B30080CF500051013400EF
:102F1000516980001E00900080804000F00F20006A
:102F20008080600080C220000080400090407800D7
:102F300090C3B30080CF5000D8FF34004501370064
:102F4000516980001E00900080804000F00F20003A
:102F50008080600080C220000080400090407800A7
:102F600000C3B30080CF500035013A001E0090002E
:102F70000000E80010079800516980001E009000D2
:102F800080804000F00F20008080600080C2200020
:102F9000008040009040780020C6B30080CF5000F1
:102FA0000B003200516980001E00900080804000BC
:102FB000F00F20008080600080C220000080400070
:102FC0009040780020C4B30080CF50002D003A001C
:102FD0001E0090000000E800100798001200370063
:102FE0001E00780000004000000F7800516980004A
:102FF0001E00900080804000F00F20008080600064
:1030000080C2200000804000104078000000FB00DB
:103010009E00400000FD2F00008F40001E00900029
:103020000000E80010079800516980001E00900021
:1030300080804000F00F20008080600080C220006F
:10304000008040009040780010C3B30080CF500053
:10305000E3FF3200516980001E0090008080400034
:10306000F00F20008080600080C2200000804000BF
:103070009040780000C3B30080CF5000D8FF3200EA
:10308000F4003700516980001E00900080804000ED
:10309000F00F20008080600080C22000008040008F
:1030A0009040780080C7B30080CF50000B00320002
:1030B000516980001E00900080804000F00F2000C9
:1030C0008080600080C22000008040009040780036
:1030D00080C5B30080CF50008E003A001E009000E3
:1030E0000000E80010079800470037001E00780035
:1030F0004400DD00000F7800516980001E00900040
:1031000080804000F00F20008080600080C220009E
:103110000080400090407800F0C2B30080CF5000A3
:1031200018003400516980001E009000808040002B
:10313000F00F20008080600080C2200000804000EE
:103140009040780090C3B30080CF50000D003C0049
:10315000516980001E00900080804000F00F200028
:103160008080600080C22000008040001040780015
:103170000000FB009E00400000FD2F00008F40007B
:103180001E003700516980001E00900080804000C2
:10319000F00F200000816000516980001E00900047
:1031A00080804000F00F20008080600080C22000FE
:1031B000008040009040780000C2B30080C07000E2
:1031C00080C2200000004100014878005169800061
:1031D0001E00900080804000F00F20008080600082
:1031E00080C2200000804000104078000000FB00FA
:1031F0009E00400090FA2F00008F40001E009000BB
:103200000000E80010079800516980001E0090003F
:1032100080804000F00F20008080600080C220008D
:103220000080400090407800F0C2B30080CF500092
:103230000B003400516980001E0090008080400027
:10324000F00F20008080600080C2200000804000DD
:103250009040780090C3B30080CF5000A3FF3400AB
:10326000516980001E00900080804000F00F200017
:103270008080600080C22000008040009040780084
:1032800000C4B30080CF50000B00340051698000AF
:103290001E00900080804000F00F200080806000C1
:1032A00080C22000008040009040780060C4B300DD
:1032B00080CF50008DFF3400516980001E009000C7
:1032C00080804000F00F20008080600080C22000DD
:1032D000008040009040780000C6B30080CF5000CE
:1032E0005C003400516980001E0090008080400026
:1032F000F00F20008080600080C22000008040002D
:103300009040780060C6B30080CF500077FF340053
:1033100050003700516980001E00900080804000FE
:10332000F00F20008080600080C2200000804000FC
:1033300090407800F0C2B30080CF500045003400C8
:10334000516980001E00900080804000F00F200036
:103350008080600080C220000080400090407800A3
:1033600090C3B30080CF50003A003C005169800008
:103370001E00900080804000F00F200080806000E0
:1033800080C2200000804000104078008000FB00D8
:1033900000FD2F00008F4000120037001E00780053
:1033A0006A00B900000F7800516980001E0090008B
:1033B00080804000F00F20008080600080C22000EC
:1033C00000804000104078000000FB009E0040009C
:1033D00000FD2F00008F40001E0090000000E8005C
:1033E00010079800516980001E0090008080400006
:1033F000F00F20008080600080C22000008040002C
:1034000090407800F0C2B30080CF5000110034002B
:10341000516980001E00900080804000F00F200065
:103420008080600080C220000080400090407800D2
:1034300090C3B30080CF5000D8FF340005003700A0
:1034400010002000606988000000EB002007980051
:103450000A003700516980001E0090000080400083
:103460005069880051698000F00F200000806000E2
:10347000506988001E007800200798002E009000F8
:103480000080FA00000006000400FA005069800085
:103490008000E800F00F20008080600080C22000E3
:1034A0000080400090407800A0C3B30080CF50005F
:1034B00013003A00506980000080E80050698800DD
:1034C00051698000F00F2000008060005069880082
:1034D00048FE0700000F7800506980000000E900F6
:1034E0005069880051698000F00F20000080600062
:1034F000506988001E00780010079800020037000D
:1035000010002000100798001E0090000080FA00B4
:10351000000006000400FA00506980008000E80006
:10352000F00F20008080600080C2200000804000FA
:1035300090407800B0C3B30080CF500013003A0031
:10354000506980000080E80050698800516980005F
:10355000F00F2000008060005069880025FE070001
:10356000000F7800506980000000E9005069880071
:1035700051698000F00F20000080600050698800D1
:103580001E00780010079800020037000000EB00D2
:10359000100798001E0090000080FA00000006004E
:1035A0000000FA0007003700506980000000E800C2
:1035B0005069880051698000F00F20000080600091
:1035C000506988005169800080C22000008040005E
:1035D0009040780000C2B30080CF5000F2FF32006C
:1035E0000080FA00000006000400FA000000EB0072
:1035F000000F7800506980000000E80050698800E2
:1036000051698000F00F2000008060005069880040
:10361000E3FF0700F7FD0700000F78001E00E00041
:103620004D003A000000EB0010079800130037002F
:103630001E0090000040E8009E70020000000000A4
:1036400050992800066E0200000000009E009000C5
:10365000E00220000088B900610220008080400064
:10366000E093200000804000326E02000000000065
:103670001E0090000000E800100798001E00900057
:10368000E80F5000EAFF3400710120004070200074
:10369000209F0200000000000000EB00606988002D
:1036A00013002000920020001100200010002000D4
:1036B000F6000700000FE900E0FF2F009E0F10004A
:1036C000030032000080EB009E0F100005003A005E
:1036D000E1002000B0712000209F020000000000E7
:1036E00042003700A1408000E00220000088B900BD
:1036F0000102200080804000E09320000080400014
:1037000010007800000001006C9A02000000000028
:103710001E007800A0408800A1408000E002200048
:103720000088B900FE004000E093200000804000C7
:1037300010007800000001001E00E00001003200CF
:10374000C222A80051002000305A2000209F020011
:1037500000000000250037001E0FE9008000200057
:103760009E0F10001D003C00A1408000E0022000E0
:103770000088B9000102200080804000E093200012
:103780000080400010007800000001006C9A0200E8
:10379000000000001E007800A0408800A1408000CA
:1037A000E00220000088B900FE004000E093200005
:1037B0000080400010007800000001001E00E000C2
:1037C00001003200C222A80051002000305A20001F
:1037D000209F02000000000004003700510120007B
:1037E00090722000209F02000000000040698000CD
:1037F0008000E900F00F2000008060005069880020
:103800000080FA00000006002600FA0010002000E8
:1038100020079800506980000000E9001007980018
:103820009E009000F00F20000080600010079800BC
:10383000430037009E00900080C2200000804000BE
:10384000104078000004E00036003A001E009000AE
:103850008000E800F00F20008080600080C220001F
:1038600000804000104078000004E0002D0032008D
:103870002E0090009E700200000000005099280069
:10388000066E02000000000010002000000F78000B
:103890000A0037001E0090009E004000F00F20003C
:1038A0008080600080C220000080400010407800CE
:1038B00062720200000000001E0FE8001E0090006F
:1038C0009E004000F00F20008080600080C2200039
:1038D00000804000104078000004E000EDFF3A0056
:1038E000AE0190001E0090008000E800F00F200064
:1038F00000816000E60047000380410002B07800CC
:103900002E0090000000E800200798002E00900094
:10391000EF0F50000E00320070942800326E02004B
:10392000000000001E0090000000E9001007980051
:103930009E009000F00F20000080600010079800AB
:103940009E00900050698000808F5000B9FF3A00BF
:1039500071002000E0732000209F020000000000A2
:10396000130020002E019000110020000000EB0049
:1039700046000700100798001E009000E10F40006D
:1039800003003A0010002000201798003C00370088
:103990000000EB0020079800160037004169800006
:1039A0002E00900080804000F00F20000081600019
:1039B0001E009000E600470000004000E080780014
:1039C0002E00900080804000F00F2000808060007A
:1039D00080C22000008040009040780080C220001B
:1039E00000004100014878002E0090000000E8002F
:1039F000200798001E009000E600470000004000ED
:103A0000E08078002E00900080804000F00F2000C1
:103A10008080600080C2200000804000104078005C
:103A20000004E000DDFF3A00406980008000E9000A
:103A3000F00F20000080600050698800516980000C
:103A40002E009000008040008080E800F00F2000F1
:103A50000080600040698800406980008000E900C3
:103A6000F00F20008080600080C220008080400035
:103A70000040EB00804878000000EB002017980021
:103A80002E1090000080FA00000006001E00FA00D0
:103A9000100F9800210F9800320F9800430F9800E4
:103AA0000000EB00400798000000EB0020079800A2
:103AB0000000EB00100798000000EB00000F7800FA
:103AC00080992800066E0200000000001E08900089
:103AD0009E70020000000000C0992800066E0200DF
:103AE0000000000067003700507202000000000074
:103AF000204F98002E4890000000FB00600F9800B7
:103B00006E089000ED0F500029003200EE08900082
:103B1000ED8F500007003C006E099000E80F510047
:103B20000D0032006E089000EA0F500020003200B5
:103B300035003700D0022000EE089000808F500042
:103B40001E003200800720006E099000800F510097
:103B5000270032002C0037004E0090000000E000EB
:103B6000070032004E0090000000E9004007980076
:103B700030942800066E020000000000410037006B
:103B80001E00E000060032000000EB00000F78008D
:103B900030942800066E0200000000003900370053
:103BA00070C0B300627202000000000035003700F0
:103BB0001000200020079800320037004E009000CF
:103BC0000000E00006003A00D0C2B30062720200BA
:103BD0000000000010002000000F780029003700CE
:103BE00070C0B300627202000000000025003700C0
:103BF0004E0890000000E000030032000080EB005F
:103C0000500F98005D003700AE489000F0C2B3003E
:103C100080CF500018003400AE48900090C3B3002D
:103C200080CF500014003C004E009000E30F500085
:103C30000600340070C0B300627202000000000091
:103C400040002000400798000E0037002E489000EA
:103C50006272020000000000CE0090006B0047007E
:103C60002E499000827078004E0090000000E8001D
:103C7000400798000300370070C0B3006272020072
:103C8000000000002E0090000000E00096FF3200CF
:103C900070942800326E0200000000004E00900078
:103CA0000000E00003003A001E089000500F98004A
:103CB000320037000000EB00100798004E00900023
:103CC0000000E90040079800CE00900031079800FE
:103CD000110037001E0090006A00B900100798001C
:103CE000BE0090004E009000808050006B004700A6
:103CF000614078008000FB001E0090008080400042
:103D000000FD2F0000804000100798004E0090003A
:103D10000000E900400798004E0090000000E0001D
:103D2000ECFF3D009E0090002E089000808F500018
:103D30000D0035009E0090003E089000808F5000DE
:103D400009003C001E00E000040032001E0090004C
:103D50000000EA00500F9800080037001E01900094
:103D6000520F980005003700B1012000E0EA200062
:103D7000209F02000000000049FF37005E0890000D
:103D80000080FA00000006000400FA00009A2800F3
:103D9000066E020000000000A081200010407800A4
:103DA000627202000000000070942800326E02006F
:103DB00000000000E09A2800066E020000000000EB
:103DC000D100200070802000969E020000000000BC
:103DD000A1BF2A000000EB007A730200000000007F
:103DE000000F78001E0078004800DE009E70020080
:103DF00000000000E0C2B300627202000000000098
:103E00001E0078009E7002000000000070942800E0
:103E1000326E0200000000006100200000762000E9
:103E2000969E020000000000B04080005871020021
:103E3000000000007100200070EA2000969E020041
:103E400000000000C0408000587102000000000027
:103E5000409C2800066E020000000000C040800068
:103E600010079800200423009E009000808F5000CF
:103E700016003200200423009E009000808F500026
:103E800005003E00300023009E009000808F50000F
:103E90000A00320019003700300423009E00900011
:103EA000808F50000D003200600423009E009000BF
:103EB000808F50000D00320010003700709C2800E9
:103EC000066E0200000000000F003700A09C2800D2
:103ED000066E0200000000000B003700D09C280096
:103EE000066E02000000000007003700009D280059
:103EF000066E02000000000003003700309D28001D
:103F0000066E020000000000709D2800326E020064
:103F100000000000E101200060762000209F0200E8
:103F2000000000000080FA00000006000000FA0017
:103F30005100200020922000969E02000000000008
:103F4000C1BF2A000000EB007A73020000000000ED
:103F500058710200000000006100200070922000F3
:103F6000969E020000000000E1BF2A000000EB0066
:103F70007A73020000000000587102000000000087
:103F800070942800326E020000000000C100200082
:103F900040782000209F0200000000007000070011
:103FA000C2C2BF00614060000004E00005003200B2
:103FB0001101200080652000969E02000000000094
:103FC000040037002101200090662000969E020028
:103FD00000000000C0C2B3006272020000000000D6
:103FE00000C2B3006272020000000000CBC2BF003A
:103FF000684060000004E00005003200410120003C
:1040000050602000969E020000000000040037006F
:1040100051012000005F2000969E02000000000079
:10402000C0C2B300627202000000000000C2B30010
:10403000627202000000000080B82000104078008A
:10404000684060000004E00005003200210220000A
:1040500000792000209F02000000000004003700CB
:10406000E1012000207B2000209F020000000000D2
:1040700080B8200010407800644060000004E00038
:1040800005003A00B1012000007D2000969E02004C
:104090000000000004003700C1012000B07E2000B5
:1040A000969E020000000000C0C2B30062720200CF
:1040B0000000000000C2B3006272020000000000B5
:1040C000B1012000C0202100969E020000000000E7
:1040D00070B72000104078009E70020000000000C1
:1040E00070942800326E02000000000080B82000AA
:1040F00010407800614060000004E00005003200DC
:1041000051012000E05B2000209F02000000000021
:104110000400370061012000805A2000209F020027
:1041200000000000A1408000E00220000088B900EB
:104130004102200080804000E09320000080400089
:104140001000780000000100C1002000407820002D
:10415000209F0200000000000080FA00000006001E
:104160000000FA00A1002000A0052100209F02000D
:104170000000000061042000200B2100209F0200AD
:1041800000000000A101200040062100969E0200D0
:1041900000000000A1408000E00220000088B9007B
:1041A0002102200080804000E09320000080400039
:1041B0001000780000000100A1002000E0072100AD
:1041C000969E020000000000004020005000070002
:1041D000001020004E000700002020004C000700C7
:1041E000000420004A0007000008200048000700E3
:1041F00070942800326E0200000000004100200090
:10420000800F2100969E02000000000021E3A8001C
:10421000A0C0B300B69A020000000000A271020024
:104220000000000011002000903A2000969E02003D
:104230000000000090C0B3006272020000000000A5
:1042400090C0B300B69A020000000000A271020004
:104250000000000011002000903A2000969E02000D
:104260000000000090C0B300627202000000000075
:10427000C0C0B300B69A020000000000A2710200A4
:104280000000000011002000903A2000969E0200DD
:104290000000000090C0B300627202000000000045
:1042A000B0C0B300B69A020000000000A271020084
:1042B0000000000011002000903A2000969E0200AD
:1042C0000000000090C0B300627202000000000015
:1042D00021E3A900004020001C000700001020007E
:1042E0001A0007000020200018000700000420002A
:1042F0001600070000082000140007007094280032
:10430000326E0200000000000080FA00000006008B
:104310000200FA00000F7800401680001E006000C6
:104320000000E00004003200909D2800066E0200AC
:104330000000000003003700C09D2800066E020048
:10434000000000000080FA00000006000200FA00F1
:10435000000F7800501680001E0060000000E00092
:1043600004003200F09D2800066E020000000000EC
:1043700003003700209E2800066E020000000000A7
:104380000080FA00000006000200FA005069800078
:104390000000E8005069880051698000F00F20009B
:1043A00000806000506988007DFC070091FA0700DA
:1043B000000F78001E00E0000600340040002000DE
:1043C0009E0F100003003C001E00E9009040880092
:1043D0000D0037000000EB0060698800210220001A
:1043E00040812000209F0200000000008001EB00BF
:1043F000420020001100200010002000A3FD070053
:104400000000E90090408800210120006083200026
:10441000209F0200000000000080FA00000006005B
:104420000200FA00506980000000E800506988002E
:1044300051698000F00F2000008060005069880002
:1044400057FC07006BFA0700104798001E409000C9
:104450000004E000090032001E409000EA4F5000C6
:1044600006003E001E4090000040E90080407800B9
:1044700000812000014878000F0037000000EB00A9
:1044800060698800D108200030872000209F02004A
:10449000000000008001EB00A200200011002000BD
:1044A0009000200079FD07000040E900804078007E
:1044B0000081200001487800008120001040780031
:1044C000E94F500010003A0035FC070049FA070098
:1044D000004F78001E04E0000B003A000000EB00E3
:1044E00060698800509E2800326E020000000000C3
:1044F0008001EB00F2FF27008000EB00200220008B
:1045000062FD0700004F780041012000009020006C
:10451000209F02000000000011012000B01F2100B8
:10452000209F02000000000023C2BF006140600025
:104530000004E000FCFF3200008120001040780001
:10454000E94F500003003A001E40780080720200DC
:1045500000000000409B0200000000000000370047
:1045600044720200000000000004E000FCFF320082
:1045700050720200000000008040780000C2B300CA
:1045800080CF500001003200F5FF37000080FA00B4
:10459000000006000000FA006173800040E7200080
:1045A000008040009040780030C8B30080CF5000B9
:1045B0000E003A00607380000000E800607388001D
:1045C00003003700607380000000E800607388001B
:1045D0006173800040E72000008040009040780038
:1045E00000CEB30080CF5000F6FF36000080FA0006
:1045F000000006000A00FA00300798000000EB00F7
:1046000020079800AE00900040E7200000804000A6
:104610009040780000CEB30080CF500003003E00F1
:104620000080EB004007980023003700AE009000A8
:1046300040E7200000804000104078008080FB00B0
:1046400000F22F0000804000100798002E0090001C
:104650008000E80040E72000008040001040780023
:104660000080FB004801DD002E0090008080E80003
:1046700040E7200000804000104078000080FB00F0
:10468000000F41009E0078003E009000808F500097
:1046900003003A002E009000400798000600370003
:1046A0009E0090002E0090000080400063004000BB
:1046B00020079800D3FF37004E0090000080FA00DA
:1046C000000006000600FA00881F78000000EB00DA
:1046D000000F78006173800040E7200000804000F8
:1046E0009040780080C2B30080CF500010003A00A4
:1046F000607380000000E8006073880029010700F3
:10470000000F78006173800040E7200000804000C7
:104710009040780090C2B30080CF5000B6003A00BD
:10472000607380000000E80060738800B20037000A
:104730006173800040E720000080400090407800D6
:1047400000C4B30080CF50001600360061738000B3
:1047500040E720000080400090407800A0C5B300F2
:1047600080CF50000F003E006273800040E72000C1
:1047700000004100104078008080FB00F0FB2F001B
:104780000080400080004000C0E020000080400029
:1047900010007800200798000200E800607388008D
:1047A000970037006173800040E7200000804000E0
:1047B0009040780000C8B30080CF500080003600E1
:1047C0006173800040E720000080400010407800C6
:1047D0000080FB00100798000100E800607388006B
:1047E000700920009E009000808F5000450032002C
:1047F000700920009E009000808F50000D003C004A
:10480000400920009E009000808F50001A00320066
:10481000600920009E009000808F50002F00320021
:10482000300920009E009000808F50001C00320054
:1048300052003700900920009E009000808F5000A9
:1048400022003200900920009E009000808F5000CE
:1048500045003500A00920009E009000808F500088
:1048600032003200B00920009E009000808F50007E
:104870003300320041003700A1408000E0022000F8
:104880000088B900EA004000E0932000008040006A
:104890001000780000000100000F7800560037007B
:1048A000A1408000E00220000088B900E80040003C
:1048B000E093200000804000100478008A00070088
:1048C00008000100000F78004B003700167C020042
:1048D00000000000000F780047003700A140800072
:1048E000E00220000088B900F4004000E0932000BE
:1048F000008040001000780000000100000F7800E8
:104900003D003700A1408000E00220000088B9008F
:10491000F8004000E0932000008040001000780084
:1049200000000100000F780033003700C2C2BF0052
:10493000614060000080FB00000F78002E0037000F
:10494000CBC2BF000080FB004300DE00614060007E
:104950000081FB00020078000080EA008180EA000C
:10496000000F780024003700C0C0B300B69A0200E0
:1049700000000000000F78001F0037000000EB006F
:10498000000F78001C0037001E0078006A00B90094
:10499000000F78006173800040E720000080400035
:1049A000104078000080FB009E00400000FD2F00BA
:1049B000008F4000607380000000E8006073880092
:1049C0006173800040E72000008040009040780044
:1049D000F0C2B30080CF5000070036006173800042
:1049E00040E72000008040009040780090C3B30072
:1049F00080CF5000E4FF36001E00780020079800AA
:104A00002E0090004F0478000080FA00000006009D
:104A10000600FA002BFF0700000F780000003700A7
:104A20006173800040E720000080400090407800E3
:104A3000A0C2B30080CF50000A0032006173800032
:104A400040E720000080400090407800F0C2B300B2
:104A500080CF5000030032001E007800200798002D
:104A60001E0037006173800040E720000080400096
:104A7000104078000080FB00100798000100E8005B
:104A800060738800A00220009E009000808F50007C
:104A900005003200F00220009E009000808F500040
:104AA00007003200DEFF370006FF070080007800B5
:104AB0001E0078000180B900000F7800D8FF370091
:104AC00000FF0700000178001E00780011000900B7
:104AD0000200D800000F7800D1FF37002E009000B0
:104AE0000080FA00000006000600FA00C8FF070078
:104AF000000F7800000037006173800040E720005D
:104B00000080400090407800D0C2B30080CF5000B9
:104B10000A0032006173800040E7200000804000FE
:104B200090407800B0C2B30080CF50000300320044
:104B30001E0078002007980017003700617380007E
:104B400040E7200000804000104078000080FB001B
:104B5000100798000100E80060738800B002200090
:104B60009E009000808F500008003200D00220008C
:104B70009E009000808F500001003200DEFF370061
:104B8000A3FF07001E0F1000DBFF3700A0FF070088
:104B90001E0F4000D8FF37002E0090000080FA0062
:104BA000000006000C00FA006273800040E720005D
:104BB00000004100104078008080FB00F0FB2F00D7
:104BC0000080400080004000C0E0200000804000E5
:104BD00090007800210798000200E80060738800C8
:104BE0000000EB00000F78000B0037009E017800FA
:104BF0006273800040E72000000041001040780010
:104C00008040780066004700817178000200E8006B
:104C1000607388001E0FE8006173800040E7200089
:104C2000008040009040780000C4B30080CF500066
:104C3000070036006173800040E7200000804000DC
:104C400090407800A0C5B30080CF50000E00360021
:104C50006173800040E720000080400090407800B1
:104C6000F0C2B30080CF5000E0FF360061738000D7
:104C700040E72000008040009040780090C3B300DF
:104C800080CF5000D9FF3E0097FF07001007980023
:104C900066004700104078000000FB0050079800B5
:104CA000C0032000DE009000808F500032003200F0
:104CB000C0032000DE009000808F500005003C0003
:104CC00010022000DE009000808F50004100320072
:104CD0004E003700D0032000DE009000808F50008F
:104CE00005003200E0032000DE009000808F5000BD
:104CF0000A003200450037000000EB004007980032
:104D0000AE0090001E009000808F500041003A00DD
:104D100011002000410798003E0037006600470060
:104D200090409000D0C3B30080CF500009003A00FB
:104D30000000EB0040079800AE0090001E009000BD
:104D4000808F50003300350011002000410798008B
:104D5000300037000000EB0040079800AE009000E4
:104D60001E009000808F50002A00340011002000A7
:104D700041079800270037006600470090409000E8
:104D8000D0C3B30080CF500009003A000000EB0010
:104D900040079800AE0090001E009000808F5000E9
:104DA0001C003C001100200041079800190037004A
:104DB0000000EB0040079800AE0090001E0090003D
:104DC000808F500013003D00110020004107980023
:104DD000100037006600470090409000D0C3B30039
:104DE00080CF500009003A000000EB004007980017
:104DF000AE0090001E009000808F50000500320031
:104E00001100200041079800020037000000EB006D
:104E1000400798004E0090000080FA000000060055
:104E20001C00FA00881F78000000EB006073880007
:104E30000000EB00300798000000EB00200798000E
:104E40000000EB00100798000000EB007073880072
:104E50000000EB00807388000000EB009073880076
:104E60000000EB0050079800D04080000080A000B8
:104E7000D04088000000EB00400798000900370090
:104E80004E00900080004000C0E020008080400084
:104E90000000EB00800878004E0090000000E80061
:104EA000400798004E009000F90F5000F4FF3400C6
:104EB000320437001E0090000000E00021003A009C
:104EC0006173800040E7200000804000904078003F
:104ED000F0CDB30080CF500003003E002000200042
:104EE00030079800280437006173800040E72000F5
:104EF00000804000104078008080FB0000F22F000E
:104F00000080400060079800607380008000E80027
:104F100040E7200000804000104078000080FB0047
:104F20004801DD00607380008080E80040E72000D9
:104F300000804000104078000080FB0000007100FD
:104F4000500798000000EB00100798006073800085
:104F5000E300400040E7200000804000104078005F
:104F60000080FB006101B90000F82F00F1FF2F0065
:104F70000201400083814800420F9800530F9800BF
:104F800010022000010020004E099000DE09900070
:104F9000800F5100818F5900EC033E004E089000B5
:104FA000DE08900000600100210037003500370066
:104FB000E6033700E5033700710037008100370052
:104FC000A3003700B7003700BE0037003B013700B1
:104FD00088013700DD033700EE0137003502370066
:104FE00099023700A0023700AE023700BC0237003A
:104FF000CA023700D8023700D403370076033700DF
:105000005A033700D1033700D0033700E2023700DC
:10501000F00237009D033700AB033700FC02370076
:105020001003370030033700B3033700C4033700E1
:105030001000200020079800607380006600400088
:1050400060738800607380008080E90040E7200082
:1050500000804000104078008080FB00F0FB2F00B3
:1050600000844000A0FE0700000178008800440092
:10507000C0E02000008040000208780045FD0700E5
:10508000B4033700100020002007980060738000F0
:105090006400400060738800C2FE07000000E0006A
:1050A0001C00320061738000310F980040E720003F
:1050B0003E09900000004100904078008041EB00E4
:1050C0004357980020C8B30080CF500002003A0038
:1050D00010C0B30040579800BE0890000100E800DF
:1050E000607388004E5190000204E0009903320082
:1050F00010002000100798006073800063005000CB
:105100006073880093033700607380000000E8003C
:10511000607388006173800040E7200000804000D9
:105120009040780030C8B30080CF500007003200B4
:105130006173800040E720000080400090407800CC
:1051400000CEB30080CF5000EFFF360061738000C7
:1051500040E72000008040009040780030C8B30055
:1051600080CF50007B033A00100020001007980009
:10517000607380000080E900607388007503370069
:105180001000200020079800607380006400400039
:105190006073880054FE070016FD0700000F7800BA
:1051A0008081EB009E8F1100030032001E0078000A
:1051B00060738800670337006000200030079800A4
:1051C00064033700100020002007980060738000FF
:1051D000640040006073880080738000E90F500015
:1051E00018003C0082738000617380006E009000A4
:1051F000008040008001E9008200410000E42000BE
:105200000080400003087800807380000000E80000
:105210008073880034FE0700F6FC0700000F78005A
:105220008080EB009E8F1000030032001E0178008A
:105230006273880047033700600020003007980041
:105240004403370070002000300798004103370006
:1052500000892800066E02000000000010002000F7
:1052600020079800807380000000E0000A003200F0
:10527000807380000000E9008073880080738000E4
:105280008000400000E42000008040001000780012
:10529000607388002F0337008000200030079800DB
:1052A0002C03370010002000200798006173800055
:1052B0006E00900000804000630040006073880032
:1052C000240337001000200020079800607380003E
:1052D00064004000607388005700370061738000ED
:1052E00040E72000008040009040780020C2B300DA
:1052F00080CF50001F003A00607380000000E8007B
:105300006073880010003700D04080000080A1004A
:10531000D04088006173800040E72000008040009A
:1053200010407800004178000100E80060738800B8
:10533000024078006272020000000000D04080004D
:105340000080A000D04088006173800040E720000A
:10535000008040009040780020C2B30080CF500011
:10536000E9FF3A00607380000000E8006073880085
:10537000310037006173800040E72000008040006A
:105380009040780000C4B30080CF50000700360082
:105390006173800040E7200000804000904078006A
:1053A000A0C5B30080CF50000D00360061738000AF
:1053B00040E7200000804000104078000004E0003A
:1053C00013003D006173800040E720000080400032
:1053D00090407800F0CDB30080CF50000C003E002C
:1053E000C1FD0700000F7800D04080000080A100C0
:1053F000D04088001E0078004070020000000000CD
:10540000D04080000080A000D04088000A00370013
:105410006173800040E720000080400090407800E9
:10542000B0C3B30080CF500003003A006073800027
:105430000000E800607388006173800040E720008E
:105440000080400090407800F0CDB30080CF500045
:1054500007003E006173800040E7200000804000AC
:105460009040780030C8B30080CF50009BFF3A00D6
:10547000607380008000E90040E720000080400069
:1054800090407800B0C3B30080CF500009003200D4
:10549000D04080000080A100D040880060922800A9
:1054A000326E020000000000D04080000080A000AA
:1054B000D040880037FC0700A6023700100020000B
:1054C00020079800D04080000080A100D0408800D4
:1054D0006073800064004000607388006173800026
:1054E00040E72000008040009040780020C2B300D8
:1054F00080CF500018003A00607380000000E80080
:10550000607388000A0037006173800040E7200064
:105510000080400010407800004178000100E80061
:105520006073880002407800627202000000000090
:105530006173800040E720000080400090407800C8
:1055400020C2B30080CF5000EFFF3A0060738000AC
:105550000000E800607388006173800040E720006D
:105560000080400090407800C0C2B30080CF50005F
:1055700004003A00607380000000E8006073880057
:10558000020037003000200030079800617380006F
:1055900040E7200000804000104078008080FB0041
:1055A000F0FB2F00008440008001EB00F2FF270099
:1055B0008000EB000000EB00461D02000000000030
:1055C0000001780088004400C0E020000080400016
:1055D00002087800607380000000E80060738800B3
:1055E000ECFB0700D04080000080A000D040880085
:1055F00058023700100020002007980060738000D8
:10560000640040006073880070738000E30F5000F6
:1056100004003C00707380000000E8007073880094
:1056200002003700400020003007980072738000AD
:105630006373800040E72000008041001040780044
:105640008080FB0000FC2F00008240006610B90043
:105650008080E80040E520000080400004087800D9
:105660000300E800607388006173800040E7200059
:105670000080400090407800D0C3B30080CF50003D
:1056800011003A00607380000000E8006073880039
:10569000707380006600B9008080E80040E520005B
:1056A00000804000100078000004E9000EFD0700B3
:1056B0000001780088004400C0E020000080400025
:1056C0000208780002003700300020003007980000
:1056D00063738000130F980040E720009E0890003D
:1056E00000804000904078000041EB000257980095
:1056F000B0C8B30080CF500002003A0013C0B3001E
:10570000035798009E0890000100E800607388002D
:105710000E5190000204E00009003200787380000E
:10572000F1FC0700000178006640B900E400400089
:1057300040E52000008040000208780002003700A9
:1057400030002000300798006173800040E720009F
:105750000080400090407800F0CDB30080CF500032
:105760000800360070738000627380006600B90024
:105770008000780040E520000080400002087800AA
:1057800002003700300020003007980081FB07003E
:10579000F00137001000200020079800607380009F
:1057A00064004000607388006273800040E720005E
:1057B00000004100104078008080FB0000FC2F00BA
:1057C000008F40000200E800607388005000200055
:1057D000300798000000EB00400798002F003700CA
:1057E0004E0090006600B9008080E80040E520008F
:1057F00000804000100078009E0F500024003A0006
:105800001E00E90080004000C0E020000080400051
:10581000100178004E0090006600B900E4004000DE
:1058200040E520000080400010007800800F51000B
:1058300012003D009E00E90001814000C0E0200010
:1058400000004100100078000001E8008180400065
:10585000C0E0200000804000020878004E00900068
:105860006600B9008000780040E52000008040001C
:1058700010007800607388000300370070738000A8
:105880000000E900707388000000EB00300798000A
:105890004E0090000000E8004007980071738000FF
:1058A0004E009000810F5000CDFF340039FB0700FF
:1058B000A8013700100020002007980060738000C6
:1058C0006400400060738800907380000000E00076
:1058D00027003A000000EB00400798000A0037005C
:1058E000CE00900040E7200000804000104078008B
:1058F0008080FB004E0090008080400030F22F003E
:1059000000804000400798004E009000E3004000F7
:1059100040E720000080400090407800E0C8B300DD
:1059200080CF500006003200CE00900040E72000FB
:1059300000804000104078000004E000E8FF3A00DA
:10594000CE00900040E7200000804000104078002A
:105950000004E000040032004E00900064004000AB
:1059600090738800020037009000200030079800F4
:1059700063738000030F7800907380006073880069
:105980009E00780040E72000008040001040780032
:105990008080FB00F0FB2F000084400049FB0700E3
:1059A0000001780088004400C0E020000080400032
:1059B0000208780060738000907388001E00E80081
:1059C000607388009173800040E7200000804000F1
:1059D00090407800C0C2B30080CF500003003A006E
:1059E000907380000000E80090738800917380003D
:1059F00040E72000008040009040780000CEB300D7
:105A000080CF50000E00360090738000E30040000D
:105A100040E720000080400090407800E0C8B300DC
:105A200080CF5000030032000000EB00907388002C
:105A3000030037009073800064004000907388007A
:105A4000D4FA070043013700100020002007980017
:105A5000617380006E009000008040006300400091
:105A6000607388003B013700100020002007980079
:105A7000607380006400400060738800A140800073
:105A8000E00220000088B90080007800E093200048
:105A9000008040001000780000000100BDFA0700FF
:105AA0002C01370010002000200798006073800050
:105AB0006400400060738800A1408000E002200084
:105AC0000088B9008080E800E0932000008040005A
:105AD0001000780000000100AEFA07001D01370039
:105AE00010002000200798006073800064004000D0
:105AF00060738800A1408000E00220000088B900A7
:105B0000E4004000E0932000008040001000780096
:105B1000000001009FFA07000E013700100020006E
:105B20002007980060738000640040006073880064
:105B3000A1408000E00220000088B900E60040009B
:105B4000E093200000804000100078000000010079
:105B500090FA0700FF00370010002000200798008F
:105B6000607380006400400060738800A140800082
:105B7000E00220000088B900E8004000E093200027
:105B80000080400010047800D7FB070008000100E7
:105B900080FA0700EF00370010002000200798006F
:105BA000607380006400400060738800CEFB0700D3
:105BB0000000E00003003200D27B02000000000081
:105BC00002003700F47B02000000000071FA0700B9
:105BD000E00037001000200020079800607380006C
:105BE0006400400060738800BFFB07000000E00015
:105BF00003003200C002A900C202A8000200370060
:105C0000C002A900C202A90062FA0700D100370051
:105C1000100020002007980060738000640040009E
:105C200060738800B0FB07000000E000060032004F
:105C300080B82000104078000000A00081B820004B
:105C4000804878000500370080B8200010407800B8
:105C50000000A00081B82000804878004DFA0700BD
:105C6000BC003700100020002007980060738000FF
:105C700064004000607388009BFB0700206188007F
:105C8000206180000000E00002003D000000EB0009
:105C9000206188002161800000FA2000808F500080
:105CA0000200340000FA200020618800306180008A
:105CB000E10F500002003C0020002000306188000D
:105CC0003161800030062000808F500002003400D7
:105CD0003006200030618800787802000000000063
:105CE0002CFA07009B0037001000200020079800C6
:105CF0006073800064004000607388007AFB0700D6
:105D000030618800206180000000E00002003D005A
:105D10000000EB00206188002161800000FA200073
:105D2000808F50000200340000FA200020618800BB
:105D300030618000E10F500002003C002000200094
:105D4000306188003161800030062000808F500073
:105D500002003400300620003061880078780200AC
