:020000040000FA
:100000000002040000000000E27D0000E27D00002C
:10001000E27D0000E27D0000E27D0000E27D000064
:10002000E27D0000E27D0000E27D0000E27D000054
:10003000E27D0000E27D0000E27D0000E27D000044
:10004000E27D0000E27D0000E27D0000E27D000034
:10005000E27D0000E02E0000062F0000E27D00009F
:10006000E27D0000E27D0000E27D0000E27D000014
:10007000E27D0000E27D0000E27D0000E27D000004
:10008000E27D0000E27D0000E27D0000E27D0000F4
:10009000E27D0000E27D0000E27D0000E27D0000E4
:1000A000E27D0000E27D0000E27D0000E27D0000D4
:1000B000E27D0000E27D0000E27D0000E27D0000C4
:1000C000E27D0000E27D0000E27D0000E27D0000B4
:1000D000E27D0000E27D0000E27D0000E27D0000A4
:1000E000E27D0000E27D0000E27D0000E27D000094
:1000F000E27D0000E27D0000E27D0000E27D000084
:10010000E27D0000E27D0000E27D0000E27D000073
:10011000E27D0000E27D0000E27D0000E27D000063
:10012000E27D0000E27D0000E27D0000E27D000053
:10013000E27D0000E27D0000E27D0000E27D000043
:10014000E27D0000E27D0000E27D0000E27D000033
:10015000E27D0000E27D0000E27D0000E27D000023
:10016000E27D0000E27D0000E27D0000E27D000013
:10017000E27D0000E27D0000E27D0000E27D000003
:10018000E27D0000E27D0000E27D0000E27D0000F3
:10019000E27D0000E27D0000E27D0000E27D0000E3
:1001A000E27D0000E27D0000E27D0000E27D0000D3
:1001B000E27D0000E27D0000E27D0000E27D0000C3
:1001C000E27D0000E27D0000E27D0000E27D0000B3
:1001D000E27D0000E27D0000E27D0000E27D0000A3
:1001E000E27D0000E27D0000E27D0000E27D000093
:1001F000E27D0000E27D0000E27D0000E27D000083
:10020000FFFFFF00FFFFFF00E27D0000E27D000036
:10021000E27D0000E27D0000E27D0000E27D000062
:10022000E27D0000E27D0000E27D0000E27D000052
:10023000E27D0000E27D0000E27D0000E27D000042
:10024000E27D0000E27D0000E27D0000E27D000032
:10025000E27D0000E02E0000062F0000E27D00009D
:10026000E27D0000E27D0000E27D0000E27D000012
:10027000E27D0000E27D0000E27D0000E27D000002
:10028000E27D0000E27D0000E27D0000E27D0000F2
:10029000E27D0000E27D0000E27D0000E27D0000E2
:1002A000E27D0000E27D0000E27D0000E27D0000D2
:1002B000E27D0000E27D0000E27D0000E27D0000C2
:1002C000E27D0000E27D0000E27D0000E27D0000B2
:1002D000E27D0000E27D0000E27D0000E27D0000A2
:1002E000E27D0000E27D0000E27D0000E27D000092
:1002F000E27D0000E27D0000E27D0000E27D000082
:10030000E27D0000E27D0000E27D0000E27D000071
:10031000E27D0000E27D0000E27D0000E27D000061
:10032000E27D0000E27D0000E27D0000E27D000051
:10033000E27D0000E27D0000E27D0000E27D000041
:10034000E27D0000E27D0000E27D0000E27D000031
:10035000E27D0000E27D0000E27D0000E27D000021
:10036000E27D0000E27D0000E27D0000E27D000011
:10037000E27D0000E27D0000E27D0000E27D000001
:10038000E27D0000E27D0000E27D0000E27D0000F1
:10039000E27D0000E27D0000E27D0000E27D0000E1
:1003A000E27D0000E27D0000E27D0000E27D0000D1
:1003B000E27D0000E27D0000E27D0000E27D0000C1
:1003C000E27D0000E27D0000E27D0000E27D0000B1
:1003D000E27D0000E27D0000E27D0000E27D0000A1
:1003E000E27D0000E27D0000E27D0000E27D000091
:1003F000E27D0000E27D0000E27D0000E27D000081
:10040000CFCC2100007F2200000188000000000006
:100410000C000700A05A2600010020001100070070
:10042000000020000000E000020032000000020096
:1004300000000000BE7A0200000000000040DA0068
:100440000000FE004440A900E0A821000000E000F8
:100450000300320000002000A00188004440A800F2
:100460000000060091018800800078000000EB0089
:1004700015003700E280400032A0B4009101BA00BC
:10048000E280400032A0B4009102BA00E280400055
:1004900032A0B4000002EB00472BDE00F507B200EB
:1004A000602CE10004003A000059EB008301E900F0
:1004B000FDFF3E00040037006128E100010032002A
:1004C0000082EB00040007001101BA000200E00006
:1004D000E8FF3A00000006003159BA008301E90044
:1004E0000C0032002159BA008301E90008003200F3
:1004F0000400E00003003A00E280400032A0B400B3
:10050000F5FF370011D9BA008301E900FAFF3A007C
:100510008100E800E180400032A0B4000000060045
:10052000889FBE008A9FBE00010578000100E000A0
:100530000400350008003C000000E000200032000C
:100540000500370060001000E080180002003B004A
:1005500001F02C001A0037000004BE006011B80042
:100560006B0920000982CF00020039000882CF0009
:100570000441B000694252000E00320008003B0006
:1005800082817100610164008904D1000884D30074
:100590008B05E8000442E800F9FF3A000500370047
:1005A0000804440089844C008B05E9000442E900FA
:1005B000FBFF3A00250107000AF0A70001F0A000A8
:1005C0004F05BE004F04BE000000060003F0A2006D
:1005D000889FBE008A9FBE008C1F780041010700E3
:1005E000480133006450E1004F0032006420E10014
:1005F0005200320003826C0007003B000905D00066
:100600000306D000820F54000C065D000200390082
:1006100002003200890178000306780085825500C7
:1006200004003D000003FD008103FD008502EA0097
:100630008B854200840F720002003B0060001000B6
:10064000E08018006011B8000005EB007A28E10096
:100650000A00390006007800C75DDD00F707B20028
:10066000878075002D003700828171000A017800B3
:10067000610560008180D1000080D3008502E9001F
:10068000F9FF3B00060440008784480002003B005D
:1006900060041400E0841C000988A30007003200F5
:1006A0008A81710082817100610164008904D10036
:1006B0000884D3008B05E800170037000978A300F1
:1006C00013003A000B00E000130034008B05E90032
:1006D0000804440089844C000A4474000978A3008B
:1006E0000D003A000B00E000070034008B05E90024
:1006F0000804440089844C0001003A000B002000EB
:100700000978A300F7FF32000001EB000200370078
:10071000828171000A017800CC0007000CF0A7006C
:1007200001F0A000000137006420E10002003A005F
:10073000838F6C00000133000801BE000200BE0080
:10074000F9003700889FBE008A9FBE008C1F78008A
:10075000E4000700EB00330003866C006450E10006
:100760002E0032006420E100330032006150E100CD
:100770002F0032006120E1003100320085855500F4
:10078000EB07B00009002000080420000500370036
:100790000804440089844C000A0031000603430029
:1007A00087834B000001530081815B00F8FF330019
:1007B0000203BE000800A0000804440089844C0025
:1007C000F6FF3900C639DD008301730001003200F5
:1007D000130020008904D1000884D3000998A300E5
:1007E000050032000800A7000300A0008904D10022
:1007F0000884D3008B05E8008904D1000884D30065
:100800000001EB000281D2009000070001F0A1007E
:100810000CF0A70001F0A000C30037006420E10045
:10082000C50032000801BE000200BE00F7FF37001D
:100830006120E100C00032006000B800F3FF370023
:100840000000200001F82700F0FF3700889FBE005D
:100850008A9FBE008C1F7800A2000700A900330009
:1008600003866C006450E100240032006420E10043
:10087000270032006150E100220032006120E100D7
:10088000210032008B854200EB07B1000134B80033
:10089000003AB8000804420089844A00013AB800CE
:1008A0000030B8008880400009014A00040033008D
:1008B0000000400081804800020149008B05E900EA
:1008C000C909DD008301700001003200130020001F
:1008D000C814DE004814DD004709DE001200B20033
:1008E000C808DE00088470005800070001F0A1006D
:1008F0000CF0A70001F0A0008B0037006120E100A0
:100900008D0032000801BE000200BE00F7FF370074
:100910006150E100FCFF3A00870037000001BE0093
:10092000880007000470A70003F0A10003F8A300EB
:1009300013003A006509B1001000320009003500CB
:100940006928E100020035000100280000000500D0
:1009500000004000818048008502E900FCFF3A0069
:1009600000000600F88F4200050035008100D1002C
:100970000080D3008502E800FCFF3A00000006007A
:100980008000EB00000005006022B8000602200095
:100990000000D0008180D2000482D2008582D20083
:1009A0000000A0000202520083825A0003003100BE
:1009B0000202420083824A000000A1000603E9000F
:1009C000F3FF3A00000006000001BE005D000700D2
:1009D0000470A70003F0A1006509B1001600320001
:1009E0000D0035006828E10006003500F0FF2F00FB
:1009F000F1FF27000300E00013003B000100280086
:100A00000000050000004000818048008502E900E8
:100A1000FCFF3A0008003700F88F420002003C005B
:100A20008000EB00000005008100D1000080D300B1
:100A30008502E800FCFF3A000300E00002003B00F2
:100A400060001000E0801800000006008100200017
:100A5000618055000B003D000B00200061FE2F005F
:100A60000100E1001D003400828171006101640019
:100A70008904D1000884D3000000E800FAFF3A009E
:100A8000710020006100640003007000020060003B
:100A90000900320061044400E0844C000988A5008C
:100AA000050032008B05E8006808E10002003A000A
:100AB0008904D1000884D300F20F20000258E1001D
:100AC00005003D00C75DDD00F907B20089807500B3
:100AD00008007800000006000BF827008B00780063
:100AE000000005000004BE00160007000003BE0061
:100AF0000405BE000200BE0012000700844F75000E
:100B0000000006000200BE006450E100050036004F
:100B10006420E100020036000968A30001003A00E9
:100B20000800BE000160A0004F0678004F05BE001F
:100B30004F04BE0000000600F0FF2F00F1FF270069
:100B4000F9FF3700C70ADE00F107B200F50FB20067
:100B500008003200E1CF4200020032000170A00024
:100B600024000500810F7000010032000408050018
:100B700044000500810F700002003A0014000500D7
:100B80008502E9000000400081C04800FCFF3B00F6
:100B90000170A000240005005245000041440000FF
:100BA000590D00000A0000005245000041440000B9
:100BB0003A2000000052000045410000442000009F
:100BC000002000004259000054450000533A000044
:100BD0000D0A000000570000524900005445000073
:100BE0003A20000000200000544900004D4500005C
:100BF00053000000414300004B0000004E41000044
:100C0000434B000000490000324300002053000025
:100C1000544100005254000020420000495400009A
:100C20000D0A00000049000032430000205300007C
:100C3000544F00005020000042490000540D0000B5
:100C40000A00000043530000204500004E41000010
:100C5000424C0000454400000D0A00000043000023
:100C6000532000004449000053410000424C000062
:100C7000454400000D0A00000054000068690000AF
:100C8000732000006D6F000064650000207200009A
:100C90006571000075690000726500007320000036
:100CA000616E00002061000064610000707400004B
:100CB000657200000D0A000000520000454100006E
:100CC0004420000042490000543A00002000000087
:100CD0004441000054410000204900004E500000F3
:100CE000555400002C2000005354000041540000D3
:100CF000453A000020000000202A00007069000032
:100D00006E20000069730000206E00006F77000005
:100D100020480000695A00000D0A00000020000071
:100D2000434C00004F4300004B200000544900009A
:100D3000434B0000530D00000A000000434C00002C
:100D40004F4300004B2C0000203100000D0A000032
:100D5000004300004C4F0000434B00002C200000DB
:100D6000300D00000A000000444100005441000022
:100D7000204F00005554000050550000542C000036
:100D8000203100000D0A0000004400004154000022
:100D9000412000004F550000545000005554000001
:100DA0002C200000300D00000A000000504F000011
:100DB00057450000522000005355000050500000DD
:100DC0004C49000045530000204F00004E0D00002C
:100DD0000A000000504F000057450000522000005C
:100DE00053550000505000004C490000455300008E
:100DF000204F0000464600000D0A0000005500008C
:100E00006E6B00006E6F0000776E0000206D0000BA
:100E100061630000726F00002C20000074720000FB
:100E2000792000003F2000006F72000020280000A1
:100E300030290000206600006F720000206800006A
:100E4000656C0000700D00000A000000436F000098
:100E50006D6D0000616E0000642000006E6F000088
:100E600074200000757300006564000020690000B4
:100E70006E2000007468000069730000206D00009F
:100E80006F640000650D00000A0000002A200000C9
:100E9000537900006E740000617800002065000046
:100EA000727200006F7200002C2000007479000044
:100EB00070650000203F0000206600006F72000097
:100EC00020680000656C0000700D00000A00000042
:100ED0002A20000054450000524D0000494E0000F9
:100EE000414C0000204200005546000046450000ED
:100EF000522000004F56000045520000464C0000B2
:100F00004F5700002C2000005452000059200000D0
:100F1000534D0000414C00004C45000052200000A1
:100F200053450000474D0000454E0000545300005B
:100F30000D0A0000004E00006F2000006D6F0000E1
:100F40006465000020730000657400002C20000020
:100F50004D200000666F0000722000006D6F0000E1
:100F6000646500000D0A00000057000041520000B7
:100F70004E4900004E4700003A2000007069000012
:100F80006E730000206E00006F740000206F000080
:100F9000706500006E20000064720000616900004E
:100FA0006E20000028480000695A0000290D00004A
:100FB0000A00000045720000726F0000722C0000F1
:100FC0002074000072790000206100006761000059
:100FD000696E0000203E000000530000656C0000B8
:100FE00065630000742000006F75000074700000DD
:100FF000757400002074000079700000653A0000EC
:101000000D0A0000203100002E2000004F7000006B
:10101000656E00002064000072610000696E0000CF
:1010200020280000483D0000486900002D5A0000BB
:101030002C2000004C3D0000474E000044290000D9
:101040000D0A0000203200002E2000004E6F00002C
:10105000726D0000616C000020280000483D000017
:10106000332E0000335600002C2000004C3D0000C1
:10107000474E0000442900000D0A0000004D00000A
:101080006F64000065200000736500006C6500005F
:1010900063740000656400000D0A00000020000079
:1010A000312E000020480000455800000D0A0000C5
:1010B000203200002E20000044450000430D0000B7
:1010C0000A200000332E000020420000494E00009C
:1010D0000D0A0000203400002E20000052410000C4
:1010E000570D00000A000000446900007370000002
:1010F0006C61000079200000666F0000726D0000D6
:101100006174000020730000657400000D0A000087
:1011100000200000312E000020500000756C0000FF
:101120006C2D000075700000732000006F660000D9
:10113000660D00000A200000322E00002050000042
:10114000756C00006C2D00007570000073200000AD
:101150006F6E00000D0A000000500000756C00006A
:101160006C2D000075700000207200006573000097
:1011700069730000746F000072730000204F00005C
:10118000464600000D0A000000500000756C00008B
:101190006C2D000075700000207200006573000067
:1011A00069730000746F000072730000204F00002C
:1011B0004E0D00000A000000566F00006C74000025
:1011C00061670000652000006D6F00006E6900001F
:1011D000746F0000727300003A20000000200000CD
:1011E000312E0000204D0000534200002066000018
:1011F00069720000737400000D0A000020320000C4
:101200002E2000004C5300004220000066690000C0
:1012100072730000740D00000A0000004D530000BE
:101220004220000073650000743A0000204D000069
:101230004F53000054200000736900006720000035
:10124000626900007420000066690000727300008B
:10125000740D00000A0000004C5300004220000002
:1012600073650000743A0000204C00004541000006
:1012700053540000207300006967000020620000E2
:101280006974000020660000697200007374000039
:101290000D0A0000004100005558000020630000C6
:1012A0006F6D00006D6100006E640000732000002F
:1012B000636F00006E740000726F00006C0D000020
:1012C0000A200000312E0000204100005558000087
:1012D000202800006465000066610000756C000055
:1012E000742900000D0A0000203200002E200000AA
:1012F000435300002F5400004D5300000D0A00001E
:10130000006100002F4100002F400000206300001A
:101310006F6E0000747200006F6C0000732000009C
:101320004155000058200000706900006E0D00005B
:101330000A000000612F0000412F00004020000043
:10134000636F00006E740000726F00006C73000029
:1013500020430000532F0000544D00005320000094
:10136000706900006E0D00000A000000416400007A
:101370006A75000073740000207900006F7500002A
:101380007220000074650000726D0000696E00003C
:10139000616C0000206100006E640000207000009D
:1013A000726500007373000020730000706100001C
:1013B00063650000207400006F200000636F000070
:1013C0006E740000696E0000756500000D0A000073
:1013D0000053000065740000207300006572000077
:1013E000696100006C200000706F000072740000E2
:1013F0002073000070650000656400003A20000062
:101400002862000070730000290D00000A2000000F
:10141000312E000020330000303000000D0A0000A3
:10142000203200002E200000313200003030000059
:101430000D0A0000203300002E200000323400008E
:10144000303000000D0A0000203400002E20000083
:1014500034380000303000000D0A00002035000054
:101460002E20000039360000303000000D0A000048
:10147000203600002E2000003139000032300000FC
:10148000300D00000A200000372E0000203300003D
:1014900038340000303000000D0A00002038000011
:1014A0002E2000003537000036300000300D0000DF
:1014B0000A200000392E00002031000031350000E4
:1014C00032300000300D00000A000000436C0000C4
:1014D0006F6300006B200000706F00006C61000003
:1014E00072690000747900003A0D00000A200000C3
:1014F000312E000020490000646C000065200000CF
:101500006C6F0000772000002A6400006566000010
:10151000617500006C7400000D0A000020320000AC
:101520002E200000496400006C6500002068000067
:1015300069670000680D00000A0000004F75000098
:101540007470000075740000206300006C6F000070
:10155000636B00002065000064670000653A0000CE
:101560000D0A0000203100002E2000004964000018
:101570006C650000207400006F20000061630000B3
:1015800074690000766500000D0A0000203200003A
:101590002E200000416300007469000076650000A1
:1015A000207400006F200000696400006C6500007A
:1015B000202A00006465000066610000756C000070
:1015C000740D00000A000000496E000070750000F4
:1015D00074200000736100006D7000006C650000F5
:1015E0002070000068610000736500003A0D000083
:1015F0000A200000312E0000204D00006964000028
:10160000646C0000652000002A640000656600002C
:10161000617500006C7400000D0A000020320000AB
:101620002E200000456E0000640D00000A0000003E
:1016300053650000742000007370000065650000B1
:10164000643A00000D0A0000203100002E20000046
:101650007E3500004B4800007A0D00000A20000093
:10166000322E0000207E0000353000004B48000084
:101670007A0D00000A200000332E0000207E0000BA
:1016800031300000304B0000487A00000D0A0000A5
:10169000203400002E2000007E3400003030000096
:1016A0004B4800007A0D00000A0000004F70000057
:1016B000656E00002064000072610000696E000029
:1016C000206F0000757400007075000074730000D6
:1016D00020280000483D0000486900002D5A000005
:1016E0002C2000004C3D0000474E00004429000023
:1016F0000D0A0000004E00006F7200006D610000D6
:101700006C2000006F75000074700000757400009C
:1017100073200000284800003D5600002B2C0000DC
:10172000204C00003D4700004E440000290D000001
:101730000A000000507500006C6C00002D75000060
:10174000702000007265000073690000737400006F
:101750006F720000732000006E6F000074200000A4
:10176000616C00006C6F000077650000640D000084
:101770000A00000042690000746F000072640000FB
:1017800065720000206300006F6E00006669000053
:101790006775000072610000746900006F6E0000E0
:1017A000206E00006F740000206100006C6C00006F
:1017B0006F770000656400000D0A0000004D000016
:1017C000454E000055530000003F00002048000037
:1017D000656C000070000000492000005374000098
:1017E0006174000075730000206900006E660000DF
:1017F0006F0000004D2000004275000073200000C3
:101800006D6F00006465000000420000205400007D
:10181000657200006D6900006E6100006C200000C0
:101820007370000065650000640000004F20000038
:1018300044610000746100002064000069730000CE
:10184000706C000061790000206600006F7200007B
:101850006D61000074000000562000004368000025
:10186000656300006B20000073750000707000005D
:101870006C790000207600006F6C0000746100003D
:1018800067650000730000004620000046720000FB
:1018900065710000756500006E630000792000002E
:1018A000636F0000756E0000742000006F6E000012
:1018B000204100005558000000470000204600006D
:1018C0007265000071750000656E000063790000AC
:1018D00020670000656E0000657200006174000002
:1018E0006F7200002F500000574D0000206F000065
:1018F0006E20000041550000580000004320000009
:101900004155000058200000706900006E20000062
:101910006173000073690000676E00006D65000070
:101920006E740000004C000020420000697400004A
:10193000206F00007264000065720000005000001B
:1019400020500000756C00006C75000070200000D5
:101950007265000073690000737400006F7200000C
:10196000730000003D20000048450000582F000093
:1019700044450000432F0000424900004E20000073
:10198000636F00006E7600006572000074650000F1
:10199000720000007E200000536500006C660000AD
:1019A0002074000065730000740000002320000014
:1019B00052650000736500007400000024200000E0
:1019C000426F00006F7400006C6F000061640000E3
:1019D0006572000000530000594E000054410000A1
:1019E00058000000412F0000612F0000402000003F
:1019F00041550000582000006F7500007470000011
:101A000075740000207400006F670000676C0000B0
:101A100065200000482F00004C2F00007265000078
:101A200061640000005700002F7700002050000084
:101A30006F77000065720000207300007570000071
:101A4000706C000079200000746F00006767000070
:101A50006C650000206F00006E2F00006F660000B4
:101A600066000000642000002844000029200000D7
:101A70004D65000061730000757200006520000074
:101A8000766F00006C740000616700006520000044
:101A90006F6E0000204100004443000020700000F1
:101AA000726F00006265000020280000636F000074
:101AB0006E740000696E0000756F000075730000A1
:101AC000290000005B200000287B00002920000086
:101AD0005374000061720000742000002877000039
:101AE00069740000682000007265000061640000F5
:101AF000290000005D2000006F720000207D0000C2
:101B000020530000746F000070000000522000009D
:101B10006F7200002072000020520000656100001A
:101B2000642000006279000074650000003000004D
:101B300062200000577200006974000065200000F8
:101B4000424900004E2000006279000074650000E8
:101B500000300000682000006F720000203000009C
:101B600078200000577200006974000065200000B2
:101B700048450000582000006279000074650000AC
:101B8000003000002D3200003535000020570000E5
:101B900072690000746500002044000045430000A5
:101BA0002062000079740000650000002C20000015
:101BB000446500006C6900006D69000074650000F8
:101BC00072200000286100006C7300006F2000008C
:101BD00073700000616300006529000000260000AA
:101BE000203100007553000020640000656C000087
:101BF00061790000003A000020520000657000008A
:101C00006561000074200000287200003A32000074
:101C10002C20000030780000306100003A340000D1
:101C20002C200000263A0000323000002C2000005A
:101C30005E3A0000322C0000206500007463000052
:101C40002E29000000280000232900002052000057
:101C5000756E0000206D000061630000726F00006F
:101C60002C2000002830000029200000666F0000B2
:101C7000722000006D610000637200006F200000A0
:101C80006C690000737400000052000041570000AE
:101C90002042000055530000204F00005045000036
:101CA00052410000544900004F4E00005300000014
:101CB0002F5C0000204300006C6F0000636B00008D
:101CC000204800002F4C0000002D00002F5F000076
:101CD000204400006174000061200000482F0000D3
:101CE0004C0000002E2000005265000061640000DE
:101CF000206400006174000061200000696E000033
:101D00007075000074200000706900006E200000F3
:101D10007374000061740000650000005E20000024
:101D2000436C00006F6300006B20000074690000CA
:101D3000636B00000021000020520000656100007C
:101D400064200000626900007400000000000000D0
:101D5000002000002C20000000200000575200004E
:101D6000495400004520000042490000542800006A
:101D7000532900002028000000290000005700001F
:101D80005249000054450000204200004954000020
:101D90003A200000002000002A6E00006578000054
:101DA00074200000636C00006F6300006B20000073
:101DB000285E000029200000776900006C6C00009C
:101DC000206100006C7300006F200000686100005B
:101DD0007665000020740000686900007320000030
:101DE000766100006C75000065000000315700004E
:101DF0004952000045200000726F00007574000019
:101E0000696E000065730000204300006F700000E1
:101E100079720000696700006874000020280000E3
:101E20004329000020320000303000003020000044
:101E30004D69000063680000616500006C200000CF
:101E400050650000617200006365000000520000F0
:101E5000656C00006561000073650000642000008F
:101E6000756E00006465000072200000474E00009F
:101E700055200000476500006E650000726100009B
:101E80006C20000050750000626C00006963000067
:101E9000204C000069630000656E0000736500005F
:101EA000004E00006F2000006465000076690000AD
:101EB000636500002C20000074720000792000008F
:101EC000284100004C410000524D00002920000034
:101ED000534500004152000043480000206D0000BF
:101EE00061630000726F00002066000069720000EC
:101EF000737400000041000044440000524500009B
:101F000053530000204D000041430000524F000099
:101F1000200000003A200000002000000020000007
:101F2000302E00004D610000637200006F20000041
:101F30006D6500006E750000004D000061630000DB
:101F4000726F0000202000002020000020310000DF
:101F50005749000052450000206100006464000001
:101F60007265000073730000002E0000000D000079
:101F70000A200000202000002A0000003157000045
:101F80004952000045200000524F00004D20000043
:101F9000434F00004D4D0000414E00004420000022
:101FA0004D410000435200004F7300003A0D000005
:101FB0000A200000353100002E520000454100008B
:101FC00044200000524F00004D2000002830000047
:101FD0007833000033290000202A0000666F0000DB
:101FE00072200000736900006E6700006C650000DD
:101FF0002064000065760000696300006520000031
:1020000062750000730D00000A20000038350000E2
:102010002E4D0000415400004348000020520000B3
:102020004F4D0000202800003078000035350000BA
:10203000292000002A6600006F6C00006C6F000011
:1020400077650000642000006279000020360000FF
:1020500034620000697400002061000064640000C4
:1020600072650000737300000D0A0000203200004A
:10207000303400002E5300004B4900005020000077
:10208000524F00004D20000028300000784300002F
:1020900043290000202A0000666F00006C6C0000DD
:1020A0006F77000065640000206200007920000066
:1020B000636F00006D6D0000616E0000640D000034
:1020C0000A20000032330000362E0000414C000090
:1020D000415200004D2000005345000041520000D5
:1020E00043480000202800003078000045430000ED
:1020F000290D00000A20000032340000302E0000BC
:1021000053450000415200004348000020520000A7
:102110004F4D0000202800003078000046300000BD
:1021200029000000414C0000415200004D200000F9
:1021300053450000415200004348000020280000A1
:10214000307800004543000029000000534500009E
:102150004152000043480000202800003078000071
:102160004630000029000000446500007669000048
:1021700063650000204900004473000020610000F6
:10218000726500002061000076610000696C00004B
:10219000616200006C650000206200007920000090
:1021A0004D410000435200004F2C000020730000FE
:1021B0006565000020280000302900002E00000086
:1021C0005245000041440000205200004F4D0000E5
:1021D000202800003078000033330000293A000046
:1021E000200000004D410000544300004820000042
:1021F000524F00004D2000002830000078350000CC
:1022000035290000005300004B4900005020000019
:10221000524F00004D20000028300000784300009D
:1022200043290000004200005553000020520000E6
:102230004553000045540000200000004F4B0000B3
:1022400000450000525200004F5200003A200000AA
:10225000002A0000536800006F7200007420000024
:102260006F720000206E00006F200000707500008B
:102270006C6C00002D75000070200000002A00002A
:102280004E6F000020640000657600006963000066
:102290006520000064650000746500006374000040
:1022A0006564000020000000280000004453000086
:1022B000313800005332000030200000486900002F
:1022C0006768000020500000726500007320000065
:1022D0004469000067200000546800006572000037
:1022E0006D0000004453000031380000423200000D
:1022F00030200000507200006F6700002052000084
:10230000657300002044000069670000205400004D
:1023100068650000726D0000004400005331000049
:102320003832000032200000456300006F6E00006C
:102330002044000069670000205400006865000028
:10234000726D000000440000533200003430000081
:1023500034200000456300006F6E000072610000D1
:102360006D200000746900006D65000020430000CE
:10237000686900007000000044530000323400001F
:1023800033310000203100004B20000045450000A3
:10239000505200004F4D0000005500006E6B0000D1
:1023A0006E6F0000776E000020640000657600000C
:1023B0006963000065000000315700003031000003
:1023C000000000004A54000041470000534D000047
:1023D0003A2000005244000059200000544F0000F1
:1023E00020570000524900005445000020490000D9
:1023F0004E53000054520000554300005449000061
:102400004F4E000020520000454700004953000095
:1024100054450000520000004A54000041470000AB
:10242000534D00003A2000005244000059200000A3
:10243000544F00002052000045410000442F00008E
:10244000575200004954000045200000444100005C
:10245000544100002052000045470000495300004D
:1024600054450000520000004A540000414700005B
:10247000534D00003A200000494400004C45000044
:1024800000000000202C0000200000002030000090
:102490002E4D000061630000726F0000206D00008F
:1024A000656E0000750D00000A200000312E00004E
:1024B000526500007365000074200000636800002E
:1024C000616900006E0D00000A200000322E00003D
:1024D000507200006F620000652000006368000019
:1024E000616900006E0D00000A200000332E00001C
:1024F0005853000046560000207000006C61000038
:1025000079650000722000002864000065700000FA
:1025100072650000636100007465000064290000BA
:102520000D0A0000004A000054410000475300001B
:102530004D3A000020520000455300004554000071
:10254000004A00005441000047200000494E0000AE
:10255000495400002043000048410000494E00005B
:10256000002000004445000056490000434500009B
:102570002853000029200000494E0000204A000096
:10258000544100004720000043480000414900003A
:102590004E000000203A00002000000058530000C8
:1025A00046560000207000006C6100007965000054
:1025B0007220000077610000732000007265000047
:1025C0006D6F00007665000064200000696E0000F9
:1025D00020760000322E0000312C0000206900001F
:1025E00066200000796F0000752000006E65000015
:1025F000656400002069000074200000646F000022
:10260000776E0000677200006164000065200000C2
:10261000746F000020760000322E0000302E000083
:102620000049000074270000732000006875000056
:10263000676500002C200000756700006C790000C1
:102640002C200000616E000064200000746800000F
:102650006520000058530000465600002066000028
:102660006F7200006D61000074200000697300004B
:10267000207300007065000063690000616C000059
:10268000697A0000656400002E00000057650000B4
:10269000276C00006C2000006164000064200000D2
:1026A0006120000072650000616C00002053000092
:1026B00046560000207000006C6100007965000043
:1026C00072200000696E0000207400006865000040
:1026D000206600007574000075720000652E000011
:1026E000004A000054410000475300004D3A0000EA
:1026F00020000000414C0000524500004144000011
:1027000059200000494400004C45000000520000E0
:1027100045530000455400002D3E00004944000090
:102720004C45000000280000575200004F540000A4
:1027300045200000444500004C4100005945000080
:1027400044200000424900005429000020000000FD
:10275000495200002D3E0000494400004C45000055
:1027600000440000522D00003E490000444C00008F
:1027700045000000554E00004B4E00004F57000032
:102780004E2000005354000041540000450000005A
:102790004A54000041470000534D00003A20000019
:1027A00057410000524E0000494E000047200000F3
:1027B0004F550000542000004F46000020530000F9
:1027C000594E0000430000005245000053450000F0
:1027D00054000000494400004C4500002D3E00001C
:1027E0004461000074610000205200006567000031
:1027F0006973000074650000720000004944000025
:102800004C4500002D3E0000496E0000737400002E
:102810007275000063740000696F00006E20000094
:102820005265000067690000737400006572000063
:1028300020280000444500004C410000594500009C
:10284000442000004F4E0000452000004249000097
:1028500054200000464F000052200000544D00005C
:1028600053290000005500004E4B00004E20000090
:102870005354000041540000452C00002054000037
:1028800052590000205200004553000045540000FA
:102890002028000031290000004E00004F540000A5
:1028A000453A000020570000524F000054450000F8
:1028B00020440000454C0000415900004544000000
:1028C000204200004954000000000000002D0000DC
:1028D00070200000002D000066200000002A00008B
:1028E00042790000746500007320000064720000EB
:1028F0006F70000070650000642A00000046000050
:10290000414900004C450000442C0000204E0000CE
:102910004F2000004441000054410000002000000E
:102920002C200000005500004152000054200000FF
:102930004C49000056450000204400004953000067
:10294000504C0000415900002C2000007D20000068
:10295000544F000020530000544F0000500000006E
:102960004C49000056450000204400004953000037
:10297000504C00004159000020530000544F00000B
:10298000505000004544000000200000313000009D
:102990002E200000333100003235000030200000CE
:1029A000284D00004944000049290000004400006F
:1029B000617400006120000062690000747300000F
:1029C000206100006E640000207000006172000051
:1029D00069740000793A00000D0A000020310000FF
:1029E0002E200000382C0000204E00004F4E00002A
:1029F000452000002A640000656600006175000043
:102A00006C740000200D00000A200000322E00002F
:102A1000203800002C20000045560000454E0000E4
:102A2000200D00000A200000332E00002038000096
:102A30002C2000004F440000442000000D0A00003C
:102A4000203400002E200000392C0000204E000011
:102A50004F4E000045000000537400006F700000EE
:102A60002062000069740000733A00000D0A000043
:102A7000203100002E200000312000002A640000D8
:102A800065660000617500006C7400000D0A0000AE
:102A9000203200002E2000003200000052650000AD
:102AA000636500006976000065200000706F00001B
:102AB0006C61000072690000747900003A0D00003A
:102AC0000A200000312E000020490000646C000044
:102AD00065200000312000002A64000065660000C7
:102AE000617500006C7400000D0A000020320000C7
:102AF0002E200000496400006C65000020300000BA
:102B000000200000302E00004D61000063720000C4
:102B10006F2000006D6500006E7500000D0A00005A
:102B2000203100002E540000726100006E7300001E
:102B300070610000726500006E7400002055000096
:102B400041520000542000006272000069640000DD
:102B5000676500000D0A0000203200002E200000F2
:102B60004C690000766500002055000041520000CD
:102B7000542000006D6F00006E690000746F00004B
:102B8000720D00000A200000332E000055410000A5
:102B90005254000020620000726900006467000067
:102BA000652000007769000074680000206600005E
:102BB0006C6F000077200000636F00006E740000EF
:102BC000726F00006C00000055410000525400007C
:102BD000206200007269000064670000652E00003A
:102BE0002053000070610000636500002063000056
:102BF0006F6E0000746900006E7500006573000060
:102C00002C200000616E00007974000068690000EB
:102C10006E670000206500006C73000065200000F6
:102C20006578000069740000732E000000520000F7
:102C30006573000065740000207400006F200000C0
:102C400065780000697400002E00000052610000E9
:102C50007720000055410000525400002069000018
:102C60006E700000757400002E200000537000008C
:102C70006163000065200000746F000020650000A3
:102C800078690000742E00000041000052540000DA
:102C900031000000004300004D440000200000000F
:102CA0004441000054200000002000002C200000BF
:102CB00000520000532000004C4F0000572C000031
:102CC000204300004F4D00004D4100004E440000E5
:102CD000204D00004F44000045000000525300000A
:102CE0002048000049470000482C00002044000014
:102CF00041540000412000004D4F000044450000B9
:102D0000004C000043440000207400007970000073
:102D1000653A00000D0A0000203100002E2000005E
:102D200048440000343400003738000030200000F0
:102D300028750000736900006E67000020500000D5
:102D400043460000383500003734000020490000B9
:102D50004F20000065780000706100006E64000084
:102D60006572000029000000203000002E4D000098
:102D700061630000726F0000206D0000656E00004E
:102D8000750D00000A200000312E00004C430000A9
:102D9000442000005265000073650000740D0000BF
:102DA0000A200000322E0000496E00006974000005
:102DB000204C0000434400000D0A000020330000B6
:102DC0002E4300006C65000061720000204C000082
:102DD000434400000D0A0000203400002E43000090
:102DE00075720000736F000072200000706F0000A9
:102DF00073690000746900006F6E000020650000B8
:102E0000783A0000283400003A300000290D000014
:102E10000A200000352E00002864000065700000C4
:102E200072650000636100007465000064290000A1
:102E30000D0A0000203600002E57000072690000C5
:102E400074650000203A00006E7500006D6200009D
:102E5000657200002074000065730000742000009B
:102E60006E7500006D620000657200007320000046
:102E7000657800003A280000363A0000383000003B
:102E8000290D00000A200000372E000057720000B4
:102E900069740000652000003A6E0000756D000046
:102EA0006265000072200000746500007374000009
:102EB000206300006861000072610000637400001C
:102EC0006572000073200000657800003A28000059
:102ED000373A000038300000290D00000A200000B9
:102EE000382E0000496E0000736500007274000007
:102EF00020740000657800007420000061740000F8
:102F00002063000075720000736F00007200000003
:102F10005245000053450000540000004469000081
:102F2000737000006C610000792000006C69000083
:102F30006E650000733A00000D0A000020310000A9
:102F40002E200000312000000D0A00002032000079
:102F50002E2000004D7500006C74000069700000A8
:102F60006C650000004900004E490000540000005C
:102F7000434C000045410000524500004400000061
:102F800043550000525300004F52000020530000F0
:102F900045540000004900006E7300006572000097
:102FA0007420000074650000787400003A0000008E
:102FB0004E6F000020410000434B00002C20000019
:102FC00063680000656300006B200000616400001E
:102FD00061700000746500007200000000200000B5
:102FE0002C200000002800005C2D00002F5F000056
:102FF0005C290000002800005F2F00002D5C00000D
:1030000029000000203000002E4D00006163000008
:10301000726F0000206D0000656E0000750D0000ED
:103020000A200000312E0000495300004F370000F5
:1030300038310000362D00003320000041540000DC
:10304000520D00000A200000322E000049530000FB
:103050004F37000038310000362D000033200000CB
:103060007061000072730000652000006F6E000048
:103070006C7900000D0A000000490000534F000069
:103080002037000038310000362D000033200000CA
:103090004154000052200000285200004553000017
:1030A00045540000206F00006E20000043530000D4
:1030B0002900000052450000534500005420000044
:1030C00048490000474800002C200000434C000005
:1030D0004F4300004B20000054490000434B0000C8
:1030E0002C200000524500005345000054200000F1
:1030F0004C4F000057000000495300004F200000D3
:1031000037380000313600002D33000020720000F7
:10311000657000006C7900002028000075730000C5
:103120006573000020630000757200007265000086
:103130006E740000204C0000534200002073000019
:1031400065740000746900006E670000293A000091
:1031500020000000507200006F7400006F630000D8
:103160006F6C00003A2000000073000065720000E0
:10317000696100006C0000003320000077690000E6
:1031800072650000003200002077000069720000C4
:10319000650000005246000055000000756E0000FA
:1031A0006B6E00006F7700006E000000526500003B
:1031B000616400002074000079700000653A00002E
:1031C00020000000746F0000206500006E640000A5
:1031D000007600006172000069610000626C00000E
:1031E000652000006C6500006E67000074680000D8
:1031F000004400006174000061200000756E000052
:1032000069740000733A0000200000006E6F000037
:10321000206900006E6400006963000061740000B2
:10322000696F00006E0000004461000074610000DE
:10323000207500006E690000742000006C650000BD
:103240006E670000746800002028000062690000BA
:1032500074730000293A000020000000002A0000DA
:10326000284E000029410000434B00002050000080
:10327000454E0000444900004E4700000020000079
:103280002C20000000570000415200004E49000071
:103290004E4700003A200000484100005244000020
:1032A0005741000052450000204900003243000011
:1032B0002069000073200000627200006F6B000044
:1032C000656E0000206F00006E2000007468000032
:1032D00069730000205000004943000021200000D5
:1032E000285200004556000020410000332900000C
:1032F000005300006574000020730000706500003A
:10330000656400003A0D00000A200000312E000024
:1033100020310000303000004B4800007A0D0000E2
:103320000A200000322E000020340000303000005F
:103330004B4800007A0D00000A200000332E0000E8
:10334000203100004D4800007A00000020300000CD
:103350002E4D000061630000726F0000206D0000C0
:10336000656E0000750D00000A200000312E00007F
:10337000376200006974000020610000646400008E
:103380007265000073730000207300006561000027
:1033900072630000680D00000A200000322E000059
:1033A0004932000043200000736E0000696600008F
:1033B0006665000072000000536500006172000045
:1033C00063680000696E000067200000376200003B
:1033D00069740000204900003243000020610000B1
:1033E00064640000726500007373000020730000C5
:1033F00070610000636500002E2000000D0A0000CF
:1034000020200000204600006F7500006E64000060
:1034100020640000657600006963000065730000A9
:1034200020610000743A00000020000057000000F6
:103430002052000000290000004900003243000033
:103440002062000075730000207300006E690000A8
:1034500066660000657200002C200000707200009B
:103460006573000073200000616E00007920000089
:103470006B65000079200000746F0000206500007B
:1034800078690000740000004932000043310000F8
:103490000000000044690000736300006F6E0000CC
:1034A0006E65000063740000206100006E7900000A
:1034B0002064000065760000696300006573000009
:1034C000004300006F6E00006E6500006374000032
:1034D000202800005670000075200000746F000066
:1034E000202B00003556000029200000616E0000EE
:1034F00064200000284100004443000020740000C4
:103500006F2000002B3300002E33000056290000EE
:10351000005000007265000073730000206100001D
:10352000206B000065790000207400006F2000000F
:1035300073740000617200007400000043740000A6
:10354000726C00000041000055580000004D000062
:103550004F440000452000004C450000440000009E
:10356000505500004C4C0000555000002048000011
:1035700000500000554C00004C5500005020000049
:103580004C0000005652000045470000004100007A
:1035900044430000206100006E64000020730000BE
:1035A00075700000706C0000790000003556000056
:1035B0000056000050550000003300002E3300007C
:1035C0005600000041440000430000004275000026
:1035D0007320000068690000676800000042000076
:1035E0007573000020480000692D00005A2000007B
:1035F00030000000427500007320000048690000A0
:103600002D5A000020310000004D00004F44000002
:1036100045200000616E000064200000565200004A
:1036200045470000204C0000454400007320000086
:10363000736800006F7500006C6400002062000079
:10364000652000006F6E000021200000416E000028
:10365000792000006B65000079200000657800008B
:1036600069740000732E000000280000002900008B
:10367000004D00004F53000049000000434C000083
:103680004B0000004D490000534F00000043000074
:1036900053000000204F00004B00000020460000B7
:1036A000414900004C000000505700004D20000030
:1036B0006469000073610000626C000065640000D2
:1036C000003100004B4800007A2D0000342C00002F
:1036D00030300000304B0000487A000020660000C7
:1036E0007265000071750000656E0000637900006E
:1036F00020670000656E00006572000061740000C4
:103700006F7200002F500000574D0000202800006D
:10371000626500007461000029000000467200002C
:1037200065710000756500006E630000792000007F
:10373000696E0000204B0000487A00002000000065
:103740005072000065730000636100006C6500004A
:103750003A00000032350000360000003634000028
:10376000003800000031000000500000523200001C
:103770003A00000000440000757400007920000049
:1037800063790000636C000065200000696E000032
:103790002025000020000000505700004D200000B0
:1037A000616300007469000076650000005000004D
:1037B000574D00002061000063740000697600002E
:1037C000653A000020740000727900002047000074
:1037D000207400006F200000646900007361000025
:1037E000626C000065200000505700004D00000092
:1037F0004672000065710000756500006E63000090
:10380000792000006F6E0000204100005558000034
:1038100020700000696E00003A200000004800009F
:103820007A00000020280000006B0000487A0000A9
:10383000290000004D4800007A29000000410000E6
:1038400055580000204900004E500000555400001B
:103850002F480000492D00005A000000415500008B
:10386000582000004849000047480000004100007F
:1038700055580000204C00004F5700000041000048
:1038800055580000204900004E50000055540000DB
:103890002F480000492D00005A2C00002052000043
:1038A00045410000443A000020000000005E000096
:1038B000BCE20000613F0000DD830000C29C00000C
:1038C0007E200000A3FD00001F4100009DC30000FA
:1038D000217F0000FCA20000401E00005F010000EC
:1038E000E3BD00003E60000082DC0000237D00009C
:1038F0009FC10000421C0000FEA00000E1BF0000CC
:103900005D03000080DE00003C620000BEE00000BD
:10391000025C0000DF810000633D00007C220000AB
:10392000C09E00001D430000A1FF000046180000DB
:10393000FAA40000277900009BC5000084DA00008B
:1039400038660000E5BB000059070000DB85000079
:1039500067390000BAE4000006580000194700006B
:10396000A5FB000078260000C49A0000653B00001B
:10397000D9870000045A0000B8E60000A7F900004B
:103980001B450000C69800007A240000F8A600003D
:10399000441A000099C70000257B00003A6400002B
:1039A00086D800005B050000E7B900008CD200005B
:1039B000306E0000EDB30000510F00004E1000000B
:1039C000F2AC00002F71000093CD0000114F0000F9
:1039D000ADF30000702E0000CC920000D38D0000EB
:1039E0006F310000B2EC00000E500000AFF100009B
:1039F000134D0000CE900000722C00006D330000CB
:103A0000D18F00000C520000B0EE0000326C0000BC
:103A10008ED00000530D0000EFB10000F0AE0000AA
:103A20004C12000091CF00002D730000CA940000DA
:103A300076280000ABF5000017490000085600008A
:103A4000B4EA000069370000D58B00005709000078
:103A5000EBB50000366800008AD4000095CB00006A
:103A600029770000F4AA000048160000E9B700001A
:103A7000550B000088D60000346A00002B7500004A
:103A800097C900004A140000F6A80000742A00003C
:103A9000C8960000154B0000A9F70000B6E800002A
:103AA0000A540000D78900006B3500005245000021
:103AB0005345000054000000424F00004F540000E6
:103AC0004C4F0000414400004552000000530000EC
:103AD000656C0000662D00007465000073740000C2
:103AE000206900006E200000486900005A20000094
:103AF0006D6F000064650000206F00006E6C0000B8
:103B0000792E0000004300004F4E00005645000093
:103B100052540000200000000042000075730000B5
:103B200020500000697200006174000065200000F0
:103B30007633000000460000697200006D770000D7
:103B40006172000065200000763400002E32000013
:103B500000200000426F00006F7400006C6F0000D6
:103B600061640000657200002076000000440000DF
:103B700045560000494400003A0000002052000071
:103B800045560000494400003A000000202800008B
:103B900000410000330000004234000000420000F9
:103BA00035000000554E00004B00000029000000C9
:103BB00068740000747000003A2F00002F64000049
:103BC000616E000067650000726F00007573000091
:103BD000707200006F7400006F7400007970000054
:103BE000657300002E6300006F6D0000002A000066
:103BF0002D2D00002D2D00002D2D00002D2D00005D
:103C00002D2D00002A0000002E20000000350000AD
:103C1000563A000020000000207C00002033000005
:103C20002E330000563A000020000000207C0000E7
:103C300020560000505500004C4C0000555000002C
:103C40003A200000002000007C00000043460000F5
:103C5000473100003A0000002043000046470000C2
:103C6000323A000000000000002000002C2000007C
:103C700000530000657400002073000070650000B0
:103C8000656400003A0D00000A200000312E00009B
:103C900020330000304B0000487A00000D0A00007D
:103CA000203200002E20000031320000354B000091
:103CB000487A00000D0A0000203300002E2000008A
:103CC00032350000304B0000487A00000D0A000039
:103CD000203400002E200000314D0000487A000002
:103CE00000200000302E00004D61000063720000D3
:103CF0006F2000006D6500006E7500000D0A000069
:103D0000203100002E5300005049000020620000C6
:103D100075730000207300006E6900006666000085
:103D200065720000005300006E69000066660000C6
:103D300020770000686500006E3A00000D0A000060
:103D4000203100002E20000043530000206C0000B2
:103D50006F7700000D0A0000203200002E200000C6
:103D6000435300002068000069670000680D0000F0
:103D70000A200000332E0000204100006C6C00007F
:103D80002074000072610000666600006963000034
:103D900000530000504900002062000075730000CD
:103DA000207300006E690000666600006572000006
:103DB0002C200000616E0000792000006B6500007F
:103DC00079200000657800006973000074730000BA
:103DD00000530000504900003100000000200000A6
:103DE0004249000054200000544900004D450000A5
:103DF0004F55000054000000203000002E2000002D
:103E00004D610000637200006F2000006D650000CE
:103E10006E7500000D0A0000203100002E20000009
:103E20004C69000076650000206900006E7000009B
:103E300075740000206D00006F6E00006974000052
:103E40006F720000004900006E7000007574000081
:103E5000206D00006F6E0000697400006F7200003A
:103E60002C200000616E0000792000006B650000CE
:103E7000792000006578000069740000730000007C
:103E8000202A000073740000617200007462000058
:103E90006974000020650000727200006F720000FB
:103EA000002000002A7000006172000069740000A8
:103EB0007920000065720000726F0000720000003F
:103EC000202A0000737400006F7000006269000017
:103ED0007420000065720000726F00007200000024
:103EE000204E00004F4E000045000000205500000D
:103EF0004E4B00004E4F0000574E00002045000082
:103F0000525200004F5200000000000048690000BB
:103F10005A000000312D00005749000052450000B2
:103F200000550000415200005400000049320000DA
:103F30004300000053500000490000004A540000B4
:103F40004147000000520000415700003257000076
:103F50004952000045000000524100005733000064
:103F60005749000052450000005000004320000067
:103F70004B450000594200004F41000052440000F0
:103F8000004C00004344000000000000564F0000B9
:103F90004C5400004D4500005445000052200000E4
:103FA0004D4F0000444500000050000072650000C5
:103FB00073730000206100006E790000206B000028
:103FC00065790000207400006F2000006578000013
:103FD00069740000005600004F4C0000544100007E
:103FE0004745000020500000524F000042450000AD
:103FF0003A200000005600000008000008080000F9
:104000000808000000000000444500004C4100008A
:10401000592000000075000053000000564F0000BA
:104020004C54000041470000452000005052000061
:104030004F420000453A00002000000056000000FA
:104040002920000000000000306200000030000065
:1040500031320000333400003536000037380000BC
:104060003941000042430000444500004630000052
:1040700078000000002000002C200000000000005C
:1040800042420000494F0000310000005241000050
:104090005731000000000000314100004C53000087
:1040A000000000004F430000443100000000000009
:1040B000000000000600FA00881F78000CD8BF003E
:1040C0000080FB006101B9001207980023079800E7
:1040D000D0012000010020001E019000AE019000E0
:1040E000800F5100818F5900BE013E001E009000DC
:1040F000AE009000006001001D0037003F00370057
:104100005D0037005C003700B60137009C003700C7
:104110005B003700B301370062003700B1013700A0
:10412000B00137007400370073003700AD0137006D
:10413000AC013700AB013700AA013700A9013700F5
:10414000A8013700A7013700A6013700A5013700F5
:10415000A4013700A3013700A2013700790037001E
:104160007C003700A10137009E0137009F01370016
:1041700080C08000E10F500007003A0010C0B3007B
:10418000742E0700D92B070065FBB70065DBBF0065
:10419000A52C07001600370020C0B3006D2E0700C5
:1041A00080C08000A02C070030C0B300692E07003B
:1041B0000000EB0010DB880009003700CB2B070064
:1041C00065FBB70065DBBF00972C070000C2B3009A
:1041D000D406070010DB80000000E80010DB880038
:1041E00081C0800010DB8000808F5000F3FF3E0014
:1041F00080EA28004C0507007C01370040C0B3006E
:10420000542E070070C08000872C070080C08000FB
:10421000E10F500003003A0070C08000722B0700CD
:104220001200370090EA28002905070080C08000AE
:104230007D2C070050C0B300462E07000000EB00A5
:1042400010DB88000500370070C08000662B070077
:1042500010DB80000000E80010DB880081C08000D7
:1042600010DB8000808F5000F7FF3E0080EA2800BE
:104270002D0507005D0137005F0107005B01370076
:10428000C52B070065FBB700D0C0B300312E070077
:1042900065DBBF0007050700F0C0B3002D2E070047
:1042A0005201370080C080005F2C0700D0EA280050
:1042B000070507000000EB0010DB88000500370051
:1042C00058DBBF00702B070010DB80000000E80007
:1042D00010DB880081C0800010DB8000808F5000E0
:1042E000F7FF3E0058DBBF00F2040700D0EB2800C8
:1042F0000D0507003D013700F0EB2800F40407002E
:104300000CD8BF00EC4F500005003A000040EB0015
:1043100058FBB7000040EB00E6040700040037003C
:1043200010C0B30058FBB70010C0B300E104070091
:10433000B0EC2800FC04070058DBBF00522B07003C
:104340002A0137000B58A9000B98A8000BD8A80029
:10435000260137000040EB006AFBB700C922A80025
:10436000CB22A90060EF2800EF04070070F22800BC
:10437000ED0407000040EB00F62D07001B0137009D
:1043800070C080000000E0003600320071C0800084
:1043900020032000808F500032003E0070C080005B
:1043A0000000E90070C0880071C080006ADBBF00B7
:1043B0000080FB00808F50000300390010F52800BA
:1043C000D904070009013700B0F72800C00407002E
:1043D00070C080000040E8007D050700A0F82800BC
:1043E000BB0407000040EB0064FBB7001700370078
:1043F00072C0800064DBBF008080FB004310DD00E2
:1044000081004000B0B621000080400010407800DC
:10441000052C070000C2B3004206070072C08000EE
:1044200064DBBF008080FB004310DD0081004000A2
:10443000B0B621000080400010407800EA2A070052
:1044400064DBBF000040E80064FBB70064DBBF0032
:10445000E74F5000E6FF3600D0F82800B20407000E
:10446000E200370071C08000010F78005005200085
:104470001E017800800F5100CB0032005005200053
:104480009E017800808F510008003E001E007800D9
:104490000000E00012003200300320009E0078008F
:1044A000808F5000A0003200CB003700C00E2000EB
:1044B0001E017800800F510046003200000F2000DE
:1044C0009E017800808F510042003200C00C200015
:1044D0009E007800808F5000B9003200BE00370087
:1044E000F0F8280090040700D0F928008E04070097
:1044F0006ADBBF000004E00003003A0010F528006A
:1045000089040700300037000040EB0065FBB7006E
:104510002800370000C2B3000206070065DBBF00B9
:104520000040E8002A05070050FB28006804070047
:104530000040EB0064FBB7000F00370065DBBF00F5
:104540000081FB0064DBBF008080FB004310DD00C6
:1045500081004000B0B6210000804000104078008B
:10456000B12B070000C2B300EE05070064DBBF00FB
:104570000040E80064FBB70064DBBF00E74F500079
:10458000EEFF360070FB28005104070065DBBF001A
:104590000080FB00C300DD00B0B6210000804000B9
:1045A00010407800B500070065DBBF000040E80060
:1045B00065FBB700A1B621009140780065DBBF0024
:1045C00080CF5000D3FF3E00E0FB280056040700D8
:1045D0008600370070C08000A2F9B70071C080006B
:1045E000C00E2000808F500003003A0020092900EF
:1045F0004D04070002003700600A29004A04070042
:10460000D0F92800480407000040EB0064FBB70025
:10461000C900070065FBB7000040EB006AFBB7006C
:104620003B00370000C2B300BE05070064DBBF00DB
:104630000040E800E604070050FB280024040700BF
:104640000000EB0010DB88000A00370011DB80005F
:10465000B0BB21000080400010407800722B0700A2
:1046600000C2B300AF05070010DB80000000E800C7
:1046700010DB880010DB8000E70F5000F3FF3600EE
:1046800070FB280012040700BBDBBF007B000700A3
:1046900064DBBF00E94F500018003E000000EB0053
:1046A00010DB88000F0037006ADBBF008081FB0051
:1046B00014DB800011DB8000B0BB210000804000D3
:1046C000104178004318DD0084004000B0B621009E
:1046D000008040000248780010DB80000000E80005
:1046E00010DB880010DB8000E70F5000EEFF360083
:1046F0006ADBBF000040E8006AFBB70064DBBF0074
:104700000040E80064FBB7009600070065FBB700B7
:1047100065DBBF000004E000C2FF3A00400B290047
:10472000010407003100370033000700000E2900A4
:10473000E703070030C3B3002B2A07000000EB009B
:1047400010DB88001000370018DB8000672A0700A4
:104750008040780090B521000000440001487800B6
:1047600011DB800090B521000080400010407800EF
:104770002D2B070000C2B3006A05070010DB800084
:104780000000E80010DB880010DB8000E70F50001D
:10479000EDFF360080EA2800E303070059DBBF0085
:1047A000360007001100370013000700200F290012
:1047B000DD03070050C5B3000B2A07000B003700CC
:1047C0000D00070030102900D7030700C0CCB3004C
:1047D000052A07000500370070C1B300DD2C070073
:1047E0000200370080C1B300DA2C07004F047800C4
:1047F0000080FA00000006000200FA00C12907004C
:10480000004F780030112900B10307001E04E000BA
:1048100003003A00E0112900C30307001500370028
:1048200010122900AA0307001E80FB00610060002F
:104830000004E0000200320090122900A4030700E7
:104840001E80FB000000D100610060000004E00059
:1048500002003200F01329009D03070040152900D3
:104860009B0307001E407800EF2A0700D0EB2800CA
:10487000AD0307000080FA00000006000400FA0003
:10488000004F78001E80FB001007980020022000D7
:104890009E009000808F50001A00320020022000FD
:1048A0009E009000808F500007003C001E0090008A
:1048B000E40F5000160032009E009000F08F500070
:1048C0000A00320018003700800220009E0090008D
:1048D000808F500008003200D00220009E0090001F
:1048E000808F50000D0032000F0037006015290046
:1048F0008D0307000E003700201729008A030700E8
:104900000B003700D0182900870307000800370084
:10491000301A29008403070005003700C01B290056
:104920008103070002003700D01C29007E03070026
:104930000080FA00000006000000FA000040EB00D2
:10494000C3FBB7000040EB00C5FBB7000040EB0025
:10495000C4FBB700080007000080FB000080FA00DD
:10496000000006000000FA00030007000080FB00C2
:104970000080FA00000006000A00FA0010C0B30030
:10498000704798000040EB00604798000040EB0043
:104990005047980010C0B300104798000040EB004B
:1049A000404798000040EB00C6FBB700C5DBBF00E6
:1049B0000004E0008D003A00522907000004E000E6
:1049C000090032000040EB00C3FBB7000040EB00E1
:1049D000C5FBB7000040EB00C4FBB7000000EB00D4
:1049E0004007980092003700A2D9BF007E29070037
:1049F000E929070030479800E72907002047980079
:104A00003E409000E14F500003003A002E409000DD
:104A1000E14F500065003200BE4090002E409000F3
:104A200080CF5000030032003E409000004F7800DD
:104A30002400370031BC2100914078007E40900076
:104A4000814F50000E0031005E4090008080FB00DE
:104A5000B0BB210000804000904078001E409000D4
:104A600080C060000040EB00004F78000104E000CF
:104A70000B00320010C0B300004F78000800370070
:104A8000C3DBBF008040EB00014F7800FE40900088
:104A900080CF500002003A0010C0B300004F7800F1
:104AA0001E04E00007003A007E4090006047980036
:104AB0006E409000E84F500002003E006E409000B3
:104AC000C4FBB70010C0B3009E4F10000D003A00A9
:104AD0005E4090000081FB005E4090008080FB0003
:104AE000B0BB210000804000904078001E40900044
:104AF00080C07000B0BB2100000041000148780078
:104B0000110037005E4090000082FB005E40900084
:104B10008080FB00B0BB2100008040001040780086
:104B2000804178001E419000024078000080EA0039
:104B30008180EA0000C0610080407800B0BB2100A5
:104B400000004200014878001E4078004E2907000E
:104B50007E4090000040E800704798001E409000A2
:104B600000404000104798001E4090000004E00004
:104B70000B003A005E4090008080FB00B0BB21003B
:104B80000080400010407800840007005E409000E4
:104B90000040E8005047980010C0B300104798004C
:104BA0005E409000E74F500091FF3600FE409000BD
:104BB00000C4B30080CF50000C003600C6DBBF003D
:104BC0000004E00009003A006E409000C3FBB7000B
:104BD000C3DBBF000004E00002003A0010C0B300D5
:104BE000C5FBB70010C0B300404798004E4090008E
:104BF0000004E00003003200BBDBBF000004E00063
:104C000008003A000040EB00C3FBB7000040EB0097
:104C1000C5FBB7000040EB00C4FBB7000040EB0051
:104C2000404798004E4090000080FB0040079800ED
:104C30004E0090000080FA00000006000E00FA000E
:104C40000040EB00404798000C0037004E409000B9
:104C50000081FB004E4090008080FB00B0BB210033
:104C600000804000904078006500470001717800A6
:104C70004E4090000040E800404798004E409000B1
:104C8000E74F5000F1FF3600C3DBBF00204798001C
:104C9000C5DBBF0010479800C4DBBF00004F7800A1
:104CA00000C4B300C3FBB7000040EB00C5FBB70076
:104CB00031FF07000004E0001A00320010C0B3000A
:104CC000304798000040EB00404798001100370043
:104CD0004E4090008080FB006500470061417800F5
:104CE0004E4090008080FB00B0BB2100008040005F
:104CF00010407800804F5100030032000040EB006C
:104D000030479800090037004E4090000040E8000E
:104D1000404798004E409000E74F5000ECFF3600AF
:104D2000020037000040EB00304798000040EB00E5
:104D3000404798000C0037004E4090000081FB0077
:104D40004E4090008080FB0065004700E140780005
:104D5000B0BB210000004100014878004E409000A7
:104D60000040E800404798004E409000E74F500058
:104D7000F1FF36002E409000C3FBB7001E409000AC
:104D8000C5FBB7001E407800C4FBB7003E40900052
:104D90000080FB000080FA00000006000200FA001C
:104DA000004F7800C6DBBF001E4068008080FB001B
:104DB000309A21000080400010407800C6FBB70008
:104DC000C6DBBF000080FB000080FA000000060088
:104DD0000000FA00C01D29003D0207000080FA0013
:104DE000000006000400FA00C922A800CB22A90096
:104DF000C8C2A9000BD8A8000B78A900F4FF0700CF
:104E00000000370022C2BF00614060000004E000E3
:104E1000FCFF32003011800069FBB70069DBBF0086
:104E20000080FB004400DE0068FBB70068DBBF00C9
:104E30000080FB00100798001E009000E10F50005A
:104E40005C0032009E009000E48F5000770032003A
:104E50001E0090000000E0000100320078003700E2
:104E600069DBBF000080FB00000F78009E00780027
:104E7000E28F5000170032001E007800E20F500051
:104E800007003C009E0078000100E0006F00320047
:104E90001E007800E10F50000C0032004200370085
:104EA0009E007800E48F50000F0032001E00780052
:104EB000E40F50003C0035009E00780068805000F0
:104EC000E10F500038003E000A003700C0FF070025
:104ED000CCFF37000B28070066FBB70010C0B300FB
:104EE00090030700C7FF3700802807008D030700E5
:104EF000C4FF370010C0B3008A03070069DBBF009E
:104F0000E94F500003003A00C0CEB300A2F9B70049
:104F10000200370000CFB300A2F9B70086FE0700F9
:104F200066FBB700110037000040EB0067FBB700DD
:104F30000900370067DBBF008080FB00B0BB2100A9
:104F400000804000104078007603070067DBBF0058
:104F50000040E80067FBB70067DBBF00E74F500089
:104F6000F4FF36007FFE070066FBB70066DBBF007C
:104F70000004E000ECFF3A000040EB0067FBB700E4
:104F80000500370000C0EB006603070067DBBF00C9
:104F90000040E80067FBB70067DBBF00E74F500049
:104FA000F8FF360097FF37000040EB005D03070075
:104FB00094FF370091B6210091407800F0C0B30013
:104FC00000C0600069FBB70069DBBF000040E8007B
:104FD00069FBB70010C0B300520307000040EB00AC
:104FE00067FBB7000B00370022C2BF0061406000C2
:104FF0000004E000FCFF320030118000FA270700B7
:1050000010C0B3004703070067DBBF000040E800A3
:1050100067FBB70071B621009140780069DBBF00E3
:1050200080CF5000F0FF390076FF370069DBBF000A
:10503000882A070010C0B3003A03070071FF370049
:105040000040EB00370307006EFF37000080FA00D6
:10505000000006000E00FA00300798004107980093
:10506000520798000000EB00100798000000EB00CA
:10507000200798005E0090000000E000060032006B
:1050800080C2B300270307005E00900021020700E2
:1050900000022A008E010700E0C3B30021030700CD
:1050A0000000EB00100798000E80E80002BF21000E
:1050B000BE009000200007000000E000FAFF320070
:1050C0001E0090000000E00006003A005E00900024
:1050D0000000E000030032005E00900060079800CE
:1050E000120037000000EB00200798001E0090001F
:1050F000E400470002BF210063000700000F7800B2
:105100001E00E000060032004E0090009E0F1000CE
:1051100003003E001E00780060079800030037007F
:10512000D0C1B3008B2A0700DDFF37006E0090006E
:105130000080FA00000006000C00FA00100798003A
:10514000210798003207980047003700EC0207005B
:10515000004F78001E80FB00500798005E00900012
:10516000E80F50001C0032005E009000E80F500075
:1051700007003C005E0090000000E0000B003200E1
:105180005E009000E20F50000B0032001E0037005E
:105190005E009000EA0F50000A0032005E009000AE
:1051A000ED0F50000700320017003700F00F20000D
:1051B0004007980031003700E00F200040079800BA
:1051C0002E00370030022A0057010700100020008F
:1051D00040079800290037001E009000100078005A
:1051E0000000E000200032001E0090001000780057
:1051F0008000E9001E009000010878001E40780041
:10520000C8020700180037001E00900090007800C8
:105210002E009000808F500013003100F0C1B300C9
:105220009E4F100010003600E0C7B3009E4F1000E4
:105230000D003E001E0090001000780080007800F5
:105240003E009000008040001E4878001E4078001C
:10525000B40207001E009000100078008000E800F3
:105260001E009000010878009F0207000004E00083
:10527000B6FF3A000000EB00400798004E00900097
:105280000080FA00000006001400FA007007980081
:10529000010F9800120F98000040EB00004F7800BB
:1052A0008E00E8000040EB00904098000E0890004F
:1052B000900078007E009000808F500006003A0039
:1052C0000E089000100078008000E9000E089000A1
:1052D000010878006F0037000E0890001000780079
:1052E000800078001E089000008040009040780008
:1052F000F0C2B30080CF5000090036000E089000C5
:1053000010007800800078001E08900000804000A7
:105310009040780090C3B30080CF50004800360022
:105320000E08900010007800800078001E089000A1
:10533000008040009040780000C4B30080CF50004F
:10534000090036000E0890001000780080007800F8
:105350001E089000008040009040780060C4B300B8
:1053600080CF5000360036000E0890001000780004
:10537000800078001E089000008040009040780077
:1053800000C6B30080CF5000090036000E08900020
:1053900010007800800078001E0890000080400017
:1053A0009040780060C6B30080CF500024003600E3
:1053B0000E08900010007800800078001E08900011
:1053C000008040009040780080C7B30080CF50003C
:1053D0001B0032000E08900010007800800078005A
:1053E0001E089000008040009040780080C6B30006
:1053F00080CF5000120032000E089000100078009C
:10540000800078001E0890000080400090407800E6
:1054100080C5B30080CF5000090032000E08900014
:1054200010007800800078001E0890000080400086
:105430009040780080C4B30080CF500010003A0044
:105440001E81FB000E08900010007800800078009C
:105450001E08900000804000904078000E00E80098
:10546000017178001E4FE8000E08900010007800CF
:105470008000E8000E089000010878008BFF3700DC
:105480000E089000100078008000E9000E089000DF
:10549000010878008E00E8001E4078000200070036
:1054A0000080FA00000006000A00FA004047980059
:1054B000310798000000EB00100798003E009000B4
:1054C0000000E800104078000080FB0040079800D2
:1054D00080062000CE009000808F5000090032002E
:1054E00080072000CE009000808F50000500320021
:1054F00020062000CE009000808F50003F00320038
:105500005400370020C0B300004F78003700370048
:105510001E0090004400DD00100798001E80FB0074
:10552000800078003E0090000080400090407800AD
:10553000F0C3B30080CF50000C003E001E80FB0083
:10554000800078003E00900000804000104078000D
:105550008080FB001E0090008080400000FD2F0036
:1055600000804000100798001F0037001E80FB00DD
:10557000800078003E00900000804000904078005D
:1055800060C4B30080CF50000C003E001E80FB00C2
:10559000800078003E0090000080400010407800BD
:1055A0008080FB001E0090008080400090FC2F0057
:1055B00000804000100798000B0037001E80FB00A1
:1055C000800078003E00900000804000104078008D
:1055D0008080FB001E0090008080400090FA2F0029
:1055E00000804000100798001E4FE8004E409000D9
:1055F0009E4F1000C6FF39002B00370020C0B300BB
:10560000004F78000F0037001E009000000040009F
:10561000100798001E80FB00800078003E0090007C
:10562000008040009040780010C3B30080CF50004D
:1056300003003A001E0090000000A0001007980030
:105640001E4FE8004E4090009E4F1000EEFF3900C4
:10565000150037000040EB00004F78000F003700C6
:105660001E0090006A00B900100798001E80FB0021
:10567000800078003E0090000080400010407800DC
:105680008080FB001E0090008080400000FD2F0005
:1056900000804000100798001E4FE8004E40900028
:1056A0009E4F1000EEFF39001E0090000080FA00AF
:1056B000000006000200FA00004F78001E4078004B
:1056C0000043B000970107000080FA0000000600C8
:1056D0000600FA0010079800020037001E4078000C
:1056E000900107001E009000104F78001E407800C7
:1056F000404798004E4090000004E0000200320055
:1057000010C0B300404798004E4090009E009000AB
:105710008100E800110798000004E000EFFF3A0064
:105720000080FA00000006000600FA00100798004A
:10573000020037001E4078007A0107001E0090002A
:10574000104F78001E407800404798004E4090006F
:105750000004E0000200320010C0B300404798008F
:105760004E4090009E0090008100E80011079800D4
:105770000004E000EFFF3A00D0C0B3006901070069
:10578000A0C0B300670107000080FA000000060017
:105790000400FA002047980000C8B300004F7800CA
:1057A00040022A00CAFF07000040EB0010479800A3
:1057B0000F0037002E4090001E4060000004E00003
:1057C0000300320010C3B300560107000200370087
:1057D00000C3B300530107001E80FB000000D1008E
:1057E000004F78001E4090000040E80010479800ED
:1057F0001E409000E74F5000EEFF36000080FA0098
:10580000000006000E00FA0050079800610798009B
:105810000040EB00004F780000102E00515F200088
:1058200030079800410798000040EB0010479800AF
:10583000300037003E019000CE0190005E009000E5
:10584000EE00900050EC0700100798002107980028
:105850001E04E00005003A001E009000AE0090001B
:10586000E00F5000E08F5800180032001E0090003A
:105870000043B0002B0107009E0090003E00900006
:10588000000AB8009E0090004E0090000088B90009
:105890000501780000014100BE0090002E0090003C
:1058A0000088B90000014100820278005E0090008B
:1058B000EE009000040050008580580050079800CA
:1058C0006107980010C0B300004F78003E009000C0
:1058D000CE009000A2002000030020002AEC070068
:1058E00030079800410798001E4090000040E800F3
:1058F000104798001E409000E74F5000CDFF360043
:105900005E0090000043B000060107000080FA002E
:10591000000006000800FA00300798000040EB0085
:10592000004F780000712200200798000040EB0033
:10593000104798001E0037003E0090002E01900096
:10594000110009000280D800100798001E04E00032
:1059500003003A001E0090000000E0000C0032003E
:105960001E0090000043B000EE0007009E00900073
:105970002E0090000088B900800078003E00900062
:10598000010050003007980010C0B300004F7800AD
:105990002E009000A2002000110009000280D80013
:1059A000200798001E4090000040E8001047980033
:1059B0001E409000E34F5000DFFF36003E00900095
:1059C0000043B000D70007000080FA000000060086
:1059D0000600FA00404798000040EB00004F7800B6
:1059E00040C6B300304798000040EB0020479800C5
:1059F000200037004E4090008080FB003E40900029
:105A00000081FB00110009008280D8001047980037
:105A10001E04E00003003A001E4090000004E00075
:105A20000B0032001E4090000043B000BD00070094
:105A30004E4190009E4090003E4090000088B9008A
:105A4000004051004047980010C0B300004F78005C
:105A50003E4090000080FB00A200200011000900E1
:105A60000280D800304798002E4090000040E800A7
:105A7000204798002E409000E14F5000DDFF360097
:105A80004E4090000043B000A60007000080FA00DE
:105A9000000006000400FA001007980070032A00B6
:105AA0000BFF07001E0090004400DE006F0F600037
:105AB0009E00780070022A000080400010407800AC
:105AC000980007001E0090006F0F60009E00780095
:105AD00070022A000080400010407800910007000A
