:020000040000FA
:10000000040C040000000000C0720000C072000078
:10001000C0720000C0720000C0720000C072000018
:10002000C0720000C0720000C0720000C072000008
:10003000C0720000C0720000C0720000C0720000F8
:10004000C0720000C0720000C0720000C0720000E8
:10005000C0720000C0720000C0720000C0720000D8
:10006000C0720000C0720000C0720000C0720000C8
:10007000C0720000C0720000C0720000C0720000B8
:10008000C0720000C0720000C0720000C0720000A8
:10009000C0720000C0720000C0720000C072000098
:1000A000C0720000C0720000C0720000C072000088
:1000B000C0720000C0720000C0720000C072000078
:1000C000C0720000C0720000C0720000C072000068
:1000D000C0720000C0720000C0720000C072000058
:1000E000C0720000C0720000C0720000C072000048
:1000F000C0720000C0720000C0720000C072000038
:10010000C0720000C0720000C0720000C072000027
:10011000C0720000C0720000C0720000C072000017
:10012000C0720000C0720000C0720000C072000007
:10013000C0720000C0720000C0720000C0720000F7
:10014000C0720000C0720000C0720000C0720000E7
:10015000C0720000C0720000C0720000C0720000D7
:10016000C0720000C0720000C0720000C0720000C7
:10017000C0720000C0720000C0720000C0720000B7
:10018000C0720000C0720000C0720000C0720000A7
:10019000C0720000C0720000C0720000C072000097
:1001A000C0720000C0720000C0720000C072000087
:1001B000C0720000C0720000C0720000C072000077
:1001C000C0720000C0720000C0720000C072000067
:1001D000C0720000C0720000C0720000C072000057
:1001E000C0720000C0720000C0720000C072000047
:1001F000C0720000C0720000C0720000C072000037
:10020000FFFFFF00FFFFFF00C0720000C072000090
:10021000C0720000C0720000C0720000C072000016
:10022000C0720000C0720000C0720000C072000006
:10023000C0720000C0720000C0720000C0720000F6
:10024000C0720000C0720000C0720000C0720000E6
:10180000040C000000000000CFC12100007F220076
:1018100000018800000000000A0007001100070016
:10182000000020000000E000020032000000020082
:1018300000000000C80F0200000000000040DA00B5
:101840000000FE004440A900008E21000000E000DE
:101850000300320000002000A00188004440A800DE
:101860000000060080FB2600010020001500370064
:1018700062004000E0804800910188009001BA00B9
:1018800062004000E0804800910188009002BA00A8
:1018900062004000E08048000002EB006028E100A8
:1018A00004003A000059EB008301E900FDFF3E000F
:1018B000040037006128E100010032000082EB00E3
:1018C00005000700910188001001BA000200E00045
:1018D000E7FF3A00000005009101880080027800CF
:1018E00062004000E08048003559BA008301E900F9
:1018F000080032002559BA008301E90005003200D2
:101900000400E000F4FF320015D9BA008301E900B9
:10191000F1FF3A0000000600889FBE008A9FBE00CB
:10192000010578000100E0000400350008003C00DB
:101930000000E000200032000500370060001000C9
:10194000E080180002003B0001F02C001A00370074
:101950000004BE006011B8006B0920000982CF00AE
:10196000020039000882CF000441B00069425200F1
:101970000E00320008003B008281710061016400AA
:101980008904D1000884D3008B05E8000442E800F4
:10199000F9FF3A00050037000804440089844C0030
:1019A0008B05E9000442E900FBFF3A00250107002E
:1019B0000AF0A70001F0A0004F05BE004F04BE00D2
:1019C0000000060003F0A200889FBE008A9FBE00B0
:1019D0008C1F780041010700480133006450E1008A
:1019E0004F0032006420E1005200320003826C009C
:1019F00007003B000905D0000306D000820F540009
:101A00000C065D00020039000200320089017800F6
:101A1000030678008582550004003D000003FD00A8
:101A20008103FD008502EA008B854200840F72006D
:101A300002003B0060001000E08018006011B80058
:101A40000005EB007A28E1000A0039000600780062
:101A5000C75DDD00F707B200878075002D003700F5
:101A6000828171000A017800610560008180D100E7
:101A70000080D3008502E900F9FF3B000604400026
:101A80008784480002003B0060041400E0841C00CE
:101A90000988A300070032008A81710082817100E9
:101AA000610164008904D1000884D3008B05E8003B
:101AB000170037000978A30013003A000B00E0007C
:101AC000130034008B05E9000804440089844C00AD
:101AD0000A4474000978A3000D003A000B00E000EE
:101AE000070034008B05E9000804440089844C0099
:101AF00001003A000B0020000978A300F7FF320034
:101B00000001EB0002003700828171000A017800B9
:101B1000CC0007000CF0A70001F0A0000001370086
:101B20006420E10002003A00838F6C000001330062
:101B30000801BE000200BE00F9003700889FBE0009
:101B40008A9FBE008C1F7800E4000700EB00330082
:101B500003866C006450E1002E0032006420E10036
:101B6000330032006150E1002F0032006120E100BB
:101B70003100320085855500EB07B00009002000D8
:101B800008042000050037000804440089844C0044
:101B90000A0031000603430087834B000001530015
:101BA00081815B00F8FF33000203BE000800A00043
:101BB0000804440089844C00F6FF3900C639DD0072
:101BC0008301730001003200130020008904D1005A
:101BD0000884D3000998A300050032000800A7007C
:101BE0000300A0008904D1000884D3008B05E8001D
:101BF0008904D1000884D3000001EB000281D200E7
:101C00009000070001F0A1000CF0A70001F0A00077
:101C1000C30037006420E100C50032000801BE00A7
:101C20000200BE00F7FF37006120E100C000320073
:101C30006000B800F3FF37000000200001F8270023
:101C4000F0FF3700889FBE008A9FBE008C1F78007F
:101C5000A2000700A900330003866C006450E10075
:101C6000240032006420E100270032006150E100CE
:101C7000220032006120E100210032008B85420009
:101C8000EB07B1000134B800003AB8000804420084
:101C900089844A00013AB8000030B80088804000CA
:101CA00009014A0004003300000040008180480020
:101CB000020149008B05E900C909DD0083017000BC
:101CC0000100320013002000C814DE004814DD00BB
:101CD0004709DE001200B200C808DE000884700068
:101CE0005800070001F0A1000CF0A70001F0A000CF
:101CF0008B0037006120E1008D0032000801BE003A
:101D00000200BE00F7FF37006150E100FCFF3A001F
:101D1000870037000001BE00880007000470A7009C
:101D200003F0A10003F8A30013003A006509B10015
:101D300010003200090035006928E100020035007A
:101D400001002800000005000000400081804800DC
:101D50008502E900FCFF3A0000000600F88F42000F
:101D6000050035008100D1000080D3008502E80025
:101D7000FCFF3A00000006008000EB0000000500B8
:101D80006022B800060220000000D0008180D2004E
:101D90000482D2008582D2000000A000020252001C
:101DA00083825A00030031000202420083824A000B
:101DB0000000A1000603E900F3FF3A00000006005E
:101DC0000001BE005D0007000470A70003F0A10041
:101DD0006509B100160032000D0035006828E100E9
:101DE00006003500F0FF2F00F1FF27000300E000A0
:101DF00013003B0001002800000005000000400027
:101E0000818048008502E900FCFF3A0008003700A5
:101E1000F88F420002003C008000EB00000005004B
:101E20008100D1000080D3008502E800FCFF3A0069
:101E30000300E00002003B0060001000E08018009A
:101E40000000060081002000618055000B003D006D
:101E50000B00200061FE2F000100E1001D00340096
:101E600082817100610164008904D1000884D3007B
:101E70000000E800FAFF3A007100200061006400F1
:101E80000300700002006000090032006104440099
:101E9000E0844C000988A500050032008B05E800AD
:101EA0006808E10002003A008904D1000884D300E8
:101EB000F20F20000258E10005003D00C75DDD0083
:101EC000F907B2008980750008007800000006005C
:101ED0000BF827008B007800000005000004BE000E
:101EE000160007000003BE000405BE000200BE008D
:101EF00012000700844F7500000006000200BE00BB
:101F00006450E100050036006420E1000200360064
:101F10000968A30001003A000800BE000160A000AB
:101F20004F0678004F05BE004F04BE0000000600BB
:101F3000F0FF2F00F1FF2700F9FF3700C70ADE008E
:101F4000F107B200F50FB20008003200E1CF420005
:101F5000020032000170A00024000500810F700013
:101F6000010032000408050044000500810F7000E4
:101F700002003A00140005008502E900000040005C
:101F800081C04800FCFF3B000170A0002400050058
:101F90000400FA003900070000003700C28020006A
:101FA00001FA2000C07A2100C2170700100798002C
:101FB0001E009000E10F500005003200F00F2000DD
:101FC0009E009000808F50001C00320022003700DD
:101FD00060BD8000000F78009E0078000100E000E6
:101FE000040032001E007800E10F500004003200AF
:101FF0000700370090C1B300751A070007003700CB
:102000000CC8BF00B81307000004E00003003A004A
:1020100060BD8000C1802000C81507000000EB00F3
:1020200060BD88000040EB001BFCB7009B1307005D
:10203000E0C3B3004F1A0700070037001BDCBF00E6
:102040000040E8001BFCB7001BDCBF00F34F500052
:1020500001003600E62107000BC8BF0062406000A7
:102060000004E000CDFF32000001EB008000EB0037
:1020700060C1B30030130700C8FF37000000FA004A
:102080004507A9000080EB00601988004227A900DD
:10209000416A20009140780000CEB30000C060008B
:1020A0000014A000A4E6B700316C20009140780035
:1020B00000CEB30000C060003040B300C3E6B700FC
:1020C00080C0B30000E8B7000000EB0010408800BB
:1020D000F90407002D0507008000EB00F00F200039
:1020E0002E1A07003040880021002000F00F200049
:1020F0002A1A07004040880010C1B3001D1A0700CB
:10210000D0C0B3001B1A0700A0C0B300191A070003
:102110001E14070061130700E0C3B300151A07007F
:102120000080FA00000006000C00FA00004F780062
:1021300011079800220798001E80FB006101B9007A
:102140003207980043079800C001200001002000DA
:102150003E019000CE019000800F5100818F590008
:10216000D4003E003E009000CE00900000600100D0
:102170001C0037003E0037005E0037005D0037006E
:1021800062003700B6003700660037006C00370089
:1021900072003700780037007C003700800037007D
:1021A00084003700C3003700C2003700C100370089
:1021B000C0003700BF003700BE003700BD00370049
:1021C000BC003700BB003700BA003700B900370049
:1021D0007D00370097003700B8003700B5003700A2
:1021E000B60037002E009000E10F500007003A00C3
:1021F00010C0B300F61907002C1F07000CFCB70035
:102200000CDCBF00F30407001400370020C0B3004B
:10221000EF1907002E009000EE04070030C0B30055
:10222000EB1907000000EB0050E0880007003700C2
:102230001E1F0700E704070000C2B300CD19070006
:1022400050E080000000E80050E0880051E080008D
:102250002E009000808F5000F5FF3900D0C0B300F1
:10226000C4190700A0C0B300C219070093003700CB
:1022700040C0B300D61907001E009000D504070027
:102280002E009000E10F500003003A001E00900065
:10229000D51E07001200370080982E005518070041
:1022A0002E009000CB04070050C0B300C8190700EF
:1022B0000000EB0050E08800050037001E00900091
:1022C000C91E070050E080000000E80050E08800D0
:1022D00051E080002E009000808F5000F7FF390001
:1022E000D0C0B300A3190700A0C0B300A119070014
:1022F000720037004D1E0700C0982E003D180700E1
:1023000080C0B300B21907006C0037005A1E0700E6
:1023100040992E003718070090C0B300AC19070091
:1023200066003700D0C0B300A91907000F1F0700CF
:1023300029180700F0C0B300A51907005F00370097
:10234000E0C0B300A2190700581F070022180700B9
:10235000F0C0B3009E190700580037002E0090000F
:102360009C04070000C1B300991907002E009000DB
:10237000201F07005100370010C1B3009419070057
:1023800010C0B300371F07004C00370020C1B30056
:102390008F1907000040EB00321F0700470037008D
:1023A00030C1B3008A19070010C0B300241F070012
:1023B0004200370040C1B300851907000040EB0020
:1023C0001F1F07003D0037000B48A8000B88A8001E
:1023D00010C3B3007E190700120020002100200066
:1023E000100020007A1607000040E9000AE8B70054
:1023F000E0C1B30076190700120020002100200080
:1024000010002000721607000040EA0061406000E2
:10241000614060004601DD00B180200091407800FD
:10242000F0CBB30000C06000024070000BE8B700C2
:1024300022003700CB02A900CB22A900C922A800A4
:10244000C902A900A18020009140780020C0B300FB
:10245000D31D07000040EB005D190700170037008F
:102460009E009000510798005E019000E10F51001E
:102470000A003200DE019000E18F510004003900B3
:102480005E009000E20F50000500320006003700A9
:10249000B0992E00D7170700080037000900070081
:1024A000190007000500370070C1B3004819070084
:1024B0000200370080C1B300451907000080FA0010
:1024C000000006000000FA00609D2E00DF170700E4
:1024D000309F2E00DD1707000040EB00EA1E0700CA
:1024E00000C0EB007204070010C0B300E61E070036
:1024F00010C0B300BF1E07000040EB00E21E070043
:102500000080FA00000006000A00FA00881F780028
:1025100050A12E00B71707000BC8BF000080FB00BA
:102520004300DE0061406000204798000B68A8006F
:102530000000EB00000F78000D0037001E0478004B
:102540005A1E07008040780063004700017478003D
:102550009E00780063004700614078000080FB0027
:102560009518070000C2B300021907001E0FE8000B
:10257000300020009E0F1000F0FF3600D0C0B300E6
:10258000FC180700A0C0B300FA1807002E40900006
:1025900061406000614060004301DD00B1802000C7
:1025A0009140780070CFB30000C06000024070001E
:1025B0000BE8B70040A32E008E170700630047000A
:1025C000104078000080FB004400DE000080FB002B
:1025D000400798004E009000E90F500011003200B3
:1025E0004E009000E90F500004003C004E009000A7
:1025F000E80F500008003200130037004E00900032
:10260000EA0F50000A0032004E009000EF0F500019
:102610000A0032000C003700F0A32E008B170700D1
:102620000B00370060A42E00881707000800370051
:10263000D0A42E00851707000500370040A52E0006
:10264000821707000200370080A52E007F170700C1
:1026500000A62E0067170700630047001040900097
:102660000080FB004700DE000004E00003003A00A9
:10267000C0A62E00751707000200370030A72E00F5
:102680007217070030A82E005A1707006300470092
:10269000104090008080FB0080F72F0000806000D9
:1026A0004380DE00204798002E4090000004E000A8
:1026B00003003A0000A92E004E1707001B00370048
:1026C0002E409000EF4F500003003A0040A52E002E
:1026D000481707001500370000042000000F78009D
:1026E000E30047000040EB00804878000800370016
:1026F0001E00780000004000000F780063004700D3
:10270000104078008040E8006300470001487800EE
:1027100063004700904078002E40900080CF50002A
:10272000F3FF39001E007800C3170700D0C0B300C4
:1027300090180700A0C0B3008E180700E0A92E0073
:102740002C170700630047009040900070C0B30052
:1027500000C060002047980010002000000F7800A3
:10276000E30047000040EB00804878000800370095
:102770001E00780000004000000F78006300470052
:10278000104078008040E80063004700014878006E
:1027900063004700904078002E40900080CF5000AA
:1027A000F3FF39001E007800D2170700D0C0B30035
:1027B00070180700A0C0B3006E1807004F0478001F
:1027C0000080FA00000006000A00FA00004F7800BE
:1027D00011079800220798001E80FB006101B900D4
:1027E0003207980043079800C00120000100200034
:1027F0003E019000CE019000800F5100818F590062
:10280000D9003E003E009000CE0090000060010024
:102810001C0037003E0037006A00370069003700AF
:1028200073003700CD003700770037007F00370096
:10283000870037008D003700910037009500370082
:1028400099003700C8003700C7003700C6003700BE
:10285000C5003700C4003700C3003700C20037008E
:10286000C1003700C0003700BF003700BE0037008E
:1028700092003700AC003700BD003700BA003700C7
:10288000BB0037002E009000E10F500006003A0018
:1028900010C0B3004E18070000C0EB00091D070070
:1028A0004C0307001500370020C0B300481807008C
:1028B0002E0090004703070030C0B3004418070003
:1028C0000000EB0060DF88000800370000C0EB006C
:1028D000FC1C07003F03070000C2B30025180700D7
:1028E00060DF80000000E80060DF880061DF8000BA
:1028F0002E009000808F5000F4FF3900D0C0B3004C
:102900001C180700A0C0B3001A1807009800370071
:1029100040C0B3002E1807001E0090002D030700D2
:102920002E009000E10F50000E003A001E009000B3
:10293000E41C0700EEFBB700F0DBBF006140600065
:102940000004E0001A00320000C2B30009180700BA
:1029500010C0B3001E180700EEDBBF001D03070008
:102960001300370040FB2E00A21607002E00900037
:102970001803070050C0B300151807000000EB0053
:1029800060DF8800060037001E009000CD1C0700A5
:10299000EEFBB70060DF80000000E80060DF880029
:1029A00061DF80002E009000808F5000F6FF39001C
:1029B000D0C0B300EF170700A0C0B300ED170700A9
:1029C0006B00370031C0B3009ECF100002003A0008
:1029D000F01BA80001003700F01BA9000040EB002D
:1029E000A91D0700A0C0B300F91707006000370059
:1029F000F01BA90010C0B300A31D0700B0C0B300B6
:102A0000F31707005A003700D0C0B300F0170700D3
:102A1000561D070070160700D0C0B300D517070079
:102A2000A0C0B300D317070051003700E0C0B300C7
:102A3000E71707009D1D070067160700D0C0B30009
:102A4000CC170700A0C0B300CA1707004800370022
:102A50002E009000DF02070000C1B300DC17070062
:102A60002E009000631D07004100370010C1B30025
:102A7000D717070010C0B3007A1D07003C003700CD
:102A800020C1B300D21707000040EB00751D0700FE
:102A90003700370030C1B300CD17070010C0B300B6
:102AA000671D07003200370040C1B300C817070098
:102AB0000040EB00621D07002D00370010C3B3007B
:102AC000C317070012002000210020001000200082
:102AD000BF1407000040E9000AE8B700E0C1B300F6
:102AE000BB1707001200200021002000100020006A
:102AF000B71407000040EA006140600061406000D8
:102B00004601DD00B180200091407800F0CBB30099
:102B100000C06000024070000BE8B7000B48A8003E
:102B20000B88A80012003700F01BA900A18020002C
:102B30009140780030C0B300191C0700C922A900D9
:102B4000C902A900C8E2A80010C0B3004E1D0700CA
:102B50000040EB009E1707000500370070C1B3006E
:102B60009B1707000200370080C1B30098170700C9
:102B70000080FA00000006000C00FA00004F780008
:102B800011079800220798001E80FB006101B90020
:102B90003207980043079800C00120000100200080
:102BA0003E019000CE019000800F5100818F5900AE
:102BB000EB003E003E009000CE009000006001005F
:102BC0002A0037004E0037001A003700190037007E
:102BD00022003700C8003700E1003700E00037006E
:102BE000DF003700DE003700DD003700DC00370093
:102BF000DB003700DA003700D9003700D800370093
:102C0000D7003700D6003700D5003700D400370092
:102C1000D3003700D2003700D1003700D000370092
:102C200064003700AD003700B1003700CC0037003A
:102C3000CD00370031C0B3009ECF100002003A0033
:102C4000F67BA80001003700F67BA900CAC2A900E4
:102C5000A0C0B3005E170700C3003700CAC2A800B7
:102C6000B0C0B3005A170700BF0037002E00900015
:102C7000E10F500008003A0010C0B30054170700DD
:102C800000C0EB001E010700F4FBB700F4DBBF003F
:102C9000500207001500370020C0B3004C17070092
:102CA0002E0090004B02070030C0B3004817070009
:102CB0000000EB0090DF88000800370000C0EB0048
:102CC0000F0107004302070000C2B30029170700E5
:102CD00090DF80000000E80090DF880091DF800036
:102CE0002E009000808F5000F4FF3900D0C0B30058
:102CF00020170700A0C0B3001E1707009A00370076
:102D000040C0B300321707001E00900031020700D8
:102D10002E009000E10F50000E003A001E009000BF
:102D2000F7000700F4FBB700F6DBBF006840600067
:102D30000004E0001A00320000C2B3000D170700C3
:102D400010C0B30022170700F4DBBF002102070008
:102D500013003700A0CB2E00A61507002E00900010
:102D60001C02070050C0B300191707000000EB0059
:102D700090DF8800060037001E009000E00007008A
:102D8000F4FBB70090DF80000000E80090DF8800CF
:102D900091DF80002E009000808F5000F6FF3900F8
:102DA000D0C0B300F3160700A0C0B300F1160700AF
:102DB0006D003700E0CB2E00A415070012002000A4
:102DC0004100200010002000011407000040E9002D
:102DD0000AE8B700E0C2B300FD16070012002000A9
:102DE0002100200010002000F91307000040E90036
:102DF000614060006141600061BF21009140780046
:102E0000E0CFB30000C0600002407000F6FBB700E6
:102E1000F0C2B300EE1607002200200021002000BF
:102E200010002000EA1307000040E9006140600044
:102E3000614060000041400061BF21009140780086
:102E4000D0CFB30000C0600002407000F6FBB700B6
:102E500000C3B300DE16070012002000210020008E
:102E600010002000DA1307000040E9006140600014
:102E7000614060004201DD0061BF210091407800A7
:102E8000B0CFB30000C0600002407000F6FBB70096
:102E9000E0C1B300CE160700120020002100200080
:102EA00010002000CA1307000040EA0061406000E3
:102EB000614060004601DD00B18020009140780053
:102EC000F0CBB30000C06000024070000BE8B70018
:102ED0000B48A9000B88A80023003700F67BA90047
:102EE000230007000040EB00B91607001E00370062
:102EF0006F0007001C0037001E0190005207980069
:102F0000DE0190000300E000040032005E0090004B
:102F1000E10F5000040032000E00370060CF2E0099
:102F20004A1507001000370080D12E004715070012
:102F3000120020003100200010002000A413070020
:102F40000040E900F4FBB700F4DBBF007A000700A3
:102F50000500370070C1B3009D160700020037005E
:102F600080C1B3009A1607000080FA000000060036
:102F70000000FA0041E2A9000BC8BF000044B20003
:102F80000004E00003003200CEE2A800CF02A80057
:102F9000CEC2A800816A20009140780000CEB30024
:102FA00000C060007040B300A8E6B700916C20003C
:102FB0009140780000CEB30000C060007040B300C4
:102FC000C9E6B700816C20009140780000CEB300C4
:102FD00000C060000034A000C8E6B700CAC2A80064
:102FE000C8C2A900C902A900C8E2A800C922A90054
:102FF0000AC8BF008080FB00E0C0210000804000C4
:10300000104078000080FB001012880042A2A80047
:10301000F6DBBF0061406000614060004601DD00FA
:103020002124200091407800F0CBB30000C0600064
:103030000240700042E2B700F6DBBF000080FB00F8
:103040000000D10061406000614160003124200037
:1030500091407800E0CFB30000C0600002407000F3
:1030600043E2B700F6DBBF000080FB004200DE0059
:103070006140600061406000004140003124200058
:1030800091407800D0CFB30000C0600002407000D3
:1030900043E2B7000000EB00201288000000EB00C4
:1030A0000012880041E2A8000080FA00000006003B
:1030B0000000FA0041E2A900A8C6BF00F041B30039
:1030C000A8E6B700916C20009140780000CEB300D4
:1030D00000C06000C9E6B700816C20009140780014
:1030E00000CEB30000C06000C8E6B700CEE2A90081
:1030F000CF02A900CEC2A9000080FA00000006009D
:103100000200FA00004F78001E80FB004012880089
:1031100085C0BF00644060000004E000FCFF320096
:1031200040128000004F78008540A9001E80FB00FF
:103130000080FA00000006000400FA002047980012
:10314000E0D42E00C1140700D9FF07004D0007008E
:103150002E409000E14F500008003E00CAC2BF0060
:103160000080FB004600DE00614060008040780087
:103170002E40900080CF500008003A0041C2BF00AE
:1031800001C8B300014060000004E0000E003A00F6
:1031900041E2A80061E2A8000B00370041C2BF0075
:1031A00001C8B300014060000004E00006003200E6
:1031B00041E2A90061E2A900D0C0B300ED1507000B
:1031C000A0C0B300EB15070040C2BF000042B20030
:1031D0000004E00004003A0040128000004F780034
:1031E0001E407800FB00070060C2BF000042B20032
:1031F0000004E00008003A0040138000004F78000F
:10320000E0D62E007B1407001E407800F100070076
:1032100000D72E007714070040C2BF000044B20060
:103220000004E00004003A0060C2BF000044B200A5
:103230000004E0000500320030D72E0083140700A0
:1032400040C2A90060C2A9000A00370022C2BF0024
:10325000614060000004E000BDFF320030118000DA
:10326000004F7800D0C0B300C2150700A0C0B30063
:10327000C0150700700007003DFF07000080FA003E
:10328000000006000000FA00C8C2A800C902A80099
:10329000C8E2A800C922A800816A200091407800F5
:1032A00000CEB30000C060009040B300A8E6B700B5
:1032B000916A20009140780000CEB30000C0600009
:1032C0000034A000A9E6B700C16A20009140780050
:1032D00000CEB30000C060007040B300ACE6B700A1
:1032E000D16A20009140780000CEB30000C0600099
:1032F0000034A000ADE6B7000AC8BF008080FB0024
:10330000E0C0210000804000104078000080FB00F9
:1033100010128800F6DBBF00614060006140600071
:103320004601DD002124200091407800F0CBB3005D
:1033300000C060000240700042E2B700F6DBBF0050
:103340000080FB000000D10061406000614160002E
:103350003124200091407800E0CFB30000C060002D
:103360000240700043E2B7000000EB00201288002A
:103370000000EB00001288000AC8BF008080FB003C
:10338000E0C0210000804000104078000080FB0079
:1033900010138800F6DBBF006140600061406000F0
:1033A0004601DD002126200091407800F0CBB300DB
:1033B00000C060000240700062E2B700F6DBBF00B0
:1033C0000080FB000000D1006140600061416000AE
:1033D0003126200091407800E0CFB30000C06000AB
:1033E0000240700063E2B7000000EB002013880089
:1033F0000000EB00001388000000EB004012880082
:103400000000EB00401388004322A9006322A900BA
:103410004362A80042A2A9006362A80062A2A900B8
:1034200040C2A90060C2A9004402A8006402A8002A
:103430000080FA00000006000000FA0041E2A90046
:103440004362A90061E2A9006362A900A8C6BF00A7
:10345000F041B300A8E6B700A9C6BF00F041B30031
:10346000A9E6B700ACC6BF00F041B300ACE6B700B8
:10347000ADC6BF00F041B300ADE6B7000080FA0072
:10348000000006000000FA000BC8A9000040EB0095
:103490000AE8B7000B28A9000B08A9000B48A900EF
:1034A0000B68A9000B88A9000BA8A9000BE8A900CC
:1034B0000080FA00000006000000FA00C922A800FF
:1034C000C902A800C8E2A800C8C2A800C942A80052
:1034D000CA82A900C882A9000000EB002040880031
:1034E000E8FF0700CAA2A900C8A2A900C082A900DB
:1034F000C282A9002D23A9002D43A9002D63A90094
:103500002D83A900013220009140780000CEB30045
:1035100000C0700020E3B7000000EB0080198800B5
:1035200020F02100201988000000EB00101988000D
:103530000080FA00000006000200FA00004F780048
:103540001E80FB00401988002023A8002003A9004A
:1035500020C3BF00614060000004E000FCFF3200B7
:10356000001880000080FA00000006000000FA0049
:1035700021E3A800C0C0B300EFFF0700C21407009A
:1035800021E3A9000080FA00000006000000FA0014
:1035900000C8BF000080FB008000400000B7210091
:1035A0000080400010007800401188000000EB000F
:1035B000001188002062A8000000EB0010118800B4
:1035C00021E2A8002342A8008560A9000080FA003B
:1035D000000006000400FA00004F78001040800050
:1035E000100798001E009000E10F50000D003200FF
:1035F0001E009000E10F5000070039001E009000EF
:10360000E20F50000A0032001E009000E30F50004D
:103610000A0032000B0037001E80FB006614070012
:10362000080037001E4078003214070005003700FC
:103630001E4078009F130700020037001E407800EC
:10364000CC1407000080FA00000006000600FA0013
:10365000404798000040EB00204798000E003700DC
:103660000000EB00000F780005003700A0CFB3008A
:103670000F0007001E0078000000E800000F78002F
:103680001E007800E30F5000F8FF36002E40900037
:103690000040E80020479800AE4090004E40900067
:1036A00080CF5000EEFF39000080FA0000000600D5
:1036B0000400FA00204798000040EB00004F78001B
:1036C00013003700000000000000000000000000B0
:1036D00000000000000000000000000000000000EA
:1036E00000000000000000000000000000000000DA
:1036F00000000000000000000000000000000000CA
:10370000000000001E4078000040E800004F7800F4
:103710009E4078002E40900080CF5000E9FF390095
:103720000080FA00000006000C00FA00004F78004C
:10373000110798002207980094DBBF00E14F50006A
:1037400030003A0000C2B3008A14070030C0B30052
:103750009E4F10000600320021C0B3009ECF100023
:103760000300320042C0B3009E4F11000F003A0028
:1037700070C0B30096140700D0C0B3007D140700DA
:10378000A0C0B3007B14070095DBBF000004E0007D
:1037900003003A0010C0B300051A070017003700F5
:1037A00010C0B3008202070014003700C3C1B30089
:1037B0009ECF110003003A0000832E002313070060
:1037C000AD01370060C0B30081140700D0C0B30062
:1037D00068140700A0C0B3006614070095DBBF00A3
:1037E0000004E00003003A000040EB00F01907007D
:1037F000020037000040EB006D0207000040EB00C4
:1038000094FBB7001E80FB006101B90032079800ED
:1038100043079800C0012000010020003E019000F5
:10382000CE019000800F5100818F590090013E0021
:103830003E009000CE009000006001001C003700A8
:10384000590037008A00370089003700910037009F
:10385000D500370086013700850137008401370025
:103860008301370082013700810137008001370072
:103870007F0137007E0137007D0137007C01370072
:103880007B0137007A013700790137007801370072
:103890007701370076013700750137008600370061
:1038A000AA003700B90037007101370072013700F4
:1038B0002E009000E10F50000D003A0010C0B30040
:1038C0004314070095DBBF000004E00003003A004A
:1038D0007619070097FBB700020037005102070076
:1038E00097FBB70097DBBF003AFF07002B003700BC
:1038F00020C0B300361407002E00900035FF0700EB
:1039000030C0B300321407000000EB00C0DC8800B8
:103910001E003700C0DC80000000E0000E00320016
:1039200000C2B3001314070060C0B30028140700DE
:1039300000C2B3000F14070095DBBF000004E000D5
:1039400003003A000040EB0099190700020037001D
:103950000040EB001602070095DBBF000004E0000A
:1039600003003A005119070097FBB7000200370027
:103970002C02070097FBB70097DBBF0015FF07007D
:10398000C0DC80000000E800C0DC8800C1DC8000F2
:103990002E009000808F5000DEFF390010C0B30071
:1039A00094FBB7003401370040C0B300081407008F
:1039B0001E00900007FF07002E009000E10F50004E
:1039C0000600360000842E008A1207002E009000A8
:1039D00000FF070050C0B300FD1307000000EB001C
:1039E000C0DC88000F00370095DBBF000004E0005A
:1039F00005003A001E009000FB1807005B19070045
:103A000097FBB700040037001E009000FB01070081
:103A1000E001070097FBB700C0DC80000000E80071
:103A2000C0DC8800C1DC80002E009000808F500038
:103A3000EDFF390000C2B300CE13070097DBBF00D3
:103A40000004E00003003A0060C0B300E013070088
:103A50000200370070C0B300DD130700D0C0B30010
:103A6000C4130700A0C0B300C2130700020137004F
:103A700095DBBF000004E00002003A006B1807006D
:103A800001003700B301070080C0B300D013070066
:103A9000F900370095DBBF000004E00002003A00A7
:103AA0007518070001003700B201070090C0B3008D
:103AB000C7130700F00037000BC8A8000B88A80048
:103AC00040842E0061120700120020002100200017
:103AD00010002000BE1007000040E90095FBB70071
:103AE00095DBBF000004E00009003A0010C3B300FA
:103AF000B713070012002000210020001000200052
:103B0000B31007000040E9000AE8B700DA00370008
:103B10004140800030002300808F500002003E00B2
:103B2000A0862E0049120700008A2E0047120700C7
:103B3000120020003100200010002000A410070017
:103B40000040E9000AE8B700CB00370095DBBF0072
:103B50000004E00009003A00C922A800C902A80038
:103B6000CB02A900CB22A900A180200091407800BF
:103B700020C0B3000A18070001003700B401070095
:103B80000040EB0092130700BB0037000040EB0041
:103B900094FBB70095DBBF00E14F5000B6003A0040
:103BA00007E2A900B40037009E009000510798007A
:103BB0005E019000E10F51000D003200DE01900027
:103BC000E18F5100070039005E009000E20F5000C5
:103BD0004E003200DE009000E38F50008F00320074
:103BE000A0003700D08C2E0018120700A20037006A
:103BF000308F2E00151207000000EB00C0DC88009B
:103C00003900370095DBBF000004E00006003A00F1
:103C100006180700C0DC800073180700D3180700DF
:103C200097FBB700050037004A010700C0DC8000A1
:103C3000720107005701070097FBB70097DBBF0031
:103C40000004E0001F003A00C0DC800061FE0700B5
:103C500080C2B30047130700C0DC80000000D10021
:103C60005CFE0700C0DC80000000A2006100600074
:103C70000004E00003003200C0922E00DD110700B6
:103C80000C00370095DBBF000004E00004003A00A0
:103C90008618070010C0B300C518070003003700DE
:103CA0006001070010C0B30041010700F0922E0030
:103CB000D011070020932E00CE11070000C2B300E0
:103CC0002C13070095DBBF000004E00002003A005F
:103CD000E91707000100370026010700C0DC80005B
:103CE0000000E800C0DC8800C1DC8000F00F20008C
:103CF000808F5000C3FF3600D0C0B3001D130700F3
:103D0000A0C0B3001B1307005B00370040932E00D8
:103D1000B811070002052000F1072000A0002000D4
:103D20002B10070097FBB70097DBBF000040400057
:103D300097FBB70050942E00AE110700F20F200041
:103D4000F10F2000A00020002110070096FBB70013
:103D5000B0942E00A7110700B417070097DBBF002F
:103D600021180700811807000040EB001E1807000B
:103D70007E1807000040EB001B1807007B180700A7
:103D8000AA17070097DBBF000040E80097FBB700C9
:103D900097DBBF00141807007418070096DBBF00FC
:103DA0000040E90096FBB7000000EB00C0DC880093
:103DB0000C0037003D18070006FE07000040EB002E
:103DC0007B18070010408000E20F500002003E0008
:103DD00000C2B300E7120700C0DC80000000E8006A
:103DE000C0DC880096DBBF008080FB00C0DC800068
:103DF000808F5000EFFF3E002C180700F5FD0700F4
:103E000010C0B3006A180700D0C0B300D912070071
:103E1000A0C0B300D71207001700370095DBBF0022
:103E20000004E0000F003A0000962E008711070002
:103E3000130007003500070022C2BF006140600088
:103E40000004E000FBFF320030118000C0DC88007D
:103E5000D0C0B300C7120700A0C0B300C51207004E
:103E60000500370070C1B300D91207000200370007
:103E700080C1B300D61207000080FA0000000600DF
:103E80000000FA00C922A800C902A800CB02A900BC
:103E9000CB22A90062A0A80062C0A8008660A90089
:103EA0000000EB00D0DC88000040EB009FFBB70077
:103EB000CBC2BF000080FB000000D1006140600069
:103EC00061416000E1B9210091407800E0CFB3008A
:103ED00000C06000024070009EFBB700CBC2BF0074
:103EE00061406000614060004201DD00E1B92100F5
:103EF00091407800B0CFB30000C060000240700075
:103F00009EFBB7000080FA00000006000400FA00E3
:103F100086C0BF00684060000004E0008B003200F3
:103F2000CBC2BF000080FB000000D10061406000F8
:103F30006140600000414000E1B9210091407800FB
:103F4000D0CFB30000C06000024070009EFBB700FD
:103F5000CBC2BF0061406000614060004301DD00F2
:103F6000E1B921009140780070CFB30000C060003B
:103F7000024070009EFBB7008660A9009EDBBF0078
:103F8000644060000004E000220032009EDBBF00BD
:103F9000684060000004E0001E0032009EDBBF00AD
:103FA000614060000004E0000B0032009EDBBF00B7
:103FB000624060000004E00007003A00200020009A
:103FC000D0DC88000040EB009FFBB700B0C5B30019
:103FD00068120700460037009EDBBF0061406000AA
:103FE0000004E00042003A009EDBBF006240600037
:103FF0000004E0003E0032000000EB00D0DC88004E
:104000000040EB009FFBB700D0C5B300591207007A
:10401000370037009EDBBF00644060000004E00012
:1040200033003A009EDBBF00684060000004E000FF
:104030002F003200D0DC8000100798001E00900096
:10404000E20F5000040032001E009000E30F500009
:1040500017003200260037009CDBBF000040400004
:104060009CFBB7009EDBBF000080FB000000D1007E
:1040700061406000804078009CDBBF0000C04000D1
:104080009CFBB7009FDBBF000040E8009FFBB70030
:104090009FDBBF00E84F500015003A000040EB00E6
:1040A0009FFBB70030002000D0DC880010003700F4
:1040B000CBC2BF000080FB000000D1006140600067
:1040C000004F78009CDBBF0042FD07001E04E000AB
:1040D00003003200D0C2B3002612070002003700EE
:1040E000B0C2B3002312070020002000D0DC8800FB
:1040F0009EDBBF000080FB000000D100614060003B
:1041000061416000E1B9210091407800E0CFB30047
:1041100000C06000024070009EFBB7009EDBBF0045
:104120000080FB004300DE006140600061406000F1
:104130004201DD00E1B9210091407800B0CFB30029
:1041400000C06000024070009EFBB7000080FA00D3
:10415000000006000000FA000602A80006C2BF0028
:10416000614060000004E000FCFF3A000080FA00BB
:10417000000006000000FA000642A80006C2BF00C8
:10418000644060000004E000FCFF3A000080FA0098
:10419000000006000000FA0009C2BF000080FB001A
:1041A0004700DE000080FB000080FA0000000600EF
:1041B0000200FA00004F78009E40780061C0600065
:1041C000614060004501DD006120200091407800E1
:1041D000F0CDB30000C060000240700006E2B700FE
:1041E0000682A80006C2BF00704060000004E00024
:1041F000FCFF3A000080FA00000006000200FA000E
:10420000004F78001E40780002E2B70009C2BF00EC
:104210000044B2000004E000FCFF3A000080FA0015
:10422000000006000200FA000662A80006C2BF00F5
:10423000684060000004E000FCFF3A0000C2BF00DC
:10424000004F78001E80FB000080FA00000006008E
:104250000000FA000742A9000782A9000000EB0055
:10426000501088000000EB00601088000702A900D1
:104270000AC8BF008080FB0020C1210000804000F0
:10428000104078000080FB002010880007E2A800A2
:104290000080FA00000006000C00FA00004F7800D1
:1042A00011079800220798001E80FB006101B900E9
:1042B0003207980043079800C00120000100200049
:1042C0003E019000CE019000800F5100818F590077
:1042D00032013E003E009000CE00900000600100E0
:1042E0004E003700700037003C00370041003700B7
:1042F00046003700BC0037008E00370098003700BA
:10430000A2003700A8003700AB003700AE0037002E
:10431000B100370021013700200137001F013700AD
:104320001E0137001D0137001C0137001B0137003B
:104330001A0137001901370018013700170137003B
:104340000400370021003700160137001301370041
:1043500014013700E0C1B3009D11070012002000D6
:104360002100200010002000990E07000040E90005
:10437000614060006141600041BB210091407800D4
:10438000E0CFB30000C0600002407000B4FBB70093
:10439000B4DBBF006140600000C0EA006140600023
:1043A000614060004601DD00B1802000914078004E
:1043B000F0CBB30000C06000024070000BE8B70013
:1043C0000B48A8000B88A800F600370086010700FC
:1043D0000040EB007E110700F2003700F3000700F9
:1043E00020C0B30043010700E02A2E001710070089
:1043F000EC003700ED00070030C0B3003D010700BE
:10440000802D2E0011100700E6003700E70007009E
:1044100000302E000D100700E20037002E00900043
:10442000E10F500007003A00E0010700B2FBB700BF
:1044300010C0B30066110700B2DBBF0065FC0700C7
:104440001400370020C0B300611107002E00900057
:1044500060FC070030C0B3005D1107000000EB00F6
:1044600080DD880007003700D001070059FC0700F5
:1044700000C2B3003F11070080DD80000000E800AB
:1044800080DD880081DD80002E009000808F50004C
:10449000F5FF3900D0C0B30036110700A0C0B3004B
:1044A00034110700BF00370040C0B30048110700B7
:1044B0001E00900047FC07002E009000E10F500006
:1044C00004003A001E00900052010700B2FBB70042
:1044D00013003700D0302E00C60F07002E009000CA
:1044E0003CFC070050C0B300391107000000EB008E
:1044F00080DD8800060037001E009000450107009F
:10450000B2FBB70080DD80000000E80080DD88009D
:1045100081DD80002E009000808F5000F6FF390072
:10452000D0C0B30013110700A0C0B30011110700E1
:104530009C003700E1010700B2FBB700D0C0B30018
:1045400023110700B2DBBF00A30F0700D0C0B300E8
:1045500008110700A0C0B300061107009100370042
:10456000E0C0B3001A110700DE010700B2FBB7007C
:10457000B2DBBF00980F0700D0C0B300FD100700EA
:10458000A0C0B300FB100700860037002E0090008B
:1045900010FC070000C1B3000D1107002E009000B1
:1045A000F90107007F00370010C1B30008110700B0
:1045B000020207007B00370020C1B300041107008E
:1045C000170207007700370030C1B3000011070061
:1045D000CB0107007300370040C1B300FC10070097
:1045E000E20107006F0037009E009000510798001D
:1045F0005E019000E10F51000D003200DE019000DD
:10460000E18F5100070039005E009000E20F50007A
:104610000C003200DE009000E38F500055003200A5
:104620005B00370010312E00720F07005D0037006D
:10463000A7000700E0352E00840F07005B0007008D
:1046400058003700C0362E00800F0700A00007007A
:10465000E0352E007D0F0700A90107005300070079
:1046600020C0B300A300070000C0EB00C601070094
:1046700000C0EB00C40107004C00070030C0B300CD
:104680009C0007000000EB0080DD88000700370079
:1046900080DD80000000E80080DD880081DD800092
:1046A000900F2000808F500003003E008301070020
:1046B0000004E000F6FF32003C0007008400070021
:1046C000E0352E00610F07003800070030C0B3004E
:1046D0008800070080DD8000BEFB0700C0372E0089
:1046E0005A0F07000040EB00B2FBB7001A0037007A
:1046F000B2DBBF000040E800B6FB070050392E00D7
:104700003C0F070029010700B2FB070000C2B300FD
:104710009810070025010700AEFB070000C2B30098
:104720009410070021010700AAFB070000C2B30094
:10473000901007001D010700A6FB0700D0C0B300C2
:104740008C100700A0C0B3008A100700B2DBBF00C6
:104750000040E800B2FBB700B2DBBF008080FB0086
:1047600080DD8000808F5000E1FF39000F000700DE
:104770000C00370090392E00340F0700C03D2E008A
:10478000320F070010412E00300F070005003700E0
:1047900070C1B3008E1007000200370080C1B30063
:1047A0008B1007000080FA00000006000200FA00EB
:1047B000C0432E000F0F0700ACDBBF000080FB00E2
:1047C000000F78001E007800E10F50000E0032004C
:1047D0001E007800E10F500004003C001E0078002D
:1047E0000000E0000B003200350037001E007800AA
:1047F000E20F50000F0032001E007800E30F50005F
:10480000240032002E00370050442E000F0F070006
:104810002D003700A401070010C0B3005A010700A3
:1048200010C0B300ACFBB70020452E00070F0700F7
:1048300025003700ADDBBF00E14F50000A003A0011
:10484000AEDBBF00E14F500002003A002C01070030
:1048500001003700450107000040EB00ADFBB70049
:10486000E0452E00E30E07007401070020C0B300EE
:10487000450107008C01070010C0B300420107008A
:1048800010C0B300ACFBB70030472E00EF0E07009E
:104890000D0037006901070020C0B3003A0107008E
:1048A0008101070010C0B3003701070010C0B3003A
:1048B000ACFBB700C0472E00E40E07000200370033
:1048C00050482E00E10E07000080FA0000000600AC
:1048D0000000FA0059010700A0C0B3002A01070038
:1048E000710107000040EB00ACFBB7000080FA004C
:1048F000000006000400FA00004F7800ACDBBF00A7
:10490000E14F50000200320030492E00CF0E070068
:10491000C0432E00B70E07001E80FB001007980052
:104920001E009000E10F50000E0032001E009000AB
:10493000E10F500004003C001E0090000000E00069
:104940000B003200240037001E009000E20F5000E0
:10495000160032001E009000E30F500008003200E5
:104960001D00370050442E00B80E07001C00370011
:10497000D7FF0700F04A2E00B40E070018003700DA
:104980002E01070010C0B300FF000700460107001A
:1049900020C0B300FC00070030C0B300ACFBB70080
:1049A000504B2E00A90E07000D0037002301070011
:1049B00020C0B300F40007003B01070020C0B30093
:1049C000F100070020C0B300ACFBB700904C2E00F4
:1049D0009E0E070002003700E04F2E009B0E0700DE
:1049E0000080FA00000006000000FA00C8E2A800FB
:1049F000C902A900C922A900C8C2A900CAE2A90027
:104A0000CB02A900CB22A900CAC2A9000080FA00EB
:104A1000000006000800FA00404798000001070067
:104A2000ADDBBF00E14F500006003A00AEDBBF0037
:104A3000910007000040EB00ADFBB70080512E0055
:104A4000820E07000BC8BF00684060000004E00051
:104A50000300320010C0B300004F7800020037009E
:104A600000C8B300004F78000040EB0030479800CA
:104A7000450037004E4090001E4060000004E000FA
:104A800002003A00B9000700010037009C0007004F
:104A9000CA000700CAC2BF000080FB004700DE005A
:104AA000204798000BC8BF00684060000004E00089
:104AB000100032004E4090000080FB000000D1004A
:104AC000404798001E4090000080FB000000D1008D
:104AD000104798002E409000E14F500011003A001E
:104AE0001E40900001C8B3000140400010479800EC
:104AF0000C0037004E4090000040400040479800B6
:104B00001E40900000404000104798002E4090004A
:104B1000E14F500003003A001E4090000040E800C2
:104B200010479800BE000700ACDBBF00E24F50000A
:104B300012003A003E409000E64F50000F003A004D
:104B400010C0B300ADFBB7004E4090001E406000A7
:104B50000004E00003003A000040EB00AEFBB700A9
:104B60000200370010C0B300AEFBB7001E4090003B
:104B70000080FB0030079800090037003E4090009D
:104B80000040E800304798003E409000E74F50005A
:104B9000B8FF36001E4090000080FB0030079800F0
:104BA0003E0090000080FA00000006000400FA00B9
:104BB0009B000700ADDBBF00E14F500006003A004C
:104BC000AEDBBF002C0007000040EB00ADFBB700E0
:104BD00080512E001D0E07000040EB00204798007A
:104BE0001F00370075000700CAC2BF000080FB002D
:104BF0004700DE00104798000BC8BF006840600007
:104C00000004E00008003A001E4078000040400028
:104C1000004F78001E4090000004E0000C003200BD
:104C20001E4FE8000A0037001E80FB000000D10084
:104C3000004F78001E4090000004E00004003200A5
:104C40001E40780001C8B30001404000004F7800CA
:104C5000730007002E4090000040E80020479800B5
:104C60002E409000E74F5000DEFF36001E80FB0014
:104C70000080FA00000006000400FA0020479800B7
:104C80002E4090000004E00002003A0037000700C8
:104C9000010037001A00070048000700CAC2BF0021
:104CA0000080FB004700DE00004F78005C0007003A
:104CB0001E80FB000080FA00000006000200FA00DF
:104CC0003E000700CAC2BF000080FB004700DE00B4
:104CD000004F7800520007001E80FB000080FA00A1
:104CE000000006000000FA00CAC2BF000080FB00FE
:104CF0004700DE000080FB000080FA000000060094
:104D00000000FA00B4DBBF006140600000C0EA00B0
:104D1000614060006140600000414000912C200033
:104D200091407800D0CFB30000C060000240700016
:104D3000C9E2B700B4DBBF006140600061406000C1
:104D400000414000B12C200091407800D0CFB3004A
:104D500000C0600002407000CBE2B70040C1B30069
:104D600053FA07000080FA00000006000000FA0075
:104D7000CB22A900C922A90040C1B3004CFA070008
:104D80000080FA00000006000400FA0020479800A6
:104D90000040EB00004F78000300370007000700D9
:104DA0001F0007001E4FE8002E4090009E4F10008D
:104DB000FAFF39000080FA00000006000000FA0047
:104DC000B4DBBF006140600000C0EA0061406000E9
:104DD00061416000912C200091407800E0CFB30049
:104DE00000C0600002407000C9E2B700B4DBBF0041
:104DF0006140600061416000B12C2000914078006A
:104E0000E0CFB30000C0600002407000CBE2B7000A
:104E100040C6B30026FA07000080FA000000060032
:104E20000000FA00CB02A900C902A90040C6B300E5
:104E30001FFA07000080FA00000006000000FA00D8
:104E4000B4DBBF006140600000C0EA006140600068
:104E5000614060004601DD00812C20009140780017
:104E6000F0CBB30000C0600002407000C8E2B700A1
:104E7000B4DBBF0061406000614060004601DD00BE
:104E8000A12C200091407800F0CBB30000C060005E
:104E900002407000CAE2B70040C1B30004FA070044
:104EA0000080FA00000006000000FA00CAC2A90053
:104EB000C8C2A90040C1B300FDF907000080FA0094
:104EC000000006000200FA00F0C2B300104798008C
:104ED0000040EB00004F7800C922A800CB22A900B7
:104EE000C922A90005003700A0C0B300F0F90700EF
:104EF0001E4090000040E900104798001E409000BE
:104F00000004E000F8FF3C00C922A800C0C3B300C1
:104F1000E7F90700CBC2BF000080FB000000D10012
:104F20006140600016FCB70090C2B30010479800C3
:104F300005003700A0C0B300DDF907001E40900057
:104F40000040E900104798001E4090000004E00077
:104F5000F8FF3C00CBC2BF000080FB000000D10086
:104F60006140600017FCB70017DCBF000004E000E0
:104F700002003A0010C0B300004F780016DCBF00FA
:104F8000E14F500003003A001E40780000C0E800E6
:104F9000004F7800A0C0B300C5F907001E80FB00D9
:104FA0000080FA00000006000400FA002047980084
:104FB00080C0B300004F78001D0037002E409000E5
:104FC0006140600018FCB700CB22A900C922A900EB
:104FD00050C0B300B6F9070018DCBF0061406000A4
:104FE0006140600000414000912C20009140780019
:104FF000D0CFB30000C0600002407000C9E2B7002B
:1050000020C3B300AAF9070050C0B300A8F90700F5
:10501000C922A800A0C0B300A5F907002E40900047
:105020000080FB000000D100204798001E4FE900DF
:105030001E04E000E1FF3C00A0C0B3009CF90700A3
:105040000080FA00000006000200FA00004F78001D
:10505000CB22A900C922A90050C0B30094F90700CF
:105060009E40780061C060006140600000414000E7
:10507000912C200091407800D0CFB30000C0600098
:1050800002407000C9E2B70020C3B30088F90700EE
:1050900050C0B30086F90700C922A800A0C0B30021
:1050A00083F907000080FA00000006000200FA0001
:1050B00080C0B300104798000040EB00004F78001C
:1050C0001D003700CB22A900C922A90030C0B300BF
:1050D00077F90700C922A80050C0B30074F907008F
:1050E000CBC2BF000080FB000000D1006140600027
:1050F00018FCB70040C3B3006DF907001E80FB0029
:105100000000D100004F780018DCBF00E14F5000D4
:1051100004003A001E40780001C8B300014040007E
:10512000004F7800A0C0B30061F907001E40900056
:105130000040E900104798001E4090000004E00085
:10514000E0FF3C00A0C0B30059F907001E80FB003F
:105150000080FA00000006000000FA00CB22A9003F
:10516000C922A90030C0B30051F90700C922A80024
:1051700050C0B3004EF90700CBC2BF000080FB0057
:105180000000D1006140600018FCB70040C3B300CC
:1051900047F90700A0C0B30045F9070018DCBF00BD
:1051A0000080FB000080FA00000006000800FA0002
:1051B00020079800310798000040EB00004F78006E
:1051C0000000EB00100798000C0037001E00900054
:1051D000800078002E009000008040001040780091
:1051E0001E4068008080FB00A0BB2E00614F78004D
:1051F0001E0090000000E800100798009E0090003C
:105200003E009000808F5000F0FF35001E80FB00B4
:105210000080FA00000006000C00FA00881F7800E9
:10522000004F780011079800220798001E80FB00AD
:105230006101B9003207980043079800C0012000BF
:10524000010020003E019000CE019000800F51002F
:10525000818F5900C3013E003E009000CE009000B7
:10526000006001001C00370040003700600037007C
:105270005F003700BB0137009F0037005E0037003A
:10528000B801370065003700B6013700B5013700B7
:105290007700370076003700B2013700B1013700E0
:1052A000B0013700AF013700AE013700AD01370064
:1052B000AC013700AB013700AA013700A901370064
:1052C000A80137007D00370080003700A7013700B4
:1052D000A4013700A50137002E009000E10F500017
:1052E00007003A0010C0B300B90D07006FFF0700B8
:1052F000FBFAB700FBDABF00B6F80700160037006C
:1053000020C0B300B20D07002E009000B1F80700D6
:1053100030C0B300AE0D07000000EB00C0D788001E
:105320000900370061FF0700FBFAB700FBDABF0096
:10533000A8F8070000C2B3008E0D0700C0D7800098
:105340000000E800C0D78800C1D780002E00900080
:10535000808F5000F3FF3900D0C0B300850D0700E7
:10536000A0C0B300830D07008001370040C0B30028
:10537000970D07001E00900096F807002E00900081
:10538000E10F500003003A001E00900006FF0700E6
:1053900012003700A0F72D00160C07002E00900019
:1053A0008CF8070050C0B300890D07000000EB0027
:1053B000C0D78800050037001E009000FAFE0700E5
:1053C000C0D780000000E800C0D78800C1D78000A7
:1053D0002E009000808F5000F7FF3900D0C0B3003E
:1053E000640D0700A0C0B300620D07005F01370025
:1053F000610107005D01370057FF0700FBFAB700A6
:10540000D0C0B300720D0700FBDABF00F20B07003B
:10541000F0C0B3006E0D0700540137002E0090005D
:105420006CF80700E0F72D00F20B07000000EB001E
:10543000C0D7880005003700EEDABF0002FF070082
:10544000C0D780000000E800C0D78800C1D7800026
:105450002E009000808F5000F7FF3900EEDABF0079
:10546000DD0B0700E0F82D00F80B07003F013700C7
:1054700000F92D00DF0B0700C1C0B3009ECF100064
:1054800005003A000040EB00EEFAB7000040EB00E8
:10549000D10B07000400370010C0B300EEFAB700CC
:1054A00010C0B300CC0B0700C0F92D00E70B0700BC
:1054B000EEDABF00E4FE07002C0137000B48A9001C
:1054C0000B88A8000BC8A800280137000040EB009B
:1054D000FCFAB700C922A800CB22A90070FC2D005D
:1054E000DA0B070080FF2D00D80B07000040EB000F
:1054F000370D07001D0137001E0090000000E0007E
:10550000360032009E00900020032000808F500063
:1055100032003E001E0090000000E90010079800D5
:10552000FCDABF008080FB001E009000808F5000DE
:1055300003003E0020022E00C40B07000B013700C1
:10554000C0042E00AB0B07001E0090000040E800D6
:10555000680C0700B0052E00A60B07000040EB000A
:10556000FAFAB700170037001E019000FADABF0000
:105570008080FB004310DD0081004000D0AF21009F
:10558000008040001040780012F8070000C2B3000D
:10559000F80C07001E019000FADABF008080FB00C3
:1055A0004310DD0081004000D0AF210000804000AA
:1055B000104078007CFE0700FADABF000040E800E7
:1055C000FAFAB700FADABF00E74F5000E6FF3600FC
:1055D000E0052E009D0B0700E40037001E0190003F
:1055E0005207980050052000DE019000808F510086
:1055F000CD00320050052000DE009000808F50006A
:1056000008003E005E0190000200E000120032003F
:1056100030032000DE019000808F5100A000320096
:10562000CD003700C00E2000DE009000808F5000BB
:1056300046003200000F20005E019000800F5100F4
:1056400042003200C00C2000DE019000808F51002B
:10565000BB003200C000370000062E007B0B0700A5
:10566000E0062E00790B0700FCDABF000004E00022
:1056700003003A0020022E00740B070030003700B0
:105680000040EB00FBFAB7002800370000C2B3006F
:10569000B80C0700FBDABF000040E800150C07005B
:1056A00060082E00530B07000040EB00FAFAB70029
:1056B0000F003700FBDABF000081FB00FADABF0001
:1056C0008080FB004310DD0081004000D0AF21004E
:1056D0000080400010407800BEF7070000C2B30011
:1056E000A40C0700FADABF000040E800FAFAB7009D
:1056F000FADABF00E74F5000EEFF360080082E00B8
:105700003C0B0700FBDABF000080FB00C300DD009C
:10571000D0AF21000080400010407800B7000700A3
:10572000FBDABF000040E800FBFAB700C1AF210080
:1057300091407800FBDABF0080CF5000D3FF3E00DD
:10574000F0082E00410B0700880037001E00900073
:105750003CF9B7009E009000C00E2000808F5000E2
:1057600003003A0030162E00380B07000200370005
:1057700070172E00350B0700E0062E00330B0700D4
:105780000040EB00FAFAB700CB000700FBFAB700C5
:105790000040EB00FCFAB7003B00370000C2B3004A
:1057A000740C0700FADABF000040E800D10B0700D4
:1057B00060082E000F0B07000000EB00C0D7880028
:1057C0000A003700C1D78000D0B42100008040001B
:1057D000104078007FF7070000C2B300650C070097
:1057E000C0D780000000E800C0D78800C0D7800084
:1057F000E70F5000F3FF360080082E00FD0A070077
:105800004DDBBF007D000700FADABF00E94F500012
:1058100018003E000000EB00C0D788000F003700E2
:10582000FCDABF008081FB00C4D78000C1D78000B4
:10583000D0B4210000804000104178004318DD0002
:1058400084004000D0AF2100008040000248780072
:10585000C0D780000000E800C0D78800C0D7800013
:10586000E70F5000EEFF3600FCDABF000040E80012
:10587000FCFAB700FADABF000040E800FAFAB70015
:1058800098000700FBFAB700FBDABF000004E00055
:10589000C2FF3A0050182E00EC0A07003300370010
:1058A00035000700101B2E00D20A070030C3B300DA
:1058B000BDFD07000000EB00C0D7880010003700D6
:1058C000C8D78000F9FD070080407800F0AE2100C5
:1058D0000000440001487800C1D78000F0AE2100EC
:1058E00000804000104078003AF7070000C2B30083
:1058F000200C0700C0D780000000E800C0D7880057
:10590000C0D78000E70F5000EDFF3600D0C0B300D5
:10591000180C0700A0C0B300160C0700EFDABF0098
:10592000360007001100370013000700301C2E005E
:10593000C60A070050C5B3009BFD07000B003700E7
:105940000D000700401D2E00C00A0700C0CCB300A8
:1059500095FD07000500370070C1B3001C0C07005F
:105960000200370080C1B300190C07004F04780013
:105970000080FA00000006000200FA0051FD070056
:10598000004F7800401E2E009A0A07001E04E00017
:1059900003003A00F01E2E00AC0A07001500370085
:1059A000201F2E00930A07001E80FB00610060008C
:1059B0000004E00002003200A01F2E008D0A070044
:1059C0001E80FB000000D100610060000004E000C8
:1059D0000200320000212E00860A070050222E000D
:1059E000840A07001E407800FAF60700E0F82D0050
:1059F000960A07000080FA00000006000400FA0082
:105A0000004F78001E80FB00100798002002200045
:105A10009E009000808F50001A003200200220006B
:105A20009E009000808F500007003C001E009000F8
:105A3000E40F5000160032009E009000F08F5000DE
:105A40000A00320018003700800220009E009000FB
:105A5000808F500008003200D00220009E0090008D
:105A6000808F50000D0032000F00370070222E0092
:105A7000760A07000E00370030242E00730A070054
:105A80000B003700E0252E00700A070008003700E1
:105A900040272E006D0A070005003700D0282E0091
:105AA0006A0A070002003700E0292E00670A070093
:105AB0000080FA00000006000000FA000040EB0041
:105AC00055FBB7000040EB0057FBB7000040EB0070
:105AD00056FBB700080007000080FB000080FA00BA
:105AE000000006000000FA00030007000080FB0031
:105AF0000080FA00000006000A00FA0010C0B3009F
:105B0000704798000040EB00604798000040EB00B1
:105B10005047980010C0B300104798000040EB00B9
:105B2000404798000040EB0058FBB70057DBBF0030
:105B30000004E0008B003A00E2FC07000004E000F3
:105B4000090032000040EB0055FBB7000040EB00BD
:105B500057FBB7000040EB0056FBB7000000EB001E
:105B600040079800900037003CD9BF000EFD0700A9
:105B700079FD07003047980077FD0700204798001F
:105B80003E409000E14F500003003A002E4090004C
:105B9000E14F500063003200BE4090002E40900064
:105BA00080CF5000030032003E409000004F78004C
:105BB0002400370051B52100914078007E409000CC
:105BC000814F50000E0031005E4090008080FB004D
:105BD000D0B4210000804000904078001E4090002A
:105BE00080C060000040EB00004F78000104E0003E
:105BF0000B00320010C0B300004F780008003700DF
:105C000055DBBF008040EB00014F7800FE40900064
:105C100080CF500002003A0010C0B300004F78005F
:105C20001E04E00007003A007E40900060479800A4
:105C30006E409000E84F500002003E006E40900021
:105C400056FBB70010C0B3009E4F10000D003A0085
:105C50005E4090000081FB005E4090008080FB0071
:105C6000D0B4210000804000904078001E40900099
:105C700080C07000D0B421000000410001487800CD
:105C80000F0037005E4090000081FB005E409000F6
:105C90008080FB00D0B421000080400010407800DC
:105CA000804078001E40900000C0EA0000C0600004
:105CB00080407800D0B42100000041000148780005
:105CC0001E407800E0FC07007E4090000040E800A5
:105CD000704798001E409000004040001047980018
:105CE0001E4090000004E0000B003A005E4090006F
:105CF0008080FB00D0B4210000804000104078007C
:105D0000840007005E4090000040E8005047980083
:105D100010C0B300104798005E409000E74F50005D
:105D200093FF3600FE40900000C4B30080CF5000C7
:105D30000C00360058DBBF000004E00009003A0008
:105D40006E40900055FBB70055DBBF000004E0003B
:105D500002003A0010C0B30057FBB70010C0B300F8
:105D6000404798004E4090000004E00003003200DD
:105D70004DDBBF000004E00008003A000040EB00EB
:105D800055FBB7000040EB0057FBB7000040EB00AD
:105D900056FBB7000040EB00404798004E40900093
:105DA0000080FB00400798004E0090000080FA0041
:105DB000000006000E00FA000040EB00404798008B
:105DC0000C0037004E4090000081FB004E409000D8
:105DD0008080FB00D0B4210000804000904078001B
:105DE00065004700017178004E4090000040E800D7
:105DF000404798004E409000E74F5000F1FF3600BA
:105E000055DBBF002047980057DBBF0010479800C4
:105E100056DBBF00004F780000C4B30055FBB7004D
:105E20000040EB0057FBB70033FF07000004E00021
:105E30001A00320010C0B300304798000040EB0059
:105E400040479800110037004E4090008080FB00D2
:105E500065004700614178004E4090008080FB0063
:105E6000D0B421000080400010407800804F5100E5
:105E7000030032000040EB00304798000900370073
:105E80004E4090000040E800404798004E4090008F
:105E9000E74F5000ECFF3600020037000040EB00F7
:105EA000304798000040EB00404798000C00370056
:105EB0004E4090000081FB004E4090008080FB002F
:105EC00065004700E1407800D0B4210000004100A7
:105ED000014878004E4090000040E800404798009C
:105EE0004E409000E74F5000F1FF36002E409000EA
:105EF00055FBB7001E40900057FBB7001E407800CE
:105F000056FBB7003E4090000080FB000080FA0086
:105F1000000006000200FA00004F780058DBBF00C6
:105F20001E4068008080FB00D0932100008040006C
:105F30001040780058FBB70058DBBF000080FB0022
:105F40000080FA00000006000A00FA00004F780006
:105F500011079800220798001E80FB003007980068
:105F60003E009000F80F5000170032003E009000F5
:105F7000F80F50000A003C003E009000E10F500076
:105F8000380032003E009000E50F50004F00320014
:105F90003E0090000000E000110032006E0037006B
:105FA0003E009000FA0F50006D0032003E0090005D
:105FB000FA0F5000060035003E009000FC0F500024
:105FC00067003200640037000BC8A8006400370087
:105FD0009D0007000040EB007D0A070060003700CD
:105FE0002E009000E10F500005003A0010C0B300F1
:105FF000770A07002E0107005B0007001400370036
:1060000020C0B300720A07002E00900071F507004F
:1060100030C0B3006E0A07000000EB00A0DE88006D
:1060200007003700220107004F00070000C2B3003D
:10603000500A0700A0DE80000000E800A0DE880013
:10604000A1DE80002E009000808F5000F5FF390007
:10605000D0C0B300470A0700A0C0B300450A07003C
:106060003F00370040C0B300590A07001E009000EF
:1060700058F507001E0090004B010700D6FBB70043
:10608000D6DBBF000004E00003003A0060C0B300AC
:106090004F0A070008003700D6DBBF00E14F500071
:1060A00003003A0070C0B300490A0700020037003D
:1060B00020E52E00CF080700D0C0B3002D0A07004E
:1060C000A0C0B3002B0A0700250037001E00900077
:1060D000400798004E0090000000E00004003200ED
:1060E0004E009000E10F500004003200170037000E
:1060F000F0E52E00D50807001900370060E82E00F3
:10610000D2080700EA0007000004E00004003A009B
:10611000D9DBBF002FF5070000C2B300150A070046
:1061200022C2BF00614060000004E000F5FF3200C1
:1061300030118000D6FBB700D0C0B3000D0A0700B5
:10614000A0C0B3000B0A07000500370070C1B30000
:106150001F0A07000200370080C1B3001C0A0700B5
:106160000080FA00000006000400FA00004F7800EA
:106170001E80FB00100798009E009000E28F5000E8
:106180001D0032001E009000E20F500007003C008E
:106190009E0090000100E0000F0032001E00900001
:1061A000E10F500011003200230037009E009000E4
:1061B000E48F50001A0032001E009000E40F5000DF
:1061C00012003500F00F20009E009000808F5000DC
:1061D0001600320018003700D9DBBF00FDF40700BD
:1061E00000C2B300E30907001500370030EA2E00B3
:1061F0008008070012003700D9DBBF00F5F4070064
:1062000040EB2E007B0807000D003700D9DBBF00F4
:10621000F0F4070030EC2E00760807000800370085
:1062200020E52E00730807000500370030ED2E0032
:10623000700807000200370090ED2E006D0807007F
:106240000080FA00000006000000FA00C922A80041
:10625000C902A900CB02A900CB22A9000080FA0044
:10626000000006000400FA000040EB002E010700C9
:106270000004E00003003200200020001007980016
:106280000E003700CBC2BF000080FB000000D10031
:1062900061406000004F780010C0B3002201070089
:1062A0000004E000030032002000200010079800E6
:1062B000020037001E80FB00100798001E009000AF
:1062C0000080FA00000006000600FA000040EB0023
:1062D000204798000040EB0010479800CBC2BF0059
:1062E0000080FB000000D10061406000614160005F
:1062F00081BD210091407800E0CFB30000C0600074
:1063000002407000D8FBB700D8DBBF0061406000DE
:106310000004E00003003200100020002007980075
:106320006000370010C0B300FF0007000004E00069
:106330000300320041002000210798005900370077
:106340000040EB0030479800190037001E409000D5
:106350000080FB000000D10010479800C1FF07003B
:10636000004F780020C0B3009E4F100003003A0099
:1063700041002000210798004A00370010C0B300F8
:106380009E4F100007003A009E40900000C8B300E6
:1063900000C04000104798002E4090000004A2006A
:1063A000204798003E4090000040E80030479800A9
:1063B0003E409000E74F5000E4FF36001E40900042
:1063C000D9FBB700A7FF0700004F780021C0B3003A
:1063D0009ECF100003003A004000200020079800E4
:1063E000300037009E40780061C06000614160006D
:1063F000A1BD210091407800E0CFB30000C0600053
:1064000002407000DAFBB700DADBBF0061406000D9
:10641000804078002E40900080CF500004003A0069
:10642000DA5BA80020002000200798001D0037003C
:10643000DA5BA9008BFF0700004F780021C0B30092
:106440009ECF100003003A00400020002007980073
:10645000140037009E40780061C060006140600019
:1064600000414000A1BD210091407800D0CFB30091
:1064700000C0600002407000DAFBB700C902A9004A
:10648000DADBBF00624060000004E00003003A0075
:106490003000200020079800020037008000EB0049
:1064A000210798002E0090000080FA0000000600EE
:1064B0000200FA0000C0EB00004F7800C922A800DB
:1064C000C902A8000040EB001047980010003700F8
:1064D000CBC2BF00614060000004E00007003A004A
:1064E00079FF0700004F78001E04E0000B00320027
:1064F00040C0B3009E4F10000800320050C0B300EF
:106500006BF407001E4090000040E8001047980020
:106510001E409000E14F4000EDFF3A00C902A90083
:106520001E80FB000080FA00000006000400FA0054
:10653000004F780010C0B3007B0007000004E000AB
:1065400003003200200020001007980013003700DD
:106550009E40780061C060006140600000414000E2
:10656000912C200091407800D0CFB30000C0600093
:1065700002407000C9E2B7000040EB006A0007006B
:106580000004E00003003200200020001007980003
:10659000020037008000EB00110798001E009000F9
:1065A0000080FA00000006000800FA00404798004A
:1065B0000040EB0020479800C902A900CB02A900C7
:1065C000C0C3B3003AF40700CB22A900C922A90036
:1065D000C902A80010C0B30035F407000040EB006A
:1065E000510007000004E0000300320040002000DA
:1065F00030079800490037000000EB00000F7800DA
:106600001C0037004E4090000080FB0061006000DD
:106610000004E0000B00320010C0B300C3FF07000D
:106620000004E00003003200400020003007980022
:106630003A0037002E4090000004A2002047980046
:10664000070037000040EB00B8FF07000004E0003F
:106650000300320040002000300798002F00370070
:106660004E4090000080FB000000D10040479800A1
:106670001E0FE800700020009E0F1000E1FF3600A2
:106680002E4090000004A200204798002E40900069
:10669000A6FF07000004E0000300320040002000D5
:1066A000300798001D003700C922A800CB22A9009E
:1066B00010C0B3001C0007000004E000030032001B
:1066C000400020003007980014003700E5FE070066
:1066D000E24F500003003A004000200030079800CD
:1066E0000E003700DFFE07000080FB00000F78007F
:1066F000200020009E0F100003003A004000200000
:106700003007980005003700C902A900CB02A90094
:106710001E0078000080FB00300798003E009000CB
:106720000080FA00000006000600FA0020479800EA
:106730000080EB00000F7800CBC2BF00614060001A
:10674000804078002E40900080CF500003003A0037
:106750000000EB0020079800050037001E0FE9003D
:106760001E00E000F4FF3A0010002000200798000F
:106770002E0090000080FA00000006001400FA00CD
:10678000881F7800B0DD8000E20F50000B003A0057
:1067900011E1A900A16C20009140780000CEB30067
:1067A00000C06000CAE6B70080AB2E0027070700D4
:1067B0000000EB00B0DD88009100370050AC2E00E7
:1067C0002207070020AF2E000A070700220320003F
:1067D00001FA2000400020007D05070030079800E6
:1067E00040B02E00030707003E009000E30F50006A
:1067F00007003E00E0B02E0014070700E003200071
:106800002007980010A1A8001081A8001B003700E5
:106810003E009000FE0F500007003E0020B12E0009
:106820000A070700A00F20002007980010A1A80069
:106830001081A90011003700BE009000400F200019
:10684000808F500007003E0050B12E00FF06070069
:10685000007D20002007980010A1A9001081A80049
:106860000600370070B12E00F806070000E823008C
:106870002007980010A1A9001081A9002E00900007
:106880003E019000110009000280D8000000E900DC
:106890005007980090B12E00D60607005E009000C9
:1068A00065070700D0C0B30032080700A0C0B300DE
:1068B00030080700E0B12E00CE06070022032000BA
:1068C0003106200020002000410507000004780068
:1068D0006140B90010EC0700000F9800110F9800FC
:1068E0000800E00007003D000200200003782400BB
:1068F0000E0890009E08900033EC0700000F9800EF
:10690000110F98000E0890009E089000008FBE00A6
:1069100002002000832C24001E00BE0087EC07002C
:10692000008FBE005E009000CF80DE00FAEB070013
:1069300060079800710798005E0090000000E0007A
:1069400007003D0002002000037824006E00900044
:10695000FE0090001CEC070060079800710798008B
:106960001E01BE006E009000FE009000B5EC070016
:10697000E8EC070040079800A16C200091407800E7
:1069800000CEB30000C060006041B300CAE6B700AB
:106990001061A9001E61A9001021A900C1192000E1
:1069A0009140780080CFB30000C060009CE1B70048
:1069B000CE009000D10C88004E009000C00C8800E2
:1069C0009DA1A9009C81A9009C61A900C11920007A
:1069D0009140780080CFB30000C060006040B300F9
:1069E0009CE1B700DE0090006108880011E1A8007A
:1069F000F0B22E009506070020002000B0DD8800D0
:106A00004F0478000080FA00000006000000FA0041
:106A1000B0DD8000E20F500003003A00A0B32E006A
:106A20008A0607007A003700B0B52E00710607000D
:106A30001FE1A90011E1A900C942A8006168200076
:106A40009140780000CEB30000C06000A040B300C9
:106A500086E6B7001061A80010A1A8001081A80068
:106A60001021A8000080EB00700888000080EB0077
:106A7000600888000000EB00400888000000EB0080
:106A8000300888000000EB00B00888000000EB0030
:106A9000A00888001E61A8001E81A9001EA1A900EF
:106AA0001E21A9001EC1A900400F2000E008880097
:106AB00000402200D00888008780A9001FE1A800BC
:106AC00011E1A80087C0BF00704060000004E00032
:106AD000FCFF320011E1A9001FE1A900300880008D
:106AE000F0DD880040088000E0DD8800E0DD800007
:106AF00001002000C0DD8800D1DD8800C0DD8000FD
:106B0000D1DD8000C000DD0000002000C0DD880075
:106B1000D1DD8800F0DD80006101B800C0DD8000BB
:106B2000D1DD80000200400083804800C0DD880085
:106B3000D1DD8800C0DD8000D1DD8000C808DD0027
:106B40000080FD00804078000040EB00C0DD880040
:106B5000D1DD8800C0DD8000D1DD80007206070035
:106B600020B72E0023060700C2DD8000D3DD8000A1
:106B7000703E200001002000800F5100818F5900DD
:106B80001C003600C2DD8000D3DD8000F02324002D
:106B9000F1002000800F5100818F59000B003E0052
:106BA00050B72E0013060700C0DD8000D1DD800045
:106BB000823E20000300200071EC07005A06070007
:106BC00080B72E000B0607000A00370050B72E00D2
:106BD00008060700C0DD8000D1DD8000022424000B
:106BE000F300200066EC07004F060700D0B72E0028
:106BF00000060700D0C0B3005E070700A0C0B300C6
:106C00005C07070086C6BF00F041B30086E6B70008
:106C10000080FA00000006000000FA000BC8BF0068
:106C2000614060000004E00002003A00C942A80090
:106C300001003700C8C2A80020B82E0003060700D4
:106C40000080FA00000006000000FA000BC8BF0038
:106C5000614060000004E00003003A00C942A9005E
:106C6000CB42A80002003700C8C2A900CAC2A800CF
:106C700010B92E00F50507000080FA00000006009C
:106C80000000FA000BC8BF00614060000004E00093
:106C900003003A00C942A900CB42A9000200370014
:106CA000C8C2A900CAC2A900A0B92E00E705070002
:106CB0000080FA00000006000200FA000BC8BF00C6
:106CC000614060000004E00009003A00C942A800E9
:106CD0000000000000000000CBC2BF000080FB00ED
:106CE0004200DE0061406000004F7800080037007D
:106CF000C8C2A8000000000000000000CAC2BF0017
:106D00000080FB004600DE0061406000004F78001C
:106D100020BA2E00B70507001E407800AE05070018
:106D2000D0C0B30013070700A0C0B30011070700CD
:106D30000080FA00000006000A00FA00004F780008
:106D40001107980022079800204080006101B800D8
:106D50000080EB008080EB0002014000838148004E
:106D6000320798004307980090002000010020009F
:106D70003E019000CE019000800F5100818F59009C
:106D80003F003E003E009000CE00900000600100F9
:106D9000090037000D0037001100370015003700DB
:106DA000190037001D00370021003700250037008B
:106DB000290037002D0037002E0190009E00900022
:106DC0001E40780014F907002E0037002E019000B5
:106DD0009E0090001E4078008A07070029003700B7
:106DE0002E0190009E0090001E4078004EF2070099
:106DF000240037002E0190009E0090001E40780075
:106E00005DEF07001F0037002E0190009E009000EC
:106E10001E40780020F507001A0037002E01900070
:106E20009E0090001E407800BFEC07001500370060
:106E30002E0190009E0090001E40780062EE070038
:106E4000100037002E0190009E0090001E40780038
:106E50003DFC07000B0037002E0190009E009000C3
:106E60001E40780087080700060037002E019000BA
:106E70009E0090001E407800300907000100370096
:106E8000CA82A9000080FA00000006000000FA0093
:106E9000B00020000080FA00000006000000FA00A8
:106EA0002040800080004000A0B52100008040000C
:106EB000100078004F0507000080FA00000006006F
:106EC0000200FA00004F78001E80FB0080004000A6
:106ED000A0B52100008040001000780045050700A3
:106EE0000080FA00000006000800FA00004F780059
:106EF00000C6B3009E4F100007003600A0C7B300C5
:106F00009E4F100004003E001E40780001CEB300EA
:106F100001404000004F78001E80FB006101B90075
:106F2000D0FD2F00F1FF2F000201400083814800B7
:106F3000220798003307980030032000010020004A
:106F40002E019000BE019000800F5100818F5900EA
:106F50006A003E002E009000BE009000006001001C
:106F60005A003700650037006400370063003700BF
:106F70006200370061003700600037005F003700B3
:106F80005A0037005D0037005C0037005B003700B7
:106F90005A003700590037005800370057003700B3
:106FA00056003700550037005400370053003700B3
:106FB0005200370051003700500037004F003700B3
:106FC0004E0037004D0037004A0037004B003700B5
:106FD00028003700490037004800370039003700E3
:106FE00030003700450037004400370023003700E9
:106FF0002400370041003700240037003F003700ED
:107000003E00370019003700090037003B00370009
:10701000090037000A003700380037003700370012
:107020003600370035003700340037000D003700D8
:10703000CD00070034003700FA00070032003700A7
:107040000BC8BF00704060000004E00003003A007D
:1070500080C1B3005E0607002B003700FE0007006A
:107060002900370022010700270037003E010700F2
:1070700025003700600607002300370063FE070085
:1070800021003700BDFD07001F0037003F0007004B
