:020000040000FA
:10000000040C040000000000F8780000F8780000FC
:10001000F8780000F8780000F8780000F878000020
:10002000F8780000F8780000F8780000F878000010
:10003000F8780000F8780000F8780000F878000000
:10004000F8780000F8780000F8780000F8780000F0
:10005000F8780000F8780000F8780000F8780000E0
:10006000F8780000F8780000F8780000F8780000D0
:10007000F8780000F8780000F8780000F8780000C0
:10008000F8780000F8780000F8780000F8780000B0
:10009000F8780000F8780000F8780000F8780000A0
:1000A000F8780000F8780000F8780000F878000090
:1000B000F8780000F8780000F8780000F878000080
:1000C000F8780000F8780000F8780000F878000070
:1000D000F8780000F8780000F8780000F878000060
:1000E000F8780000F8780000F8780000F878000050
:1000F000F8780000F8780000F8780000F878000040
:10010000F8780000F8780000F8780000F87800002F
:10011000F8780000F8780000F8780000F87800001F
:10012000F8780000F8780000F8780000F87800000F
:10013000F8780000F8780000F8780000F8780000FF
:10014000F8780000F8780000F8780000F8780000EF
:10015000F8780000F8780000F8780000F8780000DF
:10016000F8780000F8780000F8780000F8780000CF
:10017000F8780000F8780000F8780000F8780000BF
:10018000F8780000F8780000F8780000F8780000AF
:10019000F8780000F8780000F8780000F87800009F
:1001A000F8780000F8780000F8780000F87800008F
:1001B000F8780000F8780000F8780000F87800007F
:1001C000F8780000F8780000F8780000F87800006F
:1001D000F8780000F8780000F8780000F87800005F
:1001E000F8780000F8780000F8780000F87800004F
:1001F000F8780000F8780000F8780000F87800003F
:10020000FFFFFF00FFFFFF00F8780000F878000014
:10021000F8780000F8780000F8780000F87800001E
:10022000F8780000F8780000F8780000F87800000E
:10023000F8780000F8780000F8780000F8780000FE
:10024000F8780000F8780000F8780000F8780000EE
:10180000040C0000000000004FC22100007F2200F5
:1018100000018800000000000A0007001100070016
:10182000000020000000E000020032000000020082
:1018300000000000C80F0200000000000040DA00B5
:101840000000FE004440A900A0A221000000E0002A
:101850000300320000002000A00188004440A800DE
:1018600000000600805E2700010020001500370000
:1018700062004000E0804800910188009001BA00B9
:1018800062004000E0804800910188009002BA00A8
:1018900062004000E08048000002EB006028E100A8
:1018A00004003A000059EB008301E900FDFF3E000F
:1018B000040037006128E100010032000082EB00E3
:1018C00005000700910188001001BA000200E00045
:1018D000E7FF3A00000005009101880080027800CF
:1018E00062004000E08048003559BA008301E900F9
:1018F000080032002559BA008301E90005003200D2
:101900000400E000F4FF320015D9BA008301E900B9
:10191000F1FF3A0000000600889FBE008A9FBE00CB
:10192000010578000100E0000400350008003C00DB
:101930000000E000200032000500370060001000C9
:10194000E080180002003B0001F02C001A00370074
:101950000004BE006011B8006B0920000982CF00AE
:10196000020039000882CF000441B00069425200F1
:101970000E00320008003B008281710061016400AA
:101980008904D1000884D3008B05E8000442E800F4
:10199000F9FF3A00050037000804440089844C0030
:1019A0008B05E9000442E900FBFF3A00250107002E
:1019B0000AF0A70001F0A0004F05BE004F04BE00D2
:1019C0000000060003F0A200889FBE008A9FBE00B0
:1019D0008C1F780041010700480133006450E1008A
:1019E0004F0032006420E1005200320003826C009C
:1019F00007003B000905D0000306D000820F540009
:101A00000C065D00020039000200320089017800F6
:101A1000030678008582550004003D000003FD00A8
:101A20008103FD008502EA008B854200840F72006D
:101A300002003B0060001000E08018006011B80058
:101A40000005EB007A28E1000A0039000600780062
:101A5000C75DDD00F707B200878075002D003700F5
:101A6000828171000A017800610560008180D100E7
:101A70000080D3008502E900F9FF3B000604400026
:101A80008784480002003B0060041400E0841C00CE
:101A90000988A300070032008A81710082817100E9
:101AA000610164008904D1000884D3008B05E8003B
:101AB000170037000978A30013003A000B00E0007C
:101AC000130034008B05E9000804440089844C00AD
:101AD0000A4474000978A3000D003A000B00E000EE
:101AE000070034008B05E9000804440089844C0099
:101AF00001003A000B0020000978A300F7FF320034
:101B00000001EB0002003700828171000A017800B9
:101B1000CC0007000CF0A70001F0A0000001370086
:101B20006420E10002003A00838F6C000001330062
:101B30000801BE000200BE00F9003700889FBE0009
:101B40008A9FBE008C1F7800E4000700EB00330082
:101B500003866C006450E1002E0032006420E10036
:101B6000330032006150E1002F0032006120E100BB
:101B70003100320085855500EB07B00009002000D8
:101B800008042000050037000804440089844C0044
:101B90000A0031000603430087834B000001530015
:101BA00081815B00F8FF33000203BE000800A00043
:101BB0000804440089844C00F6FF3900C639DD0072
:101BC0008301730001003200130020008904D1005A
:101BD0000884D3000998A300050032000800A7007C
:101BE0000300A0008904D1000884D3008B05E8001D
:101BF0008904D1000884D3000001EB000281D200E7
:101C00009000070001F0A1000CF0A70001F0A00077
:101C1000C30037006420E100C50032000801BE00A7
:101C20000200BE00F7FF37006120E100C000320073
:101C30006000B800F3FF37000000200001F8270023
:101C4000F0FF3700889FBE008A9FBE008C1F78007F
:101C5000A2000700A900330003866C006450E10075
:101C6000240032006420E100270032006150E100CE
:101C7000220032006120E100210032008B85420009
:101C8000EB07B1000134B800003AB8000804420084
:101C900089844A00013AB8000030B80088804000CA
:101CA00009014A0004003300000040008180480020
:101CB000020149008B05E900C909DD0083017000BC
:101CC0000100320013002000C814DE004814DD00BB
:101CD0004709DE001200B200C808DE000884700068
:101CE0005800070001F0A1000CF0A70001F0A000CF
:101CF0008B0037006120E1008D0032000801BE003A
:101D00000200BE00F7FF37006150E100FCFF3A001F
:101D1000870037000001BE00880007000470A7009C
:101D200003F0A10003F8A30013003A006509B10015
:101D300010003200090035006928E100020035007A
:101D400001002800000005000000400081804800DC
:101D50008502E900FCFF3A0000000600F88F42000F
:101D6000050035008100D1000080D3008502E80025
:101D7000FCFF3A00000006008000EB0000000500B8
:101D80006022B800060220000000D0008180D2004E
:101D90000482D2008582D2000000A000020252001C
:101DA00083825A00030031000202420083824A000B
:101DB0000000A1000603E900F3FF3A00000006005E
:101DC0000001BE005D0007000470A70003F0A10041
:101DD0006509B100160032000D0035006828E100E9
:101DE00006003500F0FF2F00F1FF27000300E000A0
:101DF00013003B0001002800000005000000400027
:101E0000818048008502E900FCFF3A0008003700A5
:101E1000F88F420002003C008000EB00000005004B
:101E20008100D1000080D3008502E800FCFF3A0069
:101E30000300E00002003B0060001000E08018009A
:101E40000000060081002000618055000B003D006D
:101E50000B00200061FE2F000100E1001D00340096
:101E600082817100610164008904D1000884D3007B
:101E70000000E800FAFF3A007100200061006400F1
:101E80000300700002006000090032006104440099
:101E9000E0844C000988A500050032008B05E800AD
:101EA0006808E10002003A008904D1000884D300E8
:101EB000F20F20000258E10005003D00C75DDD0083
:101EC000F907B2008980750008007800000006005C
:101ED0000BF827008B007800000005000004BE000E
:101EE000160007000003BE000405BE000200BE008D
:101EF00012000700844F7500000006000200BE00BB
:101F00006450E100050036006420E1000200360064
:101F10000968A30001003A000800BE000160A000AB
:101F20004F0678004F05BE004F04BE0000000600BB
:101F3000F0FF2F00F1FF2700F9FF3700C70ADE008E
:101F4000F107B200F50FB20008003200E1CF420005
:101F5000020032000170A00024000500810F700013
:101F6000010032000408050044000500810F7000E4
:101F700002003A00140005008502E900000040005C
:101F800081C04800FCFF3B000170A0002400050058
:101F90000400FA003900070000003700C28020006A
:101FA00001FA2000C07A2100E3170700100798000B
:101FB0001E009000E10F500005003200F00F2000DD
:101FC0009E009000808F50001C00320022003700DD
:101FD00060BD8000000F78009E0078000100E000E6
:101FE000040032001E007800E10F500004003200AF
:101FF0000700370090C1B300961A070007003700AA
:102000000CC8BF00A81307000004E00003003A005A
:1020100060BD8000C1802000E91507000000EB00D2
:1020200060BD88000040EB0023FCB7008B13070065
:10203000E0C3B300701A07000700370023DCBF00BD
:102040000040E80023FCB70023DCBF00F34F500042
:1020500001003600222407000BC8BF006240600068
:102060000004E000CDFF32000001EB008000EB0037
:1020700060C1B30020130700C8FF37000000FA005A
:102080004507A9000080EB00601988004227A900DD
:10209000416A20009140780000CEB30000C060008B
:1020A0005040B300A4E6B700416C20009140780096
:1020B00000CEB30000C060003040B300C4E6B700FB
:1020C00080C0B30000E8B7000000EB0010408800BB
:1020D000E90407001D0507008000EB00F00F200059
:1020E0004F1A07003040880021002000F00F200028
:1020F0004B1A07004040880010C1B3003E1A070089
:10210000D0C0B3003C1A0700A0C0B3003A1A0700C1
:102110003F14070051130700E0C3B300361A07004D
:102120000080FA00000006000C00FA00004F780062
:1021300011079800220798001E80FB006101B9007A
:102140003207980043079800C001200001002000DA
:102150003E019000CE019000800F5100818F590008
:10216000D4003E003E009000CE00900000600100D0
:102170001C0037003E0037005E0037005D0037006E
:1021800062003700B6003700660037006C00370089
:1021900072003700780037007C003700800037007D
:1021A00084003700C3003700C2003700C100370089
:1021B000C0003700BF003700BE003700BD00370049
:1021C000BC003700BB003700BA003700B900370049
:1021D0007D00370097003700B8003700B5003700A2
:1021E000B60037002E009000E10F500007003A00C3
:1021F00010C0B300171A0700A020070010FCB7009A
:1022000010DCBF00E30407001400370020C0B30057
:10221000101A07002E009000DE04070030C0B30043
:102220000C1A07000000EB0070E088000700370080
:1022300092200700D704070000C2B300EE19070080
:1022400070E080000000E80070E0880071E080002D
:102250002E009000808F5000F5FF3900D0C0B300F1
:10226000E5190700A0C0B300E31907009300370089
:1022700040C0B300F71907001E009000C504070016
:102280002E009000E10F500003003A001E00900065
:10229000492007001200370060E82E00761807007A
:1022A0002E009000BB04070050C0B300E9190700DE
:1022B0000000EB0070E08800050037001E00900071
:1022C0003D20070070E080000000E80070E088001A
:1022D00071E080002E009000808F5000F7FF3900E1
:1022E000D0C0B300C4190700A0C0B300C2190700D2
:1022F00072003700C11F0700A0E82E005E1807001B
:1023000080C0B300D31907006C003700CE1F070050
:1023100020E92E005818070090C0B300CD1907001F
:1023200066003700D0C0B300CA1907008320070039
:102330004A180700F0C0B300C61907005F00370055
:10234000E0C0B300C3190700CC2007004318070002
:10235000F0C0B300BF190700580037002E009000EE
:102360008C04070000C1B300BA1907002E009000CA
:10237000942007005100370010C1B300B5190700C1
:1023800010C0B300AB2007004C00370020C1B300E1
:10239000B01907000040EB00A620070047003700F7
:1023A00030C1B300AB19070010C0B300982007007C
:1023B0004200370040C1B300A61907000040EB00FF
:1023C000932007003D0037000B48A8000B88A800A9
:1023D00010C3B3009F190700120020002100200045
:1023E000100020009B1607000040E9000AE8B70033
:1023F000E0C1B3009719070012002000210020005F
:1024000010002000931607000040EA0061406000C1
:10241000614060004601DD00B180200091407800FD
:10242000F0CBB30000C06000024070000BE8B700C2
:1024300022003700CB02A900CB22A900C922A800A4
:10244000C902A900A18020009140780020C0B300FB
:10245000471F07000040EB007E19070017003700F8
:102460009E009000510798005E019000E10F51001E
:102470000A003200DE019000E18F510004003900B3
:102480005E009000E20F50000500320006003700A9
:1024900090E92E00F8170700080037000900070030
:1024A000190007000500370070C1B3006919070063
:1024B0000200370080C1B300661907000080FA00EF
:1024C000000006000000FA0040ED2E000018070092
:1024D00010EF2E00FE1707000040EB005E20070003
:1024E00000C0EB006204070010C0B3005A200700D0
:1024F00010C0B300332007000040EB005620070057
:102500000080FA00000006000A00FA00881F780028
:1025100030F12E00D81707000000EB00000F780004
:102520000D0037001E047800D41F0700804078009B
:1025300063004700017478009E0078006300470044
:10254000614078000080FB00BC18070000C2B300A7
:10255000291907001E0FE800300020009E0F100010
:10256000F0FF3600D0C0B30023190700A0C0B300AD
:102570002119070010F42E00BF1707006300470061
:10258000104078000080FB004400DE000080FB006B
:10259000400798004E009000E90F500011003200F3
:1025A0004E009000E90F500004003C004E009000E7
:1025B000E80F500008003200130037004E00900072
:1025C000EA0F50000A0032004E009000EF0F50005A
:1025D0000A0032000C003700C0F42E00BC170700C0
:1025E0000B00370030F52E00B91707000800370040
:1025F000A0F52E00B61707000500370010F62E00D4
:10260000B31707000200370050F62E00B01707007E
:10261000D0F62E0098170700630047001040900086
:102620000080FB004700DE000004E00003003A00E9
:1026300090F72E00A61707000200370000F82E00C2
:10264000A317070000F92E008B170700630047004F
:10265000104090008080FB0080F72F000080600019
:102660004380DE00204798002E4090000004E000E8
:1026700003003A00D0F92E007F1707001B00370037
:102680002E409000EF4F500003003A0010F62E004D
:10269000791707001500370000042000000F7800AC
:1026A000E30047000040EB00804878000800370056
:1026B0001E00780000004000000F78006300470013
:1026C000104078008040E80063004700014878002F
:1026D00063004700904078002E40900080CF50006B
:1026E000F3FF39001E007800F4170700D0C0B300D4
:1026F000C1180700A0C0B300BF180700B0FA2E0031
:102700005D170700630047009040900070C0B30061
:1027100000C060002047980010002000000F7800E3
:10272000E30047000040EB008048780008003700D5
:102730001E00780000004000000F78006300470092
:10274000104078008040E8006300470001487800AE
:1027500063004700904078002E40900080CF5000EA
:10276000F3FF39001E00780003180700D0C0B30043
:10277000A1180700A0C0B3009F1807004F047800FD
:102780000080FA00000006000A00FA00004F7800FE
:1027900011079800220798001E80FB006101B90014
:1027A0003207980043079800C00120000100200074
:1027B0003E019000CE019000800F5100818F5900A2
:1027C000D9003E003E009000CE0090000060010065
:1027D0001C0037003E0037006A00370069003700F0
:1027E00073003700CD003700770037007F003700D7
:1027F000870037008D0037009100370095003700C3
:1028000099003700C8003700C7003700C6003700FE
:10281000C5003700C4003700C3003700C2003700CE
:10282000C1003700C0003700BF003700BE003700CE
:1028300092003700AC003700BD003700BA00370007
:10284000BB0037002E009000E10F500006003A0058
:1028500010C0B3007F18070000C0EB008D1E0700FA
:102860004C0307001500370020C0B300791807009B
:102870002E0090004703070030C0B3007518070012
:102880000000EB0080DF88000800370000C0EB008C
:10289000801E07003F03070000C2B3005618070060
:1028A00080DF80000000E80080DF880081DF80009A
:1028B0002E009000808F5000F4FF3900D0C0B3008C
:1028C0004D180700A0C0B3004B1807009800370050
:1028D00040C0B3005F1807001E0090002D030700E2
:1028E0002E009000E10F50000E003A001E009000F4
:1028F000681E0700F2FBB700F4DBBF006140600018
:102900000004E0001A00320000C2B3003A180700C9
:1029100010C0B3004F180700F2DBBF001D03070013
:1029200013003700405E2F00D31607002E009000E2
:102930001803070050C0B300461807000000EB0062
:1029400080DF8800060037001E009000511E07003F
:10295000F2FBB70080DF80000000E80080DF880025
:1029600081DF80002E009000808F5000F6FF39003C
:10297000D0C0B30020180700A0C0B3001E18070085
:102980006B00370031C0B3009ECF100002003A0048
:10299000F41BA80001003700F41BA9000040EB0065
:1029A0002D1F0700A0C0B3002A18070060003700E1
:1029B000F41BA90010C0B300271F0700B0C0B3006C
:1029C000241807005A003700D0C0B30021180700B0
:1029D000DA1E0700A1160700D0C0B30006180700D2
:1029E000A0C0B3000418070051003700E0C0B300D6
:1029F00018180700211F070098160700D0C0B30061
:102A0000FD170700A0C0B300FB1707004800370000
:102A10002E009000DF02070000C1B3000D18070070
:102A20002E009000E71E07004100370010C1B300E0
:102A30000818070010C0B300FE1E07003C00370056
:102A400020C1B300031807000040EB00F91E070087
:102A50003700370030C1B300FE17070010C0B300C5
:102A6000EB1E07003200370040C1B300F917070022
:102A70000040EB00E61E07002D00370010C3B30036
:102A8000F417070012002000210020001000200091
:102A9000F01407000040E9000AE8B700E0C1B30005
:102AA000EC17070012002000210020001000200079
:102AB000E81407000040EA006140600061406000E7
:102AC0004601DD00B180200091407800F0CBB300DA
:102AD00000C06000024070000BE8B7000B48A8007F
:102AE0000B88A80012003700F41BA900A180200069
:102AF0009140780030C0B3009D1D0700C922A90095
:102B0000C902A900C8E2A80010C0B300D21E070085
:102B10000040EB00CF1707000500370070C1B3007D
:102B2000CC1707000200370080C1B300C9170700A7
:102B30000080FA00000006000C00FA00004F780048
:102B400011079800220798001E80FB006101B90060
:102B50003207980043079800C001200001002000C0
:102B60003E019000CE019000800F5100818F5900EE
:102B7000EB003E003E009000CE009000006001009F
:102B80002A0037004E0037001A00370019003700BE
:102B900022003700C8003700E1003700E0003700AE
:102BA000DF003700DE003700DD003700DC003700D3
:102BB000DB003700DA003700D9003700D8003700D3
:102BC000D7003700D6003700D5003700D4003700D3
:102BD000D3003700D2003700D1003700D0003700D3
:102BE00064003700AD003700B1003700CC0037007B
:102BF000CD00370031C0B3009ECF100002003A0074
:102C0000FA7BA80001003700FA7BA900CAC2A9001C
:102C1000A0C0B3008F170700C3003700CAC2A800C6
:102C2000B0C0B3008B170700BF0037002E00900024
:102C3000E10F500008003A0010C0B30085170700EC
:102C400000C0EB001E010700F8FBB700F8DBBF0077
:102C5000500207001500370020C0B3007D170700A1
:102C60002E0090004B02070030C0B3007917070018
:102C70000000EB00B0DF88000800370000C0EB0068
:102C80000F0107004302070000C2B3005A170700F4
:102C9000B0DF80000000E800B0DF8800B1DF800016
:102CA0002E009000808F5000F4FF3900D0C0B30098
:102CB00051170700A0C0B3004F1707009A00370054
:102CC00040C0B300631707001E00900031020700E8
:102CD0002E009000E10F50000E003A001E00900000
:102CE000F7000700F8FBB700FADBBF0068406000A0
:102CF0000004E0001A00320000C2B3003E170700D3
:102D000010C0B30053170700F8DBBF002102070013
:102D100013003700002C2F00D71507002E0090005D
:102D20001C02070050C0B3004A1707000000EB0068
:102D3000B0DF8800060037001E009000E0000700AA
:102D4000F8FBB700B0DF80000000E800B0DF8800CB
:102D5000B1DF80002E009000808F5000F6FF390018
:102D6000D0C0B30024170700A0C0B300221707008B
:102D70006D003700402C2F00D515070012002000F1
:102D80004100200010002000321407000040E9003C
:102D90000AE8B700E0C2B3002E17070012002000B7
:102DA00021002000100020002A1407000040E90044
:102DB0006140600061416000A1BF21009140780046
:102DC000E0CFB30000C0600002407000FAFBB70023
:102DD000F0C2B3001F1707002200200021002000CE
:102DE000100020001B1407000040E9006140600053
:102DF0006140600000414000A1BF21009140780087
:102E0000D0CFB30000C0600002407000FAFBB700F2
:102E100000C3B3000F17070012002000210020009C
:102E2000100020000B1407000040E9006140600022
:102E3000614060004201DD00A1BF210091407800A7
:102E4000B0CFB30000C0600002407000FAFBB700D2
:102E5000E0C1B300FF16070012002000210020008F
:102E600010002000FB1307000040EA0061406000F2
:102E7000614060004601DD00B18020009140780093
:102E8000F0CBB30000C06000024070000BE8B70058
:102E90000B48A9000B88A80023003700FA7BA90083
:102EA000230007000040EB00EA1607001E00370071
:102EB0006F0007001C0037001E01900052079800A9
:102EC000DE0190000300E000040032005E0090008C
:102ED000E10F5000040032000E003700C02F2F0019
:102EE0007B15070010003700E0312F007815070030
:102EF000120020003100200010002000D513070030
:102F00000040E900F8FBB700F8DBBF007A000700DB
:102F10000500370070C1B300CE160700020037006D
:102F200080C1B300CB1607000080FA000000060045
:102F30000000FA0041E2A9000BC8BF000044B20043
:102F40000004E00003003200CEE2A800CF02A80097
:102F5000CEC2A800816A20009140780000CEB30064
:102F600000C060007040B300A8E6B700916C20007C
:102F70009140780000CEB30000C060007040B30004
:102F8000C9E6B700816C20009140780000CEB30004
:102F900000C060000034A000C8E6B700CAC2A800A4
:102FA000C8C2A900C902A900C8E2A800C922A90094
:102FB0000AC8BF008080FB0020C1210000804000C3
:102FC000104078000080FB001012880042A2A80088
:102FD000FADBBF0061406000614060004601DD0037
:102FE0002124200091407800F0CBB30000C06000A5
:102FF0000240700042E2B700FADBBF000080FB0035
:103000000000D10061406000614160003124200077
:1030100091407800E0CFB30000C060000240700033
:1030200043E2B700FADBBF000080FB004200DE0095
:103030006140600061406000004140003124200098
:1030400091407800D0CFB30000C060000240700013
:1030500043E2B7000000EB00201288000000EB0004
:103060000012880041E2A8000080FA00000006007B
:103070000000FA0041E2A900A8C6BF00F041B30079
:10308000A8E6B700916C20009140780000CEB30014
:1030900000C06000C9E6B700816C20009140780054
:1030A00000CEB30000C06000C8E6B700CEE2A900C1
:1030B000CF02A900CEC2A9000080FA0000000600DD
:1030C0000200FA00004F78001E80FB0040128800CA
:1030D00085C0BF00644060000004E000FCFF3200D7
:1030E00040128000004F78008540A9001E80FB0040
:1030F0000080FA00000006000400FA002047980053
:1031000040352F00F2140700D9FF07004D000700DB
:103110002E409000E14F500008003E00CAC2BF00A0
:103120000080FB004600DE006140600080407800C7
:103130002E40900080CF500008003A0041C2BF00EE
:1031400001C8B300014060000004E0000E003A0036
:1031500041E2A80061E2A8000B00370041C2BF00B5
:1031600001C8B300014060000004E0000600320026
:1031700041E2A90061E2A900D0C0B3001E16070019
:10318000A0C0B3001C16070040C2BF000042B2003E
:103190000004E00004003A0040128000004F780074
:1031A0001E407800FB00070060C2BF000042B20072
:1031B0000004E00008003A0040138000004F78004F
:1031C00040372F00AC1407001E407800F1000700C4
:1031D00060372F00A814070040C2BF000044B200AF
:1031E0000004E00004003A0060C2BF000044B200E6
:1031F0000004E0000500320090372F00B4140700EF
:1032000040C2A90060C2A9000A00370022C2BF0064
:10321000614060000004E000BDFF3200301180001A
:10322000004F7800D0C0B300F3150700A0C0B30072
:10323000F1150700700007003DFF07000080FA004D
:10324000000006000000FA00C8C2A800C902A800D9
:10325000C8E2A800C922A800816A20009140780035
:1032600000CEB30000C060009040B300A8E6B700F5
:10327000916A20009140780000CEB30000C0600049
:103280000034A000A9E6B700C16A20009140780090
:1032900000CEB30000C060007040B300ACE6B700E1
:1032A000D16A20009140780000CEB30000C06000D9
:1032B0000034A000ADE6B7000AC8BF008080FB0064
:1032C00020C1210000804000104078000080FB00F9
:1032D00010128800FADBBF006140600061406000AE
:1032E0004601DD002124200091407800F0CBB3009E
:1032F00000C060000240700042E2B700FADBBF008D
:103300000080FB000000D10061406000614160006E
:103310003124200091407800E0CFB30000C060006D
:103320000240700043E2B7000000EB00201288006A
:103330000000EB00001288000AC8BF008080FB007C
:1033400020C1210000804000104078000080FB0078
:1033500010138800FADBBF0061406000614060002C
:103360004601DD002126200091407800F0CBB3001B
:1033700000C060000240700062E2B700FADBBF00EC
:103380000080FB000000D1006140600061416000EE
:103390003126200091407800E0CFB30000C06000EB
:1033A0000240700063E2B7000000EB0020138800C9
:1033B0000000EB00001388000000EB0040128800C2
:1033C0000000EB00401388004322A9006322A900FB
:1033D0004362A80042A2A9006362A80062A2A900F9
:1033E00040C2A90060C2A9004402A8006402A8006B
:1033F0000080FA00000006000000FA0041E2A90087
:103400004362A90061E2A9006362A900A8C6BF00E7
:10341000F041B300A8E6B700A9C6BF00F041B30071
:10342000A9E6B700ACC6BF00F041B300ACE6B700F8
:10343000ADC6BF00F041B300ADE6B7000080FA00B2
:10344000000006000000FA000BC8A9000040EB00D5
:103450000AE8B7000B28A9000B08A9000B48A9002F
:103460000B68A9000B88A9000BA8A9000BE8A9000C
:103470000080FA00000006000000FA00C922A8003F
:10348000C902A800C8E2A800C8C2A800C942A80092
:10349000C222A900C022A9000000EB002040880041
:1034A000E8FF0700CB62A900C962A900C002A90019
:1034B000C202A9002D23A9002D43A9002D63A90054
:1034C0002D83A900013220009140780000CEB30086
:1034D00000C0700020E3B7000000EB0080198800F6
:1034E00020F02100201988000000EB00101988004E
:1034F0000080FA00000006000200FA00004F780089
:103500001E80FB00401988002023A8002003A9008A
:1035100020C3BF00614060000004E000FCFF3200F7
:10352000001880000080FA00000006000000FA0089
:1035300021E3A800C0C0B300EFFF0700F3140700A9
:1035400021E3A9000080FA00000006000000FA0054
:1035500000C8BF000080FB008000400020B72100B1
:103560000080400010007800401188000000EB004F
:10357000001188002062A8000000EB0010118800F4
:1035800021E2A8002342A8008560A9000080FA007B
:10359000000006000400FA00004F78001040800090
:1035A000100798001E009000E10F50000D0032003F
:1035B0001E009000E10F5000070039001E0090002F
:1035C000E20F50000A0032001E009000E30F50008E
:1035D0000A0032000B0037001E80FB009714070022
:1035E000080037001E40780063140700050037000C
:1035F0001E407800D0130700020037001E407800FC
:10360000FD1407000080FA00000006000600FA0022
:10361000404798000040EB00204798000E0037001C
:103620000000EB00000F780005003700A0CFB300CA
:103630000F0007001E0078000000E800000F78006F
:103640001E007800E30F5000F8FF36002E40900077
:103650000040E80020479800AE4090004E409000A7
:1036600080CF5000EEFF39000080FA000000060015
:103670000400FA00204798000040EB00004F78005B
:1036800013003700000000000000000000000000F0
:10369000000000000000000000000000000000002A
:1036A000000000000000000000000000000000001A
:1036B000000000000000000000000000000000000A
:1036C000000000001E4078000040E800004F780035
:1036D0009E4078002E40900080CF5000E9FF3900D6
:1036E0000080FA00000006000C00FA00004F78008D
:1036F000110798002207980096DBBF00E14F5000A9
:1037000030003A0000C2B300BB14070030C0B30061
:103710009E4F10000600320021C0B3009ECF100063
:103720000300320042C0B3009E4F11000F003A0068
:1037300070C0B300C7140700D0C0B300AE140700B8
:10374000A0C0B300AC14070097DBBF000004E0008A
:1037500003003A0010C0B300891B070017003700B0
:1037600010C0B3008202070014003700C3C1B300C9
:103770009ECF110003003A00E0D22E005413070040
:10378000AD01370060C0B300B2140700D0C0B30071
:1037900099140700A0C0B3009714070097DBBF007F
:1037A0000004E00003003A000040EB00741B070037
:1037B000020037000040EB006D0207000040EB0004
:1037C00096FBB7001E80FB006101B900320798002C
:1037D00043079800C0012000010020003E01900036
:1037E000CE019000800F5100818F590090013E0062
:1037F0003E009000CE009000006001001C003700E9
:10380000590037008A0037008900370091003700DF
:10381000D500370086013700850137008401370065
:1038200083013700820137008101370080013700B2
:103830007F0137007E0137007D0137007C013700B2
:103840007B0137007A0137007901370078013700B2
:1038500077013700760137007501370086003700A1
:10386000AA003700B9003700710137007201370034
:103870002E009000E10F50000D003A0010C0B30080
:103880007414070097DBBF000004E00003003A0057
:10389000FA1A070099FBB70002003700510207002F
:1038A00099FBB70099DBBF003AFF07002B003700F8
:1038B00020C0B300671407002E00900035FF0700FA
:1038C00030C0B300631407000000EB00D0DC8800B8
:1038D0001E003700D0DC80000000E0000E00320047
:1038E00000C2B3004414070060C0B30059140700BD
:1038F00000C2B3004014070097DBBF000004E000E3
:1039000003003A000040EB001D1B070002003700D7
:103910000040EB001602070097DBBF000004E00048
:1039200003003A00D51A070099FBB70002003700E0
:103930002C02070099FBB70099DBBF0015FF0700B9
:10394000D0DC80000000E800D0DC8800D1DC800002
:103950002E009000808F5000DEFF390010C0B300B1
:1039600096FBB7003401370040C0B300391407009C
:103970001E00900007FF07002E009000E10F50008E
:1039800006003600E0D32E00BB1207002E00900088
:1039900000FF070050C0B3002E1407000000EB002A
:1039A000D0DC88000F00370097DBBF000004E00088
:1039B00005003A001E0090007F1A0700DF1A07007A
:1039C00099FBB700040037001E009000FB010700C0
:1039D000E001070099FBB700D0DC80000000E800A0
:1039E000D0DC8800D1DC80002E009000808F500059
:1039F000EDFF390000C2B300FF13070099DBBF00E1
:103A00000004E00003003A0060C0B3001114070096
:103A10000200370070C0B3000E140700D0C0B3001E
:103A2000F5130700A0C0B300F3130700020137002D
:103A300097DBBF000004E00002003A00EF19070026
:103A400001003700B301070080C0B3000114070074
:103A5000F900370097DBBF000004E00002003A00E5
:103A6000F919070001003700B201070090C0B30048
:103A7000F8130700F00037000BC8A8000B88A80057
:103A800020D42E00921207001200200021002000F6
:103A900010002000EF1007000040E90097FBB7007E
:103AA00097DBBF000004E00009003A0010C3B30038
:103AB000E813070012002000210020001000200061
:103AC000E41007000040E9000AE8B700DA00370018
:103AD0004140800030002300808F500002003E00F3
:103AE00080D62E007A120700E0D92E007812070047
:103AF000120020003100200010002000D510070027
:103B00000040E9000AE8B700CB00370097DBBF00B0
:103B10000004E00009003A00C922A800C902A80078
:103B2000CB02A900CB22A900A180200091407800FF
:103B300020C0B3008E19070001003700B401070050
:103B40000040EB00C3130700BB0037000040EB0050
:103B500096FBB70097DBBF00E14F5000B6003A007C
:103B600007E2A900B40037009E00900051079800BA
:103B70005E019000E10F51000D003200DE01900067
:103B8000E18F5100070039005E009000E20F500005
:103B90004E003200DE009000E38F50008F003200B4
:103BA000A0003700B0DC2E0049120700A200370049
:103BB00010DF2E00461207000000EB00D0DC88006A
:103BC0003900370097DBBF000004E00006003A0030
:103BD0008A190700D0DC8000F7190700571A070080
:103BE00099FBB700050037004A010700D0DC8000D0
:103BF000720107005701070099FBB70099DBBF006E
:103C00000004E0001F003A00D0DC800061FE0700E5
:103C100080C2B30078130700D0DC80000000D10020
:103C20005CFE0700D0DC80000000A20061006000A4
:103C30000004E00003003200A0E22E000E12070094
:103C40000C00370097DBBF000004E00004003A00DE
:103C50000A1A070010C0B300491A07000300370012
:103C60006001070010C0B30041010700D0E22E0040
:103C70000112070000E32E00FF11070000C2B3008D
:103C80005D13070097DBBF000004E00002003A006C
:103C90006D1907000100370026010700D0DC800005
:103CA0000000E800D0DC8800D1DC8000F00F2000AC
:103CB000808F5000C3FF3600D0C0B3004E13070002
:103CC000A0C0B3004C1307005B00370020E32E00B8
:103CD000E911070002052000F1072000A0002000E4
:103CE0005C10070099FBB70099DBBF000040400063
:103CF00099FBB70030E42E00DF110700F20F20001F
:103D0000F10F2000A00020005210070098FBB70020
:103D100090E42E00D81107003819070099DBBF0086
:103D2000A5190700051A07000040EB00A2190700BB
:103D3000021A07000040EB009F190700FF19070057
:103D40002E19070099DBBF000040E80099FBB7007F
:103D500099DBBF0098190700F819070098DBBF002E
:103D60000040E90098FBB7000000EB00D0DC8800C1
:103D70000C003700C119070006FE07000040EB00E9
:103D8000FF19070010408000E20F500002003E00C3
:103D900000C2B30018130700D0DC80000000E80068
:103DA000D0DC880098DBBF008080FB00D0DC800086
:103DB000808F5000EFFF3E00B0190700F5FD0700AF
:103DC00010C0B300EE190700D0C0B3000A130700FB
:103DD000A0C0B300081307001700370097DBBF002F
:103DE0000004E0000F003A00E0E52E00B8110700E3
:103DF000130007003500070022C2BF0061406000C9
:103E00000004E000FBFF320030118000D0DC8800AD
:103E1000D0C0B300F8120700A0C0B300F61207002C
:103E20000500370070C1B3000A1307000200370015
:103E300080C1B300071307000080FA0000000600ED
:103E40000000FA00C922A800C902A800CB02A900FC
:103E5000CB22A90062A0A80062C0A8008660A900C9
:103E60000000EB00E0DC88000040EB00A1FBB700A5
:103E7000CBC2BF000080FB000000D10061406000A9
:103E80006141600001BA210091407800E0CFB300A9
:103E900000C0600002407000A0FBB700CBC2BF00B2
:103EA00061406000614060004201DD0001BA210014
:103EB00091407800B0CFB30000C0600002407000B5
:103EC000A0FBB7000080FA00000006000400FA0022
:103ED00086C0BF00684060000004E0008B00320034
:103EE000CBC2BF000080FB000000D1006140600039
:103EF000614060000041400001BA2100914078001B
:103F0000D0CFB30000C0600002407000A0FBB7003B
:103F1000CBC2BF0061406000614060004301DD0032
:103F200001BA21009140780070CFB30000C060005A
:103F300002407000A0FBB7008660A900A0DBBF00B4
:103F4000644060000004E00022003200A0DBBF00FB
:103F5000684060000004E0001E003200A0DBBF00EB
:103F6000614060000004E0000B003200A0DBBF00F5
:103F7000624060000004E00007003A0020002000DA
:103F8000E0DC88000040EB00A1FBB700B0C5B30047
:103F90009912070046003700A0DBBF0061406000B7
:103FA0000004E00042003A00A0DBBF006240600075
:103FB0000004E0003E0032000000EB00E0DC88007E
:103FC0000040EB00A1FBB700D0C5B3008A12070088
:103FD00037003700A0DBBF00644060000004E00051
:103FE00033003A00A0DBBF00684060000004E0003E
:103FF0002F003200E0DC8000100798001E009000C7
:10400000E20F5000040032001E009000E30F500049
:1040100017003200260037009EDBBF000040400042
:104020009EFBB700A0DBBF000080FB000000D100BA
:1040300061406000804078009EDBBF0000C040000F
:104040009EFBB700A1DBBF000040E800A1FBB7006A
:10405000A1DBBF00E84F500015003A000040EB0024
:10406000A1FBB70030002000E0DC88001000370022
:10407000CBC2BF000080FB000000D10061406000A7
:10408000004F78009EDBBF0042FD07001E04E000E9
:1040900003003200D0C2B3005712070002003700FD
:1040A000B0C2B3005412070020002000E0DC8800FA
:1040B000A0DBBF000080FB000000D1006140600079
:1040C0006141600001BA210091407800E0CFB30067
:1040D00000C0600002407000A0FBB700A0DBBF0082
:1040E0000080FB004300DE00614060006140600032
:1040F0004201DD0001BA210091407800B0CFB30049
:1041000000C0600002407000A0FBB7000080FA0011
:10411000000006000000FA000602A80006C2BF0068
:10412000614060000004E000FCFF3A000080FA00FB
:10413000000006000000FA000642A80006C2BF0008
:10414000644060000004E000FCFF3A000080FA00D8
:10415000000006000000FA0009C2BF000080FB005A
:104160004700DE000080FB000080FA00000006002F
:104170000200FA00004F78009E40780061C06000A5
:10418000614060004501DD00612020009140780021
:10419000F0CDB30000C060000240700006E2B7003E
:1041A0000682A80006C2BF00704060000004E00064
:1041B000FCFF3A000080FA00000006000200FA004E
:1041C000004F78001E40780002E2B70009C2BF002D
:1041D0000044B2000004E000FCFF3A000080FA0056
:1041E000000006000200FA000662A80006C2BF0036
:1041F000684060000004E000FCFF3A0000C2BF001D
:10420000004F78001E80FB000080FA0000000600CE
:104210000000FA000742A9000782A9000000EB0095
:10422000501088000000EB00601088000702A90011
:104230000AC8BF008080FB0060C1210000804000F0
:10424000104078000080FB002010880007E2A800E2
:104250000080FA00000006000C00FA00004F780011
:1042600011079800220798001E80FB006101B90029
:104270003207980043079800C00120000100200089
:104280003E019000CE019000800F5100818F5900B7
:1042900032013E003E009000CE0090000060010020
:1042A0004E003700700037003C00370041003700F7
:1042B00046003700BC0037008E00370098003700FA
:1042C000A2003700A8003700AB003700AE0037006F
:1042D000B100370021013700200137001F013700EE
:1042E0001E0137001D0137001C0137001B0137007C
:1042F0001A0137001901370018013700170137007C
:104300000400370021003700160137001301370081
:1043100014013700E0C1B300CE11070012002000E5
:104320002100200010002000CA0E07000040E90014
:10433000614060006141600021BC21009140780033
:10434000E0CFB30000C0600002407000C2FBB700C5
:10435000C2DBBF006140600000C0EA006140600055
:10436000614060004601DD00B1802000914078008E
:10437000F0CBB30000C06000024070000BE8B70053
:104380000B48A8000B88A800F6003700860107003C
:104390000040EB00AF110700F2003700F300070008
:1043A00020C0B30043010700007A2E004810070028
:1043B000EC003700ED00070030C0B3003D010700FE
:1043C000A07C2E0042100700E6003700E70007003F
:1043D000207F2E003E100700E20037002E009000E4
:1043E000E10F500007003A00E0010700C0FBB700F2
:1043F00010C0B30097110700C0DBBF0065FC0700C9
:104400001400370020C0B300921107002E00900066
:1044100060FC070030C0B3008E1107000000EB0005
:10442000F0DD880007003700D001070059FC0700C5
:1044300000C2B30070110700F0DD80000000E8004A
:10444000F0DD8800F1DD80002E009000808F5000AC
:10445000F5FF3900D0C0B30067110700A0C0B3005A
:1044600065110700BF00370040C0B3007911070095
:104470001E00900047FC07002E009000E10F500046
:1044800004003A001E00900052010700C0FBB70074
:1044900013003700F07F2E00F70F07002E0090006A
:1044A0003CFC070050C0B3006A1107000000EB009D
:1044B000F0DD8800060037001E009000450107006F
:1044C000C0FBB700F0DD80000000E800F0DD8800F0
:1044D000F1DD80002E009000808F5000F6FF390043
:1044E000D0C0B30044110700A0C0B30042110700C0
:1044F0009C003700E1010700C0FBB700D0C0B3004B
:1045000054110700C0DBBF00D40F0700D0C0B300B8
:1045100039110700A0C0B300371107009100370020
:10452000E0C0B3004B110700DE010700C0FBB7007D
:10453000C0DBBF00C90F0700D0C0B3002E110700B9
:10454000A0C0B3002C110700860037002E00900099
:1045500010FC070000C1B3003E1107002E009000C0
:10456000F90107007F00370010C1B30039110700BF
:10457000020207007B00370020C1B300351107009D
:10458000170207007700370030C1B3003111070070
:10459000CB0107007300370040C1B3002D110700A5
:1045A000E20107006F0037009E009000510798005D
:1045B0005E019000E10F51000D003200DE0190001D
:1045C000E18F5100070039005E009000E20F5000BB
:1045D0000C003200DE009000E38F500055003200E6
:1045E0005B00370030802E00A30F07005D0037000E
:1045F000A700070000852E00B50F07005B0007002D
:1046000058003700E0852E00B10F0700A00007001A
:1046100000852E00AE0F0700A90107005300070018
:1046200020C0B300A300070000C0EB00C6010700D4
:1046300000C0EB00C40107004C00070030C0B3000D
:104640009C0007000000EB00F0DD88000700370049
:10465000F0DD80000000E800F0DD8800F1DD800082
:10466000900F2000808F500003003E008301070060
:104670000004E000F6FF32003C0007008400070061
:1046800000852E00920F07003800070030C0B300ED
:1046900088000700F0DD8000BEFB0700E0862E00EA
:1046A0008B0F07000040EB00C0FBB7001A0037007B
:1046B000C0DBBF000040E800B6FB070070882E009A
:1046C0006D0F070029010700B2FB070000C2B3000D
:1046D000C910070025010700AEFB070000C2B300A8
:1046E000C510070021010700AAFB070000C2B300A4
:1046F000C11007001D010700A6FB0700D0C0B300D2
:10470000BD100700A0C0B300BB100700C0DBBF0096
:104710000040E800C0FBB700C0DBBF008080FB00AA
:10472000F0DD8000808F5000E1FF39000F000700AE
:104730000C003700B0882E00650F0700E08C2E00BB
:10474000630F070030902E00610F0700050037004F
:1047500070C1B300BF1007000200370080C1B30072
:10476000BC1007000080FA00000006000200FA00FA
:10477000E0922E00400F0700BADBBF000080FB0074
:10478000000F78001E007800E10F50000E0032008C
:104790001E007800E10F500004003C001E0078006D
:1047A0000000E0000B003200350037001E007800EA
:1047B000E20F50000F0032001E007800E30F50009F
:1047C000240032002E00370070932E00400F0700A7
:1047D0002D003700A401070010C0B3005A010700E4
:1047E00010C0B300BAFBB70040942E00380F07008A
:1047F00025003700BBDBBF00E14F50000A003A0044
:10480000BCDBBF00E14F500002003A002C01070062
:1048100001003700450107000040EB00BBFBB7007B
:1048200000952E00140F07007401070020C0B3008C
:10483000450107008C01070010C0B30042010700CA
:1048400010C0B300BAFBB70050962E00200F07002F
:104850000D0037006901070020C0B3003A010700CE
:104860008101070010C0B3003701070010C0B3007A
:10487000BAFBB700E0962E00150F070002003700C4
:1048800070972E00120F07000080FA00000006004B
:104890000000FA0059010700A0C0B3002A01070078
:1048A000710107000040EB00BAFBB7000080FA007E
:1048B000000006000400FA00004F7800BADBBF00D9
:1048C000E14F50000200320050982E00000F070008
:1048D000E0922E00E80E07001E80FB0010079800F3
:1048E0001E009000E10F50000E0032001E009000EC
:1048F000E10F500004003C001E0090000000E000AA
:104900000B003200240037001E009000E20F500020
:10491000160032001E009000E30F50000800320025
:104920001D00370070932E00E90E07001C003700B1
:10493000D7FF0700109A2E00E50E07001800370079
:104940002E01070010C0B300FF000700460107005A
:1049500020C0B300FC00070030C0B300BAFBB700B2
:10496000709A2E00DA0E07000D00370023010700B1
:1049700020C0B300F40007003B01070020C0B300D3
:10498000F100070020C0B300BAFBB700B09B2E00B7
:10499000CF0E070002003700009F2E00CC0E07004C
:1049A0000080FA00000006000000FA00C8E2A8003B
:1049B000C902A900C922A900C8C2A900CAE2A90067
:1049C000CB02A900CB22A900CAC2A9000080FA002C
:1049D000000006000800FA004047980000010700A8
:1049E000BBDBBF00E14F500006003A00BCDBBF005C
:1049F000910007000040EB00BBFBB700A0A02E0019
:104A0000B30E07000BC8BF00684060000004E00060
:104A10000300320010C0B300004F780002003700DE
:104A200000C8B300004F78000040EB00304798000A
:104A3000450037004E4090001E4060000004E0003A
:104A400002003A00B9000700010037009C0007008F
:104A5000CA000700CAC2BF000080FB004700DE009A
:104A6000204798000BC8BF00684060000004E000C9
:104A7000100032004E4090000080FB000000D1008A
:104A8000404798001E4090000080FB000000D100CD
:104A9000104798002E409000E14F500011003A005E
:104AA0001E40900001C8B30001404000104798002C
:104AB0000C0037004E4090000040400040479800F6
:104AC0001E40900000404000104798002E4090008B
:104AD000E14F500003003A001E4090000040E80003
:104AE00010479800BE000700BADBBF00E24F50003D
:104AF00012003A003E409000E64F50000F003A008E
:104B000010C0B300BBFBB7004E4090001E406000D9
:104B10000004E00003003A000040EB00BCFBB700DB
:104B20000200370010C0B300BCFBB7001E4090006D
:104B30000080FB0030079800090037003E409000DD
:104B40000040E800304798003E409000E74F50009A
:104B5000B8FF36001E4090000080FB003007980030
:104B60003E0090000080FA00000006000400FA00F9
:104B70009B000700BBDBBF00E14F500006003A007E
:104B8000BCDBBF002C0007000040EB00BBFBB70004
:104B9000A0A02E004E0E07000040EB00204798001A
:104BA0001F00370075000700CAC2BF000080FB006D
:104BB0004700DE00104798000BC8BF006840600047
:104BC0000004E00008003A001E4078000040400069
:104BD000004F78001E4090000004E0000C003200FE
:104BE0001E4FE8000A0037001E80FB000000D100C5
:104BF000004F78001E4090000004E00004003200E6
:104C00001E40780001C8B30001404000004F78000A
:104C1000730007002E4090000040E80020479800F5
:104C20002E409000E74F5000DEFF36001E80FB0054
:104C30000080FA00000006000400FA0020479800F7
:104C40002E4090000004E00002003A003700070008
:104C5000010037001A00070048000700CAC2BF0061
:104C60000080FB004700DE00004F78005C0007007A
:104C70001E80FB000080FA00000006000200FA001F
:104C80003E000700CAC2BF000080FB004700DE00F4
:104C9000004F7800520007001E80FB000080FA00E1
:104CA000000006000000FA00CAC2BF000080FB003E
:104CB0004700DE000080FB000080FA0000000600D4
:104CC0000000FA00C2DBBF006140600000C0EA00E3
:104CD000614060006140600000414000912C200074
:104CE00091407800D0CFB30000C060000240700057
:104CF000C9E2B700C2DBBF006140600061406000F4
:104D000000414000B12C200091407800D0CFB3008A
:104D100000C0600002407000CBE2B70040C1B300A9
:104D200053FA07000080FA00000006000000FA00B5
:104D3000CB22A900C922A90040C1B3004CFA070048
:104D40000080FA00000006000400FA0020479800E6
:104D50000040EB00004F7800030037000700070019
:104D60001F0007001E4FE8002E4090009E4F1000CD
:104D7000FAFF39000080FA00000006000000FA0087
:104D8000C2DBBF006140600000C0EA00614060001B
:104D900061416000912C200091407800E0CFB30089
:104DA00000C0600002407000C9E2B700C2DBBF0073
:104DB0006140600061416000B12C200091407800AA
:104DC000E0CFB30000C0600002407000CBE2B7004B
:104DD00040C6B30026FA07000080FA000000060073
:104DE0000000FA00CB02A900C902A90040C6B30026
:104DF0001FFA07000080FA00000006000000FA0019
:104E0000C2DBBF006140600000C0EA00614060009A
:104E1000614060004601DD00812C20009140780057
:104E2000F0CBB30000C0600002407000C8E2B700E1
:104E3000C2DBBF0061406000614060004601DD00F0
:104E4000A12C200091407800F0CBB30000C060009E
:104E500002407000CAE2B70040C1B30004FA070084
:104E60000080FA00000006000000FA00CAC2A90093
:104E7000C8C2A90040C1B300FDF907000080FA00D4
:104E8000000006000200FA00F0C2B30010479800CC
:104E90000040EB00004F7800C922A800CB22A900F7
:104EA000C922A90005003700A0C0B300F0F907002F
:104EB0001E4090000040E900104798001E409000FE
:104EC0000004E000F8FF3C00C922A800C0C3B30002
:104ED000E7F90700CBC2BF000080FB000000D10053
:104EE000614060001AFCB70090C2B3001047980000
:104EF00005003700A0C0B300DDF907001E40900098
:104F00000040E900104798001E4090000004E000B7
:104F1000F8FF3C00CBC2BF000080FB000000D100C6
:104F2000614060001BFCB7001BDCBF000004E00018
:104F300002003A0010C0B300004F78001ADCBF0036
:104F4000E14F500003003A001E40780000C0E80026
:104F5000004F7800A0C0B300C5F907001E80FB0019
:104F60000080FA00000006000400FA0020479800C4
:104F700080C0B300004F78001D0037002E40900025
:104F8000614060001CFCB700CB22A900C922A90027
:104F900050C0B300B6F907001CDCBF0061406000E0
:104FA0006140600000414000912C20009140780059
:104FB000D0CFB30000C0600002407000C9E2B7006B
:104FC00020C3B300AAF9070050C0B300A8F9070036
:104FD000C922A800A0C0B300A5F907002E40900088
:104FE0000080FB000000D100204798001E4FE90020
:104FF0001E04E000E1FF3C00A0C0B3009CF90700E4
:105000000080FA00000006000200FA00004F78005D
:10501000CB22A900C922A90050C0B30094F907000F
:105020009E40780061C06000614060000041400027
:10503000912C200091407800D0CFB30000C06000D8
:1050400002407000C9E2B70020C3B30088F907002E
:1050500050C0B30086F90700C922A800A0C0B30061
:1050600083F907000080FA00000006000200FA0041
:1050700080C0B300104798000040EB00004F78005C
:105080001D003700CB22A900C922A90030C0B300FF
:1050900077F90700C922A80050C0B30074F90700CF
:1050A000CBC2BF000080FB000000D1006140600067
:1050B0001CFCB70040C3B3006DF907001E80FB0065
:1050C0000000D100004F78001CDCBF00E14F500011
:1050D00004003A001E40780001C8B30001404000BF
:1050E000004F7800A0C0B30061F907001E40900097
:1050F0000040E900104798001E4090000004E000C6
:10510000E0FF3C00A0C0B30059F907001E80FB007F
:105110000080FA00000006000000FA00CB22A9007F
:10512000C922A90030C0B30051F90700C922A80064
:1051300050C0B3004EF90700CBC2BF000080FB0097
:105140000000D100614060001CFCB70040C3B30008
:1051500047F90700A0C0B30045F907001CDCBF00F9
:105160000080FB000080FA00000006000800FA0042
:1051700020079800310798000040EB00004F7800AE
:105180000000EB00100798000C0037001E00900094
:10519000800078002E0090000080400010407800D1
:1051A0001E4068008080FB00800C2F00614F78005B
:1051B0001E0090000000E800100798009E0090007C
:1051C0003E009000808F5000F0FF35001E80FB00F5
:1051D0000080FA00000006000C00FA00881F78002A
:1051E000004F780011079800220798001E80FB00EE
:1051F0006101B9003207980043079800C001200000
:10520000010020003E019000CE019000800F51006F
:10521000818F5900C3013E003E009000CE009000F7
:10522000006001001C0037004000370060003700BC
:105230005F003700BB0137009F0037005E0037007A
:10524000B801370065003700B6013700B5013700F7
:105250007700370076003700B2013700B101370020
:10526000B0013700AF013700AE013700AD013700A4
:10527000AC013700AB013700AA013700A9013700A4
:10528000A80137007D00370080003700A7013700F4
:10529000A4013700A50137002E009000E10F500057
:1052A00007003A0010C0B300EA0D07006FFF0700C7
:1052B000FDFAB700FDDABF00B6F8070016003700A8
:1052C00020C0B300E30D07002E009000B1F80700E6
:1052D00030C0B300DF0D07000000EB00D0D788001E
:1052E0000900370061FF0700FDFAB700FDDABF00D3
:1052F000A8F8070000C2B300BF0D0700D0D7800098
:105300000000E800D0D78800D1D780002E009000A0
:10531000808F5000F3FF3900D0C0B300B60D0700F6
:10532000A0C0B300B40D07008001370040C0B30037
:10533000C80D07001E00900096F807002E00900090
:10534000E10F500003003A001E00900006FF070026
:1053500012003700C0462E00470C07002E009000B8
:105360008CF8070050C0B300BA0D07000000EB0036
:10537000D0D78800050037001E009000FAFE070015
:10538000D0D780000000E800D0D78800D1D78000B7
:105390002E009000808F5000F7FF3900D0C0B3007E
:1053A000950D0700A0C0B300930D07005F01370003
:1053B000610107005D01370057FF0700FDFAB700E4
:1053C000D0C0B300A30D0700FDDABF00230C070017
:1053D000F0C0B3009F0D0700540137002E0090006D
:1053E0006CF8070000472E00230C07000000EB00BC
:1053F000D0D7880005003700F0DABF0002FF0700B1
:10540000D0D780000000E800D0D78800D1D7800036
:105410002E009000808F5000F7FF3900F0DABF00B7
:105420000E0C070000482E00290C07003F01370032
:1054300020482E00100C0700C1C0B3009ECF100002
:1054400005003A000040EB00F0FAB7000040EB0026
:10545000020C07000400370010C0B300F0FAB700D8
:1054600010C0B300FD0B0700E0482E00180C070029
:10547000F0DABF00E4FE07002C0137000B48A9005A
:105480000B88A8000BC8A800280137000040EB00DB
:10549000FEFAB700C922A800CB22A900904B2E002B
:1054A0000B0C0700A04E2E00090C07000040EB007B
:1054B000680D07001D0137001E0090000000E0008D
:1054C000360032009E00900020032000808F5000A4
:1054D00032003E001E0090000000E9001007980016
:1054E000FEDABF008080FB001E009000808F50001D
:1054F00003003E0040512E00F50B07000B01370062
:10550000E0532E00DC0B07001E0090000040E80076
:10551000990C0700D0542E00D70B07000040EB0079
:10552000FCFAB700170037001E019000FCDABF003C
:105530008080FB004310DD0081004000F0AF2100BF
:10554000008040001040780012F8070000C2B3004D
:10555000290D07001E019000FCDABF008080FB00CF
:105560004310DD0081004000F0AF210000804000CA
:10557000104078007CFE0700FCDABF000040E80025
:10558000FCFAB700FCDABF00E74F5000E6FF360038
:1055900000552E00CE0B0700E40037001E019000DE
:1055A0005207980050052000DE019000808F5100C6
:1055B000CD00320050052000DE009000808F5000AA
:1055C00008003E005E0190000200E0001200320080
:1055D00030032000DE019000808F5100A0003200D7
:1055E000CD003700C00E2000DE009000808F5000FC
:1055F00046003200000F20005E019000800F510035
:1056000042003200C00C2000DE019000808F51006B
:10561000BB003200C000370020552E00AC0B070045
:1056200000562E00AA0B0700FEDABF000004E000BF
:1056300003003A0040512E00A50B07003000370050
:105640000040EB00FDFAB7002800370000C2B300AD
:10565000E90C0700FDDABF000040E800460C070037
:1056600080572E00840B07000040EB00FCFAB700C7
:105670000F003700FDDABF000081FB00FCDABF003D
:105680008080FB004310DD0081004000F0AF21006E
:105690000080400010407800BEF7070000C2B30051
:1056A000D50C0700FCDABF000040E800FCFAB700A8
:1056B000FCDABF00E74F5000EEFF3600A0572E0087
:1056C0006D0B0700FDDABF000080FB00C300DD00AA
:1056D000F0AF21000080400010407800B7000700C4
:1056E000FDDABF000040E800FDFAB700E1AF21009D
:1056F00091407800FDDABF0080CF5000D3FF3E001C
:1057000010582E00720B0700880037001E00900012
:105710003CF9B7009E009000C00E2000808F500022
:1057200003003A0050652E00690B070002003700A5
:1057300090662E00660B070000562E00640B0700D3
:105740000040EB00FCFAB700CB000700FDFAB70001
:105750000040EB00FEFAB7003B00370000C2B30088
:10576000A50C0700FCDABF000040E800020C0700AF
:1057700080572E00400B07000000EB00D0D78800B8
:105780000A003700D1D78000F0B42100008040002B
:10579000104078007FF7070000C2B300960C0700A6
:1057A000D0D780000000E800D0D78800D0D7800094
:1057B000E70F5000F3FF3600A0572E002E0B070016
:1057C0004FDBBF007D000700FCDABF00E94F50004F
:1057D00018003E000000EB00D0D788000F00370013
:1057E000FEDABF008081FB00D4D78000D1D78000D3
:1057F000F0B4210000804000104178004318DD0023
:1058000084004000F0AF2100008040000248780092
:10581000D0D780000000E800D0D78800D0D7800023
:10582000E70F5000EEFF3600FEDABF000040E80050
:10583000FEFAB700FCDABF000040E800FCFAB7004F
:1058400098000700FDFAB700FDDABF000004E00091
:10585000C2FF3A0070672E001D0B070033003700AF
:1058600035000700306A2E00030B070030C3B30079
:10587000BDFD07000000EB00D0D788001000370006
:10588000D8D78000F9FD07008040780010AF2100D4
:105890000000440001487800D1D7800010AF2100FB
:1058A00000804000104078003AF7070000C2B300C3
:1058B000510C0700D0D780000000E800D0D7880046
:1058C000D0D78000E70F5000EDFF3600D0C0B30006
:1058D000490C0700A0C0B300470C0700F1DABF0075
:1058E000360007001100370013000700506B2E0030
:1058F000F70A070050C5B3009BFD07000B003700F7
:105900000D000700606C2E00F10A0700C0CCB30048
:1059100095FD07000500370070C1B3004D0C07006E
:105920000200370080C1B3004A0C07004F04780022
:105930000080FA00000006000200FA0051FD070096
:10594000004F7800606D2E00CB0A07001E04E000B7
:1059500003003A00106E2E00DD0A07001500370024
:10596000406E2E00C40A07001E80FB00610060002C
:105970000004E00002003200C06E2E00BE0A0700E4
:105980001E80FB000000D100610060000004E00008
:105990000200320020702E00B70A070070712E003E
:1059A000B50A07001E407800FAF6070000482E00EE
:1059B000C70A07000080FA00000006000400FA0091
:1059C000004F78001E80FB00100798002002200086
:1059D0009E009000808F50001A00320020022000AC
:1059E0009E009000808F500007003C001E00900039
:1059F000E40F5000160032009E009000F08F50001F
:105A00000A00320018003700800220009E0090003B
:105A1000808F500008003200D00220009E009000CD
:105A2000808F50000D0032000F00370090712E0063
:105A3000A70A07000E00370050732E00A40A0700C3
:105A40000B00370000752E00A10A07000800370080
:105A500060762E009E0A070005003700F0772E00C2
:105A60009B0A07000200370000792E00980A070001
:105A70000080FA00000006000000FA000040EB0081
:105A800057FBB7000040EB0059FBB7000040EB00AC
:105A900058FBB700080007000080FB000080FA00F8
:105AA000000006000000FA00030007000080FB0071
:105AB0000080FA00000006000A00FA0010C0B300DF
:105AC000704798000040EB00604798000040EB00F2
:105AD0005047980010C0B300104798000040EB00FA
:105AE000404798000040EB005AFBB70059DBBF006D
:105AF0000004E0008B003A00E2FC07000004E00034
:105B0000090032000040EB0057FBB7000040EB00FB
:105B100059FBB7000040EB0058FBB7000000EB005A
:105B200040079800900037003CD9BF000EFD0700E9
:105B300079FD07003047980077FD0700204798005F
:105B40003E409000E14F500003003A002E4090008C
:105B5000E14F500063003200BE4090002E409000A4
:105B600080CF5000030032003E409000004F78008C
:105B70002400370071B52100914078007E409000EC
:105B8000814F50000E0031005E4090008080FB008D
:105B9000F0B4210000804000904078001E4090004A
:105BA00080C060000040EB00004F78000104E0007E
:105BB0000B00320010C0B300004F7800080037001F
:105BC00057DBBF008040EB00014F7800FE409000A3
:105BD00080CF500002003A0010C0B300004F7800A0
:105BE0001E04E00007003A007E40900060479800E5
:105BF0006E409000E84F500002003E006E40900062
:105C000058FBB70010C0B3009E4F10000D003A00C3
:105C10005E4090000081FB005E4090008080FB00B1
:105C2000F0B4210000804000904078001E409000B9
:105C300080C07000F0B421000000410001487800ED
:105C40000F0037005E4090000081FB005E40900036
:105C50008080FB00F0B421000080400010407800FC
:105C6000804078001E40900000C0EA0000C0600044
:105C700080407800F0B42100000041000148780025
:105C80001E407800E0FC07007E4090000040E800E5
:105C9000704798001E409000004040001047980058
:105CA0001E4090000004E0000B003A005E409000AF
:105CB0008080FB00F0B4210000804000104078009C
:105CC000840007005E4090000040E80050479800C4
:105CD00010C0B300104798005E409000E74F50009E
:105CE00093FF3600FE40900000C4B30080CF500008
:105CF0000C0036005ADBBF000004E00009003A0047
:105D00006E40900057FBB70057DBBF000004E00077
:105D100002003A0010C0B30059FBB70010C0B30036
:105D2000404798004E4090000004E000030032001D
:105D30004FDBBF000004E00008003A000040EB0029
:105D400057FBB7000040EB0059FBB7000040EB00E9
:105D500058FBB7000040EB00404798004E409000D1
:105D60000080FB00400798004E0090000080FA0081
:105D7000000006000E00FA000040EB0040479800CB
:105D80000C0037004E4090000081FB004E40900018
:105D90008080FB00F0B4210000804000904078003B
:105DA00065004700017178004E4090000040E80017
:105DB000404798004E409000E74F5000F1FF3600FA
:105DC00057DBBF002047980059DBBF001047980001
:105DD00058DBBF00004F780000C4B30057FBB7008A
:105DE0000040EB0059FBB70033FF07000004E00060
:105DF0001A00320010C0B300304798000040EB009A
:105E000040479800110037004E4090008080FB0012
:105E100065004700614178004E4090008080FB00A3
:105E2000F0B421000080400010407800804F510005
:105E3000030032000040EB003047980009003700B3
:105E40004E4090000040E800404798004E409000CF
:105E5000E74F5000ECFF3600020037000040EB0037
:105E6000304798000040EB00404798000C00370096
:105E70004E4090000081FB004E4090008080FB006F
:105E800065004700E1407800F0B4210000004100C7
:105E9000014878004E4090000040E80040479800DC
:105EA0004E409000E74F5000F1FF36002E4090002A
:105EB00057FBB7001E40900059FBB7001E4078000A
:105EC00058FBB7003E4090000080FB000080FA00C5
:105ED000000006000200FA00004F78005ADBBF0005
:105EE0001E4068008080FB00D093210000804000AD
:105EF000104078005AFBB7005ADBBF000080FB005F
:105F00000080FA00000006000A00FA00004F780046
:105F100011079800220798001E80FB0030079800A8
:105F20003E009000F80F5000170032003E00900035
:105F3000F80F50000A003C003E009000E10F5000B6
:105F4000380032003E009000E50F50004F00320054
:105F50003E0090000000E000110032006E003700AB
:105F60003E009000FA0F50006D0032003E0090009D
:105F7000FA0F5000060035003E009000FC0F500064
:105F800067003200640037000BC8A80064003700C7
:105F90009D0007000040EB00AE0A070060003700DC
:105FA0002E009000E10F500005003A0010C0B30031
:105FB000A80A07002E0107005B0007001400370045
:105FC00020C0B300A30A07002E00900071F507005F
:105FD00030C0B3009F0A07000000EB00C0DE88005D
:105FE00007003700220107004F00070000C2B3007E
:105FF000810A0700C0DE80000000E800C0DE8800E3
:10600000C1DE80002E009000808F5000F5FF390027
:10601000D0C0B300780A0700A0C0B300760A07001A
:106020003F00370040C0B3008A0A07001E009000FE
:1060300058F507001E0090004B010700DAFBB7007F
:10604000DADBBF000004E00003003A0060C0B300E8
:10605000800A070008003700DADBBF00E14F50007C
:1060600003003A0070C0B3007A0A0700020037004C
:10607000E0472F0000090700D0C0B3005E0A070008
:10608000A0C0B3005C0A0700250037001E00900086
:10609000400798004E0090000000E000040032002D
:1060A0004E009000E10F500004003200170037004E
:1060B000B0482F000609070019003700204B2F00B9
:1060C00003090700EA0007000004E00004003A00AA
:1060D000DDDBBF002FF5070000C2B300460A070052
:1060E00022C2BF00614060000004E000F5FF320002
:1060F00030118000DAFBB700D0C0B3003E0A0700C1
:10610000A0C0B3003C0A07000500370070C1B3000F
:10611000500A07000200370080C1B3004D0A070093
:106120000080FA00000006000400FA00004F78002A
:106130001E80FB00100798009E009000E28F500028
:106140001D0032001E009000E20F500007003C00CE
:106150009E0090000100E0000F0032001E00900041
:10616000E10F500011003200230037009E00900024
:10617000E48F50001A0032001E009000E40F50001F
:1061800012003500F00F20009E009000808F50001C
:106190001600320018003700DDDBBF00FDF40700F9
:1061A00000C2B300140A070015003700F04C2F009E
:1061B000B108070012003700DDDBBF00F5F407006F
:1061C000004E2F00AC0807000D003700DDDBBF00DC
:1061D000F0F40700F04E2F00A70807000800370072
:1061E000E0472F00A408070005003700F04F2F00FC
:1061F000A10807000200370050502F009E0807003A
:106200000080FA00000006000000FA00C922A80081
:10621000C902A900CB02A900CB22A9000080FA0084
:10622000000006000400FA000040EB002E01070009
:106230000004E00003003200200020001007980056
:106240000E003700CBC2BF000080FB000000D10071
:1062500061406000004F780010C0B30022010700C9
:106260000004E00003003200200020001007980026
:10627000020037001E80FB00100798001E009000EF
:106280000080FA00000006000600FA000040EB0063
:10629000204798000040EB0010479800CBC2BF0099
:1062A0000080FB000000D10061406000614160009F
:1062B000C1BD210091407800E0CFB30000C0600074
:1062C00002407000DCFBB700DCDBBF006140600017
:1062D0000004E000030032001000200020079800B6
:1062E0006000370010C0B300FF0007000004E000AA
:1062F00003003200410020002107980059003700B8
:106300000040EB0030479800190037001E40900015
:106310000080FB000000D10010479800C1FF07007B
:10632000004F780020C0B3009E4F100003003A00D9
:1063300041002000210798004A00370010C0B30038
:106340009E4F100007003A009E40900000C8B30026
:1063500000C04000104798002E4090000004A200AA
:10636000204798003E4090000040E80030479800E9
:106370003E409000E74F5000E4FF36001E40900082
:10638000DDFBB700A7FF0700004F780021C0B30076
:106390009ECF100003003A00400020002007980024
:1063A000300037009E40780061C0600061416000AD
:1063B000E1BD210091407800E0CFB30000C0600053
:1063C00002407000DEFBB700DEDBBF006140600012
:1063D000804078002E40900080CF500004003A00AA
:1063E000DE5BA80020002000200798001D00370079
:1063F000DE5BA9008BFF0700004F780021C0B300CF
:106400009ECF100003003A004000200020079800B3
:10641000140037009E40780061C060006140600059
:1064200000414000E1BD210091407800D0CFB30091
:1064300000C0600002407000DEFBB700C902A90086
:10644000DEDBBF00624060000004E00003003A00B1
:106450003000200020079800020037008000EB0089
:10646000210798002E0090000080FA00000006002E
:106470000200FA0000C0EB00004F7800C922A8001B
:10648000C902A8000040EB00104798001000370038
:10649000CBC2BF00614060000004E00007003A008A
:1064A00079FF0700004F78001E04E0000B00320067
:1064B00040C0B3009E4F10000800320050C0B3002F
:1064C0006BF407001E4090000040E8001047980061
:1064D0001E409000E14F4000EDFF3A00C902A900C4
:1064E0001E80FB000080FA00000006000400FA0095
:1064F000004F780010C0B3007B0007000004E000EC
:10650000030032002000200010079800130037001D
:106510009E40780061C06000614060000041400022
:10652000912C200091407800D0CFB30000C06000D3
:1065300002407000C9E2B7000040EB006A000700AB
:106540000004E00003003200200020001007980043
:10655000020037008000EB00110798001E00900039
:106560000080FA00000006000800FA00404798008A
:106570000040EB0020479800C902A900CB02A90007
:10658000C0C3B3003AF40700CB22A900C922A90076
:10659000C902A80010C0B30035F407000040EB00AA
:1065A000510007000004E00003003200400020001A
:1065B00030079800490037000000EB00000F78001A
:1065C0001C0037004E4090000080FB00610060001E
:1065D0000004E0000B00320010C0B300C3FF07004E
:1065E0000004E00003003200400020003007980063
:1065F0003A0037002E4090000004A2002047980087
:10660000070037000040EB00B8FF07000004E0007F
:106610000300320040002000300798002F003700B0
:106620004E4090000080FB000000D10040479800E1
:106630001E0FE800700020009E0F1000E1FF3600E2
:106640002E4090000004A200204798002E409000A9
:10665000A6FF07000004E000030032004000200015
:10666000300798001D003700C922A800CB22A900DE
:1066700010C0B3001C0007000004E000030032005B
:10668000400020003007980014003700E5FE0700A6
:10669000E24F500003003A0040002000300798000D
:1066A0000E003700DFFE07000080FB00000F7800BF
:1066B000200020009E0F100003003A004000200040
:1066C0003007980005003700C902A900CB02A900D5
:1066D0001E0078000080FB00300798003E0090000C
:1066E0000080FA00000006000600FA00204798002B
:1066F0000080EB00000F7800CBC2BF00614060005B
:10670000804078002E40900080CF500003003A0077
:106710000000EB0020079800050037001E0FE9007D
:106720001E00E000F4FF3A0010002000200798004F
:106730002E0090000080FA00000006001400FA000D
:10674000881F780020DE8000E20F50000B003A0026
:1067500011E1A900A16C20009140780000CEB300A7
:1067600000C06000CAE6B70060FC2E0058070700B2
:106770000000EB0020DE88009100370030FD2E0085
:106780005307070000002F003B07070022032000EB
:1067900001FA200040002000AE05070030079800F5
:1067A00020012F00340707003E009000E30F500047
:1067B00007003E00C0012F0045070700E00320004E
:1067C0002007980010A1A8001081A8001B00370026
:1067D0003E009000FE0F500007003E0000022F0018
:1067E0003B070700A00F20002007980010A1A80079
:1067F0001081A90011003700BE009000400F20005A
:10680000808F500007003E0030022F003007070045
:10681000007D20002007980010A1A9001081A80089
:106820000600370050022F002907070000E8230068
:106830002007980010A1A9001081A9002E00900047
:106840003E019000110009000280D8000000E9001C
:106850005007980070022F00070707005E009000A5
:1068600096070700D0C0B30063080700A0C0B300BC
:1068700061080700C0022F00FF0607002203200066
:106880003106200020002000720507000004780077
:106890006140B90020EC0700000F9800110F98002C
:1068A0000800E00007003D000200200003782400FB
:1068B0000E0890009E08900043EC0700000F98001F
:1068C000110F98000E0890009E089000008FBE00E7
:1068D00002002000832C24001E00BE0097EC07005D
:1068E000008FBE005E009000CF80DE000AEC070043
:1068F00060079800710798005E0090000000E000BB
:1069000007003D0002002000037824006E00900084
:10691000FE0090002CEC07006007980071079800BB
:106920001E01BE006E009000FE009000C5EC070046
:10693000F8EC070040079800A16C20009140780017
:1069400000CEB30000C060006041B300CAE6B700EB
:106950001061A9001E61A9001021A900C119200021
:106960009140780080CFB30000C060009CE1B70088
:10697000CE009000D10C88004E009000C00C880022
:106980009DA1A9009C81A9009C61A900C1192000BA
:106990009140780080CFB30000C060006040B30039
:1069A0009CE1B700DE0090006108880011E1A800BA
:1069B000D0032F00C60607002000200020DE88003C
:1069C0004F0478000080FA00000006000000FA0082
:1069D00020DE8000E20F500003003A0080042F0008
:1069E000BB0607007A00370090062F00A2060700BA
:1069F0001FE1A90011E1A900C942A80061682000B7
:106A00009140780000CEB30000C06000A040B30009
:106A100086E6B7001061A80010A1A8001081A800A8
:106A20001021A8000080EB00700888000080EB00B7
:106A3000600888000000EB00400888000000EB00C0
:106A4000300888000000EB00B00888000000EB0070
:106A5000A00888001E61A8001E81A9001EA1A9002F
:106A60001E21A9001EC1A900400F2000E0088800D7
:106A700000402200D00888008780A9001FE1A800FC
:106A800011E1A80087C0BF00704060000004E00072
:106A9000FCFF320011E1A9001FE1A90030088000CD
:106AA00060DE88004008800050DE880050DE8000F4
:106AB0000100200030DE880041DE880030DE8000EA
:106AC00041DE8000C000DD000000200030DE8800D4
:106AD00041DE880060DE80006101B80030DE8000A9
:106AE00041DE8000020040008380480030DE8800E4
:106AF00041DE880030DE800041DE8000C808DD0015
:106B00000080FD00804078000040EB0030DE88000F
:106B100041DE880030DE800041DE8000A3060700F1
:106B200000082F005406070032DE800043DE80009C
:106B3000703E200001002000800F5100818F59001D
:106B40001C00360032DE800043DE8000F02324008B
:106B5000F1002000800F5100818F59000B003E0092
:106B600030082F004406070030DE800041DE800040
:106B7000823E20000300200081EC07008B06070006
:106B800060082F003C0607000A00370030082F007D
:106B90003906070030DE800041DE80000224240038
:106BA000F300200076EC070080060700B0082F00F5
:106BB00031060700D0C0B3008F070700A0C0B300A4
:106BC0008D07070086C6BF00F041B30086E6B70018
:106BD0000080FA00000006000000FA000BC8BF00A9
:106BE000614060000004E00002003A00C942A800D1
:106BF00001003700C8C2A80000092F0034060700B2
:106C00000080FA00000006000000FA000BC8BF0078
:106C1000614060000004E00003003A00C942A9009E
:106C2000CB42A80002003700C8C2A900CAC2A8000F
:106C3000F0092F00260607000080FA000000060079
:106C40000000FA000BC8BF00614060000004E000D3
:106C500003003A00C942A900CB42A9000200370054
:106C6000C8C2A900CAC2A900800A2F0018060700DE
:106C70000080FA00000006000200FA000BC8BF0006
:106C8000614060000004E00009003A00C942A80029
:106C90000000000000000000CBC2BF000080FB002D
:106CA0004200DE0061406000004F780008003700BD
:106CB000C8C2A8000000000000000000CAC2BF0057
:106CC0000080FB004600DE0061406000004F78005D
:106CD000000B2F00E80507001E407800DF050700C5
:106CE000D0C0B30044070700A0C0B30042070700AC
:106CF0000080FA00000006000A00FA00004F780049
:106D00001107980022079800204080006101B80018
:106D10000080EB008080EB0002014000838148008E
:106D200032079800430798009000200001002000DF
:106D30003E019000CE019000800F5100818F5900DC
:106D40003F003E003E009000CE0090000060010039
:106D5000090037000D00370011003700150037001B
:106D6000190037001D0037002100370025003700CB
:106D7000290037002D0037002E0190009E00900062
:106D80001E40780014F907002E0037002E019000F5
:106D90009E0090001E407800BB07070029003700C6
:106DA0002E0190009E0090001E4078004EF20700D9
:106DB000240037002E0190009E0090001E407800B5
:106DC0005DEF07001F0037002E0190009E0090002D
:106DD0001E40780020F507001A0037002E019000B1
:106DE0009E0090001E407800CFEC07001500370091
:106DF0002E0190009E0090001E40780062EE070079
:106E0000100037002E0190009E0090001E40780078
:106E10003DFC07000B0037002E0190009E00900003
:106E20001E407800E0080700060037002E019000A1
:106E30009E0090001E40780089090700010037007D
:106E4000C222A9000080FA00000006000000FA003B
:106E5000B00020000080FA00000006000000FA00E8
:106E60002040800080004000C0B52100008040002C
:106E700010007800800507000080FA00000006007E
:106E80000200FA00004F78001E80FB0080004000E6
:106E9000C0B5210000804000100078007605070092
:106EA0000080FA00000006000800FA00004F780099
:106EB00000C6B3009E4F100007003600A0C7B30005
:106EC0009E4F100004003E001E40780001CEB3002B
:106ED00001404000004F78001E80FB006101B900B6
:106EE000D0FD2F00F1FF2F000201400083814800F8
:106EF0002207980033079800B00520000100200009
:106F00002E019000BE019000800F5100818F59002A
:106F10009B003E002E009000BE009000006001002B
:106F20008200370096003700950037009400370044
:106F3000930037009200370091003700900037002F
:106F4000820037008E0037008D0037008C0037003C
:106F50008B0037008A00370089003700880037002F
:106F6000870037008600370085003700840037002F
:106F7000830037008200370081003700800037002F
:106F80007F0037007E003700720037007C0037003A
:106F9000500037007A003700790037006100370071
:106FA0005800370076003700750037004B00370077
:106FB0004C003700720037004C003700700037007B
:106FC0006F00370041003700310037006C00370098
:106FD00031003700320037006900370068003700A1
:106FE000670037006600370065003700350037005E
:106FF000630037006200370061003700600037002F
:107000005F0037005E0037005D0037005C0037002E
:107010005B0037005A00370059003700580037002E
:10702000570037005600370055003700540037002E
:10703000530037005200370051003700500037002E
:107040004F0037004E0037004D0037004C0037002E
:107050004B0037004A00370049003700480037002E
:10706000470037004600370045003700440037002E
:10707000430037004200370041003700400037002E
:107080003F0037003E0037003D0037003300370037
