:020000040000FA
:10000000040C040000000000727B0000727B000002
:10001000727B0000727B0000727B0000727B00002C
:10002000727B0000727B0000727B0000727B00001C
:10003000727B0000727B0000727B0000727B00000C
:10004000727B0000727B0000727B0000727B0000FC
:10005000727B0000727B0000727B0000727B0000EC
:10006000727B0000727B0000727B0000727B0000DC
:10007000727B0000727B0000727B0000727B0000CC
:10008000727B0000727B0000727B0000727B0000BC
:10009000727B0000727B0000727B0000727B0000AC
:1000A000727B0000727B0000727B0000727B00009C
:1000B000727B0000727B0000727B0000727B00008C
:1000C000727B0000727B0000727B0000727B00007C
:1000D000727B0000727B0000727B0000727B00006C
:1000E000727B0000727B0000727B0000727B00005C
:1000F000727B0000727B0000727B0000727B00004C
:10010000727B0000727B0000727B0000727B00003B
:10011000727B0000727B0000727B0000727B00002B
:10012000727B0000727B0000727B0000727B00001B
:10013000727B0000727B0000727B0000727B00000B
:10014000727B0000727B0000727B0000727B0000FB
:10015000727B0000727B0000727B0000727B0000EB
:10016000727B0000727B0000727B0000727B0000DB
:10017000727B0000727B0000727B0000727B0000CB
:10018000727B0000727B0000727B0000727B0000BB
:10019000727B0000727B0000727B0000727B0000AB
:1001A000727B0000727B0000727B0000727B00009B
:1001B000727B0000727B0000727B0000727B00008B
:1001C000727B0000727B0000727B0000727B00007B
:1001D000727B0000727B0000727B0000727B00006B
:1001E000727B0000727B0000727B0000727B00005B
:1001F000727B0000727B0000727B0000727B00004B
:10020000FFFFFF00FFFFFF00727B0000727B00001A
:10021000727B0000727B0000727B0000727B00002A
:10022000727B0000727B0000727B0000727B00001A
:10023000727B0000727B0000727B0000727B00000A
:10024000727B0000727B0000727B0000727B0000FA
:10180000040C0000000000004FC42100007F2200F3
:1018100000018800000000000A0007001100070016
:10182000000020000000E000020032000000020082
:1018300000000000C80F0200000000000040DA00B5
:101840000000FE004440A900A0A221000000E0002A
:101850000300320000002000A00188004440A800DE
:1018600000000600C0852700010020001500370099
:1018700062004000E0804800910188009001BA00B9
:1018800062004000E0804800910188009002BA00A8
:1018900062004000E08048000002EB006028E100A8
:1018A00004003A000059EB008301E900FDFF3E000F
:1018B000040037006128E100010032000082EB00E3
:1018C00005000700910188001001BA000200E00045
:1018D000E7FF3A00000005009101880080027800CF
:1018E00062004000E08048003559BA008301E900F9
:1018F000080032002559BA008301E90005003200D2
:101900000400E000F4FF320015D9BA008301E900B9
:10191000F1FF3A0000000600889FBE008A9FBE00CB
:10192000010578000100E0000400350008003C00DB
:101930000000E000200032000500370060001000C9
:10194000E080180002003B0001F02C001A00370074
:101950000004BE006011B8006B0920000982CF00AE
:10196000020039000882CF000441B00069425200F1
:101970000E00320008003B008281710061016400AA
:101980008904D1000884D3008B05E8000442E800F4
:10199000F9FF3A00050037000804440089844C0030
:1019A0008B05E9000442E900FBFF3A00250107002E
:1019B0000AF0A70001F0A0004F05BE004F04BE00D2
:1019C0000000060003F0A200889FBE008A9FBE00B0
:1019D0008C1F780041010700480133006450E1008A
:1019E0004F0032006420E1005200320003826C009C
:1019F00007003B000905D0000306D000820F540009
:101A00000C065D00020039000200320089017800F6
:101A1000030678008582550004003D000003FD00A8
:101A20008103FD008502EA008B854200840F72006D
:101A300002003B0060001000E08018006011B80058
:101A40000005EB007A28E1000A0039000600780062
:101A5000C75DDD00F707B200878075002D003700F5
:101A6000828171000A017800610560008180D100E7
:101A70000080D3008502E900F9FF3B000604400026
:101A80008784480002003B0060041400E0841C00CE
:101A90000988A300070032008A81710082817100E9
:101AA000610164008904D1000884D3008B05E8003B
:101AB000170037000978A30013003A000B00E0007C
:101AC000130034008B05E9000804440089844C00AD
:101AD0000A4474000978A3000D003A000B00E000EE
:101AE000070034008B05E9000804440089844C0099
:101AF00001003A000B0020000978A300F7FF320034
:101B00000001EB0002003700828171000A017800B9
:101B1000CC0007000CF0A70001F0A0000001370086
:101B20006420E10002003A00838F6C000001330062
:101B30000801BE000200BE00F9003700889FBE0009
:101B40008A9FBE008C1F7800E4000700EB00330082
:101B500003866C006450E1002E0032006420E10036
:101B6000330032006150E1002F0032006120E100BB
:101B70003100320085855500EB07B00009002000D8
:101B800008042000050037000804440089844C0044
:101B90000A0031000603430087834B000001530015
:101BA00081815B00F8FF33000203BE000800A00043
:101BB0000804440089844C00F6FF3900C639DD0072
:101BC0008301730001003200130020008904D1005A
:101BD0000884D3000998A300050032000800A7007C
:101BE0000300A0008904D1000884D3008B05E8001D
:101BF0008904D1000884D3000001EB000281D200E7
:101C00009000070001F0A1000CF0A70001F0A00077
:101C1000C30037006420E100C50032000801BE00A7
:101C20000200BE00F7FF37006120E100C000320073
:101C30006000B800F3FF37000000200001F8270023
:101C4000F0FF3700889FBE008A9FBE008C1F78007F
:101C5000A2000700A900330003866C006450E10075
:101C6000240032006420E100270032006150E100CE
:101C7000220032006120E100210032008B85420009
:101C8000EB07B1000134B800003AB8000804420084
:101C900089844A00013AB8000030B80088804000CA
:101CA00009014A0004003300000040008180480020
:101CB000020149008B05E900C909DD0083017000BC
:101CC0000100320013002000C814DE004814DD00BB
:101CD0004709DE001200B200C808DE000884700068
:101CE0005800070001F0A1000CF0A70001F0A000CF
:101CF0008B0037006120E1008D0032000801BE003A
:101D00000200BE00F7FF37006150E100FCFF3A001F
:101D1000870037000001BE00880007000470A7009C
:101D200003F0A10003F8A30013003A006509B10015
:101D300010003200090035006928E100020035007A
:101D400001002800000005000000400081804800DC
:101D50008502E900FCFF3A0000000600F88F42000F
:101D6000050035008100D1000080D3008502E80025
:101D7000FCFF3A00000006008000EB0000000500B8
:101D80006022B800060220000000D0008180D2004E
:101D90000482D2008582D2000000A000020252001C
:101DA00083825A00030031000202420083824A000B
:101DB0000000A1000603E900F3FF3A00000006005E
:101DC0000001BE005D0007000470A70003F0A10041
:101DD0006509B100160032000D0035006828E100E9
:101DE00006003500F0FF2F00F1FF27000300E000A0
:101DF00013003B0001002800000005000000400027
:101E0000818048008502E900FCFF3A0008003700A5
:101E1000F88F420002003C008000EB00000005004B
:101E20008100D1000080D3008502E800FCFF3A0069
:101E30000300E00002003B0060001000E08018009A
:101E40000000060081002000618055000B003D006D
:101E50000B00200061FE2F000100E1001D00340096
:101E600082817100610164008904D1000884D3007B
:101E70000000E800FAFF3A007100200061006400F1
:101E80000300700002006000090032006104440099
:101E9000E0844C000988A500050032008B05E800AD
:101EA0006808E10002003A008904D1000884D300E8
:101EB000F20F20000258E10005003D00C75DDD0083
:101EC000F907B2008980750008007800000006005C
:101ED0000BF827008B007800000005000004BE000E
:101EE000160007000003BE000405BE000200BE008D
:101EF00012000700844F7500000006000200BE00BB
:101F00006450E100050036006420E1000200360064
:101F10000968A30001003A000800BE000160A000AB
:101F20004F0678004F05BE004F04BE0000000600BB
:101F3000F0FF2F00F1FF2700F9FF3700C70ADE008E
:101F4000F107B200F50FB20008003200E1CF420005
:101F5000020032000170A00024000500810F700013
:101F6000010032000408050044000500810F7000E4
:101F700002003A00140005008502E900000040005C
:101F800081C04800FCFF3B000170A0002400050058
:101F90000400FA003800070000003700228120000A
:101FA00001FA2000207B21008A1907001007980001
:101FB0001E009000E10F500005003200F00F2000DD
:101FC0009E009000808F50001C00320022003700DD
:101FD00090BD8000000F78009E0078000100E000B6
:101FE000040032001E007800E10F500004003200AF
:101FF0000700370090C1B3003D1C07000700370001
:1020000012C8BF004F1507000004E00003003A00AB
:1020100090BD8000218120008E1707000000EB009A
:1020200090BD88000040EB0041FCB700321507006E
:10203000E0C3B300171C07000700370041DCBF00F6
:102040000040E80041FCB70041DCBF00F34F500006
:1020500001003600092507000BC8BF006240600080
:102060000004E000CDFF320060C1B3000CE8B7000F
:10207000EC140700C9FF37000000FA004507A9006B
:102080000080EB00601988004227A900416A200007
:102090009140780000CEB30000C060005040B30013
:1020A000A4E6B700416C20009140780000CEB30058
:1020B00000C060003040B300C4E6B70080C0B30089
:1020C00000E8B7000000EB0010408800CB050700D7
:1020D000FF0507008000EB00F00F2000F71B070052
:1020E0003040880021002000F00F2000F31B070083
:1020F0004040880010C1B300E61B0700D0C0B30009
:10210000E41B0700A0C0B300E21B0700E8150700AE
:10211000F9140700E0C3B300DE1B07000080FA00DB
:10212000000006000600FA000CC8BF000080FB009B
:102130006101B9001207980023079800C001200030
:10214000010020001E019000AE019000800F5100A0
:10215000818F5900D4003E001E009000AE00900018
:10216000006001001C0037003E0037005E003700B1
:102170005D00370062003700B600370066003700A8
:102180006C00370072003700780037007C003700A1
:102190008000370084003700C3003700C2003700DA
:1021A000C1003700C0003700BF003700BE00370055
:1021B000BD003700BC003700BB003700BA00370055
:1021C000B90037007D00370097003700B8003700AE
:1021D000B5003700B600370080408000E10F5000A6
:1021E00007003A0010C0B300C11B0700B823070066
:1021F00032FCB70032DCBF00C7050700140037000F
:1022000020C0B300BA1B070080408000C205070051
:1022100030C0B300B61B07000000EB0080E188006F
:1022200007003700AA230700BB05070000C2B30060
:10223000981B070080E180000000E80080E1880032
:102240008140800080E18000808F5000F5FF3E00DB
:10225000D0C0B3008F1B0700A0C0B3008D1B0700C8
:102260009300370040C0B300A11B070070408000FE
:10227000A905070080408000E10F500003003A00EC
:10228000704080006123070012003700E0FE2E003E
:10229000201A0700804080009F05070050C0B3004F
:1022A000931B07000000EB0080E188000500370069
:1022B000704080005523070080E180000000E800A6
:1022C00080E188008140800080E18000808F5000A4
:1022D000F7FF3E00D0C0B3006E1B0700A0C0B300E4
:1022E0006C1B070072003700D922070020FF2E0068
:1022F000081A070080C0B3007D1B07006C00370080
:10230000E6220700A0FF2E00021A070090C0B300CB
:10231000771B070066003700D0C0B300741B0700AE
:102320009B230700F4190700F0C0B300701B0700DF
:102330005F003700E0C0B3006D1B0700E423070017
:10234000ED190700F0C0B300691B07005800370003
:10235000804080007005070000C1B300641B0700C7
:1023600080408000AC2307005100370010C1B3004B
:102370005F1B070010C0B300C32307004C003700E9
:1023800020C1B3005A1B07000040EB00BE2307002A
:102390004700370030C1B300551B070010C0B30021
:1023A000B02307004200370040C1B300501B0700B4
:1023B0000040EB00AB2307003D0037000B48A800AE
:1023C0000B88A80010C3B300491B070012002000AF
:1023D0002100200010002000451807000040E900FF
:1023E0000AE8B700E0C1B300411B0700120020005B
:1023F00021002000100020003D1807000040EA00E6
:1024000061406000614060004601DD00B180200055
:1024100091407800F0CBB30000C060000240700033
:102420000BE8B70022003700CB02A900CB22A9009D
:10243000C922A800C902A900A1802000914078000B
:1024400020C0B3005F2207000040EB00281B0700FC
:102450001700370071408000010F78001E017800DE
:10246000E10F51000A0032009E017800E18F510017
:10247000040039001E007800E20F50000500320011
:102480000600370010002F00A219070008003700CF
:1024900009000700190007000500370070C1B300EC
:1024A000131B07000200370080C1B300101B070098
:1024B0000080FA00000006000000FA00C0032F00B0
:1024C000AA19070090052F00A81907000040EB008B
:1024D0007623070000C0EB004605070010C0B300DC
:1024E0007223070010C0B3004B2307000040EB002D
:1024F0006E2307000080FA00000006000A00FA00C0
:10250000881F7800B0072F00821907000000EB0039
:10251000000F78000D0037001E047800EC22070041
:102520008040780063004700017478009E007800C6
:1025300063004700614078000080FB00661A0700D6
:1025400000C2B300D31A07001E0FE80030002000BD
:102550009E0F1000F0FF3600D0C0B300CD1A070068
:10256000A0C0B300CB1A0700900A2F00691907001A
:1025700063004700104078000080FB004400DE004C
:102580000080FB00400798004E009000E90F5000CB
:10259000110032004E009000E90F500004003C0092
:1025A0004E009000E80F5000080032001300370082
:1025B0004E009000EA0F50000A0032004E009000DA
:1025C000EF0F50000A0032000C003700400B2F00C4
:1025D000661907000B003700B00B2F0063190700C6
:1025E00008003700200C2F00601907000500370095
:1025F000900C2F005D19070002003700D00C2F004F
:102600005A190700500D2F004219070063004700B8
:10261000104090000080FB004700DE000004E00056
:1026200003003A00100E2F00501907000200370077
:10263000800E2F004D190700800F2F00351907005D
:1026400063004700104090008080FB0080F72F005F
:10265000008060004380DE00204798002E409000FC
:102660000004E00003003A0050102F002919070071
:102670001B0037002E409000EF4F500003003A003F
:10268000900C2F00231907001500370000042000CC
:10269000000F7800E30047000040EB00804878001E
:1026A000080037001E00780000004000000F78008E
:1026B00063004700104078008040E8006300470056
:1026C0000148780063004700904078002E40900059
:1026D00080CF5000F3FF39001E0078009E190700DC
:1026E000D0C0B3006B1A0700A0C0B300691A07007E
:1026F00030112F0007190700630047009040900039
:1027000070C0B30000C06000204798001000200097
:10271000000F7800E30047000040EB00804878009D
:10272000080037001E00780000004000000F78000D
:1027300063004700104078008040E80063004700D5
:102740000148780063004700904078002E409000D8
:1027500080CF5000F3FF39001E007800AD1907004C
:10276000D0C0B3004B1A0700A0C0B300491A07003D
:102770004F0478000080FA00000006000400FA0010
:102780000CC8BF000080FB006101B900028FBE00D1
:10279000C0012000010020001E01BE00800F51007A
:1027A000818F5900D8003E001E00BE00006001006D
:1027B0001C0037003E0037006A0037006900370010
:1027C00073003700CD003700770037007F003700F7
:1027D000870037008D0037009100370095003700E3
:1027E00099003700C8003700C7003700C60037001F
:1027F000C5003700C4003700C3003700C2003700EF
:10280000C1003700C0003700BF003700BE003700EE
:1028100092003700AC003700BD003700BA00370027
:10282000BB00370080408000E10F500006003A00F6
:1028300010C0B3002E1A070000C0EB00AA21070049
:10284000350407001500370020C0B300281A070020
:10285000804080003004070030C0B300241A070015
:102860000000EB00F0E088000800370000C0EB003B
:102870009D2107002804070000C2B300051A0700C5
:10288000F0E080000000E800F0E088008140800077
:10289000F0E08000808F5000F4FF3E00D0C0B30015
:1028A000FC190700A0C0B300FA1907009800370010
:1028B00040C0B3000E1A07007040800016040700E5
:1028C00080408000E10F50000E003A007040800010
:1028D0008521070020FCB70022DCBF0061406000BA
:1028E0000004E0001A00320000C2B300E91907003A
:1028F00010C0B300FE19070020DCBF00060407006B
:102900001300370080852F00821807008040800068
:102910000104070050C0B300F51907000000EB00E8
:10292000F0E0880006003700704080006E2107004C
:1029300020FCB700F0E080000000E800F0E0880034
:1029400081408000F0E08000808F5000F6FF3E0064
:10295000D0C0B300CF190700A0C0B300CD19070045
:102960006B0037000CC8BF00E34F500002003A0074
:10297000221CA80001003700221CA9000040EB0027
:102980004A220700A0C0B300D91907006000370031
:10299000221CA90010C0B30044220700B0C0B3003D
:1029A000D31907005A003700D0C0B300D019070070
:1029B000F721070050180700D0C0B300B519070071
:1029C000A0C0B300B319070051003700E0C0B30046
:1029D000C71907003E22070047180700D0C0B30000
:1029E000AC190700A0C0B300AA19070048003700BF
:1029F00080408000C803070000C1B300BC19070075
:102A000080408000042207004100370010C1B3005D
:102A1000B719070010C0B3001B2207003C003700A5
:102A200020C1B300B21907000040EB0016220700D6
:102A30003700370030C1B300AD19070010C0B30034
:102A4000082207003200370040C1B300A819070070
:102A50000040EB00032207002D00370010C3B30035
:102A6000A319070012002000210020001000200000
:102A70009F1607000040E9000AE8B700E0C1B30074
:102A80009B190700120020002100200010002000E8
:102A9000971607000040EA00614060006140600056
:102AA0004601DD00B180200091407800F0CBB300FA
:102AB00000C06000024070000BE8B7000B48A8009F
:102AC0000B88A80012003700221CA900A18020005A
:102AD0009140780030C0B300BA200700C922A90095
:102AE000C902A900C8E2A80010C0B300EF21070086
:102AF0000040EB007E1907000500370070C1B300ED
:102B00007B1907000200370080C1B3007819070065
:102B10000080FA00000006000600FA000CC8BF00A2
:102B20000080FB006101B90012079800230798009C
:102B3000C0012000010020001E019000AE019000A5
:102B4000800F5100818F5900F0003E001E00900060
:102B5000AE009000006001002A0037004E003700F0
:102B60001A0037001900370022003700CD00370067
:102B7000E6003700E5003700E4003700E3003700E7
:102B8000E2003700E1003700E0003700DF003700E7
:102B9000DE003700DD003700DC003700DB003700E7
:102BA000DA003700D9003700D8003700D7003700E7
:102BB000D6003700D500370064003700AD0037007D
:102BC000B6003700D1003700D20037000CC8BF0074
:102BD000E34F500002003A00EE7BA80001003700EE
:102BE000EE7BA900CAC2A900A0C0B300401907002B
:102BF000C8003700CAC2A800B0C0B3003C19070023
:102C0000C400370080408000E10F500008003A0007
:102C100010C0B3003619070000C0EB002301070005
:102C2000E8FBB700E8DBBF003B03070015003700F7
:102C300020C0B3002E190700804080003603070033
:102C400030C0B3002A1907000000EB0030DF880015
:102C50000800370000C0EB00140107002E03070036
:102C600000C2B3000B19070030DF80000000E8004D
:102C700030DF88008140800030DF8000808F50008E
:102C8000F4FF3E00D0C0B30002190700A0C0B3009B
:102C9000001907009F00370040C0B3001419070057
:102CA000704080001C03070080408000E10F50004E
:102CB0000E003A0070408000FC000700E8FBB700FF
:102CC000EEDBBF00684060000004E0001A00320044
:102CD00000C2B300EF18070010C0B30004190700CA
:102CE000E8DBBF000C0307001300370000462F008D
:102CF00088170700804080000703070050C0B3001A
:102D0000FB1807000000EB0030DF880006003700EA
:102D100070408000E5000700E8FBB70030DF80006E
:102D20000000E80030DF88008140800030DF800054
:102D3000808F5000F6FF3E00D0C0B300D5180700CA
:102D4000A0C0B300D31807007200370040462F0020
:102D5000861707001200200041002000100020000C
:102D6000E31507000040E9000AE8B700E0C2B3003D
:102D7000DF180700120020002100200010002000B2
:102D8000DB1507000040E900614060006141600020
:102D9000E1BE210091407800E0CFB30000C06000A8
:102DA00002407000EEFBB700F0C2B300D01807007D
:102DB000220020002100200010002000CC15070078
:102DC0000040E90061406000614060000041400057
:102DD000E1BE210091407800D0CFB30000C0600078
:102DE00002407000EEFBB70000C3B300C01807003C
:102DF000120020002100200010002000BC15070058
:102E00000040E90061406000614060004201DD0077
:102E1000E1BE210091407800B0CFB30000C0600057
:102E200002407000EEFBB700E0C1B300B01807002D
:102E3000120020002100200010002000AC15070027
:102E40000040EA0061406000614060004601DD0032
:102E5000B180200091407800F0CBB30000C060004A
:102E6000024070000BE8B7000B48A9000B88A800CF
:102E700028003700EE7BA9000AC8BF008080FB0055
:102E800020BC210000804000104078002300070093
:102E90000040EB00961807001E0037006F00070087
:102EA0001C00370071408000010F78001E0178007F
:102EB0000200E000040032009E017800E18F510022
:102EC000040032000E003700C0492F00271707000A
:102ED00010003700E04B2F002417070012002000DD
:102EE0003100200010002000811507000040E9009B
:102EF000E8FBB700E8DBBF007A00070005003700F9
:102F000070C1B3007A1807000200370080C1B30017
:102F1000771807000080FA00000006000200FA009F
:102F2000004F780041E2A9000BC8BF000044B20086
:102F30000004E00004003200CEE2A800CF02A800A6
:102F4000CEC2A80003003700CEE2A900CF02A9003C
:102F5000CEC2A900816A20009140780000CEB30063
:102F600000C060007040B300A8E6B700916C20007C
:102F70009140780000CEB30000C060007040B30004
:102F8000C9E6B700816C20009140780000CEB30004
:102F900000C060000034A000C8E6B700CAC2A800A4
:102FA000C8C2A900C902A900C8E2A800C922A90094
:102FB0001E80FB001012880042A2A800EEDBBF00BA
:102FC00061406000614060004601DD002124200076
:102FD00091407800F0CBB30000C060000240700068
:102FE00042E2B700EEDBBF000080FB000000D10032
:102FF0006140600061416000312420009140780010
:10300000E0CFB30000C060000240700043E2B700B0
:10301000EEDBBF000080FB004200DE00614060008C
:103020006140600000414000312420009140780060
:10303000D0CFB30000C060000240700043E2B70090
:103040000000EB00201288000000EB000012880056
:1030500041E2A8000080FA00000006000000FA002B
:1030600041E2A900A8C6BF00F041B300A8E6B7003E
:10307000916C20009140780000CEB30000C0600049
:10308000C9E6B700816C20009140780000CEB30003
:1030900000C06000C8E6B700CEE2A900CF02A900D8
:1030A000CEC2A9000080FA00000006000200FA006B
:1030B000004F78001E80FB004012880085C0BF00D2
:1030C000644060000004E000FCFF32004012800019
:1030D000004F78008540A9001E80FB000080FA00A8
:1030E000000006000400FA0020479800404F2F001F
:1030F0009E160700D9FF0700520007002E409000DF
:10310000E14F500008003E00CAC2BF000080FB0033
:103110004600DE0061406000804078002E40900054
:1031200080CF500008003A0041C2BF0001C8B30080
:10313000014060000004E0000E003A0041E2A800F7
:1031400061E2A8000B00370041C2BF0001C8B30014
:10315000014060000004E0000600320041E2A900E6
:1031600061E2A900D0C0B300CA170700A0C0B30035
:10317000C817070040C2BF000042B2000004E000D0
:1031800004003A0040128000004F78001E40780092
:10319000E101070060C2BF000042B2000004E0008D
:1031A00008003A0040138000004F780040512F0083
:1031B000581607001E407800D701070060512F0005
:1031C0005416070040C2BF000044B2000004E000F3
:1031D00004003A0060C2BF000044B2000004E000F6
:1031E0000500320090512F006016070040C2A90070
:1031F00060C2A9000A00370022C2BF00614060001F
:103200000004E000BDFF320030118000004F780064
:10321000D0C0B3009F170700A0C0B3009D170700E0
:10322000750007000AC8BF008080FB0020BC210099
:10323000008040001040780038FF07000080FA004E
:10324000000006000000FA00C8C2A800C902A800D9
:10325000C8E2A800C922A800816A20009140780035
:1032600000CEB30000C060009040B300A8E6B700F5
:10327000916A20009140780000CEB30000C0600049
:103280000034A000A9E6B700C16A20009140780090
:1032900000CEB30000C060007040B300ACE6B700E1
:1032A000D16A20009140780000CEB30000C06000D9
:1032B0000034A000ADE6B7000AC8BF008080FB0064
:1032C00020BC210000804000104078000080FB00FE
:1032D00010128800EEDBBF006140600061406000BA
:1032E0004601DD002124200091407800F0CBB3009E
:1032F00000C060000240700042E2B700EEDBBF0099
:103300000080FB000000D10061406000614160006E
:103310003124200091407800E0CFB30000C060006D
:103320000240700043E2B7000000EB00201288006A
:103330000000EB00001288000AC8BF008080FB007C
:1033400020BC210000804000104078000080FB007D
:1033500010138800EEDBBF00614060006140600038
:103360004601DD002126200091407800F0CBB3001B
:1033700000C060000240700062E2B700EEDBBF00F8
:103380000080FB000000D1006140600061416000EE
:103390003126200091407800E0CFB30000C06000EB
:1033A0000240700063E2B7000000EB0020138800C9
:1033B0000000EB00001388000000EB0040128800C2
:1033C0000000EB00401388004322A9006322A900FB
:1033D0004362A80042A2A9006362A80062A2A900F9
:1033E00040C2A90060C2A9004402A8006402A8006B
:1033F0000080FA00000006000000FA0041E2A90087
:103400004362A90061E2A9006362A900A8C6BF00E7
:10341000F041B300A8E6B700A9C6BF00F041B30071
:10342000A9E6B700ACC6BF00F041B300ACE6B700F8
:10343000ADC6BF00F041B300ADE6B7000080FA00B2
:10344000000006000000FA00F0542F00B11507003C
:103450000080FA00000006000400FA0010C0B3006B
:103460000AE8B700EE1BA900EE3BA800EE5BA9003E
:103470000BC8A8000AC8BF008080FB0060BC210008
:103480000080400010407800A4FE0700EDFF070018
:103490000000370022C2BF00614060000004E0006D
:1034A000FCFF320030118000EBFBB700EBDBBF000C
:1034B0000080FB004400DE00EAFBB700EADBBF004F
:1034C0000080FB00100798001E009000E30F5000E2
:1034D0006B0032001E009000E30F50000A003C0019
:1034E0001E009000E10F50003A0032001E009000D4
:1034F000E10F500054003C001E0090000000E0006E
:103500000B003200AB0037001E009000E60F5000A9
:103510006F0032001E009000E80F50007C00320067
:103520001E009000E40F500064003200A10037003C
:10353000EBDBBF000080FB00000F78001E0078006E
:10354000E10F5000100032001E007800E10F500023
:1035500004003C001E0078000000E000080032007B
:10356000190037001E007800E20F500008003200FA
:103570001E007800E30F50000C00320012003700EC
:10358000B6FE07008E003700AEFF0700C1FF370010
:1035900060168000F1FB2F000100600060168800BB
:1035A00010C0B300BB160700BAFF370060168000DA
:1035B00001042000010070006016880010C0B300F4
:1035C000B4160700B3FF37000040EB00B116070048
:1035D000B0FF3700B1BE210091407800F0C0B300C9
:1035E00000C06000EBFBB700EBDBBF000040E80071
:1035F000EBFBB70010C0B300A61607000040EB00BD
:10360000E9FBB7000A00370022C2BF00614060003A
:103610000004E000FCFF320030118000A3FE070030
:103620009C160700E9DBBF000040E800E9FBB7009B
:1036300091BE210091407800EBDBBF0080CF5000AD
:10364000F1FF390093FF3700B1BE210091407800AF
:10365000F0C0B30000C06000EBFBB700C1BE2100AA
:1036600091407800EBDBBF0000C07000ECFBB700BE
:10367000ECDBBF008DFE07008616070085FF3700D4
:10368000C1BE210091407800F0C0B30000C06000CE
:10369000ECFBB700EBDBBF000080FB004400DD006B
:1036A00080407800ECDBBF0000C07000ECFBB7008E
:1036B00010C0B3007716070076FF3700EBDBBF00C2
:1036C0003921070010C0B3007216070071FF3700E0
:1036D000B1BE21009140780070C0B30000C060000E
:1036E000EBFBB700EBDBBF000AE8B7000AC8BF007E
:1036F0008080FB0060BC210000804000104078000A
:1037000006FE070010C0B3006216070061FF370015
:10371000EE1BA900EE3BA900EE5BA9000BC8A900B7
:10372000EBDBBF000080FB004200DE0061006000B8
:103730000004E00001003200EE1BA800EBDBBF003C
:103740000080FB000000D100610060000004E00088
:1037500001003200EE3BA800EBDBBF000080FB0065
:10376000610060000004E00001003200EE5BA80090
:10377000EBDBBF000080FB004300DE000000A20086
:10378000610060000004E000010032000BC8A800E6
:103790000AC8BF008080FB0060BC210000804000A0
:1037A00010407800DDFD070010C0B3003916070097
:1037B00038FF37000040EB003616070035FF3700B2
:1037C0000080FA00000006000000FA000BC8A90003
:1037D0000040EB000AE8B7000B28A9000B08A9007D
:1037E0000B48A9000B68A9000B88A9000BA8A90029
:1037F0000BE8A9000080FA00000006000000FA00B3
:10380000C922A800C902A800C8E2A800C8C2A8002E
:10381000C942A800C222A900C022A9000000EB00F2
:1038200020408800E8FF0700CB62A900C962A90018
:10383000C002A900C202A9002D23A9002D43A9009E
:103840002D63A9002D83A90001322000914078004A
:1038500000CEB30000C0700020E3B7000000EB0012
:103860008019880020F02100201988000000EB005A
:10387000101988000080FA00000006000200FA001B
:10388000004F78001E80FB00401988002023A8000C
:103890002003A90020C3BF00614060000004E000D5
:1038A000FCFF3200001880000080FA0000000600D3
:1038B0000000FA0021E3A800C0C0B300EFFF07003A
:1038C000B915070021E3A9000080FA0000000600F6
:1038D0000000FA0000C8BF000080FB00800040002C
:1038E00020BA2100008040001000780040118800BC
:1038F0000000EB00001188002062A8000000EB002F
:103900001011880021E2A8002342A8008560A900C8
:103910000080FA00000006000400FA00004F780062
:1039200010408000100798001E009000E10F50002A
:103930000D0032001E009000E10F5000070039001A
:103940001E009000E20F50000A0032001E0090009E
:10395000E30F50000A0032000B0037001E80FB000E
:103960005D150700080037001E4078002915070084
:10397000050037001E40780096140700020037004B
:103980001E407800C31507000080FA000000060002
:103990000600FA00404798000040EB0020479800DE
:1039A0000E0037000000EB00000F78000500370024
:1039B000A0CFB3000F0007001E0078000000E80051
:1039C000000F78001E007800E30F5000F8FF36006B
:1039D0002E4090000040E80020479800AE40900044
:1039E0004E40900080CF5000EEFF39000080FA007A
:1039F000000006000400FA00204798000040EB0099
:103A0000004F7800130037000000000000000000A5
:103A100000000000000000000000000000000000A6
:103A20000000000000000000000000000000000096
:103A30000000000000000000000000000000000086
:103A400000000000000000001E4078000040E80078
:103A5000004F78009E4078002E40900080CF5000AC
:103A6000E9FF39000080FA00000006000600FA00B5
:103A7000B4DBBF00E14F500030003A0000C2B30099
:103A8000841507000CC8BF00E34F50000600320049
:103A90000CC8BF00E24F5000030032000CC8BF004A
:103AA000E44F50000F003A0070C0B30090150700BB
:103AB000D0C0B30077150700A0C0B300751507008C
:103AC000B5DBBF000004E00003003A0010C0B30003
:103AD000C01D07001700370010C0B3003C020700EC
:103AE000140037000CC8BF00FC4F500003003A0020
:103AF000E0122F001D1407006701370060C0B300FB
:103B00007B150700D0C0B30062150700A0C0B3004A
:103B100060150700B5DBBF000004E00003003A00B9
:103B20000040EB00AB1D0700020037000040EB0037
:103B3000270207000040EB00B4FBB7000CC8BF0031
:103B40000080FB006101B90012079800230798006C
:103B5000C0012000010020001E019000AE01900075
:103B6000800F5100818F590049013E001E009000D6
:103B7000AE009000006001001C00370059003700C3
:103B80008A0037008900370091003700D5003700E0
:103B90003F0137003E0137003D0137003C0137004F
:103BA0003B0137003A01370039013700380137004F
:103BB000370137003601370035013700340137004F
:103BC000330137003201370031013700300137004F
:103BD0002F0137002E01370086003700AA0037007A
:103BE000B90037002A0137002B01370080408000E0
:103BF000E10F50000D003A0010C0B3003C15070063
:103C0000B5DBBF000004E00003003A00301D0700F0
:103C1000B6FBB700020037000A020700B6FBB70088
:103C2000B6DBBF003CFF07002B00370020C0B3000D
:103C30002F1507008040800037FF070030C0B30019
:103C40002B1507000000EB00C0DD88001E003700C8
:103C5000C0DD80000000E0000E00320000C2B300B2
:103C60000C15070060C0B3002115070000C2B300A7
:103C700008150700B5DBBF000004E00003003A00B0
:103C80000040EB00531D0700020037000040EB002E
:103C9000CF010700B5DBBF000004E00003003A00DD
:103CA0000B1D0700B6FBB70002003700E501070057
:103CB000B6FBB700B6DBBF0017FF0700C0DD800012
:103CC0000000E800C0DD880081408000C0DD800089
:103CD000808F5000DEFF3E0010C0B300B4FBB70081
:103CE000ED00370040C0B3000115070070408000B0
:103CF00009FF070080408000E10F500006003600F9
:103D0000E0132F00831307008040800002FF0700AC
:103D100050C0B300F61407000000EB00C0DD8800BF
:103D20000F003700B5DBBF000004E00005003A00DB
:103D300070408000B51C0700151D0700B6FBB700DA
:103D40000400370070408000B401070099010700AB
:103D5000B6FBB700C0DD80000000E800C0DD8800D1
:103D600081408000C0DD8000808F5000EDFF3E006C
:103D700000C2B300C7140700B6DBBF000004E000B8
:103D800003003A0060C0B300D914070002003700F6
:103D900070C0B300D6140700D0C0B300BD14070034
:103DA000A0C0B300BB140700BB003700B5DBBF00E9
:103DB0000004E00002003A00251C07000100370063
:103DC0006C01070080C0B300C9140700B2003700BF
:103DD000B5DBBF000004E00002003A002F1C070022
:103DE000010037006B01070090C0B300C01407004A
:103DF000A90037000BC8A8000B88A80020142F00CA
:103E00005A1307001200200021002000100020009B
:103E1000B71107000040E900B5FBB700B5DBBF00F4
:103E20000004E00009003A0010C3B300B01407001A
:103E3000120020002100200010002000AC1107001B
:103E40000040E9000AE8B7009300370041408000D5
:103E500030002300808F500002003E0080162F00AB
:103E600042130700E0192F00401307001200200042
:103E700031002000100020009D1107000040E900E3
:103E80000AE8B70084003700B5DBBF000004E0009B
:103E900009003A00C922A800C902A800CB02A90063
:103EA000CB22A900A18020009140780020C0B3005F
:103EB000C41B0700010037006D0107000040EB0044
:103EC0008B140700740037000040EB00B4FBB70010
:103ED000B5DBBF00E14F50006F003A0007E2A900D8
:103EE0006D00370071408000010F78001E017800DE
:103EF000E10F51000A0032009E017800E18F51006D
:103F0000040039001E007800E20F50004B00320020
:103F10005C003700B01C2F00141307005E00370050
:103F2000101F2F00111307000000EB00C0DD8800F8
:103F300039003700B5DBBF000004E00006003A009E
:103F4000C31B0700C0DD8000301C0700901C070069
:103F5000B6FBB7000500370006010700C0DD800092
:103F60002E01070013010700B6FBB700B6DBBF0048
:103F70000004E0001F003A00C0DD800066FE07007C
:103F800080C2B30043140700C0DD80000000D100F0
:103F900061FE0700C0DD80000000A200610060003B
:103FA0000004E00003003200A0222F00D912070015
:103FB0000C003700B5DBBF000004E00004003A004D
:103FC000431C070010C0B300821C07000300370029
:103FD0001C01070010C0B300FD000700D0222F0015
:103FE000CC12070000232F00CA12070000C2B30042
:103FF00028140700B5DBBF000004E00002003A000F
:10400000A61B070001003700E2000700C0DD8000AA
:104010000000E800C0DD8800C1DD8000F00F200056
:10402000808F5000C3FF3600D0C0B30019140700C2
:10403000A0C0B3001714070017003700B5DBBF009E
:104040000004E0000F003A0020232F00C7120700F1
:10405000130007003500070022C2BF006140600066
:104060000004E000FBFF320030118000C0DD88005A
:10407000D0C0B30007140700A0C0B30005140700A8
:104080000500370070C1B3001914070002003700A3
:1040900080C1B300161407000080FA00000006007B
:1040A0000000FA00C922A800C902A800CB02A9009A
:1040B000CB22A90062A0A80062C0A8008660A90067
:1040C0000000EB00D0DD88000040EB00C1FBB70032
:1040D000CBC2BF000080FB000000D1006140600047
:1040E0006141600001BC210091407800E0CFB30045
:1040F00000C0600002407000C0FBB700CBC2BF0030
:1041000061406000614060004201DD0001BC2100AF
:1041100091407800B0CFB30000C060000240700052
:10412000C0FBB7000080FA00000006000400FA009F
:1041300086C0BF00684060000004E0008B003200D1
:10414000CBC2BF000080FB000000D10061406000D6
:10415000614060000041400001BC210091407800B6
:10416000D0CFB30000C0600002407000C0FBB700B9
:10417000CBC2BF0061406000614060004301DD00D0
:1041800001BC21009140780070CFB30000C06000F6
:1041900002407000C0FBB7008660A900C0DBBF0012
:1041A000644060000004E00022003200C0DBBF0079
:1041B000684060000004E0001E003200C0DBBF0069
:1041C000614060000004E0000B003200C0DBBF0073
:1041D000624060000004E00007003A002000200078
:1041E000D0DD88000040EB00C1FBB700B0C5B300D4
:1041F000A813070046003700C0DBBF006140600025
:104200000004E00042003A00C0DBBF0062406000F2
:104210000004E0003E0032000000EB00D0DD88002A
:104220000040EB00C1FBB700D0C5B30099130700F5
:1042300037003700C0DBBF00644060000004E000CE
:1042400033003A00C0DBBF00684060000004E000BB
:104250002F003200D0DD8000100798001E00900073
:10426000E20F5000040032001E009000E30F5000E7
:104270001700320026003700BCDBBF0000404000C2
:10428000BCFBB700C0DBBF000080FB000000D1001A
:104290006140600080407800BCDBBF0000C040008F
:1042A000BCFBB700C1DBBF000040E800C1FBB700AA
:1042B000C1DBBF00E84F500015003A000040EB00A2
:1042C000C1FBB70030002000D0DD880010003700AF
:1042D000CBC2BF000080FB000000D1006140600045
:1042E000004F7800BCDBBF008BFD07001E04E00020
:1042F00003003200D0C2B30066130700020037008B
:10430000B0C2B3006313070020002000D0DD880096
:10431000C0DBBF000080FB000000D10061406000F6
:104320006141600001BC210091407800E0CFB30002
:1043300000C0600002407000C0FBB700C0DBBF00DF
:104340000080FB004300DE006140600061406000CF
:104350004201DD0001BC210091407800B0CFB300E4
:1043600000C0600002407000C0FBB7000080FA008F
:10437000000006000000FA000602A80006C2BF0006
:10438000614060000004E000FCFF3A000080FA0099
:10439000000006000000FA000642A80006C2BF00A6
:1043A000644060000004E000FCFF3A000080FA0076
:1043B000000006000000FA0009C2BF000080FB00F8
:1043C0004700DE000080FB000080FA0000000600CD
:1043D0000200FA00004F78009E40780061C0600043
:1043E000614060004501DD006120200091407800BF
:1043F000F0CDB30000C060000240700006E2B700DC
:104400000682A80006C2BF00704060000004E00001
:10441000FCFF3A000080FA00000006000200FA00EB
:10442000004F78001E40780002E2B70009C2BF00CA
:104430000044B2000004E000FCFF3A000080FA00F3
:10444000000006000200FA000662A80006C2BF00D3
:10445000684060000004E000FCFF3A0000C2BF00BA
:10446000004F78001E80FB000080FA00000006006C
:104470000000FA000742A9000782A9000000EB0033
:10448000501088000000EB00601088000702A900AF
:104490000AC8BF008080FB0040C3210000804000AC
:1044A000104078000080FB002010880007E2A80080
:1044B0000080FA00000006000000FA0090252F009E
:1044C000941107000080FA00000006000400FA00C2
:1044D000C922A800C902A800CB02A900CB22A900CA
:1044E000C8C2A9000BC8A8000B68A90011C0B3007E
:1044F00020C0B300331A0700EFFF070000003700A9
:1045000022C2BF00614060000004E000FCFF3200F6
:1045100030118000BFFBB700BFDBBF000080FB0095
:104520004400DE00BEFBB700BEDBBF000080FB0026
:10453000100798001E009000E10F50004500320067
:104540001E009000E10F500004003C001E0090008F
:104550000000E000080032006D0037001E009000EF
:10456000E40F5000650032001E009000E60F50007E
:104570005600320066003700BFDBBF000080FB0042
:10458000000F78001E007800E30F50001D0032007D
:104590001E007800E30F50000A003C001E00780067
:1045A000E10F5000110032001E007800E10F5000B2
:1045B00010003C001E0078000000E00057003200B0
:1045C000210037001E007800E60F50001400320072
:1045D0001E007800E70F5000160032001E00780021
:1045E000E40F50000B00320017003700B2FF070045
:1045F000C3FF3700161A070010C0B300A51207004A
:10460000BFFF3700251A070010C0B300A112070032
:10461000BBFF3700AE1A07009E120700B8FF370035
:104620000040EB00EB1A070010C0B300991207001E
:10463000B3FF370010C0B300E61A070010C0B30084
:1046400094120700AEFF37000040EB009112070004
:10465000ABFF3700F1BB210091407800F0C0B30000
:1046600000C06000BFFBB700BFDBBF000040E80038
:10467000BFFBB70010C0B300861207000040EB007C
:10468000BDFBB7000B00370022C2BF0061406000D5
:104690000004E000FCFF3200301180005B1A0700CC
:1046A000BB1A07007B120700BDDBBF000040E8001B
:1046B000BDFBB700D1BB210091407800BFDBBF003C
:1046C00080CF5000F0FF39008DFF3700F1BB210093
:1046D0009140780010C0B30000C06000BFFBB7007D
:1046E000F1BB21009140780020C0B300B51907004C
:1046F00010C0B3006712070081FF3700BFDBBF00A7
:10470000291D070010C0B300621207007CFF3700AC
:104710000040EB005F12070079FF37000080FA00CD
:10472000000006000600FA000CC8BF000080FB0075
:104730006101B9001207980023079800C00120000A
:10474000010020001E019000AE019000800F51007A
:10475000818F590032013E001E009000AE00900093
:10476000006001004E003700700037003C00370049
:104770004100370046003700BC0037008E0037008C
:1047800098003700A2003700A8003700AB003700C0
:10479000AE003700B100370021013700200137009B
:1047A0001F0137001E0137001D0137001C013700B3
:1047B0001B0137001A0137001901370018013700B3
:1047C00017013700040037002100370016013700B9
:1047D0001301370014013700E0C1B3004412070091
:1047E000120020002100200010002000400F0700D0
:1047F0000040E900614060006141600081BF21002C
:1048000091407800E0CFB30000C06000024070002B
:10481000F8FBB700F8DBBF006140600000C0EA00B1
:1048200061406000614060004601DD00B180200011
:1048300091407800F0CBB30000C0600002407000EF
:104840000BE8B7000B48A8000B88A800F60037005B
:10485000860107000040EB0025120700F200370038
:10486000F300070020C0B3004301070080A12E0021
:10487000BE100700EC003700ED00070030C0B300A9
:104880003D01070020A42E00B8100700E600370005
:10489000E7000700A0A62E00B4100700E2003700D2
:1048A00080408000E10F500007003A00E00107005F
:1048B000F6FBB70010C0B3000D120700F6DBBF0017
:1048C00015FC07001400370020C0B30008120700D1
:1048D0008040800010FC070030C0B30004120700C5
:1048E0000000EB00A0DF880007003700D0010700C0
:1048F00009FC070000C2B300E6110700A0DF80003A
:104900000000E800A0DF880081408000A0DF800078
:10491000808F5000F5FF3E00D0C0B300DD110700CE
:10492000A0C0B300DB110700BF00370040C0B300D8
:10493000EF11070070408000F7FB07008040800007
:10494000E10F500004003A0070408000520107005F
:10495000F6FBB7001300370070A72E006D1007009C
:1049600080408000ECFB070050C0B300E01107005E
:104970000000EB00A0DF88000600370070408000D8
:1049800045010700F6FBB700A0DF80000000E8004B
:10499000A0DF880081408000A0DF8000808F500071
:1049A000F6FF3E00D0C0B300BA110700A0C0B300AC
:1049B000B81107009C003700E1010700F6FBB700C3
:1049C000D0C0B300CA110700F6DBBF004A100700D1
:1049D000D0C0B300AF110700A0C0B300AD110700F5
:1049E00091003700E0C0B300C1110700DE010700ED
:1049F000F6FBB700F6DBBF003F100700D0C0B300E6
:104A0000A4110700A0C0B300A21107008600370060
:104A100080408000C0FB070000C1B300B411070054
:104A200080408000F90107007F00370010C1B3000B
:104A3000AF110700020207007B00370020C1B3005E
:104A4000AB110700170207007700370030C1B30031
:104A5000A7110700CB0107007300370040C1B30066
:104A6000A3110700E20107006F00370071408000CA
:104A7000010F78001E017800E10F51000D00320097
:104A80009E017800E18F5100070039001E00780078
:104A9000E20F50000C0032009E007800E38F5000BF
:104AA000550032005B003700B0A72E001910070038
:104AB0005D003700A700070080AC2E002B10070018
:104AC0005B0007005800370060AD2E00271007007C
:104AD000A000070080AC2E0024100700A9010700E9
:104AE0005300070020C0B300A300070000C0EB0084
:104AF000C601070000C0EB00C40107004C0007001E
:104B000030C0B3009C0007000000EB00A0DF88006D
:104B100007003700A0DF80000000E800A0DF880069
:104B2000A1DF8000900F2000808F500003003E0026
:104B3000830107000004E000F6FF32003C0007009C
:104B40008400070080AC2E00081007003800070022
:104B500030C0B30088000700A0DF80006EFB0700B4
:104B600060AE2E00011007000040EB00F6FBB7001E
:104B70001A003700F6DBBF000040E80066FB0700C4
:104B8000F0AF2E00E30F07002901070062FB0700CA
:104B900000C2B3003F110700250107005EFB0700BC
:104BA00000C2B3003B110700210107005AFB0700B8
:104BB00000C2B300371107001D01070056FB0700B4
:104BC000D0C0B30033110700A0C0B30031110700FB
:104BD000F6DBBF000040E800F6FBB700F6DBBF00E5
:104BE0008080FB00A0DF8000808F5000E1FF390053
:104BF0000F0007000C00370030B02E00DB0F07005D
:104C000060B42E00D90F0700B0B72E00D70F0700F1
:104C10000500370070C1B3003511070002003700EE
:104C200080C1B300321107000080FA0000000600C6
:104C30000200FA0060BA2E00B60F0700F0DBBF00DA
:104C40000080FB00000F78001E007800E10F50008C
:104C50000E0032001E007800E10F500004003C00FE
:104C60001E0078000000E0000B0032003500370025
:104C70001E007800E20F50000F0032001E00780086
:104C8000E30F5000240032002E003700F0BA2E004F
:104C9000B60F07002D003700A401070010C0B300B5
:104CA0005A01070010C0B300F0FBB700C0BB2E00D4
:104CB000AE0F070025003700F1DBBF00E14F5000C9
:104CC0000A003A00F2DBBF00E14F500002003A0058
:104CD0002C01070001003700450107000040EB00F0
:104CE000F1FBB70080BC2E008A0F0700740107009B
:104CF00020C0B300450107008C01070010C0B300BD
:104D00004201070010C0B300F0FBB700D0BD2E0079
:104D1000960F07000D0037006901070020C0B3009F
:104D20003A0107008101070010C0B30037010700F6
:104D300010C0B300F0FBB70060BE2E008B0F070061
:104D400002003700F0BE2E00880F07000080FA0036
:104D5000000006000000FA0059010700A0C0B300DF
:104D60002A010700710107000040EB00F0FBB700CB
:104D70000080FA00000006000400FA00004F7800EE
:104D8000F0DBBF00E14F500002003200D0BF2E0028
:104D9000760F070060BA2E005E0F07001E80FB0032
:104DA000100798001E009000E10F50000E00320026
:104DB0001E009000E10F500004003C001E00900017
:104DC0000000E0000B003200240037001E009000BD
:104DD000E20F5000160032001E009000E30F50005A
:104DE000080032001D003700F0BA2E005F0F0700E8
:104DF0001C003700D7FF070090C12E005B0F070093
:104E0000180037002E01070010C0B300FF00070094
:104E10004601070020C0B300FC00070030C0B3000B
:104E2000F0FBB700F0C12E00500F07000D00370057
:104E30002301070020C0B300F40007003B01070076
:104E400020C0B300F100070020C0B300F0FBB700A2
:104E500030C32E00450F07000200370080C62E0029
:104E6000420F07000080FA00000006000000FA0070
:104E7000C8E2A800C902A900C922A900C8C2A900A5
:104E8000CAE2A900CB02A900CB22A900CAC2A9008C
:104E90000080FA00000006000800FA004047980071
:104EA00000010700F1DBBF00E14F500006003A00AF
:104EB000F2DBBF00910007000040EB00F1FBB70000
:104EC00020C82E00290F07000BC8BF0068406000F3
:104ED0000004E0000300320010C0B300004F78006F
:104EE0000200370000C8B300004F78000040EB001C
:104EF00030479800450037004E4090001E4060004B
:104F00000004E00002003A00B90007000100370089
:104F10009C000700CA000700CAC2BF000080FB0057
:104F20004700DE00204798000BC8BF0068406000C3
:104F30000004E000100032004E4090000080FB00B2
:104F40000000D100404798001E4090000080FB0008
:104F50000000D100104798002E409000E14F500013
:104F600011003A001E40900001C8B300014040000B
:104F7000104798000C0037004E4090000040400061
:104F8000404798001E4090000040400010479800A5
:104F90002E409000E14F500003003A001E40900068
:104FA0000040E80010479800BE000700F0DBBF009B
:104FB000E24F500012003A003E409000E64F500091
:104FC0000F003A0010C0B300F1FBB7004E40900054
:104FD0001E4060000004E00003003A000040EB00C7
:104FE000F2FBB7000200370010C0B300F2FBB700BD
:104FF0001E4090000080FB00300798000900370039
:105000003E4090000040E800304798003E4090004D
:10501000E74F5000B8FF36001E4090000080FB00B4
:10502000300798003E0090000080FA000000060063
:105030000400FA009B000700F1DBBF00E14F5000C5
:1050400006003A00F2DBBF002C0007000040EB0036
:10505000F1FBB70020C82E00C40E07000040EB0093
:10506000204798001F00370075000700CAC2BF0024
:105070000080FB004700DE00104798000BC8BF000F
:10508000684060000004E00008003A001E4078001C
:1050900000404000004F78001E4090000004E000F7
:1050A0000C0032001E4FE8000A0037001E80FB0093
:1050B0000000D100004F78001E4090000004E00086
:1050C000040032001E40780001C8B30001404000D7
:1050D000004F7800730007002E4090000040E80069
:1050E000204798002E409000E74F5000DEFF36002A
:1050F0001E80FB000080FA00000006000400FA0099
:10510000204798002E4090000004E00002003A0082
:1051100037000700010037001A00070048000700A9
:10512000CAC2BF000080FB004700DE00004F7800CD
:105130005C0007001E80FB000080FA0000000600F3
:105140000200FA003E000700CAC2BF000080FB0058
:105150004700DE00004F7800520007001E80FB0071
:105160000080FA00000006000000FA00CAC2BF007A
:105170000080FB004700DE000080FB000080FA009A
:10518000000006000000FA00F8DBBF00614060008C
:1051900000C0EA00614060006140600000414000E2
:1051A000912C200091407800D0CFB30000C0600067
:1051B00002407000C9E2B700F8DBBF006140600048
:1051C0006140600000414000B12C20009140780017
:1051D000D0CFB30000C0600002407000CBE2B70047
:1051E00040C1B30003FA07000080FA000000060087
:1051F0000000FA00CB22A900C922A90040C1B300D7
:10520000FCF907000080FA00000006000400FA0024
:10521000204798000040EB00004F78000300370063
:10522000070007001F0007001E4FE8002E409000F7
:105230009E4F1000FAFF39000080FA0000000600BF
:105240000000FA00F8DBBF006140600000C0EA0027
:105250006140600061416000912C20009140780025
:10526000E0CFB30000C0600002407000C9E2B700A8
:10527000F8DBBF006140600061416000B12C20009C
:1052800091407800E0CFB30000C0600002407000A1
:10529000CBE2B70040C6B300D6F907000080FA00A1
:1052A000000006000000FA00CB02A900C902A90014
:1052B00040C6B300CFF907000080FA0000000600E6
:1052C0000000FA00F8DBBF006140600000C0EA00A7
:1052D00061406000614060004601DD00812C2000DB
:1052E00091407800F0CBB30000C060000240700035
:1052F000C8E2B700F8DBBF006140600061406000B9
:105300004601DD00A12C200091407800F0CBB300D5
:1053100000C0600002407000CAE2B70040C1B300A4
:10532000B4F907000080FA00000006000000FA004F
:10533000CAC2A900C8C2A90040C1B300ADF90700A4
:105340000080FA00000006000200FA00F0C2B3007C
:10535000104798000040EB00004F7800C922A800D9
:10536000CB22A900C922A90005003700A0C0B300C4
:10537000A0F907001E4090000040E9001047980087
:105380001E4090000004E000F8FF3C00C922A80085
:10539000C0C3B30097F90700CBC2BF000080FB0079
:1053A0000000D1006140600038FCB70090C2B3003B
:1053B0001047980005003700A0C0B3008DF9070022
:1053C0001E4090000040E900104798001E409000E9
:1053D0000004E000F8FF3C00CBC2BF000080FB00EF
:1053E0000000D1006140600039FCB70039DCBF002B
:1053F0000004E00002003A0010C0B300004F780043
:1054000038DCBF00E14F500003003A001E40780036
:1054100000C0E800004F7800A0C0B30075F9070095
:105420001E80FB000080FA00000006000400FA0065
:105430002047980080C0B300004F78001D0037005F
:105440002E409000614060003AFCB700CB22A900DA
:10545000C922A90050C0B30066F907003ADCBF00BA
:10546000614060006140600000414000912C2000DC
:1054700091407800D0CFB30000C0600002407000BF
:10548000C9E2B70020C3B3005AF9070050C0B30007
:1054900058F90700C922A800A0C0B30055F90700B9
:1054A0002E4090000080FB000000D10020479800B3
:1054B0001E4FE9001E04E000E1FF3C00A0C0B30065
:1054C0004CF907000080FA00000006000200FA0014
:1054D000004F7800CB22A900C922A90050C0B30018
:1054E00044F907009E40780061C0600061406000A0
:1054F00000414000912C200091407800D0CFB300B3
:1055000000C0600002407000C9E2B70020C3B300D1
:1055100038F9070050C0B30036F90700C922A800C7
:10552000A0C0B30033F907000080FA0000000600B5
:105530000200FA0080C0B300104798000040EB0062
:10554000004F78001D003700CB22A900C922A90016
:1055500030C0B30027F90700C922A80050C0B3002B
:1055600024F90700CBC2BF000080FB000000D1007F
:10557000614060003AFCB70040C3B3001DF907006A
:105580001E80FB000000D100004F78003ADCBF0015
:10559000E14F500004003A001E40780001C8B300FB
:1055A00001404000004F7800A0C0B30011F907008F
:1055B0001E4090000040E900104798001E409000F7
:1055C0000004E000E0FF3C00A0C0B30009F90700C0
:1055D0001E80FB000080FA00000006000000FA00B8
:1055E000CB22A900C922A90030C0B30001F90700ED
:1055F000C922A80050C0B300FEF80700CBC2BF000C
:105600000080FB000000D100614060003AFCB70060
:1056100040C3B300F7F80700A0C0B300F5F80700D7
:105620003ADCBF000080FB000080FA0000000600AA
:105630000800FA0020079800310798000040EB00AE
:10564000004F78000000EB00100798000C003700B6
:105650001E009000800078002E0090000080400026
:10566000104078001E4068008080FB0000362F004C
:10567000614F78001E0090000000E80010079800BD
:105680009E0090003E009000808F5000F0FF35009B
:105690001E80FB000080FA00000006000600FA00F1
:1056A000881F78000CC8BF000080FB006101B900B2
:1056B0001207980023079800C00120000100200075
:1056C0001E019000AE019000800F5100818F5900A3
:1056D000C3013E001E009000AE009000006001007B
:1056E0001C00370040003700600037005F003700C3
:1056F000BB0137009F0037005E003700B80137005C
:1057000065003700B6013700B50137007700370074
:1057100076003700B2013700B1013700B001370021
:10572000AF013700AE013700AD013700AC013700E3
:10573000AB013700AA013700A9013700A8013700E3
:105740007D00370080003700A7013700A401370033
:10575000A501370080408000E10F500007003A00AB
:1057600010C0B300620E070071FF070003FBB70013
:1057700003DBBF0068F807001600370020C0B30045
:105780005B0E07008040800063F8070030C0B30064
:10579000570E07000000EB0000D888000900370012
:1057A00063FF070003FBB70003DBBF005AF80700E5
:1057B00000C2B300370E070000D880000000E800E8
:1057C00000D888008140800000D88000808F500081
:1057D000F3FF3E00D0C0B3002E0E0700A0C0B30000
:1057E0002C0E07008001370040C0B300400E0700B8
:1057F0007040800048F8070080408000E10F5000B2
:1058000003003A007040800008FF070012003700D4
:10581000006E2E00BF0C0700804080003EF807009D
:1058200050C0B300320E07000000EB0000D8880023
:105830000500370070408000FCFE070000D88000A3
:105840000000E80000D888008140800000D8800077
:10585000808F5000F7FF3E00D0C0B3000D0E070050
:10586000A0C0B3000B0E07005F0137006101070005
:105870005D01370059FF070003FBB700D0C0B3003C
:105880001B0E070003DBBF009B0C0700F0C0B3003A
:10589000170E070054013700804080001EF80700F3
:1058A000406E2E009B0C07000000EB0000D8880023
:1058B00005003700F6DABF0004FF070000D88000BB
:1058C0000000E80000D888008140800000D88000F7
:1058D000808F5000F7FF3E00F6DABF00860C07000D
:1058E000406F2E00A10C07003F013700606F2E00B3
:1058F000880C07000CC8BF00EC4F500005003A00B0
:105900000040EB00F6FAB7000040EB007A0C07000D
:105910000400370010C0B300F6FAB70010C0B3009F
:10592000750C070020702E00900C0700F6DABF00FF
:10593000E6FE07002C0137000B48A9000B88A800E1
:105940000BC8A800280137000040EB0008FBB70097
:10595000C922A800CB22A900D0722E00830C070018
:10596000E0752E00810C07000040EB00E00D070001
:105970001D013700704080000000E000360032005A
:105980007140800020032000808F500032003E00D4
:10599000704080000000E900704088007140800085
:1059A00008DBBF000080FB00808F5000030039003F
:1059B00080782E006D0C07000B013700207B2E0035
:1059C000540C0700704080000040E800110D0700F3
:1059D000107C2E004F0C07000040EB0002FBB700CC
:1059E000170037007240800002DBBF008080FB00A0
:1059F0004310DD008100400090B021000080400095
:105A000010407800C4F7070000C2B300A10D0700E2
:105A10007240800002DBBF008080FB004310DD008D
:105A20008100400090B021000080400010407800CC
:105A30007EFE070002DBBF000040E80002FBB7006B
:105A400002DBBF00E74F5000E6FF3600407C2E002F
:105A5000460C0700E400370071408000010F780019
:105A6000500520001E017800800F5100CD0032004B
:105A7000500520009E017800808F510008003E00F4
:105A80001E0078000000E000120032003003200009
:105A90009E007800808F5000A0003200CD003700BB
:105AA000C00E20001E017800800F51004600320019
:105AB000000F20009E017800808F510042003200CC
:105AC000C00C20009E007800808F5000BB00320088
:105AD000C0003700607C2E00240C0700407D2E00A3
:105AE000220C070008DBBF000004E00003003A00BE
:105AF00080782E001D0C0700300037000040EB00BE
:105B000003FBB7002800370000C2B300610D070097
:105B100003DBBF000040E800BE0C0700C07E2E0083
:105B2000FC0B07000040EB0002FBB7000F00370042
:105B300003DBBF000081FB0002DBBF008080FB00B5
:105B40004310DD008100400090B021000080400043
:105B50001040780070F7070000C2B3004D0D070039
:105B600002DBBF000040E80002FBB70002DBBF0021
:105B7000E74F5000EEFF3600E07E2E00E50B0700F9
:105B800003DBBF000080FB00C300DD0090B02100FC
:105B90000080400010407800B700070003DBBF0022
:105BA0000040E80003FBB70081B02100914078007D
:105BB00003DBBF0080CF5000D3FF3E00507F2E009C
:105BC000EA0B0700880037007040800042F9B700F8
:105BD00071408000C00E2000808F500003003A000A
:105BE000908C2E00E10B070002003700D08D2E00B4
:105BF000DE0B0700407D2E00DC0B07000040EB00B1
:105C000002FBB700CB00070003FBB7000040EB002E
:105C100008FBB7003B00370000C2B3001D0D0700B2
:105C200002DBBF000040E8007A0C0700C07E2E00B7
:105C3000B80B07000000EB0000D888000A0037000E
:105C400001D8800090B5210000804000104078000D
:105C500031F7070000C2B3000E0D070000D8800026
:105C60000000E80000D8880000D88000E70F50004E
:105C7000F3FF3600E07E2E00A60B070059DBBF00C5
:105C80007D00070002DBBF00E94F500018003E0016
:105C90000000EB0000D888000F00370008DBBF00D1
:105CA0008081FB0004D8800001D8800090B52100DD
:105CB00000804000104178004318DD00840040005F
:105CC00090B02100008040000248780000D8800099
:105CD0000000E80000D8880000D88000E70F5000DE
:105CE000EEFF360008DBBF000040E80008FBB7000D
:105CF00002DBBF000040E80002FBB700980007008D
:105D000003FBB70003DBBF000004E000C2FF3A0062
:105D1000B08E2E00950B07003300370035000700CA
:105D200070912E007B0B070030C3B300BFFD07004E
:105D30000000EB0000D888001000370008D8800071
:105D4000FBFD07008040780070AF21000000440098
:105D50000148780001D8800070AF21000080400029
:105D600010407800ECF6070000C2B300C90C070031
:105D700000D880000000E80000D8880000D880002B
:105D8000E70F5000EDFF3600D0C0B300C10C070094
:105D9000A0C0B300BF0C0700F7DABF003600070051
:105DA000110037001300070090922E006F0B0700C0
:105DB00050C5B3009DFD07000B0037000D00070024
:105DC000A0932E00690B0700C0CCB30097FD07001D
:105DD0000500370070C1B300C50C07000200370092
:105DE00080C1B300C20C07004F0478000080FA00A5
:105DF000000006000200FA0053FD0700004F780083
:105E0000A0942E00430B07001E04E00003003A009C
:105E100050952E00550B07001500370080952E0079
:105E20003C0B07001E80FB00610060000004E000E6
:105E30000200320000962E00360B07001E80FB0089
:105E40000000D100610060000004E00002003200A8
:105E500060972E002F0B0700B0982E002D0B070027
:105E60001E407800ACF60700406F2E003F0B070085
:105E70000080FA00000006000400FA00004F7800DD
:105E80001E80FB0010079800200220009E0090005A
:105E9000808F50001A003200200220009E009000E7
:105EA000808F500007003C001E009000E40F50005F
:105EB000160032009E009000F08F50000A00320061
:105EC00018003700800220009E009000808F500054
:105ED00008003200D00220009E009000808F500009
:105EE0000D0032000F003700D0982E001F0B070066
:105EF0000E003700909A2E001C0B07000B00370095
:105F0000409C2E00190B070008003700A09D2E00B2
:105F1000160B070005003700309F2E00130B0700FB
:105F20000200370040A02E00100B07000080FA008E
:105F3000000006000000FA000040EB0061FBB70023
:105F40000040EB0063FBB7000040EB0062FBB700D2
:105F5000080007000080FB000080FA000000060037
:105F60000000FA00030007000080FB000080FA0038
:105F7000000006000A00FA0010C0B3007047980045
:105F80000040EB00604798000040EB00504798004D
:105F900010C0B300104798000040EB004047980045
:105FA0000040EB0064FBB70063DBBF000004E000CF
:105FB0008B003A00E4FC07000004E0000900320016
:105FC0000040EB0061FBB7000040EB0063FBB70053
:105FD0000040EB0062FBB7000000EB0040079800B8
:105FE0009000370042D9BF0010FD07007BFD07007D
:105FF0003047980079FD0700204798003E40900008
:10600000E14F500003003A002E409000E14F500055
:1060100063003200BE4090002E40900080CF5000C0
:10602000030032003E409000004F7800240037000B
:1060300011B62100914078007E409000814F5000C1
:106040000E0031005E4090008080FB0090B5210082
:1060500000804000904078001E40900080C06000AA
:106060000040EB00004F78000104E0000B0032001C
:1060700010C0B300004F78000800370061DBBF009C
:106080008040EB00014F7800FE40900080CF500030
:1060900002003A0010C0B300004F78001E04E00078
:1060A00007003A007E409000604798006E409000E4
:1060B000E84F500002003E006E40900062FBB700C7
:1060C00010C0B3009E4F10000D003A005E409000DB
:1060D0000081FB005E4090008080FB0090B52100B5
:1060E00000804000904078001E40900080C070000A
:1060F00090B5210000004100014878000F003700F2
:106100005E4090000081FB005E4090008080FB00BC
:1061100090B5210000804000104078008040780059
:106120001E40900000C0EA0000C06000804078007F
:1061300090B5210000004100014878001E40780021
:10614000E2FC07007E4090000040E80070479800A5
:106150001E40900000404000104798001E409000F4
:106160000004E0000B003A005E4090008080FB00DD
:1061700090B52100008040001040780084000700A6
:106180005E4090000040E8005047980010C0B30007
:10619000104798005E409000E74F500093FF360094
:1061A000FE40900000C4B30080CF50000C003600C9
:1061B00064DBBF000004E00009003A006E4090007C
:1061C00061FBB70061DBBF000004E00002003A00A1
:1061D00010C0B30063FBB70010C0B3004047980085
:1061E0004E4090000004E0000300320059DBBF0085
:1061F0000004E00008003A000040EB0061FBB7003B
:106200000040EB0063FBB7000040EB0062FBB7000F
:106210000040EB00404798004E4090000080FB009B
:10622000400798004E0090000080FA000000060031
:106230000E00FA000040EB00404798000C003700C9
:106240004E4090000081FB004E4090008080FB009B
:1062500090B5210000804000904078006500470024
:10626000017178004E4090000040E80040479800DF
:106270004E409000E74F5000F1FF360061DBBF0059
:106280002047980063DBBF001047980062DBBF0027
:10629000004F780000C4B30061FBB7000040EB0082
:1062A00063FBB70033FF07000004E0001A00320070
:1062B00010C0B300304798000040EB004047980002
:1062C000110037004E4090008080FB0065004700C1
:1062D000614178004E4090008080FB0090B5210025
:1062E0000080400010407800804F510003003200D1
:1062F0000040EB0030479800090037004E40900006
:106300000040E800404798004E409000E74F5000A2
:10631000ECFF3600020037000040EB0030479800E9
:106320000040EB00404798000C0037004E409000C2
:106330000081FB004E4090008080FB00650047001C
:10634000E140780090B5210000004100014878004C
:106350004E4090000040E800404798004E409000BA
:10636000E74F5000F1FF36002E40900061FBB70070
:106370001E40900063FBB7001E40780062FBB70030
:106380003E4090000080FB000080FA000000060004
:106390000200FA00004F780064DBBF001E40680076
:1063A0008080FB0030942100008040001040780085
:1063B00064FBB70064DBBF000080FB000080FA00D4
:1063C000000006000000FA0030A12E00D1090700ED
:1063D0000080FA00000006000400FA00C922A800AC
:1063E000CB22A900C8C2A900F6FF070000003700B1
:1063F00022C2BF00614060000004E000FCFF3200E8
:106400003011800007FBB70007DBBF000080FB00F6
:106410004400DE0006FBB70006DBBF000080FB0087
:10642000100798001E009000E10F50005B00320042
:106430009E009000E48F5000760032001E00900015
:106440000000E000010032007700370007DBBF00EA
:106450000080FB00000F78009E007800E28F500063
:10646000170032001E007800E20F500007003C00C9
:106470009E0078000100E0006E0032001E007800EF
:10648000E10F50000C003200410037009E00780000
:10649000E48F50000E0032001E007800E40F500020
:1064A0003B0035009E00780068805000E10F5000EE
:1064B00037003E0009003700C2FF0700CCFF37005D
:1064C0004CFE070010C0B300F20A0700C8FF3700F7
:1064D00017FC0700EF0A0700C5FF370010C0B30024
:1064E000EC0A070007DBBF00E94F500003003A0049
:1064F000C0CEB30042F9B7000200370000CFB300AE
:1065000042F9B7008BFE070004FBB700110037000B
:106510000040EB0005FBB7000900370005DBBF00BA
:106520008080FB0090B52100008040001040780082
:10653000D80A070005DBBF000040E80005FBB700F4
:1065400005DBBF00E74F5000F4FF360084FE070074
:1065500004FBB70004DBBF000004E000ECFF3A00DE
:106560000040EB0005FBB7000500370000C0EB0062
:10657000C80A070005DBBF000040E80005FBB700C4
:1065800005DBBF00E74F5000F8FF360098FF3700EB
:106590000040EB00BF0A070095FF370071B02100F3
:1065A00091407800F0C0B30000C0600007FBB70066
:1065B00007DBBF000040E80007FBB70010C0B300D6
:1065C000B40A07000040EB0005FBB7000B003700E2
:1065D00022C2BF00614060000004E000FCFF320006
:1065E0003011800091FB070010C0B300A90A07001A
:1065F00005DBBF000040E80005FBB70051B02100FB
:106600009140780007DBBF0080CF5000F0FF3900D9
:1066100077FF370007DBBF006315070010C0B3002A
:106620009C0A070072FF37000040EB00990A070040
:106630006FFF37000080FA00000006000400FA0037
:106640000CC8BF000080FB00100798001E009000DF
:10665000F80F5000170032001E009000F80F500095
:106660000A003C001E009000E10F5000380032008C
:106670001E009000E50F50004F0032001E009000F9
:106680000000E000110032006E0037001E00900094
:10669000FA0F50006D0032001E009000FA0F5000FB
:1066A000060035001E009000FC0F5000670032000D
:1066B000640037000BC8A800640037009D00070085
:1066C0000040EB008A0A070060003700804080002D
:1066D000E10F500005003A0010C0B300840A070023
:1066E0002E0107005B0007001400370020C0B30034
:1066F0007F0A07008040800087F4070030C0B300A5
:106700007B0A07000000EB0070E0880007003700FC
:10671000220107004F00070000C2B3005D0A070016
:1067200070E080000000E80070E088008140800098
:1067300070E08000808F5000F5FF3E00D0C0B300B5
:10674000540A0700A0C0B300520A07003F003700F8
:1067500040C0B300660A0700704080006EF4070076
:10676000704080004B01070010FCB70010DCBF0038
:106770000004E00003003A0060C0B3005C0A0700B8
:106780000800370010DCBF00E14F500003003A0062
:1067900070C0B300560A070002003700C06F2F0018
:1067A000DC080700D0C0B3003A0A0700A0C0B3005D
:1067B000380A07002500370070408000000F78007D
:1067C0001E0078000000E000040032001E00780087
:1067D000E10F5000040032001700370090702F00C6
:1067E000E20807001900370000732F00DF080700D8
:1067F000EA0007000004E00004003A0013DCBF00D8
:1068000045F4070000C2B300220A070022C2BF00FD
:10681000614060000004E000F5FF320030118000AC
:1068200010FCB700D0C0B3001A0A0700A0C0B30024
:10683000180A07000500370070C1B3002C0A0700D2
:106840000200370080C1B300290A07000080FA0067
:10685000000006000400FA00004F78001E80FB00D4
:10686000100798009E009000E28F50001D0032003B
:106870001E009000E20F500007003C009E009000B8
:106880000100E0000F0032001E009000E10F5000F8
:1068900011003200230037009E009000E48F50006A
:1068A0001A0032001E009000E40F50001200350064
:1068B000F00F20009E009000808F500016003200E4
:1068C0001800370013DCBF0013F4070000C2B30048
:1068D000F009070015003700D0742F008D0807005D
:1068E0001200370013DCBF000BF40700E0752F0027
:1068F000880807000D00370013DCBF0006F407000E
:10690000D0762F008308070008003700C06F2F00E3
:106910008008070005003700D0772F007D080700AA
:106920000200370030782F007A0807000080FA0054
:10693000000006000000FA00C922A800C902A90050
:10694000CB02A900CB22A9000080FA0000000600BB
:106950000400FA000040EB002E0107000004E000F4
:106960000300320020002000100798000E003700BE
:10697000CBC2BF000080FB000000D100614060007E
:10698000004F780010C0B300220107000004E000AF
:10699000030032002000200010079800020037009A
:1069A0001E80FB00100798001E0090000080FA0077
:1069B000000006000600FA000040EB0020479800A7
:1069C0000040EB0010479800CBC2BF000080FB00E6
:1069D0000000D100614060006141600021C12100E0
:1069E00091407800E0CFB30000C06000024070002A
:1069F00012FCB70012DCBF00614060000004E00040
:106A000003003200100020002007980060003700CB
:106A100010C0B300FF0007000004E00003003200D4
:106A20004100200021079800590037000040EB008A
:106A300030479800190037001E4090000080FB008E
:106A40000000D10010479800C1FF0700004F7800F8
:106A500020C0B3009E4F100003003A004100200008
:106A6000210798004A00370010C0B3009E4F100065
:106A700007003A009E40900000C8B30000C04000EC
:106A8000104798002E4090000004A2002047980074
:106A90003E4090000040E800304798003E409000A3
:106AA000E74F5000E4FF36001E40900013FCB70093
:106AB000A7FF0700004F780021C0B3009ECF100051
:106AC00003003A0040002000200798003000370003
:106AD0009E40780061C060006141600041C12100BA
:106AE00091407800E0CFB30000C060000240700029
:106AF00014FCB70014DCBF006140600080407800E7
:106B00002E40900080CF500004003A00145CA80092
:106B100020002000200798001D003700145CA90009
:106B20008BFF0700004F780021C0B3009ECF1000FC
:106B300003003A00400020002007980014003700AE
:106B40009E40780061C060006140600000414000EC
:106B500041C1210091407800D0CFB30000C0600057
:106B60000240700014FCB700C902A90014DCBF0089
:106B7000624060000004E00003003A0030002000A2
:106B800020079800020037008000EB0021079800E2
:106B90002E0090000080FA00000006000200FA00BB
:106BA00000C0EB00004F7800C922A800C902A8006D
:106BB0000040EB001047980010003700CBC2BF0028
:106BC000614060000004E00007003A0079FF070020
:106BD000004F78001E04E0000B00320040C0B300FC
:106BE0009E4F10000800320050C0B30081F3070030
:106BF0001E4090000040E800104798001E409000A2
:106C0000E14F4000EDFF3A00C902A9001E80FB00E1
:106C10000080FA00000006000400FA00004F78002F
:106C200010C0B3007B0007000004E0000300320046
:106C30002000200010079800130037009E407800C5
:106C400061C060006140600000414000912C200064
:106C500091407800D0CFB30000C0600002407000C7
:106C6000C9E2B7000040EB006A0007000004E00042
:106C700003003200200020001007980002003700B7
:106C80008000EB00110798001E0090000080FA00C1
:106C9000000006000800FA00404798000040EB00A2
:106CA00020479800C902A900CB02A900C0C3B300C5
:106CB00050F30700CB22A900C922A900C902A800ED
:106CC00010C0B3004BF307000040EB005100070079
:106CD0000004E0000300320040002000300798006C
:106CE000490037000000EB00000F78001C0037005F
:106CF0004E4090000080FB00610060000004E00056
:106D00000B00320010C0B300C3FF07000004E00016
:106D10000300320040002000300798003A0037009E
:106D20002E4090000004A200204798000700370082
:106D30000040EB00B8FF07000004E0000300320051
:106D400040002000300798002F0037004E40900090
:106D50000080FB000000D100404798001E0FE800B3
:106D6000700020009E0F1000E1FF36002E409000C2
:106D70000004A200204798002E409000A6FF0700C4
:106D80000004E000030032004000200030079800BB
:106D90001D003700C922A800CB22A90010C0B300F3
:106DA0001C0007000004E000030032004000200047
:106DB0003007980014003700E5FE0700E24F50004E
:106DC00003003A0040002000300798000E00370012
:106DD000DFFE07000080FB00000F7800200020008D
:106DE0009E0F100003003A0040002000300798007A
:106DF00005003700C902A900CB02A9001E007800D7
:106E00000080FB00300798003E0090000080FA00F0
:106E1000000006000600FA00204798000080EB0002
:106E2000000F7800CBC2BF00614060008040780056
:106E30002E40900080CF500003003A000000EB008D
:106E400020079800050037001E0FE9001E00E00033
:106E5000F4FF3A0010002000200798002E00900058
:106E60000080FA00000006001400FA00881F780075
:106E7000D0DF8000E20F50000B003A0011E1A900C2
:106E8000A16C20009140780000CEB30000C06000EB
:106E9000CAE6B700E0252F00340707000000EB002A
:106EA000D0DF880091003700B0262F002F070700A1
:106EB00080292F00170707002203200001FA200075
:106EC000400020008A05070030079800A02A2F0004
:106ED000100707003E009000E30F500007003E003F
:106EE000402B2F0021070700E00320002007980017
:106EF00010A1A8001081A8001B0037003E009000E0
:106F0000FE0F500007003E00802B2F0017070700E0
:106F1000A00F20002007980010A1A8001081A90050
:106F200011003700BE009000400F2000808F5000FD
:106F300007003E00B02B2F000C070700007D20004B
:106F40002007980010A1A9001081A80006003700B2
:106F5000D02B2F000507070000E82300200798002A
:106F600010A1A9001081A9002E0090003E01900000
:106F7000110009000280D8000000E90050079800C5
:106F8000F02B2F00E30607005E0090007207070059
:106F9000D0C0B3003F080700A0C0B3003D08070001
:106FA000402C2F00DB0607002203200031062000C2
:106FB000200020004E050700000478006140B90061
:106FC00055EA0700000F9800110F98000800E00034
:106FD00007003D0002002000037824000E08900006
:106FE0009E08900078EA0700000F9800110F9800A3
:106FF0000E0890009E089000008FBE000200200046
:10700000832C24001E00BE00CCEA0700008FBE00C7
:107010005E009000CF80DE003FEA07006007980026
:10702000710798005E0090000000E00007003D003E
:1070300002002000037824006E009000FE00900003
:1070400061EA070060079800710798001E01BE0002
:107050006E009000FE009000FAEA07002DEB07009A
:1070600040079800A16C20009140780000CEB3004A
:1070700000C060006041B300CAE6B7001061A9001B
:107080001E61A9001021A900C119200091407800BB
