:020000040000FA
:10000000040C040000000000747000007470000014
:100010007470000074700000747000007470000050
:100020007470000074700000747000007470000040
:100030007470000074700000747000007470000030
:100040007470000074700000747000007470000020
:100050007470000074700000747000007470000010
:100060007470000074700000747000007470000000
:1000700074700000747000007470000074700000F0
:1000800074700000747000007470000074700000E0
:1000900074700000747000007470000074700000D0
:1000A00074700000747000007470000074700000C0
:1000B00074700000747000007470000074700000B0
:1000C00074700000747000007470000074700000A0
:1000D0007470000074700000747000007470000090
:1000E0007470000074700000747000007470000080
:1000F0007470000074700000747000007470000070
:10010000747000007470000074700000747000005F
:10011000747000007470000074700000747000004F
:10012000747000007470000074700000747000003F
:10013000747000007470000074700000747000002F
:10014000747000007470000074700000747000001F
:10015000747000007470000074700000747000000F
:1001600074700000747000007470000074700000FF
:1001700074700000747000007470000074700000EF
:1001800074700000747000007470000074700000DF
:1001900074700000747000007470000074700000CF
:1001A00074700000747000007470000074700000BF
:1001B00074700000747000007470000074700000AF
:1001C000747000007470000074700000747000009F
:1001D000747000007470000074700000747000008F
:1001E000747000007470000074700000747000007F
:1001F000747000007470000074700000747000006F
:10020000FFFFFF00FFFFFF0074700000747000002C
:10021000747000007470000074700000747000004E
:10022000747000007470000074700000747000003E
:10023000747000007470000074700000747000002E
:10024000747000007470000074700000747000001E
:10180000040C0000000000006FC12100007F2200D6
:1018100000018800000000000A0007001100070016
:10182000000020000000E000020032000000020082
:1018300000000000860F0200000000000040DA00F7
:101840000000FE004440A900608621000000E00086
:101850000300320000002000A00188004440A800DE
:101860000000060000D72600010020001500370008
:1018700062004000E0804800910188009001BA00B9
:1018800062004000E0804800910188009002BA00A8
:1018900062004000E08048000002EB006028E100A8
:1018A00004003A000059EB008301E900FDFF3E000F
:1018B000040037006128E100010032000082EB00E3
:1018C00005000700910188001001BA000200E00045
:1018D000E7FF3A00000005009101880080027800CF
:1018E00062004000E08048003559BA008301E900F9
:1018F000080032002559BA008301E90005003200D2
:101900000400E000F4FF320015D9BA008301E900B9
:10191000F1FF3A0000000600889FBE008A9FBE00CB
:10192000010578000100E0000400350008003C00DB
:101930000000E000200032000500370060001000C9
:10194000E080180002003B0001F02C001A00370074
:101950000004BE006011B8006B0920000982CF00AE
:10196000020039000882CF000441B00069425200F1
:101970000E00320008003B008281710061016400AA
:101980008904D1000884D3008B05E8000442E800F4
:10199000F9FF3A00050037000804440089844C0030
:1019A0008B05E9000442E900FBFF3A00040107004F
:1019B0000AF0A70001F0A0004F05BE004F04BE00D2
:1019C0000000060003F0A200889FBE008A9FBE00B0
:1019D0008C1F780020010700270133006450E100CC
:1019E0004F0032006420E1005200320003826C009C
:1019F00007003B000905D0000306D000820F540009
:101A00000C065D00020039000200320089017800F6
:101A1000030678008582550004003D000003FD00A8
:101A20008103FD008502EA008B854200840F72006D
:101A300002003B0060001000E08018006011B80058
:101A40000005EB007A28E1000A0039000600780062
:101A5000C75DDD00F707B200878075002D003700F5
:101A6000828171000A017800610560008180D100E7
:101A70000080D3008502E900F9FF3B000604400026
:101A80008784480002003B0060041400E0841C00CE
:101A90000988A300070032008A81710082817100E9
:101AA000610164008904D1000884D3008B05E8003B
:101AB000170037000978A30013003A000B00E0007C
:101AC000130034008B05E9000804440089844C00AD
:101AD0000A4474000978A3000D003A000B00E000EE
:101AE000070034008B05E9000804440089844C0099
:101AF00001003A000B0020000978A300F7FF320034
:101B00000001EB0002003700828171000A017800B9
:101B1000AB0007000CF0A70001F0A000DF003700C9
:101B20006420E10002003A00838F6C00DF00330084
:101B30000801BE000200BE00D8003700889FBE002A
:101B40008A9FBE008C1F7800C3000700CA003300C4
:101B500003866C006450E1002E0032006420E10036
:101B6000330032006150E1002F0032006120E100BB
:101B70003100320085855500EB07B00009002000D8
:101B800008042000050037000804440089844C0044
:101B90000A0031000603430087834B000001530015
:101BA00081815B00F8FF33000203BE000800A00043
:101BB0000804440089844C00F6FF3900C639DD0072
:101BC0008301730001003200130020008904D1005A
:101BD0000884D3000998A300050032000800A7007C
:101BE0000300A0008904D1000884D3008B05E8001D
:101BF0008904D1000884D3000001EB000281D200E7
:101C00006F00070001F0A1000CF0A70001F0A00098
:101C1000A20037006420E100A40032000801BE00E9
:101C20000200BE00F7FF37006120E1009F00320094
:101C30006000B800F3FF37000000200001F8270023
:101C4000F0FF3700889FBE008A9FBE008C1F78007F
:101C5000810007008800330003866C006450E100B7
:101C6000240032006420E100270032006150E100CE
:101C7000220032006120E100210032008B85420009
:101C8000EB07B1000134B800003AB8000804420084
:101C900089844A00013AB8000030B80088804000CA
:101CA00009014A0004003300000040008180480020
:101CB000020149008B05E900C909DD0083017000BC
:101CC0000100320013002000C814DE004814DD00BB
:101CD0004709DE001200B200C808DE000884700068
:101CE0003700070001F0A1000CF0A70001F0A000F0
:101CF0006A0037006120E1006C0032000801BE007C
:101D00000200BE00F7FF37006150E100FCFF3A001F
:101D1000660037000001BE00670007000470A700DE
:101D200003F0A10003F8A30013003A006509B10015
:101D300010003200090035006928E100020035007A
:101D400001002800000005000000400081804800DC
:101D50008502E900FCFF3A0000000600F88F42000F
:101D6000050035008100D1000080D3008502E80025
:101D7000FCFF3A00000006008000EB0000000500B8
:101D80006022B800060220000000D0008180D2004E
:101D90000482D2008582D2000000A000020252001C
:101DA00083825A00030031000202420083824A000B
:101DB0000000A1000603E900F3FF3A00000006005E
:101DC00081002000618055000B003D000B002000C9
:101DD00061FE2F000100E1001D00340082817100CE
:101DE000610164008904D1000884D3000000E80088
:101DF000FAFF3A00710020006100640003007000E7
:101E0000020060000900320061044400E0844C00DC
:101E10000988A500050032008B05E8006808E1008C
:101E200002003A008904D1000884D300F20F200098
:101E30000258E10005003D00C75DDD00F907B20072
:101E40008980750008007800000006000BF8270064
:101E50008B007800000005000004BE00160007009B
:101E60000003BE000405BE000200BE001200070011
:101E7000844F7500000006000200BE006450E100BF
:101E8000050036006420E100020036000968A30066
:101E900001003A000800BE000160A0004F06780073
:101EA0004F05BE004F04BE0000000600F0FF2F00EB
:101EB000F1FF2700F9FF3700C70ADE00F107B20083
:101EC000F50FB20008003200E1CF420002003200FC
:101ED0000170A00024000500810F70000100320095
:101EE0000408050044000500810F700002003A005C
:101EF000140005008502E9000000400081C0480090
:101F0000FCFF3B000170A000240005000400FA0063
:101F10003900070000003700C280200001FA2000CD
:101F2000C07A210036170700100798001E009000A5
:101F3000E10F500005003200F00F20009E009000DD
:101F4000808F50001C0032002200370060BD8000EE
:101F5000000F78009E0078000100E00004003200CD
:101F60001E007800E10F5000040032000700370027
:101F700090C1B300BD190700070037000CC8BF00AF
:101F80008F1307000004E00003003A0060BD8000EA
:101F9000C1802000601507000000EB0060BD8800D4
:101FA0000040EB0015FCB70072130700E0C3B3005C
:101FB000971907000700370015DCBF000040E80054
:101FC00015FCB70015DCBF00F34F500001003600D0
:101FD000272107000BC8BF00624060000004E0003A
:101FE000CDFF32000001EB008000EB0060C1B300C8
:101FF00007130700C8FF37000000FA004507A900D3
:102000000080EB00601988004227A900416A200087
:102010009140780000CEB30000C060000024A00012
:10202000A4E6B700316C20009140780000CEB300E8
:1020300000C060003040B300C3E6B70080C0B3000A
:1020400000E8B7000000EB0010408800F70407002C
:10205000050507008000EB00F00F2000761907004F
:102060003040880021002000F00F20007219070086
:102070004040880010C1B30065190700D0C0B3000C
:1020800063190700A0C0B30061190700ED13070032
:1020900038130700E0C3B3005D1907000080FA00A1
:1020A000000006000C00FA00004F780011079800AD
:1020B000220798001E80FB006101B90032079800DA
:1020C00043079800C0012000010020003E0190005D
:1020D000CE019000800F5100818F5900D4003E0046
:1020E0003E009000CE009000006001001C00370010
:1020F0003E0037005E0037005D00370062003700A9
:10210000B6003700660037006C00370072003700F9
:10211000780037007C0037008000370084003700EB
:10212000C3003700C2003700C1003700C0003700CD
:10213000BF003700BE003700BD003700BC003700CD
:10214000BB003700BA003700B90037007D00370008
:1021500097003700B8003700B5003700B6003700E9
:102160002E009000E10F500007003A0010C0B300AD
:102170003E190700721E070006FCB70006DCBF0010
:10218000CB0407001400370020C0B3003719070044
:102190002E009000C604070030C0B30033190700BA
:1021A0000000EB0020E0880007003700641E0700F5
:1021B000BF04070000C2B3001519070020E080002B
:1021C0000000E80020E0880021E080002E00900060
:1021D000808F5000F5FF3900D0C0B3000C19070004
:1021E000A0C0B3000A1907009300370040C0B30035
:1021F0001E1907001E009000AD0407002E0090007D
:10220000E10F500003003A001E0090001B1E070063
:1022100012003700C0762E00C91707002E0090006C
:10222000A304070050C0B300101907000000EB0022
:1022300020E08800050037001E0090000F1E0700F8
:1022400020E080000000E80020E0880021E080001D
:102250002E009000808F5000F7FF3900D0C0B300EF
:10226000EB180700A0C0B300E918070072003700A0
:10227000931D070000772E00B117070080C0B30040
:10228000FA1807006C003700A01D070080772E00A9
:10229000AB17070090C0B300F418070066003700C2
:1022A000D0C0B300F1180700551E07009D170700A6
:1022B000F0C0B300ED1807005F003700E0C0B300C6
:1022C000EA1807009E1E070096170700F0C0B3002B
:1022D000E6180700580037002E009000740407002D
:1022E00000C1B300E11807002E009000661E070031
:1022F0005100370010C1B300DC18070010C0B30054
:102300007D1E07004C00370020C1B300D71807001E
:102310000040EB00781E07004700370030C1B300D3
:10232000D218070010C0B3006A1E07004200370031
:1023300040C1B300CD1807000040EB00651E070048
:102340003D0037000B48A8000B88A80010C3B3005D
:10235000C6180700120020002100200010002000F5
:10236000EE1507000040E9000AE8B700E0C1B3003D
:10237000BE180700120020002100200010002000DD
:10238000E61507000040EA0061406000614060001F
:102390004601DD00B180200091407800F0CBB30011
:1023A00000C06000024070000BE8B7002200370058
:1023B000CB02A900CB22A900C922A800C902A9000A
:1023C000A18020009140780020C0B300191D0700B3
:1023D0000040EB00A5180700170037009E00900092
:1023E000510798005E019000E10F51000A00320091
:1023F000DE019000E18F5100040039005E00900082
:10240000E20F50000500320006003700F0772E0082
:102410004B170700080037000900070019000700E4
:102420000500370070C1B3009018070002003700A4
:1024300080C1B3008D1807000080FA00000006007C
:102440000000FA00A07B2E0053170700707D2E00BD
:10245000511707000040EB00301E070000C0EB00E2
:102460004A04070010C0B3002C1E070010C0B300C0
:10247000051E07000040EB00281E07000080FA0040
:10248000000006000A00FA00881F7800907F2E00E6
:102490002B1707000BC8BF000080FB004300DE00C5
:1024A00061406000204798000B68A8000000EB0026
:1024B000000F78000D0037001E047800A01D0700F3
:1024C0008040780063004700017478009E00780027
:1024D00063004700614078000080FB000918070096
:1024E00000C2B3004A1807001E0FE80030002000A9
:1024F0009E0F1000F0FF3600D0C0B3004418070054
:10250000A0C0B300421807002E4090006140600058
:10251000614060004301DD00B180200091407800FF
:1025200070CFB30000C06000024070000BE8B7003D
:1025300080812E00021707006300470010407800DA
:102540000080FB004400DE000080FB004007980094
:102550004E009000E90F5000110032004E00900034
:10256000E90F500004003C004E009000E80F5000BE
:1025700008003200130037004E009000EA0F5000B0
:102580000A0032004E009000EF0F50000A003200A7
:102590000C00370030822E00FF1607000B003700BA
:1025A000A0822E00FC1607000800370010832E00C2
:1025B000F91607000500370080832E00F616070085
:1025C00002003700C0832E00F316070040842E005F
:1025D000DB16070063004700104090000080FB00FE
:1025E0004700DE000004E00003003A0000852E00F2
:1025F000E91607000200370070852E00E616070076
:1026000070862E00CE160700630047001040900031
:102610008080FB0080F72F00008060004380DE0098
:10262000204798002E4090000004E00003003A008C
:1026300040872E00C21607001B0037002E40900076
:10264000EF4F500003003A0080832E00BC160700B5
:102650001500370000042000000F7800E300470059
:102660000040EB0080487800080037001E0078002A
:1026700000004000000F7800630047001040780021
:102680008040E8006300470001487800630047008D
:10269000904078002E40900080CF5000F3FF39002A
:1026A0001E00780037170700D0C0B300D817070006
:1026B000A0C0B300D617070020882E00A016070080
:1026C000630047009040900070C0B30000C06000FD
:1026D0002047980010002000000F7800E30047001A
:1026E0000040EB0080487800080037001E007800AA
:1026F00000004000000F78006300470010407800A1
:102700008040E8006300470001487800630047000C
:10271000904078002E40900080CF5000F3FF3900A9
:102720001E00780046170700D0C0B300B817070096
:10273000A0C0B300B61707004F0478000080FA006D
:10274000000006000A00FA00004F78001107980008
:10275000220798001E80FB006101B9003207980033
:1027600043079800C0012000010020003E019000B6
:10277000CE019000800F5100818F5900D8003E009B
:102780003E009000CE009000006001001C00370069
:102790003E0037006A0037006900370073003700D9
:1027A000CC003700770037007F0037008700370004
:1027B0008D003700910037009500370099003700F1
:1027C000C7003700C6003700C5003700C400370017
:1027D000C3003700C2003700C1003700C000370017
:1027E000BF003700BE003700BD0037009200370041
:1027F000AB003700BC003700B9003700BA00370023
:102800002E009000E10F500006003A0010C0B30007
:102810009617070000C0EB004F1C070024030700B9
:102820001500370020C0B300901707002E0090005D
:102830001F03070030C0B3008C1707000000EB0037
:1028400030DF88000800370000C0EB00421C0700A2
:102850001703070000C2B3006D17070030DF8000C8
:102860000000E80030DF880031DF80002E0090009B
:10287000808F5000F4FF3900D0C0B3006417070008
:10288000A0C0B300621707009700370040C0B30034
:10289000761707001E009000050307002E00900029
:1028A000E10F50000E003A001E0090002A1C0700A5
:1028B000E8FBB700EADBBF00614060000004E00015
:1028C0001A00320000C2B3005117070010C0B30055
:1028D00066170700E8DBBF00F502070013003700AA
:1028E000C0D62E00161607002E009000F00207003A
:1028F00050C0B3005D1707000000EB0030DF880018
:10290000060037001E009000131C0700E8FBB7000C
:1029100030DF80000000E80030DF880031DF800019
:102920002E009000808F5000F6FF3900D0C0B30019
:1029300037170700A0C0B300351707006A0037003B
:1029400031C0B3009ECF100002003A00EA1BA8007D
:1029500001003700EA1BA9000040EB00EF1C070054
:10296000A0C0B300411707005F003700EA1BA900B1
:1029700010C0B300E91C0700B0C0B3003B1707004C
:1029800059003700D0C0B300381707009C1C07005F
:10299000E4150700D0C0B3001D170700A0C0B300A6
:1029A0001B17070050003700E0C0B3002F170700C7
:1029B000E31C0700DB150700D0C0B30014170700A5
:1029C000A0C0B30012170700470037002E00900088
:1029D000B702070000C1B300241707002E009000C3
:1029E000A91C07004000370010C1B3001F170700E3
:1029F00010C0B300C01C07003B00370020C1B3006B
:102A00001A1707000040EB00BB1C07003600370018
:102A100030C1B3001517070010C0B300AD1C07008C
:102A20003100370040C1B300101707000040EB0031
:102A3000A81C07002C00370010C3B3000B170700B9
:102A40001200200021002000100020003314070095
:102A50000040E9000AE8B700E0C1B300031707002F
:102A60001200200021002000100020002B1407007D
:102A70000040EA0061406000614060004601DD0006
:102A8000B180200091407800F0CBB30000C060001E
:102A9000024070000BE8B7000B48A8001200370096
:102AA000EA1BA900A18020009140780030C0B3004B
:102AB000601B0700C922A900C902A900C8E2A8003A
:102AC00010C0B300951C07000040EB00E71607009C
:102AD0000500370070C1B300E4160700020037009C
:102AE00080C1B300E11607000080FA000000060074
:102AF0000C00FA00004F7800110798002207980098
:102B00001E80FB006101B90032079800430798005E
:102B1000C0012000010020003E019000CE01900085
:102B2000800F5100818F5900EA003E003E00900066
:102B3000CE009000006001002A0037004E003700F0
:102B40001A0037001900370022003700C70037008D
:102B5000E0003700DF003700DE003700DD0037001F
:102B6000DC003700DB003700DA003700D90037001F
:102B7000D8003700D7003700D6003700D50037001F
:102B8000D4003700D3003700D2003700D10037001F
:102B9000D0003700CF00370064003700AC003700AA
:102BA000B0003700CB003700CC00370031C0B30095
:102BB0009ECF100002003A00F07BA8000100370011
:102BC000F07BA900CAC2A900A0C0B300A7160700E5
:102BD000C2003700CAC2A800B0C0B300A3160700E5
:102BE000BE0037002E009000E10F500008003A00B0
:102BF00010C0B3009D16070000C0EB001D010700C8
:102C0000EEFBB700EEDBBF0029020700150037001E
:102C100020C0B300951607002E0090002402070084
:102C200030C0B300911607000000EB0060DF8800A1
:102C30000800370000C0EB000E0107001C0207006F
:102C400000C2B3007216070060DF80000000E800D9
:102C500060DF880061DF80002E009000808F5000D0
:102C6000F4FF3900D0C0B30069160700A0C0B3005C
:102C7000671607009900370040C0B3007B160700B5
:102C80001E0090000A0207002E009000E10F500085
:102C90000E003A001E009000F6000700EEFBB700A1
:102CA000F0DBBF00684060000004E0001A00320062
:102CB00000C2B3005616070010C0B3006B16070021
:102CC000EEDBBF00FA01070013003700E0A92E0079
:102CD0001B1507002E009000F501070050C0B3003F
:102CE000621607000000EB0060DF88000600370076
:102CF0001E009000DF000700EEFBB70060DF8000E1
:102D00000000E80060DF880061DF80002E00900096
:102D1000808F5000F6FF3900D0C0B3003C1607008A
:102D2000A0C0B3003A1607006C00370020AA2E009E
:102D3000191507001200200041002000100020009B
:102D4000761307000040E9000AE8B700E0C2B300CC
:102D5000461607001200200021002000100020006D
:102D60006E1307000040E9006140600061416000AF
:102D700001BF210091407800E0CFB30000C06000A7
:102D800002407000F0FBB700F0C2B3003716070036
:102D90002200200021002000100020005F13070007
:102DA0000040E90061406000614060000041400077
:102DB00001BF210091407800D0CFB30000C0600077
:102DC00002407000F0FBB70000C3B30027160700F5
:102DD0001200200021002000100020004F130700E7
:102DE0000040E90061406000614060004201DD0098
:102DF00001BF210091407800B0CFB30000C0600057
:102E000002407000F0FBB700E0C1B30017160700E6
:102E10001200200021002000100020003F130700B6
:102E20000040EA0061406000614060004601DD0052
:102E3000B180200091407800F0CBB30000C060006A
:102E4000024070000BE8B7000B48A90023003700D0
:102E5000F07BA900230007000040EB0003160700E9
:102E60001E0037006F0007001C0037001E01900095
:102E700052079800DE0190000300E00004003200D9
:102E80005E009000E10F5000040032000E00370099
:102E9000A0AD2E00C014070010003700C0AF2E00F8
:102EA000BD14070012002000310020001000200097
:102EB0001A1307000040E900EEFBB700EEDBBF008D
:102EC0007A0007000500370070C1B300E71507005E
:102ED0000200370080C1B300E41507000080FA004B
:102EE000000006000000FA0041E2A9000BC8BF0084
:102EF0000044B2000004E00003003200CEE2A8006B
:102F0000CF02A800CEC2A800816A200091407800BC
:102F100000CEB30000C060007040B300A8E6B70068
:102F2000916C20009140780000CEB30000C060009A
:102F30007040B300C9E6B700816C20009140780072
:102F400000CEB30000C060000034A000C8E6B700A7
:102F5000CAC2A800C8C2A900C902A900C8E2A80044
:102F6000C922A9000AC8BF008080FB0080C02100E0
:102F700000804000104078000080FB0010128800A4
:102F800042A2A800F0DBBF00614060006140600029
:102F90004601DD002124200091407800F0CBB300F1
:102FA00000C060000240700042E2B700F0DBBF00EA
:102FB0000080FB000000D1006140600061416000C2
:102FC0003124200091407800E0CFB30000C06000C1
:102FD0000240700043E2B700F0DBBF000080FB005E
:102FE0004200DE006140600061406000004140003E
:102FF0003124200091407800D0CFB30000C06000A1
:103000000240700043E2B7000000EB00201288008D
:103010000000EB000012880041E2A8000080FA00E6
:10302000000006000000FA0041E2A900A8C6BF00A7
:10303000F041B300A8E6B700916C20009140780001
:1030400000CEB30000C06000C9E6B700816C20006C
:103050009140780000CEB30000C06000C8E6B70021
:10306000CEE2A900CF02A900CEC2A9000080FA00DA
:10307000000006000200FA00004F78001E80FB00EE
:103080004012880085C0BF00644060000004E0007A
:10309000FCFF320040128000004F78008540A900FC
:1030A0001E80FB000080FA00000006000400FA0009
:1030B0002047980020B32E0037140700D9FF0700DF
:1030C0004D0007002E409000E14F500008003E00E8
:1030D000CAC2BF000080FB004600DE006140600005
:1030E000804078002E40900080CF500008003A00C9
:1030F00041C2BF0001C8B300014060000004E0000D
:103100000E003A0041E2A80061E2A8000B0037007F
:1031100041C2BF0001C8B300014060000004E000EC
:103120000600320041E2A90061E2A900D0C0B3006C
:1031300037150700A0C0B3003515070040C2BF0017
:103140000042B2000004E00004003A004012800097
:10315000004F78001E407800D500070060C2BF0015
:103160000042B2000004E00008003A004013800072
:10317000004F780020B52E00F11307001E407800A4
:10318000CB00070040B52E00ED13070040C2BF0082
:103190000044B2000004E00004003A0060C2BF0036
:1031A0000044B2000004E0000500320070B52E00BB
:1031B000F913070040C2A90060C2A9000A00370045
:1031C00022C2BF00614060000004E000BDFF320089
:1031D00030118000004F7800D0C0B3000C150700FC
:1031E000A0C0B3000A150700700007003DFF0700EC
:1031F0000080FA00000006000000FA00C8C2A80023
:10320000C902A800C8E2A800C922A800816A20005B
:103210009140780000CEB30000C060009040B30041
:10322000A8E6B700916A20009140780000CEB30074
:1032300000C060000034A000A9E6B700C16A200009
:103240009140780000CEB30000C060007040B30031
:10325000ACE6B700D16A20009140780000CEB30000
:1032600000C060000034A000ADE6B7000AC8BF008F
:103270008080FB0080C0210000804000104078006A
:103280000080FB0010128800F0DBBF00614060008E
:10329000614060004601DD0021242000914078005B
:1032A000F0CBB30000C060000240700042E2B70003
:1032B000F0DBBF000080FB000000D1006140600037
:1032C000614160003124200091407800E0CFB300DC
:1032D00000C060000240700043E2B7000000EB0055
:1032E000201288000000EB00001288000AC8BF000E
:1032F0008080FB0080C021000080400010407800EA
:103300000080FB0010138800F0DBBF00614060000C
:10331000614060004601DD002126200091407800D8
:10332000F0CBB30000C060000240700062E2B70062
:10333000F0DBBF000080FB000000D10061406000B6
:10334000614160003126200091407800E0CFB30059
:1033500000C060000240700063E2B7000000EB00B4
:10336000201388000000EB00001388000000EB0031
:10337000401288000000EB00401388004322A9009F
:103380006322A9004362A80042A2A9006362A800C8
:1033900062A2A90040C2A90060C2A9004402A8001C
:1033A0006402A8000080FA00000006000000FA0095
:1033B00041E2A9004362A90061E2A9006362A90099
:1033C000A8C6BF00F041B300A8E6B700A9C6BF0079
:1033D000F041B300A9E6B700ACC6BF00F041B300AE
:1033E000ACE6B700ADC6BF00F041B300ADE6B70034
:1033F0000080FA00000006000000FA000BC8A900D7
:103400000040EB000AE8B7000B28A9000B08A90050
:103410000B48A9000B68A9000B88A9000BA8A900FC
:103420000BE8A9000080FA00000006000000FA0086
:10343000C922A800C902A800C8E2A800C8C2A80002
:10344000C8A2A800CBC2A900C9C2A9000000EB0015
:1034500020408800E8FF0700C962A800C942A80010
:103460000080FA00000006000000FA0000C8BF005B
:103470000080FB0080004000A0B6210000804000DA
:1034800010007800401188000000EB000011880057
:103490002062A8000000EB001011880021E2A800C3
:1034A0002342A8008560A9000080FA000000060001
:1034B0000400FA00004F78001040800010079800C8
:1034C0001E009000E10F50000D0032001E00900021
:1034D000E10F5000070039001E009000E20F50007D
:1034E0000A0032001E009000E30F50000A00320074
:1034F0000B0037001E80FB00021407000800370095
:103500001E407800CE130700050037001E407800EB
:103510003B130700020037001E4078003C140700F0
:103520000080FA00000006000600FA0040479800FC
:103530000040EB00204798000E0037000000EB0031
:10354000000F780005003700A0CFB3000F00070080
:103550001E0078000000E800000F78001E007800D0
:10356000E30F5000F8FF36002E4090000040E800C6
:1035700020479800AE4090004E40900080CF500011
:10358000EEFF39000080FA00000006000400FA0097
:10359000204798000040EB00004F780013003700F0
:1035A000000000000000000000000000000000001B
:1035B000000000000000000000000000000000000B
:1035C00000000000000000000000000000000000FB
:1035D00000000000000000000000000000000000EB
:1035E0001E4078000040E800004F78009E407800C0
:1035F0002E40900080CF5000E9FF39000080FA0093
:10360000000006000C00FA00004F78001107980037
:10361000220798008EDBBF00E14F500030003A00D7
:1036200000C2B300FA13070030C0B3009E4F100071
:103630000600320021C0B3009ECF1000030032000C
:1036400042C0B3009E4F11000F003A0070C0B3009B
:1036500006140700D0C0B300ED130700A0C0B300EC
:10366000EB1307008FDBBF000004E00003003A000B
:1036700010C0B300731907001700370010C0B30063
:103680008202070014003700C3C1B3009ECF1100AF
:1036900003003A0040612E00BF120700AD01370061
:1036A00060C0B300F1130700D0C0B300D813070007
:1036B000A0C0B300D61307008FDBBF000004E000FA
:1036C00003003A000040EB005E19070002003700DB
:1036D0000040EB006D0207000040EB008EFBB700DE
:1036E0001E80FB006101B900320798004307980073
:1036F000C0012000010020003E019000CE0190009A
:10370000800F5100818F590090013E003E009000D3
:10371000CE009000006001001C0037005900370007
:103720008A0037008900370091003700D500370044
:103730008601370085013700840137008301370097
:103740008201370081013700800137007F01370097
:103750007E0137007D0137007C0137007B01370097
:103760007A01370079013700780137007701370097
:10377000760137007501370086003700AA00370050
:10378000B900370071013700720137002E00900038
:10379000E10F50000D003A0010C0B300B313070052
:1037A0008FDBBF000004E00003003A00E4180700CC
:1037B00091FBB700020037005102070091FBB700F0
:1037C00091DBBF003AFF07002B00370020C0B30099
:1037D000A61307002E00900035FF070030C0B3008D
:1037E000A21307000000EB0090DC88001E003700E9
:1037F00090DC80000000E0000E00320000C2B30048
:103800008313070060C0B3009813070000C2B30021
:103810007F1307008FDBBF000004E00003003A00C5
:103820000040EB0007190700020037000040EB00E2
:10383000160207008FDBBF000004E00003003A001F
:10384000BF18070091FBB700020037002C020700E9
:1038500091FBB70091DBBF0015FF070090DC8000F3
:103860000000E80090DC880091DC80002E009000D1
:10387000808F5000DEFF390010C0B3008EFBB70010
:103880003401370040C0B300781307001E009000D9
:1038900007FF07002E009000E10F500006003600E1
:1038A00040622E00261207002E00900000FF070045
:1038B00050C0B3006D1307000000EB0090DC8800DF
:1038C0000F0037008FDBBF000004E00005003A0066
:1038D0001E00900069180700C918070091FBB70087
:1038E000040037001E009000FB010700E001070004
:1038F00091FBB70090DC80000000E80090DC8800BD
:1039000091DC80002E009000808F5000EDFF390088
:1039100000C2B3003E13070091DBBF000004E000CB
:1039200003003A0060C0B3005013070002003700E4
:1039300070C0B3004D130700D0C0B30034130700AC
:10394000A0C0B30032130700020137008FDBBF00B5
:103950000004E00002003A00D91707000100370018
:10396000B301070080C0B30040130700F90037001F
:103970008FDBBF000004E00002003A00E3170700FD
:1039800001003700B201070090C0B30037130700F1
:10399000F00037000BC8A8000B88A80080622E003A
:1039A000FD1107001200200021002000100020005F
:1039B0005A1007000040E9008FFBB7008FDBBF0003
:1039C0000004E00009003A0010C3B3002713070009
:1039D0001200200021002000100020004F100700DE
:1039E0000040E9000AE8B700DA00370041408000F3
:1039F00030002300808F500002003E00E0642E0063
:103A0000E511070040682E00E311070012002000B6
:103A10003100200010002000401007000040E900A5
:103A20000AE8B700CB0037008FDBBF000004E000DE
:103A300009003A00C922A800C902A800CB02A900C7
:103A4000CB22A900A18020009140780020C0B300C3
:103A50007817070001003700B40107000040EB00B1
:103A600002130700BB0037000040EB008EFBB700DD
:103A70008FDBBF00E14F5000B6003A0007E2A9001B
:103A8000B40037009E009000510798005E0190003E
:103A9000E10F51000D003200DE019000E18F510076
:103AA000070039005E009000E20F50004E00320027
:103AB000DE009000E38F50008F003200A00037003E
:103AC000106B2E00B4110700A2003700706D2E009D
:103AD000B11107000000EB0090DC880039003700CE
:103AE0008FDBBF000004E00006003A0074170700F7
:103AF00090DC8000E11707004118070091FBB70038
:103B0000050037004A01070090DC800072010700C1
:103B10005701070091FBB70091DBBF000004E000F4
:103B20001F003A0090DC800061FE070080C2B300F5
:103B3000B712070090DC80000000D1005CFE070097
:103B400090DC80000000A200610060000004E00042
:103B50000300320000712E00791107000C003700BD
:103B60008FDBBF000004E00004003A00F4170700F8
:103B700010C0B300331807000300370060010700CE
:103B800010C0B3004101070030712E006C11070016
:103B900060712E006A11070000C2B3009C1207007A
:103BA0008FDBBF000004E00002003A005717070057
:103BB000010037002601070090DC80000000E800CB
:103BC00090DC880091DC8000F00F2000808F500096
:103BD000C3FF3600D0C0B3008D120700A0C0B300F1
:103BE0008B1207005B00370080712E005411070014
:103BF00002052000F1072000A0002000C70F0700E9
:103C000091FBB70091DBBF000040400091FBB70083
:103C100090722E004A110700F20F2000F10F2000D1
:103C2000A0002000BD0F070090FBB700F0722E002F
:103C3000431107002217070091DBBF008F17070011
:103C4000EF1707000040EB008C170700EC17070088
:103C50000040EB0089170700E91707001817070055
:103C600091DBBF000040E80091FBB70091DBBF0093
:103C700082170700E217070090DBBF000040E90051
:103C800090FBB7000000EB0090DC88000C003700D0
:103C9000AB17070006FE07000040EB00E91707001E
:103CA00010408000E20F500002003E0000C2B3004E
:103CB0005712070090DC80000000E80090DC8800CC
:103CC00090DBBF008080FB0090DC8000808F500084
:103CD000EFFF3E009A170700F5FD070010C0B30084
:103CE000D8170700D0C0B30049120700A0C0B30026
:103CF00047120700170037008FDBBF000004E00009
:103D00000F003A0040742E00231107001300070033
:103D10003500070022C2BF00614060000004E000DF
:103D2000FBFF32003011800090DC8800D0C0B3006F
:103D300037120700A0C0B300351207000500370096
:103D400070C1B300491207000200370080C1B30000
:103D5000461207000080FA00000006000000FA008A
:103D6000C922A800C902A800CB02A900CB22A90041
:103D700062A0A80062C0A8008660A9000000EB0055
:103D8000A0DC88000040EB0099FBB700CBC2BF006D
:103D90000080FB000000D1006140600061416000D4
:103DA00081B9210091407800E0CFB30000C06000ED
:103DB0000240700098FBB700CBC2BF0061406000BA
:103DC000614060004201DD0081B92100914078002E
:103DD000B0CFB30000C060000240700098FBB70095
:103DE0000080FA00000006000400FA0086C0BF0050
:103DF000684060000004E0008B003200CBC2BF00CE
:103E00000080FB000000D100614060006140600064
:103E10000041400081B9210091407800D0CFB3002B
:103E200000C060000240700098FBB700CBC2BF002A
:103E300061406000614060004301DD0081B9210004
:103E40009140780070CFB30000C060000240700065
:103E500098FBB7008660A90098DBBF006440600053
:103E60000004E0002200320098DBBF0068406000E0
:103E70000004E0001E00320098DBBF0061406000DB
:103E80000004E0000B00320098DBBF0062406000DD
:103E90000004E00007003A0020002000A0DC8800B9
:103EA0000040EB0099FBB700B0C5B300D811070084
:103EB0004600370098DBBF00614060000004E0006E
:103EC00042003A0098DBBF00624060000004E0005E
:103ED0003E0032000000EB00A0DC88000040EB0058
:103EE00099FBB700D0C5B300C911070037003700F0
:103EF00098DBBF00644060000004E00033003A003B
:103F000098DBBF00684060000004E0002F00320032
:103F1000A0DC8000100798001E009000E20F500007
:103F2000040032001E009000E30F50001700320022
:103F30002600370096DBBF000040400096FBB7002C
:103F400098DBBF000080FB000000D10061406000F2
:103F50008040780096DBBF0000C0400096FBB700B1
:103F600099DBBF000040E80099FBB70099DBBF0078
:103F7000E84F500015003A000040EB0099FBB700F5
:103F800030002000A0DC880010003700CBC2BF004A
:103F90000080FB000000D10061406000004F78000D
:103FA00096DBBF0042FD07001E04E0000300320064
:103FB000D0C2B3009611070002003700B0C2B300B0
:103FC0009311070020002000A0DC880098DBBF00D0
:103FD0000080FB000000D100614060006141600092
:103FE00081B9210091407800E0CFB30000C06000AB
:103FF0000240700098FBB70098DBBF000080FB0018
:104000004300DE0061406000614060004201DD006D
:1040100081B9210091407800B0CFB30000C06000AA
:104020000240700098FBB7000080FA000000060014
:104030000000FA000602A80006C2BF00614060004E
:104040000004E000FCFF3A000080FA0000000600D7
:104050000000FA000642A80006C2BF0064406000EB
:104060000004E000FCFF3A000080FA0000000600B7
:104070000000FA0009C2BF000080FB004700DE001C
:104080000080FB000080FA00000006000200FA0039
:10409000004F78009E40780061C060006140600081
:1040A0004501DD006120200091407800F0CDB30093
:1040B00000C060000240700006E2B7000682A8005F
:1040C00006C2BF00704060000004E000FCFF3A0040
:1040D0000080FA00000006000200FA00004F78009D
:1040E0001E40780002E2B70009C2BF000044B200DF
:1040F0000004E000FCFF3A000080FA000000060027
:104100000200FA000662A80006C2BF006840600014
:104110000004E000FCFF3A0000C2BF00004F78003E
:104120001E80FB000080FA00000006000000FA007C
:104130000742A9000782A9000000EB005010880088
:104140000000EB00601088000702A9000AC8BF0049
:104150008080FB00C0C0210000804000104078003B
:104160000080FB002010880007E2A8000080FA0011
:10417000000006000C00FA00004F780011079800BC
:10418000220798001E80FB006101B90032079800E9
:1041900043079800C0012000010020003E0190006C
:1041A000CE019000800F5100818F590031013E00F7
:1041B0003E009000CE009000006001004D003700EE
:1041C0006F0037003B0037004000370045003700E4
:1041D000BB0037008D00370097003700A100370083
:1041E000A7003700AA003700AD003700B000370045
:1041F000200137001F0137001E0137001D01370065
:104200001C0137001B0137001A0137001901370064
:104210001801370017013700160137000400370076
:104220002000370015013700120137001301370055
:10423000E0C1B3000D110700120020002100200092
:1042400010002000350E07000040E90061406000CA
:1042500061416000E1BA210091407800E0CFB300F5
:1042600000C0600002407000AEFBB700AEDBBF00D4
:104270006140600000C0EA00614060006140600091
:104280004601DD00B180200091407800F0CBB30002
:1042900000C06000024070000BE8B7000B48A800A7
:1042A000F6003700860107000040EB00EF10070022
:1042B000F2003700F300070020C0B30043010700FD
:1042C00020092E00B40F0700EC003700ED000700B6
:1042D00030C0B3003D010700C00B2E00AE0F070039
:1042E000E6003700E7000700400E2E00AA0F070087
:1042F000E20037002E009000E10F500007003A0066
:10430000E0010700ACFBB70010C0B300D7100700F6
:10431000ACDBBF0066FC07001400370020C0B30010
:10432000D21007002E00900061FC070030C0B300DF
:10433000CE1007000000EB0050DD880007003700BA
:10434000D00107005AFC070000C2B300B0100700FC
:1043500050DD80000000E80050DD880051DD800065
:104360002E009000808F5000F5FF3900D0C0B300C0
:10437000A7100700A0C0B300A5100700BF003700BA
:1043800040C0B300B91007001E00900048FC0700B1
:104390002E009000E10F500004003A001E00900033
:1043A00052010700ACFBB70013003700100F2E00BE
:1043B000630F07002E0090003DFC070050C0B300C3
:1043C000AA1007000000EB0050DD8800060037004F
:1043D0001E00900045010700ACFBB70050DD8000D7
:1043E0000000E80050DD880051DD80002E009000C4
:1043F000808F5000F6FF3900D0C0B3008410070052
:10440000A0C0B300821007009C003700E101070044
:10441000ACFBB700D0C0B30094100700ACDBBF000A
:10442000400F0700D0C0B30079100700A0C0B30050
:104430007710070091003700E0C0B3008B10070031
:10444000DE010700ACFBB700ACDBBF00350F070097
:10445000D0C0B3006E100700A0C0B3006C100700FE
:10446000860037002E00900011FC070000C1B30049
:104470007E1007002E009000F90107007F00370032
:1044800010C1B30079100700020207007B0037005B
:1044900020C1B3007510070017020700770037002E
:1044A00030C1B30071100700CB0107007300370063
:1044B00040C1B3006D100700E20107006F00370034
:1044C0009E009000510798005E019000E10F51009E
:1044D0000D003200DE019000E18F5100070039002D
:1044E0005E009000E20F50000C003200DE009000F1
:1044F000E38F5000550032005B003700500F2E0054
:104500000F0F07005D003700A700070020142E00E2
:10451000210F07005B0007005800370000152E0030
:104520001D0F0700A000070020142E001A0F07001F
:10453000A90107005300070020C0B300A300070033
:1045400000C0EB00C601070000C0EB00C40107007B
:104550004C00070030C0B3009C0007000000EB00D7
:1045600050DD88000700370050DD80000000E800C3
:1045700050DD880051DD8000900F2000808F5000BA
:1045800003003E00830107000004E000F6FF320054
:104590003C0007008400070020142E00FE0E0700D8
:1045A0003800070030C0B3008800070050DD8000ED
:1045B000BFFB070000162E00F70E07000040EB00BF
:1045C000ACFBB7001A003700ACDBBF000040E800CE
:1045D000B7FB070090172E00D90E0700290107002E
:1045E000B3FB070000C2B300091007002501070054
:1045F000AFFB070000C2B300051007002101070050
:10460000ABFB070000C2B300011007001D0107004B
:10461000A7FB0700D0C0B300FD0F0700A0C0B30088
:10462000FB0F0700ACDBBF000040E800ACFBB700AD
:10463000ACDBBF008080FB0050DD8000808F50002D
:10464000E1FF39000F0007000C003700D0172E00E3
:10465000D10E0700001C2E00CF0E0700501F2E00A9
:10466000CD0E07000500370070C1B300FF0F070033
:104670000200370080C1B300FC0F07000080FA0081
:10468000000006000200FA0000222E00AC0E070017
:10469000A6DBBF000080FB00000F78001E00780042
:1046A000E10F50000E0032001E007800E10F5000B4
:1046B00004003C001E0078000000E0000B00320007
:1046C000350037001E007800E20F50000F00320066
:1046D0001E007800E30F5000240032002E00370047
:1046E00090222E00AC0E07002D003700A401070019
:1046F00010C0B3005A01070010C0B300A6FBB700FA
:1047000060232E00A40E070025003700A7DBBF00A2
:10471000E14F50000A003A00A8DBBF00E14F500013
:1047200002003A002C010700010037004501070094
:104730000040EB00A7FBB70020242E00800E0700EE
:104740007401070020C0B300450107008C01070079
:1047500010C0B3004201070010C0B300A6FBB700B1
:1047600070252E008C0E07000D0037006901070030
:1047700020C0B3003A0107008101070010C0B30058
:104780003701070010C0B300A6FBB70000262E00BB
:10479000810E07000200370090262E007E0E0700D3
:1047A0000080FA00000006000000FA00590107002E
:1047B000A0C0B3002A010700710107000040EB0010
:1047C000A6FBB7000080FA00000006000400FA0013
:1047D000004F7800A6DBBF00E14F5000020032001E
:1047E00070272E006C0E070000222E00540E0700CA
:1047F0001E80FB00100798001E009000E10F500083
:104800000E0032001E009000E10F500004003C003A
:104810001E0090000000E0000B0032002400370072
:104820001E009000E20F5000160032001E009000A3
:10483000E30F5000080032001D00370090222E00C8
:10484000550E07001C003700D7FF070030292E0047
:10485000510E0700180037002E01070010C0B300EA
:10486000FF0007004601070020C0B300FC0007005E
:1048700030C0B300A6FBB70090292E00460E0700FB
:104880000D0037002301070020C0B300F40007002B
:104890003B01070020C0B300F100070020C0B300B7
:1048A000A6FBB700D02A2E003B0E070002003700FF
:1048B000202E2E00380E07000080FA0000000600AF
:1048C0000000FA00C8E2A800C902A900C922A90094
:1048D000C8C2A900CAE2A900CB02A900CB22A90044
:1048E000CAC2A9000080FA00000006000800FA0011
:1048F0004047980000010700A7DBBF00E14F5000D0
:1049000006003A00A8DBBF00910007000040EB0062
:10491000A7FBB700C02F2E001F0E07000BC8BF005B
:10492000684060000004E0000300320010C0B300E3
:10493000004F78000200370000C8B300004F780035
:104940000040EB0030479800450037004E40900093
:104950001E4060000004E00002003A00B9000700B9
:10496000010037009C000700CA000700CAC2BF0050
:104970000080FB004700DE00204798000BC8BF0006
:10498000684060000004E000100032004E409000DB
:104990000080FB000000D100404798001E409000BE
:1049A0000080FB000000D100104798002E409000CE
:1049B000E14F500011003A001E40900001C8B300C2
:1049C00001404000104798000C0037004E40900016
:1049D00000404000404798001E40900000404000CA
:1049E000104798002E409000E14F500003003A001D
:1049F0001E4090000040E80010479800BE000700ED
:104A0000A6DBBF00E24F500012003A003E4090008B
:104A1000E64F50000F003A0010C0B300A7FBB700EC
:104A20004E4090001E4060000004E00003003A0089
:104A30000040EB00A8FBB7000200370010C0B30035
:104A4000A8FBB7001E4090000080FB0030079800D4
:104A5000090037003E4090000040E80030479800D1
:104A60003E409000E74F5000B8FF36001E409000D7
:104A70000080FB00300798003E0090000080FA00A4
:104A8000000006000400FA009B000700A7DBBF003F
:104A9000E14F500006003A00A8DBBF002C000700E1
:104AA0000040EB00A7FBB700C02F2E00BA0D070097
:104AB0000040EB00204798001F00370075000700FA
:104AC000CAC2BF000080FB004700DE00104798000C
:104AD0000BC8BF00684060000004E00008003A0016
:104AE0001E40780000404000004F78001E409000BB
:104AF0000004E0000C0032001E4FE8000A003700FE
:104B00001E80FB000000D100004F78001E40900086
:104B10000004E000040032001E40780001C8B30029
:104B200001404000004F7800730007002E409000C5
:104B30000040E800204798002E409000E74F5000CA
:104B4000DEFF36001E80FB000080FA000000060039
:104B50000400FA00204798002E4090000004E00076
:104B600002003A0037000700010037001A00070072
:104B700048000700CAC2BF000080FB004700DE00FB
:104B8000004F78005C0007001E80FB000080FA00E8
:104B9000000006000200FA003E000700CAC2BF0083
:104BA0000080FB004700DE00004F78005200070045
:104BB0001E80FB000080FA00000006000000FA00E2
:104BC000CAC2BF000080FB004700DE000080FB007F
:104BD0000080FA00000006000000FA00AEDBBF0013
:104BE0006140600000C0EA00614060006140600018
:104BF00000414000912C200091407800D0CFB300BC
:104C000000C0600002407000C9E2B700AEDBBF0028
:104C1000614060006140600000414000B12C200014
:104C200091407800D0CFB30000C060000240700017
:104C3000CBE2B70040C1B30054FA07000080FA008D
:104C4000000006000000FA00CB22A900C922A9003A
:104C500040C1B3004DFA07000080FA0000000600D2
:104C60000400FA00204798000040EB00004F780055
:104C700003003700070007001F0007001E4FE80071
:104C80002E4090009E4F1000FAFF39000080FA007D
:104C9000000006000000FA00AEDBBF0061406000CB
:104CA00000C0EA006140600061416000912C20007A
:104CB00091407800E0CFB30000C060000240700077
:104CC000C9E2B700AEDBBF00614060006141600037
:104CD000B12C200091407800E0CFB30000C060000C
:104CE00002407000CBE2B70040C6B30027FA0700CD
:104CF0000080FA00000006000000FA00CB02A900C4
:104D0000C902A90040C6B30020FA07000080FA00DB
:104D1000000006000000FA00AEDBBF00614060004A
:104D200000C0EA0061406000614060004601DD00B3
:104D3000812C200091407800F0CBB30000C06000CF
:104D400002407000C8E2B700AEDBBF006140600007
:104D5000614060004601DD00A12C200091407800F8
:104D6000F0CBB30000C0600002407000CAE2B700A0
:104D700040C1B30005FA07000080FA0000000600F9
:104D80000000FA00CAC2A900C8C2A90040C1B3000D
:104D9000FEF907000080FA00000006000200FA0099
:104DA000F0C2B300104798000040EB00004F7800BD
:104DB000C922A800CB22A900C922A90005003700FA
:104DC000A0C0B300F1F907001E4090000040E900C8
:104DD000104798001E4090000004E000F8FF3C00DF
:104DE000C922A800C0C3B300E8F90700CBC2BF00C6
:104DF0000080FB000000D1006140600010FCB700A3
:104E000090C2B3001047980005003700A0C0B3005F
:104E1000DEF907001E4090000040E90010479800AE
:104E20001E4090000004E000F8FF3C00CBC2BF0031
:104E30000080FB000000D1006140600011FCB70061
:104E400011DCBF000004E00002003A0010C0B30013
:104E5000004F780010DCBF00E14F500003003A0023
:104E60001E40780000C0E800004F7800A0C0B300EA
:104E7000C6F907001E80FB000080FA000000060053
:104E80000400FA002047980080C0B300004F78006B
:104E90001D0037002E4090006140600012FCB700FA
:104EA000CB22A900C922A90050C0B300B7F907005E
:104EB00012DCBF00614060006140600000414000C2
:104EC000912C200091407800D0CFB30000C060004A
:104ED00002407000C9E2B70020C3B300ABF907007D
:104EE00050C0B300A9F90700C922A800A0C0B300B0
:104EF000A6F907002E4090000080FB000000D100C2
:104F0000204798001E4FE9001E04E000E1FF3C002E
:104F1000A0C0B3009DF907000080FA000000060061
:104F20000200FA00004F7800CB22A900C922A90094
:104F300050C0B30095F907009E40780061C0600042
:104F40006140600000414000912C200091407800B9
:104F5000D0CFB30000C0600002407000C9E2B700CB
:104F600020C3B30089F9070050C0B30087F90700D8
:104F7000C922A800A0C0B30084F907000080FA008D
:104F8000000006000200FA0080C0B300104798003D
:104F90000040EB00004F78001D003700CB22A90035
:104FA000C922A90030C0B30078F90700C922A800BF
:104FB00050C0B30075F90700CBC2BF000080FB00F2
:104FC0000000D1006140600012FCB70040C3B30094
:104FD0006EF907001E80FB000000D100004F780032
:104FE00012DCBF00E14F500004003A001E40780080
:104FF00001C8B30001404000004F7800A0C0B300DA
:1050000062F907001E4090000040E9001047980038
:105010001E4090000004E000E0FF3C00A0C0B30090
:105020005AF907001E80FB000080FA00000006000D
:105030000000FA00CB22A900C922A90030C0B300A9
:1050400052F90700C922A80050C0B3004FF9070069
:10505000CBC2BF000080FB000000D10061406000B7
:1050600012FCB70040C3B30048F90700A0C0B3006A
:1050700046F9070012DCBF000080FB000080FA0048
:10508000000006000800FA00200798003107980089
:105090000040EB00004F78000000EB001007980084
:1050A0000C0037001E009000800078002E00900059
:1050B00000804000104078001E4068008080FB00A7
:1050C000E0992E00614F78001E0090000000E8007B
:1050D000100798009E0090003E009000808F5000C6
:1050E000F0FF35001E80FB000080FA000000060083
:1050F0000C00FA00881F7800004F78001107980014
:10510000220798001E80FB006101B9003207980059
:1051100043079800C0012000010020003E019000DC
:10512000CE019000800F5100818F5900C3013E00D5
:105130003E009000CE009000006001001C0037008F
:1051400040003700600037005F003700BB013700C8
:105150009F0037005E003700B80137006500370058
:10516000B6013700B5013700770037007600370009
:10517000B2013700B1013700B0013700AF0137008D
:10518000AE013700AD013700AC013700AB0137008D
:10519000AA013700A9013700A80137007D003700B8
:1051A00080003700A7013700A4013700A5013700B0
:1051B0002E009000E10F500007003A0010C0B3002D
:1051C0002A0D07006FFF0700F5FAB700F5DABF00F8
:1051D000B7F807001600370020C0B300230D070002
:1051E0002E009000B2F8070030C0B3001F0D07007A
:1051F0000000EB0090D788000900370061FF07002E
:10520000F5FAB700F5DABF00A9F8070000C2B3004D
:10521000FF0C070090D780000000E80090D78800BE
:1052200091D780002E009000808F5000F3FF39004E
:10523000D0C0B300F60C0700A0C0B300F40C070008
:105240008001370040C0B300080D07001E00900029
:1052500097F807002E009000E10F500003003A007D
:105260001E00900006FF070012003700E0D52D0059
:10527000B30B07002E0090008DF8070050C0B3005C
:10528000FA0C07000000EB0090D7880005003700FB
:105290001E009000FAFE070090D780000000E80092
:1052A00090D7880091D780002E009000808F50000A
:1052B000F7FF3900D0C0B300D50C0700A0C0B30081
:1052C000D30C07005F013700610107005D01370063
:1052D00057FF0700F5FAB700D0C0B300E30C070092
:1052E000F5DABF008F0B0700F0C0B300DF0C07003A
:1052F000540137002E0090006DF8070020D62D00D5
:105300008F0B07000000EB0090D7880005003700E6
:10531000E8DABF0002FF070090D780000000E80035
:1053200090D7880091D780002E009000808F500089
:10533000F7FF3900E8DABF007A0B070020D72D000D
:10534000950B07003F01370040D72D007C0B07006D
:10535000C1C0B3009ECF100005003A000040EB0032
:10536000E8FAB7000040EB006E0B070004003700BE
:1053700010C0B300E8FAB70010C0B300690B070013
:1053800000D82D00840B0700E8DABF00E4FE070018
:105390002C0137000B48A9000B88A8000BC8A800F7
:1053A000280137000040EB00F6FAB700C922A80038
:1053B000CB22A900B0DA2D00770B0700C0DD2D004D
:1053C000750B07000040EB00A80C07001D0137001B
:1053D0001E0090000000E000360032009E009000A9
:1053E00020032000808F500032003E001E009000FD
:1053F0000000E90010079800F6DABF008080FB008B
:105400001E009000808F500003003E0060E02D00E1
:10541000610B07000B01370000E32D00480B07006C
:105420001E0090000040E800050C0700F0E32D008E
:10543000430B07000040EB00F4FAB70017003700F9
:105440001E019000F4DABF008080FB004310DD00F5
:105450008100400070AF21000080400010407800C3
:1054600013F8070000C2B300690C07001E0190008A
:10547000F4DABF008080FB004310DD0081004000B3
:1054800070AF210000804000104078007CFE0700D3
:10549000F4DABF000040E800F4FAB700F4DABF0025
:1054A000E74F5000E6FF360020E42D003A0B0700DE
:1054B000E40037001E0190005207980050052000BC
:1054C000DE019000808F5100CD0032005005200099
:1054D000DE009000808F500008003E005E019000CA
:1054E0000200E0001200320030032000DE019000D4
:1054F000808F5100A0003200CD003700C00E200088
:10550000DE009000808F500046003200000F200027
:105510005E019000800F510042003200C00C20005C
:10552000DE019000808F5100BB003200C0003700C8
:1055300040E42D00180B070020E52D00160B070096
:10554000F6DABF000004E00003003A0060E02D003E
:10555000110B0700300037000040EB00F5FAB700F0
:105560002800370000C2B300290C0700F5DABF009D
:105570000040E800B20B0700A0E62D00F00A07008B
:105580000040EB00F4FAB7000F003700F5DABF0077
:105590000081FB00F4DABF008080FB004310DD00D7
:1055A0008100400070AF2100008040001040780072
:1055B000BFF7070000C2B300150C0700F4DABF0004
:1055C0000040E800F4FAB700F4DABF00E74F5000FB
:1055D000EEFF3600C0E62D00D90A0700F5DABF005D
:1055E0000080FB00C300DD0070AF210000804000A0
:1055F00010407800B7000700F5DABF000040E8006F
:10560000F5FAB70061AF210091407800F5DABF00EC
:1056100080CF5000D3FF3E0030E72D00DE0A0700A8
:10562000880037001E0090003CF9B7009E009000F3
:10563000C00E2000808F500003003A0070F42D004F
:10564000D50A070002003700B0F52D00D20A070086
:1056500020E52D00D00A07000040EB00F4FAB70067
:10566000CB000700F5FAB7000040EB00F6FAB700F0
:105670003B00370000C2B300E50B0700F4DABF00BF
:105680000040E8006E0B0700A0E62D00AC0A070002
:105690000000EB0090D788000A00370091D7800007
:1056A00070B42100008040001040780080F70700AF
:1056B00000C2B300D60B070090D780000000E800BE
:1056C00090D7880090D78000E70F5000F3FF360096
:1056D000C0E62D009A0A070047DBBF007D000700E7
:1056E000F4DABF00E94F500018003E000000EB0064
:1056F00090D788000F003700F6DABF008081FB00EA
:1057000094D7800091D7800070B4210000804000C1
:10571000104178004318DD008400400070AF210084
:10572000008040000248780090D780000000E80028
:1057300090D7880090D78000E70F5000EEFF36002A
:10574000F6DABF000040E800F6FAB700F4DABF006E
:105750000040E800F4FAB70098000700F5FAB70037
:10576000F5DABF000004E000C2FF3A0090F62D0019
:10577000890A0700330037003500070050F92D0073
:105780006F0A070030C3B300BDFD07000000EB0047
:1057900090D788001000370098D78000F9FD0700E7
:1057A0008040780090AE210000004400014878005D
:1057B00091D7800090AE210000804000104078001A
:1057C0003BF7070000C2B300910B070090D78000A1
:1057D0000000E80090D7880090D78000E70F5000C5
:1057E000EDFF3600D0C0B300890B0700A0C0B300A6
:1057F000870B0700E9DABF00360007001100370009
:105800001300070070FA2D00630A070050C5B300AB
:105810009BFD07000B0037000D00070080FB2D00EB
:105820005D0A0700C0CCB30095FD070005003700F6
:1058300070C1B3008D0B07000200370080C1B300B8
:105840008A0B07004F0478000080FA000000060071
:105850000200FA0051FD0700004F780080FC2D0087
:10586000370A07001E04E00003003A0030FD2D0057
:10587000490A07001500370060FD2D00300A0700B7
:105880001E80FB00610060000004E00002003200A6
:10589000E0FD2D002A0A07001E80FB000000D10059
:1058A000610060000004E0000200320040FF2D00B3
:1058B000230A070090002E00210A07001E407800EE
:1058C000FBF6070020D72D00330A07000080FA00FE
:1058D000000006000400FA00004F78001E80FB0064
:1058E00010079800200220009E009000808F50003A
:1058F0001A003200200220009E009000808F50008D
:1059000007003C001E009000E40F5000160032001B
:105910009E009000F08F50000A00320018003700FF
:10592000800220009E009000808F5000080032000E
:10593000D00220009E009000808F50000D003200A9
:105940000F003700B0002E00130A07000E003700CA
:1059500070022E00100A07000B00370020042E00F2
:105960000D0A07000800370080052E000A0A07000C
:105970000500370010072E00070A07000200370055
:1059800020082E00040A07000080FA00000006002C
:105990000000FA000040EB004FFBB7000040EB00B6
:1059A00051FBB7000040EB0050FBB70008000700B8
:1059B0000080FB000080FA00000006000000FA00F2
:1059C000030007000080FB000080FA0000000600D2
:1059D0000A00FA0010C0B300704798000040EB00C6
:1059E000604798000040EB005047980010C0B3009B
:1059F000104798000040EB00404798000040EB0043
:105A000052FBB70051DBBF000004E0008B003A00FE
:105A1000E2FC07000004E000090032000040EB0057
:105A20004FFBB7000040EB0051FBB7000040EB001C
:105A300050FBB7000000EB004007980090003700D3
:105A40003CD9BF000EFD070079FD070030479800E4
:105A500077FD0700204798003E409000E14F50003E
:105A600003003A002E409000E14F500063003200E6
:105A7000BE4090002E40900080CF500003003200C6
:105A80003E409000004F780024003700F1B4210020
:105A9000914078007E409000814F50000E00310010
:105AA0005E4090008080FB0070B4210000804000C8
:105AB000904078001E40900080C060000040EB00E5
:105AC000004F78000104E0000B00320010C0B3006A
:105AD000004F7800080037004FDBBF008040EB002C
:105AE000014F7800FE40900080CF500002003A0045
:105AF00010C0B300004F78001E04E00007003A0019
:105B00007E409000604798006E409000E84F500043
:105B100002003E006E40900050FBB70010C0B30082
:105B20009E4F10000D003A005E4090000081FB0087
:105B30005E4090008080FB0070B421000080400037
:105B4000904078001E40900080C0700070B421002A
:105B500000004100014878000F0037005E409000CF
:105B60000081FB005E4090008080FB0070B421004B
:105B70000080400010407800804078001E40900077
:105B800000C0EA0000C060008040780070B42100CE
:105B900000004100014878001E407800E0FC07004A
:105BA0007E4090000040E800704798001E40900042
:105BB00000404000104798001E4090000004E000A4
:105BC0000B003A005E4090008080FB0070B4210022
:105BD0000080400010407800840007005E40900084
:105BE0000040E8005047980010C0B30010479800EC
:105BF0005E409000E74F500093FF3600FE4090005B
:105C000000C4B30080CF50000C00360052DBBF0050
:105C10000004E00009003A006E4090004FFBB7001E
:105C20004FDBBF000004E00002003A0010C0B300E8
:105C300051FBB70010C0B300404798004E409000A1
:105C40000004E0000300320047DBBF000004E00076
:105C500008003A000040EB004FFBB7000040EB00AB
:105C600051FBB7000040EB0050FBB7000040EB00D9
:105C7000404798004E4090000080FB00400798008D
:105C80004E0090000080FA00000006000E00FA00AE
:105C90000040EB00404798000C0037004E40900059
:105CA0000081FB004E4090008080FB0070B421001A
:105CB0000080400090407800650047000171780046
:105CC0004E4090000040E800404798004E40900051
:105CD000E74F5000F1FF36004FDBBF002047980030
:105CE00051DBBF001047980050DBBF00004F780029
:105CF00000C4B3004FFBB7000040EB0051FBB700FE
:105D000033FF07000004E0001A00320010C0B300A7
:105D1000304798000040EB004047980011003700E2
:105D20004E4090008080FB00650047006141780094
:105D30004E4090008080FB0070B421000080400045
:105D400010407800804F5100030032000040EB000B
:105D500030479800090037004E4090000040E800AE
:105D6000404798004E409000E74F5000ECFF36004F
:105D7000020037000040EB00304798000040EB0085
:105D8000404798000C0037004E4090000081FB0017
:105D90004E4090008080FB0065004700E1407800A5
:105DA00070B4210000004100014878004E4090008E
:105DB0000040E800404798004E409000E74F5000F8
:105DC000F1FF36002E4090004FFBB7001E409000C0
:105DD00051FBB7001E40780050FBB7003E409000DA
:105DE0000080FB000080FA00000006000200FA00BC
:105DF000004F780052DBBF001E4068008080FB002F
:105E0000D0932100008040001040780052FBB70082
:105E100052DBBF000080FB000080FA00000006009B
:105E20000A00FA00004F7800110798002207980036
:105E30001E80FB00300798003E009000F80F5000D5
:105E4000170032003E009000F80F50000A003C009E
:105E50003E009000E10F5000380032003E009000FC
:105E6000E50F50004F0032003E0090000000E000BF
:105E7000110032006E0037003E009000FA0F500013
:105E80006D0032003E009000FA0F50000600350011
:105E90003E009000FC0F50006700320064003700A5
:105EA0000BC8A800640037009D0007000040EB000D
:105EB000EE090700600037002E009000E10F50004F
:105EC00005003A0010C0B300E80907002E010700E2
:105ED0005B0007001400370020C0B300E30907008F
:105EE0002E00900072F5070030C0B300DF090700F4
:105EF0000000EB0070DE8800070037002201070079
:105F00004F00070000C2B300C109070070DE800027
:105F10000000E80070DE880071DE80002E00900036
:105F2000808F5000F5FF3900D0C0B300B8090700DA
:105F3000A0C0B300B60907003F00370040C0B3005F
:105F4000CA0907001E00900059F507001E009000C6
:105F50004B010700D0FBB700D0DBBF000004E0001E
:105F600003003A0060C0B300C00907000800370012
:105F7000D0DBBF00E14F500003003A0070C0B30017
:105F8000BA09070002003700E0B82E006C080700CD
:105F9000D0C0B3009E090700A0C0B3009C09070051
:105FA000250037001E009000400798004E0090002A
:105FB0000000E000040032004E009000E10F5000AD
:105FC0000400320017003700B0B92E007208070035
:105FD0001900370020BC2E006F080700EA000700F8
:105FE0000004E00004003A00D3DBBF0030F50700F6
:105FF00000C2B3008609070022C2BF0061406000F2
:106000000004E000F5FF320030118000D0FBB70043
:10601000D0C0B3007E090700A0C0B3007C09070010
:106020000500370070C1B300900907000200370077
:1060300080C1B3008D0907000080FA00000006004F
:106040000400FA00004F78001E80FB001007980043
:106050009E009000E28F50001D0032001E00900054
:10606000E20F500007003C009E0090000100E0009D
:106070000F0032001E009000E10F500011003200AE
:10608000230037009E009000E48F50001A00320079
:106090001E009000E40F500012003500F00F2000A9
:1060A0009E009000808F50001600320018003700CC
:1060B000D3DBBF00FEF4070000C2B30054090700A1
:1060C00015003700F0BD2E001D0807001200370034
:1060D000D3DBBF00F6F4070000BF2E00180807004E
:1060E0000D003700D3DBBF00F1F40700F0BF2E0036
:1060F0001308070008003700E0B82E00100807005A
:1061000005003700F0C02E000D0807000200370020
:1061100050C12E000A0807000080FA0000000600A7
:106120000000FA00C922A800C902A900CB02A900F8
:10613000CB22A9000080FA00000006000400FA004B
:106140000040EB002E0107000004E00003003200D5
:1061500020002000100798000E003700CBC2BF00BF
:106160000080FB000000D10061406000004F78001B
:1061700010C0B300220107000004E0000300320059
:106180002000200010079800020037001E80FB004E
:10619000100798001E0090000080FA000000060022
:1061A0000600FA000040EB00204798000040EB009A
:1061B00010479800CBC2BF000080FB000000D10058
:1061C000614060006141600021BD21009140780084
:1061D000E0CFB30000C0600002407000D2FBB70007
:1061E000D2DBBF00614060000004E0000300320029
:1061F00010002000200798006000370010C0B30096
:10620000FF0007000004E00003003200410020000E
:1062100021079800590037000040EB0030479800F4
:10622000190037001E4090000080FB000000D100E4
:1062300010479800C1FF0700004F780020C0B3004E
:106240009E4F100003003A004100200021079800F3
:106250004A00370010C0B3009E4F100007003A00FC
:106260009E40900000C8B30000C040001047980056
:106270002E4090000004A200204798003E4090006D
:106280000040E800304798003E409000E74F500043
:10629000E4FF36001E409000D3FBB700A7FF0700C5
:1062A000004F780021C0B3009ECF100003003A00D9
:1062B0004000200020079800300037009E40780002
:1062C00061C060006141600041BD210091407800E3
:1062D000E0CFB30000C0600002407000D4FBB70004
:1062E000D4DBBF0061406000804078002E40900009
:1062F00080CF500004003A00D45BA80020002000AA
:10630000200798001D003700D45BA9008BFF070011
:10631000004F780021C0B3009ECF100003003A0068
:106320004000200020079800140037009E407800AD
:1063300061C06000614060000041400041BD21003B
:1063400091407800D0CFB30000C0600002407000E0
:10635000D4FBB700C902A900D4DBBF0062406000D3
:106360000004E00003003A003000200020079800FD
:10637000020037008000EB00210798002E009000FB
:106380000080FA00000006000200FA0000C0EB00E6
:10639000004F7800C922A800C902A8000040EB0005
:1063A0001047980010003700CBC2BF00614060006A
:1063B0000004E00007003A0079FF0700004F780072
:1063C0001E04E0000B00320040C0B3009E4F1000DE
:1063D0000800320050C0B3006CF407001E4090006B
:1063E0000040E800104798001E409000E14F400038
:1063F000EDFF3A00C902A9001E80FB000080FA00F0
:10640000000006000400FA00004F780010C0B3003E
:106410007B0007000004E0000300320020002000A1
:1064200010079800130037009E40780061C060009C
:106430006140600000414000912C200091407800B4
:10644000D0CFB30000C0600002407000C9E2B700C6
:106450000040EB006A0007000004E0000300320087
:106460002000200010079800020037008000EB0099
:10647000110798001E0090000080FA00000006003E
:106480000800FA00404798000040EB0020479800C1
:10649000C902A900CB02A900C0C3B3003BF40700A6
:1064A000CB22A900C922A900C902A80010C0B300CC
:1064B00036F407000040EB00510007000004E00044
:1064C00003003200400020003007980049003700E8
:1064D0000000EB00000F78001C0037004E409000D9
:1064E0000080FB00610060000004E0000B0032004F
:1064F00010C0B300C3FF07000004E0000300320037
:1065000040002000300798003A0037002E409000ED
:106510000004A20020479800070037000040EB006D
:10652000B8FF07000004E000030032004000200034
:10653000300798002F0037004E4090000080FB008D
:106540000000D100404798001E0FE80070002000B6
:106550009E0F1000E1FF36002E4090000004A200C4
:10656000204798002E409000A6FF07000004E0009E
:106570000300320040002000300798001D00370063
:10658000C922A800CB22A90010C0B3001C0007003C
:106590000004E000030032004000200030079800B3
:1065A00014003700E5FE0700E24F500003003A00F8
:1065B00040002000300798000E003700DFFE070083
:1065C0000080FB00000F7800200020009E0F1000CC
:1065D00003003A0040002000300798000500370013
:1065E000C902A900CB02A9001E0078000080FB00B0
:1065F000300798003E0090000080FA00000006007E
:106600000600FA00204798000080EB00000F780099
:10661000CBC2BF0061406000804078002E409000F7
:1066200080CF500003003A000000EB0020079800E4
:10663000050037001E0FE9001E00E000F4FF3A00DD
:1066400010002000200798002E0090000080FA0023
:10665000000006001400FA00881F780080DD80002A
:10666000E20F50000B003A0011E1A900516C20002C
:106670009140780000CEB30000C06000C5E6B700CE
:10668000C0892E00C40607000000EB0080DD8800F2
:1066900091003700908A2E00BF060700608D2E0003
:1066A000A70607002203200001FA20004000200076
:1066B0001A05070030079800808E2E00A0060700FC
:1066C0003E009000E30F500007003E00208F2E0098
:1066D000B1060700E00320002007980010A1A800E1
:1066E0001081A8001B0037003E009000FE0F5000F4
:1066F00007003E00608F2E00A7060700A00F2000B5
:106700002007980010A1A8001081A90011003700EF
:10671000BE009000400F2000808F500007003E0018
:10672000908F2E009C060700007D20002007980017
:1067300010A1A9001081A80006003700B08F2E001C
:106740009506070000E823002007980010A1A90083
:106750001081A9002E0090003E0190001100090058
:106760000280D8000000E90050079800D08F2E006A
:10677000730607005E00900002070700D0C0B30058
:10678000A3070700A0C0B300A107070020902E00B8
:106790006B060700220320003106200020002000A5
:1067A000DE040700000478006140B9005AEC0700DD
:1067B000000F9800110F98000800E00007003D004E
:1067C00002002000037824000E0890009E0890002C
:1067D0007DEC0700000F9800110F98000E08900044
:1067E0009E089000008FBE0002002000832C240031
:1067F0001E00BE00D1EC0700008FBE005E009000BE
:10680000CF80DE0044EC0700600798007107980015
:106810005E0090000000E00007003D000200200044
:10682000037824006E009000FE00900066EC0700E4
:1068300060079800710798001E01BE006E0090006E
:10684000FE009000FFEC070032ED070040079800C3
:10685000516C20009140780000CEB30000C0600071
:106860006041B300C5E6B7001061A9001E61A90030
:106870001021A900C11920009140780080CFB300F9
:1068800000C060009CE1B700CE009000D10C8800F1
:106890004E009000C00C88009DA1A9009C81A90019
:1068A0009C61A900C11920009140780080CFB300FD
:1068B00000C060006040B3009CE1B700DE009000C3
:1068C0006108880011E1A80030912E00320607000F
:1068D0002000200080DD88004F0478000080FA004E
:1068E000000006000000FA0080DD8000E20F50008A
:1068F00003003A00E0912E00270607007A003700D7
:10690000F0932E000E0607001FE1A90011E1A90077
:10691000C8A2A800616820009140780000CEB300B2
:1069200000C060005040B30086E6B7001061A800C8
:1069300010A1A8001081A8001021A8000080EB0081
:10694000700888000080EB00600888000000EB0001
:10695000400888000000EB00300888000000EB00D1
:10696000B00888000000EB00A00888001E61A800A5
:106970001E81A9001EA1A9001E21A9001EC1A900F7
:10698000400F2000E008880000402200D008880066
:106990008780A9001FE1A80011E1A80087C0BF00FF
:1069A000704060000004E000FCFF320011E1A9002B
:1069B0001FE1A90030088000C0DD88004008800089
:1069C000B0DD8800B0DD80000100200090DD88008F
:1069D000A1DD880090DD8000A1DD8000C000DD0029
:1069E0000000200090DD8800A1DD8800C0DD80006F
:1069F0006101B80090DD8000A1DD80000200400050
:106A00008380480090DD8800A1DD880090DD800053
:106A1000A1DD8000C808DD000080FD008040780016
:106A20000040EB0090DD8800A1DD880090DD800053
:106A3000A1DD80000F06070060952E00C00507004D
:106A400092DD8000A3DD8000703E20000100200068
:106A5000800F5100818F59001C00360092DD8000AC
:106A6000A3DD8000F0232400F1002000800F5100FE
:106A7000818F59000B003E0090952E00B005070055
:106A800090DD8000A1DD8000823E20000300200018
:106A9000BBEC0700F7050700C0952E00A80507000E
:106AA0000A00370090952E00A505070090DD8000B4
:106AB000A1DD800002242400F3002000B0EC0700D8
:106AC000EC05070010962E009D050700D0C0B3000E
:106AD000CF060700A0C0B300CD06070086C6BF00E2
:106AE000F041B30086E6B7000080FA00000006001F
:106AF0000000FA000BC8BF00614060000004E00025
:106B000002003A00C8A2A80001003700C8C2A800CD
:106B100060962E00A00507000080FA000000060025
:106B20000000FA000BC8BF00614060000004E000F4
:106B300003003A00C8A2A900CAA2A80002003700B8
:106B4000C8C2A900CAC2A80050972E00920507002B
:106B50000080FA00000006000000FA000BC8BF0029
:106B6000614060000004E00003003A00C8A2A900F0
:106B7000CAA2A90002003700C8C2A900CAC2A9005F
:106B8000E0972E00840507000080FA000000060050
:106B90000200FA000BC8BF00614060000004E00082
:106BA00009003A00C8A2A800000000000000000090
:106BB000CAC2BF000080FB004500DE0061406000EB
:106BC000004F780008003700C8C2A800000000008D
:106BD00000000000CAC2BF000080FB004600DE00CB
:106BE00061406000004F780060982E005405070057
:106BF0001E4078004B050700D0C0B3008406070094
:106C0000A0C0B300820607000080FA000000060062
:106C10000A00FA00004F7800110798002207980038
:106C2000204080006101B8000080EB008080EB0014
:106C30000201400083814800320798004307980012
:106C400090002000010020003E019000CE01900045
:106C5000800F5100818F59003F003E003E009000A0
:106C6000CE00900000600100090037000D003700E1
:106C70001100370015003700190037001D003700DC
:106C80002100370025003700290037002D0037008C
:106C90002E0190009E0090001E40780014F907001D
:106CA0002E0037002E0190009E0090001E407800BC
:106CB000FB060700290037002E0190009E0090007F
:106CC0001E4078004FF20700240037002E0190008C
:106CD0009E0090001E40780085EF07001F003700DF
:106CE0002E0190009E0090001E40780021F50700C4
:106CF0001A0037002E0190009E0090001E40780080
:106D0000E8EC0700150037002E0190009E0090006F
:106D10001E4078008BEE0700100037002E01900017
:106D20009E0090001E4078003DFC07000B003700DD
:106D30002E0190009E0090001E407800F70707008B
:106D4000060037002E0190009E0090001E40780043
:106D50009F08070001003700CBC2A9000080FA009D
:106D6000000006000000FA00B00020000080FA00D9
:106D7000000006000000FA00204080008000400073
:106D800040B521000080400010007800EC040700AE
:106D90000080FA00000006000200FA00004F7800B0
:106DA0001E80FB008000400040B5210000804000B4
:106DB00010007800E20407000080FA0000000600DE
:106DC0000800FA00004F780000C6B3009E4F100084
:106DD00007003600A0C7B3009E4F100004003E001D
:106DE0001E40780001CEB30001404000004F780003
:106DF0001E80FB006101B900D0FD2F00F1FF2F00C4
:106E00000201400083814800220798003307980060
:106E1000D0022000010020002E019000BE01900051
:106E2000800F5100818F590062003E002E009000BB
:106E3000BE00900000600100520037005D00370086
:106E40005C0037005B0037005A00370059003700FC
:106E50005800370057003700520037005500370000
:106E600054003700530037005200370051003700FC
:106E7000500037004F0037004E0037004D003700FC
:106E80004C0037004B0037004A00370049003700FC
:106E900048003700470037004600370045003700FC
:106EA0004200370043003700200037004100370020
:106EB0004000370031003700280037003D00370020
:106EC0003C0037001B0037001C003700390037003A
:106ED0001C0037003700370036003700110037003C
:106EE0000300370033003700030037000400370089
:106EF000B000070032003700DD0007003000370027
:106F00000BC8BF00704060000004E00003003A00BE
:106F100080C1B300D505070029003700E100070054
:106F2000270037000701070025003700D9050700B3
:106F3000230037006BFE070021003700C5FD070066
:106F40001F0037003F000700204080000000E000E5
:106F50001B0032006E00070019003700204080003F
:106F60000000E00003003A0080C1B300BF05070045
:106F70001300370016010700110037002F0107002A
:106F80000F00370040C22E008304070023C2BF0059
:106F9000614060000004E000FCFF32000000FE00E1
:106FA000070037004301070005003700090007000C
:106FB000030037008000EB00110798000200370043
:106FC00012002000120798001E0090000080FA00B6
:106FD000000006000200FA00A0C22E0058040700BC
:106FE00012002000F10F2000A0002000CB020700BB
:106FF000004F78001E80FB0042050700D0C0B300A0
:1070000083050700A0C0B300810507001E4078007B
:107010000B050700D0C0B3007D050700A0C0B3007A
:107020007B0507001E40780075040700D0C0B30040
:1070300077050700A0C0B300750507000080FA00BF
:10704000000006000200FA0030C32E0052040700C0
:10705000E0C32E0050040700D0C52E004E040700E8
:1070600030C72E0036040700304080003805070086
:10707000A0C72E00320407004040800034050700FE
:1070800020C82E002E04070040408000000F78002A
