:020000040000FA
:100000000002040000000000D89F0000D89F0000FC
:10001000D89F0000D89F0000D89F0000D89F000004
:10002000D89F0000D89F0000D89F0000D89F0000F4
:10003000D89F0000D89F0000D89F0000D89F0000E4
:10004000D89F0000D89F0000D89F0000D89F0000D4
:10005000D89F0000AC6E0000D26E0000D89F000058
:10006000D89F0000D89F0000D89F0000D89F0000B4
:10007000D89F0000D89F0000D89F0000D89F0000A4
:10008000D89F0000D89F0000D89F0000D89F000094
:10009000D89F0000D89F0000D89F0000D89F000084
:1000A000D89F0000D89F0000D89F0000D89F000074
:1000B000D89F0000D89F0000D89F0000D89F000064
:1000C000D89F0000D89F0000D89F0000D89F000054
:1000D000D89F0000D89F0000D89F0000D89F000044
:1000E000D89F0000D89F0000D89F0000D89F000034
:1000F000D89F0000D89F0000D89F0000D89F000024
:10010000D89F0000D89F0000D89F0000D89F000013
:10011000D89F0000D89F0000D89F0000D89F000003
:10012000D89F0000D89F0000D89F0000D89F0000F3
:10013000D89F0000D89F0000D89F0000D89F0000E3
:10014000D89F0000D89F0000D89F0000D89F0000D3
:10015000D89F0000D89F0000D89F0000D89F0000C3
:10016000D89F0000D89F0000D89F0000D89F0000B3
:10017000D89F0000D89F0000D89F0000D89F0000A3
:10018000D89F0000D89F0000D89F0000D89F000093
:10019000D89F0000D89F0000D89F0000D89F000083
:1001A000D89F0000D89F0000D89F0000D89F000073
:1001B000D89F0000D89F0000D89F0000D89F000063
:1001C000D89F0000D89F0000D89F0000D89F000053
:1001D000D89F0000D89F0000D89F0000D89F000043
:1001E000D89F0000D89F0000D89F0000D89F000033
:1001F000D89F0000D89F0000D89F0000D89F000023
:10020000FFFFFF00FFFFFF00D89F0000D89F000006
:10021000D89F0000D89F0000D89F0000D89F000002
:10022000D89F0000D89F0000D89F0000D89F0000F2
:10023000D89F0000D89F0000D89F0000D89F0000E2
:10024000D89F0000D89F0000D89F0000D89F0000D2
:10025000D89F0000AC6E0000D26E0000D89F000056
:10026000D89F0000D89F0000D89F0000D89F0000B2
:10027000D89F0000D89F0000D89F0000D89F0000A2
:10028000D89F0000D89F0000D89F0000D89F000092
:10029000D89F0000D89F0000D89F0000D89F000082
:1002A000D89F0000D89F0000D89F0000D89F000072
:1002B000D89F0000D89F0000D89F0000D89F000062
:1002C000D89F0000D89F0000D89F0000D89F000052
:1002D000D89F0000D89F0000D89F0000D89F000042
:1002E000D89F0000D89F0000D89F0000D89F000032
:1002F000D89F0000D89F0000D89F0000D89F000022
:10030000D89F0000D89F0000D89F0000D89F000011
:10031000D89F0000D89F0000D89F0000D89F000001
:10032000D89F0000D89F0000D89F0000D89F0000F1
:10033000D89F0000D89F0000D89F0000D89F0000E1
:10034000D89F0000D89F0000D89F0000D89F0000D1
:10035000D89F0000D89F0000D89F0000D89F0000C1
:10036000D89F0000D89F0000D89F0000D89F0000B1
:10037000D89F0000D89F0000D89F0000D89F0000A1
:10038000D89F0000D89F0000D89F0000D89F000091
:10039000D89F0000D89F0000D89F0000D89F000081
:1003A000D89F0000D89F0000D89F0000D89F000071
:1003B000D89F0000D89F0000D89F0000D89F000061
:1003C000D89F0000D89F0000D89F0000D89F000051
:1003D000D89F0000D89F0000D89F0000D89F000041
:1003E000D89F0000D89F0000D89F0000D89F000031
:1003F000D89F0000D89F0000D89F0000D89F000021
:10040000AF252200007F22000001880000000000CC
:100410000C000700A00729000100200011000700C0
:10042000000020000000E000020032000000020096
:1004300000000000FA9E0200000000000040DA0008
:100440000000FE004440A900203320000000E0002E
:100450000300320000002000A00188004440A800F2
:100460000000060091018800800078000000EB0089
:1004700015003700E280400032A0B4009101BA00BC
:10048000E280400032A0B4009102BA00E280400055
:1004900032A0B4000002EB00472BDE00F507B200EB
:1004A000602CE10004003A000059EB008301E900F0
:1004B000FDFF3E00040037006128E100010032002A
:1004C0000082EB00040007001101BA000200E00006
:1004D000E8FF3A00000006003159BA008301E90044
:1004E0000C0032002159BA008301E90008003200F3
:1004F0000400E00003003A00E280400032A0B400B3
:10050000F5FF370011D9BA008301E900FAFF3A007C
:100510008100E800E180400032A0B4000000060045
:1005200000000000000000000000000000000000CB
:1005300000000000000000000000000000000000BB
:1005400000000000000000000000000000000000AB
:10055000000000000000000000000000000000009B
:1007C000889FBE008A9FBE00010578000100E000FE
:1007D0000400350008003C000000E000200032006A
:1007E0000500370060001000E080180002003B00A8
:1007F00001F02C001A0037000004BE006011B800A0
:100800006B0920000982CF00020039000882CF0066
:100810000441B000694252000E00320008003B0063
:1008200082817100610164008904D1000884D300D1
:100830008B05E8000442E800F9FF3A0005003700A4
:100840000804440089844C008B05E9000442E90057
:10085000FBFF3A002C0107000AF0A70001F0A000FE
:100860004F05BE004F04BE0000000600F4FF2F003D
:100870004B0137001400200049013700889FBE005B
:100880008A9FBE008C1F780060010700670133005B
:1008900003866C006450E1002E0032006420E10009
:1008A000330032006150E1002F0032006120E1008E
:1008B0003100320085855500EB07B00009002000AB
:1008C00008042000050037000804440089844C0017
:1008D0000A0031000603430087834B0000015300E8
:1008E00081815B00F8FF33000203BE000800A00016
:1008F0000804440089844C00F6FF3900C639DD0045
:100900008301730001003200130020008904D1002C
:100910000884D3000998A300050032000800A7004E
:100920000300A0008904D1000884D3008B05E800EF
:100930008904D1000884D3000001EB000281D200B9
:10094000F100070001F0A1000CF0A70001F0A000E9
:100950003F0137006420E100410132000801BE0080
:100960000200BE00F7FF37006120E1003C013200C9
:100970006000B800F3FF37000000200001F82700F6
:10098000F0FF370003F0A200889FBE008A9FBE00E0
:100990008C1F78001D010700240133006450E10022
:1009A0004F0032006420E1005200320003826C00EC
:1009B00007003B000905D0000306D000820F540059
:1009C0000C065D0002003900020032008901780047
:1009D000030678008582550004003D000003FD00F9
:1009E0008103FD008502EA008B854200840F7200BE
:1009F00002003B0060001000E08018006011B800A9
:100A00000005EB007A28E1000A00390006007800B2
:100A1000C75DDD00F707B200878075002D00370045
:100A2000828171000A017800610560008180D10037
:100A30000080D3008502E900F9FF3B000604400076
:100A40008784480002003B0060041400E0841C001E
:100A50000988A300070032008A8171008281710039
:100A6000610164008904D1000884D3008B05E8008B
:100A7000170037000978A30013003A000B00E000CC
:100A8000130034008B05E9000804440089844C00FD
:100A90000A4474000978A3000D003A000B00E0003E
:100AA000070034008B05E9000804440089844C00E9
:100AB00001003A000B0020000978A300F7FF320084
:100AC0000001EB0002003700828171000A0178000A
:100AD0008D0007000CF0A70001F0A000DC0037003B
:100AE0006420E10002003A00838F6C00DC003300D8
:100AF0000801BE000200BE00D5003700889FBE007E
:100B00008A9FBE008C1F7800C0000700C70033001A
:100B100003866C006450E100240032006420E10090
:100B2000270032006150E100220032006120E10024
:100B3000210032008B854200EB07B1000134B80080
:100B4000003AB8000804420089844A00013AB8001B
:100B50000030B8008880400009014A0004003300DA
:100B60000000400081804800020149008B05E90037
:100B7000C909DD008301700001003200130020006C
:100B8000C814DE004814DD004709DE001200B20080
:100B9000C808DE00088470005B00070001F0A100B7
:100BA0000CF0A70001F0A000A90037006120E100CF
:100BB000AB0032000801BE000200BE00F7FF3700A4
:100BC0006150E100FCFF3A00A50037000001BE00C3
:100BD000A60007000470A70003F0A10003F8A3001B
:100BE00013003A006509B100100032000900350019
:100BF0006928E1000200350001002800000005001E
:100C000000004000818048008502E900FCFF3A00B6
:100C100000000600F88F4200050035008100D10079
:100C20000080D3008502E800FCFF3A0000000600C7
:100C30008000EB00000005006022B80006022000E2
:100C40000000D0008180D2000482D2008582D200D0
:100C50000000A0000202520083825A00030031000B
:100C60000202420083824A000000A1000603E9005C
:100C7000F3FF3A0000000600EFFF07000400BE008B
:100C8000000006000001BE00780007000470A70005
:100C900003F0A1006509B100160032000D00350017
:100CA0006828E10006003500F0FF2F00F1FF270063
:100CB0000300E00013003B000100280000000500D5
:100CC00000004000818048008502E900FCFF3A00F6
:100CD00008003700F88F420002003C008000EB0063
:100CE000000005008100D1000080D3008502E800EB
:100CF000FCFF3A000300E00002003B00600010002F
:100D0000E08018000000060081002000618055008E
:100D10000B003D000B00200061FE2F000100E100F0
:100D20001D00340082817100610164008904D100DA
:100D30000884D3000000E800FAFF3A0071002000A8
:100D400061006400030070000200600009003200CE
:100D500061044400E0844C000988A50005003200CD
:100D60008B05E8006808E10002003A008904D10020
:100D70000884D300F20F20000258E10005003D0076
:100D8000C75DDD00F907B2008980750008007800B2
:100D9000000006000BF827008B007800000005001B
:100DA000889FBE008A9FBE00841F7800170007003E
:100DB0004F00780011003300F0FF2F00838F6C008C
:100DC00006003B00040565000A00A7000800370084
:100DD00009F0A6001000200008003700820F540020
:100DE000838F5C00030039001000200001003E00EA
:100DF0000000200009F0A7000000EA004F05BE0037
:100E00004F04BE000000E000000006000004BE0029
:100E1000160007000003BE000405BE000200BE006D
:100E200012000700844F7500000006000200BE009B
:100E30006450E100050036006420E1000200360045
:100E40000968A30001003A000800BE000160A0008C
:100E50004F0678004F05BE004F04BE00000006009C
:100E6000F0FF2F00F1FF2700F9FF3700C70ADE006F
:100E7000F107B200F50FB20008003200E1CF4200E6
:100E8000020032000170A00024000500810F7000F4
:100E9000010032000408050044000500810F7000C5
:100EA00002003A00140005008502E900000040003D
:100EB00081C04800FCFF3B000170A0002400050039
:100EC000005E0000BCE20000613F0000DD83000026
:100ED000C29C00007E200000A3FD00001F41000016
:100EE0009DC30000217F0000FCA20000401E000006
:100EF0005F010000E3BD00003E60000082DC0000F6
:100F0000237D00009FC10000421C0000FEA00000E5
:100F1000E1BF00005D03000080DE00003C620000D5
:100F2000BEE00000025C0000DF810000633D0000C5
:100F30007C220000C09E00001D430000A1FF0000B5
:100F400046180000FAA40000277900009BC50000A5
:100F500084DA000038660000E5BB00005907000095
:100F6000DB85000067390000BAE400000658000085
:100F700019470000A5FB000078260000C49A000075
:100F8000653B0000D9870000045A0000B8E6000065
:100F9000A7F900001B450000C69800007A24000055
:100FA000F8A60000441A000099C70000257B000045
:100FB0003A64000086D800005B050000E7B9000035
:100FC0008CD20000306E0000EDB30000510F000025
:100FD0004E100000F2AC00002F71000093CD000015
:100FE000114F0000ADF30000702E0000CC92000005
:100FF000D38D00006F310000B2EC00000E500000F5
:10100000AFF10000134D0000CE900000722C0000E4
:101010006D330000D18F00000C520000B0EE0000D4
:10102000326C00008ED00000530D0000EFB10000C4
:10103000F0AE00004C12000091CF00002D730000B4
:10104000CA94000076280000ABF5000017490000A4
:1010500008560000B4EA000069370000D58B000094
:1010600057090000EBB50000366800008AD4000084
:1010700095CB000029770000F4AA00004816000074
:10108000E9B70000550B000088D60000346A000064
:101090002B75000097C900004A140000F6A8000054
:1010A000742A0000C8960000154B0000A9F7000044
:1010B000B6E800000A540000D78900006B35000034
:1010C0004C45000054000000494600000054000058
:1010D000484500004E000000454C0000534500000C
:1010E000004700004F5400004F000000474F000031
:1010F00053550000420000005245000054550000C6
:10110000524E000000520000454D0000005000000B
:10111000524900004E540000004900004E500000AB
:1011200055540000004600004F52000000540000DB
:101130004F0000004E4500005854000000520000CF
:1011400045410000440000004441000054410000BB
:1011500000530000544100005254000000530000AE
:10116000544100005254000052000000535400004B
:101170004F50000000530000544F00005052000038
:1011800000530000454E000044000000524500009E
:10119000434500004956000045000000434C000054
:1011A0004B00000044410000540000004249000090
:1011B000545200004541000044000000414400003A
:1011C000430000004155000058000000505300004B
:1011D00055000000505500004C4C000055500000D8
:1011E0000041000055580000504900004E0000002A
:1011F00046520000455100000044000055540000D4
:1012000059000000444500004C4100005900000016
:101210004D410000435200004F000000454E0000C9
:101220004400000000520000554E0000004C000039
:101230004953000054000000455800004954000084
:10124000004400004542000055470000004E0000E9
:1012500045570000000000003E200000000800008C
:101260002008000000000000203D000020000000D9
:101270002E2000003C0000003E0000002E20000058
:10128000000D00000A280000002900003E20000098
:1012900000420000757300002050000069720000D9
:1012A00061740000652000007631000061000000DC
:1012B00046690000726D00007761000072650000F1
:1012C00020760000352E0000322000002872000039
:1012D0003430000038290000002000002800000001
:1012E000413300000042000034000000423500009D
:1012F0000042000038000000554E00004B00000086
:101300002900000049090000004F0000090000000A
:1013100048090000004C000009000000495300008B
:101320004F20000037380000313600002D33000018
:1013300020720000657000006C7900002028000019
:101340007573000065730000206300007572000073
:10135000726500006E740000204C000053420000D3
:101360002073000065740000746900006E6700005F
:10137000293A0000200000000052000065610000D2
:101380006420000074790000706500003A200000BD
:10139000004400006174000061200000756E0000D0
:1013A00069740000206C0000656E00006774000026
:1013B00068200000286200006974000073290000A2
:1013C0003A200000000000000100000000000000C2
:1013D0000302000000000000000000000100000007
:1013E00006000000040100000003000000000000EF
:1013F00000000000060000000805000007030000D0
:1014000000060000000000000000000000000000D6
:1014100000000000306200000030000030300000AA
:101420002C0000003030000000300000313200009D
:1014300033340000353600003738000039410000F1
:1014400042430000444500004630000078000000A0
:10145000436F0000756C0000646E0000277400008C
:10146000206B0000656500007020000075700000B2
:10147000000000005350000049310000000000004F
:101480003A200000000000002E00000028000000AC
:10149000290000003157000030310000000000003A
:1014A000002900000020000057000000205200002A
:1014B000004900003243000031000000080800002D
:1014C000080800000800000000000000204800009C
:1014D0007A000000000000000041000052540000AB
:1014E0003100000042420000494F0000310000007E
:1014F000524100005731000000000000314100005F
:101500004C530000000000004F4300004431000035
:1015100000000000000000002900000000000000A2
:10152000000000001800FA000000EB00000F980017
:101530000000EB00606888000000EB005068880045
:101540000000EB00A04088000000EB0070688800FD
:101550000000EB00000F78000000EB00300798005F
:10156000140037000000EB00100798000B00370054
:101570003E0090009E0090004500DD00810040008C
:1015800000D12000808040000040EB0080487800BF
:101590001E0090000000E800100798001E00900058
:1015A000FF0F5000F2FF34003E0090000000E80002
:1015B000300798003E009000E40F5000E9FF34002F
:1015C0000000EB00806D8800A1408000C002200078
:1015D0000088B9004102200080804000E093200094
:1015E00000804000F869020000000000D140800047
:1015F00000202000008060000000E00004003200B5
:1016000071002000F06B2000DE9B02000000000053
:10161000C0922800F869020000000000EB003700CB
:10162000806D80000000E00063003200806D80006B
:101630000000E900806D88000000EB0010079800B2
:101640001E00370052688000806D80009E00900070
:101650004500DD008100400000D1200000804000F6
:1016600090407800A0C020000000410001487800B0
:10167000806D80009E0090004500DD0081004000EC
:1016800000D120000080400010407800546E02001D
:1016900000000000506880000000E80050688800EA
:1016A0001E0090000000E8001007980051688000BC
:1016B000F00F20000080600050688800806D80007E
:1016C0009E0090004500DD008100400000D1200018
:1016D00000804000104078000004E000D9FF3A008C
:1016E0000000EB00806D88003300370050B620000A
:1016F00010407800624060000004E0002E003200DC
:10170000A1408000C00220000088B900FA0040001B
:10171000E0932000008040001000780000000100ED
:101720000000E00024003200A1408000C002200040
:101730000088B9004102200080804000E093200032
:1017400000804000F869020000000000C0922800FC
:10175000F8690200000000006168800050688000A5
:10176000808F5000140032006068800010079800DD
:101770000D0037009E009000A0C0200000804000B7
:1017800010407800546E0200000000009E0090009F
:10179000F00F200000806000100798001E009000ED
:1017A0000000E800100798009E009000506880003C
:1017B000808F5000EFFF3A00366E020000000000FC
:1017C0000004E000C9FF3200426E02000000000089
:1017D000404798004E4090000080FB00100F98009A
:1017E0001E089000E80F5000110032009E08900083
:1017F000E88F500007003C001E0990000200E00046
:101800003C0032009E099000E28F510042003200FD
:10181000490037001E089000EA0F50001300320004
:101820009E089000ED8F50001000320042003700FB
:101830005168800060688000808F50006300320033
:10184000506880000000E9005068880051688000FE
:10185000F00F20000080600050688800F09228009F
:10186000F869020000000000580037001000200056
:10187000000F9800506880008000E800F00F200002
:101880008080600060688000808F50000D00320012
:1018900051688000A0C02000808040000040EB0024
:1018A00080487800506880000000E8005068880098
:1018B00051688000F00F20000080600050688800B0
:1018C0000800370070C0B300546E02000000000032
:1018D00051688000A0C02000808040000040EB00E4
:1018E0008048780030932800246A0200000000003D
:1018F000360037001E0FE800420120009E0F110045
:1019000032003A00DC730200000000000000EB002F
:10191000000F78002D003700430020009E8F11003B
:101920002A003400768A0200000000000000EB006C
:10193000000F780025003700506880008000E80024
:10194000F00F20008080600060688000808F500071
:10195000160032004E409000FF4F50001B00360032
:101960004E4090000004E000180035004E4090000A
:10197000546E020000000000516880004E4190004B
:10198000A0C020000080400002487800506880001D
:101990000000E8005068880051688000F00F2000C7
:1019A00000806000506888000800370070C0B300F5
:1019B000546E02000000000051688000A0C02000AA
:1019C000808040000040EB00804878000E089000C6
:1019D0000000E00012FF32005068800060079800AD
:1019E00060688000500798000000EB00000F98002E
:1019F0000000EB00700798000000EB0070688800A2
:101A0000D140800000202000008060000000E00045
:101A10004D043200B02F02000000000061002000E1
:101A2000606C2000689C0200000000001000200094
:101A3000700798004404370061688000A0C020004F
:101A40000080400010407800404798004E409000D1
:101A50000080FB006101B900220F9800330F98004D
:101A6000D0072000010020002E099000BE09900040
:101A7000800F5100818F590005043E002E08900010
:101A8000BE08900000600100030437000004370026
:101A9000FF033700FE033700FD033700FC03370068
:101AA000FB033700FA033700F9033700F803370068
:101AB000F9033700F6033700F5033700F603370064
:101AC000F3033700F2033700F1033700F003370068
:101AD000EF033700EE033700ED033700EC03370068
:101AE000EB033700EA033700E9033700E803370068
:101AF000E7033700E6033700E5033700E403370068
:101B0000E3033700E2033700E3033700C303370082
:101B100062023700F0003700FC0037007C0137001C
:101B20006A013700DA03370039023700D80337007B
:101B3000D7033700D8033700D703370059033700DE
:101B40008603370029033700D0023700CF02370061
:101B5000CE023700CD023700CC023700CB0237006F
:101B6000CA023700C9023700C8023700C70237006F
:101B7000C7033700C60337007A013700B9003700C2
:101B8000C3033700460037000D013700FF00370060
:101B9000BF0337007700370049013700BC03370027
:101BA000BB033700BA033700B9033700B803370067
:101BB000B7033700B60337008C003700B403370093
:101BC000B3033700B2033700A1003700B00337007A
:101BD000AF033700AE033700AD033700AC03370067
:101BE000AB0337000C013700A9033700A803370007
:101BF000A703370081023700130337009102370033
:101C00006F0337003E033700A1033700D2003700CF
:101C10002E0037004D0037001B0137009C033700B2
:101C20003000370032003700150037001F00370042
:101C3000970337009603370058003700210037001C
:101C400093033700230037007C00370090033700F0
:101C5000C70237003F0137008D0337008C03370080
:101C60001E003700FA003700890337008803370069
:101C7000870337006A023700850337007A0237008E
:101C80001D0607000000E00083033A006068800042
:101C90005007980050688000600798007E03370066
:101CA0007E9C0200000000007B03370072070700E3
:101CB000A04080000000E00077033200D00707005A
:101CC000750337008405070073033700FA0807001F
:101CD00071033700D20807006F033700460807007A
:101CE0006D033700447E0200000000006A033700E5
:101CF000606880008000E800F00F200080806000B5
:101D0000A0C020000080400090407800F0C6B300E2
:101D100080CF50000A003A00606880000080E80030
:101D20006068880061688000F00F2000008060001B
:101D300060688800F087020000000000560337004A
:101D4000A87C0200000000005303370050B62000BA
:101D5000104078000000A10051B6200080487800B3
:101D600061012000C06C2000689C0200000000009F
:101D70004903370050B62000104078000000A00052
:101D800051B620008048780091012000206E20008C
:101D9000689C0200000000003F03370050B620009E
:101DA00010407800644060000004E00005003A0044
:101DB000D1012000B06F2000689C020000000000EC
:101DC0003503370050B62000104078000030A100E5
:101DD00051B6200080487800C1012000C094200046
:101DE000689C0200000000002B03370050B6200062
:101DF00010407800644060000004E00005003A00F4
:101E0000D1012000B06F2000689C0200000000009B
:101E10002103370050B62000104078000030A000A9
:101E200051B6200080487800B101200010932000B6
:101E3000689C020000000000170337009102200098
:101E4000D0722000DE9B0200000000001203370069
:101E500091022000D0722000DE9B020000000000F2
:101E60000D033700606880000000E80060688800AB
:101E700061688000F00F20000080600060688800CA
:101E8000030507003A030700100798001E009000A2
:101E9000F26C02000000000040932800F869020084
:101EA000000000001E009000906C02000000000086
:101EB00040932800F8690200000000001E00900016
:101EC000586A02000000000030932800246A0200D3
:101ED00000000000F0023700B40807000000E00036
:101EE000ED0232005100200050782000689C020072
:101EF0000000000023C2BF00614060000004E00059
:101F0000FCFF32000000FE00E3023700A7080700D4
:101F10000000E000E0023200A1002000A0782000D4
:101F2000689C020000000000400620008C97020020
:101F300000000000109602000000000023C2BF0055
:101F4000614060000004E000FCFF320081BF2A0015
:101F500001400100D0023700AA0407000000E80099
:101F60003007980002003700827F02000000000066
:101F70003E0090000000E900300798003E0090000D
:101F80000000E000F8FF3A00C30237009D0407009C
:101F90000000E8003007980002003700607F020070
:101FA000000000003E0090000000E90030079800AB
:101FB0003E0090000000E000F8FF3A00B602370053
:101FC000900407000000E800300798000B0037007D
:101FD0006101200040792000DE9B0200000000002B
:101FE000A47F020000000000EA6902000000000077
:101FF00030932800246A0200000000003E00900098
:102000000000E900300798003E0090000000E0006A
:10201000EFFF3A00A0023700C082A900C282A800E8
:10202000C8A2A900CAA2A80011012000A07A20001D
:10203000689C02000000000050B6200010407800AC
:102040000070A00051B6200080487800920237004E
:10205000C082A900C282A900C8A2A900CAA2A90080
:1020600021012000B07B2000689C020000000000DD
:1020700050B62000104078000070A10051B620003A
:102080008048780084023700F1002000C03F200023
:10209000DE9B0200000000007096020000000000BD
:1020A00011002000B0402000DE9B02000000000074
:1020B00030932800246A02000000000076023700F6
:1020C0008296020000000000730237004D040700F2
:1020D0003007980061002000D07C2000DE9B0200C9
:1020E000000000003E009000326C02000000000082
:1020F00021002000307D2000689C020000000000CC
:102100003E009000B8970200000000006202370015
:102110003C0407003007980061002000D07C2000BC
:10212000DE9B0200000000003E009000326C0200C6
:102130000000000021002000800E2100689C0200A9
:10214000000000003E0090008C970200000000009C
:1021500051023700D04080000090A000D04088009D
:102160004D02370010002000706888001000200029
:102170001007980010003700616880001E00900072
:1021800080804000F00F200080806000A0C0200010
:102190000080400090407800E0C3B30080CF500042
:1021A00002003A000000EB00706888001E009000FA
:1021B0000000E80010079800616880001E00900091
:1021C00080804000F00F200080806000A0C02000D0
:1021D00000804000104078000004E000E6FF3A0074
:1021E0009E00900020022000808F500002003400EA
:1021F0001000200070688800706880000000E00017
:1022000025023A00606880000000E80060688800ED
:1022100061688000F00F2000008060006068880026
:10222000530207001007980061688000F00F20003B
:1022300080806000A0C020000080400090407800B6
:10224000D0C3B30080CF500044003A001E0090007D
:102250000000E0003E0034001E009000E50F50003A
:102260003B003C00606880000000E8006068880077
:1022700061688000F00F20000080600060688800C6
:102280001E0090000000E900100798000000EB001D
:10229000300798000B0037001E009000BE00900031
:1022A0004500DD008100400000D12000808040001A
:1022B0000040EB00804878003E0090000000E800FD
:1022C000300798003E009000FF0F5000F2FF3400EE
:1022D0000000EB0030079800150037009E019000C9
:1022E0003E02900061688000A0C020000080400095
:1022F000104178004518DD008400400000D1200026
:1023000000804000024878003E0090000000E80095
:1023100030079800606880000000E800606888006E
:1023200061688000F00F2000008060006068880015
:1023300061688000A0C020000080400090407800CC
:10234000E0C3B30080CF5000E4FF3A00D201370071
:102350001000200070688800CF0137001E00900038
:102360000000E0001B003A000000EB00300798007E
:10237000140037003E0090000040E800906C02001E
:102380000000000080932800F869020000000000AF
:102390003E0090004500DD008000780000D1200064
:1023A00000804000F869020000000000C09328008F
:1023B000246A0200000000003E0090000000E800D7
:1023C000300798003E009000E40F5000E9FF340011
:1023D000B10137001E0090000000E0000900340049
:1023E0001E009000E50F500006003C0030932800CE
:1023F000246A0200000000009E009000816D8800A9
:10240000A50137001000200070688800A201370085
:10241000606880000000E8006068880061688000F3
:10242000F00F20000080600060688800D001070085
:10243000400798009603070061688000F00F2000B5
:1024400080806000A0C020000080400090407800A4
:1024500090C2B30080CF50000D003A00A140800030
:10246000C00220000088B900FC004000E09320007A
:1024700000804000900078004E00900001000100B4
:1024800030932800246A0200000000008201370017
:1024900010002000706888007F01370010002000C5
:1024A00070688800100020001007980010003700A6
:1024B000616880001E00900080804000F00F2000C6
:1024C00080806000A0C02000008040009040780024
:1024D00020C2B30080CF500002003A000000EB00A1
:1024E000706888001E0090000000E8001007980047
:1024F000616880001E00900080804000F00F200086
:1025000080806000A0C02000008040001040780063
:102510000004E000E6FF3A00706880000000E00080
:102520005D013A0071002000507D2000DE9B02001A
:102530000000000020C2B300546E02000000000042
:102540001700370061688000F00F200000806000F5
:102550006068880061688000A0C0200000804000A2
:1025600010407800546E020000000000A14080007E
:10257000C00220000088B900E8004000E09320007D
:10258000008040001001780061688000A0C0200039
:1025900000804000104078000000FB0002000100B5
:1025A000606880000000E800606888006168800062
:1025B000F00F200080806000A0C02000008040005C
:1025C0009040780020C2B30080CF5000DDFF3A0079
:1025D00060688000F10F20000100600060688800E2
:1025E00020C2B300546E02000000000030932800A7
:1025F000246A02000000000027013700A14080008B
:10260000C00220000088B90080007800E09320001C
:102610000080400010007800000001001E0137001B
:10262000A1408000C00220000088B9008080E8003E
:10263000E0932000008040001000780000000100BE
:1026400015013700A1408000C00220000088B900B9
:10265000E4004000E093200000804000100078007B
:10266000000001000C013700A1408000C0022000E2
:102670000088B900E6004000E093200000804000A0
:1026800010007800000001000301370071002000F5
:10269000507D2000DE9B0200000000003401070096
:1026A00040079800606880000000E90060688800CA
:1026B00061688000F00F2000008060006068880082
:1026C000D00207000000E800300798001E00370025
:1026D0004E0090000697020000000000A14080001C
:1026E000C00220000088B900E8004000E09320000C
:1026F00000804000900078004E0090000100010032
:102700001007980000C2B300546E020000000000E1
:102710009E009000F00F2000808F50000A003C00C7
:1027200061002000C07D2000DE9B02000000000050
:102730001E009000069702000000000000C2B300D7
:10274000546E0200000000003E0090000000E9000E
:10275000300798003E0090000000E000DCFF3A00E7
:1027600030932800246A020000000000CA003700ED
:1027700061002000C07D2000DE9B02000000000000
:10278000A00207000000E800300798000D003700A5
:10279000A1408000C00220000088B900EA0040008B
:1027A000E09320000080400010007800000001004D
:1027B000069702000000000000C2B300546E020041
:1027C000000000003E0090000000E9003007980083
:1027D0003E0090000000E000EDFF3A00309328003A
:1027E000246A020000000000AB00370085020700E9
:1027F0000000E800300798000C003700810020003E
:10280000207E2000689C020000000000A1408000A3
:10281000C00220000088B900EC004000E0932000D6
:102820000080400010007800000001003E00900091
:102830000000E900300798003E0090000000E00032
:10284000EEFF3A00940037006E0207000000E80037
:10285000300798000C00370081002000A07E200087
:10286000689C020000000000A1408000C00220001F
:102870000088B900EE004000E09320000080400096
:1028800010007800000001003E0090000000E90008
:10289000300798003E0090000000E000EEFF3A0094
:1028A0007D003700570207000000E800300798005D
:1028B0000C003700E1002000207F2000689C02000F
:1028C00000000000A1408000C00220000088B90084
:1028D000F0004000E09320000080400010007800ED
:1028E000000001003E0090000000E9003007980061
:1028F0003E0090000000E000EEFF3A006600370066
:10290000400207000000E800300798000C00370084
:10291000E100200000802000689C02000000000010
:10292000A1408000C00220000088B900F2004000F1
:10293000E0932000008040001000780000000100BB
:102940003E0090000000E900300798003E00900033
:102950000000E000EEFF3A004F00370029020700B8
:102960000000E800300798000E003700A14080000A
:10297000C00220000088B900F4004000E09320006D
:10298000008040001000780000000100EA690200A9
:102990000000000001012000E0802000689C02008F
:1029A000000000003E0090000000E90030079800A1
:1029B0003E0090000000E000ECFF3A0036003700D7
:1029C000100207000000E800300798000C003700F4
:1029D000A1002000E0812000689C020000000000AF
:1029E000A1408000C00220000088B900F60040002D
:1029F000E0932000008040001000780000000100FB
:102A00003E0090000000E900300798003E00900072
:102A10000000E000EEFF3A001F003700F901070058
:102A20000000E8003007980012003700A1002000E5
:102A300080822000689C020000000000A14080000D
:102A4000C00220000088B900F8004000E093200098
:102A5000008040001000780000000100EA690200D8
:102A60000000000001012000E0802000689C0200BE
:102A7000000000003E0090000000E90030079800D0
:102A80003E0090000000E000E8FF3A00020037003E
:102A90001000200070688800606880000000E80076
:102AA0006068880061688000F00F2000008060008E
:102AB00060688800706880000000E0001C00320040
:102AC0005101200020832000DE9B02000000000056
:102AD000DE00900060688000808F500007003100A9
:102AE00060688000804078005E00900000C0500068
:102AF000906C020000000000060037006068800053
:102B0000804078005E00900000C05000906C020091
:102B1000000000000000EB0070688800100020003A
:102B20007007980030932800246A0200000000001B
:102B30006168800050688000808F500002003A0079
:102B400010002000700798007E0090000000E00058
:102B5000B9FB32006E009000606888006E00900043
:102B6000506888000000EB00000F980096FA3700CC
:102B70000600FA000000EB00100798000000EB00D0
:102B8000000F7800616880001E0090008080400087
:102B9000F00F200080806000A0C020000080400076
:102BA0009040780000C3B30080CF50004300340051
:102BB000616880001E00900080804000F00F2000BF
:102BC00080806000A0C0200000804000904078001D
:102BD00090C3B30080CF500038003C006168800093
:102BE0001E00900080804000F00F20008080600078
:102BF000A0C0200000804000104078008000FB0052
:102C000000FD2F00008F40001E0090000000E80033
:102C100010079800120037001E0078006A00B90003
:102C2000000F7800616880001E00900080804000E6
:102C3000F00F200080806000A0C0200000804000D5
:102C4000104078000000FB009E00400000FD2F00B7
:102C5000008F40001E0090000000E8001007980060
:102C6000616880001E00900080804000F00F20000E
:102C700080806000A0C0200000804000904078006C
:102C8000F0C2B30080CF5000510134006168800071
:102C90001E00900080804000F00F200080806000C7
:102CA000A0C02000008040009040780090C3B30096
:102CB00080CF5000D8FF34004501370061688000A4
:102CC0001E00900080804000F00F20008080600097
:102CD000A0C02000008040009040780000C3B300F6
:102CE00080CF500035013A001E0090000000E8003F
:102CF00010079800616880001E00900080804000EE
:102D0000F00F200080806000A0C020000080400004
:102D10009040780020C6B30080CF50000B003200F6
:102D2000616880001E00900080804000F00F20004D
:102D300080806000A0C020000080400090407800AB
:102D400020C4B30080CF50002D003A001E00900038
:102D50000000E80010079800120037001E007800FD
:102D600000004000000F7800616880001E009000A5
:102D700080804000F00F200080806000A0C0200014
:102D800000804000104078000000FB009E004000E2
:102D900000FD2F00008F40001E0090000000E800A2
:102DA00010079800616880001E009000808040003D
:102DB000F00F200080806000A0C020000080400054
:102DC0009040780010C3B30080CF5000E3FF320082
:102DD000616880001E00900080804000F00F20009D
:102DE00080806000A0C020000080400090407800FB
:102DF00000C3B30080CF5000D8FF3200F40037008A
:102E0000616880001E00900080804000F00F20006C
:102E100080806000A0C020000080400090407800CA
:102E200080C7B30080CF50000B0032006168800083
:102E30001E00900080804000F00F20008080600025
:102E4000A0C02000008040009040780080C5B30002
:102E500080CF50008E003A001E0090000000E80075
:102E600010079800470037001E0078004400DD007E
:102E7000000F7800616880001E0090008080400094
:102E8000F00F200080806000A0C020000080400083
:102E900090407800F0C2B30080CF5000180034009A
:102EA000616880001E00900080804000F00F2000CC
:102EB00080806000A0C0200000804000904078002A
:102EC00090C3B30080CF50000D003C0061688000CB
:102ED0001E00900080804000F00F20008080600085
:102EE000A0C0200000804000104078000000FB00DF
:102EF0009E00400000FD2F00008F40001E003700A4
:102F0000616880001E00900080804000F00F20006B
:102F100000816000616880001E0090008080400099
:102F2000F00F200080806000A0C0200000804000E2
:102F30009040780000C2B30080C07000A0C02000A4
:102F40000000410001487800616880001E00900088
:102F500080804000F00F200080806000A0C0200032
:102F600000804000104078000000FB009E00400000
:102F700090FA2F00008F40001E0090000000E80033
:102F800010079800616880001E009000808040005B
:102F9000F00F200080806000A0C020000080400072
:102FA00090407800F0C2B30080CF50000B00340096
:102FB000616880001E00900080804000F00F2000BB
:102FC00080806000A0C02000008040009040780019
:102FD00090C3B30080CF5000A3FF3400616880002D
:102FE0001E00900080804000F00F20008080600074
:102FF000A0C02000008040009040780000C4B300D2
:1030000080CF50000B003400616880001E009000EB
:1030100080804000F00F200080806000A0C0200071
:10302000008040009040780060C4B30080CF500022
:103030008DFF3400616880001E0090008080400099
:10304000F00F200080806000A0C0200000804000C1
:103050009040780000C6B30080CF50005C00340080
:10306000616880001E00900080804000F00F20000A
:1030700080806000A0C02000008040009040780068
:1030800060C6B30080CF500077FF34005000370097
:10309000616880001E00900080804000F00F2000DA
:1030A00080806000A0C02000008040009040780038
:1030B000F0C2B30080CF500045003400616880004A
:1030C0001E00900080804000F00F20008080600093
:1030D000A0C02000008040009040780090C3B30062
:1030E00080CF50003A003C00616880001E009000D4
:1030F00080804000F00F200080806000A0C0200091
:1031000000804000104078008000FB0000FD2F0090
:10311000008F4000120037001E0078006A00B900DE
:10312000000F7800616880001E00900080804000E1
:10313000F00F200080806000A0C0200000804000D0
:10314000104078000000FB009E00400000FD2F00B2
:10315000008F40001E0090000000E800100798005B
:10316000616880001E00900080804000F00F200009
:1031700080806000A0C02000008040009040780067
:10318000F0C2B30080CF50001100340061688000AD
:103190001E00900080804000F00F200080806000C2
:1031A000A0C02000008040009040780090C3B30091
:1031B00080CF5000D8FF34000500370010002000F9
:1031C000706888000000EB00200798000A003700B4
:1031D000616880001E0090000080400060688800E8
:1031E00061688000F00F2000008060006068880047
:1031F0001E007800200798002E0090000080FA0042
:10320000000006000400FA00606880008000E8000A
:10321000F00F200080806000A0C0200000804000EF
:1032200090407800A0C3B30080CF500013003A0054
:10323000606880000080E800606888006168800045
:10324000F00F2000008060006068880048FE0700E2
:10325000000F7800606880000000E9006068880066
:1032600061688000F00F20000080600060688800C6
:103270001E007800100798000200370010002000A0
:10328000100798001E0090000080FA000000060061
:103290000000FA0007003700606880000000E800C6
:1032A0006068880061688000F00F20000080600086
:1032B0006068880061688000A0C020000080400035
:1032C0009040780000C2B30080CF5000F2FF32007F
:1032D0000080FA00000006000400FA000000EB0085
:1032E000000F7800606880000000E80060688800D7
:1032F00061688000F00F2000008060006068880036
:10330000E3FF07001AFE0700000F78001E00E00030
:103310004D003A000000EB00100798001300370042
:103320001E0090000040E800906C020000000000C9
:10333000E0932800F8690200000000009E00900061
:10334000C00220000088B9004102200080804000B7
:10335000E093200000804000246A0200000000008A
:103360001E0090000000E800100798001E0090006A
:10337000E80F5000EAFF3400710120007084200043
:10338000689C0200000000000000EB0070688800EC
:1033900013002000920020001100200010002000E7
:1033A000F6000700000FE900E0FF2F009E0F10005D
:1033B000030032000080EB009E0F100005003A0071
:1033C000E1002000E0852000689C02000000000071
:1033D00042003700A1408000C00220000088B900F0
:1033E0000102200080804000E09320000080400027
:1033F000100078000000010010960200000000009C
:103400001E007800A0408800A1408000C00220007B
:103410000088B900FE004000E093200000804000DA
:1034200010007800000001001E00E00001003200E2
:10343000CA82A80061002000606C2000689C020025
:1034400000000000250037001E0FE900800020006A
:103450009E0F10001D003C00A1408000C002200013
:103460000088B9000102200080804000E093200025
:10347000008040001000780000000100109602005B
:10348000000000001E007800A0408800A1408000DD
:10349000C00220000088B900FE004000E093200038
:1034A0000080400010007800000001001E00E000D5
:1034B00001003200CA82A80061002000606C200078
:1034C000689C020000000000040037006101200039
:1034D000C0862000689C0200000000005068800048
:1034E0008000E900F00F2000008060006068880024
:1034F0000080FA00000006002600FA0010002000FC
:1035000020079800606880000000E900100798001C
:103510009E009000F00F20000080600010079800CF
:10352000430037009E009000A0C0200000804000B3
:10353000104078000004E00036003A001E009000C1
:103540008000E800F00F200080806000A0C0200014
:1035500000804000104078000004E0002D003200A0
:103560002E009000906C020000000000E093280004
:10357000F86902000000000010002000000F780031
:103580000A0037001E0090009E004000F00F20004F
:1035900080806000A0C020000080400010407800C3
:1035A000546E0200000000001E0FE8001E00900094
:1035B0009E004000F00F200080806000A0C020002E
:1035C00000804000104078000004E000EDFF3A0069
:1035D000AE0190001E0090008000E800F00F200077
:1035E00000816000E60047000380410002B07800DF
:1035F0002E0090000000E800200798002E009000A8
:10360000EF0F50000E00320030932800246A0200B1
:10361000000000001E0090000000E9001007980064
:103620009E009000F00F20000080600010079800BE
:103630009E00900060688000808F5000B9FF3A00C3
:103640007100200020882000689C0200000000001B
:10365000130020002E019000110020000000EB005C
:1036600046000700100798001E009000E10F400080
:1036700003003A0010002000201798003C0037009B
:103680000000EB002007980016003700516880000A
:103690002E00900080804000F00F2000008160002C
:1036A0001E009000E600470000004000E080780027
:1036B0002E00900080804000F00F2000808060008D
:1036C000A0C020000080400090407800A0C02000F2
:1036D00000004100014878002E0090000000E80042
:1036E000200798001E009000E60047000000400000
:1036F000E08078002E00900080804000F00F2000D5
:1037000080806000A0C02000008040001040780051
:103710000004E000DDFF3A00506880008000E9000E
:10372000F00F200000806000606888006168800001
:103730002E009000008040008080E800F00F200004
:103740000080600050688800506880008000E900B8
:10375000F00F200080806000A0C02000808040002A
:103760000040EB00804878000000EB002017980034
:103770002E1090000080FA00000006001E00FA00E3
:10378000100F9800210F9800320F9800430F9800F7
:103790000000EB00400798000000EB0020079800B5
:1037A0000000EB00100798000000EB00000F78000D
:1037B00010942800F8690200000000001E08900024
:1037C000906C02000000000050942800F86902008C
:1037D0000000000067003700426E02000000000099
:1037E000204F98002E4890000000FB00600F9800CA
:1037F0006E089000ED0F500029003200EE08900096
:10380000ED8F500007003C006E099000E80F51005A
:103810000D0032006E089000EA0F500020003200C8
:1038200035003700D0022000EE089000808F500055
:103830001E003200800720006E099000800F5100AA
:10384000270032002C0037004E0090000000E000FE
:10385000070032004E0090000000E9004007980089
:10386000F0922800F86902000000000041003700D3
:103870001E00E000060032000000EB00000F7800A0
:10388000F0922800F86902000000000039003700BB
:1038900070C0B300546E0200000000003500370015
:1038A0001000200020079800320037004E009000E2
:1038B0000000E00006003A00D0C2B300546E0200DF
:1038C0000000000010002000000F780029003700E1
:1038D00070C0B300546E02000000000025003700E5
:1038E0004E0890000000E000030032000080EB0072
:1038F000500F98005D003700AE489000F0C2B30052
:1039000080CF500018003400AE48900090C3B30040
:1039100080CF500014003C004E009000E30F500098
:103920000600340070C0B300546E020000000000B6
:1039300040002000400798000E0037002E489000FD
:10394000546E020000000000CE0090006B004700A3
:103950002E499000827078004E0090000000E80030
:10396000400798000300370070C0B300546E020097
:10397000000000002E0090000000E00096FF3200E2
:1039800030932800246A0200000000004E009000DE
:103990000000E00003003A001E089000500F98005D
:1039A000320037000000EB00100798004E00900036
:1039B0000000E90040079800CE0090003107980011
:1039C000110037001E0090006A00B900100798002F
:1039D000BE0090004E009000808050006B004700B9
:1039E000614078008000FB001E0090008080400055
:1039F00000FD2F0000804000100798004E0090004E
:103A00000000E900400798004E0090000000E00030
:103A1000ECFF3D009E0090002E089000808F50002B
:103A20000D0035009E0090003E089000808F5000F1
:103A300009003C001E00E000040032001E0090005F
:103A40000000EA00500F9800080037001E019000A7
:103A5000520F980005003700B1012000D00C210062
:103A6000689C02000000000049FF37005E089000DB
:103A70000080FA00000006000400FA00909428007C
:103A8000246A02000000000080952800F869020006
:103A900000000000D1002000A0982000DE9B020062
:103AA00000000000A1BF2A000000EB006C6F0200C4
:103AB00000000000000F78001E0078004800DE00C3
:103AC000906C020000000000E0C2B300546E0200DF
:103AD000000000001E007800906C02000000000052
:103AE00030932800246A02000000000061002000DA
:103AF000408A2000DE9B020000000000B0408000F1
:103B00004A6D02000000000071002000600C2100DE
:103B1000DE9B020000000000C04080004A6D0200F1
:103B200000000000D0962800F869020000000000A4
:103B3000C040800010079800200423009E009000E1
:103B4000808F500016003200200423009E00900059
:103B5000808F500005003E00300023009E00900042
:103B6000808F50000A003200190037003004230013
:103B70009E009000808F50000D00320060042300F2
:103B80009E009000808F50000D0032001000370022
:103B900000972800F8690200000000000F003700BD
:103BA00030972800F8690200000000000B00370081
:103BB00060972800F8690200000000000700370045
:103BC00090972800F8690200000000000300370009
:103BD000C0972800F8690200000000000098280043
:103BE000246A020000000000E1012000A08A2000F9
:103BF000689C0200000000000080FA00000006003F
:103C00000000FA0051002000E0AA2000DE9B020024
:103C100000000000C1BF2A000000EB006C6F020032
:103C2000000000004A6D020000000000610020005A
:103C300030AB2000DE9B020000000000E1BF2A0044
:103C40000000EB006C6F0200000000004A6D0200F3
:103C50000000000030932800246A020000000000E9
:103C6000C1002000808C2000689C02000000000041
:103C70006100070050B620009040780000C8B300F3
:103C800000C060000004E0000500320011012000C7
:103C9000A07A2000689C02000000000004003700A9
:103CA00021012000B07B2000689C02000000000081
:103CB00050B6200010407800614060000004E00031
:103CC0000500320091012000206E2000689C020057
:103CD000000000000400370061012000C06C2000DB
:103CE000689C02000000000050B6200010407800E0
:103CF0000044B2000004E000050032002102200070
:103D0000408D2000689C0200000000000400370085
:103D1000E1012000608F2000689C0200000000008C
:103D200050B6200010407800704060000004E000B1
:103D30000F00320050B62000104078000042B20060
:103D40000004E00005003200410120006075200001
:103D5000689C0200000000000900370051012000AB
:103D600080712000689C0200000000000400370001
:103D7000D101200040912000689C0200000000005A
:103D800050B6200010407800644060000004E0005D
:103D90000F00320050B620001040780068406000EC
:103DA0000004E00005003200B10120001093200063
:103DB000689C02000000000009003700C1012000DB
:103DC000C0942000689C020000000000040037003E
:103DD0002102200080962000689C02000000000064
:103DE000C1002000808C2000689C020000000000C0
:103DF0000080FA00000006000000FA00A100200088
:103E000090272100689C020000000000610420004F
:103E1000102D2100689C020000000000A10120007C
:103E200030282100DE9B020000000000A14080003D
:103E3000C00220000088B9002102200080804000DC
:103E4000E093200000804000100078000000010096
:103E5000A1002000D0292100DE9B0200000000000C
:103E60000040200050000700001020004E00070016
:103E7000002020004C000700000420004A0007003A
:103E8000000820004800070030932800246A020040
:103E9000000000004100200070312100DE9B020084
:103EA0000000000021E3A800A0C0B3005696020065
:103EB00000000000946D02000000000011002000CE
:103EC000B0402000DE9B02000000000090C0B30064
:103ED000546E02000000000090C0B300569602002D
:103EE00000000000946D020000000000110020009E
:103EF000B0402000DE9B02000000000090C0B30034
:103F0000546E020000000000C0C0B30056960200CC
:103F100000000000946D020000000000110020006D
:103F2000B0402000DE9B02000000000090C0B30003
:103F3000546E020000000000B0C0B30056960200AC
:103F400000000000946D020000000000110020003D
:103F5000B0402000DE9B02000000000090C0B300D3
:103F6000546E02000000000021E3A9000040200080
:103F70001C000700001020001A000700002020008D
:103F800018000700000420001600070000082000A9
:103F90001400070030932800246A0200000000008B
:103FA0000080FA00000006000200FA00000F78000E
:103FB000401680001E0060000000E0000400320097
:103FC00020982800F8690200000000000300370074
:103FD00050982800F8690200000000000080FA00F4
:103FE000000006000200FA00000F78005016800062
:103FF0001E0060000000E0000400320080982800ED
:10400000F86902000000000003003700B0982800A3
:10401000F8690200000000000080FA0000000600BD
:104020000200FA00606880000000E8006068880014
:1040300061688000F00F20000080600060688800E8
:1040400093FC0700CAFA0700000F78001E00E0008A
:1040500006003400400020009E0F100003003C00CA
:104060001E00E900904088000D0037000000EB00C2
:10407000706888002102200070992000689C02006E
:10408000000000008001EB00420020001100200031
:1040900010002000B9FD07000000E90090408800F2
:1040A00021012000909B2000689C0200000000007D
:1040B0000080FA00000006000200FA00606880003C
:1040C0000000E8006068880061688000F00F200050
:1040D00000806000606888006DFC0700A4FA07009B
:1040E000004F78001E04E0000900320090C0B300C9
:1040F0009E4F100006003E001E4078000040E90080
:104100008040780000812000014878000F003700CF
:104110000000EB0070688800A1072000609F20006D
:10412000689C0200000000008001EB00920020006B
:10413000110020009000200090FD07000040E900E1
:1041400080407800008120000148780001032000B1
:1041500000A72000689C02000000000023C2BF00EE
:10416000614060000004E000FCFF3200E0960200C5
:10417000000000000000370022C2BF006140600064
:104180000004E000FCFF320030118000004F780096
:104190008560A90000C2B3009E4F100001003200EC
:1041A000F5FF37000080FA00000006000400FA0066
:1041B000E100200000AA2000DE9B020000000000B9
:1041C000366E0200000000000004E000FCFF320038
:1041D000426E020000000000004F78001E40780090
:1041E000546E02000000000030932800246A020090
:1041F0000000000090C7B3009E4F10000300320083
:1042000090C5B3009E4F100003003A00100020003C
:1042100010079800020037000000EB00100798001C
:104220001E0090000080FA00000006000000FA0066
:104230005172800020E5200000804000904078000E
:1042400030C8B30080CF50000E003A00507280009A
:104250000000E800507288000300370050728000B0
:104260000000E800507288005172800020E52000B4
:10427000008040009040780000CEB30080CF500016
:10428000F6FF36000080FA00000006000A00FA007F
:10429000300798000000EB0020079800AE00900067
:1042A00020E52000008040009040780000CEB30060
:1042B00080CF500003003E000080EB0040079800D4
:1042C00023003700AE00900020E520000080400071
:1042D000104078008080FB0000F22F00008040003A
:1042E000100798002E0090008000E80020E52000D4
:1042F00000804000104078000080FB004801DD0095
:104300002E0090008080E80020E520000080400022
:10431000104078000080FB00000F41009E007800F4
:104320003E009000808F500003003A002E00900065
:1043300040079800060037009E0090002E00900075
:10434000008040006300400020079800D3FF370042
:104350004E0090000080FA00000006000600FA00FF
:10436000881F78000000EB00000F78005172800079
:1043700020E52000008040009040780080C2B3001B
:1043800080CF500010003A00507280000000E8001A
:104390005072880029010700000F780051728000D8
:1043A00020E52000008040009040780090C2B300DB
:1043B00080CF5000B6003A00507280000000E80044
:1043C00050728800B20037005172800020E5200052
:1043D000008040009040780000C4B30080CF5000BF
:1043E000160036005172800020E520000080400059
:1043F00090407800A0C5B30080CF50000F003E0071
:104400005272800020E5200000004100104078003A
:104410008080FB00F0FB2F00008040008000400007
:10442000A0DE2000008040001000780020079800E7
:104430000200E80050728800970037005172800037
:1044400020E52000008040009040780000C8B300C4
:1044500080CF5000800036005172800020E520009F
:1044600000804000104078000080FB00100798009A
:104470000100E80050728800700920009E00900042
:10448000808F500045003200700920009E0090008F
:10449000808F50000D003C00400920009E009000DD
:1044A000808F50001A003200600920009E009000AA
:1044B000808F50002F003200300920009E009000B5
:1044C000808F50001C0032005200370090092000FD
:1044D0009E009000808F5000220032009009200042
:1044E0009E009000808F500045003500A0092000FC
:1044F0009E009000808F500032003200B0092000F2
:104500009E009000808F500035003200410037003F
:10451000A1408000C00220000088B900EA004000ED
:10452000E0932000008040001000780000000100AF
:10453000000F780056003700A1408000C002200024
:104540000088B900E8004000E093200000804000AF
:10455000100478008A00070008000100000F7800AE
:104560004B003700A47F020000000000000F78001D
:1045700047003700A1408000C00220000088B90039
:10458000F4004000E093200000804000100078001C
:1045900000000100000F78003D003700A1408000BE
:1045A000C00220000088B900F8004000E09320001D
:1045B000008040001000780000000100000F78002B
:1045C0003300370050B62000104078000080FB0018
:1045D0004700DE000080FB00000F78002C00370051
:1045E00050B62000104078000080FB004500DE003F
:1045F000614060000080FB00000F7800240037005D
:10460000C0C0B3005696020000000000000F780002
:104610001F0037000000EB00000F78001C0037007F
:104620001E0078006A00B900000F78005172800007
:1046300020E5200000804000104078000080FB0052
:104640009E00400000FD2F00008F4000507280004F
:104650000000E800507288005172800020E52000C0
:104660000080400090407800F0C2B30080CF50003E
:10467000070036005172800020E5200000804000D5
:104680009040780090C3B30080CF5000E4FF360024
:104690001E007800200798002E0090004F0478003C
:1046A0000080FA00000006000600FA002BFF070059
:1046B000000F7800000037005172800020E52000D4
:1046C0000080400090407800A0C2B30080CF50002E
:1046D0000A0032005172800020E520000080400076
:1046E00090407800F0C2B30080CF50000300320049
:1046F0001E007800200798001E00370051728000CD
:1047000020E5200000804000104078000080FB0081
:10471000100798000100E80050728800A0022000F5
:104720009E009000808F500005003200F0022000B3
:104730009E009000808F500007003200DEFF37009F
:1047400006FF0700800078001E0078000180B90095
:10475000000F7800D8FF370000FF07000001780045
:104760001E007800110009000200D800000F780038
:10477000D1FF37002E0090000080FA0000000600F4
:104780000600FA00C8FF0700000F7800000037009D
:104790005172800020E520000080400090407800A9
:1047A000D0C2B30080CF50000A00320051728000A6
:1047B00020E520000080400090407800B0C2B300A7
:1047C00080CF5000030032001E00780020079800C0
:1047D000170037005172800020E520000080400063
:1047E000104078000080FB00100798000100E800EE
:1047F00050728800B00220009E009000808F500010
:1048000008003200D00220009E009000808F5000EF
:1048100001003200DEFF3700A3FF07001E0F10006B
:10482000DBFF3700A0FF07001E0F4000D8FF370056
:104830002E0090000080FA00000006000C00FA0034
:104840005272800020E520000000410010407800F6
:104850008080FB00F0FB2F000080400080004000C3
:10486000A0DE200000804000900078002107980022
:104870000200E800507288000000EB00000F780092
:104880000B0037009E0178005272800020E5200066
:10489000000041001040780080407800660047002A
:1048A000817178000200E800507288001E0FE80055
:1048B0005172800020E52000008040009040780088
:1048C00000C4B30080CF5000070036005172800052
:1048D00020E520000080400090407800A0C5B30093
:1048E00080CF50000E0036005172800020E520007D
:1048F0000080400090407800F0C2B30080CF5000AC
:10490000E0FF36005172800020E52000008040006A
:104910009040780090C3B30080CF5000D9FF3E0094
:1049200097FF0700100798006600470010407800C6
:104930000000FB0050079800C0032000DE0090003C
:10494000808F500032003200C0032000DE00900053
:10495000808F500005003C0010022000DE00900017
:10496000808F5000410032004E003700D0032000FD
:10497000DE009000808F500005003200E003200030
:10498000DE009000808F50000A00320045003700A2
:104990000000EB0040079800AE0090001E00900061
:1049A000808F500041003A0011002000410798001C
:1049B0003E0037006600470090409000D0C3B3002F
:1049C00080CF500009003A000000EB00400798003B
:1049D000AE0090001E009000808F50003300350024
:1049E0001100200041079800300037000000EB0064
:1049F00040079800AE0090001E009000808F50008D
:104A00002A003400110020004107980027003700D9
:104A10006600470090409000D0C3B30080CF5000A4
:104A200009003A000000EB0040079800AE0090003B
:104A30001E009000808F50001C003C0011002000E0
:104A400041079800190037000000EB00400798006C
:104A5000AE0090001E009000808F500013003D00BB
:104A60001100200041079800100037006600470041
:104A700090409000D0C3B30080CF500009003A00AE
:104A80000000EB0040079800AE0090001E00900070
:104A9000808F50000500320011002000410798006F
:104AA000020037000000EB00400798004E00900025
:104AB0000080FA00000006001C00FA00881F780041
:104AC0000000EB00507288000000EB0030079800F7
:104AD0000000EB00200798000000EB001007980092
:104AE0000000EB00607288000000EB00707288002C
:104AF0000000EB00807288000000EB005007980077
:104B0000D04080000080A000D04088000000EB0072
:104B100040079800090037004E00900080004000D8
:104B2000A0DE2000808040000000EB0080087800BC
:104B30004E0090000000E800400798004E009000F2
:104B4000F90F5000F4FF34003D0437001E009000C0
:104B50000000E00021003A005172800020E52000B2
:104B60000080400090407800F0CDB30080CF50002E
:104B700003003E0020002000300798003304370077
:104B80005172800020E52000008040001040780035
:104B90008080FB0000F22F0000804000600798003A
:104BA000507280008000E80020E520000080400076
:104BB000104078000080FB004801DD00507280004A
:104BC0008080E80020E52000008040001040780050
:104BD0000080FB0000007100500798000000EB000F
:104BE0001007980050728000E300400020E520008C
:104BF00000804000104078000080FB006101B90097
:104C000000F82F00F1FF2F000201400083814800CF
:104C1000420F9800530F980010022000010020005E
:104C20004E099000DE099000800F5100818F5900DD
:104C3000F7033E004E089000DE089000006001007F
:104C40002100370035003700F1033700F00337004B
:104C50007100370081003700A3003700B70037002C
:104C6000BE0037003B01370088013700E8033700FA
:104C7000EE0137003502370099023700A0023700F5
:104C8000AE023700BC023700CA023700D802370034
:104C9000DF0337008403370068033700DC03370085
:104CA000DB033700E2023700F0023700AB033700C6
:104CB000B60337000A0337001E0337003E033700F0
:104CC000BE033700CF0337001000200020079800F4
:104CD0005072800066004000507288005072800060
:104CE0008080E90020E5200000804000104078002E
:104CF0008080FB00F0FB2F0000844000A0FE070036
:104D00000001780088004400A0DE20000080400000
:104D10000208780045FD0700BF033700100020009F
:104D20002007980050728000640040005072880094
:104D3000C2FE07000000E0001C003200517280003B
:104D4000310F980020E520003E099000000041004E
:104D5000904078008041EB004357980020C8B30092
:104D600080CF500002003A0010C0B30040579800B6
:104D7000BE0890000100E800507288004E5190007B
:104D80000204E000A4033200100020001007980085
:104D90005072800063005000507288009E033700FC
:104DA000507280000000E80050728800517280004C
:104DB00020E52000008040009040780030C8B3001B
:104DC00080CF5000070032005172800020E52000A3
:104DD000008040009040780000CEB30080CF5000AB
:104DE000EFFF36005172800020E520000080400077
:104DF0009040780030C8B30080CF500086033A005E
:104E00001000200010079800507280000080E90018
:104E1000507288008003370010002000200798009F
:104E200050728000640040005072880054FE0700F9
:104E300016FD0700000F78008081EB009E8F1100A7
:104E4000030032001E0078005072880072033700A1
:104E500060002000300798006F033700100020002A
:104E60002007980050728000640040005072880053
:104E700070728000E90F500018003C0072728000D0
:104E8000517280006E009000008040008001E900B7
:104E900082004100E0E1200000804000030878002B
:104EA000707280000000E8007072880034FE070015
:104EB000F6FC0700000F78008080EB009E8F10004A
:104EC000030032001E01780052728800520337003E
:104ED00060002000300798004F033700700020006A
:104EE000300798004C033700C0872800F86902009B
:104EF0000000000010002000200798007072800061
:104F00000000E0000A003200707280000000E9003A
:104F1000707288007072800080004000E0E1200024
:104F20000080400010007800507288003A0337007B
:104F30008000200030079800370337001000200061
:104F400020079800517280006E00900000804000A1
:104F500063004000507288002F03370010002000CB
:104F60002007980050728000640040005072880052
:104F7000570037005172800020E52000008040007B
:104F80009040780020C2B30080CF50001F003A004C
:104F9000507280000000E800507288001000370056
:104FA000D04080000080A100D04088005172800075
:104FB00020E520000080400010407800004178008B
:104FC0000100E8005072880002407800546E020030
:104FD00000000000D04080000080A000D040880089
:104FE0005172800020E52000008040009040780051
:104FF00020C2B30080CF5000E9FF3A005072800019
:105000000000E800507288003100370051728000C3
:1050100020E52000008040009040780000C4B300EC
:1050200080CF5000070036005172800020E520003C
:105030000080400090407800A0C5B30080CF5000B1
:105040000D0036005172800020E5200000804000F5
:10505000104078000004E00013003D005172800011
:1050600020E520000080400090407800F0CDB300A3
:1050700080CF50000C003E00C1FD0700000F7800FB
:10508000D04080000080A100D04088001E00780041
:10509000326C020000000000D04080000080A000C0
:1050A000D04088000A0037005172800020E52000BF
:1050B0000080400090407800B0C3B30080CF500023
:1050C00003003A00507280000000E800507288002F
:1050D0005172800020E52000008040009040780060
:1050E000F0CDB30080CF500007003E005172800029
:1050F00020E52000008040009040780030C8B300D8
:1051000080CF50009BFF3A00507280008000E90081
:1051100020E520000080400090407800B0C3B3003C
:1051200080CF500009003200D04080000080A100F4
:10513000D040880020912800246A0200000000006E
:10514000D04080000080A000D040880037FC0700DD
:10515000B10237001000200020079800D0408000E6
:105160000080A100D04088005072800064004000A0
:10517000507288005172800020E5200000804000BD
:105180009040780020C2B30080CF500018003A0051
:10519000507280000000E800507288000A0037005A
:1051A0005172800020E5200000804000104078000F
:1051B000004178000100E800507288000240780049
:1051C000546E0200000000005172800020E52000B3
:1051D000008040009040780020C2B30080CF500093
:1051E000EFFF3A00507280000000E8005072880023
:1051F0005172800020E5200000804000904078003F
:10520000C0C2B30080CF500004003A00507280004A
:105210000000E800507288000200370030002000D3
:10522000300798005172800020E520000080400087
:10523000104078008080FB00F0FB2F0000844000CD
:105240008001EB00F2FF27008000EB000000EB0084
:10525000BE1B02000000000000017800880044002E
:10526000A0DE20000080400002087800507280001C
:105270000000E80050728800ECFB0700D04080007E
:105280000080A000D040880063023700100020009A
:10529000200798005072800064004000507288001F
:1052A00060728000E30F500004003C0060728000D8
:1052B0000000E80060728800020037004000200013
:1052C00030079800627280005372800020E5200051
:1052D00000804100104078008080FB0000FC2F001F
:1052E000008240006610B9008080E80020E32000C2
:1052F00000804000040878000300E8005072880035
:105300005172800020E5200000804000904078002D
:10531000D0C3B30080CF500011003A00507280001B
:105320000000E80050728800607280006600B900DA
:105330008080E80020E3200000804000100078001A
:105340000004E9000EFD0700000178008800440019
:10535000A0DE200000804000020878000200370034
:10536000300020003007980053728000130F98001F
:1053700020E520009E0890000080400090407800CA
:105380000041EB0002579800B0C8B30080CF500036
:1053900002003A0013C0B300035798009E08900023
:1053A0000100E800507288000E5190000204E000F5
:1053B0000900320068728000F1FC070000017800EB
:1053C0006640B900E400400020E320000080400077
:1053D00002087800020037003000200030079800F3
:1053E0005172800020E5200000804000904078004D
:1053F000F0CDB30080CF500008003600607280000E
:10540000527280006600B9008000780020E320001E
:1054100000804000020878000200370030002000C1
:105420003007980081FB0700FB01370010002000C7
:10543000200798005072800064004000507288007D
:105440005272800020E520000000410010407800EA
:105450008080FB0000FC2F00008F40000200E8006D
:105460005072880050002000300798000000EB00C8
:10547000400798002F0037004E0090006600B900EA
:105480008080E80020E320000080400010007800C9
:105490009E0F500024003A001E00E90080004000EA
:1054A000A0DE200000804000100178004E00900037
:1054B0006600B900E400400020E3200000804000C6
:1054C00010007800800F510012003D009E00E9009E
:1054D00001814000A0DE20000000410010007800A3
:1054E0000001E80081804000A0DE20000080400034
:1054F000020878004E0090006600B9008000780035
:1055000020E32000008040001000780050728800E6
:1055100003003700607280000000E90060728800BC
:105520000000EB00300798004E0090000000E800FB
:1055300040079800617280004E009000810F50007B
:10554000CDFF340039FB0700B30137001000200005
:10555000200798005072800064004000507288005C
:10556000807280000000E00027003A000000EB009D
:10557000400798000A003700CE00900020E5200088
:1055800000804000104078008080FB004E009000BA
:105590008080400030F22F000080400040079800DB
:1055A0004E009000E300400020E520000080400015
:1055B00090407800E0C8B30080CF50000600320071
:1055C000CE00900020E520000080400010407800D0
:1055D0000004E000E8FF3A00CE00900020E5200043
:1055E00000804000104078000004E0000400320019
:1055F0004E00900064004000807288000200370076
:10560000900020003007980053728000030F78004C
:1056100080728000507288009E00780020E5200093
:1056200000804000104078008080FB00F0FB2F00DD
:105630000084400049FB0700000178008800440016
:10564000A0DE200000804000020878005072800038
:10565000807288001E00E80050728800817280000D
:1056600020E520000080400090407800C0C2B300D8
:1056700080CF500003003A00807280000000E800F4
:10568000807288008172800020E520000080400048
:105690009040780000CEB30080CF50000E0036005E
:1056A00080728000E300400020E520000080400080
:1056B00090407800E0C8B30080CF50000300320073
:1056C0000000EB00807288000300370080728000C9
:1056D0006400400080728800D4FA07004E01370051
:1056E0001000200020079800517280006E0090008A
:1056F000008040006300400050728800460137007F
:1057000010002000200798005072800064004000C4
:1057100050728800A1408000C00220000088B900BB
:1057200080007800E09320000080400010007800A6
:1057300000000100BDFA070037013700100020000B
:10574000200798005072800064004000507288006A
:10575000A1408000C00220000088B9008080E800DD
:10576000E09320000080400010007800000001005D
:10577000AEFA07002801370010002000200798002B
:10578000507280006400400050728800A140800088
:10579000C00220000088B900E4004000E09320002F
:1057A0000080400010007800000001009FFA070010
:1057B0001901370010002000200798005072800067
:1057C0006400400050728800A1408000C0022000A8
:1057D0000088B900E6004000E0932000008040000F
:1057E000100078000000010090FA07000A0137005D
:1057F00010002000200798005072800064004000D4
:1058000050728800A1408000C00220000088B900CA
:10581000E8004000E0932000008040001004780081
:10582000D7FB07000800010080FA0700FA003700E4
:105830001000200020079800507280006400400093
:1058400050728800CEFB07000000E0000300320029
:10585000607F02000000000002003700827F02002B
:105860000000000071FA0700EB0037001000200074
:105870002007980050728000640040005072880039
:10588000BFFB07000000E0000A003200C082A90050
:10589000C282A800C8A2A900CAA2A80050B62000CF
:1058A000104078000070A00051B6200080487800B9
:1058B00009003700C082A900C282A900C8A2A900BD
:1058C000CAA2A90050B62000104078000070A100C4
:1058D00051B620008048780054FA0700CE00370007
:1058E00010002000200798005072800064004000E3
:1058F00050728800A2FB07000000E00006003200A2
:1059000050B62000104078000000A00051B62000E2
:10591000804878000500370050B62000104078001D
:105920000000A00051B62000804878003FFA070030
:10593000B900370010002000200798005072800046
:1059400064004000507288008DFB070030608800C2
:10595000306080000000E00002003D000000EB002D
:10596000306088003160800000FA2000808F500095
:105970000200340000FA200030608800406080009F
:10598000E10F500002003C00200020004060880031
:105990004160800030062000808F500002003400FB
:1059A0003006200040608800067C020000000000F5
:1059B0001EFA07009800370010002000200798000A
:1059C0005072800064004000507288006CFB070039
:1059D00040608800306080000000E00002003D0070
:1059E0000000EB00306088003160800000FA200089
:1059F000808F50000200340000FA200030608800E0
:105A000040608000E10F500002003C0020002000B8
:105A1000406088004160800030062000808F500088
:105A2000020034003006200040608800067C02003E
:105A300000000000FDF9070077003700100020008B
:105A40002007980050728000640040005072880067
:105A50004BFB07000000E00009003200A14080007D
:105A6000C00220000088B900F0004000E093200050
:105A7000008040001000780000000100080037009E
:105A8000A1408000C00220000088B900F200400060
:105A9000E09320000080400010007800000001002A
:105AA000E2F907005C003700100020002007980092
:105AB00050728000640040005072880030FB070084
:105AC000700798007E009000E10F50001000320037
:105AD000FE009000E28F5000160032007E01900020
:105AE0000200E000010032001A003700A1408000EF
:105AF000C00220000088B900EE004000E0932000C2
:105B00000080400010007800000001001100370004
:105B1000A1408000C00220000088B900EC004000D5
:105B2000E093200000804000100078000000010099
:105B300008003700A1408000C00220000088B900A2
:105B4000F6004000E0932000008040001000780044
:105B500000000100B5F907002F00370010002000F9
:105B60002007980050728000640040005072880046
:105B7000517280006E009000008040000000E9003B
:105B800050728800A9F90700230037001000200098
:105B90002007980050728000640040005072880016
:105BA000F7FA0700000F78001E0078008C970200BB
:105BB000000000009DF907001700370010002000CA
:105BC00020079800507280006400400050728800E6
:105BD000EBFA0700000F7800A1408000C00220000F
:105BE0000088B900FC004000E093200000804000E5
:105BF000900078001E007800010001008BF907007A
:105C00000500370010002000300798000200370020
:105C100030002000300798002E0090000000E000C7
:105C200005003A00517280006E0090000080400034
:105C300063004000507288000000EB0020079800CD
:105C40003E0090000000E000C0FB3200D040800029
:105C50000080A100D04088003E009000E10F50007D
:105C60001800320061002000C0402000DE9B0200CE
:105C7000000000003E009000326C020000000000B6
:105C80008100200020412000DE9B02000000000077
:105C90005E009000326C020000000000B1002000A5
:105CA000A0412000DE9B0200000000005072800036
:105CB000326C02000000000020912800246A0200DB
:105CC000000000004F0478000080FA000000060089
:105CD0000200FA00000F780000C2B300546E020008
:105CE000000000001E007800F869020000000000BB
:105CF00000C2B300546E0200000000000080FA00F1
:105D0000000006000400FA000000EB00507288005A
:105D10003F0037005172800020E5200000804000E5
:105D200090407800214798002E4090000004E00049
:105D3000040035002E409000546E02000000000068
